:100000000C94CE030C94EF030C94EF030C94EF03C9
:100010000C94EF030C94EF030C94EF030C94EF0398
:100020000C94EF030C94A4100C94EF030C94FA1F9F
:100030000C94EF030C94EF030C94EF030C94D72A69
:100040000C94EF030C94042C0C94EF030C94EF032A
:100050000C94EF030C94EF030C94EF030C94EF0358
:100060000C94EF030C949F270C945A270C94EF03E5
:100070000C94EF030C94EF030C94EF030C94EF0338
:100080000C94EF030C94EF030C94EF030C94EF0328
:100090000C94EF030C94EF030C94EF030C94EF0318
:1000A0000C94EF030C94EF030C94EF030C94EF0308
:1000B0000C94EF030C94EF030C94EF030C94EF03F8
:1000C0000C94EF030C94EF030C94EF030C94EF03E8
:1000D0000C94EF030C94EF030C94EF030C94EF03D8
:1000E0000C94EF031728172817282E2843284C288C
:1000F00055285E2867287E288A2893289C28A528CA
:10010000B728CB28DD28F32805290E29172920290F
:100110002B29084AD73B3BCE016E84BCBFFDC12FC3
:100120003D6C74319ABD56833DDA3D00C77F11BEE8
:10013000D9E4BB4C3E916BAAAABE000000803F05EB
:10014000A84CCDB2D44EB93836A9020C50B991861C
:1001500088083CA6AAAA2ABE000000803F3E0D0ADD
:10016000002C0057506F733A002C002C4D506F73C9
:100170003A003C436865636B003C416C61726D0002
:100180003C486F6D65003C486F6C64003C52756E76
:10019000003C5175657565003C49646C65000D0A4D
:1001A000003D00244E005D0D0A0020460020540052
:1001B000204D3800204D3900204D3500204D3400B1
:1001C000204D3300204D3200204D3100204D3000B5
:1001D0002047393400204739330020473931002087
:1001E0004739300020473231002047323000204765
:1001F000313900204731380020473137002047008F
:100200005B473830005B4733005B4732005B473168
:10021000005B4730005D0D0A002C005B4739323A25
:10022000005D0D0A002C0033303A0032383A0035B8
:10023000393A0035383A0035373A0035363A003524
:10024000353A0035343A005B47002028686F6D6905
:100250006E672070756C6C2D6F66662C206D6D2935
:100260000D0A002028686F6D696E67206465626FF3
:10027000756E63652C206D736563290D0A24323217
:100280003D002028686F6D696E67207365656B2C73
:10029000206D6D2F6D696E290D0A2432313D0020CD
:1002A00028686F6D696E6720666565642C206D6DCA
:1002B0002F6D696E290D0A2432303D00290D0A2464
:1002C00031393D002028686F6D696E67206469725E
:1002D00020696E76657274206D61736B2C20696E77
:1002E000743A002028686F6D696E67206379636CCB
:1002F000652C20626F6F6C290D0A2431383D002077
:100300002868617264206C696D6974732C20626F57
:100310006F6C290D0A2431373D002028696E7665FF
:100320007274207374657020656E61626C652C2038
:10033000626F6F6C290D0A2431363D0020286175EB
:10034000746F2073746172742C20626F6F6C290D4E
:100350000A2431353D0020287265706F727420695F
:100360006E636865732C20626F6F6C290D0A2431EF
:10037000343D0020286E2D646563696D616C732CBB
:1003800020696E74290D0A2431333D0020286E2D1A
:1003900061726320636F7272656374696F6E2C2083
:1003A000696E74290D0A2431323D00202861726380
:1003B0002C206D6D2F7365676D656E74290D0A2491
:1003C00031313D0020286A756E6374696F6E206458
:1003D0006576696174696F6E2C206D6D290D0A2434
:1003E00031303D002028616363656C65726174691A
:1003F0006F6E2C206D6D2F7365635E32290D0A249C
:10040000393D002028737465702069646C65206430
:10041000656C61792C206D736563290D0A24383D64
:1004200000290D0A24373D00202873746570207060
:100430006F727420696E76657274206D61736B2CB7
:1004400020696E743A00202864656661756C7420BA
:100450007365656B2C206D6D2F6D696E290D0A24F7
:10046000363D00202864656661756C74206665659C
:10047000642C206D6D2F6D696E290D0A24353D00A9
:100480002028737465702070756C73652C207573EB
:100490006563290D0A24343D0020287A2C207374CA
:1004A00065702F6D6D290D0A24333D002028792CAD
:1004B00020737465702F6D6D290D0A24323D002064
:1004C00028782C20737465702F6D6D290D0A2431E6
:1004D0003D0024303D00242420287669657720479C
:1004E00072626C2073657474696E6773290D0A24D7
:1004F00023202876696577202320706172616D65FD
:1005000074657273290D0A2447202876696577205F
:10051000706172736572207374617465290D0A24A9
:100520004E20287669657720737461727475702027
:10053000626C6F636B73290D0A24783D76616C756C
:1005400065202873617665204772626C207365743C
:1005500074696E67290D0A244E783D6C696E6520BA
:100560002873617665207374617274757020626C93
:100570006F636B290D0A24432028636865636B2031
:1005800067636F6465206D6F6465290D0A245820C8
:10059000286B696C6C20616C61726D206C6F636B91
:1005A000290D0A2448202872756E20686F6D696EC7
:1005B00067206379636C65290D0A7E20286379635F
:1005C0006C65207374617274290D0A212028666598
:1005D000656420686F6C64290D0A3F20286375727A
:1005E00072656E7420737461747573290D0A637477
:1005F000726C2D7820287265736574204772626C66
:10060000290D0A000D0A4772626C20302E386320D3
:100610005B27242720666F722068656C705D0D0A69
:10062000005D0D0A0044697361626C656400456E8B
:1006300061626C65640043617574696F6E3A205540
:100640006E6C6F636B656400272448277C272458F1
:100650002720746F20756E6C6F636B005265736535
:100660007420746F20636F6E74696E7565005B0033
:100670002E204D506F733F0D0A0041626F7274203F
:10068000647572696E67206379636C650048617296
:1006900064206C696D697400414C41524D3A2000F0
:1006A0000D0A004C696E65206F766572666C6F7717
:1006B00000416C61726D206C6F636B0042757379E1
:1006C000206F722071756575656400454550524F05
:1006D0004D2072656164206661696C2E20557369D6
:1006E0006E672064656661756C74730056616C7525
:1006F00065203C203320757365630056616C756519
:10070000203C20302E300053657474696E6720647D
:10071000697361626C656400496E76616C6964201E
:1007200073746174656D656E74004D6F64616C20E7
:1007300067726F75702076696F6C6174696F6E0097
:10074000496E76616C6964207261646975730055E5
:100750006E737570706F7274656420737461746504
:100760006D656E7400457870656374656420636FB1
:100770006D6D616E64206C657474657200426164B5
:10078000206E756D62657220666F726D61740065B2
:1007900072726F723A20006F6B0D0A0011241FBE37
:1007A000CFEFD1E2DEBFCDBF00E00CBF12E0A0E092
:1007B000B2E0E0E1F9E600E00BBF02C007900D9265
:1007C000A030B107D9F71CE0A0E0B2E001C01D9253
:1007D000AB3FB107E1F70E94D9100C9486340C941A
:1007E000000010920002389A4098089540980895A9
:1007F0001F93182F80910002181749F00E945D1E68
:10080000113011F4409A01C04098109300021F91DA
:100810000895F999FECF92BD81BD81E08FBB80B56F
:100820000895F894F999FECF92BD81BD81E08FBB08
:1008300040B54627842F992787FD9095262F30E0D5
:1008400082239323892B39F06F3F19F060BD84E038
:1008500006C084E104C0442321F060BD84E28FBB64
:10086000F99A789408958F929F92AF92BF92CF9207
:10087000DF92EF92FF920F93DF93CF930F920F923D
:10088000CDB7DEB75C016B017A014A0100E01EC002
:10089000002319F021E030E008C0202F332727FD86
:1008A00030952227330F221F3327F60161916F0104
:1008B000062F020F9C012F5F3F4F3A8329830E942E
:1008C000110408948108910889819A818114910406
:1008D000F9F6C7018A0D9B1D602F0E9411040F902D
:1008E0000F90CF91DF910F91FF90EF90DF90CF901D
:1008F000BF90AF909F908F900895CF93DF93EC01BE
:10090000FB019A0190E0B1E019C0F999FECFF2BD68
:10091000E1BDBFBBA0B5992319F081E090E008C00C
:10092000892F992787FD90958827990F881F9927E8
:1009300031969A2F980FA9932150304021153105F7
:1009400021F7460F571FF999FECF52BD41BD81E0F7
:100950008FBB80B520E030E0981711F421E030E043
:10096000C901DF91CF910895AF92BF92CF92DF92EC
:10097000EF92FF920F931F9359016A010E94253154
:100980002091C50C3091C60C4091C70C5091C80CF9
:100990000E948A3060930C0B70930D0B80930E0BAA
:1009A00090930F0BC601B5010E9425312091C90C0F
:1009B0003091CA0C4091CB0C5091CC0C0E948A30E3
:1009C0006093100B7093110B8093120B9093130B89
:1009D000C801B7010E9425312091CD0C3091CE0C79
:1009E0004091CF0C5091D00C0E948A306093140B30
:1009F0007093150B8093160B9093170B1F910F910B
:100A0000FF90EF90DF90CF90BF90AF9008950F933D
:100A10001F93CF93DF93EC018B01D9018C91FA01E5
:100A2000E80FF11DE081EE23B1F0E883E154EA31F3
:100A300010F082E00EC08C918F5F8C93CA01B901D7
:100A4000A8010E94C315892B19F021E030E005C0F0
:100A500081E08093000B20E030E0C901DF91CF916D
:100A60001F910F9108952F923F924F925F926F9234
:100A70007F928F929F92AF92BF92CF92DF92EF922E
:100A8000FF920F931F93DF93CF93CDB7DEB7C75479
:100A9000D0400FB6F894DEBF0FBECDBF4C018091A1
:100AA000360B863019F48CE00C94D30D19828CE04F
:100AB000FE013796DF01482F1D924A95E9F7FE01A6
:100AC0007396DF011D928A95E9F71092000B249628
:100AD0001FAE1EAE249722961FAE229721961FAE00
:100AE000219712E0612E712C6C0E7D1EB3E04B2E0F
:100AF000512C4C0E5D1E1E010894211C311CA3E0DC
:100B0000AA2ECC24C394F2E0BF2ED6C1EB80FC8089
:100B10000D811E81C801B7010E9426340E94F23067
:100B20009B014A81473421F04D3409F0C5C153C1BE
:100B30006E317105C9F16F317105D4F464317105FD
:100B400084F461317105B4F56430710569F1653083
:100B500071051CF477235CF525C06A30710511F529
:100B600023C0663171057CF16C317105D9F41CC06C
:100B70006C3571058CF46A357105FCF46C337105C4
:100B80003CF46633710514F56533710559F40CC0F6
:100B90006035710539F40BC06C35710529F06F357E
:100BA000710574F0DD2414C0DD24D39411C0E2E09B
:100BB000DE2E0EC073E0D72E0BC064E0D62E08C028
:100BC00056E0D52E05C047E0D42E02C099E0D92EBC
:100BD0002531310509F494C026313105A4F52430BE
:100BE000310509F467C025303105A4F42130310501
:100BF00009F465C02230310524F4232B09F45CC0CC
:100C00003AC12230310509F45DC02330310509F0C5
:100C100032C15BC02231310509F461C02331310595
:100C20004CF42A30310509F443C02131310509F073
:100C300022C14EC02331310509F458C02431310599
:100C400009F019C15AC02035310509F496C0213583
:100C50003105ACF42533310509F485C0263331055F
:100C60004CF42C31310509F44EC02E31310509F018
:100C700002C149C02C3331050CF0FDC079C02C35C0
:100C8000310509F484C02D3531054CF42A35310580
:100C900009F477C02B35310509F0EDC075C02D354D
:100CA000310509F492C02E35310509F0E4C090C039
:100CB000B2E087C0E1E04EC01092010BDEC0C092EE
:100CC000010BDBC0B092010BD8C0A092010BD5C0C4
:100CD0001092190BC0921A0BB0921B0BCEC0B0929F
:100CE000190B10921A0BC0921B0BC7C0C092190BA4
:100CF000B0921A0B10921B0BC0C0C092030BBDC068
:100D00001092030BBAC0C801B70120E030E040E206
:100D100051E40E9458330E9426340E94F230F1E0E0
:100D200069317F0791F041E06A3174072CF4685112
:100D3000714009F0A0C00BC081E06C32780749F027
:100D40006D52714009F097C009C0A4E035C0B3E00E
:100D500038C0E5E02196EFAF21978FC0F6E02196ED
:100D6000FFAF21978AC041E022964FAF229785C0FE
:100D7000822F865380931C0B80C054E05093010B4C
:100D80007CC0C092040B79C01092040B76C0C801DD
:100D9000B70120E030E040E251E40E9458330E9465
:100DA00026340E94F23083E06839780749F06959A7
:100DB000734009F060C0A8E02196AFAF21975DC0F5
:100DC000B7E02196BFAF219758C0C092020B55C023
:100DD0001092020B52C06630710534F46330710515
:100DE0005CF4772334F403C06E31710511F0DD2417
:100DF00005C085E0D82E02C008E0D02E2430310591
:100E000069F12530310584F421303105B1F122300A
:100E100031051CF4232BC9F02EC022303105C1F05E
:100E20002330310541F517C028303105F1F0293064
:100E3000310524F425303105F1F414C02930310591
:100E4000B9F02E313105B9F403C0C092050B15C0BD
:100E5000B092050B12C0C092060B0FC0EFEFE093EB
:100E6000060B0BC01092060B08C0C092070B05C002
:100E70001092070B02C0A092000BDD20E9F021E0E8
:100E800030E002C0220F331FDA94E2F724968EADD1
:100E90009FAD249782239323892B21F0F5E0F093D3
:100EA000000B0AC024964EAD5FAD2497422B532B06
:100EB00024965FAF4EAF2497C301B201A401910104
:100EC0000E940705892B09F021CE8091000B882311
:100ED00009F069C61982772425961FAE25972696B4
:100EE0001FAE269750E827965FAF27976FEB28969F
:100EF0006FAF28970F2EF0E02F2EF0E03F2EF0E09E
:100F00004F2EF0E05F2EF02D2CAE3DAE4EAE5FAE1C
:100F10001BAE5E010894A11CB11C13E0C12EB6E00B
:100F2000DB2E46C11A811F347CF41D340CF040C105
:100F30001C340CF080C019340CF05AC01634E9F09F
:100F4000173409F017C134C1143509F4AFC0153591
:100F500054F4123509F47EC013350CF097C01035E7
:100F600009F008C172C0193509F4D2C01A3509F464
:100F7000E8C0183509F0FEC0B2C0EB80FC800D81DE
:100F80001E81C801B70120E030E040E050E00E943F
:100F90008330181614F0D092000B8091020B882336
:100FA00081F08091030B882309F4F6C0C801B701D2
:100FB00023E333E34BEC51E40E9458337B018C0173
:100FC000EBC08091030B882351F0C801B70123E3E4
:100FD00033E34BEC51E40E9458337B018C01E092E7
:100FE000080BF092090B00930A0B10930B0BC4C073
:100FF0002B813C814D815E818091030B882351F0D0
:10100000CA01B90123E333E34BEC51E40E945833A6
:101010009B01AC01E12FFF27E7FDF095E954F0407B
:10102000EE0FFF1FEE0FFF1FEA0DFB1D228B338B10
:10103000448B558BA1C06B817C818D819E810E94E8
:1010400026340E94F7306BAF97C02B803C804D80D8
:101050005E8092C08B819C81AD81BE818CAF9DAF43
:10106000AEAFBFAF8091030B882309F485C06CAD90
:101070007DAD8EAD9FAD23E333E34BEC51E40E9495
:1010800058336CAF7DAF8EAF9FAF76C06B817C81E4
:101090008D819E8120E030E040E050E00E9483306E
:1010A00088230CF069C0D092000B66C0EB80FC80F6
:1010B0000D811E81C801B70120E030E040E050E022
:1010C0000E948330882314F4D092000BC801B7012A
:1010D0000E9426340E94F7306093180B4DC02B817C
:1010E0003C814D815E818091030B882351F0CA01C0
:1010F000B90123E333E34BEC51E40E9458339B01E5
:10110000AC012F83388749875A8791E0792A34C008
:101110002B813C814D815E818091030B882351F0AE
:10112000CA01B90123E333E34BEC51E40E94583385
:101130009B01AC012B873C874D875E87A2E07A2A12
:101140001BC02B813C814D815E818091030B8823E4
:1011500051F0CA01B90123E333E34BEC51E40E949F
:1011600058339B01AC012F87388B498B5A8BB4E0E5
:101170007B2A02C0C092000B25962FAD259726969C
:101180003FAD269727964FAD279728965FAD2897B6
:10119000C901DA017C018D012596EFAE25972696CF
:1011A000FFAE269727960FAF279728961FAF289751
:1011B000CE010296BE016D5F7F4FA40195010E9492
:1011C0000705892B09F0AECEB72C25962FAD2597B4
:1011D00026963FAD269727964FAD279728965FAD69
:1011E0002897C901DA018FAB98AFA9AFBAAF809148
:1011F000000B882309F0D7C48091360B873041F06B
:101200008091060B0E949F2A8091070B0E94F80391
:101210002496EEADFFAD2497F1FF13C08E01015E61
:101220001F4F80911C0BB8010E94082A882309F4E3
:10123000B9C4ADE1BBE0F8018CE001900D928150A2
:10124000E1F72196FFAD2197F43009F469C1F5303B
:1012500048F4F23079F1F33008F0B6C0F13009F01B
:10126000B7C110C021964FAD2197463009F458C13F
:10127000463008F4A9C0473009F45FC1483009F08E
:10128000A7C19FC1C201B10120E030E040E050E0C1
:101290000E948330882324F486E08093000B98C159
:1012A0008091360B873009F493C1C201B1010E94CD
:1012B00044118EC15BAD523011F0543149F4C2017A
:1012C000B1010E9426340E94F2306730710520F08F
:1012D00083E08093000B7EC1772021F48BAD8230B8
:1012E00009F42DC1161617062CF44B010894810839
:1012F000910804C080911C0B882E9924582C8E01D3
:10130000015E1F4F882DB8010E94082A882309F426
:1013100049C4ECE0AE2EEBE0BE2E77E0C72ED12C18
:10132000CC0EDD1E780100E010E0672C7724C301AD
:10133000002E02C0959587950A94E2F780FF20C0A1
:101340009BAD943199F4D5016D917D918D919C91D6
:10135000F60120813181428153810E94A92FD7015A
:101360006D937D938D939C9313970AC0F6018081B2
:101370009181A281B381F70180839183A283B3839A
:101380000F5F1F4F44E050E0A40EB51EC40ED51EE3
:10139000E40EF51E0330110551F68E01015E1F4F5C
:1013A000852DB8010E94FD2980911C0B90E08815C5
:1013B000990509F00FC1ADE1BBE0F8018CE00190A7
:1013C0000D928150E1F706C1772009F478C08E01B3
:1013D000095F1F4F6CE0E62E6BE0F62ECC24DD2477
:1013E000A72CBB24C5010C2C02C0959587950A94A7
:1013F000E2F780FF35C08091040B8823F9F0D70114
:1014000051966D917D918D919C9154975D962D9102
:101410003D914D915C9190970E94AA2F9B01AC0148
:10142000F80160817181828193810E94AA2FD80185
:101430006D937D938D939C9313971CC0F8016081ED
:10144000718182819381D7012D913D914D915C9164
:101450000E94AA2FF80160837183828393830AC05C
:10146000F70180819181A281B381F801808391830A
:10147000A283B3830894C11CD11C0C5F1F4F44E0AE
:1014800050E0E40EF51E53E0C516D10409F0AACFD2
:101490006F81788589859A852B853C854D855E850C
:1014A000EF84F88809891A89A090D70CB090D80CDD
:1014B000C090D90CD090DA0C88240E949811BE01FB
:1014C000655D7F4F21968FAD2197853011F487E0C0
:1014D00001C086E00E94082A882309F463C36BA533
:1014E0007CA58DA59EA52FA538A949A95AA9EBA829
:1014F000FCA80DA91EA9A090D70CB090D80CC09044
:10150000D90CD090DA0C88240E949811ACE0BBE092
:10151000FE01BB968CE001900D928150E1F75AC01C
:1015200021969FAD2197963011F487E001C086E0A7
:101530006CE07BE00E94FD294BC0772021F486E01F
:101540008093000B48C00CE01BE057E0C52ED12C67
:10155000CC0EDD1EEE24FF24A72CBB24C5010E2CCF
:1015600002C0959587950A94E2F780FF1CC0D801C8
:101570006D917D918D919C91139751962D913D91F7
:101580004D915C9154970E94A92FF60120813181E1
:10159000428153810E94A92FD8015D966D937D935E
:1015A0008D939C9390970894E11CF11C0C5F1F4F46
:1015B000E4E0F0E0CE0EDF1EF3E0EF16F10471F68A
:1015C00009C08CE0E9E2FBE0DF011D928A95E9F7B2
:1015D000B72C01C0BB242396BFAD2397B2FD03C037
:1015E000BB2009F4CBC28091020B882399F06FA92C
:1015F00078AD89AD9AAD20E030E040E050E00E9447
:10160000833088233CF48091010B843019F086E00C
:101610008093000B2296EFAD2297EE2339F0809154
:10162000010B823018F086E08093000B8091000B54
:10163000882309F0B8C28E01095F1F4F4CE0E42EE9
:101640004BE0F42ECC24DD248B2C9924C4010C2CEB
:1016500002C0959587950A94E2F780FF3BC02296D9
:10166000FFAD2297FF2309F03FC08091040B882330
:10167000F9F0D70151966D917D918D919C91549780
:101680005D962D913D914D915C9190970E94AA2F6E
:101690009B01AC01F80160817181828193810E947C
:1016A000AA2FD8016D937D938D939C9313971CC0A3
:1016B000F8016081718182819381D7012D913D91E3
:1016C0004D915C910E94AA2FF801608371838283FF
:1016D00093830AC0F70180819181A281B381F801CF
:1016E00080839183A283B3830894C11CD11C0C5FB7
:1016F0001F4F44E050E0E40EF51E53E0C516D10440
:1017000009F0A4CF8091010B843048F4823008F0B6
:101710005EC0882359F0813009F023C220C0843094
:1017200009F01FC2BB2009F41CC299C0BB2009F4F8
:1017300096C06F81788589859A852B853C854D85F6
:101740005E85EF84F88809891A89A090D70CB0903B
:10175000D80CC090D90CD090DA0C882435C0BB20AE
:1017600009F47DC06F81788589859A852B853C85B4
:101770004D855E85EF84F88809891A898090020B6F
:101780008820A1F4A091080B2596AFAF2597B091C2
:10179000090B2696BFAF2697E0910A0B2796EFAF6D
:1017A0002797F0910B0B2896FFAF28972596EFAD62
:1017B00025972696FFAD26972796AFAD27972896B3
:1017C000BFAD28975F016D010E949811CAC181E0E9
:1017D00090E000901B0B02C0880F991F0A94E2F75B
:1017E00080958B21E1F16CAD7DAD8EAD9FAD20E09C
:1017F00030E040E050E00E9483308823A1F5E09182
:10180000190BF0E0EE0FFF1FEE0FFF1F8E010F5FB1
:101810001F4FE00FF11F628973898489958920E049
:1018200030E040E050E00E9483308823E1F4809172
:101830001A0B90E0880F991F880F991F080F191F26
:10184000D80152966D917D918D919C91559720E094
:1018500030E040E050E00E948330882321F486E0AD
:101860008093000B7EC16CAD7DAD8EAD9FAD20E051
:1018700030E040E050E00E9483308E010F5F1F4F48
:10188000882309F4F5C0E091190BF0E0EE0FFF1F7B
:10189000EE0FFF1FD801AE0FBF1FE45FF44F169687
:1018A0006D917D918D919C9119972081318142811B
:1018B00053810E94A92F1B012C01E0911A0BF0E02B
:1018C000EE0FFF1FEE0FFF1F0E0F1F1FE45FF44F01
:1018D000D80116966D917D918D919C9119972081DB
:1018E0003181428153810E94A92F3B014C018CE040
:1018F000FE017396DF011D928A95E9F76CAD7DAD0F
:101900008EAD9FAD20E030E040E850E40E945833B7
:101910002CAD3DAD4EAD5FAD0E9458337B018C01C7
:10192000C201B101A20191010E9458339B01AC0197
:10193000C801B7010E94A92F7B018C01C401B3012A
:10194000A40193010E9458339B01AC01C801B70167
:101950000E94A92F7B018C0120E030E040E050E0A4
:101960000E948330882324F484E08093000B1BC101
:10197000C801B7010E94E5337B018C01C201B101AE
:10198000A40193010E9493329B01AC0117FB1095B7
:1019900017F91095C801B7010E948A306B017C01CC
:1019A0008091010B833021F4F7FAF094F7F8F0946A
:1019B0006CAD7DAD8EAD9FAD20E030E040E050E0FD
:1019C0000E94833088236CF4F7FAF094F7F8F094CF
:1019D0004CAD5DAD6EAD7FAD70584CAF5DAF6EAFD1
:1019E0007FAF0091190BA02EBB24AA0CBB1CAA0C24
:1019F000BB1C8E010F5F1F4FA00EB11EC401B301AF
:101A0000A70196010E9458339B01AC01C201B101AC
:101A10000E94A92F20E030E040E05FE30E945833AD
:101A2000D50152966D937D938D939C93559780919C
:101A30001A0B90E0880F991F880F991F080F191F24
:101A4000C201B101A70196010E9458339B01AC016C
:101A5000C401B3010E94AA2F20E030E040E05FE320
:101A60000E945833F801628B738B848B958B23C053
:101A7000E091190BF0E0EE0FFF1FEE0FFF1FE00FDC
:101A8000F11F628973898489958920911A0B30E04E
:101A9000220F331F220F331F020F131FD80152963C
:101AA0002D913D914D915C9155970E9493326CAF71
:101AB0007DAF8EAF9FAF9091010B2091190B0091DC
:101AC0001A0BE0901B0B8090020B8820A1F4B091C0
:101AD000080B2596BFAF2597E091090B2696EFAF2F
:101AE0002697F0910A0B2796FFAF279740910B0B93
:101AF00028964FAF289700D00F920F92EDB7FEB700
:101B000031964CAD5DAD6EAD7FADADB7BEB7119644
:101B10004D935D936D937C93149780E0923009F41C
:101B200081E084838CE09BE0BE01695F7F4FAE0162
:101B30004D5E5F4F25963FAD25972696EFAD2697D4
:101B40002796FFAD27972896AFAD2897A32EBE2ED8
:101B5000CF2EDA2E0E948A120F900F900F900F90C6
:101B60000F908091000B8823F1F4ACE0BBE0FE0104
:101B700037968CE001900D928150E1F78091050B32
:101B8000882369F00E945D1E1092440B8091050B22
:101B9000823019F40E942A1102C01092050B809124
:101BA000000B01C08AE0C95BDF4F0FB6F894DEBFBF
:101BB0000FBECDBFCF91DF911F910F91FF90EF909E
:101BC000DF90CF90BF90AF909F908F907F906F905D
:101BD0005F904F903F902F900895E0E0FBE085E309
:101BE000DF011D928A95E9F78091D30C9091D40C76
:101BF000A091D50CB091D60C8093080B9093090B53
:101C0000A0930A0BB0930B0B1092190B91E09093D9
:101C10001A0B82E080931B0B9093040B80911C0B9A
:101C2000BF01635E7F4F0E94082A882319F48AE06F
:101C30000E94AC22089584B18F7884B985B1806701
:101C400085B98091E80C83FF09C080916B008067A3
:101C500080936B0080916800816008C080916B0068
:101C60008F7880936B00809168008E7F80936800EE
:101C700008952F923F924F925F926F927F928F9230
:101C80009F92AF92BF92CF92DF92EF92FF920F930B
:101C90001F93DF93CF93CDB7DEB7A9970FB6F89414
:101CA000DEBF0FBECDBF8EA36FA348A73801490189
:101CB000FE0131968CE0DF011D928A95E9F70EA1B5
:101CC00000FD02C010E00FC06091C50C7091C60C01
:101CD0008091C70C9091C80C0E94283369837A8345
:101CE0008B839C8311E001FF0FC01F5F6091C90CC3
:101CF0007091CA0C8091CB0C9091CC0C0E9428332F
:101D00006D837E838F83988702FF0FC01F5F609172
:101D1000CD0C7091CE0C8091CF0C9091D00C0E9484
:101D2000283369877A878B879C8789859A85AB85D5
:101D3000BC852D803E804F805884281639064A067F
:101D40005B0610F41C012D0189819A81AB81BC8155
:101D5000281639064A065B0610F41C012D01612F76
:101D600070E080E090E00E9423310E94E5335B0147
:101D70006C01C201B1010E942331A60195010E94AC
:101D80008A307B018C012091E00C3091E10C409174
:101D9000E20C5091E30C0E94583320E030E84BE312
:101DA00055E40E948A300E9470300E94F7306AA386
:101DB0007BA38CA39DA3C401B301A60195010E943E
:101DC00058339B01AC01C801B7010E9458339B01F5
:101DD000AC0160EC71EE84E69CE40E948A300E94C3
:101DE00028337B018C01B8EFEB16B4E2FB06B1E0BF
:101DF0000B07B0E01B0718F45701680107C038EF64
:101E0000A32E34E2B32E31E0C32ED12C2091E90C65
:101E1000207E8091DB0C282729A33FA1332319F4CE
:101E200080EE282729A3D201C101B695A7959795E1
:101E30008795662477244301681A790A8A0A9B0ADF
:101E40008091D20CB601A501481B510961097109A5
:101E50004D8B5E8B6F8B788F6D8E7E8E8F8E98A262
:101E6000698E7A8E8B8E9C8E198A1A8A1B8A1C8A9E
:101E700060E177E280E090E06D877E878F87988BC6
:101E800074E089A1872789A733B198A5992311F018
:101E9000A0E73A27BEA1B0FF1AC089819A81AB8121
:101EA000BC81680E791E8A1E9B1E16141704180426
:101EB00019046CF434FF02C029A504C02EA12E7FA2
:101EC0002EA329A1621873088408950801C029A1CE
:101ED0004EA141FF29C08D819E81AF81B8854D8D76
:101EE0005E8D6F8D78A1480F591F6A1F7B1F4D8F24
:101EF0005E8F6F8F78A31416150616061706A4F4C6
:101F000035FF03C058E0252703C06EA16D7F6EA387
:101F10008D8D9E8DAF8DB8A182199309A409B50945
:101F20008D8F9E8FAF8FB8A39EA192FF29C0898508
:101F30009A85AB85BC85498D5A8D6B8D7C8D480FFC
:101F4000591F6A1F7B1F498F5A8F6B8F7C8F141606
:101F5000150616061706C4F436FF03C050E1252700
:101F600003C06EA16B7F6EA3898D9A8DAB8DBC8DE6
:101F700082199309A409B509898F9A8FAB8FBC8FF9
:101F80009EA1992309F46DC08091370B84FD69C02F
:101F900082B12C71837E282B22B96091D20C70E023
:101FA00080E090E00E948816A9A1A2B96D897E897F
:101FB0008F89988D0E948816EA14FB040C051D0574
:101FC00008F062CF2D853E854F8558892A0D3B1D2F
:101FD0004C1D5D1D2D873E874F87588B21326EE447
:101FE000360760E0460760E0560708F44DCF205200
:101FF0003E44404050402D873E874F87588B89890B
:102000009A89AB89BC892AA13BA14CA15DA1820F11
:10201000931FA41FB51F898B9A8BAB8BBC8B60E081
:1020200077E883E993E029893A894B895C890E94A2
:102030006434C901DA015C016D01AE14BF04C0064D
:10204000D10610F4570168018091D20CB601A501A8
:10205000481B5109610971094D8B5E8B6F8B788F1D
:1020600013CFA9960FB6F894DEBF0FBECDBFCF91A8
:10207000DF911F910F91FF90EF90DF90CF90BF9075
:10208000AF909F908F907F906F905F904F903F9018
:102090002F900895FF920F931F930E94BB2A0091E7
:1020A000EE0C1091EF0C2091F00C3091F10C84E0CB
:1020B00061E040E00E94390E0091EE0C1091EF0CAF
:1020C0002091F00C3091F10C83E061E040E00E943F
:1020D000390E8091F20C9091F30C0E947E1642E032
:1020E000F42EFA940091EA0C1091EB0C2091EC0C78
:1020F0003091ED0C87E060E041E00E94390E809164
:10210000F20C9091F30C0E947E1681E0F816A1F477
:102110000091EA0C1091EB0C2091EC0C3091ED0C3D
:1021200087E061E040E00E94390E8091F20C9091CE
:10213000F30C0E947E16D5CFFF2099F60E94BD2B8E
:102140001F910F91FF9008951F920F920FB60F925B
:102150000BB60F9211242F933F934F935F936F937E
:102160007F938F939F93AF93BF93EF93FF93809150
:10217000360B863059F08091370B85FD07C00E94E1
:102180002A118091370B80648093370BFF91EF9178
:10219000BF91AF919F918F917F916F915F914F917F
:1021A0003F912F910F900BBE0F900FBE0F901F907D
:1021B00018950F931F930E9427270E94332A0E948D
:1021C000D62B789480E1E5E3FBE0DF011D928A9550
:1021D000E9F781E08093350B8093360B06E011E040
:1021E0008091350B882389F10E949A270E947A1EDC
:1021F0000E94ED0D0E945D220E94972A0E94F10329
:102200000E941B0E0E94A92B0E94C8161092350B2B
:102210001092370B8091E80C982F81FF02C0109329
:10222000440B8091360B813021F494FF02C000935F
:10223000360B8091360B863021F482E00E94822298
:1022400004C01092360B0E94A2200E9441200E94DE
:102250000C22C6CF8091370B84FD15C08091370BBF
:1022600080618093370B0E949D2A0E94F603809123
:10227000360B8350833038F48091370B8062809323
:10228000370B0E94BD2B0895EF92FF920F931F937F
:10229000CF93DF937B018C0120E030E040EA51E4F2
:1022A0000E9458330E9460310E94F730EB010E9477
:1022B0005D1EC801B70120E030E04AE754E40E9407
:1022C00058337B018C0182E390E0C89FB001C99F25
:1022D000700DD89F700D112480E090E00E94233192
:1022E0009B01AC01C801B7010E94A92F0E94603177
:1022F0000E94F730DC01CB010E947E1600E911E05C
:102300000EC00E9441208091350B882351F484EF48
:1023100091E0F8013197F1F70197D9F721972097CC
:1023200081F7DF91CF911F910F91FF90EF9008956A
:102330004F925F926F927F928F92AF92BF92CF92A5
:10234000DF92EF92FF920F931F93DF93CF9300D012
:102350000F92CDB7DEB72B013C0129833A834B8323
:102360005C838091360B8730F9F00E944120809188
:10237000350B8823C9F40E9427178823B1F7C301BE
:10238000B20129813A814B815C810E94B81A809107
:10239000360B882319F482E08093360B8091440B2E
:1023A000882311F00E94542B0F900F900F900F90E4
:1023B000CF91DF911F910F91FF90EF90DF90CF9021
:1023C000BF90AF908F907F906F905F904F900895E7
:1023D0002F923F924F925F926F927F928F929F9235
:1023E000AF92BF92CF92DF92EF92FF920F931F9323
:1023F00085E08093360B80916B008F7880936B0023
:102400000E944A100E9441208091350B882309F0D8
:1024100070C08CE0E8E3FBE0DF011D928A95E9F7EC
:102420000E94C8161092360B3091E90C232F35FD0F
:1024300002C06FEF01C061E026FD03C0DD24DA9425
:1024400002C0DD24D39437FD03C0CC24CA9402C05B
:10245000CC24C394E090F40CF090F50C0091F60CB1
:102460001091F70C772767FD7095872F972F0E94A3
:102470002531A80197010E9458331B012C016D2DB5
:10248000772767FD7095872F972F0E942531A80128
:1024900097010E9458333B014C016C2D772767FD53
:1024A0007095872F972F0E942531A80197010E94D0
:1024B00058337B018C01A090EE0CB090EF0CC090D3
:1024C000F00CD090F10CC201B101A4019301882459
:1024D0000E9498110E94542B0E945D1E0E94C816F3
:1024E0008091E80C83FF05C080916B00806780932A
:1024F0006B001F910F91FF90EF90DF90CF90BF90F6
:10250000AF909F908F907F906F905F904F903F9093
:102510002F9008952F923F924F925F926F927F92E9
:102520008F929F92AF92BF92CF92DF92EF92FF92E3
:102530000F931F93DF93CF93CDB7DEB7CE54D04028
:102540000FB6F894DEBF0FBECDBF3C017EAF6DAFBE
:1025500021965FAF4EAF219722962FAF22972396F9
:102560000FAF23972496EFAE24972896ACAEBDAE5E
:10257000CEAEDFAE289729968FAE2997E22EFF24A4
:10258000EE0CFF1CEE0CFF1C4E0D5F1D5CAF4BAF45
:10259000DA012D903D904D905C90FC01EE0DFF1DF9
:1025A000C201B10120813181428153810E94AA2F51
:1025B00069AB7AAB8BAB9CAB10E0000F111F000F27
:1025C000111F2196EEADFFAD2197E00FF11FFAAF7D
:1025D000E9AFA080B180C280D380F301E00FF11F8A
:1025E000C601B50120813181428153810E94AA2F09
:1025F0006DA77EA78FA798AB24962FAD2497E22FC7
:10260000F0E0EE0FFF1FEE0FFF1F6E0E7F1ED301D7
:102610008D919D910D90BC91A02D8DAB9EABAFABDC
:10262000B8AF2DAD3EADE20FF31F608171818281A5
:1026300093812DA93EA94FA958AD0E94A92F69A742
:102640007AA78BA79CA7D201C101B0588DA39EA3E6
:10265000AFA3B8A7A6019501505829A33AA34BA34D
:102660005CA34DAD5EADE40EF51ED7016D917D917D
:102670008D919C9129A93AA94BA95CA90E94A92FE7
:102680003B014C01EDADFEAD0E0F1F1FD8016D914A
:102690007D918D919C912DA53EA54FA558A90E9495
:1026A000A92F5B016C016DA17EA18FA198A5A60148
:1026B00095010E9458337B018C0169A17AA18BA1FD
:1026C0009CA1A40193010E9458339B01AC01C80155
:1026D000B7010E94A92F1B012C016DA17EA18FA122
:1026E00098A5A40193010E9458337B018C0169A134
:1026F0007AA18BA19CA1A60195010E9458339B0150
:10270000AC01C801B7010E94AA2F9B01AC01C20114
:10271000B1010E941D305B016C01A9968FADA99794
:10272000882399F0C601B50120E030E040E050E098
:102730000E9486328823ECF0C601B5012BED3FE004
:1027400049EC50E40E94A92F12C0C601B50120E057
:1027500030E040E050E00E948330181654F0C6018B
:10276000B5012BED3FE049EC50E40E94AA2F5B013C
:102770006C01C601B501A8962CAD3DAD4EAD5FAD67
:10278000A8970E94583329A53AA54BA55CA50E949D
:1027900093327B018C0120E030E040E050E00E9469
:1027A0008330882309F4D5C1C801B7012091DC0C1E
:1027B0003091DD0C4091DE0C5091DF0C0E948A308C
:1027C0000E9460310E94F73078A36F8F2996BFADC9
:1027D0002997BB23A1F080E090E00E9423319B0168
:1027E000AC0128966CAD7DAD8EAD9FAD28970E9453
:1027F000583328966CAF7DAF8EAF9FAF28972F8D43
:1028000038A1B90180E090E00E9423317B018C0166
:10281000C601B501A80197010E948A306B8F7C8F99
:102820008D8F9E8F69A57AA58BA59CA5A801970180
:102830000E948A306F8B788F898F9A8F6B8D7C8DF9
:102840008D8D9E8D20E030E040E05FEB0E9458339C
:102850002B8D3C8D4D8D5E8D0E94583320E030E0F5
:1028600040E85FE30E94AA2F6B8B7C8B8D8B9E8B45
:1028700024963FAD2497E32FF0E0EE0FFF1FEE0FFD
:10288000FF1FCE010196E80FF91F2DA93EA94FA900
:1028900058AD208331834283538341E050E05E870B
:1028A0004D8766242296BFAD2297AB2FB0E0AA0FCA
:1028B000BB1FAA0FBB1FA80FB91F2B96BFAFAEAF90
:1028C0002B9723963FAD2397232F30E0220F331F02
:1028D000220F331F280F391F2D963FAF2EAF2D9794
:1028E0002F96FFAFEEAF2F970EC1262D332727FD72
:1028F00030958091FA0C90E0281739070CF046C00B
:102900006DA17EA18FA198A52B8D3C8D4D8D5E8DE7
:102910000E9458337B018C0169A17AA18BA19CA1F3
:102920002B893C894D895E890E9458339B01AC01FB
:10293000C801B7010E94AA2F7B018C016DA17EA165
:102940008FA198A52B893C894D895E890E945833B7
:102950005B016C0169A17AA18BA19CA12B8D3C8D9F
:102960004D8D5E8D0E9458339B01AC01C601B501AF
:102970000E94A92F6DA37EA38FA398A76394C7017C
:10298000D80189A39AA3ABA3BCA361C04D855E8582
:10299000BA0180E090E00E9423312B8D3C8D4D8D5B
:1029A0005E8D0E9458337B018C01C8010E948730E4
:1029B0006F87788B898B9A8BB701C8010E94DB33B4
:1029C0003B014C01ABADBCADED90FD900D911C9168
:1029D00017FB109517F91095E9ADFAAD20803180FD
:1029E00042805380C801B7012F85388949895A89A7
:1029F0000E9458335B016C01C201B101A401930133
:102A00000E9458339B01AC01C601B5010E94AA2F58
:102A10006DA37EA38FA398A7C801B701A40193015A
:102A20000E9458337B018C01C201B1012F85388986
:102A300049895A890E9458339B01AC01C801B701EA
:102A40000E94A92F69A37AA38BA39CA3662469A9DA
:102A50007AA98BA99CA92DA13EA14FA158A50E949E
:102A6000AA2F2B96AEADBFAD2B976D937D938D9313
:102A70009C9313976DA57EA58FA598A929A13AA12E
:102A80004BA15CA10E94AA2F2D96EEADFFAD2D9714
:102A900060837183828393832F96AEADBFAD2F97F2
:102AA0006D917D918D919C912F89388D498D5A8D95
:102AB0000E94AA2F2F96EEADFFAD2F9760837183F2
:102AC0008283938369817A818B819C812D813E8170
:102AD0004F815885E984FA840B851C852896ACAC17
:102AE000BDACCEACDFAC289729968FAC29970E945D
:102AF00098118091350B882361F52D853E852F5FD8
:102B00003F4F3E872D874D855E858F8D98A1481755
:102B1000590708F4EACEADADBEAD6D917D918D91B2
:102B20009C91139714962D913D914D915C9117971F
:102B30001896ED90FD900D911C911B972896ACACCA
:102B4000BDACCEACDFAC289729968FAC29970E94FC
:102B50009811C25BDF4F0FB6F894DEBF0FBECDBF3A
:102B6000CF91DF911F910F91FF90EF90DF90CF9069
:102B7000BF90AF909F908F907F906F905F904F909D
:102B80003F902F9008956F927F928F929F92AF9275
:102B9000BF92CF92DF92EF92FF920F931F93CF934A
:102BA000DF934C013B015A01FB018081F401E80FE6
:102BB000F11DEF0189918D3229F481812196CC2478
:102BC000C39405C08B3211F481812196CC2420E07E
:102BD00030E040E050E0DD24E0E070E0682F60533A
:102BE0006A30F8F4EF5FE930C0F47111DA94DA0179
:102BF000C901F2E0880F991FAA1FBB1FFA95D1F7F0
:102C0000280F391F4A1F5B1F220F331F441F551FF8
:102C1000260F311D411D511D09C0772339F4D3946E
:102C200005C06E3F29F4772319F471E08991D6CF5E
:102C3000EE2319F420E030E051C0CA01B9010E942E
:102C400023317B018C0120E030E040E050E00E9425
:102C50008330882369F42BC0C801B7012AE037ED1F
:102C600043E25CE30E9458337B018C01F2E0DF0E0B
:102C70008FEFD8168CF3D81659F4C801B7012DEC94
:102C80003CEC4CEC5DE30E9458337B018C010FC09F
:102C9000DD2069F0C801B70120E030E040E251E4F6
:102CA0000E9458337B018C01DA941D149CF3CC20D4
:102CB00049F0D801C701B058F50180839183A28300
:102CC000B38305C0F501E082F18202831383882D6E
:102CD00080958C0FF301808321E030E0C901DF9102
:102CE000CF911F910F91FF90EF90DF90CF90BF9009
:102CF000AF909F908F907F906F90089520EA3FE073
:102D000004C0F9013197F1F701970097D1F70895C1
:102D10001F93A0EABFE040E951E015E335E031C080
:102D20006A3071058105910540F4232F2A95F1F74A
:102D3000615070408040904024C064367105810528
:102D4000910540F4212F2A95F1F76A507040804098
:102D5000904017C0683E23E0720720E0820720E021
:102D6000920740F4FA013197F1F7645670408040C1
:102D7000904007C0FD013197F1F7685E73408040D5
:102D80009040611571058105910551F61F910895D7
:102D9000EF92FF920F931F936091380B7091390B54
:102DA00080913A0B90913B0B20913C0B30913D0B65
:102DB00040913E0B50913F0BE090400BF090410B47
:102DC0000091420B1091430B0E9431176091380B18
:102DD0007091390B80913A0B90913B0B20913C0BF9
:102DE00030913D0B40913E0B50913F0BE090400BDA
:102DF000F090410B0091420B1091430B0E94B404E0
:102E00001F910F91FF90EF90089590914D0A80913E
:102E10004E0A981741F080914E0A8F5F843209F470
:102E200080E080934E0A089590914D0A80914E0A59
:102E3000981719F420E030E008C090914E0A8BE317
:102E4000989F900111242F5F3D4FC90108959091E3
:102E50004E0A20E080914F0A981709F421E0822F52
:102E60000895EF92FF920F931F936093500A70930F
:102E7000510A8093520A9093530A2093540A309334
:102E8000550A4093560A5093570AE092580AF09216
:102E9000590A00935A0A10935B0A1F910F91FF90F1
:102EA000EF9008958F929F92AF92BF92CF92DF9250
:102EB000EF92FF920F931F93CF93DF93EC016B017F
:102EC000009709F460C08AA1882309F05CC0ED88EE
:102ED000FE880F89188DFB01B588A6889788808C9D
:102EE000C801B7012B2D3A2D492D582D0E94833052
:102EF00088230CF048C0C801B701A80197010E94BF
:102F000058337B018C016091E00C7091E10C809151
:102F1000E20C9091E30C905820E030E040E050EC5F
:102F20000E9458332D8D3E8D4F8D58A10E945833ED
:102F30009B01AC01C801B7010E94AA2F0E94E53392
:102F40007B018C016B2D7A2D892D982D9701A8017D
:102F50000E948330882324F4EB2CFA2C092D182DA1
:102F60006B2D7A2D892D982D9701A8010E94833011
:102F7000882349F0C701D801F601858B968BA78B72
:102F8000B08F81E081A3DF91CF911F910F91FF90CE
:102F9000EF90DF90CF90BF90AF909F908F9008956B
:102FA0002F923F924F925F926F927F928F929F9259
:102FB000AF92BF92CF92DF92EF92FF920F931F9347
:102FC000DF93CF93CDB7DEB768970FB6F894DEBF27
:102FD0000FBECDBF1C016A017B0128013901DC0154
:102FE000D7966D917D918D919C91DA970E942331B6
:102FF0004B015C01A70196010E9458330E9470307A
:103000000E94F7307B018C01F10163A374A385A3B7
:1030100096A3C501B401A30192010E9458330E94F6
:1030200070300E94F73069877A878B879C87D1013F
:1030300097966D937D938D939C939A979B966D91A4
:103040007D918D919C919E9722E330E040E050E08D
:103050000E9445340E94253120E030E040E752E4F0
:103060000E9458330E94F2302B013C01C801B70185
:103070000E9423317B018C01C301B2010E942531E2
:103080006D837E838F839887C501B401A501940168
:103090000E9458335B016C01C801B701A801970178
:1030A0000E9458336D877E878F87988B6D817E81D4
:1030B0008F8198859B01AC010E94AA2F698B7A8B26
:1030C0008B8B9C8BC601B5012D853E854F8558891C
:1030D0000E94A92F29893A894B895C890E948A30EC
:1030E0000E9470300E94F23069837A838B839C83C4
:1030F00069857A858B859C850E9423319B01AC0173
:103100000E9458336D8B7E8B8F8B988FA601950113
:103110000E94A92F7B018C0170946094509440947C
:10312000411C511C611C711CC301B2010E9425315C
:103130009B01AC010E94AA2F9B01AC01C801B70101
:103140000E948A300E946031F101A584B684C78450
:10315000D0888601750129813A814B815C81E21A10
:10316000F30A040B150B0E94F230A8019701261BED
:10317000370B480B590BDA01C90157FF4AC0C6018A
:10318000B5010E9425319B01AC0169897A898B893F
:103190009C890E9458332D853E854F8558890E9411
:1031A000A92F2D893E894F89588D0E94AA2F7B0116
:1031B0008C016D817E818F81988520E030E040E830
:1031C00050E40E9458339B01AC01C801B7010E9432
:1031D0008A300E9470300E94F230AC01CB01DA01DB
:1031E000BC01CD0197FF04C060E070E080E090E09A
:1031F00069837A838B839C83A616B706C806D90693
:1032000024F4A982BA82CB82DC8280E090E0A0E044
:10321000B0E029813A814B815C81F10127A730AB75
:1032200041AB52AB820F931FA41FB51F83AB94AB6E
:10323000A5ABB6AB68960FB6F894DEBF0FBECDBF98
:10324000CF91DF911F910F91FF90EF90DF90CF9082
:10325000BF90AF909F908F907F906F905F904F90B6
:103260003F902F9008952F923F924F925F927F92BE
:103270008F929F92AF92BF92CF92DF92EF92FF9286
:103280000F931F93CF93DF93D0904D0A8091E00C62
:103290009091E10CA091E20CB091E30C1C012D0186
:1032A00057FA509457F8509400E010E0C0E0D0E096
:1032B000BB24B3943BE3C32E72C0DD2011F424E29F
:1032C000D22EDA94209709F463C00115110509F490
:1032D0005FC0A98C9A8C8B8C7C8C6D897E898F8940
:1032E000988D2A2D392D482D572D0E948330882303
:1032F00009F44EC08AA1882309F041C0F801E5888D
:10330000F6880789108D6A2D792D882D972DA801B3
:1033100097010E948632181694F5C801B701A801DA
:1033200097010E9458337B018C01C201B10120E05A
:1033300030E040E050EC0E9458332D8D3E8D4F8D93
:1033400058A10E9458339B01AC01C801B7010E94EB
:10335000AA2F0E94E533162F072FF82EE92E6A2D8B
:10336000792D882D972D212F302F4F2D5E2D0E94E6
:10337000833087FD04C0A12E902E8F2C7E2C8A2DA9
:10338000992DA82DB72D8D8B9E8BAF8BB88FB9A2A1
:10339000DC9CC00111248E01EC01CF5FDD4F8091D8
:1033A0004E0AD81609F089CFF0904E0A20E030E09E
:1033B00000E010E09BE3E92E11C0FE9CE001112427
:1033C000CF5FDD4FC901B801AE010E945217F394DF
:1033D000F4E2FF1609F4FF2498018E0180914D0A52
:1033E000F81659F7C901B80140E050E00E945217A1
:1033F00070904E0AC0E0D0E08BE3582E35C0759C2B
:103400004001112481E092E0880E991E209731F14D
:1034100089A1882321F4F40181A18823F9F0E988A6
:10342000FA880B891C896D897E898F89988DA801FE
:1034300097010E948A305B016C01F40165897689ED
:103440008789908DA80197010E948A308B019C0189
:10345000CE01B601A5010E94D01719A27394F4E21F
:103460007F1609F47724E40180914D0A781639F625
:10347000E988FA880B891C896D897E898F89988DE6
:10348000A80197010E948A305B016C0160E070E046
:1034900080E090E0A80197010E948A308B019C0196
:1034A000CE01B601A5010E94D01719A2DF91CF91DC
:1034B0001F910F91FF90EF90DF90CF90BF90AF9052
:1034C0009F908F907F905F904F903F902F900895A6
:1034D000AF92BF92CF92DF92EF92FF920F931F9322
:1034E000CF93DF935B016C0190914E0A8BE3989F21
:1034F000E0011124CF5FDD4FC601B5010E942531E7
:103500002D8D3E8D4F8D58A10E9458337B018C012B
:103510006D857E858F8598890E9425319B01AC0140
:10352000C801B7010E948A306D8F7E8F8F8F98A35C
:10353000AD86BE86CF86D88A80E090E0A0E0B0E07D
:103540008D8B9E8BAF8BB88F898F9A8FAB8FBC8FF3
:103550001AA281E089A30E943319DF91CF911F91B4
:103560000F91FF90EF90DF90CF90BF90AF900895B4
:103570002F923F924F925F926F927F928F929F9283
:10358000AF92BF92CF92DF92EF92FF920F931F9371
:10359000DF93CF93CDB7DEB7AF970FB6F894DEBF0A
:1035A0000FBECDBF29013A01ADA2BEA2CFA2D8A6BF
:1035B00089A630914D0A2BE3329F1001112421E09E
:1035C00032E0220E331E2091C50C3091C60C409182
:1035D000C70C5091C80C0E9458330E94283369834D
:1035E0007A838B839C83C301B2012091C90C3091F3
:1035F000CA0C4091CB0C5091CC0C0E9458330E94C5
:1036000028336D837E838F839887C801B70120910B
:10361000CD0C3091CE0C4091CF0C5091D00C0E942B
:1036200058330E94283369877A878B879C87D1011A
:103630001C9229813A814B815C818091500A909142
:10364000510AA091520AB091530A281739074A0724
:103650005B071CF480E2F10180832D813E814F8164
:1036600058858091540A9091550AA091560AB091BC
:10367000570A281739074A075B0724F4D1018C91B0
:1036800080648C9329853A854B855C858091580AA6
:103690009091590AA0915A0AB0915B0A28173907EC
:1036A0004A075B0724F4F1018081806880832981C7
:1036B0003A814B815C818091500A9091510AA0918E
:1036C000520AB091530A281B390B4A0B5B0B57FF68
:1036D00007C050954095309521953F4F4F4F5F4F14
:1036E000D10111962D933D934D935C931497AD802A
:1036F000BE80CF80D8848091540A9091550AA091C1
:10370000560AB091570AA81AB90ACA0ADB0AF10187
:10371000A582B682C782D086D7FE0BC0882799279C
:10372000DC018A199B09AC09BD0985839683A783AF
:10373000B08729853A854B855C858091580A9091A0
:10374000590AA0915A0AB0915B0A281B390B4A0BFF
:103750005B0B57FF07C050954095309521953F4F23
:103760004F4F5F4FD10119962D933D934D935C932D
:103770001C971596ED90FD900D911C911897119640
:103780008D919D910D90BC91A02D8E159F05A00748
:10379000B10710F4D801C70182179307A407B50732
:1037A00010F4DA01C901F10185879687A787B08BEC
:1037B0000097A105B10509F467C269817A818B81FF
:1037C0009C812091500A3091510A4091520A5091A7
:1037D000530A621B730B840B950B0E9425312091B9
:1037E000C50C3091C60C4091C70C5091C80C0E947A
:1037F0008A3069A37AA38BA39CA3C601B5010E945A
:1038000025312091C90C3091CA0C4091CB0C5091BC
:10381000CC0C0E948A306D8F7E8F8F8F98A3698524
:103820007A858B859C852091580A3091590A409160
:103830005A0A50915B0A621B730B840B950B0E9412
:1038400025312091CD0C3091CE0C4091CF0C509170
:10385000D00C0E948A30698F7A8F8B8F9C8F69A1E0
:103860007AA18BA19CA19B01AC010E9458337B01E2
:103870008C016D8D7E8D8F8D98A19B01AC010E9476
:1038800058339B01AC01C801B7010E94AA2F7B01EC
:103890008C01698D7A8D8B8D9C8D9B01AC010E9472
:1038A00058339B01AC01C801B7010E94AA2F0E94A6
:1038B000E5337B018C01D1015D966D937D938D93F2
:1038C0009C93909760E070E080E89FE3A8019701E7
:1038D0000E948A303B014C01B9A5BB2349F46DA17C
:1038E0007EA18FA198A5A40193010E9458330AC01C
:1038F00060E070E080E89FE32DA13EA14FA158A5B4
:103900000E948A305B016C01C801B701A6019501D4
:103910000E9458336AA77BA78CA79DA7F101618BF2
:10392000728B838B948B65857685878590890E94C1
:1039300025317B018C01A60195010E9458330E941C
:1039400070300E94F730D101D7966D937D938D939F
:103950009C93DA97C801B701A40193010E945833E0
:103960002091E00C3091E10C4091E20C5091E30C7D
:103970000E94583320E030E84BE355E40E948A303F
:103980000E9470300E94F230F10163A774A785A7EE
:1039900096A769A17AA18BA19CA1A40193010E9481
:1039A00058337B018C016D877E878F87988B6D8D57
:1039B0007E8D8F8D98A1A40193010E9458335B01E5
:1039C0006C01698B7A8B8B8B9C8B698D7A8D8B8D3F
:1039D0009C8DA40193010E9458333B014C016D8BD7
:1039E0007E8B8F8B988F90914D0A80914E0A9817FD
:1039F00009F4BDC0F091680AFEA72091690A2FA7BB
:103A000050906A0A40906B0A6F2F722F852D942D6B
:103A100020E030E040E050E00E94863218160CF0C2
:103A2000A6C060915C0A70915D0A80915E0A9091D7
:103A30005F0A9058A80197010E9458337B018C01BE
:103A40006091600A7091610A8091620A9091630AA4
:103A5000A60195010E9458339B01AC01C801B70132
:103A60000E94A92F7B018C01C401B3012091640A3B
:103A70003091650A4091660A5091670A0E94583356
:103A80009B01AC01C801B7010E94A92F7B018C01E9
:103A900023E333E343E75FE30E94833088230CF0A2
:103AA00066C06EA57FA5852D942D2AA53BA54CA5A6
:103AB0005DA50E94833087FD08C08AA59BA5ACA5A3
:103AC000BDA58EA79FA75A2E4B2EC801B70123E391
:103AD00033E343E75FEB0E94863218160CF04CC0CC
:103AE00060E070E080E89FE3A80197010E94A92FA1
:103AF00020E030E040E05FE30E9458330E94E5336D
:103B00005B016C016091E00C7091E10C8091E20C22
:103B10009091E30C2091E40C3091E50C4091E60C7F
:103B20005091E70C0E945833A60195010E9458332A
:103B30007B018C0160E070E080E89FE3A6019501C5
:103B40000E94A92F9B01AC01C801B7010E948A30D5
:103B50000E94E5337B018C016EA57FA5852D942DF8
:103B60009701A8010E94833087FD06C009C0EE249A
:103B7000FF2400E010E004C0EEA4FFA4052D142DE6
:103B8000C701D801F101818F928FA38FB48F60910B
:103B9000E00C7091E10C8091E20C9091E30C905854
:103BA00020E030E040E050EC0E945833D1015D96B7
:103BB0002D913D914D915C9190970E94583320E05A
:103BC00030E040E050E00E94AA2F0E94E533D62E5C
:103BD000C72EB82EA92EB701C8012D2D3C2D4B2D77
:103BE0005A2D0E94833087FD04C0ED2CFC2C0B2D38
:103BF0001A2DC701D801F101858B968BA78BB08F49
:103C000061897289838994892D2D3C2D4B2D5A2DE4
:103C10000E94833018162CF081E0D10192968C938B
:103C200002C0F10112A281E0D10191968C93ACE522
:103C3000BAE0FE013D968CE001900D928150E1F7D3
:103C4000F10181899289A389B4898093680A90934C
:103C5000690AA0936A0AB0936B0A80914F0A809315
:103C60004D0A80914D0A8F5F843209F480E0809381
:103C70004F0AA0E5BAE0FE0131968CE001900D926A
:103C80008150E1F70E943319AF960FB6F894DEBF6A
:103C90000FBECDBFCF91DF911F910F91FF90EF909D
:103CA000DF90CF90BF90AF909F908F907F906F905C
:103CB0005F904F903F902F9008951F931BE306C095
:103CC0000E9441208091350B882391F490914D0AF8
:103CD00080914E0A981741F080914E0A819FC00151
:103CE00011248F5F9D4F61F78091360B833041F334
:103CF0001F91089580914D0A80934E0A80914D0A3C
:103D00008F5F843209F480E080934F0A8CE1E0E514
:103D1000FAE0DF011D928A95E9F708958F929F924C
:103D2000AF92BF92CF92DF92EF92FF920F931F93C9
:103D3000DF93CF93CDB7DEB72A970FB6F894DEBFE7
:103D40000FBECDBF7B018C0120E030E040E050E0B1
:103D50000E94833088233CF48DE20E943D2717FBAC
:103D6000109517F91095A090F90CDA2C0CC0C80129
:103D7000B70120E030E048EC52E40E9458337B0168
:103D80008C018EEFD80EE1E0ED1588F3A0FE0AC09D
:103D9000C801B70120E030E040E251E40E9458330E
:103DA0007B018C01C801B70120E030E040E05FE317
:103DB0000E94AA2F0E94F2306B017C019E012F5FAE
:103DC0003F4FF901EA0DF11D8EE28083BB244901CA
:103DD0001EC0BA1409F4B39484010B0D111DC70160
:103DE000B6012AE030E040E050E00E946434605DBB
:103DF000F8016083B394C701B6012AE030E040E0E7
:103E000050E00E946434C901DA016C017D01C114E3
:103E1000D104E104F104E9F606C0FC01EB0DF11D4B
:103E20002083B39403C0CE01019620E3BA14A8F313
:103E3000BA1489F48B2D8F5FFE01E80FF11D90E31A
:103E40009183B82EB39407C0FE01EB0DF11D808164
:103E50000E943D27BA94BB20B9F72A960FB6F89472
:103E6000DEBF0FBECDBFCF91DF911F910F91FF90AD
:103E7000EF90DF90CF90BF90AF909F908F9008957C
:103E80008F929F92BF92CF92DF92EF92FF920F9309
:103E90001F93DF93CF93CDB7DEB72A970FB6F89471
:103EA000DEBF0FBECDBF7B018C0197FF0BC08DE243
:103EB0000E943D2710950095F094E094E11CF11CC0
:103EC000011D111D67017801C114D104E104F10441
:103ED00021F480E30E943D272FC0BB244E010894AB
:103EE000811C911C84010B0D111DC701B6012AE034
:103EF00030E040E050E00E946434605DF80160838F
:103F0000B394C701B6012AE030E040E050E00E94DF
:103F10006434C901DA016C017D01C114D104E104EA
:103F2000F10401F707C0FE01EB0DF11D80810E9435
:103F30003D27BA94BB20B9F72A960FB6F894DEBF96
:103F40000FBECDBFCF91DF911F910F91FF90EF90EA
:103F5000DF90CF90BF909F908F9008950F931F9305
:103F6000DF93CF93CDB7DEB728970FB6F894DEBFB7
:103F70000FBECDBF982FFE0131969E01275F3F4FA8
:103F8000892F817081939695E217F307C9F78E0107
:103F9000085F1F4FF8018081805D0E943D2701501E
:103FA00010400C171D07B1F728960FB6F894DEBF26
:103FB0000FBECDBFCF91DF911F910F910895CF9389
:103FC000DF93EC0102C00E943D27FE0121968491FF
:103FD0008823C9F7DF91CF910895CF93DF93EC0148
:103FE00003C021960E943D2788818823D1F7DF9165
:103FF000CF9108951F920F920FB60F920BB60F92AA
:1040000011242F933F934F935F936F937F938F93DD
:104010009F93AF93BF93EF93FF938091060190E03E
:104020008095909587709070892BC1F080910601E2
:1040300080FD03C00E942A1111C08091060181FDFC
:1040400004C08091370B886007C08091060182FD13
:1040500005C08091370B82608093370BFF91EF9101
:10406000BF91AF919F918F917F916F915F914F9190
:104070003F912F910F900BBE0F900FBE0F901F908E
:104080001895CF93DF938091370B882309F457C09D
:104090008091370BC82FD0E0CE0180769070892BAD
:1040A000E9F086E08093360BC6FF10C08FEF0E94C8
:1040B0000C2781E00E9482228091370B8F7E8093B3
:1040C000370B8091370B84FFFCCF03C08EEF0E942B
:1040D0000C278091370B8F798093370BC4FF04C076
:1040E00081E08093350B2BC0C0FF07C00E940723DF
:1040F0008091370B8E7F8093370BC3FF07C00E94E0
:104100005E2B8091370B877F8093370BC2FF07C0F0
:104110000E94682B8091370B8B7F8093370BC1FFF8
:104120000EC00E94542B8091E80C81FF03C081E0F7
:104130008093440B8091370B8D7F8093370BDF91F9
:10414000CF91089580E06CE67AE00E94742A88237B
:1041500069F080916C0A882361F08CE69AE00E94F5
:10416000ED1F8CE69AE00E94330501C08AE00E94B0
:10417000AC2281E06CE67AE00E94742A882321F464
:104180008AE00E94AC22089580916C0A882351F045
:104190008CE69AE00E94ED1F8CE69AE00E943305BF
:1041A0000E94AC220895DF92EF92FF920F931F932B
:1041B000DF93CF93CDB7DEB729970FB6F894DEBF64
:1041C0000FBECDBF7C01FC018081843209F009C1A2
:1041D00081E089838181873481F1883474F4843269
:1041E000C1F0853234F4882389F0833209F097C016
:1041F0001AC0833409F093C02AC08E3409F469C010
:104200008835F1F1883409F08AC04CC00E947822C8
:10421000F3C082E08983F7018281882309F0E6C038
:104220000E94AE25E9C082E08983F701828188235C
:1042300009F0DCC00E94F024DFC082E08983F7012E
:104240008281882309F0D2C00E940424D5C082E074
:104250008983F7018281882309F0C8C08091360BD9
:10426000873021F40E942A1185E007C0882309F0D5
:10427000BFC087E08093360B84E00E948222BCC0DE
:1042800082E08983F7018281882309F0AFC08091A1
:10429000360B863009F0B0C083E00E948222109273
:1042A000360BAAC08091E80C84FD02C017E0A5C0BF
:1042B0008091360B882319F0863009F099C00E944E
:1042C000E8118091350B882309F096C00E94A22046
:1042D00093C082E08983F7018281882319F0DD246D
:1042E000D3941EC080E0B7010E94742A882329F06D
:1042F00080E0B7010E94CB2403C08AE00E94AC2278
:1043000081E0B7010E94742A882321F48AE00E9488
:10431000AC2272C081E0B7010E94CB246DC0DD24C5
:10432000C7018E010F5F1F4FB801AE014E5F5F4F97
:104330000E94C315892B09F45DC09981F701E90F2B
:10434000F11D80818D3309F051C0892F8F5F8983E2
:10435000DD2041F1482F50E02981822F90E0FC01BF
:10436000E41BF50BEE0DFF1DD701A80FB91F8C91B3
:1043700080838C912F5F2983882371F7C7010E9466
:104380003305182F8823C9F56A817B818C819D8133
:104390000E9426340E94F730DC01CB01B7010E9455
:1043A000692A2BC0C701B801AE014A5F5F4F0E9466
:1043B000C315892BF9F08981E80EF11CF701808182
:1043C0008823A1F46A817B818C819D810E94F230D7
:1043D000DC01CB014E815F81688579850E940028D0
:1043E00003C0C7010E943305182F07C013E005C0A2
:1043F0001BE003C011E001C010E0812F29960FB629
:10440000F894DEBF0FBECDBFCF91DF911F910F910A
:10441000FF90EF90DF9008951F9311E046C02A307F
:1044200011F02D30B1F40E9441208091350B88238A
:1044300009F041C0E091D00AEE2349F0F0E0E459E0
:10444000F54F10828CE69AE00E94D32017C080E0DE
:1044500015C08091D10A882319F0293231F512C094
:10446000213218F12F3209F1283219F41093D10AB0
:104470001CC09091D00A933640F08DE00E94AC228F
:104480001092D00A1092D10A10C0822F8156E92FC3
:10449000F0E09F5F8A3120F4E459F54F205202C0CA
:1044A000E459F54F20839093D00A0E948927282F42
:1044B0008F3F09F0B4CF1F9108951092D00A109247
:1044C000D10A0E947D22E7E0F1E08081887F80832D
:1044D000E8E0F1E0808187608083EDE6F0E08081B4
:1044E00087608083E8E6F0E08081846080830895BF
:1044F00086ED94E00E94DF1F089584E096E00E941C
:10450000DF1F08951F93182F8EE696E00E94DF1F8D
:10451000133091F0143028F4113041F01230B1F41E
:1045200008C0143061F0153089F40CC08CE596E0B9
:104530000BC088E496E008C086E396E005C08EE2F2
:1045400096E002C085E296E00E94DF1F81E296E0DD
:104550000E94DF1F1F9108951F93182F882319F4BD
:1045600087E997E050C08FE897E00E94DF1F17307F
:1045700091F1183070F4133011F1143028F4113027
:10458000C1F01230F1F518C01530F9F0163000F511
:1045900019C01A3049F11B3028F41830F9F01930DD
:1045A00081F51FC01C3031F11C3008F11D3049F578
:1045B00024C08DE797E023C085E697E020C08FE414
:1045C00097E01DC080E497E01AC08AE297E017C028
:1045D00088E197E014C087E097E011C08BEF96E088
:1045E0000EC08CEE96E00BC08BEC96E008C08CEB16
:1045F00096E005C081EB96E002C083EA96E00E9457
:10460000DF1F80EA96E00E94DF1F1F910895AF929E
:10461000BF92CF92DF92EF92FF920F931F93DF939F
:10462000CF93CDB7DEB768970FB6F894DEBF0FBE55
:10463000CDBFDE011196E8E3FBE08CE001900D9226
:104640008150E1F78091360B8430C9F0853038F421
:10465000823079F0833080F4882341F01DC08630A9
:10466000A1F0863078F08730B9F412C088E991E083
:1046700011C081E991E00EC08CE891E00BC086E8A2
:1046800091E008C080E891E005C089E791E002C0B0
:1046900082E791E00E94DF1F8BE691E00E94DF1F1E
:1046A0008DE0E82EF12CEC0EFD1E670100E010E01D
:1046B0005E010894A11CB11CF501E00FF11F60819F
:1046C0007181828193810E942531F801EB53F34F70
:1046D00020813181428153810E948A309B01AC014B
:1046E000F60160837183828393838091E80C80FF5D
:1046F0000DC0CA01B9012BE832E441E25DE30E943A
:104700005833F6016083718382839383F60161914C
:104710007191819191916F010E948E1E89E691E0C5
:104720000E94DF1F0C5F1F4F0C30110529F683E636
:1047300091E00E94DF1F0DE11BE0DD248091E80C79
:1047400080FF1BC0F8016081718182819381248583
:104750003585468557850E94AA2F2BE832E441E231
:104760005DEB0E9458339B01AC01F70160817181C0
:10477000828193810E94AA2F14C0F8016081718107
:104780008281938124853585468557850E94AA2F8D
:104790009B01AC01F70160817181828193810E944C
:1047A000A92FF7016083718382839383F70160816E
:1047B0007181828193810E948E1EF2E0DF1621F0CA
:1047C00081E691E00E94DF1FD39484E090E0E80E40
:1047D000F91E0C5F1F4F93E0D91609F0AFCF8DE59E
:1047E00091E00E94DF1F68960FB6F894DEBF0FBEFF
:1047F000CDBFCF91DF911F910F91FF90EF90DF9090
:10480000CF90BF90AF9008958091010B823091F0CE
:10481000833028F4882341F08130B1F408C083301C
:1048200061F0843089F40CC081E192E00BC08DE02E
:1048300092E008C089E092E005C085E092E002C005
:1048400080E092E00E94DF1F8DEF91E00E94DF1F69
:1048500060911C0B70E06A5C7F4F882777FD809524
:10486000982F0E94401F8091190B882351F480914A
:104870001A0B813019F488EF91E005C083EF91E0C5
:1048800002C08EEE91E00E94DF1F8091030B88230F
:1048900019F089EE91E002C084EE91E00E94DF1FE2
:1048A0008091040B882319F08FED91E002C08AED0E
:1048B00091E00E94DF1F8091020B882319F085EDA3
:1048C00091E002C080ED91E00E94DF1F8091050B16
:1048D000813041F0813018F0823059F406C08CEC00
:1048E00091E005C088EC91E002C084EC91E00E9468
:1048F000DF1F8091060B882359F0813019F08F3F1C
:1049000059F403C080EC91E005C08CEB91E002C04B
:1049100088EB91E00E94DF1F8091070B882319F03C
:10492000813041F403C084EB91E002C080EB91E060
:104930000E94DF1F8DEA91E00E94DF1F6091180B3B
:1049400070E080E090E00E94401F8AEA91E00E94BF
:10495000DF1F8091030B882379F06091080B709121
:10496000090B80910A0B90910B0B2BE832E441E28A
:104970005DE30E94583308C06091080B7091090BE9
:1049800080910A0B90910B0B0E948E1E86EA91E09B
:104990000E94DF1F0895CF92DF92EF92FF920F9354
:1049A0001F93E82E6B0183EA91E00E94DF1FFF2432
:1049B00000E010E0C801B7010E94401F81EA91E0C9
:1049C0000E94DF1FC6010E94ED1F8EE991E00E9448
:1049D000DF1F1F910F91FF90EF90DF90CF90089510
:1049E000CF92DF92EF92FF920F931F93DF93CF93BB
:1049F000CDB7DEB72C970FB6F894DEBF0FBECDBF94
:104A0000FF246E010894C11CD11C8F2DB6010E9499
:104A1000082A882321F48AE00E94AC2290C087E40F
:104A200092E00E94DF1F83E0F816E9F08F1530F066
:104A3000E1E0FE1691F0EF1598F00CC0F5E0FF16DE
:104A4000C1F0FF1698F086E0F816B1F0E7E0FE1628
:104A5000D1F415C083E492E014C08FE392E011C05A
:104A60008BE392E00EC087E392E00BC083E392E019
:104A700008C08FE292E005C08BE292E002C087E2BC
:104A800092E00E94DF1F8601EE248091E80C80FFF7
:104A90000CC0F80160817181828193812BE832E43E
:104AA00041E25DE30E94583305C0F80160817181E5
:104AB000828193810E948E1EF2E0EF1619F085E24A
:104AC00092E002C081E292E00E94DF1FE3940C5F5B
:104AD0001F4F83E0E816C9F6F394E8E0FE1609F0EC
:104AE00094CF8BE192E00E94DF1F09E21BE0FF24DC
:104AF0008091E80C80FF0CC0F80160817181828197
:104B000093812BE832E441E25DE30E94583305C013
:104B1000F80160817181828193810E948E1EF2E092
:104B2000FF1619F089E192E002C085E192E00E944F
:104B3000DF1FF3940C5F1F4F83E0F816C9F62C9625
:104B40000FB6F894DEBF0FBECDBFCF91DF911F919E
:104B50000F91FF90EF90DF90CF90089582ED94E059
:104B60000E94DF1F6091C50C7091C60C8091C70C2C
:104B70009091C80C0E948E1E8FEB94E00E94DF1F64
:104B80006091C90C7091CA0C8091CB0C9091CC0CA7
:104B90000E948E1E8CEA94E00E94DF1F6091CD0C73
:104BA0007091CE0C8091CF0C9091D00C0E948E1EF3
:104BB00089E994E00E94DF1F6091D20C70E080E0F0
:104BC00090E00E94401F80E894E00E94DF1F609107
:104BD000D30C7091D40C8091D50C9091D60C0E947E
:104BE0008E1E83E694E00E94DF1F6091D70C7091C7
:104BF000D80C8091D90C9091DA0C0E948E1E86E41C
:104C000094E00E94DF1F6091DB0C70E080E090E098
:104C10000E94401F88E294E00E94DF1F8091DB0C1D
:104C20000E94AE1F81E294E00E94DF1F6091F80CA9
:104C300070E080E090E00E94401F83E094E00E94DA
:104C4000DF1F6091E00C7091E10C8091E20C90917B
:104C5000E30C20E030E041E655E40E948A300E94F7
:104C60008E1E84EE93E00E94DF1F6091E40C709131
:104C7000E50C8091E60C9091E70C0E948E1E84EC6E
:104C800093E00E94DF1F6091DC0C7091DD0C80913D
:104C9000DE0C9091DF0C0E948E1E8BEA93E00E9446
:104CA000DF1F6091FA0C70E080E090E00E94401FEE
:104CB0008CE893E00E94DF1F6091F90C70E080E0C7
:104CC00090E00E94401F83E793E00E94DF1F609105
:104CD000E80C70E080E090E061707070807090701F
:104CE0000E94401F86E593E00E94DF1F6091E80C60
:104CF00070E07695679580E090E0617070708070EC
:104D000090700E94401F8CE393E00E94DF1F60912F
:104D1000E80C70E0769567957695679580E090E071
:104D200061707070807090700E94401F8AE193E003
:104D30000E94DF1F6091E80C70E023E07695679594
:104D40002A95E1F780E090E061707070807090705B
:104D50000E94401F8FEF92E00E94DF1F6091E80CDD
:104D600070E094E0769567959A95E1F780E090E0A1
:104D700061707070807090700E94401F83EE92E0AE
:104D80000E94DF1F6091E90C70E080E090E00E94DB
:104D9000401F84EC92E00E94DF1F8091E90C0E948A
:104DA000AE1F8CEB92E00E94DF1F6091EA0C7091C5
:104DB000EB0C8091EC0C9091ED0C0E948E1E8FE913
:104DC00092E00E94DF1F6091EE0C7091EF0C8091D9
:104DD000F00C9091F10C0E948E1E82E892E00E94ED
:104DE000DF1F6091F20C7091F30C80E090E00E9464
:104DF000401F83E692E00E94DF1F6091F40C7091E7
:104E0000F50C8091F60C9091F70C0E948E1E8AE4AE
:104E100092E00E94DF1F08951F93182F88E996E003
:104E20000E94DF1F1E3F29F01F3F39F48DE896E0F6
:104E300002C08AE796E00E94DF1F80E796E00E94AA
:104E4000DF1F84EF91E00E947E161F910895E0EC31
:104E5000F0E08081826080831092C50082E28093BE
:104E6000C400E1ECF0E08081806180838081886013
:104E700080838081806880830895282FE091D40A00
:104E80009E2F9F5F903831F490E004C08091370BE3
:104E900084FD0FC08091D50A9817C1F3F0E0EB5B59
:104EA000F34F20839093D40A8091C1008062809355
:104EB000C10008951F920F920FB60F920BB60F927A
:104EC00011248F939F93EF93FF938091D50AE82F3E
:104ED000F0E0EB5BF34F90819093C600982F9F5FBB
:104EE000903809F490E09093D50A8091D40A9817ED
:104EF00029F48091C1008F7D8093C100FF91EF91D3
:104F00009F918F910F900BBE0F900FBE0F901F902F
:104F100018959091D30A8091D20A891711F48FEFD6
:104F20000895E92FF0E0EB5BF44F80819F5F909351
:104F3000D30A08958091D20A8093D30A08951F92CC
:104F40000F920FB60F920BB60F9211242F933F932F
:104F50004F935F936F937F938F939F93AF93BF9381
:104F6000EF93FF939091C6009132A1F0923218F422
:104F70009831B9F413C09F3319F09E3791F404C0EF
:104F80008091370B816003C08091370B82608093E2
:104F9000370B15C08091370B8860F9CF0E942A111A
:104FA0000EC0E091D20A2E2F2F5F8091D30A2817CE
:104FB00031F0F0E0EB5BF44F90832093D20AFF9145
:104FC000EF91BF91AF919F918F917F916F915F9181
:104FD0004F913F912F910F900BBE0F900FBE0F90EE
:104FE0001F90189580E090E065E00E94110481E038
:104FF00090E065EC7CE046E350E00E9433040895C5
:10500000EF92FF920F931F93CF93DF93EC017A01FE
:105010008B01FC018731910540F4EE58FF4FEE0FF4
:10502000FF1F0590F491E02D199486E01FC1CB017C
:10503000BA0120E030E040E050E00E9483301816D2
:1050400014F088E013C1CC0FDD1FCC0FDD1FCB5354
:10505000D34FE882F9820A831B8305C1CB01BA01D1
:1050600020E030E040E450E40E948330882314F4D0
:1050700089E0FCC0C801B7010E94BB330E94F73031
:105080006093D20CF0C04093D30C5093D40C609337
:10509000D50C7093D60CE7C04093D70C5093D80C26
:1050A0006093D90C7093DA0CDEC0CB01BA010E9478
:1050B00026340E94F7306093DB0CD5C0CB01BA01D7
:1050C0000E94BB330E94F7306093F80CCCC0CB0138
:1050D000BA0120E030E040E752E40E94583320E07B
:1050E00030E040E752E40E9458336093E00C709344
:1050F000E10C8093E20C9093E30CB5C0DB01CA0194
:10510000BF778093E40C9093E50CA093E60CB093EA
:10511000E70CA9C04093DC0C5093DD0C6093DE0CCF
:105120007093DF0CA0C0CB01BA010E94BB330E9478
:10513000F7306093FA0C97C0CB01BA010E94BB33E1
:105140000E94F7306093F90C8EC0CB01BA0120E0C9
:1051500030E040E050E00E948330882321F08091CD
:10516000E80C816011C08091E80C8E7F0DC0CB01EE
:10517000BA0120E030E040E050E00E948330882314
:1051800031F08091E80C82608093E80C6CC08091D3
:10519000E80C8D7FF9CFCB01BA0120E030E040E090
:1051A00050E00E948330882321F08091E80C8460D5
:1051B000EBCF8091E80C8B7FE7CFCB01BA0120E0E9
:1051C00030E040E050E00E948330882321F080915D
:1051D000E80C886003C08091E80C877F8093E80C1E
:1051E0000E941B0E40C0CB01BA0120E030E040E03D
:1051F00050E00E948330882321F08091E80C806188
:10520000C3CF8091E80C8F7EBFCFCB01BA010E9443
:1052100026340E94F7306093E90C25C04093EA0CD5
:105220005093EB0C6093EC0C7093ED0C1CC040930E
:10523000EE0C5093EF0C6093F00C7093F10C13C0D4
:10524000CB01BA010E94BB330E94F7307093F30C7C
:105250006093F20C08C04093F40C5093F50C6093EB
:10526000F60C7093F70C0E94F22780E0DF91CF914B
:105270001F910F91FF90EF900895882309F45AC071
:1052800080E090E0AAE7B3E48093C50C9093C60C4D
:10529000A093C70CB093C80C8093C90C9093CA0C10
:1052A000A093CB0CB093CC0C8093CD0C9093CE0CF0
:1052B000A093CF0CB093D00C2AE02093D20C809313
:1052C000D30C9093D40CA093D50CB093D60C80E063
:1052D00090E0AAEFB3E48093D70C9093D80CA093FE
:1052E000D90CB093DA0C80E090EAACE0B7E480939C
:1052F000E00C9093E10CA093E20CB093E30C8DECE6
:105300009CECACECBDE38093DC0C9093DD0CA093A3
:10531000DE0CB093DF0C80EC8093DB0C8DEC9CEC0E
:10532000ACE4BDE38093E40C9093E50CA093E60C11
:10533000B093E70C82E08093E80C1092E90C80E0D7
:1053400090E0A8ECB1E48093EA0C9093EB0CA0936E
:10535000EC0CB093ED0C80E090E0AAE7B3E480930E
:10536000EE0C9093EF0CA093F00CB093F10C84E64C
:1053700090E09093F30C8093F20C80E090E0A0E832
:10538000BFE38093F40C9093F50CA093F60CB093CC
:10539000F70C99E19093F80C83E08093F90C9093CB
:1053A000FA0C0E94F227089580E090E00E94090420
:1053B000853079F485EC9CE061E070E046E350E0F4
:1053C0000E947D0420E0892B09F421E081E0282758
:1053D00012C0853078F485EC9CE061E070E043E237
:1053E00050E00E947D04892B29F080E00E943D2935
:1053F00021E001C020E0822F08959DE0899FC00137
:10540000112480509E4F4CE050E00E9433040895D8
:105410000F931F93CF93DF93162F072F9DE0899F44
:10542000E0011124C050DE4F862F972FBE014CE0C3
:1054300050E00E947D04892B11F081E00FC0E12F24
:10544000F02F8CE0DF011D928A95E9F7CE01612FE4
:10545000702F4CE050E00E94330480E0DF91CF9148
:105460001F910F910895EF92FF921F93DF93CF93B7
:10547000CDB7DEB72C970FB6F894DEBF0FBECDBF09
:105480000E94D429882341F48AE00E94AC2281E062
:105490000E943D290E94AE2510E07E010894E11C87
:1054A000F11C812FB7010E94082A882319F48AE091
:1054B0000E94AC221F5F1830A1F72C960FB6F8940B
:1054C000DEBF0FBECDBFCF91DF911F91FF90EF9058
:1054D000089595E6899FC001112480509D4F44E6B0
:1054E00050E00E94330408950F931F93CF93DF93EE
:1054F0008B0195E6899FE0011124C050DD4FCB015F
:10550000BE0144E650E00E947D04892B11F081E049
:1055100009C0F8011082CE01B80144E650E00E94B3
:10552000330480E0DF91CF911F910F910895109285
:10553000D60A3A9A399A42980895429808951F9344
:10554000182F282F332727FD30958091D60A90E019
:105550002817390771F00E945D1E112339F01116CA
:1055600014F4419801C0419A429A01C042981093A4
:10557000D60A1F9108958091E80C82FF02C02F9AED
:1055800001C02F988091360B833081F48091DB0C21
:105590008093FE0A8091D20C880F8450819580936D
:1055A000FD0A80916F00826080936F0008951F92C2
:1055B0000F920FB60F9211248F939F9392B1809107
:1055C000DB0C8C71937E892B82B91092B1009F9174
:1055D0008F910F900FBE0F901F9018959B01AC01FB
:1055E000203283E0380780E0480780E0580720F445
:1055F00020E233E040E050E060E070E788E399E3C8
:105600000E946434C901DA01803020E0920721E071
:10561000A20720E0B20730F4BC019C0140E050E05A
:1056200091E02FC0803020E0920728E0A20720E020
:10563000B207A0F4F3E0B695A79597958795FA95EC
:10564000D1F7BC019C0140E050E0E3E0220F331FA2
:10565000441F551FEA95D1F792E013C026E0B69596
:10566000A795979587952A95D1F7BC019C0140E0B5
:1056700050E086E0220F331F441F551F8A95D1F753
:1056800093E080918100887F982B909381007093A4
:105690008900609388002093EB0A3093EC0A4093D2
:1056A000ED0A5093EE0A08958091360B823029F46A
:1056B00083E08093360B0E94BB2A08958091360BBD
:1056C000833029F484E08093360B1092440B0895C4
:1056D000E091FB0AF091FC0A3097C1F1658576856F
:1056E000878590892091E70A3091E80A4091E90A7C
:1056F0005091EA0A621B730B840B950B0E94681A87
:105700001092F30A1092F40A1092F50A1092F60A17
:1057100060E070E080E090E00E94EE2A80E091E797
:10572000A2E0B0E08093EF0A9093F00AA093F10A10
:10573000B093F20A1092E70A1092E80A1092E90A6E
:105740001092EA0A82E08093360B08951092360B8D
:10575000089584E2E7EDFAE0DF011D928A95E9F70A
:1057600060E273E080E090E00E94EE2A1092FC0A72
:105770001092FB0A1092FF0A089580916F008D7FAE
:1057800080936F009091F80C9F3F21F48091370B2C
:1057900085FF0BC0892F90E00E947E168091E80C57
:1057A00082FF02C02F9808952F9A089581B18C6FBF
:1057B00081B982B183709091DB0C892B82B9279AD1
:1057C000E1E8F0E080818F7E808380818860808343
:1057D000E0E8F0E080818D7F808380818E7F808310
:1057E00080818F73808380818F7C80831092B00052
:1057F0001092B100E0E7F0E08081816080830E9438
:10580000BB2A0E94BD2B08951F920F920FB60F92D4
:105810000BB60F921124EF92FF920F931F932F93C9
:105820003F934F935F936F937F938F939F93AF9328
:10583000BF93CF93DF93EF93FF938091FF0A882369
:1058400009F06EC392B12091FE0A822F807E9F7173
:10585000892B82B982B1837E822B82B98091FD0A25
:105860008093B20082E08093B10081E08093FF0AD0
:1058700078948091FB0A9091FC0A892B09F07FC0F3
:105880000E941417EC019093FC0A8093FB0A009786
:1058900009F46EC08091360B8330D1F46BA17CA1EA
:1058A0008DA19EA16093F30A7093F40A8093F50A88
:1058B0009093F60A0E94EE2A80E091E7A2E0B0E021
:1058C0008093EF0A9093F00AA093F10AB093F20A42
:1058D0002BA53CA54DA55EA5DA01C901B595A795F7
:1058E00097958795820F931FA41FB51F8093F70A82
:1058F0009093F80AA093F90AB093FA0A2D853E8591
:105900004F855889DA01C901B595A795979587956F
:10591000B095A095909581959F4FAF4FBF4F8093C5
:10592000D70A9093D80AA093D90AB093DA0A809341
:10593000DB0A9093DC0AA093DD0AB093DE0A809321
:10594000DF0A9093E00AA093E10AB093E20A209361
:10595000E30A3093E40A4093E50A5093E60A109272
:10596000E70A1092E80A1092E90A1092EA0A07C0C0
:105970000E94BD2B8091370B84608093370BE091A0
:10598000FB0AF091FC0A309709F4C1C220812093F0
:10599000FE0A4091D70A5091D80A6091D90A7091B5
:1059A000DA0A81819281A381B481480F591F6A1F4D
:1059B0007B1F4093D70A5093D80A6093D90A7093FB
:1059C000DA0A1416150616061706C4F52460209385
:1059D000FE0A8091E30A9091E40AA091E50AB09151
:1059E000E60A481B590B6A0B7B0B4093D70A50936E
:1059F000D80A6093D90A7093DA0A25FF0CC0809107
:105A0000380B9091390BA0913A0BB0913B0B019759
:105A1000A109B1090BC08091380B9091390BA0916D
:105A20003A0BB0913B0B0196A11DB11D8093380B31
:105A30009093390BA0933A0BB0933B0B4091DB0A48
:105A40005091DC0A6091DD0A7091DE0A85819681B1
:105A5000A781B085480F591F6A1F7B1F4093DB0A3F
:105A60005093DC0A6093DD0A7093DE0A1416150663
:105A700016061706D4F52091FE0A28602093FE0A28
:105A80008091E30A9091E40AA091E50AB091E60AB8
:105A9000481B590B6A0B7B0B4093DB0A5093DC0AC3
:105AA0006093DD0A7093DE0A26FF0CC080913C0BE8
:105AB00090913D0BA0913E0BB0913F0B0197A10936
:105AC000B1090BC080913C0B90913D0BA0913E0B16
:105AD000B0913F0B0196A11DB11D80933C0B90939B
