:100000000C94C2020C94E3020C94E3020C94E302FD
:100010000C94E3020C94E3020C94E3020C94E302CC
:100020000C94E3020C94E3020C94E3020C94E302BC
:100030000C94E3020C94E3020C94E3020C9460250C
:100040000C94E3020C9484260C94E3020C94E302D7
:100050000C94E3020C94E3020C94E3020C94E3028C
:100060000C94E3020C9454200C940F200C94E302A3
:100070000C94E3020C94E3020C94E3020C94E3026C
:100080000C94E3020C94E3020C94E3020C94E3025C
:100090000C94E3020C94E3020C94E3020C94E3024C
:1000A0000C94E3020C94E3020C94E3020C94E3023C
:1000B0000C94E3020C94E3020C94E3020C94E3022C
:1000C0000C94E3020C94E3020C94E3020C94E3021C
:1000D0000C94E3020C94E3020C94E3020C94E3020C
:1000E0000C94E302084AD73B3BCE016E84BCBFFDB3
:1000F000C12F3D6C74319ABD56833DDA3D00C77FF8
:1001000011BED9E4BB4C3E916BAAAABE0000008090
:100110003F05A84CCDB2D44EB93836A9020C50B91F
:10012000918688083CA6AAAA2ABE000000803F0D3E
:100130000A00496E76616C696420636F6D6D616E53
:10014000640D0A004D6F64616C2067726F757020DA
:1001500076696F6C6174696F6E0D0A00466C6F6131
:1001600074696E6720706F696E74206572726F7249
:100170000D0A00556E737570706F7274656420732C
:10018000746174656D656E740D0A00457870656301
:1001900074656420636F6D6D616E64206C6574744A
:1001A00065720D0A00426164206E756D6265722091
:1001B000666F726D61740D0A006572726F723A201B
:1001C000006F6B0D0A000D0A27242720746F20642E
:1001D000756D702063757272656E742073657474CA
:1001E000696E67730D0A000D0A4772626C20302E2B
:1001F0003831000D0A4D6567613235363000576180
:10020000726E696E673A204661696C656420746F2E
:10021000207265616420454550524F4D20736574CE
:1002200074696E67732E205573696E672064656606
:1002300061756C74732E0D0A0053746F72656420BF
:100240006E65772073657474696E670D0A00556E6C
:100250006B6E6F776E20706172616D657465720D83
:100260000A00537465702070756C7365206D75732A
:1002700074206265203E3D2033206D6963726F7388
:1002800065636F6E64730D0A0053746570732F6D30
:100290006D206D757374206265203E20302E300D08
:1002A0000A000D0A2724783D76616C756527207455
:1002B0006F2073657420706172616D657465722062
:1002C0006F72206A7573742027242720746F20644E
:1002D000756D702063757272656E742073657474C9
:1002E000696E67730D0A00202873746570706572FB
:1002F000733A2030203D2064697361626C65642C20
:100300002031203D20656E61626C6564290D0A0014
:100310002431303030203D200020286D6178696D17
:10032000756D207370696E646C65207370656564AB
:1003300020696E2052504D290D0A00243134203D91
:100340002000202864656661756C74207370696E86
:10035000646C6520737065656420696E2052504D31
:10036000290D0A00243133203D2000202850574D0C
:10037000206F6E205370696E646C653A2030203DAA
:100380002064697361626C65642C2031203D2065B6
:100390006E61626C6564290D0A00243132203D20B3
:1003A000002028636F726E6572696E67206A756ED1
:1003B0006374696F6E20646576696174696F6E201D
:1003C000696E206D6D290D0A00243131203D200019
:1003D0002028616363656C65726174696F6E206962
:1003E0006E206D6D2F7365635E32290D0A00243116
:1003F00030203D2000290D0A0020287374657020EC
:10040000706F727420696E76657274206D61736BA3
:10041000206C696D69742E2062696E617279203D6D
:1004200020002439203D2000290D0A002028737463
:10043000657020706F727420696E76657274206DBD
:1004400061736B2E2062696E617279203D200024F9
:1004500038203D200020286D6D2F61726320736568
:10046000676D656E74290D0A002437203D20002039
:10047000286D6D2F6D696E2064656661756C7420E2
:100480007365656B2072617465290D0A002436203E
:100490003D200020286D6D2F6D696E2064656661BA
:1004A000756C7420666565642072617465290D0A37
:1004B000002435203D200020286D6963726F73652C
:1004C000636F6E647320737465702070756C7365F0
:1004D000290D0A002434203D200020287374657003
:1004E000732F6465672E2063290D0A002433203D95
:1004F0002000202873746570732F6D6D207A290D8C
:100500000A002432203D2000202873746570732F68
:100510006D6D2079290D0A002431203D200020280E
:1005200073746570732F6D6D2078290D0A00243067
:10053000203D20000D0A00302E383100245645524F
:1005400053494F4E203D2000494E46494E4954598B
:100550004E414ECDCCCC3D0AD7233C17B7D138778E
:10056000CC2B329595E6241FB14F0A0000204100A4
:1005700000C84200401C4620BCBE4CCA1B0E5AAEEE
:10058000C59D740011241FBECFEFD1E2DEBFCDBFE9
:1005900000E00CBF12E0A0E0B2E0E2EFF1E600E024
:1005A0000BBF02C007900D92A631B107D9F71EE02C
:1005B000A6E1B2E001C01D92AB38B107E1F70E949D
:1005C000FF0E0C94F7300C940000109216023A9A29
:1005D000389A4298409808954298409808951F93F9
:1005E000182F80911602181771F00E944B1C1130C1
:1005F00011F4409A06C0123011F4429A02C0429897
:100600004098109316021F910895F999FECF92BD5C
:1006100081BD81E08FBB80B50895F894F999FECF34
:1006200092BD81BD81E08FBB40B54627842F9927BD
:1006300087FD9095262F30E082239323892B39F074
:100640006F3F19F060BD84E006C084E104C044231C
:1006500021F060BD84E28FBBF99A789408958F925F
:100660009F92AF92BF92CF92DF92EF92FF920F9341
:10067000DF93CF930F920F92CDB7DEB75C016B0182
:100680007A014A0100E01EC0002319F021E030E0A9
:1006900008C0202F332727FD30952227330F221F34
:1006A0003327F60161916F01062F020F9C012F5F26
:1006B0003F4F3A8329830E940D03089481089108D3
:1006C00089819A8181149104F9F6C7018A0D9B1DD5
:1006D000602F0E940D030F900F90CF91DF910F912B
:1006E000FF90EF90DF90CF90BF90AF909F908F9052
:1006F0000895CF93DF93EC01FB019A0190E0B1E004
:1007000019C0F999FECFF2BDE1BDBFBBA0B59923D9
:1007100019F081E090E008C0892F992787FD909516
:100720008827990F881F992731969A2F980FA99398
:10073000215030402115310521F7460F571FF999F7
:10074000FECF52BD41BD81E08FBB80B520E030E0DF
:10075000981711F421E030E0C901DF91CF9108959D
:100760006F927F928F929F92AF92BF92CF92DF92C1
:10077000EF92FF920F931F9339014A010E94E62BDB
:100780002091580E3091590E40915A0E50915B0EA7
:100790000E944B2B609327027093280280932902BA
:1007A00090932A02C401B3010E94E62B20915C0EB3
:1007B00030915D0E40915E0E50915F0E0E944B2B6A
:1007C00060932B0270932C0280932D0290932E0243
:1007D000C801B7010E94E62B2091600E3091610E96
:1007E0004091620E5091630E0E944B2B60932F023A
:1007F000709330028093310290933202C601B501AA
:100800000E94E62B2091640E3091650E4091660E99
:100810005091670E0E944B2B609333027093340209
:1008200080933502909336021F910F91FF90EF90C5
:10083000DF90CF90BF90AF909F908F907F906F9000
:10084000089580E1E7E2F2E0DF011D928A95E9F781
:10085000089586E2E7E1F2E0DF011D928A95E9F76B
:1008600080916A0E90916B0EA0916C0EB0916D0EFE
:1008700080931F0290932002A0932102B093220242
:1008800010923A0291E090933B0282E080933C0206
:1008900090931B0208950F931F93CF93DF93EC0166
:1008A0008B01D9018C91FA01E80FF11DE081EE2353
:1008B000B1F0E883E154EA3110F082E00EC08C918F
:1008C0008F5F8C93CA01B901A8010E94EB13892B99
:1008D00019F021E030E005C081E08093170220E0AC
:1008E00030E0C901DF91CF911F910F9108952F92B0
:1008F0003F924F925F926F927F928F929F92AF92B0
:10090000BF92CF92DF92EF92FF920F931F93DF93EC
:10091000CF93CDB7DEB7E3970FB6F894DEBF0FBE27
:10092000CDBF3C01198280E1FE013796DF01482FDF
:100930001D924A95E9F7FE017796DF011D928A958F
:10094000E9F7109217021FA61EA61DA61CA613E00B
:10095000812E912C8C0E9D1E2E010894411C511C41
:10096000B1E02B2E312CA3E0AA2E01E0F2E0BF2E45
:100970009CC1CB80DC80ED80FE80C701B6010E9467
:10098000E72E0E94B32B9B014A81473421F04D345E
:1009900009F08BC11CC16E317105C9F16F31710550
:1009A000D4F46431710584F461317105A4F56430C7
:1009B000710569F1653071051CF4772354F525C084
:1009C0006A30710511F523C06631710554F16C313F
:1009D0007105D9F41CC06C3571058CF46A3571054C
:1009E000E4F46C3371053CF466337105E4F465336B
:1009F000710559F40CC06035710539F40AC06C35C5
:100A0000710529F06F35710554F010E00DC011E04B
:100A10000BC012E009C013E007C014E005C016E0E7
:100A200003C017E001C019E02531310509F495C074
:100A300026313105A4F52430310509F467C025308D
:100A40003105A4F42130310509F466C022303105A6
:100A500024F4232B09F45DC00EC12230310509F4C2
:100A60005EC02330310509F006C15CC0223131057A
:100A700009F462C0233131054CF42A30310509F400
:100A800043C02131310509F0F6C04FC02331310593
:100A900009F459C02431310509F0EDC05BC020359F
:100AA000310509F46AC021353105ACF4253331052F
:100AB00009F459C0263331054CF42C31310509F4C1
:100AC0004FC02E31310509F0D6C04AC02C33310554
:100AD0000CF0D1C04BC02C35310509F458C02D3570
:100AE00031054CF42A35310509F44BC02B3531055D
:100AF00009F0C1C049C02D35310509F462C02E3559
:100B0000310509F0B8C060C0B2E059C0E1E0ECA71F
:100B1000B4C010921802B1C000931802AEC0B092D7
:100B20001802ABC0A0921802A8C010923A0200931B
:100B30003B02B0923C02A1C010923A02B0923B023A
:100B400000933C029AC000933A02B0923B0210928A
:100B50003C0293C000931A0290C010921A028DC0FA
:100B6000F3E0FCA78AC041E04DA787C026333105DA
:100B700009F081C01092B50C80C054E05093180267
:100B80007CC000931B0279C010921B0276C0C70183
:100B9000B60120E030E040E251E40E94192E0E94AC
:100BA000E72E0E94B32B83E06839780739F0695942
:100BB000734009F060C0A5E0ACA75FC0B4E0BCA77B
:100BC0005CC00093190259C01092190256C06630D9
:100BD000710534F46330710554F4772334F403C0A1
:100BE0006E31710511F010E003C015E001C018E08E
:100BF0002430310581F12530310584F4213031056F
:100C000009F1223031051CF4232BE1F034C02230ED
:100C10003105D9F02330310571F51AC0283031057E
:100C200021F1293031053CF425303105C1F0273060
:100C3000310509F517C029303105D1F02E313105C4
:100C4000D1F403C000931C0218C0B0921C0215C05E
:100C500000931D0212C0EFEFE0931D020EC0109230
:100C60001D020BC0B0921E0208C000931E0205C0F8
:100C700010921E0202C0A09217021123B1F091013E
:100C800002C0220F331F1A95E2F78EA59FA582237B
:100C90009323892B21F0F5E0F093170206C04EA5AF
:100CA0005FA5422B532B5FA74EA7CE010296B4013E
:100CB000A30192010E944B04892B09F05ACE809126
:100CC0001702882309F0E0C51982882418AA19AAF6
:100CD00050E85AAB6FEB6BAB0F2EF0E0AF2EF0E0AD
:100CE000BF2EF0E0CF2EF0E0DF2EF02DA8A6B9A6A3
:100CF000CAA6DBA61FA2E2E02E2E312C2C0E3D1E32
:100D00002E010894411C511C76E0972E56C11A8181
:100D1000103509F490C0113584F41C3454F419349E
:100D20000CF05CC0133409F424C1163409F045C139
:100D30001AC01C3409F041C174C0143509F4B5C09F
:100D400015353CF4123509F47BC0133509F035C173
:100D500093C0193509F4DBC01A3509F4F1C0183510
:100D600009F02BC1BBC0EB80FC800D811E81C80146
:100D7000B70120E030E040E050E00E94442B18161C
:100D800014F09092170280911902882381F08091CB
:100D90001A02882309F40DC1C801B70123E333E324
:100DA0004BEC51E40E94192E7B018C0102C1809111
:100DB0001A02882351F0C801B70123E333E34BEC57
:100DC00051E40E94192E7B018C01E0921F02F092E7
:100DD00020020093210210932202E3C02B813C8168
:100DE0004D815E8180911A02882351F0CA01B901B8
:100DF00023E333E34BEC51E40E94192E9B01AC0139
:100E0000E12FFF27E7FDF095E954F040EE0FFF1FBB
:100E1000EE0FFF1FE40DF51D268B378B408F518F92
:100E2000C0C06B817C818D819E810E94E72E0E94D3
:100E3000B82B6FA3B6C0AB80BC80CD80DE80B1C0C4
:100E40008B819C81AD81BE8188A799A7AAA7BBA7EA
:100E500080911A02882309F4A4C068A579A58AA5FF
:100E60009BA523E333E34BEC51E40E94192E68A7C2
:100E700079A78AA79BA795C0EB80FC800D811E8176
:100E8000C801B70120E030E040E050E00E94442B70
:100E9000882314F490921702C801B7010E94B82B5E
:100EA00070933902609338027CC0EB80FC800D8126
:100EB0001E81C801B70120E030E040E050E00E9410
:100EC000442B882314F490921702C801B7010E94A2
:100ED000E72E0E94B82B6093370263C02B813C81C0
:100EE0004D815E8180911A02882351F0CA01B901B7
:100EF00023E333E34BEC51E40E94192E9B01AC0138
:100F00002F83388749875A8791E0892A4AC02B81E5
:100F10003C814D815E8180911A02882351F0CA0183
:100F2000B90123E333E34BEC51E40E94192E9B01FA
:100F3000AC012B873C874D875E87A2E08A2A31C0AF
:100F40002B813C814D815E8180911A02882351F072
:100F5000CA01B90123E333E34BEC51E40E94192E9B
:100F60009B01AC012F87388B498B5A8BB4E08B2ABD
:100F700018C02B813C814D815E8180911A028823AB
:100F800051F0CA01B90123E333E34BEC51E40E9471
:100F9000192E9B01AC012B8B3C8B4D8B5E8BE8E0BB
:100FA0008E2A28A939A94AA95BA9C901DA017C01BD
:100FB0008D01E8AAF9AA0AAB1BABC101BE016D5FA6
:100FC0007F4FA30192010E944B04892B09F09FCE11
:100FD000982C28A939A94AA95BA9C901DA011C01E1
:100FE0002D0180911702882309F04EC460913802C8
:100FF0007091390280911D020E94B02480911E02DE
:101000000E94EF02FCA5F33009F457C0F43028F435
:10101000F13061F0F23041F419C04CA5443009F4CC
:10102000EFC0453009F443C1982C4AC1C601B5014F
:1010300020E030E040E050E00E94442B88230CF494
:10104000E1C0C601B5010E94AF0F3AC15FA15230A5
:1010500049F4C601B5010E94E72E0E94B32B61300E
:10106000710521F083E08093170229C1882009F4DB
:10107000C9C0AE01495F5F4FE6EBFCE020E030E025
:10108000682D70E0CB01022E02C0959587950A94D9
:10109000E2F780FF09C0DA01ED90FD900D911C91FF
:1010A000E082F182028313832F5F3F4F4C5F5F4FDB
:1010B00034962430310531F702C1882009F49DC0EF
:1010C0008E01095F1F4F37E2C32E32E0D32E26EC8C
:1010D000A22E2CE0B22EEE24FF249924C4010E2C63
:1010E00002C0959587950A94E2F780FF40C08091F1
:1010F0001B02882349F1E091B50CF0E0EE0FFF1FD1
:10110000EE0FFF1FEE0DFF1DEE0FFF1FEE0FFF1F77
:10111000EA54F34F6081718182819381F5012081CE
:101120003181428153810E946B2A9B01AC01D8011D
:101130006D917D918D919C910E946B2AF801608345
:101140007183828393831DC0D8016D917D918D91B0
:101150009C91F60120813181428153810E946B2A4A
:10116000D8016D937D938D939C9313970AC0F601DC
:1011700080819181A281B381F80180839183A283D0
:10118000B3830894E11CF11C0C5F1F4F44E050E056
:10119000C40ED51EA40EB51E54E0E516F10409F0E8
:1011A0009DCF00D00F920F926F81788589859A85A7
:1011B0002B853C854D855E85EF84F88809891A89E1
:1011C000AB88BC88CD88DE8860906E0E70906F0E04
:1011D0008090700E9090710EADB7BEB711966D9263
:1011E0007D928D929C92149715961C920E940310EA
:1011F0000F900F900F900F900F900E94A10F5FC063
:10120000882021F486E0809317025AC007E2A02EBE
:1012100002E0B02EEE24FF24CC24DD24992417E034
:10122000612E712C6C0E7D1EC4010E2C02C0959592
:1012300087950A94E2F780FF2BC086010E55134F65
:10124000E091B50CF0E0EE0FFF1FEE0FFF1FEE0D6B
:10125000FF1DEE0FFF1FEE0FFF1FEA54F34FD501E6
:101260006D917D918D919C9120813181428153813D
:101270000E946A2AF301EC0DFD1D2081318142811B
:1012800053810E946A2AF80164A375A386A397A3D9
:101290000894E11CF11C44E050E0A40EB51EC40EFD
:1012A000D51E54E0E516F10409F0BECF08C080E178
:1012B000E6ECFCE0DF011D928A95E9F701C0992474
:1012C000BEA5B2FD03C0992009F4D2C280911902D3
:1012D000882389F0C201B10120E030E040E050E015
:1012E0000E94442B88233CF480911802843019F02A
:1012F00086E080931702EDA5EE2339F08091180265
:10130000823018F086E080931702809117028823BC
:1013100009F0BAC28E01095F1F4F76ECA72E7CE060
:10132000B72E67E2C62E62E0D62EEE24FF24692C8B
:101330007724C3010E2C02C0959587950A94E2F795
:1013400080FF44C0FDA5FF2309F04AC080911B0225
:10135000882351F1E091B50CF0E0EE0FFF1FEE0F86
:10136000FF1FEE0DFF1DEE0FFF1FEE0FFF1FEA54D4
:10137000F34F6081718182819381D5012D913D91DF
:101380004D915C910E946B2A9B01AC01F801608138
:101390007181828193810E946B2AD8016D937D9324
:1013A0008D939C9313971CC0F80160817181828199
:1013B0009381D6012D913D914D915C910E946B2AB4
:1013C000F80160837183828393830AC0F601808170
:1013D0009181A281B381F80180839183A283B38339
:1013E0000894E11CF11C0C5F1F4F44E050E0A40E78
:1013F000B51EC40ED51E54E0E516F10409F099CFD0
:1014000080911802843048F4823008F070C088233C
:1014100059F0813009F01FC230C0843009F01BC27E
:10142000992009F418C2ABC0992009F4A8C000D0D3
:101430000F920F926F81788589859A852B853C85DF
:101440004D855E85EF84F88809891A89AB88BC8848
:10145000CD88DE8860906E0E70906F0E8090700E5A
:101460009090710EADB7BEB711966D927D928D9230
:101470009C92149715961C9237C0992009F47FC04E
:101480002F80388449845A846B847C848D849E8424
:10149000EF84F88809891A89AB88BC88CD88DE88F2
:1014A00060911902662361F4B0911F02B8ABE0911C
:1014B0002002E9ABF0912102FAAB409122024BAB42
:1014C00000D00F920F9228A939A94AA95BA9C90196
:1014D000DA01EDB7FEB781839283A383B48365837A
:1014E000C201B101A40193010E940310AFC181E0C8
:1014F00090E000903C0202C0880F991F0A94E2F726
:1015000080958921E1F168A579A58AA59BA520E0B0
:1015100030E040E050E00E94442B8823A1F5E091A8
:101520003A02F0E0EE0FFF1FEE0FFF1F8E010F5F7C
:101530001F4FE00FF11F66897789808D918D20E024
:1015400030E040E050E00E94442B8823E1F4809199
:101550003B0290E0880F991F880F991F080F191FF1
:10156000D80156966D917D918D919C91599720E06F
:1015700030E040E050E00E94442B882321F486E0D4
:101580008093170268C168A579A58AA59BA520E06C
:1015900030E040E050E00E94442B8E010F5F1F4F6F
:1015A000882309F4EFC0E0913A02F0E0EE0FFF1F4C
:1015B000EE0FFF1FD801AE0FBF1FE95DFD4F16965E
:1015C0006D917D918D919C911997208131814281FE
:1015D00053810E946A2A1B012C01E0913B02F0E03A
:1015E000EE0FFF1FEE0FFF1F0E0F1F1FE95DFD4FD8
:1015F000D80116966D917D918D919C9119972081BE
:101600003181428153810E946A2A3B014C0180E171
:10161000FE017796DF011D928A95E9F768A579A505
:101620008AA59BA520E030E040E850E40E94192EF6
:1016300028A539A54AA55BA50E94192E7B018C011E
:10164000C201B101A20191010E94192E9B01AC01BE
:10165000C801B7010E946A2A7B018C01C401B30151
:10166000A40193010E94192E9B01AC01C801B7018E
:101670000E946A2A0E94A62E7B018C01C201B10140
:10168000A40193010E94542D9B01AC0117FB1095FE
:1016900017F91095C801B7010E944B2B6B017C0113
:1016A000A70196010E94EE2E882321F084E080930A
:1016B0001702EAC080911802833021F4F7FAF094FF
:1016C000F7F8F09468A579A58AA59BA520E030E0FD
:1016D00040E050E00E94442B88236CF4F7FAF09429
:1016E000F7F8F09448A559A56AA57BA5705848A7B6
:1016F00059A76AA77BA700913A02A02EBB24AA0C87
:10170000BB1CAA0CBB1C8E010F5F1F4FA00EB11E8D
:10171000C401B301A70196010E94192E9B01AC01DF
:10172000C201B1010E946A2A20E030E040E05FE39C
:101730000E94192ED50156966D937D938D939C939F
:10174000599780913B0290E0880F991F880F991F4D
:10175000080F191FC201B101A70196010E94192E9D
:101760009B01AC01C401B3010E946B2A20E030E070
:1017700040E05FE30E94192EF801668B778B808F23
:10178000918F23C0E0913A02F0E0EE0FFF1FEE0FC1
:10179000FF1FE00FF11F66897789808D918D209161
:1017A0003B0230E0220F331F220F331F020F131FA3
:1017B000D80156962D913D914D915C9159970E947B
:1017C000542D68A779A78AA79BA79091180220910A
:1017D0003A0200913B02E0903C028090190288207E
:1017E00061F4B0911F02B8ABE0912002E9ABF09137
:1017F0002102FAAB409122024BAB00D00F920F9224
:10180000EDB7FEB7319648A559A56AA57BA5ADB73A
:10181000BEB711964D935D936D937C93149780E0C2
:10182000923009F481E0848387E292E0BE01695F2F
:101830007F4FAE01495E5F4F38A9E9A9FAA9ABA96C
:10184000A32EBE2ECF2EDA2E0E9458100F900F908E
:101850000F900F900F90809117028823A9F4A7E2B0
:10186000B2E0FE01379680E101900D928150E1F7E0
:1018700080911C02882331F00E944B1C1092A40C12
:1018800010921C0280911702E3960FB6F894DEBF07
:101890000FBECDBFCF91DF911F910F91FF90EF90C1
:1018A000DF90CF90BF90AF909F908F907F906F9080
:1018B0005F904F903F902F90089587B1877887B9B8
:1018C00008952F923F924F925F926F927F928F92E4
:1018D0009F92AF92BF92CF92DF92EF92FF920F93BF
:1018E0001F93DF93CF93CDB7DEB7AF970FB6F894C2
:1018F000DEBF0FBECDBF8DA76EA7242E2FA7902EC3
:1019000056016701FE01319680E1DF011D928A9543
:10191000E9F7BDA5BB2371F06091580E7091590E87
:1019200080915A0E90915B0E0E94E92D69837A8313
:101930008B839C832EA5222371F060915C0E7091A5
:101940005D0E80915E0E90915F0E0E94E92D6D8379
:101950007E838F839887222071F06091600E709152
:10196000610E8091620E9091630E0E94E92D69874D
:101970007A878B879C873FA5332371F06091640E33
:101980007091650E8091660E9091670E0E94E92D10
:101990006D877E878F87988B8D859E85AF85B8896B
:1019A00049845A846B847C84481659066A067B06EF
:1019B00010F42C013D018D819E81AF81B8854816C0
:1019C00059066A067B0610F42C013D0189819A8133
:1019D000AB81BC81481659066A067B0610F42C01BF
:1019E0003D014DA5642F70E05EA5650F711D620D70
:1019F000711D882777FD8095982F0E94E62B0E9405
:101A0000A62E7B018C01C301B2010E94E42BA80128
:101A100097010E944B2B7B018C012091780E309115
:101A2000790E40917A0E50917B0E0E94192E20E083
:101A300030E84BE355E40E944B2B0E94312B0E946F
:101A4000B82B69A77AA78BA79CA7C801B701A601E5
:101A500095010E94192E9B01AC0160EC71EE84E6A9
:101A60009CE40E944B2B0E94E92D6B017C0110919C
:101A7000720E992011F08AEA1827D301C201B69597
:101A8000A79597958795882499245401881A990ACF
:101A9000AA0ABB0A8091690E28EF34E241E050E0C7
:101AA000281B3109410951092D8F3E8F4F8F58A3B3
:101AB0008DA29EA2AFA2B8A689A29AA2ABA2BCA2F6
:101AC00088EF94E2A1E0B0E0898B9A8BAB8BBC8B62
:101AD000198E1A8E1B8E1C8E20E137E240E050E0FA
:101AE0002D8B3E8B4F8B588F3324339431263DA55D
:101AF0003323C1F089819A81AB81BC81880E991E04
:101B0000AA1EBB1E181419041A041B045CF436998F
:101B100003C0012F1DA601C0032D84189508A60837
:101B2000B70801C0012F4EA5442339F18D819E8154
:101B3000AF81B8852DA13EA14FA158A5280F391F0F
:101B40004A1F5B1F2DA33EA34FA358A712161306CF
:101B50001406150694F4359902C01EA602C034E09E
:101B600003278DA19EA1AFA1B8A584199509A60947
:101B7000B7098DA39EA3AFA3B8A7222039F1898509
:101B80009A85AB85BC8529A13AA14BA15CA1280F00
:101B9000391F4A1F5B1F29A33AA34BA35CA312164C
:101BA00013061406150694F4349902C0222402C0C8
:101BB00030E1032789A19AA1ABA1BCA184199509A1
:101BC000A609B70989A39AA3ABA3BCA39FA5992390
:101BD00079F029A13AA14BA15CA1121613061406B3
:101BE000150634F4339902C01FA602C030E403275F
:101BF0000E94391F4DA5442349F45EA5552331F4B5
:101C0000222021F48FA5882309F473C08091A20CAF
:101C1000882309F06EC082B105758A7A082B02B953
:101C20008091690E90E00E94C21312B98D8D9E8D35
:101C30000E94C21329893A894B895C89C216D3064E
:101C4000E406F50608F053CF8D899E89AF89B88DDB
:101C5000820F931FA41FB51F8D8B9E8BAF8BB88FE8
:101C600081322EE4920720E0A20720E0B20708F4B8
:101C70003ECF80529E44A040B0408D8B9E8BAF8B58
:101C8000B88F898D9A8DAB8DBC8D29A53AA54BA5B2
:101C90005CA5820F931FA41FB51F898F9A8FAB8FEE
:101CA000BC8F60E077E883E993E0298D3A8D4B8D16
:101CB0005C8D0E94292FC901DA01898B9A8BAB8B2D
:101CC000BC8B8C159D05AE05BF0520F4C98ADA8A48
:101CD000EB8AFC8A8091690E29893A894B895C8953
:101CE000281B3109410951092D8F3E8F4F8F58A371
:101CF000FECEAF960FB6F894DEBF0FBECDBFCF912C
:101D0000DF911F910F91FF90EF90DF90CF90BF90E8
:101D1000AF909F908F907F906F905F904F903F908B
:101D20002F900895CF92DF92EF92FF920F931F931F
:101D30000E944B1C16B1C0906E0ED0906F0EE090BA
:101D4000700EF090710E80E060E041E020E001E074
:101D50000E94610CC0906E0ED0906F0EE090700EDD
:101D6000F090710E81E061E040E020E00E94610CA3
:101D7000C0906E0ED0906F0EE090700EF090710ECD
:101D800080E060E040E021E00E94610C82E390E0AE
:101D90000E94B81386B18127887790E0BC01E5E006
:101DA00076956795EA95E1F76170AC0174E0569518
:101DB00047957A95E1F7417053E0969587955A9546
:101DC000E1F7282F2170C0906A0ED0906B0EE09042
:101DD0006C0EF0906D0E33E0969587953A95E1F78D
:101DE000817000E00E94610C82E390E00E94B813D1
:101DF0001F910F91FF90EF90DF90CF9008952F9259
:101E00003F924F925F926F927F928F929F92AF928A
:101E1000BF92CF92DF92EF92FF920F931F93DF93C7
:101E2000CF93CDB7DEB7A0970FB6F894DEBF0FBE45
:101E3000CDBF60E071EE80E090E00E94C11F0E9483
:101E400077257894E2EAFCE086E3DF011D928A952B
:101E5000E9F781E08093A20C3E010894611C711C9B
:101E600091E1892E912C8C0E9D1E2F0186E3282E48
:101E7000332433948091A20C882309F45DC0D301EC
:101E8000E5EAFCE080E101900D928150E1F7D40198
:101E9000E6EBFCE080E101900D928150E1F7F20168
:101EA000822D11928A95E9F70E944F200E942C24DE
:101EB0000E94E01D0E94F2170E9429040E949C24A7
:101EC0000E945D0C0E94E5020E947026A5EABCE01B
:101ED000F30180E101900D928150E1F7A6EBBCE0A7
:101EE000F40180E101900D928150E1F769817A81DE
:101EF0008B819C812D813E814F815885E984FA84B4
:101F00000B851C85AD84BE84CF84D8880E94B00325
:101F100069817A818B819C812D813E814F81588599
:101F2000E984FA840B851C85AD84BE84CF84D8886F
:101F30000E9453143092A40C0E94391F0E94701FFB
:101F400099CF0E94920E0E9421040E94EA1780E11C
:101F5000E5EAFCE0DF011D928A95E9F70895EF922A
:101F6000FF920F931F93CF93DF937B018C0120E0AF
:101F700030E040EA51E40E94192E0E94212C0E9478
:101F8000B82BEB010E944B1CC801B70120E030E0E8
:101F90004AE754E40E94192E7B018C0182E390E011
:101FA000C89FB001C99F700DD89F700D112480E0AB
:101FB00090E00E94E42B9B01AC01C801B7010E9494
:101FC0006A2A0E94212C0E94B82BDC01CB010E94BE
:101FD000B81300E911E00EC00E94391F8091A20CD5
:101FE000882351F484EF91E0F8013197F1F70197DC
:101FF000D9F72197209781F7DF91CF911F910F910A
:10200000FF90EF9008952F923F924F925F926F92C0
:102010007F928F929F92AF92BF92CF92DF92EF9278
:10202000FF920F931F93DF93CF93CDB7DEB73B01A2
:102030004C0119012A010E94391F8091A20C8823AA
:1020400021F50E9449148823B1F700D00F920F9216
:102050008E899F89A88DB98DEDB7FEB78183928354
:10206000A383B4838A8D8583C401B301A201910146
:102070000E9406180F900F900F900F900F90809174
:10208000A40C882311F00E940826CF91DF911F91A4
:102090000F91FF90EF90DF90CF90BF90AF909F9007
:1020A0008F907F906F905F904F903F902F9008950A
:1020B0002F923F924F925F926F927F928F929F9258
:1020C000AF92BF92CF92DF92EF92FF920F931F9346
:1020D000DF93CF93CDB7DEB7CE54D0400FB6F89490
:1020E000DEBF0FBECDBF3C017EAF6DAF21965FAFAF
:1020F0004EAF219722962FAF229723960FAF2397AB
:102100002496EFAE24972896ACAEBDAECEAEDFAE31
:10211000289729968FAE2997E22EFF24EE0CFF1CFC
:10212000EE0CFF1C4E0D5F1D5CAF4BAFDA012D9026
:102130003D904D905C90FC01EE0DFF1DC201B10180
:1021400020813181428153810E946B2A69AB7AAB35
:102150008BAB9CAB10E0000F111F000F111F2196DD
:10216000EEADFFAD2197E00FF11FFAAFE9AFA08010
:10217000B180C280D380F301E00FF11FC601B50129
:1021800020813181428153810E946B2A6DA77EA7F5
:102190008FA798AB24962FAD2497E22FF0E0EE0F97
:1021A000FF1FEE0FFF1F6E0E7F1ED3018D919D91BD
:1021B0000D90BC91A02D8DAB9EABAFABB8AF2DAD4C
:1021C0003EADE20FF31F60817181828193812DA961
:1021D0003EA94FA958AD0E946A2A69A77AA78BA782
:1021E0009CA7D201C101B0588DA39EA3AFA3B8A7ED
:1021F000A6019501505829A33AA34BA35CA34DAD6A
:102200005EADE40EF51ED7016D917D918D919C918F
:1022100029A93AA94BA95CA90E946A2A3B014C0151
:10222000EDADFEAD0E0F1F1FD8016D917D918D910B
:102230009C912DA53EA54FA558A90E946A2A5B0135
:102240006C016DA17EA18FA198A5A60195010E94A8
:10225000192E7B018C0169A17AA18BA19CA1A401FB
:1022600093010E94192E9B01AC01C801B7010E9485
:102270006A2A1B012C016DA17EA18FA198A5A40142
:1022800093010E94192E7B018C0169A17AA18BA177
:102290009CA1A60195010E94192E9B01AC01C801C9
:1022A000B7010E946B2A9B01AC01C201B1010E94DF
:1022B000DE2A5B016C0120E030E040E050E00E944B
:1022C000442B882354F4C601B5012BED3FE049ECC3
:1022D00050E40E946B2A5B016C01A9968FADA9970F
:1022E000882351F0C601B5012BED3FE049EC50E4E5
:1022F0000E946A2A5B016C01C601B501A8962CAD4B
:102300003DAD4EAD5FADA8970E94192E29A53AA507
:102310004BA55CA50E94542D7B018C0120E030E090
:1023200040E050E00E94442B882309F407C2C80112
:10233000B7012091740E3091750E4091760E509138
:10234000770E0E944B2B0E94212C0E94B82B78A361
:102350006F8F2996BFAD2997BB23A1F080E090E055
:102360000E94E42B9B01AC0128966CAD7DAD8EAD37
:102370009FAD28970E94192E28966CAF7DAF8EAF27
:102380009FAF28972F8D38A1B90180E090E00E947F
:10239000E42B7B018C01C601B501A80197010E94C5
:1023A0004B2B6B8F7C8F8D8F9E8F69A57AA58BA50C
:1023B0009CA5A80197010E944B2B6F8B788F898F6A
:1023C0009A8F6B8D7C8D8D8D9E8D20E030E040E06E
:1023D0005FEB0E94192E2B8D3C8D4D8D5E8D0E94E2
:1023E000192E20E030E040E85FE30E946B2A6B8BFF
:1023F0007C8B8D8B9E8B24963FAD2497E32FF0E052
:10240000EE0FFF1FEE0FFF1FCE010196E80FF91F21
:10241000ADA8BEA8CFA8D8ACA082B182C282D38218
:1024200021E030E03E872D87882422965FAD2297F9
:10243000452F50E0440F551F440F551F480F591F9B
:102440002B965FAF4EAF2B972396BFAD2397AB2F45
:10245000B0E0AA0FBB1FAA0FBB1FA80FB91F2D9674
:10246000BFAFAEAF2D972F96FFAFEEAF2F9724C122
:10247000E7E2E8150CF446C06DA17EA18FA198A5F6
:102480002B8D3C8D4D8D5E8D0E94192E7B018C0114
:1024900069A17AA18BA19CA12B893C894D895E8978
:1024A0000E94192E9B01AC01C801B7010E946B2A42
:1024B0007B018C016DA17EA18FA198A52B893C8900
:1024C0004D895E890E94192E5B016C0169A17AA178
:1024D0008BA19CA12B8D3C8D4D8D5E8D0E94192E64
:1024E0009B01AC01C601B5010E946A2A6DA37EA3BF
:1024F0008FA398A78394C701D80189A39AA3ABA3FC
:10250000BCA361C0AD84BE84B50180E090E00E94B0
:10251000E42B2B8D3C8D4D8D5E8D0E94192E7B0101
:102520008C01C8010E94482B6F87788B898B9A8B0E
:10253000B701C8010E949C2E3B014C01ABADBCAD64
:10254000ED90FD900D911C9117FB109517F91095CA
:10255000E9ADFAAD2080318042805380C801B701D7
:102560002F85388949895A890E94192E5B016C018F
:10257000C201B101A40193010E94192E9B01AC017B
:10258000C601B5010E946B2A6DA37EA38FA398A7F5
:10259000C801B701A40193010E94192E7B018C018F
:1025A000C201B1012F85388949895A890E94192EA3
:1025B0009B01AC01C801B7010E946A2A69A37AA3F2
:1025C0008BA39CA3882469A97AA98BA99CA92DA176
:1025D0003EA14FA158A50E946B2A2B96AEADBFAD70
:1025E0002B976D937D938D939C9313976DA57EA5EB
:1025F0008FA598A929A13AA14BA15CA10E946B2AA1
:102600002D96EEADFFAD2D9760837183828393830A
:102610002F96AEADBFAD2F976D917D918D919C9111
:102620002F89388D498D5A8D0E946B2A2F96EEADD9
:10263000FFAD2F97608371838283938300D00F92C5
:102640000F9269817A818B819C812D813E814F819E
:102650005885E984FA840B851C852896ACACBDAC02
:10266000CEACDFAC2897ADB7BEB71196AD92BD9298
:10267000CD92DC9214972996EFAD29971596EC939D
:102680000F2EF0E0AF2EF0E0BF2EF0E0CF2EF0E006
:10269000DF2EF02D0E9403100F900F900F900F90DF
:1026A0000F908091A20C882309F048C02D853E85AB
:1026B0002F5F3F4F3E872D874D855E858F8D98A17B
:1026C0004817590708F4D4CE00D00F920F92ADAD41
:1026D000BEAD6D917D918D919C91139714962D9126
:1026E0003D914D915C9117971896ED90FD900D914D
:1026F0001C911B972896ACACBDACCEACDFAC289738
:10270000ADB7BEB71196AD92BD92CD92DC92149743
:102710002996EFAD29971596EC930F2EF0E0AF2E8A
:10272000F0E0BF2EF0E0CF2EF0E0DF2EF02D0E9483
:1027300003100F900F900F900F900F90C25BDF4F20
:102740000FB6F894DEBF0FBECDBFCF91DF911F91C2
:102750000F91FF90EF90DF90CF90BF90AF909F9040
:102760008F907F906F905F904F903F902F90089543
:1027700020EA3FE004C0F9013197F1F70197009793
:10278000D1F7089560EA7FE040E951E0A5E335E044
:102790001FC08A30910528F4232F2A95F1F701975D
:1027A00017C08436910528F42A2F2A95F1F70A9745
:1027B0000FC023E0883E920730F4FA013197F1F719
:1027C0008456904005C0FB013197F1F7885E934035
:1027D0000097F9F60895AF92BF92CF92DF92EF92F1
:1027E000FF920F931F93DF93CF930F920F92CDB76A
:1027F000DEB76C015B017A01FB0180818601080F65
:10280000111DC801BE016F5F7F4F0E94662FF70147
:10281000608371838283938389819A818017910772
:1028200019F420E030E005C08C19F501808321E027
:1028300030E0C9010F900F90CF91DF911F910F9160
:10284000FF90EF90DF90CF90BF90AF900895909160
:10285000150C8091160C981741F08091160C8F5F23
:10286000883209F480E08093160C08959091150C3D
:102870008091160C981719F420E030E008C0909170
:10288000160C8FE3989F90011124235C3D4FC901E2
:1028900008959091160C20E08091170C981709F478
:1028A00021E0822F0895AF92BF92CF92DF92EF92F4
:1028B000FF920F931F936093180C7093190C8093E1
:1028C0001A0C90931B0C20931C0C30931D0C4093FE
:1028D0001E0C50931F0CE092200CF092210C0093E0
:1028E000220C1093230CA092240CB092250CC092C1
:1028F000260CD092270C1F910F91FF90EF90DF9044
:10290000CF90BF90AF9008958F929F92AF92BF9259
:10291000CF92DF92EF92FF920F931F93CF93DF93AB
:10292000EC016B01009709F460C08EA1882309F0C7
:102930005CC0E98CFA8C0B8D1C8DFB01B18CA28CD8
:10294000938C848CC801B7012B2D3A2D492D582D1D
:102950000E94442B88230CF048C0C801B701A8018D
:1029600097010E94192E7B018C016091780E709165
:10297000790E80917A0E90917B0E905820E030E095
:1029800040E050EC0E94192E29A13AA14BA15CA174
:102990000E94192E9B01AC01C801B7010E946B2A4D
:1029A0000E94A62E7B018C016B2D7A2D892D982DEE
:1029B0009701A8010E94442B882324F4EB2CFA2CC5
:1029C000092D182D6B2D7A2D892D982D9701A80191
:1029D0000E94442B882349F0C701D801F601818F5A
:1029E000928FA38FB48F81E085A3DF91CF911F9148
:1029F0000F91FF90EF90DF90CF90BF90AF909F909E
:102A00008F9008952F923F924F925F926F927F9294
:102A10008F929F92AF92BF92CF92DF92EF92FF92EE
:102A20000F931F93DF93CF93CDB7DEB768970FB6A1
:102A3000F894DEBF0FBECDBF1C016A017B012801E7
:102A40003901DC01DB966D917D918D919C91DE9732
:102A50000E94E42B4B015C01A70196010E94192EF4
:102A60000E94312B0E94B82B7B018C01F10167A3DE
:102A700070A781A792A7C501B401A30192010E948A
:102A8000192E0E94312B0E94B82B69877A878B8779
:102A90009C87D1019B966D937D938D939C939E977C
:102AA0009F966D917D918D919C91D29722E330E01C
:102AB00040E050E00E940A2F0E94E62B20E030E028
:102AC00040E752E40E94192E0E94B32B2B013C01D7
:102AD000C801B7010E94E42B7B018C01C301B20144
:102AE0000E94E62B6D837E838F839887C501B40196
:102AF000A50194010E94192E5B016C01C801B70168
:102B0000A80197010E94192E6D877E878F87988B69
:102B10006D817E818F8198859B01AC010E946B2A1B
:102B2000698B7A8B8B8B9C8BC601B5012D853E857D
:102B30004F8558890E946A2A29893A894B895C897C
:102B40000E944B2B0E94312B0E94B32B69837A8306
:102B50008B839C8369857A858B859C850E94E42B79
:102B60009B01AC010E94192E6D8B7E8B8F8B988FF1
:102B7000A60195010E946A2A7B018C0170946094E1
:102B800050944094411C511C611C711CC301B20142
:102B90000E94E62B9B01AC010E946B2A9B01AC01B9
:102BA000C801B7010E944B2B0E94212CF101A18882
:102BB000B288C388D4888601750129813A814B8106
:102BC0005C81E21AF30A040B150B0E94B32BA801D7
:102BD0009701261B370B480B590BDA01C90157FF28
:102BE0004AC0C601B5010E94E62B9B01AC01698970
:102BF0007A898B899C890E94192E2D853E854F8567
:102C000058890E946A2A2D893E894F89588D0E94D1
:102C10006B2A7B018C016D817E818F81988520E0FC
:102C200030E040E850E40E94192E9B01AC01C8013D
:102C3000B7010E944B2B0E94312B0E94B32BAC0199
:102C4000CB01DA01BC01CD0197FF04C060E070E068
:102C500080E090E069837A838B839C83A616B70615
:102C6000C806D90624F4A982BA82CB82DC8280E02D
:102C700090E0A0E0B0E029813A814B815C81F101D4
:102C800023AB34AB45AB56AB820F931FA41FB51FCC
:102C900087AB90AFA1AFB2AF68960FB6F894DEBF26
:102CA0000FBECDBFCF91DF911F910F91FF90EF909D
:102CB000DF90CF90BF90AF909F908F907F906F905C
:102CC0005F904F903F902F9008952F923F924F9298
:102CD0005F927F928F929F92AF92BF92CF92DF923C
:102CE000EF92FF920F931F93CF93DF93D090150C29
:102CF0008091780E9091790EA0917A0EB0917B0E12
:102D00001C012D0157FA509457F8509400E010E040
:102D1000C0E0D0E0BB24B3943FE3C32E72C0DD20FB
:102D200011F428E2D22EDA94209709F463C0011539
:102D3000110509F45FC0AD8C9E8C8F8C78A0698DD5
:102D40007A8D8B8D9C8D2A2D392D482D572D0E94E3
:102D5000442B882309F44EC08EA1882309F041C07A
:102D6000F801E18CF28C038D148D6A2D792D882D5C
:102D7000972DA80197010E94472D181694F5C801B8
:102D8000B701A80197010E94192E7B018C01C20195
:102D9000B10120E030E040E050EC0E94192E29A162
:102DA0003AA14BA15CA10E94192E9B01AC01C80164
:102DB000B7010E946B2A0E94A62E162F072FF82E0D
:102DC000E92E6A2D792D882D972D212F302F4F2D0B
:102DD0005E2D0E94442B87FD04C0A12E902E8F2CC7
:102DE0007E2C8A2D992DA82DB72D898F9A8FAB8F88
:102DF000BC8FBDA2DC9CC00111248E01EC01C35C20
:102E0000DD4F8091160CD81609F089CFF090160C82
:102E100020E030E000E010E09FE3E92E11C0FE9CCE
:102E2000E0011124C35CDD4FC901B801AE010E946D
:102E30008414F394F8E2FF1609F4FF2498018E013C
:102E40008091150CF81659F7C901B80140E050E01F
:102E50000E9484147090160CC0E0D0E08FE3582ECE
:102E600035C0759C400111248DE392E0880E991EB7
:102E7000209731F18DA1882321F4F40185A18823C5
:102E8000F9F0ED88FE880F89188D698D7A8D8B8D0C
:102E90009C8DA80197010E944B2B5B016C01F401F2
:102EA000618D728D838D948DA80197010E944B2BAB
:102EB0008B019C01CE01B601A5010E9402151DA245
:102EC0007394F8E27F1609F47724E4018091150CDD
:102ED000781639F6ED88FE880F89188D698D7A8D00
:102EE0008B8D9C8DA80197010E944B2B5B016C017F
:102EF00060E070E080E090E0A80197010E944B2B19
:102F00008B019C01CE01B601A5010E9402151DA2F4
:102F1000DF91CF911F910F91FF90EF90DF90CF90B5
:102F2000BF90AF909F908F907F905F904F903F9019
:102F30002F900895AF92BF92CF92DF92EF92FF92BF
:102F40000F931F93CF93DF935B016C019091160C4D
:102F50008FE3989FE0011124C35CDD4FC601B501EA
:102F60000E94E62B29A13AA14BA15CA10E94192E37
:102F70007B018C0169897A898B899C890E94E62B67
:102F80009B01AC01C801B7010E944B2B69A37AA336
:102F90008BA39CA3A98ABA8ACB8ADC8A80E090E0C2
:102FA000A0E0B0E0898F9A8FAB8FBC8F8D8F9E8F02
:102FB000AF8FB8A31EA281E08DA30E946516DF919A
:102FC000CF911F910F91FF90EF90DF90CF90BF9026
:102FD000AF90089580E1E8E1FCE0DF011D928A9561
:102FE000E9F708958091150C8093160C8091150CCB
:102FF0008F5F883209F480E08093170C84E2E8E167
:10300000FCE0DF011D928A95E9F708952F923F9227
:103010004F925F926F927F928F929F92AF92BF92E8
:10302000CF92DF92EF92FF920F931F93DF93CF9394
:10303000CDB7DEB7EE970FB6F894DEBF0FBECDBFAB
:1030400039014A013091150C2FE3329F20011124E0
:103050002DE332E0420E531E2091580E3091590E4E
:1030600040915A0E50915B0E0E94192E0E94E92D3C
:1030700069837A838B839C83C401B30120915C0EA6
:1030800030915D0E40915E0E50915F0E0E94192EA0
:103090000E94E92D6D837E838F839887C801B701D5
:1030A0002091600E3091610E4091620E5091630E3E
:1030B0000E94192E0E94E92D69877A878B879C8749
:1030C000C601B5012091640E3091650E4091660EE7
:1030D0005091670E0E94192E0E94E92D6D877E8700
:1030E0008F87988BD2011C9229813A814B815C8118
:1030F0008091180C9091190CA0911A0CB0911B0C96
:10310000281739074A075B071CF482E0F201808325
:103110002D813E814F81588580911C0C90911D0C12
:10312000A0911E0CB0911F0C281739074A075B07A6
:1031300024F4D2018C9188608C9329853A854B8543
:103140005C858091200C9091210CA091220CB09173
:10315000230C281739074A075B0724F4F201808102
:10316000806280832D853E854F8558898091240C0F
:103170009091250CA091260CB091270C28173907A7
:103180004A075B0724F4D2018C9180688C932981D3
:103190003A814B815C818091180C9091190CA0911F
:1031A0001A0CB0911B0C281B390B4A0B5B0B57FFF9
:1031B00007C050954095309521953F4F4F4F5F4F39
:1031C000F20121833283438354836D807E808F801C
:1031D000988480911C0C90911D0CA0911E0CB091B4
:1031E0001F0C681A790A8A0A9B0AD20115966D92F9
:1031F0007D928D929C92189797FE0BC088279927F5
:10320000DC0186199709A809B90985839683A783E4
:10321000B087A984BA84CB84DC848091200C9091FF
:10322000210CA091220CB091230CA81AB90ACA0A49
:10323000DB0AD2011996AD92BD92CD92DC921C9719
:10324000D7FE0CC088279927DC018A199B09AC0995
:10325000BD09F20181879287A387B4872091240C4E
:103260003091250C4091260C5091270C29A33AA3AC
:103270004BA35CA32D853E854F85588989A19AA1D2
:10328000ABA1BCA1281B390B4A0B5B0B57FF07C036
:1032900050954095309521953F4F4F4F5F4FD2014C
:1032A0001D962D933D934D935C9350971996ED90F9
:1032B000FD900D911C911C9715968D919D910D90EF
:1032C000BC91A02D8E159F05A007B10710F4D80161
:1032D000C701F201E180F280038114818E159F0500
:1032E000A007B10710F4D801C70182179307A407FC
:1032F000B50710F4DA01C901F201818B928BA38B1F
:10330000B48B0097A105B10509F4ACC269817A813B
:103310008B819C812091180C3091190C40911A0CD2
:1033200050911B0C621B730B840B950B0E94E62BB8
:103330002091580E3091590E40915A0E50915B0ECB
:103340000E944B2B69AB7AAB8BAB9CABC401B30136
:103350000E94E62B20915C0E30915D0E40915E0E36
:1033600050915F0E0E944B2B6DA77EA78FA798AB45
:10337000C601B5010E94E62B2091600E3091610ECE
:103380004091620E5091630E0E944B2B69A77AA761
:103390008BA79CA76D857E858F85988929A13AA1E9
:1033A0004BA15CA1621B730B840B950B0E94E62B57
:1033B0002091640E3091650E4091660E5091670E1B
:1033C0000E944B2B6DA37EA38FA398A769A97AA90E
:1033D0008BA99CA99B01AC010E94192E7B018C0139
:1033E0006DA57EA58FA598A99B01AC010E94192E01
:1033F0009B01AC01C801B7010E946B2A7B018C01C3
:1034000069A57AA58BA59CA59B01AC010E94192EEC
:103410009B01AC01C801B7010E946B2A7B018C01A2
:103420006DA17EA18FA198A59B01AC010E94192ED0
:103430009B01AC01C801B7010E946B2A0E94A62E15
:103440007B018C01D20191966D937D938D939C931A
:10345000949760E070E080E89FE3A80197010E94E4
:103460004B2B3B014C0169968FAD6997882359F42A
:1034700068966CAD7DAD8EAD9FAD6897A40193014C
:103480000E94192E0CC060E070E080E89FE368960F
:103490002CAD3DAD4EAD5FAD68970E944B2B5B01EF
:1034A0006C01C801B701A60195010E94192E6DABF0
:1034B0007EAB8FAB98AFF201658B768B878B908F4D
:1034C00061897289838994890E94E62B7B018C0132
:1034D000A60195010E94192E0E94312B0E94B82B43
:1034E000D201DB966D937D938D939C93DE97C801FB
:1034F000B701A40193010E94192E2091780E3091FA
:10350000790E40917A0E50917B0E0E94192E20E088
:1035100030E84BE355E40E944B2B0E94312B0E9474
:10352000B32BF20167A770AB81AB92AB69A97AA903
:103530008BA99CA9A40193010E94192E7B018C01E7
:10354000698B7A8B8B8B9C8B6DA57EA58FA598A99B
:10355000A40193010E94192E5B016C016D8B7E8B7F
:103560008F8B988F69A57AA58BA59CA5A401930143
:103570000E94192E69AF7AAF8BAF9CAF698F7A8F9B
:103580008B8F9C8F6DA17EA18FA198A5A401930123
:103590000E94192E3B014C016D8F7E8F8F8F98A357
:1035A0009091150C8091160C981709F4CFC0F091EA
:1035B000380CFDAF2091390C2EAF20903A0C309092
:1035C0003B0C6F2F722FC10120E030E040E050E053
:1035D0000E94472D18160CF0B9C06091280C70910C
:1035E000290C80912A0C90912B0C9058A8019701DE
:1035F0000E94192E7B018C0160912C0C70912D0C76
:1036000080912E0C90912F0CA60195010E94192EED
:103610009B01AC01C801B7010E946A2A7B018C01A1
:103620006091300C7091310C8091320C9091330C80
:1036300029AD3AAD4BAD5CAD0E94192E9B01AC019A
:10364000C801B7010E946A2A7B018C01C401B30141
:103650002091340C3091350C4091360C5091370C40
:103660000E94192E9B01AC01C801B7010E946A2A71
:103670007B018C0123E333E343E75FE30E94442BA8
:1036800088230CF063C06DAD7EADC1012DA93EA9AC
:103690004FA958AD0E94442B87FD07C08DA99EA954
:1036A000AFA9B8AD8DAF9EAF1D01C801B70123E32F
:1036B00033E343E75FEB0E94472D18160CF04BC035
:1036C00060E070E080E89FE3A80197010E946A2A09
:1036D00020E030E040E05FE30E94192E0E94A62E19
:1036E0005B016C016091780E7091790E80917A0E79
:1036F00090917B0E20917C0E30917D0E40917E0E3C
:1037000050917F0E0E94192EA60195010E94192E3C
:103710007B018C0160E070E080E89FE3A6019501E9
:103720000E946A2A9B01AC01C801B7010E944B2B81
:103730000E94A62E7B018C016DAD7EADC10197016B
:10374000A8010E94442B87FD06C008C0EE24FF2478
:1037500000E010E003C0EDACFEAC8101C701D80170
:10376000F201858F968FA78FB0A36091780E70912C
:10377000790E80917A0E90917B0E905820E030E087
:1037800040E050EC0E94192ED20191962D913D916E
:103790004D915C9194970E94192E20E030E040E01A
:1037A00050E00E946B2A0E94A62ED62EC72EB82E5D
:1037B000A92EB701C8012D2D3C2D4B2D5A2D0E944D
:1037C000442B87FD04C0ED2CFC2C0B2D1A2DC701BA
:1037D000D801F201818F928FA38FB48F658976898A
:1037E0008789908D2D2D3C2D4B2D5A2D0E94442BD9
:1037F00018162CF081E0D20196968C9302C0F2014B
:1038000016A281E0D20195968C93A8E2BCE0FE015D
:10381000719680E101900D928150E1F7F201858966
:103820009689A789B08D8093380C9093390CA0931A
:103830003A0CB0933B0C8091170C8093150C80913F
:10384000150C8F5F883209F480E08093170CA8E193
:10385000BCE0FE01319680E101900D928150E1F7CC
:103860000E946516EE960FB6F894DEBF0FBECDBF70
:10387000CF91DF911F910F91FF90EF90DF90CF904C
:10388000BF90AF909F908F907F906F905F904F9080
:103890003F902F9008951F931FE306C00E94391F89
:1038A0008091A20C882391F49091150C8091160CB4
:1038B000981741F08091160C819FC0011124835C00
:1038C0009D4F61F78091D60C882341F71F91089591
:1038D000AF92BF92CF92DF92EF92FF920F93DF935E
:1038E000CF93CDB7DEB7A2970FB6F894DEBF0FBE69
:1038F000CDBF6B017C01611571058105910521F436
:1039000080E30E94F21F32C000E05E010894A11C17
:10391000B11CC501800F911D9AA389A3C701B601EF
:103920002AE030E040E050E00E94292FE9A1FAA10E
:1039300060830F5FC701B6012AE030E040E050E04D
:103940000E94292FC901DA016C017D01C114D10443
:10395000E104F104F1F608C0FE01E00FF11D8081E1
:10396000805D0E94F21F01500023B1F7A2960FB6AE
:10397000F894DEBF0FBECDBFCF91DF910F91FF90C6
:10398000EF90DF90CF90BF90AF900895AF92BF922D
:10399000CF92DF92EF92FF920F931F93CF93DF931B
:1039A0007B018C0120E030E040E050E00E94442B9D
:1039B00088233CF48DE20E94F21F17FB109517F943
:1039C0001095C801B7012AE037ED43EA5BE30E9496
:1039D0006B2A7B018C010E94B32B5B016C01CC2410
:1039E000B7FCC094DC2CC601B5010E94681C8EE2B5
:1039F0000E94F21FC601B5010E94E62B9B01AC019B
:103A0000C801B7010E946A2AC2E0D0E01EC020E0CF
:103A100030E040E251E40E94192E5B016C010E94EB
:103A2000B32B7B018C01862F805D0E94F21F6E2DCF
:103A300070E0882777FD8095982F0E94E62B9B01E8
:103A4000AC01C601B5010E946A2A21972FEFCF3F32
:103A5000D207E9F6DF91CF911F910F91FF90EF9080
:103A6000DF90CF90BF90AF900895EF92FF920F93A9
:103A70001F937B018C0197FF0BC08DE20E94F21F08
:103A800010950095F094E094E11CF11C011D111DAE
:103A9000C801B7010E94681C1F910F91FF90EF9021
:103AA00008950F931F93DF93CF93CDB7DEB7289779
:103AB0000FB6F894DEBF0FBECDBF982FFE01319632
:103AC0009E01275F3F4F892F817081939695E21762
:103AD000F307C9F78E01085F1F4FF8018081805DF1
:103AE0000E94F21F015010400C171D07B1F72896D5
:103AF0000FB6F894DEBF0FBECDBFCF91DF911F91FF
:103B00000F910895CF93DF93EC0102C00E94F21F42
:103B1000FE01219684918823C9F7DF91CF91089502
:103B2000CF93DF93EC0103C021960E94F21F88819E
:103B30008823D1F7DF91CF910895CF93DF93EC01E4
:103B4000009719F481EC91E036C089EB91E00E9476
:103B5000821DC330D105D1F0C430D1053CF4C13051
:103B6000D10571F0C230D105E9F40DC0C530D105E1
:103B700099F0C530D1056CF0C630D10599F40FC06D
:103B800085EA91E018C08BE891E015C083E791E0E9
:103B900012C08CE591E00FC084E491E00CC082E398
:103BA00091E009C0BE01882777FD8095982F0E947B
:103BB000351D8FE291E00E94821DDF91CF91089523
:103BC00083EF91E00E94821D87EE91E00E94821DAA
:103BD00086EC91E00E94821D80E090E00E949D1D95
:103BE00010926E0C10926F0C0895FC01808184324B
:103BF00021F4CF010E943B240895CF010E94770455
:103C00000895DF93CF93CDB7DEB760970FB6F894E2
:103C1000DEBF0FBECDBFDE011196E5EAFCE080E11C
:103C200001900D928150E1F780E092E00E94901D9A
:103C300069817A818B819C810E94E62B2091580EAC
:103C40003091590E40915A0E50915B0E0E944B2BB1
:103C50000E94C61C87E092E00E94901D6D817E81CB
:103C60008F8198850E94E62B20915C0E30915D0E2D
:103C700040915E0E50915F0E0E944B2B0E94C61C1D
:103C800087E092E00E94901D69857A858B859C85EE
:103C90000E94E62B2091600E3091610E4091620EE1
:103CA0005091630E0E944B2B0E94C61C87E092E04D
:103CB0000E94901D6D857E858F8598890E94E62BD8
:103CC0002091640E3091650E4091660E5091670E02
:103CD0000E944B2B0E94C61C89E092E00E94901D1E
:103CE00069817A818B819C810E94E62B2091580EFC
:103CF0003091590E40915A0E50915B0E0E944B2B01
:103D0000E091B50CF0E054E0EE0FFF1F5A95E1F79B
:103D1000EE55F34F24893589468957890E946A2ACE
:103D20002091C60C3091C70C4091C80C5091C90C21
:103D30000E946A2A0E94C61C87E092E00E94901DA1
:103D40006D817E818F8198850E94E62B20915C0E8B
:103D500030915D0E40915E0E50915F0E0E944B2B94
:103D6000E091B50CF0E044E0EE0FFF1F4A95E1F75B
:103D7000EE55F34F208D318D428D538D0E946A2A6E
:103D80002091CA0C3091CB0C4091CC0C5091CD0CB1
:103D90000E946A2A0E94C61C87E092E00E94901D41
:103DA00069857A858B859C850E94E62B2091600E23
:103DB0003091610E4091620E5091630E0E944B2B28
:103DC000E091B50CF0E034E0EE0FFF1F3A95E1F71B
:103DD000E655F34F24893589468957890E946A2A16
:103DE0002091CE0C3091CF0C4091D00C5091D10C41
:103DF0000E946A2A0E94C61C87E092E00E94901DE1
:103E00006D857E858F8598890E94E62B2091640EB2
:103E10003091650E4091660E5091670E0E944B2BBB
:103E2000E091B50CF0E024E0EE0FFF1F2A95E1F7DA
:103E3000EE53F34F20813181428153810E946A2ADF
:103E40002091D20C3091D30C4091D40C5091D50CD0
:103E50000E946A2A0E94C61C82E192E00E94901D84
:103E600060960FB6F894DEBF0FBECDBFCF91DF9145
:103E700008951F938091D70C882381F18091D70CEE
:103E8000182F84FF04C081E08093A20C27C080FF1C
:103E900007C00E94011E8091D70C8E7F8093D70CA3
:103EA00013FF07C00E9425268091D70C877F80933F
:103EB000D70C12FF07C00E9433268091D70C8B7F4E
:103EC0008093D70C11FF0AC00E94082681E08093DE
:103ED000A40C8091D70C8D7F8093D70C1F910895EF
:103EE0001F9311E046C02A3011F02D30E1F40E94FA
:103EF000391F8091A20C882309F041C0E0916E0C1B
:103F0000EE2351F0F0E0E45CF34F10828CE39CE090
:103F10000E94F51D90E002C080E090E00E949D1D8F
:103F200010926E0C06C080916F0C882329F0293204
:103F300001F510926F0C1DC02132D8F02F32C9F05C
:103F4000283219F410936F0C14C090916E0C9133B9
:103F500080F4822F8156E92FF0E09F5F8A3120F4B0
:103F6000E45CF34F205202C0E45CF34F2083909353
:103F70006E0C0E943E20282F8F3F09F0B4CF1F9176
:103F80000895EF92FF920F931F937B018C0122E023
:103F900030E040E050E00E944B2F205C3D4B404F12
:103FA0005F4FCA01B901A80197010E94292F215032
:103FB00030403093C5002093C400E0ECF0E08081F5
:103FC0008D7F8083E1ECF0E080818061808380815F
:103FD000886080838081806880831F910F91FF902B
:103FE000EF900895282FE091720C9E2F9F5F9038DC
:103FF00031F490E004C08091D70C84FD0FC0809113
:10400000730C9817C1F3F0E0E852F24F20839093BD
:10401000720C8091C10080628093C10008951F924C
:104020000F920FB60F920BB60F9211248F939F939E
:10403000EF93FF938091730CE82FF0E0E852F24F7A
:1040400090819093C600982F9F5F903809F490E07C
:104050009093730C8091720C981729F48091C10091
:104060008F7D8093C100FF91EF919F918F910F9071
:104070000BBE0F900FBE0F901F9018959091710C72
:104080008091700C891711F48FEF0895E92FF0E0FB
:10409000E852F34F80819F5F9093710C0895809157
:1040A000700C8093710C08951F920F920FB60F92AF
:1040B0000BB60F9211242F933F934F935F936F93FF
:1040C0007F938F939F93AF93BF93EF93FF939091C1
:1040D000C6009132A1F0923218F4983101F513C064
:1040E0009F3319F09E37D9F404C08091D70C8160BA
:1040F00003C08091D70C82608093D70C1EC0809142
:10410000D70C8860F9CF8091D70C84FD04C00E9441
:1041100051250E94AA248091D70C8061EDCFE091B7
:10412000700C2E2F2F5F8091710C281731F0F0E06A
:10413000E852F34F90832093700CFF91EF91BF9161
:10414000AF919F918F917F916F915F914F913F912F
:104150002F910F900BBE0F900FBE0F901F901895D0
:1041600080E090E0A0EAB2E48093580E9093590E5C
:10417000A0935A0EB0935B0E80935C0E90935D0EED
:10418000A0935E0EB0935F0E8093600E9093610ECD
:10419000A093620EB093630E80E090E0A8E4B3E4D5
:1041A0008093640E9093650EA093660EB093670E95
:1041B0008EE18093690E80E090E8ABE3B4E48093F5
:1041C0006A0E90936B0EA0936C0EB0936D0E80E010
:1041D00090E8ABEBB4E480936E0E90936F0EA093D7
:1041E000700EB093710E80E096EDA3E8B8E4809372
:1041F000780E9093790EA0937A0EB0937B0E8DEC8F
:104200009CECACECBDE38093740E9093750EA09380
:10421000760EB093770E85E58093720E1092730E32
:104220008DEC9CECACE4BDE380937C0E90937D0E12
:10423000A0937E0EB0937F0E1092800E8CE291E0E0
:10424000A0E0B0E08093810E9093820EA093830E45
:10425000B093840E80E090E0AAE7B4E48093850EEA
:104260009093860EA093870EB093880E089580E0F9
:1042700090E065E00E940D0381E090E068E57EE05B
:1042800041E350E00E942F030895EF92FF920F93B5
:104290001F93CF93DF93EC017A018B018830910556
:1042A00009F47CC0893091059CF48430910509F4AF
:1042B00044C0853091051CF497FF27C0DFC08630CD
:1042C000910509F459C0873091050CF05EC04BC0D0
:1042D0008C30910509F497C08D3091054CF48A30EB
:1042E000910509F46DC08B3091050CF080C05FC062
:1042F0008E30910509F49BC08E3091050CF48AC074
:10430000C85ED34009F0BAC09BC0CB01BA0120E01F
:1043100030E040E050E00E94442B18161CF089E881
:1043200092E0B3C0CC0FDD1FCC0FDD1FC85AD14FB8
:10433000E882F9820A831B83A4C0CB01BA0120E082
:1043400030E040E450E40E94442B88231CF482E6D1
:1043500092E09BC0C801B7010E947C2E0E94B82B3E
:104360006093690E8EC040936A0E50936B0E6093FB
:104370006C0E70936D0E85C040936E0E50936F0E51
:104380006093700E7093710E7CC04093740E5093C6
:10439000750E6093760E7093770E73C0CB01BA01E1
:1043A0000E94E72E0E94B82B6093720E6AC0CB0168
:1043B000BA010E94E72E0E94B82B6093730E61C071
:1043C000CB01BA0120E030E040E752E40E94192E10
:1043D00020E030E040E752E40E94192E6093780E0E
:1043E0007093790E80937A0E90937B0E4AC0DB0116
:1043F000CA01BF7780937C0E90937D0EA0937E0EB2
:10440000B0937F0E3EC0CB01BA010E94B82B6093DF
:10441000800E37C0CB01BA010E94B82B6093810E89
:104420007093820E8093830E9093840E2AC04093E3
:10443000850E5093860E6093870E7093880E21C070
:10444000CB01BA0120E030E040E050E00E94442B74
:10445000882319F00E943B2502C00E943D25C80117
:10446000B70120E030E040E050E00E94442B882378
:1044700071F40E94EC020E94AA2409C08EE492E02A
:1044800004C00E94372189E392E00E94821DDF91DF
:10449000CF911F910F91FF90EF9008951F9380E0AF
:1044A00090E00E940503182F853081F488E59EE096
:1044B00061E070E041E350E00E94790320E0892B45
:1044C00009F421E081E0282730E086C0813021F521
:1044D00088E59EE061E070E04FE150E00E947903E2
:1044E000892B09F477C080E096EDA3E8B8E48093C7
:1044F000780E9093790EA0937A0EB0937B0E8DEC8C
:104500009CECACE4BDE380937C0E90937D0EA09375
:104510007E0EB0937F0E59C08250823080F588E5C0
:104520009EE061E070E041E350E00E947903892B56
:1045300009F450C0123061F48DEC9CECACE4BDE3A6
:1045400080937C0E90937D0EA0937E0EB0937F0E91
:104550006091780E7091790E80917A0E90917B0E19
:1045600020E030E041E655E40E94192E6093780E79
:104570007093790E80937A0E90937B0E26C0143040
:1045800049F588E59EE061E070E041E350E00E947B
:104590007903892BF9F01092800E8CE291E0A0E073
:1045A000B0E08093810E9093820EA093830EB0931F
:1045B000840E80E090E0AAE7B4E48093850E9093A7
:1045C000860EA093870EB093880E0E94372121E0BB
:1045D00030E002C020E030E0C9011F9108958CE373
:1045E00095E00E94821D87E395E00E94821D84E38E
:1045F00095E00E94821D8EE295E00E94821D6091EE
:10460000580E7091590E80915A0E90915B0E0E9437
:10461000C61C8EE195E00E94821D88E195E00E9413
:10462000821D60915C0E70915D0E80915E0E909186
:104630005F0E0E94C61C88E095E00E94821D82E009
:1046400095E00E94821D6091600E7091610E8091D4
:10465000620E9091630E0E94C61C82EF94E00E944D
:10466000821D8CEE94E00E94821D6091640E709118
:10467000650E8091660E9091670E0E94C61C8AEDB1
:1046800094E00E94821D84ED94E00E94821D60915E
:10469000690E70E080E090E00E94351D87EB94E0A9
:1046A0000E94821D81EB94E00E94821D60916A0E3F
:1046B00070916B0E80916C0E90916D0E0E94C61CD5
:1046C00083E994E00E94821D8DE894E00E94821D9F
:1046D00060916E0E70916F0E8091700E9091710EC0
:1046E0000E94C61C8FE694E00E94821D89E694E039
:1046F0000E94821D6091740E7091750E8091760EED
:104700009091770E0E94C61C85E594E00E94821D60
:104710008FE494E00E94821D6091720E70E080E050
:1047200090E00E94351D8CE294E00E94821D8091F1
:10473000720E0E94511D88E294E00E94821D82E266
:1047400094E00E94821D6091730E70E080E090E022
:104750000E94351D89EF93E00E94821D8091730EA7
:104760000E94511D85EF93E00E94821D8EEE93E022
:104770000E94821D6091780E7091790E80917A0E60
:1047800090917B0E20E030E041E655E40E944B2BF7
:104790000E94C61C80ED93E00E94821D89EC93E08C
:1047A0000E94821D60917C0E70917D0E80917E0E24
:1047B00090917F0E0E94C61C81EA93E00E94821DA8
:1047C0008AE993E00E94821D6091800E70E080E093
:1047D00090E00E94351D8BE693E00E94821D84E6E6
:1047E00093E00E94821D6091810E7091820E8091F3
:1047F000830E9091840E0E94E42B0E94C61C82E4DA
:1048000093E00E94821D8BE393E00E94821D6091E1
:10481000850E7091860E8091870E9091880E0E9471
:10482000C61C89E193E00E94821D80E193E00E9412
:10483000821D0E943F25AA2797FDA095BA2FBC0193
:10484000CD010E94351D87EE92E00E94821D82EA12
:1048500092E00E94821D08950E944E22892B51F4FD
:104860008EEF91E00E94821D0E94B0200E943721AD
:104870000E94EF220895EF92FF920F931F93DF9310
:10488000CF93CDB7DEB729970FB6F894DEBF0FBE32
:10489000CDBF8C0181E08983F80180818432E1F50C
:1048A0008181882319F40E94EF2234C0C8017E015F
:1048B0000894E11CF11CB701AE014E5F5F4F0E94EE
:1048C000EB13892B59F19981F801E90FF11D8081D2
:1048D0008D3311F59F5F9983C801B701AE014A5F1F
:1048E0005F4F0E94EB13892BC9F08981080F111DBE
:1048F000F8018081882381F46A817B818C819D818C
:104900000E94B32BDC01CB014E815F8168857985E4
:104910000E94452180E003C083E001C081E0299628
:104920000FB6F894DEBF0FBECDBFCF91DF911F91C0
:104930000F91FF90EF9008951092740CE1E0F1E078
:10494000808188608083399AE2E0F1E08081877F0E
:1049500080830895E2E0F1E08081877F808308957D
:10496000DF92EF92FF920F931F93CF93DF93D82E96
:10497000EB01282F332727FD30958091740C90E0B0
:1049800028173907A1F00E944B1CDD2049F01D14A7
:1049900014F4419801C0419A80910201886003C0DB
:1049A00080910201877F80930201D092740C8091E4
:1049B000800E813009F057C0E090850EF090860E91
:1049C0000091870E1091880EBE0180E090E00E9459
:1049D000E42BA80197010E94472D18162CF4C8015A
:1049E000B7010E94B82BEB01DD2049F41092A90019
:1049F0001092A8001092A0001092A10034C020973D
:104A000071F01092A0001092A1008BE88093A0009A
:104A100082E08093A100BE0180E090E012C010927D
:104A2000A0001092A1008BE88093A00082E0809308
:104A3000A1006091810E7091820E8091830E909101
:104A4000840E0E94E42BA80197010E944B2B20E0CA
:104A500030EC4FE754E40E94192E0E94B82B70935B
:104A6000A9006093A800DF91CF911F910F91FF9053
:104A7000EF90DF90089547980895479A08953F99D9
:104A800003C021E030E00BC088B1282F332727FD79
:104A90003095209530952227330F221F3327C901E7
:104AA000089580916F008D7F80936F008AEF90E072
:104AB00020E931E0F9013197F1F70197D9F708952D
:104AC0001F920F920FB60F9211248F939F9392B162
:104AD0008091720E85759A7A892B82B91092B100F5
:104AE0009F918F910F900FBE0F901F90189581B1DD
:104AF0008FEF81B982B18091720E82B93F9A479A45
:104B0000E1E8F0E080818F7E80838081886080830F
:104B1000E0E8F0E080818D7F808380818E7F8083DC
:104B200080818F73808380818F7C80831092B0001E
:104B30001092B100E0E7F0E08081816080830E9404
:104B4000512508959B01AC01203283E0380780E0B5
:104B5000480780E0580720F420E233E040E050E0CE
:104B600060E070E788E399E30E94292FC901DA0128
:104B7000803020E0920721E0A20720E0B20730F465
:104B8000BC019C0140E050E091E02FC0803020E06B
:104B9000920728E0A20720E0B207A0F4F3E0B69560
:104BA000A79597958795FA95D1F7BC019C0140E0B0
:104BB00050E0E3E0220F331F441F551FEA95D1F761
:104BC00092E013C026E0B695A795979587952A950C
:104BD000D1F7BC019C0140E050E096E0220F331F6A
:104BE000441F551F9A95D1F793E080918100887FEB
:104BF000982B909381007093890060938800209394
:104C00008D0C30938E0C40938F0C5093900C089524
:104C10008091D60C8823C1F48091A30C8823A1F441
:104C200081E08093D60C8091720E8093A00C8091CD
:104C3000690E880F8450819580939F0C47988091CE
:104C40006F00826080936F0008958091A30C882389
:104C500049F48091D60C882329F01092A40C81E0AD
:104C60008093A30C0895E0919D0CF0919E0C3097D9
:104C7000A1F161897289838994892091890C30918D
:104C80008A0C40918B0C50918C0C621B730B840B23
:104C9000950B0E949A171092950C1092960C1092F8
:104CA000970C1092980C60E070E080E090E00E9419
:104CB000A22580E091E7A2E0B0E08093910C909370
:104CC000920CA093930CB093940C1092890C1092B8
:104CD0008A0C10928B0C10928C0C1092A30C0895DD
:104CE00088E2E5E7FCE0DF011D928A95E9F760E2E2
:104CF00073E080E090E00E94A22510929E0C10923A
:104D00009D0C1092A10C08951F920F920FB60F9256
:104D10000BB60F921124EF92FF920F931F932F93D4
:104D20003F934F935F936F937F938F939F93AF9333
:104D3000BF93CF93DF93EF93FF938091A10C8823D0
:104D400009F0AFC392B12091A00C822F8A7A957599
:104D5000892B82B982B18A7A822B82B980919F0C89
:104D60008093B20082E08093B10081E08093A10C37
:104D7000789480919D0C90919E0C892B09F089C0AC
:104D80000E943614EC0190939E0C80939D0C00972A
:104D900009F476C08091A30C8823D1F46FA178A583
:104DA00089A59AA56093950C7093960C8093970CA7
:104DB0009093980C0E94A22580E091E7A2E0B0E0D9
:104DC0008093910C9093920CA093930CB093940CBD
:104DD0002FA538A949A95AA9DA01C901B595A795FE
:104DE00097958795820F931FA41FB51F8093990CE9
:104DF00090939A0CA0939B0CB0939C0C29893A89B0
:104E00004B895C89DA01C901B595A7959795879576
:104E1000B095A095909581959F4FAF4FBF4F8093D0
:104E2000750C9093760CA093770CB093780C8093CC
:104E3000790C90937A0CA0937B0CB0937C0C8093AC
:104E40007D0C90937E0CA0937F0CB093800C80938C
:104E5000810C9093820CA093830CB093840C2093CC
:104E6000850C3093860C4093870C5093880C1092DD
:104E7000890C10928A0C10928B0C10928C0C09C029
:104E80000E9451251092D60C8091D70C846080939B
:104E9000D70CE0919D0CF0919E0C309709F4F8C26C
:104EA00020812093A00C4091750C5091760C60915C
:104EB000770C7091780C81819281A381B481480F25
:104EC000591F6A1F7B1F4093750C5093760C60939B
:104ED000770C7093780C1416150616061706C4F591
:104EE00021602093A00C8091850C9091860CA0915C
:104EF000870CB091880C481B590B6A0B7B0B4093B5
:104F0000750C5093760C6093770C7093780C21FF9E
:104F10000CC08091A50C9091A60CA091A70CB0910B
:104F2000A80C0197A109B1090BC08091A50C909123
:104F3000A60CA091A70CB091A80C0196A11DB11DC3
:104F40008093A50C9093A60CA093A70CB093A80CEB
:104F50004091790C50917A0C60917B0C70917C0C93
:104F600085819681A781B085480F591F6A1F7B1FD5
:104F70004093790C50937A0C60937B0C70937C0C6B
:104F80001416150616061706D4F52091A00C2460F9
:104F90002093A00C8091850C9091860CA091870C99
:104FA000B091880C481B590B6A0B7B0B4093790C12
:104FB00050937A0C60937B0C70937C0C23FF0CC095
:104FC0008091A90C9091AA0CA091AB0CB091AC0C63
:104FD0000197A109B1090BC08091A90C9091AA0C6D
:104FE000A091AB0CB091AC0C0196A11DB11D8093AA
:104FF000A90C9093AA0CA093AB0CB093AC0C40916D
:105000007D0C50917E0C60917F0C7091800C81859D
:105010009285A385B485480F591F6A1F7B1F409353
:105020007D0C50937E0C60937F0C7093800C141653
:10503000150616061706D4F52091A00C20612093C2
:10504000A00C8091850C9091860CA091870CB0915A
:10505000880C481B590B6A0B7B0B40937D0C5093BB
:105060007E0C60937F0C7093800C25FF0CC08091A8
:10507000AD0C9091AE0CA091AF0CB091B00C01971B
:10508000A109B1090BC08091AD0C9091AE0CA0911B
:10509000AF0CB091B00C0196A11DB11D8093AD0C69
:1050A0009093AE0CA093AF0CB093B00C4091810CD8
:1050B0005091820C6091830C7091840C858596854B
:1050C000A785B089480F591F6A1F7B1F4093810C29
:1050D0005093820C6093830C7093840C1416150605
:1050E00016061706D4F52091A00C20642093A00C7E
:1050F0008091850C9091860CA091870CB091880CC2
:10510000481B590B6A0B7B0B4093810C5093820C0C
:105110006093830C7093840C27FF0CC08091B10CBA
:105120009091B20CA091B30CB091B40C0197A1096D
:10513000B1090BC08091B10C9091B20CA091B30C4D
:10514000B091B40C0196A11DB11D8093B10C909348
:10515000B20CA093B30CB093B40C2091890C309195
:105160008A0C40918B0C50918C0C2F5F3F4F4F4F0E
:105170005F4F2093890C30938A0C40938B0C509393
:105180008C0C81899289A389B489281739074A0729
:105190005B0708F077C18091A30C882309F45DC0F8
:1051A00020918D0C30918E0C40918F0C5091900C71
:1051B0008091910C9091920CA091930CB091940CD1
:1051C000280F391F4A1F5B1F2093910C3093920CBC
:1051D0004093930C5093940C213002EE300704E07E
:1051E000400700E0500708F453C12050324E4440BD
:1051F00050402093910C3093920C4093930C509319
:10520000940C2091950C3091960C4091970C5091F4
:10521000980C67A570A981A992A9621773078407E2
:10522000950750F00E9451251092D60C8091D70C12
:1052300084608093D70C2CC179018A01E61AF70AA1
:10524000080B190BC801B701E092950CF092960C6F
:105250000093970C1093980C6CC083A994A9A5A9EE
:10526000B6A9281739074A075B0708F065C02091DF
:105270008D0C30918E0C40918F0C5091900C809140
:10528000910C9091920CA091930CB091940C280FDA
:10529000391F4A1F5B1F2093910C3093920C40934F
:1052A000930C5093940C213002EE300704E0400739
:1052B00000E0500708F4ECC02050324E444050400B
:1052C0002093910C3093920C4093930C5093940C38
:1052D00087A590A9A1A9B2A92091950C3091960C0F
:1052E0004091970C5091980C820F931FA41FB51FEB
:1052F0008093950C9093960CA093970CB093980C78
:1053000023AD34AD45AD56AD82179307A407B5075D
:1053100040F02093950C3093960C4093970C50934B
:10532000980C6091950C7091960C8091970C9091CF
:10533000980C0E94A225ACC087A990ADA1ADB2ADDA
:10534000281739074A075B0708F480C02817390770
:105350004A075B0769F480E091E7A2E0B0E0809340
:10536000910C9093920CA093930CB093940C90C0DA
:1053700020918D0C30918E0C40918F0C5091900C9F
:105380008091910C9091920CA091930CB091940CFF
:10539000280F391F4A1F5B1F2093910C3093920CEA
:1053A0004093930C5093940C213012EE310714E08B
:1053B000410710E0510708F46BC02050324E4440C2
:1053C00050402093910C3093920C4093930C509347
:1053D000940C2091950C3091960C4091970C509123
:1053E000980C8091990C90919A0CA0919B0CB09183
:1053F0009C0C82179307A407B50748F487A590A9CA
:10540000A1A9B2A9281B390B4A0B5B0B04C0569506
:105410004795379527952093950C3093960C40939C
:10542000970C5093980C23A534A545A556A58091BB
:10543000950C9091960CA091970CB091980C8217B6
:105440009307A407B50708F06CCF63CF23AD34AD45
:1054500045AD56AD8091950C9091960CA091970C0E
:10546000B091980C82179307A407B50789F0209391
:10547000950C3093960C4093970C5093980CCA015E
:10548000B90157CF10929E0C10929D0C0E942714C8
:105490008091A00C9091720E89278093A00C10929D
:1054A000A10CFF91EF91DF91CF91BF91AF919F91AF
:1054B0008F917F916F915F914F913F912F911F91AC
:1054C0000F91FF90EF900F900BBE0F900FBE0F90BB
:1054D0001F9018955058BB27AA270ED076C23FD2EE
:1054E00030F044D220F031F49F3F11F41EF40FC28B
:1054F0000EF4E095E7FBDCC1E92F89D280F3BA17FF
:10550000620773078407950718F071F49EF5B8C217
:105510000EF4E0950B2EBA2FA02D0B01B9019001CE
:105520000C01CA01A0011124FF27591B99F0593F12
:1055300050F4503E68F11A16F040A22F232F342F5A
:105540004427585FF3CF469537952795A795F040A8
:105550005395C9F77EF41F16BA0B620B730B840BBD
:10556000BAF09150A1F0FF0FBB1F661F771F881F75
:10557000C2F70EC0BA0F621F731F841F48F48795CD
:1055800077956795B795F7959E3F08F0B3CF9395BC
:10559000880F08F09927EE0F979587950895DFD12A
:1055A00058F080E891E009F49EEFE0D128F040E85F
:1055B00051E059F45EEF09C0AAC162C2E92FE07858
:1055C00026D268F3092E052AC1F3261737074807A4
:1055D000590738F00E2E07F8E02569F0E025E06461
:1055E0000AC0EF6307F8009407FADB01B9019D01D7
:1055F000DC01CA01AD01EF935DD0E7D10AD05F9124
:10560000552331F02BED3FE049E450FD49EC63CFE9
:105610000895DF93DD27B92FBF7740E85FE31616C3
:10562000170648075B0710F4D92F96D29F938F93E4
:105630007F936F93C9D3E4EEF0E06CD1C6D12F9184
:105640003F914F915F9101D3DD2349F09058A2EA39
:105650002AED3FE049EC5FE3D0785D274DDFDF9135
:10566000B4C1F7D180F09F3740F491110EF409C214
:1056700060E070E080E89FE3089526F01B16611D4E
:10568000711D811D1BC135C1EFD008F481E0089563
:1056900075D1E395ABC10CD098C168D140F05FD112
:1056A00030F021F45F3F19F003C15111EAC12FC15D
:1056B000AED198F39923C9F35523B1F3951B550B3C
:1056C000BB27AA2762177307840738F09F5F5F4FD5
:1056D000220F331F441FAA1FA9F333D00E2E3AF016
:1056E000E0E830D091505040E695001CCAF729D030
:1056F000FE2F27D0660F771F881FBB1F261737077F
:105700004807AB07B0E809F0BB0B802DBF01FF27AE
:1057100093585F4F2AF09E3F510568F0C9C0B1C150
:105720005F3FECF3983EDCF3869577956795B795E8
:10573000F7959F5FC9F7880F911D9695879597F903
:105740000895E1E0660F771F881FBB1F621773077C
:105750008407BA0720F0621B730B840BBA0BEE1F91
:1057600088F7E095089504D06894B1118AC108952E
:1057700056D188F09F5790F0B92F9927B751A0F0D4
:10578000D1F0660F771F881F991F1AF0BA95C9F7D5
:1057900012C0B13081F074D1B1E0089571C1672FAA
:1057A000782F8827B85F39F0B93FCCF38695779585
:1057B0006795B395D9F73EF490958095709561956E
:1057C0007F4F8F4F9F4F0895E89409C097FB3EF499
:1057D00090958095709561957F4F8F4F9F4F99233E
:1057E000A9F0F92F96E9BB279395F69587957795BC
:1057F0006795B795F111F8CFFAF4BB0F11F460FF7C
:105800001BC06F5F7F4F8F4F9F4F16C0882311F0D3
:1058100096E911C0772321F09EE8872F762F05C0E7
:10582000662371F096E8862F70E060E02AF09A9582
:10583000660F771F881FDAF7880F9695879597F977
:10584000089507D180F09F3740F491110EF019C1EF
:1058500060E070E080E89FEB089526F41B16611D60
:10586000711D811D2BC045C0990F0008550FAA0B53
:10587000E0E8FEEF16161706E807F907C0F0121663
:105880001306E407F50798F0621B730B840B950B66
:1058900039F40A2661F0232B242B252B21F40895BB
:1058A0000A2609F4A140A6958FEF811D811D089558
:1058B00097F99F6780E870E060E00895882371F4AD
:1058C000772321F09850872B762F07C0662311F499
:1058D00099270DC09051862B70E060E02AF09A95D0
:1058E000660F771F881FDAF7880F9695879597F9C7
:1058F00008959F3F31F0915020F4879577956795F3
:10590000B795880F911D9695879597F908959FEF04
:1059100080EC0895DF93CF931F930F93FF92EF9244
:10592000DF927B018C01689405C0DA2EEF018DD1E6
:10593000FE01E894A5912591359145915591AEF3DD
:10594000EF01DADDFE019701A801DA9479F7DF9023
:10595000EF90FF900F911F91CF91DF910895002458
:105960000A941616170618060906089500240A94C4
:1059700012161306140605060895C9CF50D0E8F391
:10598000E894E0E0BB279F57F0F02AED3FE049ECB8
:1059900006C0EE0FBB0F661F771F881F28F0B23AB4
:1059A00062077307840728F0B25A620B730B840BEB
:1059B000E3959A9572F7803830F49A95BB0F661F7D
:1059C000771F881FD2F7904896CF092E0394000CBA
:1059D00011F4882352F0BB0F40F4BF2B11F460FF89
:1059E00004C06F5F7F4F8F4F9F4F0895EF93E0FF8D
:1059F00006C0A2EA2AED3FE049EC5FEB7DDDE5DF82
:105A00000F90039401FC9058E1E1F1E0F2C157FDE1
:105A10009058440F551F59F05F3F71F04795880F1C
:105A200097FB991F61F09F3F79F0879508951216B3
:105A300013061406551FF2CF4695F1DF08C016165F
:105A400017061806991FF1CF869571056105089410
:105A50000895E5DFA0F0BEE7B91788F4BB279F38AB
:105A600060F41616B11D672F782F8827985FF7CF3F
:105A7000869577956795B11D93959639C8F30895E6
:105A8000E894BB2766277727CB0197F90895ECDECA
:105A900008F48FEF089563DF19F068DF09F037CF5E
:105AA00007CFB901CA0125CF9F775F77B0DF98F3A1
:105AB0009923B9F35523B9F3FF27951758F4E52F28
:105AC000E91BED3070F75E3B10F0F1E41CC0903440
:105AD000E0F40AC0E92FE51BED3028F79E3B10F0FB
