:100000000C9456040C9477040C9477040C947704A5
:100010000C9477040C9477040C9477040C94770474
:100020000C9477040C94EE0E0C9477040C942B3102
:100030000C9477040C9477040C9477040C94770454
:100040000C9477040C94E32E0C9477040C947704AE
:100050000C9477040C9477040C9477040C94DD27AB
:100060000C9477040C94D9230C9490230C9477046B
:100070000C9477040C9477040C9477040C94770414
:100080000C9477040C9477040C9477040C94770404
:100090000C9477040C9477040C9477040C947704F4
:1000A0000C9477040C9477040C9477040C947704E4
:1000B0000C9477040C9477040C9477040C947704D4
:1000C0000C9477040C9477040C9477040C947704C4
:1000D0000C9477040C9477040C9477040C947704B4
:1000E0000C94770476247624762481248A2493241D
:1000F0009C24B324CA24E124ED24F92405251A25DF
:1001000023252C25352541254A2553256525792587
:100110008B259D25B325C925DB25E425ED25F62571
:100120000126084AD73B3BCE016E84BCBFFDC12FE0
:100130003D6C74319ABD56833DDA3D00C77F11BED8
:10014000D9E4BB4C3E916BAAAABE000000803F05DB
:10015000A84CCDB2D44EB93836A9020C50B991860C
:1001600088083CA6AAAA2ABE000000803F3E0D0ACD
:10017000002C0057506F733A002C002C4D506F73B9
:100180003A003C436865636B003C416C61726D00F2
:100190003C486F6D65003C486F6C64003C52756E66
:1001A000003C5175657565003C49646C65005D0DEA
:1001B0000A005B302E39652E32303134303532351D
:1001C0003A000D0A003D00244E005D0D0A00204655
:1001D00000205400204D3800204D3900204D3500BE
:1001E000204D3400204D3300204D3200204D310091
:1001F000204D300020473934002047393300204754
:100200003931002047393000204732300020473252
:10021000310020473139002047313800204731373D
:10022000002047005B473830005B4733005B4732B4
:10023000005B4731005B4730005D0D0A002C005B1E
:100240004739323A005D0D0A002C003A0033300085
:100250003238005B47005D0D0A002C005B50726F66
:1002600062653A002028686F6D696E672070756C52
:100270006C2D6F66662C206D6D290D0A0020286894
:100280006F6D696E67206465626F756E63652C20A3
:100290006D736563290D0A2433303D002028686F93
:1002A0006D696E67207365656B2C206D6D2F6D69B0
:1002B0006E290D0A2432393D002028686F6D696E61
:1002C0006720666565642C206D6D2F6D696E290D44
:1002D0000A2432383D00290D0A2432373D002028F7
:1002E000686F6D696E672064697220696E766572E9
:1002F00074206D61736B3A002028686F6D696E67BA
:10030000206379636C652C20626F6F6C290D0A2461
:1003100032363D00202868617264206C696D697412
:10032000732C20626F6F6C290D0A2432353D00203A
:1003300028736F6674206C696D6974732C20626F0A
:100340006F6C290D0A2432343D002028696E7665D1
:100350007274206C696D69742070696E732C2062F0
:100360006F6F6C290D0A2432333D002028696E76A8
:10037000657274207374657020656E61626C652CA3
:1003800020626F6F6C290D0A2432323D00202861F3
:1003900075746F2073746172742C20626F6F6C2996
:1003A0000D0A2432313D0020287265706F7274206E
:1003B000696E636865732C20626F6F6C290D0A2467
:1003C00032303D0020286E2D646563696D616C7369
:1003D0002C20696E74290D0A2431393D00202861D2
:1003E000726320746F6C6572616E63652C206D6D35
:1003F000290D0A2431383D0020286A756E6374691E
:100400006F6E20646576696174696F6E2C206D6D06
:10041000290D0A2431373D00202873746570206946
:10042000646C652064656C61792C206D736563294B
:100430000D0A2431363D00290D0A2431353D0020B6
:100440002864697220706F727420696E76657274A8
:10045000206D61736B3A00290D0A2431343D002070
:10046000287374657020706F727420696E7665727F
:1004700074206D61736B3A0020287374657020706E
:10048000756C73652C2075736563290D0A243133EF
:100490003D0020287A206D61782074726176656C49
:1004A0002C206D6D290D0A2431323D002028792041
:1004B0006D61782074726176656C2C206D6D290DEC
:1004C0000A2431313D00202878206D617820747233
:1004D0006176656C2C206D6D290D0A2431303D004C
:1004E00020287A20616363656C2C206D6D2F736505
:1004F000635E32290D0A24393D002028792061638A
:1005000063656C2C206D6D2F7365635E32290D0A57
:1005100024383D0020287820616363656C2C206DB1
:100520006D2F7365635E32290D0A24373D00202844
:100530007A206D617820726174652C206D6D2F6D4D
:10054000696E290D0A24363D00202879206D6178D6
:1005500020726174652C206D6D2F6D696E290D0AF6
:1005600024353D00202878206D6178207261746503
:100570002C206D6D2F6D696E290D0A24343D0020ED
:10058000287A2C20737465702F6D6D290D0A243321
:100590003D002028792C20737465702F6D6D290D16
:1005A0000A24323D002028782C20737465702F6D4A
:1005B0006D290D0A24313D0024303D0024242028DB
:1005C00076696577204772626C2073657474696E12
:1005D0006773290D0A242320287669657720232054
:1005E000706172616D6574657273290D0A2447200C
:1005F0002876696577207061727365722073746103
:100600007465290D0A244E20287669657720737455
:10061000617274757020626C6F636B73290D0A24AC
:10062000783D76616C756520287361766520477228
:10063000626C2073657474696E67290D0A244E78A4
:100640003D6C696E652028736176652073746172F4
:1006500074757020626C6F636B290D0A2443202827
:10066000636865636B2067636F6465206D6F6465A5
:10067000290D0A245820286B696C6C20616C61720A
:100680006D206C6F636B290D0A2448202872756EEB
:1006900020686F6D696E67206379636C65290D0A48
:1006A0007E20286379636C65207374617274290DF0
:1006B0000A2120286665656420686F6C64290D0A2C
:1006C0003F202863757272656E742073746174754F
:1006D00073290D0A6374726C2D7820287265736516
:1006E00074204772626C290D0A000D0A4772626C11
:1006F00020302E3965205B27242720666F72206802
:10070000656C705D0D0A005D0D0A004469736162DD
:100710006C656400456E61626C656400436175746C
:10072000696F6E3A20556E6C6F636B6564002724A9
:1007300048277C2724582720746F20756E6C6F63C0
:100740006B00526573657420746F20636F6E7469FB
:100750006E7565005B000D0A0050726F6265206661
:1007600061696C0041626F727420647572696E67B2
:10077000206379636C6500486172642F736F6674DF
:10078000206C696D697400414C41524D3A20000D56
:100790000A00496E76616C69642067636F64652046
:1007A00049443A00556E646566696E656420666505
:1007B0006564207261746500556E737570706F7238
:1007C00074656420636F6D6D616E64004D6F64616C
:1007D0006C2067726F75702076696F6C6174696FD9
:1007E0006E004C696E65206F766572666C6F77007F
:1007F000486F6D696E67206E6F7420656E61626C04
:10080000656400416C61726D206C6F636B004E6FAC
:10081000742069646C6500454550524F4D207265E7
:100820006164206661696C2E205573696E6720646F
:10083000656661756C74730056616C7565203C204B
:100840003320757365630053657474696E67206443
:10085000697361626C65640056616C7565203C204B
:100860003000496E76616C69642073746174656DE3
:10087000656E7400426164206E756D6265722066FB
:100880006F726D6174004578706563746564206390
:100890006F6D6D616E64206C657474657200657255
:1008A000726F723A20006F6B0D0A000011241FBE98
:1008B000CFEFD1E2DEBFCDBF00E00CBF12E0A0E081
:1008C000B2E0E4EBFEE600E00BBF02C007900D9241
:1008D000A030B107D9F717E0A0E0B2E001C01D9247
:1008E000A33BB107E1F70E9427110C9458370C94F1
:1008F0000000E1E0F1E0808180628083E2E0F1E0ED
:1009000080818F7D80830895E2E0F1E080818F7D9A
:10091000808308951F93182F80918906823069F48F
:100920000E94551D123021F480910201806203C0A3
:10093000809102018F7D809302011F910895F999A2
:10094000FECF92BD81BD81E08FBB80B50895F89444
:10095000F999FECF92BD81BD81E08FBB40B546279E
:10096000842F992787FD9095262F30E082239323AB
:10097000892B39F06F3F19F060BD84E006C084E137
:1009800004C0442321F060BD84E28FBBF99A7894BF
:1009900008958F929F92AF92BF92CF92DF92EF9283
:1009A000FF920F93DF93CF930F920F92CDB7DEB7E5
:1009B0005C016B017A014A0100E01EC0002319F0BE
:1009C00021E030E008C0202F332727FD3095222773
:1009D000330F221F3327F60161916F01062F020F9B
:1009E0009C012F5F3F4F3A8329830E94A7040894FC
:1009F0008108910889819A8181149104F9F6C701CF
:100A00008A0D9B1D602F0E94A7040F900F90CF911D
:100A1000DF910F91FF90EF90DF90CF90BF90AF905C
:100A20009F908F900895CF93DF93EC01FB019A0183
:100A300090E0B1E019C0F999FECFF2BDE1BDBFBBB6
:100A4000A0B5992319F081E090E008C0892F99277B
:100A500087FD90958827990F881F992731969A2F9F
:100A6000980FA993215030402115310521F7460FE9
:100A7000571FF999FECF52BD41BD81E08FBB80B5B4
:100A800020E030E0981711F421E030E0C901DF9157
:100A9000CF91089560918C0670918D0680918E069D
:100AA00090918F060E947E342091660730916707EF
:100AB00040916807509169070E94E23360932D06C8
:100AC00070932E0680932F069093300660919006C7
:100AD0007091910680919206909193060E947E34C7
:100AE00020916A0730916B0740916C0750916D0718
:100AF0000E94E2336093310670933206809333068E
:100B000090933406609194067091950680919606B4
:100B1000909197060E947E3420916E0730916F0766
:100B200040917007509171070E94E233609335063F
:100B300070933606809337069093380608952F9267
:100B40003F924F925F926F927F928F929F92AF925D
:100B5000BF92CF92DF92EF92FF920F931F93DF939A
:100B6000CF93CDB7DEB7A8970FB6F894DEBF0FBE10
:100B7000CDBF1C01E1E5F6E087E3DF011D928A9518
:100B8000E9F73196ABE1B6E089E00D900192815032
:100B9000E1F7198219A2AA24BB2418A21F8E882467
:100BA0007724F1E04F2E512C99249394E2E06E2E9D
:100BB00047C2802F81548A3118F081E00C94420E94
:100BC0009F5F9983C101BE016F5F7F4FAE014E5F92
:100BD0005F4F0E94AC15882319F482E00C94420EFA
:100BE000CA80DB80EC80FD80C701B6010E94093716
:100BF0000E945034162F70E0882777FD8095982F3B
:100C00000E947E349B01AC01C701B6010E94F632FE
:100C100020E030E04AE754E40E942F360E94093772
:100C20000E945034262F073421F00D3409F029C1D9
:100C3000E1C01E31C1F11F31B8F4143168F4113133
:100C400008F0A6C01430B1F1143008F479C01A309D
:100C500011F00C94330E27C0163108F4BBC01C31C0
:100C600011F00C94330E1FC0103509F46EC011350D
:100C700070F41533F9F0163328F4163211F00C9491
:100C8000330E5EC01C3310F00C94330EACC01C3518
:100C900051F01D3520F41A3508F4E5C789C01F3519
:100CA00008F0E1C78EC0222329F4882009F0D9C7B3
:100CB000882483941C31A9F01D3128F4143051F09C
:100CC0001A3069F40AC0153349F11C3559F11E3147
:100CD00031F415C09092510602C06092510680E036
:100CE00086C0222321F0243609F0BDC704C0B3E03A
:100CF000B093510611C0E4E0E09351060DC02223E9
:100D000021F0243609F0AFC704C0F5E0F093510696
:100D100003C026E02093510680E0A4C087E08093C2
:100D20005106DDCF222321F0243609F09CC704C0F0
:100D300098E090935106F0CFA9E0A0935106ECCF34
:100D4000882009F08EC772E0872E123089F01330A8
:100D500028F4112351F0113069F40AC0163261F001
:100D6000103591F0133031F403C01092520602C0D6
:100D70001093520681E03BC0283C09F074C7B4E0F0
:100D8000B093520681E06EC0E5E0E0935206F2CFE8
:100D9000123139F0133149F0113129F4109256060D
:100DA00002C09092560682E022C060925606FBCFA7
:100DB0001A3519F41092550602C09092550683E038
:100DC00016C01D3519F49092530602C010925306B6
:100DD00084E00DC0143119F49092540602C01092B0
:100DE000540685E004C016531093570686E022236C
:100DF000C9F13BC7662309F038C7163018F4133021
:100E0000B0F408C0183008F42EC71A3000F11E31B3
:100E100009F029C7123041F01E3131F0112311F4CD
:100E20009092580687E01EC060925806FBCF14309F
:100E300039F0153041F0133041F490925A0605C054
:100E400060925A0602C010925A0688E00BC0183011
:100E500019F0193031F403C06092590602C01092A3
:100E6000590689E0920102C0220F331F8A95E2F7EA
:100E7000C9018A219B21892B09F0F9C6A22AB32A2C
:100E8000DFC0003509F471C00135ACF40A3409F44F
:100E900040C00B3434F4063429F1093409F0E3C6B8
:100EA0002BC00C3409F44FC00C340CF43FC00E348A
:100EB00009F0D9C64CC0043599F005353CF402352B
:100EC00009F45DC0033509F0CEC663C0093509F4E5
:100ED00076C00A3509F47FC0083509F0C4C663C07E
:100EE00029E084C0C0925B06D0925C06E0925D0669
:100EF000F0925E0620E07AC0C0925F06D092600653
:100F0000E0926106F0926206F9A1F160F9A321E096
:100F10006DC0C0926306D0926406E0926506F092BE
:100F2000660629A1226029A322E060C0C09267065C
:100F3000D0926806E0926906F0926A0689A1846000
:100F400089A323E053C010936B0624E04FC0812F88
:100F500090E0A0E0B0E080936C0690936D06A093C3
:100F60006E06B0936F0625E041C0C0927006D09225
:100F70007106E0927206F092730626E037C0C092C6
:100F80007406D0927506E0927606F092770627E016
:100F90002DC0C0927806D0927906E0927A06F0923F
:100FA0007B0628E023C0C0927C06D0927D06E092AA
:100FB0007E06F0927F0691E0792A2AE017C0C0925F
:100FC0008006D0928106E0928206F0928306A2E02B
:100FD0007A2A2BE00BC0C0928406D0928506E0925C
:100FE0008606F0928706B4E07B2A2CE08201022E6E
:100FF00002C0000F111F0A94E2F78F8D98A1802381
:101000009123892B11F089E13DC681E693E002C06E
:10101000959587952A95E2F780FF0CC0C701B60128
:1010200020E030E040E050E00E94DB33882314F4FD
:1010300084E028C6EF8DF8A1E02BF12BF8A3EF8F09
:101040009981F101E90FF11D0081002309F0B1CD73
:101050008E8E882051F0772071F480915106833074
:1010600049F0853039F08AE10DC6772021F0F2E0B1
:10107000FE8F01C01E8E2F8D25FF0FC080916C0644
:1010800090916D06A0916E06B0916F06805A9648B9
:10109000A140B04014F08BE1F5C58091530681303A
:1010A00039F4FE8DF230B1F52F8D20FD33C0E1C54E
:1010B00080911C06882371F58F8D80FF1BC0809165
:1010C0005406813039F560915B0670915C06809121
:1010D0005D0690915E0623E333E34BEC51E40E94FE
:1010E0002F3660935B0670935C0680935D06909349
:1010F0005E0610C08091280690912906A0912A06CC
:10110000B0912B0680935B0690935C06A0935D06DE
:10111000B0935E06AF8DB8A1B0FD10C080912406DB
:1011200090912506A0912606B09127068093780617
:1011300090937906A0937A06B0937B06809151062E
:10114000813041F4BF8DB6FF96C5EF8DF8A1EF7BDE
:10115000F8A3EF8F80915606882341F0813061F427
:10116000F2E0FCA31BA221E02AA30BC01CA281E099
:101170008BA392E09AA305C0A1E0ACA3B2E0BBA30D
:101180001AA280915406813059F56CE7E62E66E08C
:10119000F62E00E010E0C72CDD24C601002E02C0B0
:1011A000959587950A94E2F780FF11C0F701608159
:1011B00071818281938123E333E34BEC51E40E94FC
:1011C0002F36D7016D937D938D939C9313970F5F6B
:1011D0001F4FE4E0F0E0EE0EFF1E03301105E9F6CC
:1011E000DE011696E9E3F6E08CE001900D92815065
:1011F000E1F7A6FE12C090915706973008F03DC562
:1012000080912006891749F0892FBE016A5F7F4FC0
:101210000E94E226882309F432C58091510682306B
:1012200021F0883009F0C7C07AC08F8D98A18075F1
:101230009070892B09F41FC560917006709171063A
:1012400080917206909173060E9409370E94503473
:10125000673008F012C520916B06243131F022303E
:1012600009F001C5FF8DF7FDFEC4662319F0862F36
:10127000815002C0809120068E010E5E1F4FB80182
:101280000E94E226882309F4FAC45DE2A52E56E006
:10129000B52E4CE7C42E46E0D42E780100E010E0D5
:1012A000872C9924C401002E02C0959587950A9435
:1012B000E2F780FF21C080916B06843199F4D5015B
:1012C0006D917D918D919C91F601208131814281BA
:1012D00053810E94F632D7016D937D938D939C9339
:1012E00013970AC0F60180819181A281B381F70131
:1012F00080839183A283B3830F5F1F4F84E090E0CC
:10130000A80EB91EC80ED91EE80EF91E033011052D
:1013100049F6AF8DB8A1AF7AB8A3AF8FD0C03DE288
:10132000C32E36E0D32E26E0A22EB12CAC0EBD1E6D
:101330000CE716E0EE24FF24872C9924C4010E2C20
:1013400002C0959587950A94E2F780FF1AC0F601CE
:101350006081718182819381D5012D913D914D9163
:101360005C910E94F632F8012081318142815381E3
:101370000E94F632D8016D937D938D939C931397C1
:101380000AC0F601808D918DA28DB38DF801808306
:101390009183A283B3830894E11CF11C84E090E064
:1013A000C80ED91EA80EB91E0C5F1F4F93E0E91698
:1013B000F10421F684C0772009F468C09DE2E92E8B
:1013C00096E0F92E0CE716E086E0A82EB12CAC0EC4
:1013D000BD1ECC24DD24872C9924C4010C2C02C012
:1013E000959587950A94E2F780FD0BC0F7018081FF
:1013F0009181A281B381F80180839183A283B38319
:1014000035C080915106873089F180911E0688236E
:10141000D9F4D5016D917D918D919C91F701208D2D
:10142000318D428D538D0E94F7329B01AC01D80162
:101430006D917D918D919C910E94F732F8016083AE
:1014400071838283938312C0D8016D917D918D91B8
:101450009C91F70120813181428153810E94F732B2
:10146000D8016D937D938D939C9313970894C11C21
:10147000D11CE4E0F0E0EE0EFF1E0C5F1F4FAE0E3D
:10148000BF1EF3E0CF16D10409F0A7CF809151061B
:10149000853031F0873069F0833089F486E001C00F
:1014A00087E0BE016E5E7F4F0E94E226882339F4FA
:1014B000E6C380915206823010F08EE1E3C31091B2
:1014C0005206153049F4772009F43AC22E8D2130A6
:1014D00009F436C28FE1D6C38E8D823009F030C256
:1014E000112309F42DC260915B0670915C06809116
:1014F0005D0690915E0620E030E040E050E00E9402
:10150000DB33882309F4B5C3123008F419C2143050
:1015100020F0143009F014C2EEC1BCA1AB2FB0E032
:10152000B8A7AFA3FBA1EF2FF0E0FEA3EDA381E0EE
:1015300090E08C010DA002C0000F111F0A94E2F789
:101540000FA002C0880F991F0A94E2F7082B192BED
:10155000872D90E080239123892B11F480E292C3A0
:10156000EFA1F8A5EE0FFF1FEE0FFF1FDF01A55E35
:10157000B94FEF5AF94F63A574A585A596A5529664
:101580002D913D914D915C9155970E94F6323B0112
:101590004C01EDA1FEA1EE0FFF1FEE0FFF1FDF01BB
:1015A000A55EB94FEF5AF94F63A574A585A596A519
:1015B00052962D913D914D915C9155970E94F63236
:1015C0001B012C012F8D27FF04C10DE216E07CE7E3
:1015D000E72E76E0F72ED8016D917D918D919C914B
:1015E000F70120813181428153810E94DB338823BE
:1015F00059F40C5F1F4F84E090E0E80EF91E96E06E
:101600000933190741F73DC3809154068130B1F485
:1016100060917406709175068091760690917706B8
:1016200023E333E34BEC51E40E942F3660937406BE
:10163000709375068093760690937706E090740613
:10164000F09075060091760610917706C801B701F3
:1016500020E030E040E850E40E942F36A8019701D6
:101660000E942F367B018C01C401B301A4019301B8
:101670000E942F369B01AC01C801B7010E94F632CF
:101680007B018C01C201B101A20191010E942F36A0
:101690009B01AC01C801B7010E94F6327B018C01AD
:1016A00020E030E040E050E00E94DB33882314F477
:1016B00082E2E8C2C801B7010E94C4367B018C01F6
:1016C000C401B301A20191010E947D169B01AC01EE
:1016D00017FB109517F91095C801B7010E94E23366
:1016E0007B018C0180915206833021F417FB109509
:1016F00017F91095A0907406B0907506C090760604
:10170000D0907706C601B50120E030E040E050E01F
:101710000E94DB3388237CF417FB109517F9109592
:10172000D601C501B0588093740690937506A093B6
:101730007606B0937706AF8DB8A1AF77B8A3AF8F19
:10174000EFA1F8A5EE0FFF1FEE0FFF1FEB5AF94FA9
:10175000F8A7EFA3C201B101A80197010E942F369B
:101760009B01AC01C401B3010E94F63220E030E0DD
:1017700040E05FE30E942F36AFA1B8A51A966D93A3
:101780007D938D939C931D97EDA1FEA1EE0FFF1FFE
:10179000EE0FFF1FEB5AF94FFEA3EDA3C401B301F7
:1017A000A80197010E942F369B01AC01C201B10133
:1017B0000E94F73220E030E040E05FE30E942F36E5
:1017C000ADA1BEA11A966D937D938D939C931D97A9
:1017D000B7C0B9A1CB2EDD240C211D21012B11F4A2
:1017E00083E250C280915406813049F54FE5E42EE2
:1017F00046E0F42E00E010E0C601002E02C09595F0
:1018000087950A94E2F780FF11C0F701608171812A
:101810008281938123E333E34BEC51E40E942F3622
:10182000D7016D937D938D939C9313970F5F1F4FFB
:10183000E4E0F0E0EE0EFF1E03301105E9F6EFA044
:10184000F8A4EE0CFF1CEE0CFF1C85E596E0E80EFC
:10185000F91EC401B301D7011A962D913D914D9106
:101860005C911D970E94F6325B016C010DA11EA1D7
:10187000000F111F000F111F0B5A194FC201B101A8
:10188000F80122853385448555850E94F6329B01F7
:10189000AC01C601B5010E947D165B016C01D70148
:1018A0001A966D917D918D919C911D97F8012285DD
:1018B0003385448555850E947D169B01AC0160935C
:1018C0007406709375068093760690937706C6012A
:1018D000B5010E94F6329F772FE632E143E05BE3E9
:1018E0000E94F23518160CF4CCC18F8D98A1817F1F
:1018F00098A38F8F25C00DE216E09CE7E92E96E0B5
:10190000F92ED8016D917D918D919C91F7012081E7
:101910003181428153810E94DB33882359F40C5F6B
:101920001F4F84E090E0E80EF91E96E00933190796
:1019300041F7A7C10E94A21C882311F084E2A2C132
:101940008F8D98A18E7D9C7FAE8DAA2321F08F8DE7
:1019500098A18E7D907E892B11F085E293C18091B4
:10196000530680931C0680915B0690915C06A091C3
:101970005D06B0915E068093280690932906A09399
:101980002A06B0932B06E0907806F0907906009135
:101990007A0610917B06609124067091250680914D
:1019A000260690912706A80197010E94DB33882321
:1019B00081F0E0922406F09225060093260610930B
:1019C000270680912306882321F0B801A7010E94F1
:1019D000A32790915A0680912306891769F0909366
:1019E00023064091240650912506609126067091A9
:1019F0002706892F0E94A3279091590680912206DD
:101A0000891729F090932206892F0E948A048091D9
:101A10005106813051F46091700670917106809189
:101A20007206909173060E949A11809156068093D7
:101A30001F068091540680931D0690915706809151
:101A40002006891759F090932006A9E3B6E0FE011D
:101A500036968CE001900D928150E1F78091550609
:101A600080931E0680915106853009F43FC0863070
:101A700048F48330D9F1843008F058C0823009F03E
:101A80006EC00AC0883009F459C0893009F460C0BA
:101A9000863009F064C04CC0609170067091710688
:101AA00080917206909173060E9409370E9450340B
:101AB000662319F0162F115002C01091200682E102
:101AC000E82EF12CEC0EFD1E812FB7010E94D726C7
:101AD00080912006811709F042C0A9E3B6E0F70122
:101AE0008CE001900D928150E1F739C0BE8DBB238F
:101AF00049F08CE796E040E050E060E87FEB20E0C2
:101B00000E94F5118E010E5E1F4FC80140E050E0AB
:101B100060E87FEB20E00E94F511ADE2B6E0F8014D
:101B20008CE001900D928150E1F719C086E001C070
:101B300087E06DE276E00E94D72611C0A5E4B6E00A
:101B4000ECE7F6E08CE001900D928150E1F707C0E0
:101B50008CE0E5E4F6E0DF011D928A95E9F78091DB
:101B6000520680931B06853009F466C0BE8DB230E4
:101B700009F062C0843040F4823008F5882341F0D7
:101B8000813009F050C00CC0843009F04CC03DC019
:101B90008CE796E040E050E060E87FEB20E00CC08E
:101BA000409128065091290660912A0670912B06D3
:101BB0008CE796E020911C060E94F51134C00F922C
:101BC0000F9200917406109175062091760630915F
:101BD0007706C0902806D0902906E0902A06F0905B
:101BE0002B068BA1EDB7FEB781839AA192838DE27C
:101BF00096E06CE776E04FE556E0A0901C068CA0DE
:101C00000E94C4120F900F900EC040912806509170
:101C1000290660912A0670912B068CE796E02091A8
:101C20001C060E942D12ADE2B6E0ECE7F6E08CE077
:101C300001900D928150E1F7809158068093210622
:101C4000882301F10E94551D10929806809121066B
:101C5000823019F40E94671102C01092210680E0C0
:101C600011C088E10FC084E10DC087E10BC085E1A0
:101C700009C086E107C08CE105C08DE103C087E0A3
:101C800001C081E2A8960FB6F894DEBF0FBECDBFAB
:101C9000CF91DF911F910F91FF90EF90DF90CF9048
:101CA000BF90AF909F908F907F906F905F904F907C
:101CB0003F902F900895EBE1F6E086E3DF011D925F
:101CC0008A95E9F780912006BF01625E7F4F0E94EE
:101CD000E226882319F487E00E946420089584B1E5
:101CE0008F7884B98091A307982F86FF03C085B1B0
:101CF0008F7802C085B1806785B993FF09C0809154
:101D00006B00806780936B0080916800816008C0E1
:101D100080916B008F7880936B00809168008E7F3C
:101D2000809368000895EBE6F0E080818F788083EF
:101D3000E8E6F0E080818E7F80830895CF92DF9285
:101D4000EF92FF920F931F93CF93DF936C01C0E04C
:101D5000D0E0F601EC0FFD1FE080F18002811381DD
:101D6000C801B70120E030E040E050E00E94F235C9
:101D700018166CF0FE01EA59F84FC801B70124A10A
:101D800035A146A157A10E94DB338823D4F480916A
:101D90008906803161F480918A06886080938A0682
:101DA0000E94CD1C809188068823D1F30EC00E942A
:101DB000671180918A06806680938A060E94CD1CF6
:101DC00004C02496CC30D10521F6DF91CF911F912C
:101DD0000F91FF90EF90DF90CF9008951F920F9298
:101DE0000FB60F920BB60F9211242F933F934F9380
:101DF0005F936F937F938F939F93AF93BF93EF9373
:101E0000FF9380918906813059F080918A0685FD83
:101E100007C00E94671180918A06806680938A06B7
:101E2000FF91EF91BF91AF919F918F917F916F91B2
:101E30005F914F913F912F910F900BBE0F900FBE6E
:101E40000F901F9018952F923F924F925F926F9232
:101E50007F928F929F92AF92BF92CF92DF92EF923A
:101E6000FF920F931F93DF93CF93CDB7DEB76897A1
:101E70000FB6F894DEBF0FBECDBF982E80918806B6
:101E8000882309F0CBC18091A9079091AA07A0915E
:101E9000AB07B091AC078F87988BA98BBA8BE0907A
:101EA0008A07F0908B0700918C0710918D07D090D6
:101EB0008E07C0908F07B0909007A0909107C8013F
:101EC000B7012D2D3C2D4B2D5A2D0E94F2351816A1
:101ED00034F48D2D9C2DAB2DBA2D7C018D01D0902D
:101EE0009207C0909307B0909407A0909507C801FF
:101EF000B7012D2D3C2D4B2D5A2D0E94F235181671
:101F000034F48D2D9C2DAB2DBA2D7C018D01C80193
:101F1000B70120E030E040EC5FEB0E942F366B0110
:101F20007C010E94561B01E095E09D871E010894EC
:101F3000211C311C492C552446015701B7FAB09495
:101F4000B7F8B094D201A170B070BC8BAB8BF2012A
:101F5000E270F070FE8BED8BC20184709070988FF0
:101F60008F8B8091A30786FD02C00E8703C091E08E
:101F700090279E873101F10160E020E030E0C2014E
:101F8000022E02C0959587950A94E2F780FF0DC056
:101F90006F5F002329F480829182A282B3820DC0F8
:101FA000C082D182E282F38208C080E090E0A0E0AB
:101FB000B0E080839183A283B3832F5F3F4F349639
:101FC00023303105E1F63091A407232F35FF09C0F6
:101FD00089819A81AB81BC81B05889839A83AB8314
:101FE000BC8326FF09C08D819E81AF81B885B05822
:101FF0008D839E83AF83B88737FF09C089859A8513
:10200000AB85BC85B05889879A87AB87BC87AB897D
:10201000BC89AB2B11F410E001C014E0ED89FE89FE
:10202000EF2B09F018608F89988D892B09F01061CA
:1020300010938B0670E080E090E00E947C340E9458
:10204000C4369B01AC016F85788989899A890E9481
:102050002F36AB01BC01C10120E00E9450180E9444
:1020600043280E94BD2783B19E85992311F0A0E7E4
:102070008A2712FF02C084FD1B7F13FF02C085FD6B
:10208000177F14FF02C086FD1F7E10938B060E94EF
:10209000432880918A0684FF03C00E94CD1CBEC0E5
:1020A000812F8C7101F70E94C12E0E94561B8091D6
:1020B000AD079091AE070E9464168091A50790919C
:1020C000A607A091A707B091A8078F87988BA98B27
:1020D000BA8B9D85992329F0A1E00A2791509D870D
:1020E00040CF9CE8C92E96E0D92E86E6882E87E060
:1020F000982EAA24BB24C2010A2C02C0959587956C
:102100000A94E2F780FF49C01091A4078A2D0E942B
:102110006E16182369F1F401E4A0F5A006A117A139
:102120006091AF077091B0078091B1079091B207AD
:10213000A80197010E94F732D3016D937D938D938F
:102140009C931397C801B701F4012081318142812A
:1021500053810E942F360E94FF35D6016C93119651
:102160007C93119712968C93129713969C9328C088
:102170008091AF079091B007A091B107B091B207DD
:10218000B058F30180839183A283B383D6011D925B
:102190001D921D921C92139713C0F60160817181EC
:1021A000828193810E947E34D4012D913D914D9185
:1021B0005C910E94E233F301608371838283938395
:1021C0000894A11CB11C84E090E0680E791EC80E32
:1021D000D91E880E991E93E0A916B10409F08BCF81
:1021E0000E94D5164091A9075091AA076091AB07AC
:1021F0007091AC07CE01019620E00E94501888E053
:102200008093890680918A06826080938A060E9464
:10221000CD1C0E94551D84E08093890668960FB6F8
:10222000F894DEBF0FBECDBFCF91DF911F910F910C
:10223000FF90EF90DF90CF90BF90AF909F908F90E6
:102240007F906F905F904F903F902F9008951F93D5
:102250000E945D230E940D270E94F3270E941631E1
:102260008EE1E8E8F6E0DF011D928A95E9F781E06A
:102270008093880678948091A30784FF03C081E04F
:102280008093890611E00E94D4230E945B0E0E9475
:1022900091270E9479040E946F0E0E94971C0E9451
:1022A000561B0E94C12E0E94D5160E944A0510920C
:1022B000880610928A068091A30781FF03C01093BD
:1022C000980602C0109298060E946C1DDCCF809187
:1022D0008A0684FD14C080918A06806180938A06F4
:1022E0000E949D270E94840480918906847339F09E
:1022F00080918A06806280938A060E94952E0895B6
:1023000084E0809389060E94930E84E00E94230F4C
:1023100083E00E94230F0E94CD1C809188068823B1
:1023200041F40E944A05109289060E94952E0E944F
:102330006F0E0895EF92FF920F931F93CF93DF9349
:102340007B018C0180918906823009F047C0C80169
:10235000B70120E030E040EA51E40E942F360E94AD
:10236000B9340E945034EB010E94551DC801B701D9
:1023700020E030E04AE754E40E942F367B018C01D4
:1023800082E390E0C89FB001C99F700DD89F700D87
:10239000112480E090E00E947C349B01AC01C801D4
:1023A000B7010E94F6320E94B9340E945034DC0119
:1023B000CB010E94641600E911E00EC00E94CD1C02
:1023C00080918806882351F484EF91E0F8013197D9
:1023D000F1F70197D9F72197209781F7DF91CF91F6
:1023E0001F910F91FF90EF900895DF92EF92FF926F
:1023F0000F931F93CF93DF93EC017A018B01D22EC1
:102400008091A30785FF03C0CE010E949E0E80919C
:1024100089068230D1F00E94CD1C809188068823E5
:10242000A1F40E94CB16882319F00E94C31CF3CF9D
:10243000CE01B801A7012D2D0E9450188091890668
:10244000882319F488E080938906DF91CF911F914A
:102450000F91FF90EF90DF9008957F928F929F925F
:10246000AF92BF92CF92DF92EF92FF920F931F93A2
:10247000CF93DF936C014A015B01722E8091890634
:10248000803111F00E94C31C0E94551D8091880666
:10249000882309F06BC0C601B501A401272D0E9455
:1024A000F51181E08093990680918A06826080937D
:1024B0008A060E94CD1C80918806882309F056C0A8
:1024C00080918906882311F0883099F780919906C8
:1024D000813029F480918A06806480938A060E9464
:1024E000CD1C80918806882309F040C08AE9E82E37
:1024F00086E0F82EC0E0D0E086010C0F1D1FF7012A
:1025000061917191819191917F010E947E34FE01D0
:10251000EA59F84F20813181428153810E94E23390
:10252000F80160837183828393832496CC30D10534
:1025300019F70E94CD1C0E94C12E0E94561B0E94BA
:10254000D516C601B501A401272D0E94F511809171
:102550008A06826080938A060E94551D80918806B3
:10256000882321F40E944A050E94161FDF91CF9113
:102570001F910F91FF90EF90DF90CF90BF90AF90A1
:102580009F908F907F9008952F923F924F925F92ED
:102590006F927F928F929F92AF92BF92CF92DF9273
:1025A000EF92FF920F931F93DF93CF93CDB7DEB7D8
:1025B000EF970FB6F894DEBF0FBECDBF9CAB8BABD1
:1025C0007EAB6DAB3A010FAB18AF29AF3AAFCBAED4
:1025D000DCAEEDAEFEAEAFAE9924880C991C880C33
:1025E000991C880D991D9AAB89AB9A01280D391D4C
:1025F00038AB2FA7D901AD90BD90CD90DC90C6012E
:10260000B501E9A9FAA920813181428153810E9453
:10261000F7326DA37EA38FA398A766966FAD6697DA
:10262000462E5524440C551C440C551C2BA93CA982
:10263000240D351D3EA72DA7C301840D951D9CA714
:102640008BA7DC01ED90FD900D911C91C801B701A5
:10265000F90120813181428153810E94F73269A3BF
:102660007AA38BA39CA3D601C501B0588D8F9E8FF2
:10267000AF8FB8A3D801C701B058898F9A8FAB8F9D
:10268000BC8FADA9BEA98A0E9B1EF4016081718129
:10269000828193812DA13EA14FA158A50E94F632BF
:1026A0003B014C012DA93EA9420E531ED2016D9152
:1026B0007D918D919C9129A13AA14BA15CA10E9491
:1026C000F6325B016C016D8D7E8D8F8D98A1A60118
:1026D00095010E942F367B018C01698D7A8D8B8D3F
:1026E0009C8DA40193010E942F369B01AC01C8016F
:1026F000B7010E94F6321B012C016D8D7E8D8F8DEE
:1027000098A1A40193010E942F367B018C01698D51
:102710007A8D8B8D9C8DA60195010E942F369B0191
:10272000AC01C801B7010E94F7329B01AC01C201A4
:10273000B1010E946F335B016C0180911B068230F6
:1027400099F4C601B50120E030E040E050E00E947D
:10275000F2358823ECF0C601B5012BED3FE049ECE2
:1027600050E40E94F63212C0C601B50120E030E00C
:1027700040E050E00E94DB33181654F0C601B5016A
:102780002BED3FE049EC50E40E94F7325B016C0115
:10279000E0909E07F0909F070091A0071091A1077D
:1027A0006FA978AD89AD9AAD9B01AC010E94F7325B
:1027B000A80197010E94F6329B01AC01C801B70144
:1027C0000E942F360E94C4367B018C01C601B501E0
:1027D00020E030E040E05FE30E942F362FA938ADC3
:1027E00049AD5AAD0E942F369F77A80197010E94EC
:1027F000E2330E94B9340E945034788F6F8B611598
:10280000710509F487C1BFADBB2381F080E090E082
:102810000E947C349B01AC016BAD7CAD8DAD9EAD57
:102820000E942F366BAF7CAF8DAF9EAF2F89388D56
:10283000B90180E090E00E947C347B018C01C601EC
:10284000B501A80197010E94E2336B8B7C8B8D8BC5
:102850009E8B6796EFAD6797F0E0EE0FFF1FEE0FD0
:10286000FF1F8BA99CA98E0F9F1F9AA789A7ADA9AF
:10287000BEA9EA0FFB1F6081718182819381E9A566
:10288000FAA520813181428153810E94F632A8014C
:1028900097010E94E2336F87788B898B9A8B6B89C3
:1028A0007C898D899E899B01AC010E942F369B01FA
:1028B000AC0160E070E080E090E40E94F6325B01E1
:1028C0006C016B897C898D899E892BEA3AEA4AE200
:1028D0005EE30E942F367B018C01C601B50120E02A
:1028E00030E040E850E40E94F7329B01AC01C8019F
:1028F000B7010E942F366B877C878D879E87C60124
:10290000B50120E030E040E05FE30E942F366983AC
:102910007A838B839C8321E030E03E832D8399244E
:10292000F1C033E1391508F446C06D8D7E8D8F8D71
:1029300098A12B853C854D855E850E942F367B01B5
:102940008C01698D7A8D8B8D9C8D29813A814B818B
:102950005C810E942F369B01AC01C801B7010E9427
:10296000F7327B018C016D8D7E8D8F8D98A1298131
:102970003A814B815C810E942F365B016C01698D2D
:102980007A8D8B8D9C8D2B853C854D855E850E9437
:102990002F369B01AC01C601B5010E94F6326D8F46
:1029A0007E8F8F8F98A39394C701D801898F9A8FB8
:1029B000AB8FBC8F61C0AD81BE81BD0180E090E076
:1029C0000E947C342B893C894D895E890E942F3678
:1029D0007B018C01C8010E94DF336F837887898770
:1029E0009A87B701C8010E94BA363B014C01EFA596
:1029F000F8A9E080F1800281138117FB109517F987
:102A00001095ABA5BCA52D903D904D905C90C80154
:102A1000B7012F81388549855A850E942F365B0181
:102A20006C01C201B101A40193010E942F369B01E8
:102A3000AC01C601B5010E94F7326D8F7E8F8F8F7A
:102A400098A3C801B701A40193010E942F367B010E
:102A50008C01C201B1012F81388549855A850E94B8
:102A60002F369B01AC01C801B7010E94F632698F75
:102A70007A8F8B8F9C8F99246DA17EA18FA198A5B1
:102A80002D8D3E8D4F8D58A10E94F732E9A9FAA9EC
:102A9000608371838283938369A17AA18BA19CA1B6
:102AA000298D3A8D4B8D5C8D0E94F732ADA5BEA568
:102AB0006D937D938D939C931397E9A5FAA56081FF
:102AC0007181828193812F85388949895A890E9431
:102AD000F732A9A5BAA56D937D938D939C93139717
:102AE0008BA99CA94BAD5CAD6DAD7EAD2FAD0E94A9
:102AF000F511809188068823B1F4ED81FE8131962D
:102B0000FE83ED832D813E818F89988D28173907AB
:102B100008F407CF8DA99EA94BAD5CAD6DAD7EAD20
:102B20002FAD0E94F511EF960FB6F894DEBF0FBEE1
:102B3000CDBFCF91DF911F910F91FF90EF90DF906C
:102B4000CF90BF90AF909F908F907F906F905F904D
:102B50004F903F902F9008956F927F928F929F9207
:102B6000AF92BF92CF92DF92EF92FF920F931F939B
:102B7000CF93DF934C013B015A01FB018081F401AB
:102B8000E80FF11DEF0189918D3229F481812196A1
:102B9000CC24C39405C08B3211F481812196CC24BE
:102BA00020E030E040E050E0DD24E0E070E0682F1D
:102BB00060536A30F8F4EF5FE930C0F47111DA94D1
:102BC000DA01C901F2E0880F991FAA1FBB1FFA950D
:102BD000D1F7280F391F4A1F5B1F220F331F441FD5
:102BE000551F260F311D411D511D09C0772339F492
:102BF000D39405C06E3F29F4772319F471E08991CD
:102C0000D6CFEE2311F480E050C0CA01B9010E9472
:102C10007C347B018C0120E030E040E050E00E94F9
:102C2000DB33882369F42BC0C801B7012AE037EDF4
:102C300043E25CE30E942F367B018C01F2E0DF0E61
:102C40008FEFD8168CF3D81659F4C801B7012DECC4
:102C50003CEC4CEC5DE30E942F367B018C010FC0F5
:102C6000DD2069F0C801B70120E030E040E251E426
:102C70000E942F367B018C01DA941D149CF3CC202A
:102C800049F0D801C701B058F50180839183A28330
:102C9000B38305C0F501E082F18202831383882D9E
:102CA00080958C0FF301808381E0DF91CF911F919C
:102CB0000F91FF90EF90DF90CF90BF90AF909F90DB
:102CC0008F907F906F90089520EA3FE004C0F90153
:102CD0003197F1F701970097D1F70895813049F0C6
:102CE000813018F0823019F406C080E2089580E047
:102CF000089580E4089580E80895AF92BF92CF923E
:102D0000DF92EF92FF920F931F937B018C01590189
:102D10006A01A80197010E942F367B018C01C60130
:102D2000B501A60195010E942F369B01AC01C80197
:102D3000B7010E94F7320E94C4361F910F91FF9095
:102D4000EF90DF90CF90BF90AF9008952091E20474
:102D50008091E304821769F0922F9F5F923109F40A
:102D600090E08091E504281711F49093E504909386
:102D7000E20408959091E2048091E304891719F424
:102D800020E030E006C089E2989F90011124205095
:102D90003E4FC901089520E09091E2048091E4043F
:102DA000981709F421E0822F089580918C06909164
:102DB0008D06A0918E06B0918F068093E6049093C5
:102DC000E704A093E804B093E90480919006909101
:102DD0009106A0919206B09193068093EA04909395
:102DE000EB04A093EC04B093ED04809194069091D1
:102DF0009506A0919606B09197068093EE04909365
:102E0000EF04A093F004B093F10408954F925F9201
:102E10006F927F928F929F92AF92BF92CF92DF92EA
:102E2000EF92FF920F931F93CF93DF938091E30470
:102E3000882309F482E1782E7A946090E504761470
:102E400009F4F2C089E2789E4001112480E092E00A
:102E5000880E991EF401A588B688C788D08C21A158
:102E600032A143A154A1CA01B9010E94F732F40171
:102E700025A136A147A150A50E942F367B018C01C8
:102E8000B501C601A80197010E94DB3387FD04C08C
:102E9000D801C70157016D01C501D601F401818B2D
:102EA000928BA38BB48B772011F432E1732E7A943A
:102EB000761409F04EC08091E204681609F050C003
:102EC0000E9421284DC0769CE0011124C050DE4FA5
:102ED000772011F422E1722E7A948091E204781620
:102EE00011F40E942128AD88BE88CF88D88C6989CA
:102EF0007A898B899C89A60195010E94DB338823FE
:102F000031F129A13AA14BA15CA1CA01B9010E94EA
:102F1000F7322DA13EA14FA158A50E942F36F401F2
:102F200021893289438954890E94F7327B018C01BF
:102F3000A60195010E94DB3388232CF4E98AFA8AE2
:102F40000B8B1C8B04C0A98ABA8ACB8ADC8A4E01FF
:102F500002C099E2692E8091E504781609F0B3CF9A
:102F6000A090E504BA2CB394F2E1BF1609F4BB2497
:102F700089E2A89E8001112400501E4F5090E30466
:102F800089E2482E4CC0B49CE0011124C050DE4FB1
:102F9000F801C188D288E388F48869887A888B88A8
:102FA0009C88C701B601A40193010E94DB338823EA
:102FB0001CF5F80121A132A143A154A1CA01B90114
:102FC0000E94F732F80125A136A147A150A50E9421
:102FD0002F369B01AC01C701B6010E94F7327B017D
:102FE0008C01A40193010E94DB3388232CF4E98A2D
:102FF000FA8A0B8B1C8BAB2C69897A898B899C890B
:103000002D893E894F89588D0E94DB33882309F42E
:10301000AB2CB394F2E1BF1609F4BB248E01B514B6
:1030200009F0B1CFA092E504DF91CF911F910F91EC
:10303000FF90EF90DF90CF90BF90AF909F908F90D8
:103040007F906F905F904F9008950E94212880910B
:10305000E2048093E5040E94061708952091E2049B
:103060002F5F223109F420E08091E304281729F42E
:1030700060E070E080E090E012C030E089E290E033
:10308000289FF001299FF00D389FF00D1124E0508A
:10309000FE4F61897289838994890E94C43608959C
:1030A0002F923F924F925F926F927F928F929F9258
:1030B000AF92BF92CF92DF92EF92FF920F931F9346
:1030C000DF93CF93CDB7DEB7E6970FB6F894DEBFA8
:1030D0000FBECDBF9DA78CA74EA75FA768AB79ABEE
:1030E0002AAB9091E30489E2989F4001112420E0EB
:1030F00032E0820E931ED4011D961D921D921D92E8
:103100001C92509780E090E0A0E0B0E0F40185A32D
:1031100096A3A7A3B0A7108289E996E7A6E9BEE720
:1031200081A392A3A3A3B4A326E637E03C8F2B8F01
:103130001E010894211C311C46EE442E44E0542EFE
:103140009A8E898E1BA666247724ECA5FDA5E60D34
:10315000F71D6081718182819381AB8DBC8D2D9132
:103160003D914D915C910E942F360E94FF359B014D
:10317000AC01F1012083318342835383F2018081CA
:103180009181A281B381281B390B4A0B5B0B57FF3E
:1031900007C050954095309521953F4F4F4F5F4F59
:1031A000A98DBA8D11962D933D934D935C931497F1
:1031B000F40185859685A785B089281739074A07C0
:1031C0005B0710F49C01AD01D4011D962D933D9336
:1031D0004D935C935097F10160817181828193815D
:1031E000D2012D913D914D915C91621B730B840B2B
:1031F000950B0E947E34EB8DFC8D208131814281C4
:1032000053810E94E2335B016C01EDE0F0E0EC0FD2
:10321000FD1FE60DF71D608371838283938320E099
:1032200030E040E050E00E94DB33882344F4D401D6
:103230001C918BA50E946E16182BF4011083D401EB
:103240009596ED90FD900D911C919897C601B50152
:10325000A60195010E942F369B01AC01C801B70160
:103260000E94F7327B018C01CB01D801F40185A3C8
:1032700096A3A7A3B0A7FBA5FF5FFBA724E030E0C0
:10328000620E731E8B8D9C8D04969C8F8B8F220EED
:10329000331E420E531EA98DBA8D1496BA8FA98F74
:1032A000F33009F052CFB701C8010E94C4367B0148
:1032B0008C01F40165A376A387A390A785859685E5
:1032C000A785B0890097A105B10509F4D6C16EA5FF
:1032D0007FA588A999A920E030E040E050E00E9455
:1032E000DB3388234CF489E996E7A6E9BEE78EA78D
:1032F0009FA7A8ABB9AB0FC09AA9992361F0C801E9
:10330000B7012EA53FA548A959A90E94E2336EA78F
:103310007FA788AB99AB60E070E080E89FE3A801ED
:1033200097010E94E2336FA378A789A79AA7DE01CD
:103330001D96BAA3A9A3E2EFF4E0F8A3EF8F22E76A
:1033400037E03E8F2D8F80E090E0A0E0B0E08BA3CF
:103350009CA3ADA3BEA3DE015996BEABADABE9A164
:10336000FAA1E080F18002811381C801B70120E059
:1033700030E040E050E00E94DB33882309F47CC059
:10338000C801B7012FA138A549A55AA50E942F361B
:103390002B013C01A9A1BAA16D937D938D939C93C0
:1033A000139760E070E080E89FE3A30192010E9420
:1033B000E2335B016C01E894D7F8C601B501ED8DED
:1033C000FE8D20813181428153810E942F367B0105
:1033D0008C016EA57FA588A999A9A80197010E94D3
:1033E000DB3387FD04C0EEA6FFA608AB19ABD40102
:1033F0009196BC91BBABF401F2A1FCABD4019396C6
:103400002C90939794963C90C601B501ED8DFE8D5E
:1034100024853585468557850E942F367B018C0192
:103420006BA97CA9C101A80197010E94DB3387FD2C
:1034300005C0D801C701EBAA9CAB1D018BA99CA9B3
:10344000D101F40181A392A3A3A3B4A3C301B20148
:10345000AF8DB8A12D913D914D915C910E942F3679
:103460009B01AC016BA17CA18DA19EA10E94F632B3
:103470006BA37CA38DA39EA3E9A1FAA13496FAA322
:10348000E9A32F8D38A12C5F3F4F38A32F8F8D8D4F
:103490009E8D04969E8F8D8FADA9BEA9EA17FB075E
:1034A00009F05DCF9091E3048091E204981771F4E4
:1034B00080E090E0A0E0B0E0F401818B928BA38BE0
:1034C000B48B818F928FA38FB48F52C060E070E075
:1034D00080E89FE32BA13CA14DA15EA10E94F632A2
:1034E00020E030E040E05FE30E942F360E94C436C7
:1034F0005B016C01D40191966D917D918D919C91B0
:10350000949720919A0730919B0740919C07509186
:103510009D070E942F36A60195010E942F367B0140
:103520008C0160E070E080E89FE3A60195010E94B5
:10353000F6329B01AC01C801B7010E94E2337B0166
:103540008C0120E030E040E050E00E94DB33882333
:1035500054F40F2EF0E0EF2EF0E0FF2EF0E00F2FEE
:10356000F0E01F2FF02DF401E18EF28E038F148F07
:103570006EA57FA588A999A99B01AC010E942F3651
:103580007B018C01D4015D966D937D938D939C930B
:10359000909759965C9059975A964C905A975B968B
:1035A0003C905B975C962C90D090FE04C090FF04FA
:1035B000B0900005A09001052D2D3C2D4B2D5A2DCE
:1035C0000E94DB3387FD04C06D2C7C2CF50105C007
:1035D000D801C7013701FA2FEB2F652D742D832DEC
:1035E000922D93014F2F5E2F0E94DB3388232CF402
:1035F000852D942DA32DB22D0EC0C801B7012D2D00
:103600003C2D4B2D5A2D0E94DB3387FD06C08D2D9E
:103610009C2DAB2DBA2D7C018D01F401E58AF68A33
:10362000078B108FA2EFB4E0FE013D968CE0019075
:103630000D928150E1F7F401858D968DA78DB0A193
:103640008093FE049093FF04A0930005B0930105BE
:10365000A6EEB4E0FE0131968CE001900D9281500F
:10366000E1F78091E4048093E3048F5F823109F4F1
:1036700080E08093E4040E940617E6960FB6F89463
:10368000DEBF0FBECDBFCF91DF911F910F91FF9095
:10369000EF90DF90CF90BF90AF909F908F907F90F2
:1036A0006F905F904F903F902F9008958CE1E6EEE1
:1036B000F4E0DF011D928A95E9F71092E20410927E
:1036C000E30481E08093E4041092E50408958F926E
:1036D0009F92AF92BF92CF92DF92EF92FF920F93A1
:1036E0001F93DF93CF93CDB7DEB72A970FB6F89429
:1036F000DEBF0FBECDBF7B018C0120E030E040E09B
:1037000050E00E94DB3388233CF48DE20E94732357
:1037100017FB109517F91095A090A207DA2C0CC092
:10372000C801B70120E030E048EC52E40E942F3697
:103730007B018C018EEFD80EE1E0ED1588F3A0FE41
:103740000AC0C801B70120E030E040E251E40E9425
:103750002F367B018C01C801B70120E030E040E04A
:103760005FE30E94F7320E944B346B017C019E01A3
:103770002F5F3F4FF901EA0DF11D8EE28083BB24DC
:1037800049011EC0BA1409F4B39484010B0D111D34
:10379000C701B6012AE030E040E050E00E94363731
:1037A000605DF8016083B394C701B6012AE030E0A0
:1037B00040E050E00E943637C901DA016C017D011A
:1037C000C114D104E104F104E9F606C0FC01EB0DDB
:1037D000F11D2083B39403C0CE01019620E3BA14F7
:1037E000A8F3BA1489F48B2D8F5FFE01E80FF11D49
:1037F00090E39183B82EB39407C0FE01EB0DF11D49
:1038000080810E947323BA94BB20B9F72A960FB621
:10381000F894DEBF0FBECDBFCF91DF911F910F9106
:10382000FF90EF90DF90CF90BF90AF909F908F90E0
:1038300008951F93DF93CF9300D0CDB7DEB7282F25
:10384000882321F480E30E9473231EC010E0AE01A0
:103850004F5F5F4FFA01E10FF11D822F6AE00E9476
:103860002A37905D90831F5F822F0E942A37282F6E
:10387000882381F707C0FE01E10FF11D80810E94BE
:10388000732311501123B9F70F900F900F90CF9120
:10389000DF911F9108950F931F93DF93CF93CDB7BF
:1038A000DEB728970FB6F894DEBF0FBECDBF982FB6
:1038B000FE0131969E01275F3F4F892F81708193D2
:1038C0009695E217F307C9F78E01085F1F4FF801BD
:1038D0008081805D0E947323015010400C171D07EA
:1038E000B1F728960FB6F894DEBF0FBECDBFCF91CB
:1038F000DF911F910F910895CF93DF93EC0102C0E8
:103900000E947323FE01219684918823C9F7DF91D9
:10391000CF910895CF93DF93EC0103C021960E94CD
:10392000732388818823D1F7DF91CF910895E7E051
:10393000F1E08081877F8083E8E0F1E0808188602A
:103940008083089580910601869586958695809559
:1039500081700895809199068130A1F480910601CB
:1039600083FD10C010929906EAE9F6E0DF011E9788
:103970008CE00D9001928150E1F780918A06886079
:1039800080938A06089580919806882329F0809173
:103990008A06826080938A060895CF93DF93809190
:1039A0008A06882309F478C0C82FD0E0CE0180763B
:1039B0009070892B09F181E080938906C6FF14C0BD
:1039C000C5FF02C08FEF01C08DEF0E943C2381E054
:1039D0000E94EF1D80918A068F7E80938A068091D7
:1039E0008A0684FFFCCF03C08EEF0E943C238091A7
:1039F0008A068F7980938A06C4FF04C081E0809391
:103A0000880650C0C0FF07C00E94191E80918A0618
:103A10008E7F80938A06C3FF12C080918906803111
:103A200049F480E2809389060E9421280E9443285D
:103A30001092980680918A06877F80938A06C1FF3C
:103A40001AC080918906883089F480E180938906C4
:103A50000E9443280E94BD278091A30781FF04C0D4
:103A600081E08093980602C01092980680918A06A1
:103A70008D7F80938A06C2FF0FC00E94BA16892BE1
:103A800021F088E08093890602C010928906809117
:103A90008A068B7F80938A0680918906847311F051
:103AA0000E944328DF91CF9108958091890680314B
:103AB00051F481E08093980606C00E94CD1C80914D
:103AC0008806882341F40E94BA16892BB1F78091A9
:103AD0008906803191F308950F931F930E94EA1D88
:103AE00080918906813021F482E00E94EF1D1CC084
:103AF0001092890682E095E00E94723115C09A30DA
:103B000011F09D3029F5E12FF0E0EE5FFA4F1082C1
:103B10000E94CD1C80918806882331F48091020593
:103B2000882321F40E94642000E025C0843229F417
:103B300082E095E00E949E31F5CF80918906813028
:103B400011F489E0EFCF82E095E00E949F05EACF73
:103B5000002321F0993209F500E01FC09132E8F00E
:103B60009F32D9F0983211F401E017C0153428F0D3
:103B70008BE00E94642010E010C0892F8156A12F95
:103B8000B0E0E12FEF5F8A3120F4AE5FBA4F905280
:103B900002C0AE5FBA4F9C931E2F0E94BF23982F86
:103BA0008F3F09F0ACCF80919806882329F080914F
:103BB0008A06826080938A060E94CD1C80918806C6
:103BC000882359F31F910F9108958CEB95E00E9483
:103BD0007C1C08958AEE96E00E947C1C08951F9339
:103BE000182F84E597E00E947C1C133091F014306C
:103BF00028F4113041F01230B1F408C0143061F0F3
:103C0000153089F40CC082E497E00BC08EE297E097
:103C100008C08CE197E005C084E197E002C08BE02A
:103C200097E00E947C1C87E097E00E947C1C1F911B
:103C30000895AF92BF92CF92DF92EF92FF920F93CF
:103C40001F93DF93CF93CDB7DEB768970FB6F89485
:103C5000DEBF0FBECDBFDE011196ECE8F6E08CE0D2
:103C600001900D928150E1F7809189068430E1F056
:103C7000853038F48130D9F0813050F08230F1F461
:103C800019C0803159F0803261F08830B9F403C036
:103C900088EA91E011C081EA91E00EC08CE991E0E0
:103CA0000BC086E991E008C080E991E005C089E891
:103CB00091E002C082E891E00E947C1C8BE791E0D9
:103CC0000E947C1C8DE0E82EF12CEC0EFD1E67019D
:103CD00000E010E05E010894A11CB11CF501E00FAA
:103CE000F11F60817181828193810E947E34F8018D
:103CF000EA59F84F20813181428153810E94E23399
:103D00009B01AC01F6016083718382839383809170
:103D1000A30780FF0DC0CA01B9012BE832E441E2DC
:103D20005DE30E942F36F601608371838283938363
:103D3000F60161917191819191916F010E94671BD0
:103D400089E791E00E947C1C0C5F1F4F0C3011052D
:103D500029F683E791E00E947C1C09E316E0DD244C
:103D60008091A30780FF1BC0F8016081718182816F
:103D7000938124853585468557850E94F7322BE847
:103D800032E441E25DEB0E942F369B01AC01F7016A
:103D900060817181828193810E94F73214C0F801A1
:103DA000608171818281938124853585468557851F
:103DB0000E94F7329B01AC01F70160817181828121
:103DC00093810E94F632F70160837183828393832B
:103DD000F70160817181828193810E94671BF2E00B
:103DE000DF1621F081E791E00E947C1CD39484E0EF
:103DF00090E0E80EF91E0C5F1F4F93E0D91609F012
:103E0000AFCF8DE691E00E947C1C68960FB6F894C7
:103E1000DEBF0FBECDBFCF91DF911F910F91FF90FD
:103E2000EF90DF90CF90BF90AF900895BF92CF9268
:103E3000DF92EF92FF920F931F93DF93CF93CDB753
:103E4000DEB72C970FB6F894DEBF0FBECDBF8CE562
:103E500092E00E947C1C2AE9C22E26E0D22E96E631
:103E6000E92E97E0F92E8E010F5F1F4FBB24F6015C
:103E700060817181828193810E947E34F70120816B
:103E80003181428153810E94E2339B01AC01F801F0
:103E900060837183828393838091A30780FF0DC029
:103EA000CA01B9012BE832E441E25DE30E942F36FA
:103EB000F8016083718382839383F801608171814B
:103EC000828193810E94671BF2E0BF1621F08AE590
:103ED00092E00E947C1CB39484E090E0C80ED91E4E
:103EE000E80EF91E0C5F1F4F93E0B91609F0BFCF23
:103EF00086E592E00E947C1C2C960FB6F894DEBFFB
:103F00000FBECDBFCF91DF911F910F91FF90EF902A
:103F1000DF90CF90BF9008950F931F938C0182EB99
:103F200091E00E947C1CC8010E948A1C8EEA91E0EC
:103F30000E947C1C1F910F910895FF920F931F9375
:103F4000F82E8B0187EC91E00E947C1C8F2D0E9443
:103F5000191C85EC91E00E947C1CC8010E948A1CFF
:103F600082EC91E00E947C1C1F910F91FF900895BC
:103F700080911B06823091F0833028F4882341F031
:103F80008130B1F408C0833061F0853089F40CC011
:103F900085E392E00BC081E392E008C08DE292E0FD
:103FA00005C089E292E002C084E292E00E947C1C9B
:103FB00081E292E00E947C1C809120068A5C0E9433
:103FC000191C80911F06813041F0813018F0823039
:103FD00059F406C08CE192E005C087E192E002C08E
:103FE00082E192E00E947C1C80911D06882319F4D6
:103FF0008DE092E002C088E092E00E947C1C8091FB
:104000001E06882319F483E092E002C08EEF91E04F
:104010000E947C1C80911C06813019F489EF91E08C
:1040200002C084EF91E00E947C1C809121068130C7
:1040300041F0813018F0823059F406C080EF91E0F1
:1040400005C08CEE91E002C088EE91E00E947C1CDD
:1040500080912306813029F0813048F0823059F474
:1040600003C084EE91E005C080EE91E002C08CEDCB
:1040700091E00E947C1C80912206882319F08230F6
:1040800041F403C088ED91E002C084ED91E00E940C
:104090007C1C81ED91E00E947C1C80912C060E948A
:1040A000191C8EEC91E00E947C1C60912806709196
:1040B000290680912A0690912B060E94671B8AECA4
:1040C00091E00E947C1C08951F93182F882319F4F7
:1040D00086EA98E05CC08EE998E00E947C1C17306C
:1040E000A9F1183078F4133029F1143030F411307C
:1040F000C9F0123009F042C018C0153009F116306D
:1041000010F51BC01B3071F11C3028F4193021F15F
:104110001A3028F51EC0153141F1163161F1143104
:1041200069F526C086E898E002C084E798E00E941E
:104130007C1C2BC082E698E0FACF88E598E0F7CFA8
:1041400087E498E0F4CF88E398E0F1CF87E198E046
:10415000EECF8EE098E0EBCF83E098E0E8CF80EF01
:1041600097E0E5CF82EE97E0E2CF8CEC97E0DFCFEF
:1041700088EB97E0DCCF84EA97E0D9CF82E997E03B
:104180000E947C1C812F0E94191C8FE897E00E94DE
:104190007C1C1F910895CF92DF92EF92FF920F93B4
:1041A0001F93DF93CF93CDB7DEB72C970FB6F8945C
:1041B000DEBF0FBECDBFFF246E010894C11CD11C11
:1041C0008F2DB6010E94E226882321F487E00E9409
:1041D000642079C083E592E00E947C1C86E0F8169A
:1041E00021F0E7E0FE1649F403C080E592E002C04A
:1041F0008DE492E00E947C1C04C08F2D8A5C0E949A
:10420000191C8BE492E00E947C1C8601EE248091B4
:10421000A30780FF0CC0F8016081718182819381C6
:104220002BE832E441E25DE30E942F3605C0F8013D
:1042300060817181828193810E94671BF2E0EF1699
:1042400019F089E492E002C085E492E00E947C1CAF
:10425000E3940C5F1F4F83E0E816C9F6F394E8E09F
:10426000FE1609F0ADCF8FE392E00E947C1C05E4BE
:1042700016E0FF248091A30780FF0CC0F801608145
:104280007181828193812BE832E441E25DE30E94F7
:104290002F3605C0F80160817181828193810E946F
:1042A000671BF2E0FF1619F08DE392E002C089E38C
:1042B00092E00E947C1CF3940C5F1F4F83E0F81681
:1042C000C9F60E94161F2C960FB6F894DEBF0FBEDB
:1042D000CDBFCF91DF911F910F91FF90EF90DF90B5
:1042E000CF900895EF92FF920F931F9388EB95E084
:1042F0000E947C1CF6E6EF2EF7E0FF2E6091660729
:104300007091670780916807909169070E94671B09
:1043100085EA95E00E947C1C60916A0770916B07AA
:1043200080916C0790916D070E94671B82E995E070
:104330000E947C1C60916E0770916F0780917007DE
:10434000909171070E94671B8FE795E00E947C1C8B
:10435000609172077091730780917407909175074F
:104360000E94671B84E695E00E947C1C60917607A2
:104370007091770780917807909179070E94671B69
:1043800089E495E00E947C1C60917A0770917B071C
:1043900080917C0790917D070E94671B8EE295E0DB
:1043A0000E947C1C60917E0770917F07809180073E
:1043B0009091810720E030E041E655E40E94E2332D
:1043C0000E94671B84E195E00E947C1C609182073B
:1043D00070918307809184079091850720E030E0F9
:1043E00041E655E40E94E2330E94671B8AEF94E0A5
:1043F0000E947C1C609186077091870780918807D6
:104400009091890720E030E041E655E40E94E233D4
:104410000E94671B80EE94E00E947C1C60918A07DA
:1044200070918B0780918C0790918D0790580E9416
:10443000671B86EC94E00E947C1C60918E07709153
:104440008F07809190079091910790580E94671B69
:104450008CEA94E00E947C1C609192077091930713
:10446000809194079091950790580E94671B82E96C
:1044700094E00E947C1C809196070E94191C88E79A
:1044800094E00E947C1C809197070E94191C8FE584
:1044900094E00E947C1C809197070E944B1C87E54A
:1044A00094E00E947C1C809198070E94191C8FE365
:1044B00094E00E947C1C809198070E944B1C87E32B
:1044C00094E00E947C1C809199070E94191C88E14D
:1044D00094E00E947C1C60919A0770919B078091E8
:1044E0009C0790919D070E94671B88EF93E00E94B4
:1044F0007C1C60919E0770919F078091A00790910E
:10450000A1070E94671B8DED93E00E947C1C8091A7
:10451000A2070E94191C84EC93E00E947C1C870176
:10452000035C1F4FF801808181700E94191C87EA8B
:1045300093E00E947C1CF801808190E0969587951D
:1045400081700E94191C8DE893E00E947C1CF80188
:10455000808190E0969587959695879581700E94C9
:10456000191C8BE693E00E947C1CF801808190E08E
:1045700066E0969587956A95E1F781700E94191C0F
:104580008AE493E00E947C1CF801808190E055E071
:10459000969587955A95E1F781700E94191C8FE2D4
:1045A00093E00E947C1CF801808190E043E09695A6
:1045B00087954A95E1F781700E94191C84E193E088
:1045C0000E947C1CF801808190E034E096958795EC
:1045D0003A95E1F781700E94191C88EF92E00E94E1
:1045E0007C1C8EE390E0E80EF91EF70180810E94AA
:1045F000191C8EED92E00E947C1CF70180810E94C4
:104600004B1C86ED92E00E947C1C6091A507709186
:10461000A6078091A7079091A8070E94671B89EBC6
:1046200092E00E947C1C6091A9077091AA0780917A
:10463000AB079091AC070E94671B8CE992E00E9447
:104640007C1C8091AD070E94191C8DE792E00E94AE
:104650007C1C6091AF077091B0078091B107909179
:10466000B2070E94671B84E692E00E947C1C1F91A7
:104670000F91FF90EF9008951F93182F87E897E010
:104680000E947C1C1E3F41F01F3F19F01D3F59F452
:1046900006C087E797E005C084E697E002C089E599
:1046A00097E00E947C1C86E597E00E947C1C84EFCA
:1046B00091E00E9464161F910895E0ECF0E0808183
:1046C000826080831092C50082E28093C400E1EC96
:1046D000F0E0808180618083808188608083808138
:1046E000806880830895282FE0914A059E2F9F5F60
:1046F000903431F490E004C080918A0684FD0FC0AC
:1047000080914B059817C1F3F0E0EA5DF84F2083E4
:1047100090934A058091C10080628093C100089502
:104720001F920F920FB60F920BB60F9211248F9318
:104730009F93EF93FF9380914B05E82FF0E0EA5DA4
:10474000F84F90819093C600982F9F5F903409F4A2
:1047500090E090934B0580914A05981729F4809139
:10476000C1008F7D8093C100FF91EF919F918F9148
:104770000F900BBE0F900FBE0F901F901895909149
:10478000490580914805891711F48FEF0895E92FA5
:10479000F0E0EA55F94F8081E92FEF5FE03809F446
:1047A000E0E0E0934905089580914805809349052C
:1047B00008951F920F920FB60F920BB60F9211240D
:1047C0002F933F934F935F936F937F938F939F9319
:1047D000AF93BF93EF93FF932091C6002132A1F0D6
:1047E000223218F42831B9F413C02F3319F02E37C0
:1047F00091F404C080918A06816003C080918A068A
:10480000826080938A0618C080918A068860F9CFFA
:104810000E94671111C0E09148059E2F9F5F90385C
:1048200009F490E080914905981731F0F0E0EA55DD
:10483000F94F208390934805FF91EF91BF91AF917D
:104840009F918F917F916F915F914F913F912F91A8
:104850000F900BBE0F900FBE0F901F90189580E029
:1048600090E00E949F04873011F020E00CC086E6A3
:1048700097E061E070E04DE450E00E94130520E015
:10488000892B09F021E0822F089580E090E067E015
:104890000E94A70481E090E066E677E04DE450E0F6
:1048A0000E94C9040895EF92FF920F931F93CF9334
:1048B000DF93EC017A018B01CB01BA0120E030E0FB
:1048C00040E050E00E94DB33882314F484E0A4C16C
:1048D000FE01CF31D10540F4EE58FF4FEE0FFF1F20
:1048E0000590F491E02D199483E096C1CC0FDD1F63
:1048F000CC0FDD1FCA59D84FE882F9820A831B8387
:1049000088C1E0927207F0927307009374071093C6
:1049100075077FC1E0927607F092770700937807DA
:104920001093790776C1E0927A07F0927B070093A3
:104930007C0710937D076DC1C801B70120E030E00E
:1049400040E752E40E942F3620E030E040E752E496
:104950000E942F3660937E0770937F0780938007B5
:104960009093810756C1C801B70120E030E040E7CD
:1049700052E40E942F3620E030E040E752E40E94EB
:104980002F366093820770938307809384079093F8
:1049900085073FC1C801B70120E030E040E752E49D
:1049A0000E942F3620E030E040E752E40E942F368C
:1049B0006093860770938707809388079093890791
:1049C00028C1D801C701B05880938A0790938B07FC
:1049D000A0938C07B0938D071CC1D801C701B058B4
:1049E00080938E0790938F07A0939007B0939107C1
:1049F00010C1D801C701B0588093920790939307D4
:104A0000A0939407B093950704C1C801B70120E0B3
:104A100030E040E450E40E94DB33882314F486E065
:104A2000FBC0C801B7010E949A360E9450346093BF
:104A30009607EFC0C801B7010E9409370E945034A1
:104A400060939707E6C0C801B7010E9409370E942A
:104A5000503460939807DDC0C801B7010E949A36B0
:104A60000E94503460939907D4C0D801C701BF7722
:104A700080939A0790939B07A0939C07B0939D0700
:104A8000C8C0E0929E07F0929F070093A007109382
:104A9000A107BFC0C801B7010E949A360E945034D6
:104AA0006093A207B6C0C801B70120E030E040E043
:104AB00050E00E94DB33882321F08091A3078160BE
:104AC00011C08091A3078E7F0DC0C801B70120E0FF
:104AD00030E040E050E00E94DB33882331F08091E9
:104AE000A30782608093A30794C08091A3078D7F62
:104AF000F9CFC801B70120E030E040E050E00E946B
:104B0000DB33882321F08091A3078460EBCF809171
:104B1000A3078B7FE7CFC801B70120E030E040E07A
:104B200050E00E94DB33882321F08091A30780644A
:104B3000D9CF8091A3078F7BD5CFC801B70120E0E3
:104B400030E040E050E00E94DB33882341F0809168
:104B5000A30784FD02C08AE05FC08062C3CF80915A
:104B6000A3078F7DBFCFC801B70120E030E040E050
:104B700050E00E94DB33882321F08091A3078860F6
:104B800003C08091A307877F8093A3070E946F0EC5
:104B900040C0C801B70120E030E040E050E00E9492
:104BA000DB33882321F08091A30780619BCF809124
:104BB000A3078F7C97CFC801B7010E9409370E94D5
:104BC00050346093A40725C0E092A507F092A60791
:104BD0000093A7071093A8071CC0E092A907F092C2
:104BE000AA070093AB071093AC0713C0C801B70125
:104BF0000E949A360E9450347093AE076093AD07BE
:104C000008C0E092AF07F092B0070093B10710938D
:104C1000B2070E94452480E0DF91CF911F910F9150
:104C2000FF90EF900895E6E6F7E080E090E0AAE7D5
:104C3000B3E48093660790936707A0936807B093E7
:104C4000690780936A0790936B07A0936C07B093F2
:104C50006D0780936E0790936F07A0937007B093D2
:104C600071078AE08093960720E030E04AEF53E432
:104C7000209372073093730740937407509375071E
:104C800020937607309377074093780750937907FE
:104C900020937A0730937B0740937C0750937D07DE
:104CA00080E090EAACE0B7E480937E0790937F07C2
:104CB000A0938007B0938107809382079093830726
:104CC000A0938407B0938507809386079093870706
:104CD000A0938807B09389078FE692E1A3E0BBE336
:104CE00080939E0790939F07A093A007B093A1077E
:104CF0001092970780EC809398078AE097EDA3EADB
:104D0000BCE380939A0790939B07A0939C07B09372
:104D10009D0782E085AF16AE80E090E0A8ECB1E49C
:104D20008093A5079093A607A093A707B093A80721
:104D30002093A9073093AA074093AB075093AC0781
:104D40008AEF90E09093AE078093AD0780E090E00B
:104D5000A0E8BFE38093AF079093B007A093B1079B
:104D6000B093B20789E18093990783E08093A2070B
:104D700080E090E0A8E4B3EC80938A0790938B07DF
:104D8000A0938C07B0938D0780938E0790938F0725
:104D9000A0939007B0939107809392079093930705
:104DA000A0939407B09395070E94452408959DE031
:104DB000899FC001112480509E4F4CE050E00E941A
:104DC000C90408950F931F93CF93DF93162F072FD6
:104DD0009DE0899FE0011124C050DE4F862F972F60
:104DE000BE014CE050E00E941305892B11F081E0D8
:104DF0000FC0E12FF02F8CE0DF011D928A95E9F7BB
:104E0000CE01612F702F4CE050E00E94C90480E079
:104E1000DF91CF911F910F910895EF92FF921F9311
:104E2000DF93CF93CDB7DEB72C970FB6F894DEBFE4
:104E30000FBECDBF0E942F24882339F487E00E9443
:104E400064200E9413260E94722110E07E010894C3
:104E5000E11CF11C812FB7010E94E226882319F47E
:104E600087E00E9464201F5F1830A1F72C960FB6D0
:104E7000F894DEBF0FBECDBFCF91DF911F91FF90A1
:104E8000EF900895BC0180EE93E046E450E00E946C
:104E9000C9040895CF93DF93EC0160EE73E046E41C
:104EA00050E00E941305892B11F081E009C018829F
:104EB00080EE93E0BE0146E450E00E94C90480E029
:104EC000DF91CF91089597E4899FC001112480500C
:104ED0009D4F46E450E00E94C90408950F931F932C
:104EE000CF93DF938B0197E4899FE0011124C05099
:104EF000DD4FCB01BE0146E450E00E941305892B33
:104F000011F081E009C0F8011082CE01B80146E439
:104F100050E00E94C90480E0DF91CF911F910F9172
:104F20000895E1E0F1E08081886080836B9AE2E09F
:104F3000F1E08081877F80830895E2E0F1E0808165
:104F4000877F808308951F93182F80918906823070
:104F500091F40E94551D112321F480910201877F55
:104F600008C0113011F4739801C0739A8091020146
:104F70008860809302011F9108958091A30782FFAA
:104F800002C02F9A01C02F98809189068471A1F0E8
:104F9000809198078093D405809197078093D305DB
:104FA00080919607880F845081958093D2058091D7
:104FB0006F00826080936F0008951F920F920FB66A
:104FC0000F9211248F939F9392B1809197078C71C8
:104FD000937E892B82B915BC9F918F910F900FBE44
:104FE0000F901F90189581B18C6181B982B1837E39
:104FF00090919707892B82B9279A81B1806E81B9E8
:1050000082B18F7190919807892B82B9E1E8F0E025
:1050100080818F7E8083808188608083E0E8F0E0FB
:1050200080818C7F808380818F708083EEE6F0E0CA
:105030008081887F808314BC15BC808181608083DF
:105040000895CF93DF93C091EC05D091ED052097A3
:10505000B9F081E08093F1052091070630910806B0
:105060004091090650910A06CA01B9010E942F36E3
:10507000698B7A8B8B8B9C8B1092ED051092EC05D3
:10508000DF91CF9108952F923F924F925F926F924E
:105090007F928F929F92AF92BF92CF92DF92EF92C8
:1050A000FF920F931F93DF93CF93CDB7DEB7E997AE
:1050B0000FB6F894DEBF0FBECDBF17C68091EC05CA
:1050C0009091ED05892B09F07EC20E94BA1690934B
:1050D000ED058093EC05892B09F40EC68091F1054E
:1050E000882319F01092F105CAC08091F0058F5FF6
:1050F0008093F005853011F41092F005E091F005F1
:1051000021E1E29FF0011124E45BFA4FF093EF05F7
:10511000E093EE050091EC051091ED05D8018C911E
:10512000808311962D913D914D915C91149773E080
:10513000220F331F441F551F7A95D1F721833283E5
:105140004383548315962D913D914D915C91189711
:1051500063E0220F331F441F551F6A95D1F7258343
:1051600036834783508719962D913D914D915C91DF
:105170001C9793E0220F331F441F551F9A95D1F7B8
:1051800021873287438754871D962D913D914D91FC
:105190005C91509783E0220F331F441F551F8A955F
:1051A000D1F7258736874787508B1D966D917D9166
:1051B0008D919C9150970E947C346093F20570937E
:1051C000F3058093F4059093F505F80125A136A128
:1051D00047A150A50E94E2339B01AC016093F60504
:1051E0007093F7058093F8059093F90560E070E0FF
:1051F00080EA9FE30E94E2336093FA057093FB0517
:105200008093FC059093FD0580E090E0A0E0B0E085
:105210008093FE059093FF05A0930006B0930106CE
:10522000809189068032E1F420910F0630911006BA
:1052300040911106509112062093070630930806FC
:105240004093090650930A06CA01B9010E942F36FD
:10525000D80151966D937D938D939C9354970FC075
:10526000F80161897289838994890E94C4366093A8
:105270000706709308068093090690930A0680E05B
:1052800090E0A0E0B0E08093030690930406A09322
:105290000506B09306060091EC051091ED05D801C6
:1052A00091968D919D910D90BC91A02D88AB99AB5D
:1052B000AAABBBAB60E070E080E09FE328A939A90E
:1052C0004AA95BA90E94E2331B012C018091890647
:1052D000803209F056C0B2E0B0930206F801A5A0F2
:1052E000B6A0C7A0D0A46188728883889488C201C0
:1052F000B101A40193010E942F369B01AC01C601AC
:10530000B5010E94F6327B018C0120E030E040E0E4
:1053100050E00E94DB338823FCF468A979A98AA9AC
:105320009BA920E030E040E050EC0E942F36A6011F
:1053300095010E942F369B01AC01C401B3010E946C
:10534000F7320E94C43660930F0670931006809364
:1053500011069093120637C1E0920306F0920406FC
:10536000009305061093060680E090E0A0E0B0E010
:1053700080930F0690931006A0931106B093120627
:1053800022C110920206F80185A196A1A7A1B0A59D
:105390008093130690931406A0931506B0931606F7
:1053A0000E942E185B016C0160930F06709310062B
:1053B0008093110690931206A60195010E942F3644
:1053C0003B014C012091EC053091ED0539AF28AF40
:1053D000D90195968D919D910D90BC91A02D8B8FAB
:1053E0009C8FAD8FBE8FF901618972898389948901
:1053F000A40193010E94F6329B01AC01C201B101EC
:105400000E942F369B01AC016B8D7C8D8D8D9E8D06
:105410000E94F73220E030E040E05FE30E942F3648
:105420007B018C0120E030E040E050E00E94F2354A
:1054300018160CF0B4C0C801B7012B8D3C8D4D8DF2
:105440005E8D0E94DB3388230CF095C0A8ADB9AD0A
:105450005D966D917D918D919C919097A4019301A2
:105460000E94F6329B01AC01C201B1010E942F36AD
:1054700060931706709318068093190690931A0686
:10548000A80197010E94DB3388230CF047C0E8ADE8
:10549000F9ADE58CF68C078D10A1C801B7010E940B
:1054A000C43660930B0670930C0680930D069093A0
:1054B0000E06A8ADB9AD5196AD90BD90CD90DC90E3
:1054C0005497C601B501A80197010E94DB338823D8
:1054D00021F4B1E0B093020676C0C801B701A6017D
:1054E00095010E94F6329B01AC01C201B1010E94FC
:1054F0002F369B01AC0160911306709114068091C8
:105500001506909116060E94F6326093130670936A
:105510001406809315069093160655C0E092130664
:10552000F09214060093150610931606E0921706E3
:10553000F09218060093190610931A06E8ADF9AD1B
:1055400021A132A143A154A1CA01B9010E94F7329D
:10555000A80197010E942F36A40193010E94F732FF
:105560000E94C43660930B0670930C0680930D0660
:1055700090930E0628C0F2E0F09302068091070691
:1055800090910806A0910906B0910A0680930B0637
:1055900090930C06A0930D06B0930E0614C080E005
:1055A00090E0A0E0B0E08093130690931406A093DF
:1055B0001506B0931606A0920B06B0920C06C09288
:1055C0000D06D0920E068091E905B6E08B9FD001C2
:1055D0001124AF55BA4FB9AFA8AF8091F00512961C
:1055E0008C93E091EC05F091ED05FA8FE98F85A1A0
:1055F00096A1A7A1B0A58D8B9E8BAF8BB88FBC0158
:10560000CD012091FA053091FB054091FC055091A8
:10561000FD050E94F6326CA37DA38EA39FA320E01C
:1056200030E040E050E00E94DB33882344F480E027
:1056300090E0A0E0B0E08CA39DA3AEA3BFA38091B7
:10564000130690911406A0911506B0911606898B49
:105650009A8BAB8BBC8B80910B0690910C06A09122
:105660000D06B0910E068D879E87AF87B88B80910F
:10567000170690911806A0911906B0911A0689870D
:105680009A87AB87BC878091030690910406A0910E
:105690000506B09106068D839E83AF83B8878091FF
:1056A0000F0690911006A0911106B0911206898301
:1056B0009A83AB83BC838091070690910806A091E2
:1056C0000906B0910A0688A399A3AAA3BBA3909147
:1056D00002069F8FAD88BE88CF88D88C8EE393EC6E
:1056E000AEE2B9E38CA79DA7AEA7BFA780E090E08C
:1056F000A0E0B0E088A799A7AAA7BBA70F2EFEE35A
:105700006F2EF3EC7F2EFEE28F2EF9E39F2EF02D0D
:105710009F8D992321F0913009F0B3C080C0C4015E
:10572000B301A98DBA8D91962D913D914D915C91CA
:1057300094970E942F367B018C0120E030E040E0FE
:105740005FE30E942F369B01AC0168A179A18AA179
:105750009BA10E94F7329B01AC01C401B3010E94DE
:105760002F369B01AC01C601B5010E94F6325B01E8
:105770006C0129893A894B895C890E94DB33882333
:105780000CF040C069897A898B899C8929853A8582
:105790004B855C850E94DB33882319F4B2E0BF8F10
:1057A00002C0E1E0EF8F6D897E898F89988D29890C
:1057B0003A894B895C890E94F6329B01AC010E94B8
:1057C000F7327B018C0168A179A18AA19BA12D856B
:1057D0003E854F8558890E94F7329B01AC01C80174
:1057E000B7010E94E2333B014C01A988BA88CB88FB
:1057F000DC888D859E85AF85B88988A399A3AAA3E7
:10580000BBA3B0C068A179A18AA19BA1A8019701FF
:105810000E94F73268A379A38AA39BA3A3C06D85D6
:105820007E858F859889A40193010E942F369B0164
:10583000AC01C601B5010E94F6327B018C012985BD
:105840003A854B855C850E94DB3387FD03C0570199
:10585000680188C0C601B50129853A854B855C85FC
:105860000E94F6322D853E854F8558890E94E2338D
:105870003B014C01A984BA84CB84DC8492E09F8FE5
:1058800071C0C401B301A98DBA8D91962D913D913E
:105890004D915C9194970E942F367B018C0168A1F9
:1058A00079A18AA19BA1A80197010E94F23518163F
:1058B000ACF5C801B70120E030E040E05FEB0E94AA
:1058C0002F369B01AC0168A179A18AA19BA10E94FE
:1058D000F7329B01AC01C401B3010E942F369B013A
:1058E000AC01C601B5010E94F6321B012C012D81CD
:1058F0003E814F8158850E94F23518167CF468A1CC
:1059000079A18AA19BA1A80197010E94F63268A300
:1059100079A38AA39BA36201510124C0C601B501EA
:105920002D813E814F8158850E94F6329B01AC014A
:105930000E94F7327B018C0168A179A18AA19BA109
:1059400029813A814B815C810E94F7329B01AC0135
:10595000C801B7010E94E2333B014C01AD80BE801B
:10596000CF80D88468A579A58AA59BA5A4019301B9
:105970000E94F73268A779A78AA79BA72CA53DA507
:105980004EA55FA50E94DB3388232CF46CA57DA572
:105990008EA59FA518C0C601B5012CA13DA14EA1A1
:1059A0005FA10E94F23518160CF56CA57DA58EA599
:1059B0009FA52EE333EC4EE259E30E94F7326CA729
:1059C0007DA78EA79FA728A539A54AA55BA50E94FC
:1059D000F6323B014C01C601B5012D813E814F815C
:1059E00058850E94F23518160CF492CE88A199A120
:1059F000AAA1BBA18093070690930806A09309066D
:105A0000B0930A069F8D90930206C601B5012091BE
:105A1000F6053091F7054091F8055091F9050E947F
:105A20002F366CAB7DAB8EAB9FAB0E94C8331B0196
:105A30002C016091F2057091F3058091F40590912D
:105A4000F5050E94C8333B014C01A20191010E945F
:105A5000F6320E945034A8ADB9AD6D937C93672B9C
:105A6000B1F580918906803291F580E090E0A0E068
:105A7000B0E08093070690930806A0930906B093C0
:105A80000A068093FE059093FF05A0930006B0934D
:105A900001062092F2053092F3054092F4055092EF
:105AA000F5050091EC051091ED05C201B1012091C1
:105AB000F6053091F7054091F8055091F9050E94DF
:105AC000E233F80165A376A387A390A702C168A576
:105AD00079A58AA59BA52091FE053091FF054091EF
