:100000000C9407030C9428030C9428030C942803E5
:100010000C9428030C9428030C9428030C942803B4
:100020000C9428030C9428030C9428030C942803A4
:100030000C9428030C9428030C9428030C94102689
:100040000C9428030C9434270C9428030C94280354
:100050000C9428030C9428030C9428030C94280374
:100060000C9428030C94E0200C949B200C942803FF
:100070000C9428030C9428030C9428030C94280354
:100080000C9428030C9428030C9428030C94280344
:100090000C9428030C9428030C9428030C94280334
:1000A0000C9428030C9428030C9428030C94280324
:1000B0000C9428030C9428030C9428030C94280314
:1000C0000C9428030C9428030C9428030C94280304
:1000D0000C9428030C9428030C9428030C942803F4
:1000E0000C942803084AD73B3BCE016E84BCBFFD6D
:1000F000C12F3D6C74319ABD56833DDA3D00C77FF8
:1001000011BED9E4BB4C3E916BAAAABE0000008090
:100110003F05A84CCDB2D44EB93836A9020C50B91F
:10012000918688083CA6AAAA2ABE000000803F0D3E
:100130000A004261642064656772656573207661B8
:100140006C7565205B2D3336302E2E3336305D20B6
:100150000D0A00496E76616C696420636F6D6D6194
:100160006E640D0A004D6F64616C2067726F75706C
:100170002076696F6C6174696F6E0D0A00466C6F52
:100180006174696E6720706F696E74206572726F3A
:10019000720D0A00556E737570706F72746564200D
:1001A00073746174656D656E740D0A0045787065D1
:1001B0006374656420636F6D6D616E64206C65743B
:1001C0007465720D0A00426164206E756D6265721D
:1001D00020666F726D61740D0A006572726F723AFB
:1001E00020006F6B0D0A000D0A27242720746F2052
:1001F00064756D702063757272656E7420736574BA
:1002000074696E67730D0A000D0A4772626C2030C4
:100210002E383433202D3E203420617865732058E9
:100220002C20592C205A2C20412028726F74617286
:100230007929000D0A4D6567613235363000576106
:10024000726E696E673A204661696C656420746FEE
:10025000207265616420454550524F4D207365748E
:1002600074696E67732E205573696E6720646566C6
:1002700061756C74732E0D0A0053746F726564207F
:100280006E65772073657474696E670D0A00556E2C
:100290006B6E6F776E20706172616D657465720D43
:1002A0000A00537465702070756C7365206D7573EA
:1002B00074206265203E3D2033206D6963726F7348
:1002C00065636F6E64730D0A0053746570732F64F9
:1002D00065672E206D757374206265203E3D202D6C
:1002E0003336302E3020616E64203C3D2033363072
:1002F0002E300D0A0053746570732F6D6D206D756F
:100300007374206265203E20302E300D0A000D0AE5
:100310002724783D76616C75652720746F2073659E
:100320007420706172616D65746572206F72206AED
:100330007573742027242720746F2064756D7020D6
:1003400063757272656E742073657474696E677319
:100350000D0A00202873746570706572733A20303E
:10036000203D2064697361626C65642C2031203DFE
:1003700020656E61626C6564290D0A00243130309D
:1003800030203D200020286D6178696D756D2073E7
:1003900070696E646C6520737065656420696E2099
:1003A00052504D290D0A00243134203D20002028D0
:1003B00064656661756C74207370696E646C652029
:1003C000737065656420696E2052504D290D0A00D6
:1003D000243133203D2000202850574D206F6E20BF
:1003E0005370696E646C653A2030203D20646973F7
:1003F00061626C65642C2031203D20656E61626C09
:100400006564290D0A00243132203D200020286334
:100410006F726E6572696E67206A756E6374696F5C
:100420006E20646576696174696F6E20696E206DF7
:100430006D290D0A00243131203D20002028616300
:1004400063656C65726174696F6E20696E206D6D95
:100450002F7365635E32290D0A00243130203D2060
:1004600000290D0A0020287374657020706F727463
:1004700020696E76657274206D61736B206C696D96
:1004800069742E2062696E617279203D20002439E2
:10049000203D2000290D0A0020287374657020700B
:1004A0006F727420696E76657274206D61736B2E45
:1004B0002062696E617279203D20002438203D2041
:1004C0000020286D6D2F617263207365676D656E06
:1004D00074290D0A002437203D200020286D6D2F3F
:1004E0006D696E2064656661756C74207365656BFB
:1004F0002072617465290D0A002436203D200020F9
:10050000286D6D2F6D696E2064656661756C742051
:10051000666565642072617465290D0A00243520C2
:100520003D200020286D6963726F7365636F6E6490
:100530007320737465702070756C7365290D0A00E3
:100540002434203D2000202873746570732F646567
:10055000672E2061290D0A002433203D2000202829
:1005600073746570732F6D6D207A290D0A00243223
:10057000203D2000202873746570732F6D6D2079E5
:10058000290D0A002431203D200020287374657055
:10059000732F6D6D2078290D0A002430203D200036
:1005A0000D0A00302E383433202D3E20342061785F
:1005B000657320582C20592C205A2C204120287259
:1005C0006F7461727929002456455253494F4E2069
:1005D0003D2000494E46494E4954594E414ECDCCDE
:1005E000CC3D0AD7233C17B7D13877CC2B32959521
:1005F000E6241FB14F0A000020410000C84200401D
:100600001C4620BCBE4CCA1B0E5AAEC59D7411249C
:100610001FBECFEFD1E2DEBFCDBF00E00CBF12E0C6
:10062000A0E0B2E0E2E5F3E600E00BBF02C0079015
:100630000D92A631B107D9F71EE0A6E1B2E001C0E4
:100640001D92AB38B107E1F70E94700F0C94A731EF
:100650000C940000109216023A9A389A429A409AE4
:100660000895429A409A08951F93182F8091160278
:10067000181771F00E94D11C113011F4409806C077
:10068000123011F4429802C0429A409A1093160216
:100690001F910895F999FECF92BD81BD81E08FBB76
:1006A00080B50895F894F999FECF92BD81BD81E09F
:1006B0008FBB90B59627892F862319F060BD84E003
:1006C00004C0992321F060BD84E28FBBF99A78942D
:1006D00008958F929F92AF92BF92CF92DF92EF9246
:1006E000FF920F93DF93CF930F920F92CDB7DEB7A8
:1006F0005C016B017A014A0100E01EC0002319F081
:1007000021E030E008C0202F332727FD3095222735
:10071000330F221F3327F60161916F01062F020F5D
:100720009C012F5F3F4F3A8329830E945203089414
:100730008108910889819A8181149104F9F6C70191
:100740008A0D9B1D602F0E9452030F900F90CF9136
:10075000DF910F91FF90EF90DF90CF90BF90AF901F
:100760009F908F900895CF93DF93EC01FA019B0146
:1007700090E0B1E019C0F999FECF32BD21BDBFBBF9
:10078000A0B5992319F081E090E008C0892F99273E
:1007900087FD90958827990F881F99272F5F3F4FD6
:1007A0009A2F980FA9933197309729F7460F571F23
:1007B000F999FECF52BD41BD81E08FBB80B520E0ED
:1007C00030E0981711F421E030E0C901DF91CF91BA
:1007D00008956F927F928F929F92AF92BF92CF9225
:1007E000DF92EF92FF920F931F9339014A010E940B
:1007F000962C2091580E3091590E40915A0E5091DE
:100800005B0E0E94FB2B60938C0C70938D0C80937D
:100810008E0C90938F0CC401B3010E94962C2091F2
:100820005C0E30915D0E40915E0E50915F0E0E9405
:10083000FB2B6093900C7093910C8093920C90938F
:10084000930CC801B7010E94962C2091600E309144
:10085000610E4091620E5091630E0E94FB2B6093DB
:10086000940C7093950C8093960C9093970CC60102
:10087000B5010E94962C2091640E3091650E409136
:10088000660E5091670E0E94FB2B6093980C70933C
:10089000990C80939A0C90939B0C1F910F91FF9051
:1008A000EF90DF90CF90BF90AF909F908F907F9010
:1008B0006F90089580E1ECE8FCE0DF011D928A95DD
:1008C000E9F7089586E2ECE7FCE0DF011D928A95E6
:1008D000E9F780916A0E90916B0EA0916C0EB09129
:1008E0006D0E8093840C9093850CA093860CB0932E
:1008F000870C10929F0C91E09093A00C82E0809363
:10090000A10C9093800C08950F931F93CF93DF93C6
:10091000EC018B01D9018C91FA01E80FF11DE08106
:10092000EE23B1F0E883E154EA3110F082E00EC02A
:100930008C918F5F8C93CA01B901A8010E94731436
:10094000892B19F021E030E005C081E080937C0C18
:1009500020E030E0C901DF91CF911F910F91089500
:100960002F923F924F925F926F927F928F929F92BF
:10097000AF92BF92CF92DF92EF92FF920F931F93AD
:10098000DF93CF93CDB7DEB7E3970FB6F894DEBF12
:100990000FBECDBF3C01198280E1FE013796DF0119
:1009A000482F1D924A95E9F7FE017796DF011D92C7
:1009B0008A95E9F710927C0C1FA61EA61DA61CA600
:1009C00013E0812E912C8C0E9D1E2E010894411C4B
:1009D000511CB1E02B2E312CA3E0AA2E01E0F2E055
:1009E000BF2E9CC1CB80DC80ED80FE80C701B601AC
:1009F0000E94972F0E94632C9B014A81473421F06B
:100A00004D3409F08BC11CC16E317105C9F16F31D4
:100A10007105D4F46431710584F461317105A4F574
:100A20006430710569F1653071051CF4772354F564
:100A300025C06A30710511F523C06631710554F186
:100A40006C317105D9F41CC06C3571058CF46A35B4
:100A50007105E4F46C3371053CF466337105E4F41C
:100A60006533710559F40CC06035710539F40AC05D
:100A70006C35710529F06F35710554F010E00DC02B
:100A800011E00BC012E009C013E007C014E005C07C
:100A900016E003C017E001C019E02531310509F463
:100AA00095C026313105A4F52430310509F467C01D
:100AB00025303105A4F42130310509F466C0223017
:100AC000310524F4232B09F45DC00EC12230310519
:100AD00009F45EC02330310509F006C15CC0223143
:100AE000310509F462C0233131054CF42A30310557
:100AF00009F443C02131310509F0F6C04FC023315C
:100B0000310509F459C02431310509F0EDC05BC04D
:100B10002035310509F46AC021353105ACF425339F
:100B2000310509F459C0263331054CF42C31310517
:100B300009F44FC02E31310509F0D6C04AC02C331C
:100B400031050CF0D1C04BC02C35310509F458C02B
:100B50002D3531054CF42A35310509F44BC02B35C0
:100B6000310509F0C1C049C02D35310509F462C015
:100B70002E35310509F0B8C060C0B2E059C0E1E0DF
:100B8000ECA7B4C010927D0CB1C000937D0CAEC038
:100B9000B0927D0CABC0A0927D0CA8C010929F0CAF
:100BA0000093A00CB092A10CA1C010929F0CB09227
:100BB000A00C0093A10C9AC000939F0CB092A00CC3
:100BC0001092A10C93C000937F0C90C010927F0CE8
:100BD0008DC0F3E0FCA78AC041E04DA787C0263353
:100BE000310509F081C01092B50C80C054E05093DB
:100BF0007D0C7CC00093800C79C01092800C76C074
:100C0000C701B60120E030E040E251E40E94C92E65
:100C10000E94972F0E94632C83E06839780739F08F
:100C20006959734009F060C0A5E0ACA75FC0B4E0AB
:100C3000BCA75CC000937E0C59C010927E0C56C0BD
:100C40006630710534F46330710554F4772334F45D
:100C500003C06E31710511F010E003C015E001C052
:100C600018E02430310581F12530310584F421303C
:100C7000310509F1223031051CF4232BE1F034C099
:100C800022303105D9F02330310571F51AC02830F2
:100C9000310521F1293031053CF425303105C1F011
:100CA0002730310509F517C029303105D1F02E3133
:100CB0003105D1F403C00093810C18C0B092810CAF
:100CC00015C00093820C12C0EFEFE093820C0EC0AF
:100CD0001092820C0BC0B092830C08C00093830C5E
:100CE00005C01092830C02C0A0927C0C1123B1F0BD
:100CF000910102C0220F331F1A95E2F78EA59FA51E
:100D000082239323892B21F0F5E0F0937C0C06C01D
:100D10004EA55FA5422B532B5FA74EA7CE0102968F
:100D2000B401A30192010E948404892B09F05ACED8
:100D300080917C0C882309F0F5C51982882418AAB3
:100D400019AA50E85AAB6FEB6BAB0F2EF0E0AF2E49
:100D5000F0E0BF2EF0E0CF2EF0E0DF2EF02DA8A6C1
:100D6000B9A6CAA6DBA61FA2E2E02E2E312C2C0EBD
:100D70003D1E2E010894411C511C76E0972E6BC13C
:100D80001A811F34D4F41D340CF065C1173409F4F2
:100D900062C118343CF4113409F42CC1163409F042
:100DA0004BC124C019340CF447C12B813C814D81C7
:100DB0005E811C340CF455C077C0143509F4B6C0FC
:100DC000153554F4123509F47CC013350CF095C078
:100DD000103509F031C170C0193509F4D9C01A3580
:100DE00009F4EFC0183509F027C1B9C0EB80FC80C9
:100DF0000D811E81C801B70120E030E040E050E0E5
:100E00000E94F42B181614F090927C0C80917E0CAA
:100E1000882381F080917F0C882309F418C1C801D0
:100E2000B70123E333E34BEC51E40E94C92E7B016D
:100E30008C010DC180917F0C882351F0C801B7014E
:100E400023E333E34BEC51E40E94C92E7B018C0178
:100E5000E092840CF092850C0093860C1093870C22
:100E6000EEC0C901DA019C01AD0180917F0C88239D
:100E700051F0CA01B90123E333E34BEC51E40E9482
:100E8000C92E9B01AC01E12FFF27E7FDF095E95446
:100E9000F040EE0FFF1FEE0FFF1FE40DF51D268B38
:100EA000378B408F518FCBC0B901CA010E94972F59
:100EB0000E94682C6FA3C3C0AB80BC80CD80DE8055
:100EC000BEC08B819C81AD81BE8188A799A7AAA74E
:100ED000BBA780917F0C882309F4B1C068A579A5D0
:100EE0008AA59BA523E333E34BEC51E40E94C92E72
:100EF00068A779A78AA79BA7A2C0EB80FC800D8179
:100F00001E81C801B70120E030E040E050E00E94BF
:100F1000F42B882314F490927C0CC801B7010E9432
:100F2000682C70939E0C60939D0C89C0EB80FC80B4
:100F30000D811E81C801B70120E030E040E050E0A3
:100F40000E94F42B882314F490927C0CC801B70102
:100F50000E94972F0E94682C60939C0C70C02B817C
:100F60003C814D815E8180917F0C882351F0CA01C4
:100F7000B90123E333E34BEC51E40E94C92E9B01FA
:100F8000AC012F83388749875A8791E0892A57C057
:100F90002B813C814D815E8180917F0C882351F0B3
:100FA000CA01B90123E333E34BEC51E40E94C92E9B
:100FB0009B01AC012B873C874D875E87A2E08A2A84
:100FC0003EC02B813C814D815E8180917F0C8823C6
:100FD00051F0CA01B90123E333E34BEC51E40E9421
:100FE000C92E9B01AC012F87388B498B5A8BB4E0FB
:100FF0008B2A25C0EB80FC800D811E81C801B701C2
:1010000020E030E044EB53EC0E94F42B87FD0AC053
:10101000C801B70120E030E044EB53E40E94F72D13
:1010200018161CF4E7E0E0937C0CEB8AFC8A0D8B2D
:101030001E8BF8E08F2A03C043E040937C0C28A964
:1010400039A94AA95BA9C901DA017C018D01E8AA85
:10105000F9AA0AAB1BABC101BE016D5F7F4FA301B3
:1010600092010E948404892B09F08ACE982C28A929
:1010700039A94AA95BA9C901DA011C012D01809196
:101080007C0C882309F04EC460919D0C70919E0CDD
:101090008091820C0E945D258091830C0E94340314
:1010A0005CA5533009F457C0543028F4513061F036
:1010B000523041F419C06CA5643009F4EFC06530BA
:1010C00009F443C1982C4AC1C601B50120E030E0C3
:1010D00040E050E00E94F42B88230CF4E1C0C601EC
:1010E000B5010E9420103AC17FA1723049F4C601B7
:1010F000B5010E94972F0E94632C6130710521F089
:1011000083E080937C0C29C1882009F4C9C0AE011A
:10111000495F5F4FE6EBFCE020E030E0682D70E0D7
:10112000CB01022E02C0959587950A94E2F780FFC5
:1011300009C0DA01ED90FD900D911C91E082F182E1
:10114000028313832F5F3F4F4C5F5F4F34962430F1
:10115000310531F702C1882009F49DC08E01095F75
:101160001F4F3CE8C32E3CE0D32E26ECA22E2CE0F1
:10117000B22EEE24FF249924C4010E2C02C09595B2
:1011800087950A94E2F780FF40C08091800C882305
:1011900049F1E091B50CF0E0EE0FFF1FEE0FFF1FDD
:1011A000EE0DFF1DEE0FFF1FEE0FFF1FEA54F34F72
:1011B0006081718182819381F50120813181428139
:1011C00053810E941B2B9B01AC01D8016D917D9135
:1011D0008D919C910E941B2BF80160837183828307
:1011E00093831DC0D8016D917D918D919C91F601E5
:1011F00020813181428153810E941B2BD8016D9344
:101200007D938D939C9313970AC0F6018081918101
:10121000A281B381F80180839183A283B383089470
:10122000E11CF11C0C5F1F4F44E050E0C40ED51EC2
:10123000A40EB51E54E0E516F10409F09DCF00D0D0
:101240000F920F926F81788589859A852B853C85D1
:101250004D855E85EF84F88809891A89AB88BC883A
:10126000CD88DE8860906E0E70906F0E8090700E4C
:101270009090710EADB7BEB711966D927D928D9222
:101280009C92149715961C920E9474100F900F90C8
:101290000F900F900F900E9412105FC0882021F4D1
:1012A00086E080937C0C5AC00CE8A02E0CE0B02E97
:1012B000EE24FF24CC24DD24992417E0612E712C28
:1012C0006C0E7D1EC4010E2C02C0959587950A9464
:1012D000E2F780FF2BC086010E55134FE091B50C4D
:1012E000F0E0EE0FFF1FEE0FFF1FEE0DFF1DEE0FE4
:1012F000FF1FEE0FFF1FEA54F34FD5016D917D9153
:101300008D919C9120813181428153810E941A2BC1
:10131000F301EC0DFD1D20813181428153810E943A
:101320001A2BF80164A375A386A397A30894E11C64
:10133000F11C44E050E0A40EB51EC40ED51E54E0CE
:10134000E516F10409F0BECF08C080E1E6ECFCE050
:10135000DF011D928A95E9F701C09924BEA5B2FD6F
:1013600003C0992009F4D2C280917E0C882389F0B1
:10137000C201B10120E030E040E050E00E94F42BD7
:1013800088233CF480917D0C843019F086E08093B2
:101390007C0CEDA5EE2339F080917D0C823018F0A5
:1013A00086E080937C0C80917C0C882309F0BAC283
:1013B0008E01095F1F4F76ECA72E7CE0B72E6CE8FC
:1013C000C62E6CE0D62EEE24FF24692C7724C301B0
:1013D0000E2C02C0959587950A94E2F780FF44C0D1
:1013E000FDA5FF2309F04AC08091800C882351F1AC
:1013F000E091B50CF0E0EE0FFF1FEE0FFF1FEE0DBA
:10140000FF1DEE0FFF1FEE0FFF1FEA54F34F608129
:10141000718182819381D5012D913D914D915C9196
:101420000E941B2B9B01AC01F801608171818281BC
:1014300093810E941B2BD8016D937D938D939C9378
:1014400013971CC0F8016081718182819381D6015C
:101450002D913D914D915C910E941B2BF801608371
:101460007183828393830AC0F60180819181A28176
:10147000B381F80180839183A283B3830894E11C34
:10148000F11C0C5F1F4F44E050E0A40EB51EC40ECB
:10149000D51E54E0E516F10409F099CF80917D0C3A
:1014A000843048F4823008F070C0882359F08130CD
:1014B00009F01FC230C0843009F01BC2992009F422
:1014C00018C2ABC0992009F4A8C000D00F920F92A7
:1014D0006F81788589859A852B853C854D855E85CC
:1014E000EF84F88809891A89AB88BC88CD88DE88A2
:1014F00060906E0E70906F0E8090700E9090710ED6
:10150000ADB7BEB711966D927D928D929C92149755
:1015100015961C9237C0992009F47FC02F8038841B
:1015200049845A846B847C848D849E84EF84F888FB
:1015300009891A89AB88BC88CD88DE8860917E0CC9
:10154000662361F4B091840CB8ABE091850CE9ABF3
:10155000F091860CFAAB4091870C4BAB00D00F9208
:101560000F9228A939A94AA95BA9C901DA01EDB7E7
:10157000FEB781839283A383B4836583C201B101E3
:10158000A40193010E947410AFC181E090E000902B
:10159000A10C02C0880F991F0A94E2F78095892157
:1015A000E1F168A579A58AA59BA520E030E040E09F
:1015B00050E00E94F42B8823A1F5E0919F0CF0E00D
:1015C000EE0FFF1FEE0FFF1F8E010F5F1F4FE00F8B
:1015D000F11F66897789808D918D20E030E040E0B1
:1015E00050E00E94F42B8823E1F48091A00C90E05D
:1015F000880F991F880F991F080F191FD801569639
:101600006D917D918D919C91599720E030E040E063
:1016100050E00E94F42B882321F486E080937C0C18
:1016200068C168A579A58AA59BA520E030E040E0C7
:1016300050E00E94F42B8E010F5F1F4F882309F4A6
:10164000EFC0E0919F0CF0E0EE0FFF1FEE0FFF1FC9
:10165000D801AE0FBF1FE457F34F16966D917D91E1
:101660008D919C91199720813181428153810E94F3
:101670001A2B1B012C01E091A00CF0E0EE0FFF1FD4
:10168000EE0FFF1F0E0F1F1FE457F34FD8011696E2
:101690006D917D918D919C9119972081318142812D
:1016A00053810E941A2B3B014C0180E1FE01779689
:1016B000DF011D928A95E9F768A579A58AA59BA502
:1016C00020E030E040E850E40E94C92E28A539A56A
:1016D0004AA55BA50E94C92E7B018C01C201B10104
:1016E000A20191010E94C92E9B01AC01C801B70162
:1016F0000E941A2B7B018C01C401B301A401930148
:101700000E94C92E9B01AC01C801B7010E941A2B8F
:101710000E94562F7B018C01C201B101A4019301EB
:101720000E94042E9B01AC0117FB109517F9109530
:10173000C801B7010E94FB2B6B017C01A701960138
:101740000E949E2F882321F084E080937C0CEAC0C5
:1017500080917D0C833021F4F7FAF094F7F8F0943F
:1017600068A579A58AA59BA520E030E040E050E07F
:101770000E94F42B88236CF4F7FAF094F7F8F094B5
:1017800048A559A56AA57BA5705848A759A76AA777
:101790007BA700919F0CA02EBB24AA0CBB1CAA0CFB
:1017A000BB1C8E010F5F1F4FA00EB11EC401B30101
:1017B000A70196010E94C92E9B01AC01C201B10193
:1017C0000E941A2B20E030E040E05FE30E94C92E27
:1017D000D50156966D937D938D939C9359978091E7
:1017E000A00C90E0880F991F880F991F080F191FF0
:1017F000C201B101A70196010E94C92E9B01AC0153
:10180000C401B3010E941B2B20E030E040E05FE305
:101810000E94C92EF801668B778B808F918F23C031
:10182000E0919F0CF0E0EE0FFF1FEE0FFF1FE00FA7
:10183000F11F66897789808D918D2091A00C30E011
:10184000220F331F220F331F020F131FD80156968A
:101850002D913D914D915C9159970E94042E68A75E
:1018600079A78AA79BA790917D0C20919F0C00914E
:10187000A00CE090A10C80907E0C882061F4B091C7
:10188000840CB8ABE091850CE9ABF091860CFAAB17
:101890004091870C4BAB00D00F920F92EDB7FEB783
:1018A000319648A559A56AA57BA5ADB7BEB71196D7
:1018B0004D935D936D937C93149780E0923009F47F
:1018C00081E084838CE89CE0BE01695F7F4FAE01BC
:1018D000495E5F4F38A9E9A9FAA9ABA9A32EBE2E8C
:1018E000CF2EDA2E0E94C9100F900F900F900F90FC
:1018F0000F9080917C0C8823A9F4ACE8BCE0FE0139
:10190000379680E101900D928150E1F78091810C32
:10191000882331F00E94D11C1092A40C1092810CEB
:1019200080917C0CE3960FB6F894DEBF0FBECDBF5E
:10193000CF91DF911F910F91FF90EF90DF90CF90AB
:10194000BF90AF909F908F907F906F905F904F90DF
:101950003F902F90089587B1877887B908952F9287
:101960003F924F925F926F927F928F929F92AF922F
:10197000BF92CF92DF92EF92FF920F931F93DF936C
:10198000CF93CDB7DEB7E3970FB6F894DEBF0FBEA7
:10199000CDBF89AB6AAB4BAB222E902E56016701AF
:1019A000FE01319680E1DF011D928A95E9F7B9A920
:1019B000BB2371F06091580E7091590E80915A0EB0
:1019C00090915B0E0E94992E69837A838B839C830E
:1019D0002AA9222371F060915C0E70915D0E8091B6
:1019E0005E0E90915F0E0E94992E6D837E838F8391
:1019F00098873BA9332371F06091600E7091610E5E
:101A00008091620E9091630E0E94992E69877A8769
:101A10008B879C87222071F06091640E7091650E17
:101A20008091660E9091670E0E94992E6D877E8739
:101A30008F87988B8D859E85AF85B88949845A8418
:101A40006B847C84481659066A067B0610F42C01C8
:101A50003D018D819E81AF81B885481659066A0681
:101A60007B0610F42C013D0189819A81AB81BC81F8
:101A7000481659066A067B0610F42C013D0149A957
:101A8000642F70E05AA9650F711D8BA9680F711D35
:101A9000620D711D882777FD8095982F0E94962CE6
:101AA0000E94562F7B018C01C301B2010E94942C2D
:101AB000A80197010E94FB2B7B018C012091780EDD
:101AC0003091790E40917A0E50917B0E0E94C92E72
:101AD00020E030E84BE355E40E94FB2B0E94E12B11
:101AE0000E94682C6DA77EA78FA798ABC801B7018D
:101AF000A60195010E94C92E9B01AC0160EC71EE1C
:101B000084E69CE40E94FB2B0E94992E6B017C01D1
:101B10001091720E992011F08AEA1827D301C201A0
:101B2000B695A79597958795882499245401881A86
:101B3000990AAA0ABB0A8091690E28EF34E241E0B3
:101B400050E0281B3109410951092D8F3E8F4F8FDD
:101B500058A389A69AA6ABA6BCA68DA29EA2AFA2A8
:101B6000B8A689A29AA2ABA2BCA288EF94E2A1E097
:101B7000B0E0898B9A8BAB8BBC8B198E1A8E1B8E27
:101B80001C8E20E137E240E050E02D8B3E8B4F8BE6
:101B9000588F33243394312639A93323C1F08981F6
:101BA0009A81AB81BC81880E991EAA1EBB1E181497
:101BB00019041A041B045CF4369903C0012F19AAF6
:101BC00001C0032D84189508A608B70801C0012F8D
:101BD0004AA9442339F18D819E81AF81B88529A519
:101BE0003AA54BA55CA5280F391F4A1F5B1F29A7E3
:101BF0003AA74BA75CA7121613061406150694F411
:101C0000359902C01AAA02C034E0032789A59AA513
:101C1000ABA5BCA584199509A609B70989A79AA7F8
:101C2000ABA7BCA79BA9992339F189859A85AB8578
:101C3000BC852DA13EA14FA158A5280F391F4A1FD1
:101C40005B1F2DA33EA34FA358A71216130614061D
:101C5000150694F4349902C01BAA02C030E1032790
:101C60008DA19EA1AFA1B8A584199509A609B709B0
:101C70008DA39EA3AFA3B8A7222039F18D859E85A1
:101C8000AF85B88929A13AA14BA15CA1280F391FC2
:101C90004A1F5B1F29A33AA34BA35CA3121613068A
:101CA0001406150694F4339902C0222402C030E4CD
:101CB000032789A19AA1ABA1BCA184199509A60902
:101CC000B70989A39AA3ABA3BCA30E94C51F99A976
:101CD000992349F4AAA9AA2331F4BBA9BB2319F477
:101CE000222009F477C08091A20C882309F072C0E9
:101CF00082B105758A7A082B02B96091690E70E08D
:101D000080E090E00E94331412B96D8D7E8D8F8D2E
:101D100098A10E94331429893A894B895C89C2169B
:101D2000D306E406F50608F037CF8D899E89AF8982
:101D3000B88D820F931FA41FB51F8D8B9E8BAF8B09
:101D4000B88F81322EE4920720E0A20720E0B2078C
:101D500008F422CF80529E44A040B0408D8B9E8BD1
:101D6000AF8BB88F898D9A8DAB8DBC8D2DA53EA57F
:101D70004FA558A9820F931FA41FB51F898F9A8F53
:101D8000AB8FBC8F60E077E883E993E0298D3A8DD3
:101D90004B8D5C8D0E94D92FC901DA01898B9A8BFA
:101DA000AB8BBC8B8C159D05AE05BF0520F4C98A95
:101DB000DA8AEB8AFC8A8091690E29893A894B89F3
:101DC0005C89281B3109410951092D8F3E8F4F8FA6
:101DD00058A3E2CEE3960FB6F894DEBF0FBECDBF98
:101DE000CF91DF911F910F91FF90EF90DF90CF90F7
:101DF000BF90AF909F908F907F906F905F904F902B
:101E00003F902F900895CF92DF92EF92FF920F9321
:101E10001F930E94D11C16B1C0906E0ED0906F0E11
:101E2000E090700EF090710E80E060E041E020E004
:101E300001E00E94AF0CC0906E0ED0906F0EE0904B
:101E4000700EF090710E81E061E040E020E00E94B1
:101E5000AF0CC0906E0ED0906F0EE090700EF090B0
:101E6000710E80E060E040E021E00E94AF0C82E370
:101E700090E00E94291486B18127887790E0BC0108
:101E8000E5E076956795EA95E1F76170AC0174E05D
:101E9000569547957A95E1F7417053E09695879569
:101EA0005A95E1F7282F2170C0906A0ED0906B0EE2
:101EB000E0906C0EF0906D0E33E0969587953A9514
:101EC000E1F7817000E00E94AF0C82E390E00E9495
:101ED00029141F910F91FF90EF90DF90CF900895FC
:101EE0002F923F924F925F926F927F928F929F922A
:101EF000AF92BF92CF92DF92EF92FF920F931F9318
:101F0000DF93CF93CDB7DEB7A0970FB6F894DEBFBF
:101F10000FBECDBF60E071EE80E090E00E944D20EA
:101F20000E9427267894E2EAFCE086E3DF011D9216
:101F30008A95E9F781E08093A20C3E010894611C28
:101F4000711C91E1892E912C8C0E9D1E2F0186E330
:101F5000282E332433948091A20C882309F45DC089
:101F6000D301E5EAFCE080E101900D928150E1F7B8
:101F7000D401E6EBFCE080E101900D928150E1F7A5
:101F8000F201822D11928A95E9F70E94DB200E94CE
:101F9000D7240E946C1E0E9478180E9462040E943E
:101FA00047250E94AB0C0E942A030E942027A5EA25
:101FB000BCE0F30180E101900D928150E1F7A6EBC6
:101FC000BCE0F40180E101900D928150E1F769815C
:101FD0007A818B819C812D813E814F815885E98456
:101FE000FA840B851C85AD84BE84CF84D8880E947A
:101FF000E90369817A818B819C812D813E814F81AA
:102000005885E984FA840B851C85AD84BE84CF8411
:10201000D8880E94DB143092A40C0E94C51F0E9435
:10202000FC1F99CF0E94030F0E945A040E9470184F
:1020300080E1E5EAFCE0DF011D928A95E9F7089569
:10204000EF92FF920F931F93CF93DF937B018C014D
:1020500020E030E040EA51E40E94C92E0E94D12CD9
:102060000E94682CEB010E94D11CC801B70120E03E
:1020700030E04AE754E40E94C92E7B018C0182E3E0
:1020800090E0C89FB001C99F700DD89F700D1124BA
:1020900080E090E00E94942C9B01AC01C801B70144
:1020A0000E941A2B0E94D12C0E94682CDC01CB01CB
:1020B0000E94291400E911E00EC00E94C51F809102
:1020C000A20C882351F484EF91E0F8013197F1F7E5
:1020D0000197D9F72197209781F7DF91CF911F9131
:1020E0000F91FF90EF9008952F923F924F925F9241
:1020F0006F927F928F929F92AF92BF92CF92DF9218
:10210000EF92FF920F931F93DF93CF93CDB7DEB77C
:102110003B014C0119012A010E94C51F8091A20CAC
:10212000882321F50E94D1148823B1F700D00F92A3
:102130000F928E899F89A88DB98DEDB7FEB78183E7
:102140009283A383B4838A8D8583C401B301A201E2
:1021500091010E948C180F900F900F900F900F908C
:102160008091A40C882311F00E94B826CF91DF91B2
:102170001F910F91FF90EF90DF90CF90BF90AF90A5
:102180009F908F907F906F905F904F903F902F9097
:1021900008952F923F924F925F926F927F928F920B
:1021A0009F92AF92BF92CF92DF92EF92FF920F93E6
:1021B0001F93DF93CF93CDB7DEB7CE54D0400FB689
:1021C000F894DEBF0FBECDBF3C017EAF6DAF219650
:1021D0005FAF4EAF219722962FAF229723960FAF76
:1021E00023972496EFAE24972896ACAEBDAECEAE24
:1021F000DFAE289729968FAE2997E22EFF24EE0CAA
:10220000FF1CEE0CFF1C4E0D5F1D5CAF4BAFDA01E7
:102210002D903D904D905C90FC01EE0DFF1DC20194
:10222000B10120813181428153810E941B2B69AB16
:102230007AAB8BAB9CAB10E0000F111F000F111F8E
:102240002196EEADFFAD2197E00FF11FFAAFE9AF98
:10225000A080B180C280D380F301E00FF11FC601DE
:10226000B50120813181428153810E941B2B6DA7D2
:102270007EA78FA798AB24962FAD2497E22FF0E08E
:10228000EE0FFF1FEE0FFF1F6E0E7F1ED3018D910D
:102290009D910D90BC91A02D8DAB9EABAFABB8AF17
:1022A0002DAD3EADE20FF31F60817181828193817C
:1022B0002DA93EA94FA958AD0E941A2B69A77AA74C
:1022C0008BA79CA7D201C101B0588DA39EA3AFA339
:1022D000B8A7A6019501505829A33AA34BA35CA324
:1022E0004DAD5EADE40EF51ED7016D917D918D91E2
:1022F0009C9129A93AA94BA95CA90E941A2B3B01E0
:102300004C01EDADFEAD0E0F1F1FD8016D917D91FB
:102310008D919C912DA53EA54FA558A90E941A2BE1
:102320005B016C016DA17EA18FA198A5A60195010D
:102330000E94C92E7B018C0169A17AA18BA19CA16D
:10234000A40193010E94C92E9B01AC01C801B701F1
:102350000E941A2B1B012C016DA17EA18FA198A5B3
:10236000A40193010E94C92E7B018C0169A17AA16D
:102370008BA19CA1A60195010E94C92E9B01AC01D5
:10238000C801B7010E941B2B9B01AC01C201B10126
:102390000E948E2B5B016C0120E030E040E050E0B9
:1023A0000E94F42B882354F4C601B5012BED3FE0C5
:1023B00049EC50E40E941B2B5B016C01A9968FAD88
:1023C000A997882351F0C601B5012BED3FE049ECF8
:1023D00050E40E941A2B5B016C01C601B501A8965E
:1023E0002CAD3DAD4EAD5FADA8970E94C92E29A57D
:1023F0003AA54BA55CA50E94042E7B018C0120E030
:1024000030E040E050E00E94F42B882309F407C23A
:10241000C801B7012091740E3091750E4091760E6F
:102420005091770E0E94FB2B0E94D12C0E94682CA9
:1024300078A36F8F2996BFAD2997BB23A1F080E0C9
:1024400090E00E94942C9B01AC0128966CAD7DAD70
:102450008EAD9FAD28970E94C92E28966CAF7DAF98
:102460008EAF9FAF28972F8D38A1B90180E090E003
:102470000E94942C7B018C01C601B501A801970133
:102480000E94FB2B6B8F7C8F8D8F9E8F69A57AA509
:102490008BA59CA5A80197010E94FB2B6F8B788FC1
:1024A000898F9A8F6B8D7C8D8D8D9E8D20E030E095
:1024B00040E05FEB0E94C92E2B8D3C8D4D8D5E8DD3
:1024C0000E94C92E20E030E040E85FE30E941B2B11
:1024D0006B8B7C8B8D8B9E8B24963FAD2497E32F4B
:1024E000F0E0EE0FFF1FEE0FFF1FCE010196E80F89
:1024F000F91FADA8BEA8CFA8D8ACA082B182C28275
:10250000D38221E030E03E872D87882422965FAD7C
:102510002297452F50E0440F551F440F551F480F79
:10252000591F2B965FAF4EAF2B972396BFAD2397C6
:10253000AB2FB0E0AA0FBB1FAA0FBB1FA80FB91F7C
:102540002D96BFAFAEAF2D972F96FFAFEEAF2F9763
:1025500024C1E7E2E8150CF446C06DA17EA18FA16D
:1025600098A52B8D3C8D4D8D5E8D0E94C92E7B01D3
:102570008C0169A17AA18BA19CA12B893C894D89F1
:102580005E890E94C92E9B01AC01C801B7010E945F
:102590001B2B7B018C016DA17EA18FA198A52B899E
:1025A0003C894D895E890E94C92E5B016C0169A13D
:1025B0007AA18BA19CA12B8D3C8D4D8D5E8D0E94AF
:1025C000C92E9B01AC01C601B5010E941A2B6DA357
:1025D0007EA38FA398A78394C701D80189A39AA348
:1025E000ABA3BCA361C0AD84BE84B50180E090E024
:1025F0000E94942C2B8D3C8D4D8D5E8D0E94C92E9A
:102600007B018C01C8010E94F82B6F87788B898B26
:102610009A8BB701C8010E944C2F3B014C01ABAD16
:10262000BCADED90FD900D911C9117FB109517F925
:102630001095E9ADFAAD2080318042805380C80109
:10264000B7012F85388949895A890E94C92E5B01B3
:102650006C01C201B101A40193010E94C92E9B012A
:10266000AC01C601B5010E941B2B6DA37EA38FA3F5
:1026700098A7C801B701A40193010E94C92E7B014C
:102680008C01C201B1012F85388949895A890E947C
:10269000C92E9B01AC01C801B7010E941A2B69A386
:1026A0007AA38BA39CA3882469A97AA98BA99CA946
:1026B0002DA13EA14FA158A50E941B2B2B96AEAD7C
:1026C000BFAD2B976D937D938D939C9313976DA5C1
:1026D0007EA58FA598A929A13AA14BA15CA10E9432
:1026E0001B2B2D96EEADFFAD2D97608371838283FA
:1026F00093832F96AEADBFAD2F976D917D918D9148
:102700009C912F89388D498D5A8D0E941B2B2F96B5
:10271000EEADFFAD2F97608371838283938300D0EA
:102720000F920F9269817A818B819C812D813E81EC
:102730004F815885E984FA840B851C852896ACACBA
:10274000BDACCEACDFAC2897ADB7BEB71196AD929D
:10275000BD92CD92DC9214972996EFAD29971596EC
:10276000EC930F2EF0E0AF2EF0E0BF2EF0E0CF2E76
:10277000F0E0DF2EF02D0E9474100F900F900F905C
:102780000F900F908091A20C882309F048C02D85EE
:102790003E852F5F3F4F3E872D874D855E858F8D10
:1027A00098A14817590708F4D4CE00D00F920F9281
:1027B000ADADBEAD6D917D918D919C9113971496A9
:1027C0002D913D914D915C9117971896ED90FD904C
:1027D0000D911C911B972896ACACBDACCEACDFAC78
:1027E0002897ADB7BEB71196AD92BD92CD92DC924F
:1027F00014972996EFAD29971596EC930F2EF0E0DC
:10280000AF2EF0E0BF2EF0E0CF2EF0E0DF2EF02D67
:102810000E9474100F900F900F900F900F90C25B5A
:10282000DF4F0FB6F894DEBF0FBECDBFCF91DF9163
:102830001F910F91FF90EF90DF90CF90BF90AF90DE
:102840009F908F907F906F905F904F903F902F90D0
:10285000089520EA3FE004C0F9013197F1F70197AC
:102860000097D1F708951F93A0EABFE040E951E037
:1028700015E335E031C06A3071058105910540F4FA
:10288000232F2A95F1F7615070408040904024C07A
:10289000643671058105910540F4212F2A95F1F7E1
:1028A0006A5070408040904017C0683E23E0720735
:1028B00020E0820720E0920740F4FA013197F1F717
:1028C000645670408040904007C0FD013197F1F799
:1028D000685E7340804090406115710581059105E7
:1028E00051F61F910895AF92BF92CF92DF92EF926F
:1028F000FF920F931F93DF93CF930F920F92CDB759
:10290000DEB76C015B017A01FB0180818601080F53
:10291000111DC801BE016F5F7F4F0E941630F70185
:10292000608371838283938389819A818017910761
:1029300019F420E030E005C08C19F501808321E016
:1029400030E0C9010F900F90CF91DF911F910F914F
:10295000FF90EF90DF90CF90BF90AF90089590914F
:10296000EF0B8091F00B981741F08091F00B8F5F87
:10297000883209F480E08093F00B08959091EF0B7A
:102980008091F00B981719F420E030E008C0909186
:10299000F00B8FE3989F90011124295E3D4FC901F0
:1029A00008959091F00B20E08091F10B981709F4B5
:1029B00021E0822F0895AF92BF92CF92DF92EF92E3
:1029C000FF920F931F936093F20B7093F30B80931E
:1029D000F40B9093F50B2093F60B3093F70B409389
:1029E000F80B5093F90BE092FA0BF092FB0B00936B
:1029F000FC0B1093FD0BA092FE0BB092FF0BC0924C
:102A0000000CD092010C1F910F91FF90EF90DF907E
:102A1000CF90BF90AF9008958F929F92AF92BF9248
:102A2000CF92DF92EF92FF920F931F93CF93DF939A
:102A3000EC016B01009709F460C08EA1882309F0B6
:102A40005CC0E98CFA8C0B8D1C8DFB01B18CA28CC7
:102A5000938C848CC801B7012B2D3A2D492D582D0C
:102A60000E94F42B88230CF048C0C801B701A801CC
:102A700097010E94C92E7B018C016091780E7091A4
:102A8000790E80917A0E90917B0E905820E030E084
:102A900040E050EC0E94C92E29A13AA14BA15CA1B3
:102AA0000E94C92E9B01AC01C801B7010E941B2BDB
:102AB0000E94562F7B018C016B2D7A2D892D982D2C
:102AC0009701A8010E94F42B882324F4EB2CFA2C04
:102AD000092D182D6B2D7A2D892D982D9701A80180
:102AE0000E94F42B882349F0C701D801F601818F99
:102AF000928FA38FB48F81E085A3DF91CF911F9137
:102B00000F91FF90EF90DF90CF90BF90AF909F908C
:102B10008F9008952F923F924F925F926F927F9283
:102B20008F929F92AF92BF92CF92DF92EF92FF92DD
:102B30000F931F93DF93CF93CDB7DEB768970FB690
:102B4000F894DEBF0FBECDBF1C016A017B012801D6
:102B50003901DC01DB966D917D918D919C91DE9721
:102B60000E94942C4B015C01A70196010E94C92E82
:102B70000E94E12B0E94682C7B018C01F10167A36C
:102B800070A781A792A7C501B401A30192010E9479
:102B9000C92E0E94E12B0E94682C69877A878B8757
:102BA0009C87D1019B966D937D938D939C939E976B
:102BB0009F966D917D918D919C91D29722E330E00B
:102BC00040E050E00E94BA2F0E94962C20E030E0B6
:102BD00040E752E40E94C92E0E94632C2B013C0165
:102BE000C801B7010E94942C7B018C01C301B20182
:102BF0000E94962C6D837E838F839887C501B401D4
:102C0000A50194010E94C92E5B016C01C801B701A6
:102C1000A80197010E94C92E6D877E878F87988BA8
:102C20006D817E818F8198859B01AC010E941B2B59
:102C3000698B7A8B8B8B9C8BC601B5012D853E856C
:102C40004F8558890E941A2B29893A894B895C89BA
:102C50000E94FB2B0E94E12B0E94632C69837A83E4
:102C60008B839C8369857A858B859C850E94942CB7
:102C70009B01AC010E94C92E6D8B7E8B8F8B988F30
:102C8000A60195010E941A2B7B018C01709460941F
:102C900050944094411C511C611C711CC301B20131
:102CA0000E94962C9B01AC010E941B2B9B01AC0146
:102CB000C801B7010E94FB2B0E94D12CF101A18811
:102CC000B288C388D4888601750129813A814B81F5
:102CD0005C81E21AF30A040B150B0E94632CA80115
:102CE0009701261B370B480B590BDA01C90157FF17
:102CF00048C0C601B5010E94942C9B01AC016989B2
:102D00007A898B899C890E94C92E2D853E854F85A5
:102D100058890E941A2B2D893E894F89588D0E940F
:102D20001B2B7B018C016D817E818F81988520E03A
:102D300030E040E850E40E94C92E9B01AC01C8017C
:102D4000B7010E94FB2B0E94E12B0E94632CAC0177
:102D5000CB01DA01BC01CD0197FF04C060E070E057
:102D600080E090E0A616B706C806D90610F4C601A2
:102D7000B50169837A838B839C8380E090E0A0E037
:102D8000B0E029813A814B815C81F10123AB34AB06
:102D900045AB56AB820F931FA41FB51F87AB90AFF7
:102DA000A1AFB2AF68960FB6F894DEBF0FBECDBF2D
:102DB000CF91DF911F910F91FF90EF90DF90CF9017
:102DC000BF90AF909F908F907F906F905F904F904B
:102DD0003F902F9008952F923F924F925F927F9253
:102DE0008F929F92AF92BF92CF92DF92EF92FF921B
:102DF0000F931F93CF93DF93D090EF0B8091780EBA
:102E00009091790EA0917A0EB0917B0E1C012D014C
:102E100057FA509457F8509400E010E0C0E0D0E02A
:102E2000BB24B3943FE3C32E72C0DD2011F428E22B
:102E3000D22EDA94209709F463C00115110509F424
:102E40005FC0AD8C9E8C8F8C78A0698D7A8D8B8DB8
:102E50009C8D2A2D392D482D572D0E94F42B882327
:102E600009F44EC08EA1882309F041C0F801E18C1D
:102E7000F28C038D148D6A2D792D882D972DA80144
:102E800097010E94F72D181694F5C801B701A80103
:102E900097010E94C92E7B018C01C201B10120E083
:102EA00030E040E050EC0E94C92E29A13AA14BA18C
:102EB0005CA10E94C92E9B01AC01C801B7010E9410
:102EC0001B2B0E94562F162F072FF82EE92E6A2D46
:102ED000792D882D972D212F302F4F2D5E2D0E947B
:102EE000F42B87FD04C0A12E902E8F2C7E2C8A2DD2
:102EF000992DA82DB72D898F9A8FAB8FBC8FBDA22E
:102F0000DC9CC00111248E01EC01C95EDD4F809173
:102F1000F00BD81609F089CFF090F00B20E030E0EC
:102F200000E010E09FE3E92E11C0FE9CE0011124B7
:102F3000C95EDD4FC901B801AE010E940C15F394C2
:102F4000F8E2FF1609F4FF2498018E018091EF0B3F
:102F5000F81659F7C901B80140E050E00E940C157D
:102F60007090F00BC0E0D0E08FE3582E35C0759C18
:102F70004001112487E192E0880E991E209731F1DB
:102F80008DA1882321F4F40185A18823F9F0ED882F
:102F9000FE880F89188D698D7A8D8B8D9C8DA80187
:102FA00097010E94FB2B5B016C01F401618D728D16
:102FB000838D948DA80197010E94FB2B8B019C01AE
:102FC000CE01B601A5010E948A151DA27394F8E2F4
:102FD0007F1609F47724E4018091EF0B781639F617
:102FE000ED88FE880F89188D698D7A8D8B8D9C8D6B
:102FF000A80197010E94FB2B5B016C0160E070E06F
:1030000080E090E0A80197010E94FB2B8B019C01BE
:10301000CE01B601A5010E948A151DA2DF91CF91B4
:103020001F910F91FF90EF90DF90CF90BF90AF90E6
:103030009F908F907F905F904F903F902F9008953A
:10304000AF92BF92CF92DF92EF92FF920F931F93B6
:10305000CF93DF935B016C019091F00B8FE3989F0E
:10306000E0011124C95EDD4FC601B5010E94962C16
:1030700029A13AA14BA15CA10E94C92E7B018C0120
:1030800069897A898B899C890E94942C9B01AC0167
:10309000C801B7010E94FB2B69A37AA38BA39CA351
:1030A000A98ABA8ACB8ADC8A80E090E0A0E0B0E00E
:1030B000898F9A8FAB8FBC8F8D8F9E8FAF8FB8A368
:1030C0001EA281E08DA30E94EB16DF91CF911F918C
:1030D0000F91FF90EF90DF90CF90BF90AF90089549
:1030E00080E1E2EFFBE0DF011D928A95E9F70895A8
:1030F0008091EF0B8093F00B8091EF0B8F5F883204
:1031000009F480E08093F10B84E2E2EFFBE0DF0161
:103110001D928A95E9F708952F923F924F925F9200
:103120006F927F928F929F92AF92BF92CF92DF92D7
:10313000EF92FF920F931F93DF93CF93CDB7DEB73C
:10314000EE970FB6F894DEBF0FBECDBF39014A012E
:103150003091EF0B2FE3329F2001112427E132E061
:10316000420E531E2091580E3091590E40915A0E26
:1031700050915B0E0E94C92E0E94992E69837A831A
:103180008B839C83C401B30120915C0E30915D0E52
:1031900040915E0E50915F0E0E94C92E0E94992EA2
:1031A0006D837E838F839887C801B7012091600E5D
:1031B0003091610E4091620E5091630E0E94C92EB3
:1031C0000E94992E69877A878B879C87C601B501F3
:1031D0002091640E3091650E4091660E5091670EFD
:1031E0000E94C92E0E94992E6D877E878F87988BAB
:1031F000D2011C9229813A814B815C818091F20B32
:103200009091F30BA091F40BB091F50B28173907AF
:103210004A075B071CF482E0F20180832D813E8126
:103220004F8158858091F60B9091F70BA091F80B88
:10323000B091F90B281739074A075B0724F4D2012C
:103240008C9188608C9329853A854B855C8580912B
:10325000FA0B9091FB0BA091FC0BB091FD0B281782
:1032600039074A075B0724F4F2018081806280837A
:103270002D853E854F8558898091FE0B9091FF0BDF
:10328000A091000CB091010C281739074A075B0781
:1032900024F4D2018C9180688C9329813A814B81EE
:1032A0005C818091F20B9091F30BA091F40BB091A3
:1032B000F50B281B390B4A0B5B0B57FF07C05095CA
:1032C0004095309521953F4F4F4F5F4FF20121833D
:1032D0003283438354836D807E808F809884809175
:1032E000F60B9091F70BA091F80BB091F90B681ABF
:1032F000790A8A0A9B0AD20115966D927D928D9267
:103300009C92189797FE0BC088279927DC01861995
:103310009709A809B90985839683A783B087A984EB
:10332000BA84CB84DC848091FA0B9091FB0BA09142
:10333000FC0BB091FD0BA81AB90ACA0ADB0AD2012C
:103340001996AD92BD92CD92DC921C97D7FE0CC01F
:1033500088279927DC018A199B09AC09BD09F2016C
:1033600081879287A387B4872091FE0B3091FF0B52
:103370004091000C5091010C29A33AA34BA35CA3EC
:103380002D853E854F85588989A19AA1ABA1BCA105
:10339000281B390B4A0B5B0B57FF07C05095409514
:1033A000309521953F4F4F4F5F4FD2011D962D9382
:1033B0003D934D935C9350971996ED90FD900D9130
:1033C0001C911C9715968D919D910D90BC91A02DEF
:1033D0008E159F05A007B10710F4D801C701F201AF
:1033E000E180F280038114818E159F05A007B1074B
:1033F00010F4D801C70182179307A407B50710F48A
:10340000DA01C901F201818B928BA38BB48B0097F7
:10341000A105B10509F4ACC269817A818B819C81D7
:103420002091F20B3091F30B4091F40B5091F50B7E
:10343000621B730B840B950B0E94962C2091580EE7
:103440003091590E40915A0E50915B0E0E94FB2B09
:1034500069AB7AAB8BAB9CABC401B3010E94962CD9
:1034600020915C0E30915D0E40915E0E50915F0E8A
:103470000E94FB2B6DA77EA78FA798ABC601B50155
:103480000E94962C2091600E3091610E4091620E48
:103490005091630E0E94FB2B69A77AA78BA79CA76C
:1034A0006D857E858F85988929A13AA14BA15CA164
:1034B000621B730B840B950B0E94962C2091640E5B
:1034C0003091650E4091660E5091670E0E94FB2B65
:1034D0006DA37EA38FA398A769A97AA98BA99CA99C
:1034E0009B01AC010E94C92E7B018C016DA57EA5BC
:1034F0008FA598A99B01AC010E94C92E9B01AC012C
:10350000C801B7010E941B2B7B018C0169A57AA51C
:103510008BA59CA59B01AC010E94C92E9B01AC010F
:10352000C801B7010E941B2B7B018C016DA17EA1FC
:103530008FA198A59B01AC010E94C92E9B01AC01F3
:10354000C801B7010E941B2B0E94562F7B018C01E2
:10355000D20191966D937D938D939C93949760E0A7
:1035600070E080E89FE3A80197010E94FB2B3B01DC
:103570004C0169968FAD6997882359F468966CADB4
:103580007DAD8EAD9FAD6897A40193010E94C92EB9
:103590000CC060E070E080E89FE368962CAD3DAD24
:1035A0004EAD5FAD68970E94FB2B5B016C01C801BB
:1035B000B701A60195010E94C92E6DAB7EAB8FAB02
:1035C00098AFF201658B768B878B908F61897289BA
:1035D000838994890E94942C7B018C01A60195011A
:1035E0000E94C92E0E94E12B0E94682CD201DB961A
:1035F0006D937D938D939C93DE97C801B701A401D1
:1036000093010E94C92E2091780E3091790E40913D
:103610007A0E50917B0E0E94C92E20E030E84BE3D9
:1036200055E40E94FB2B0E94E12B0E94632CF201C7
:1036300067A770AB81AB92AB69A97AA98BA99CA94A
:10364000A40193010E94C92E7B018C01698B7A8BA6
:103650008B8B9C8B6DA57EA58FA598A9A40193014A
:103660000E94C92E5B016C016D8B7E8B8F8B988FB6
:1036700069A57AA58BA59CA5A40193010E94C92EDA
:1036800069AF7AAF8BAF9CAF698F7A8F8B8F9C8F2E
:103690006DA17EA18FA198A5A40193010E94C92EBE
:1036A0003B014C016D8F7E8F8F8F98A39091EF0B14
:1036B0008091F00B981709F4CFC0F091120CFDAF78
:1036C0002091130C2EAF2090140C3090150C6F2FFE
:1036D000722FC10120E030E040E050E00E94F72D61
:1036E00018160CF0B9C06091020C7091030C809117
:1036F000040C9091050C9058A80197010E94C92EC6
:103700007B018C016091060C7091070C8091080C74
:103710009091090CA60195010E94C92E9B01AC0154
:10372000C801B7010E941A2B7B018C0160910A0C21
:1037300070910B0C80910C0C90910D0C29AD3AAD51
:103740004BAD5CAD0E94C92E9B01AC01C801B70115
:103750000E941A2B7B018C01C401B30120910E0C35
:1037600030910F0C4091100C5091110C0E94C92EF9
:103770009B01AC01C801B7010E941A2B7B018C018F
:1037800023E333E343E75FE30E94F42B88230CF049
:1037900063C06DAD7EADC1012DA93EA94FA958AD45
:1037A0000E94F42B87FD07C08DA99EA9AFA9B8ADD3
:1037B0008DAF9EAF1D01C801B70123E333E343E79B
:1037C0005FEB0E94F72D18160CF04BC060E070E024
:1037D00080E89FE3A80197010E941A2B20E030E0C7
:1037E00040E05FE30E94C92E0E94562F5B016C01EE
:1037F0006091780E7091790E80917A0E90917B0E87
:1038000020917C0E30917D0E40917E0E50917F0E66
:103810000E94C92EA60195010E94C92E7B018C0130
:1038200060E070E080E89FE3A60195010E941A2BFA
:103830009B01AC01C801B7010E94FB2B0E94562FCF
:103840007B018C016DAD7EADC1019701A8010E9485
:10385000F42B87FD06C008C0EE24FF2400E010E032
:1038600003C0EDACFEAC8101C701D801F201858F28
:10387000968FA78FB0A36091780E7091790E80918A
:103880007A0E90917B0E905820E030E040E050ECB2
:103890000E94C92ED20191962D913D914D915C913E
:1038A00094970E94C92E20E030E040E050E00E9452
:1038B0001B2B0E94562FD62EC72EB82EA92EB7012D
:1038C000C8012D2D3C2D4B2D5A2D0E94F42B87FD28
:1038D00004C0ED2CFC2C0B2D1A2DC701D801F201D0
:1038E000818F928FA38FB48F658976898789908D18
:1038F0002D2D3C2D4B2D5A2D0E94F42B18162CF0FB
:1039000081E0D20196968C9302C0F20116A281E06A
:10391000D20195968C93A2E0BCE0FE01719680E105
:1039200001900D928150E1F7F20185899689A7896E
:10393000B08D8093120C9093130CA093140CB09341
:10394000150C8091F10B8093EF0B8091EF0B8F5F43
:10395000883209F480E08093F10BA2EFBBE0FE0116
:10396000319680E101900D928150E1F70E94EB16B3
:10397000EE960FB6F894DEBF0FBECDBFCF91DF91AC
:103980001F910F91FF90EF90DF90CF90BF90AF907D
:103990009F908F907F906F905F904F903F902F906F
:1039A00008951F931FE306C00E94C51F8091A20CBB
:1039B000882391F49091EF0B8091F00B981741F0D0
:1039C0008091F00B819FC0011124895E9D4F61F7AA
:1039D0008091D60C882341F71F910895AF92BF9232
:1039E000CF92DF92EF92FF920F93DF93CF93CDB7F9
:1039F000DEB7A2970FB6F894DEBF0FBECDBF6B0146
:103A00007C01611571058105910521F480E30E9417
:103A10007E2032C000E05E010894A11CB11CC501EB
:103A2000800F911D9AA389A3C701B6012AE030E057
:103A300040E050E00E94D92FE9A1FAA160830F5F16
:103A4000C701B6012AE030E040E050E00E94D92FE3
:103A5000C901DA016C017D01C114D104E104F10452
:103A6000F1F608C0FE01E00FF11D8081805D0E942B
:103A70007E2001500023B1F7A2960FB6F894DEBF66
:103A80000FBECDBFCF91DF910F91FF90EF90DF90F0
:103A9000CF90BF90AF900895AF92BF92CF92DF9238
:103AA000EF92FF920F931F93CF93DF937B018C01D3
:103AB00020E030E040E050E00E94F42B88233CF40A
:103AC0008DE20E947E2017FB109517F91095C80112
:103AD000B7012AE037ED43EA5BE30E941B2B7B0131
:103AE0008C010E94632C5B016C01CC24B7FCC09458
:103AF000DC2CC601B5010E94EE1C8EE20E947E20E5
:103B0000C601B5010E94962C9B01AC01C801B7010A
:103B10000E941A2BC2E0D0E01EC020E030E040E25C
:103B200051E40E94C92E5B016C010E94632C7B0151
:103B30008C01862F805D0E947E206E2D70E088278C
:103B400077FD8095982F0E94962C9B01AC01C601B1
:103B5000B5010E941A2B21972FEFCF3FD207E9F62C
:103B6000DF91CF911F910F91FF90EF90DF90CF9059
:103B7000BF90AF900895EF92FF920F931F937B0138
:103B80008C0197FF0BC08DE20E947E20109500955E
:103B9000F094E094E11CF11C011D111DC801B70156
:103BA0000E94EE1C1F910F91FF90EF9008950F93CC
:103BB0001F93DF93CF93CDB7DEB728970FB6F89456
:103BC000DEBF0FBECDBF982FFE0131969E01275F4D
:103BD0003F4F892F817081939695E217F307C9F7BC
:103BE0008E01085F1F4FF8018081805D0E947E205A
:103BF000015010400C171D07B1F728960FB6F89426
:103C0000DEBF0FBECDBFCF91DF911F910F91089501
:103C1000CF93DF93EC0102C00E947E20FE0121962B
:103C200084918823C9F7DF91CF910895CF93DF93D3
:103C3000EC0103C021960E947E2088818823D1F761
:103C4000DF91CF910895CF93DF93EC01009719F4A2
:103C500082EE91E03CC08AED91E00E94081EC430E3
:103C6000D10501F1C530D10554F4C230D105A1F020
:103C7000C330D105A4F4C130D10501F50AC0C63066
:103C8000D105B1F0C630D10584F0C730D105B1F40B
:103C900012C086EC91E01BC08CEA91E018C084E968
:103CA00091E015C08DE791E012C085E691E00FC06C
:103CB00083E591E00CC082E391E009C0BE01882752
:103CC00077FD8095982F0E94BB1D8FE291E00E94A6
:103CD000081EDF91CF91089583E392E00E94081EB1
:103CE00088E092E00E94081E87EE91E00E94081E84
:103CF00080E090E00E94231E1092480C1092490C24
:103D00000895FC018081843221F4CF010E94E624D1
:103D10000895CF010E94B0040895DF93CF93CDB7EB
:103D2000DEB760970FB6F894DEBF0FBECDBFDE01E1
:103D30001196E5EAFCE080E101900D928150E1F7F7
:103D400080E092E00E94161E69817A818B819C81BD
:103D50000E94962C2091580E3091590E40915A0E87
:103D600050915B0E0E94FB2B0E944C1D87E092E05D
:103D70000E94161E6D817E818F8198850E94962CEF
:103D800020915C0E30915D0E40915E0E50915F0E61
:103D90000E94FB2B0E944C1D87E092E00E94161EA1
:103DA00069857A858B859C850E94962C2091600E72
:103DB0003091610E4091620E5091630E0E94FB2B78
:103DC0000E944C1D87E092E00E94161E6D857E8544
:103DD0008F8598890E94962C2091640E3091650EF3
:103DE0004091660E5091670E0E94FB2B0E944C1D65
:103DF00089E092E00E94161E69817A818B819C8104
:103E00000E94962C2091580E3091590E40915A0ED6
:103E100050915B0E0E94FB2BE091B50CF0E054E05A
:103E2000EE0FFF1F5A95E1F7EE55F34F24893589C0
:103E3000468957890E941A2B2091C60C3091C70CD5
:103E40004091C80C5091C90C0E941A2B0E944C1D25
:103E500087E092E00E94161E6D817E818F81988599
:103E60000E94962C20915C0E30915D0E40915E0E6A
:103E700050915F0E0E94FB2BE091B50CF0E044E006
:103E8000EE0FFF1F4A95E1F7EE55F34F208D318D70
:103E9000428D538D0E941A2B2091CA0C3091CB0C6D
:103EA0004091CC0C5091CD0C0E941A2B0E944C1DBD
:103EB00087E092E00E94161E69857A858B859C8535
:103EC0000E94962C2091600E3091610E4091620EFE
:103ED0005091630E0E94FB2BE091B50CF0E034E0B2
:103EE000EE0FFF1F3A95E1F7E655F34F2489358928
:103EF000468957890E941A2B2091CE0C3091CF0C05
:103F00004091D00C5091D10C0E941A2B0E944C1D54
:103F100087E092E00E94161E6D857E858F859889C8
:103F20000E94962C2091640E3091650E4091660E91
:103F30005091670E0E94FB2BE091B50CF0E024E05D
:103F4000EE0FFF1F2A95E1F7EE53F34F20813181E9
:103F5000428153810E941A2B2091D20C3091D30CB4
:103F60004091D40C5091D50C0E941A2B0E944C1DEC
:103F700082E192E00E94161E60960FB6F894DEBFB2
:103F80000FBECDBFCF91DF9108951F938091D70CC5
:103F9000882381F18091D70C182F84FF04C081E021
:103FA0008093A20C27C080FF07C00E948D1E8091C5
:103FB000D70C8E7F8093D70C13FF07C00E94D526A5
:103FC0008091D70C877F8093D70C12FF07C00E9487
:103FD000E3268091D70C8B7F8093D70C11FF0AC00A
:103FE0000E94B82681E08093A40C8091D70C8D7F2D
:103FF0008093D70C1F9108951F9311E046C02A307B
:1040000011F02D30E1F40E94C51F8091A20C88238D
:1040100009F041C0E091480CEE2351F0F0E0EA5E77
:10402000F34F108286E19CE00E94811E90E002C066
:1040300080E090E00E94231E1092480C06C0809100
:10404000490C882329F0293201F51092490C1DC032
:104050002132D8F02F32C9F0283219F41093490CCC
:1040600014C09091480C913380F4822F8156E92F2F
:10407000F0E09F5F8A3120F4EA5EF34F205202C0E5
:10408000EA5EF34F20839093480C0E94CA20282FA9
:104090008F3F09F0B4CF1F910895EF92FF920F93D5
:1040A0001F937B018C0122E030E040E050E00E9451
:1040B000FB2F205C3D4B404F5F4FCA01B901A80167
:1040C00097010E94D92F215030403093C500209392
:1040D000C400E0ECF0E080818D7F8083E1ECF0E0D3
:1040E0008081806180838081886080838081806816
:1040F00080831F910F91FF90EF900895282FE091FA
:104100004C0C9E2F9F5F903831F490E004C080915A
:10411000D70C84FD0FC080914D0C9817C1F3F0E0CF
:10412000E852F24F208390934C0C8091C100806242
:104130008093C10008951F920F920FB60F920BB695
:104140000F9211248F939F93EF93FF9380914D0CC7
:10415000E82FF0E0E852F24F90819093C600982F3C
:104160009F5F903809F490E090934D0C80914C0C37
:10417000981729F48091C1008F7D8093C100FF9131
:10418000EF919F918F910F900BBE0F900FBE0F90EC
:104190001F90189590914B0C80914A0C891711F43F
:1041A0008FEF0895E92FF0E0E852F34F80819F5F91
:1041B00090934B0C089580914A0C80934B0C08957A
:1041C0001F920F920FB60F920BB60F9211242F93DE
:1041D0003F934F935F936F937F938F939F93AF938F
:1041E000BF93EF93FF939091C6009132A1F092326A
:1041F00018F4983101F513C09F3319F09E37D9F4A4
:1042000004C08091D70C816003C08091D70C82607C
:104210008093D70C1EC08091D70C8860F9CF809115
:10422000D70C84FD04C00E9401260E94562580916F
:10423000D70C8061EDCFE0914A0C2E2F2F5F80913B
:104240004B0C281731F0F0E0E852F34F90832093A5
:104250004A0CFF91EF91BF91AF919F918F917F9108
:104260006F915F914F913F912F910F900BBE0F90E7
:104270000FBE0F901F90189580E090E0A8ECB2E47C
:104280008093580E9093590EA0935A0EB0935B0EE4
:1042900080935C0E90935D0EA0935E0EB0935F0EC4
:1042A0008093600E9093610EA093620EB093630EA4
:1042B0008093640E9093650EA093660EB093670E84
:1042C0008AE08093690E80E090E8ABE3B4E48093E9
:1042D0006A0E90936B0EA0936C0EB0936D0E80E0FF
:1042E00090E8ABEBB4E480936E0E90936F0EA093C6
:1042F000700EB093710E80E096EDA3E8B8E4809361
:10430000780E9093790EA0937A0EB0937B0E8DEC7D
:104310009CECACECBDE38093740E9093750EA0936F
:10432000760EB093770E85E58093720E1092730E21
:104330008DEC9CECACE4BDE380937C0E90937D0E01
:10434000A0937E0EB0937F0E1092800E8CE291E0CF
:10435000A0E0B0E08093810E9093820EA093830E34
:10436000B093840E80E090E0AAE7B4E48093850ED9
:104370009093860EA093870EB093880E089580E0E8
:1043800090E065E00E94520381E090E068E57EE005
:1043900041E350E00E9469030895EF92FF920F936A
:1043A0001F93CF93DF93EC017A018B018830910545
:1043B00009F49FC089309105B4F48430910509F463
:1043C00067C08530910534F497FD03C183309105B2
:1043D0003CF13EC08630910509F479C087309105E3
:1043E0000CF07EC06BC08C30910509F4B7C08D30E5
:1043F00091054CF48A30910509F48DC08B309105FC
:104400000CF0A0C07FC08E30910509F4BBC08E3087
:1044100091050CF4AAC0C85ED34009F0DAC0BBC055
:10442000CB01BA0120E030E040E050E00E94F42BE4
:1044300018161CF085EF92E0D3C0CC0FDD1FCC0F17
:10444000DD1FC85AD14FE882F9820A831B83C4C09A
:10445000CB01BA0120E030E044EB53EC0E94F42B96
:1044600087FD0AC0C801B70120E030E044EB53E407
:104470000E94F72D18161CF489EC92E0B1C0E0926E
:10448000640EF092650E0093660E1093670EA4C042
:10449000CB01BA0120E030E040E450E40E94F42B6C
:1044A00088231CF482EA92E09BC0C801B7010E94F5
:1044B0002C2F0E94682C6093690E8EC040936A0E68
:1044C00050936B0E60936C0E70936D0E85C040938D
:1044D0006E0E50936F0E6093700E7093710E7CC0D1
:1044E0004093740E5093750E6093760E7093770E12
:1044F00073C0CB01BA010E94972F0E94682C609371
:10450000720E6AC0CB01BA010E94972F0E94682CDC
:104510006093730E61C0CB01BA0120E030E040E748
:1045200052E40E94C92E20E030E040E752E40E94AD
:10453000C92E6093780E7093790E80937A0E9093C3
:104540007B0E4AC0DB01CA01BF7780937C0E90933B
:104550007D0EA0937E0EB0937F0E3EC0CB01BA01BC
:104560000E94682C6093800E37C0CB01BA010E9474
:10457000682C6093810E7093820E8093830E9093CB
:10458000840E2AC04093850E5093860E6093870E4A
:104590007093880E21C0CB01BA0120E030E040E0EA
:1045A00050E00E94F42B882319F00E94EB2502C0F2
:1045B0000E94ED25C801B70120E030E040E050E066
:1045C0000E94F42B882371F40E9431030E94562527
:1045D00009C08EE892E004C00E94BF2189E792E002
:1045E0000E94081EDF91CF911F910F91FF90EF90D5
:1045F00008951F9380E090E00E944A03182F8530B1
:1046000081F488E59EE061E070E041E350E00E94C3
:10461000B30320E0892B09F421E081E0282730E072
:1046200086C0813021F588E59EE061E070E04FE1D1
:1046300050E00E94B303892B09F477C080E096ED27
:10464000A3E8B8E48093780E9093790EA0937A0E45
:10465000B0937B0E8DEC9CECACE4BDE380937C0EC0
:1046600090937D0EA0937E0EB0937F0E59C0825022
:10467000823080F588E59EE061E070E041E350E043
:104680000E94B303892B09F450C0123061F48DEC01
:104690009CECACE4BDE380937C0E90937D0EA093E4
:1046A0007E0EB0937F0E6091780E7091790E80919E
:1046B0007A0E90917B0E20E030E041E655E40E94B6
:1046C000C92E6093780E7093790E80937A0E909332
:1046D0007B0E26C0143049F588E59EE061E070E06D
:1046E00041E350E00E94B303892BF9F01092800E51
:1046F0008CE291E0A0E0B0E08093810E9093820E76
:10470000A093830EB093840E80E090E0AAE7B4E417
:104710008093850E9093860EA093870EB093880E9B
:104720000E94BF2121E030E002C020E030E0C9015A
:104730001F91089587EC95E00E94081E83EA95E09A
:104740000E94081E80EA95E00E94081E8AE995E012
:104750000E94081E6091580E7091590E80915A0E59
:1047600090915B0E0E944C1D8AE895E00E94081E05
:1047700084E895E00E94081E60915C0E70915D0EC9
:1047800080915E0E90915F0E0E944C1D84E795E033
:104790000E94081E8EE695E00E94081E6091600E41
:1047A0007091610E8091620E9091630E0E944C1D7B
:1047B0008EE595E00E94081E88E595E00E94081E9F
:1047C0006091640E7091650E8091660E9091670EF7
:1047D0000E944C1D86E495E00E94081E80E495E04E
:1047E0000E94081E6091690E70E080E090E00E94D7
:1047F000BB1D83E295E00E94081E8DE195E00E94BA
:10480000081E60916A0E70916B0E80916C0E9091F3
:104810006D0E0E944C1D8FEF94E00E94081E89EFE0
:1048200094E00E94081E60916E0E70916F0E809150
:10483000700E9091710E0E944C1D8BED94E00E94C1
:10484000081E85ED94E00E94081E6091740E709120
:10485000750E8091760E9091770E0E944C1D81EC22
:1048600094E00E94081E8BEB94E00E94081E609169
:10487000720E70E080E090E00E94BB1D88E994E039
:104880000E94081E8091720E0E94D71D84E994E058
:104890000E94081E8EE894E00E94081E6091730E2C
:1048A00070E080E090E00E94BB1D85E694E00E94ED
:1048B000081E8091730E0E94D71D81E694E00E942D
:1048C000081E8AE594E00E94081E6091780E70919F
:1048D000790E80917A0E90917B0E20E030E041E6D7
:1048E00055E40E94FB2B0E944C1D8CE394E00E9437
:1048F000081E85E394E00E94081E60917C0E709172
:104900007D0E80917E0E90917F0E0E944C1D8DE059
:1049100094E00E94081E86E094E00E94081E6091C8
:10492000800E70E080E090E00E94BB1D87ED93E078
:104930000E94081E80ED93E00E94081E6091810E87
:104940007091820E8091830E9091840E0E94942C1F
:104950000E944C1D8EEA93E00E94081E87EA93E0B5
:104960000E94081E6091850E7091860E8091870EC0
:104970009091880E0E944C1D85E893E00E94081ECD
:104980008CE793E00E94081E0E94EF25AA2797FD5E
:10499000A095BA2FBC01CD010E94BB1D83E593E019
:1049A0000E94081E8EE093E00E94081E08950E9457
:1049B000F922892B51F48EE392E00E94081E0E9496
:1049C0003C210E94BF210E949A230895EF92FF92FA
:1049D0000F931F93DF93CF93CDB7DEB729970FB611
:1049E000F894DEBF0FBECDBF8C0181E08983F80152
:1049F00080818432E1F58181882319F40E949A2311
:104A000034C0C8017E010894E11CF11CB701AE015D
:104A10004E5F5F4F0E947314892B59F19981F80101
:104A2000E90FF11D80818D3311F59F5F9983C801D6
:104A3000B701AE014A5F5F4F0E947314892BC9F022
:104A40008981080F111DF8018081882381F46A8112
:104A50007B818C819D810E94632CDC01CB014E8186
:104A60005F81688579850E94CD2180E003C083E065
:104A700001C081E029960FB6F894DEBF0FBECDBF0E
:104A8000CF91DF911F910F91FF90EF9008951092B9
:104A90004E0CE1E0F1E0808188608083699AE2E079
:104AA000F1E0808188608083719A0895E2E0F1E00E
:104AB000808188608083719A0895DF92EF92FF92DF
:104AC0000F931F93CF93DF93D82EEB01282F33271B
:104AD00027FD309580914E0C90E028173907B9F0EA
:104AE0000E94D11CDD2059F01D1414F4719A01C0EC
:104AF000719880910201877F8093020106C08091A6
:104B00000201886080930201719AD0924E0C8091CC
:104B1000800E813009F057C0E090850EF090860E2F
:104B20000091870E1091880EBE0180E090E00E94F7
:104B3000942CA80197010E94F72D18162CF4C80197
:104B4000B7010E94682CEB01DD2049F41092A90006
:104B50001092A8001092A0001092A10034C02097DB
:104B600071F01092A0001092A1008BE88093A00039
:104B700082E08093A100BE0180E090E012C010921C
:104B8000A0001092A1008BE88093A00082E08093A7
:104B9000A1006091810E7091820E8091830E9091A0
:104BA000840E0E94942CA80197010E94FB2B20E008
:104BB00030EC4FE754E40E94C92E0E94682C709399
:104BC000A9006093A800DF91CF911F910F91FF90F2
:104BD000EF90DF90089547980895479A08953F9978
:104BE00003C021E030E00BC088B1282F332727FD18
:104BF0003095209530952227330F221F3327C90186
:104C0000089580916F008D7F80936F008AEF90E010
:104C100020E931E0F9013197F1F70197D9F70895CB
:104C20001F920F920FB60F9211248F939F9392B100
:104C30008091720E85759A7A892B82B91092B10093
:104C40009F918F910F900FBE0F901F90189581B17B
:104C50008FEF81B982B18091720E82B93F9A479AE3
:104C6000E1E8F0E080818F7E8083808188608083AE
:104C7000E0E8F0E080818D7F808380818E7F80837B
:104C800080818F73808380818F7C80831092B000BD
:104C90001092B100E0E7F0E08081816080830E94A3
:104CA000012608959B01AC01203283E0380780E0A3
:104CB000480780E0580720F420E233E040E050E06D
:104CC00060E070E788E399E30E94D92FC901DA0117
:104CD000803020E0920721E0A20720E0B20730F404
:104CE000BC019C0140E050E091E02FC0803020E00A
:104CF000920728E0A20720E0B207A0F4F3E0B695FF
:104D0000A79597958795FA95D1F7BC019C0140E04E
:104D100050E0E3E0220F331F441F551FEA95D1F7FF
:104D200092E013C026E0B695A795979587952A95AA
:104D3000D1F7BC019C0140E050E096E0220F331F08
:104D4000441F551F9A95D1F793E080918100887F89
:104D5000982B909381007093890060938800209332
:104D6000670C3093680C4093690C50936A0C08955B
:104D70008091D60C8823C1F48091A30C8823A1F4E0
:104D800081E08093D60C8091720E80937A0C809192
:104D9000690E880F845081958093790C4798809193
:104DA0006F00826080936F0008958091A30C882328
:104DB00049F48091D60C882329F01092A40C81E04C
:104DC0008093A30C0895E091770CF091780C3097C4
:104DD000A1F161897289838994892091630C309152
:104DE000640C4091650C5091660C621B730B840B34
:104DF000950B0E94201810926F0C1092700C10925C
:104E0000710C1092720C60E070E080E090E00E9403
:104E1000522680E091E7A2E0B0E080936B0C909383
:104E20006C0CA0936D0CB0936E0C1092630C1092EE
:104E3000640C1092650C1092660C1092A30C0895ED
:104E400088E2EFE4FCE0DF011D928A95E9F760E279
:104E500073E080E090E00E9452261092780C10924D
:104E6000770C10927B0C08951F920F920FB60F9241
:104E70000BB60F921124EF92FF920F931F932F9373
:104E80003F934F935F936F937F938F939F93AF93D2
:104E9000BF93CF93DF93EF93FF9380917B0C882395
:104EA00009F0AFC392B120917A0C822F8A7A95755E
:104EB000892B82B982B18A7A822B82B98091790C4E
:104EC0008093B20082E08093B10081E080937B0CFC
:104ED00078948091770C9091780C892B09F089C097
:104EE0000E94BE14EC019093780C8093770C00978D
:104EF00009F476C08091A30C8823D1F46FA178A522
:104F000089A59AA560936F0C7093700C8093710CB7
:104F10009093720C0E94522680E091E7A2E0B0E0EC
:104F200080936B0C90936C0CA0936D0CB0936E0CF3
:104F30002FA538A949A95AA9DA01C901B595A7959C
:104F400097958795820F931FA41FB51F8093730CAD
:104F50009093740CA093750CB093760C29893A89C0
:104F60004B895C89DA01C901B695A7959795879514
:104F7000B095A095909581959F4FAF4FBF4F80936F
:104F80004F0C9093500CA093510CB093520C809303
:104F9000530C9093540CA093550CB093560C8093E3
:104FA000570C9093580CA093590CB0935A0C8093C3
:104FB0005B0C90935C0CA0935D0CB0935E0C209303
:104FC0005F0C3093600C4093610C5093620C109214
:104FD000630C1092640C1092650C1092660C09C060
:104FE0000E9401261092D60C8091D70C8460809389
:104FF000D70CE091770CF091780C309709F4F8C257
:10500000208120937A0C40914F0C5091500C60916C
:10501000510C7091520C81819281A381B481480F0F
:10502000591F6A1F7B1F40934F0C5093500C609385
:10503000510C7093520C1416150616061706C4F57B
:10504000216020937A0C80915F0C9091600CA0916C
:10505000610CB091620C481B590B6A0B7B0B40939F
:105060004F0C5093500C6093510C7093520C21FFD5
:105070000CC08091A50C9091A60CA091A70CB091AA
:10508000A80C0197A109B1090BC08091A50C9091C2
:10509000A60CA091A70CB091A80C0196A11DB11D62
:1050A0008093A50C9093A60CA093A70CB093A80C8A
:1050B0004091530C5091540C6091550C7091560CCA
:1050C00085819681A781B085480F591F6A1F7B1F74
:1050D0004093530C5093540C6093550C7093560CA2
:1050E0001416150616061706D4F520917A0C2460BE
:1050F00020937A0C80915F0C9091600CA091610CD0
:10510000B091620C481B590B6A0B7B0B4093530CFC
:105110005093540C6093550C7093560C23FF0CC0A5
:105120008091A90C9091AA0CA091AB0CB091AC0C01
:105130000197A109B1090BC08091A90C9091AA0C0B
:10514000A091AB0CB091AC0C0196A11DB11D809348
:10515000A90C9093AA0CA093AB0CB093AC0C40910B
:10516000570C5091580C6091590C70915A0C8185D4
:105170009285A385B485480F591F6A1F7B1F4093F2
:10518000570C5093580C6093590C70935A0C14168A
:10519000150616061706D4F520917A0C2061209387
:1051A0007A0C80915F0C9091600CA091610CB09191
:1051B000620C481B590B6A0B7B0B4093570C5093A6
:1051C000580C6093590C70935A0C25FF0CC08091B9
:1051D000AD0C9091AE0CA091AF0CB091B00C0197BA
:1051E000A109B1090BC08091AD0C9091AE0CA091BA
:1051F000AF0CB091B00C0196A11DB11D8093AD0C08
:105200009093AE0CA093AF0CB093B00C40915B0C9C
:1052100050915C0C60915D0C70915E0C858596855B
:10522000A785B089480F591F6A1F7B1F40935B0CED
:1052300050935C0C60935D0C70935E0C1416150615
:1052400016061706D4F520917A0C206420937A0C68
:1052500080915F0C9091600CA091610CB091620CF8
:10526000481B590B6A0B7B0B40935B0C50935C0CF7
:1052700060935D0C70935E0C27FF0CC08091B10CA5
:105280009091B20CA091B30CB091B40C0197A1090C
:10529000B1090BC08091B10C9091B20CA091B30CEC
:1052A000B091B40C0196A11DB11D8093B10C9093E7
:1052B000B20CA093B30CB093B40C2091630C30915A
:1052C000640C4091650C5091660C2F5F3F4F4F4F1F
:1052D0005F4F2093630C3093640C4093650C5093A4
:1052E000660C81899289A389B489281739074A07EE
:1052F0005B0708F077C18091A30C882309F45DC097
:105300002091670C3091680C4091690C50916A0CA7
:1053100080916B0C90916C0CA0916D0CB0916E0C07
:10532000280F391F4A1F5B1F20936B0C30936C0CA6
:1053300040936D0C50936E0C213002EE300704E068
:10534000400700E0500708F453C12050324E44405B
:10535000504020936B0C30936C0C40936D0C509329
:105360006E0C20916F0C3091700C4091710C50912B
:10537000720C67A570A981A992A9621773078407A7
:10538000950750F00E9401261092D60C8091D70C00
:1053900084608093D70C2CC179018A01E61AF70A40
:1053A000080B190BC801B701E0926F0CF092700C5A
:1053B0000093710C1093720C6CC083A994A9A5A9D9
:1053C000B6A9281739074A075B0708F065C020917E
:1053D000670C3091680C4091690C50916A0C809177
:1053E0006B0C90916C0CA0916D0CB0916E0C280F11
:1053F000391F4A1F5B1F20936B0C30936C0C40933A
:105400006D0C50936E0C213002EE300704E0400723
:1054100000E0500708F4ECC02050324E44405040A9
:1054200020936B0C30936C0C40936D0C50936E0C6E
:1054300087A590A9A1A9B2A920916F0C3091700CF9
:105440004091710C5091720C820F931FA41FB51FD5
:1054500080936F0C9093700CA093710CB093720CAE
:1054600023AD34AD45AD56AD82179307A407B507FC
:1054700040F020936F0C3093700C4093710C50935C
:10548000720C60916F0C7091700C8091710C909106
:10549000720C0E945226ACC087A990ADA1ADB2ADEE
:1054A000281739074A075B0708F480C0281739070F
:1054B0004A075B0769F480E091E7A2E0B0E08093DF
:1054C0006B0C90936C0CA0936D0CB0936E0C90C011
:1054D0002091670C3091680C4091690C50916A0CD6
:1054E00080916B0C90916C0CA0916D0CB0916E0C36
:1054F000280F391F4A1F5B1F20936B0C30936C0CD5
:1055000040936D0C50936E0C213012EE310714E075
:10551000410710E0510708F46BC02050324E444060
:10552000504020936B0C30936C0C40936D0C509357
:105530006E0C20916F0C3091700C4091710C509159
:10554000720C8091730C9091740CA091750CB091B9
:10555000760C82179307A407B50748F487A590A98E
:10556000A1A9B2A9281B390B4A0B5B0B04C05695A5
:1055700047953795279520936F0C3093700C409387
:10558000710C5093720C23A534A545A556A58091A6
:105590006F0C9091700CA091710CB091720C8217ED
:1055A0009307A407B50708F06CCF63CF23AD34ADE4
:1055B00045AD56AD80916F0C9091700CA091710C1F
:1055C000B091720C82179307A407B50789F0209356
:1055D0006F0C3093700C4093710C5093720CCA0195
:1055E000B90157CF1092780C1092770C0E94AF142B
:1055F00080917A0C9091720E892780937A0C109288
:105600007B0CFF91EF91DF91CF91BF91AF919F9173
:105610008F917F916F915F914F913F912F911F914A
:105620000F91FF90EF900F900BBE0F900FBE0F9059
:105630001F9018955058BB27AA270ED076C23FD28C
:1056400030F044D220F031F49F3F11F41EF40FC229
:105650000EF4E095E7FBDCC1E92F89D280F3BA179D
:10566000620773078407950718F071F49EF5B8C2B6
:105670000EF4E0950B2EBA2FA02D0B01B90190016D
:105680000C01CA01A0011124FF27591B99F0593FB1
:1056900050F4503E68F11A16F040A22F232F342FF9
:1056A0004427585FF3CF469537952795A795F04047
:1056B0005395C9F77EF41F16BA0B620B730B840B5C
:1056C000BAF09150A1F0FF0FBB1F661F771F881F14
:1056D000C2F70EC0BA0F621F731F841F48F487956C
:1056E00077956795B795F7959E3F08F0B3CF93955B
:1056F000880F08F09927EE0F979587950895DFD1C9
:1057000058F080E891E009F49EEFE0D128F040E8FD
:1057100051E059F45EEF09C0AAC162C2E92FE078F6
:1057200026D268F3092E052AC1F326173707480742
:10573000590738F00E2E07F8E02569F0E025E064FF
:105740000AC0EF6307F8009407FADB01B9019D0175
:10575000DC01CA01AD01EF935DD0E7D10AD05F91C2
:10576000552331F02BED3FE049E450FD49EC63CF88
:105770000895DF93DD27B92FBF7740E85FE3161662
:10578000170648075B0710F4D92F96D29F938F9383
:105790007F936F93C9D3E4EEF0E06CD1C6D12F9123
:1057A0003F914F915F9101D3DD2349F09058A2EAD8
:1057B0002AED3FE049EC5FE3D0785D274DDFDF91D4
:1057C000B4C1F7D180F09F3740F491110EF409C2B3
:1057D00060E070E080E89FE3089526F01B16611DED
:1057E000711D811D1BC135C1EFD008F481E0089502
:1057F00075D1E395ABC10CD098C168D140F05FD1B1
:1058000030F021F45F3F19F003C15111EAC12FC1FB
:10581000AED198F39923C9F35523B1F3951B550BDA
:10582000BB27AA2762177307840738F09F5F5F4F73
:10583000220F331F441FAA1FA9F333D00E2E3AF0B4
:10584000E0E830D091505040E695001CCAF729D0CE
:10585000FE2F27D0660F771F881FBB1F261737071D
:105860004807AB07B0E809F0BB0B802DBF01FF274D
:1058700093585F4F2AF09E3F510568F0C9C0B1C1EF
:105880005F3FECF3983EDCF3869577956795B79587
:10589000F7959F5FC9F7880F911D9695879597F9A2
:1058A0000895E1E0660F771F881FBB1F621773071B
:1058B0008407BA0720F0621B730B840BBA0BEE1F30
:1058C00088F7E095089504D06894B1118AC10895CD
:1058D00056D188F09F5790F0B92F9927B751A0F073
:1058E000D1F0660F771F881F991F1AF0BA95C9F774
:1058F00012C0B13081F074D1B1E0089571C1672F49
:10590000782F8827B85F39F0B93FCCF38695779523
:105910006795B395D9F73EF490958095709561950C
:105920007F4F8F4F9F4F0895E89409C097FB3EF437
:1059300090958095709561957F4F8F4F9F4F9923DC
:10594000A9F0F92F96E9BB279395F695879577955A
:105950006795B795F111F8CFFAF4BB0F11F460FF1A
:105960001BC06F5F7F4F8F4F9F4F16C0882311F072
:1059700096E911C0772321F09EE8872F762F05C086
:10598000662371F096E8862F70E060E02AF09A9521
:10599000660F771F881FDAF7880F9695879597F916
:1059A000089507D180F09F3740F491110EF019C18E
:1059B00060E070E080E89FEB089526F41B16611DFF
:1059C000711D811D2BC045C0990F0008550FAA0BF2
:1059D000E0E8FEEF16161706E807F907C0F0121602
:1059E0001306E407F50798F0621B730B840B950B05
:1059F00039F40A2661F0232B242B252B21F408955A
:105A00000A2609F4A140A6958FEF811D811D0895F6
:105A100097F99F6780E870E060E00895882371F44B
:105A2000772321F09850872B762F07C0662311F437
:105A300099270DC09051862B70E060E02AF09A956E
:105A4000660F771F881FDAF7880F9695879597F965
:105A500008959F3F31F0915020F487957795679591
:105A6000B795880F911D9695879597F908959FEFA3
:105A700080EC0895DF93CF931F930F93FF92EF92E3
:105A8000DF927B018C01689405C0DA2EEF018DD185
:105A9000FE01E894A5912591359145915591AEF37C
:105AA000EF01DADDFE019701A801DA9479F7DF90C2
:105AB000EF90FF900F911F91CF91DF9108950024F7
:105AC0000A941616170618060906089500240A9463
:105AD00012161306140605060895C9CF50D0E8F330
