:100000000C948D030C94AA030C94AA030C944D1029
:100010000C949D1F0C94AA030C94AA030C94AA039D
:100020000C94AA030C94672A0C94AA030C94942BA6
:100030000C94AA030C94AA030C94AA030C94AA038C
:100040000C94AA030C94AA030C9430270C94E92670
:100050000C94AA030C94AA030C94AA030C94AA036C
:100060000C94AA030C94AA03A727A727A727BE27A7
:10007000D327DC27E527EE27F7270E281A28232881
:100080002C28352847285B286D28832895289E280A
:10009000A728B028BB28084AD73B3BCE016E84BCBA
:1000A000BFFDC12F3D6C74319ABD56833DDA3D00D2
:1000B000C77F11BED9E4BB4C3E916BAAAABE00001B
:1000C00000803F05A84CCDB2D44EB93836A9020CF9
:1000D00050B9918688083CA6AAAA2ABE00000080D2
:1000E0003F3E0D0A002C0057506F733A002C002C35
:1000F0004D506F733A003C436865636B003C416C44
:1001000061726D003C486F6D65003C486F6C640027
:100110003C52756E003C5175657565003C49646CD8
:1001200065000D0A003D00244E005D0D0A002046CA
:1001300000205400204D3800204D3900204D35005E
:10014000204D3400204D3300204D3200204D310031
:10015000204D3000204739340020473933002047F4
:1001600039310020473930002047323100204732F2
:1001700030002047313900204731380020473137DF
:10018000002047005B473830005B4733005B473255
:10019000005B4731005B4730005D0D0A002C005BBF
:1001A0004739323A005D0D0A002C0033303A0032F4
:1001B000383A0035393A0035383A0035373A0035A3
:1001C000363A0035353A0035343A005B470020288E
:1001D000686F6D696E672070756C6C2D6F66662C2C
:1001E000206D6D290D0A002028686F6D696E6720EB
:1001F0006465626F756E63652C206D736563290D90
:100200000A2432323D002028686F6D696E672073C2
:1002100065656B2C206D6D2F6D696E290D0A24327A
:10022000313D002028686F6D696E672066656564E2
:100230002C206D6D2F6D696E290D0A2432303D0022
:10024000290D0A2431393D002028686F6D696E67D9
:100250002064697220696E76657274206D61736BBB
:100260002C20696E743A002028686F6D696E6720D3
:100270006379636C652C20626F6F6C290D0A2431E1
:10028000383D00202868617264206C696D69747360
:100290002C20626F6F6C290D0A2431373D00202815
:1002A000696E76657274207374657020656E616224
:1002B0006C652C20626F6F6C290D0A2431363D006D
:1002C00020286175746F2073746172742C20626FC2
:1002D0006F6C290D0A2431353D0020287265706F3E
:1002E000727420696E636865732C20626F6F6C296D
:1002F0000D0A2431343D0020286E2D646563696D3C
:10030000616C732C20696E74290D0A2431333D0011
:1003100020286E2D61726320636F72726563746949
:100320006F6E2C20696E74290D0A2431323D002035
:10033000286172632C206D6D2F7365676D656E7417
:10034000290D0A2431313D0020286A756E637469D5
:100350006F6E20646576696174696F6E2C206D6DB7
:10036000290D0A2431303D002028616363656C65E6
:10037000726174696F6E2C206D6D2F7365635E32D0
:10038000290D0A24393D00202873746570206964A2
:100390006C652064656C61792C206D736563290D33
:1003A0000A24383D00290D0A24373D0020287374A3
:1003B000657020706F727420696E76657274206D3E
:1003C00061736B2C20696E743A0020286465666145
:1003D000756C74207365656B2C206D6D2F6D696E67
:1003E000290D0A24363D00202864656661756C7409
:1003F00020666565642C206D6D2F6D696E290D0A70
:1004000024353D002028737465702070756C736509
:100410002C2075736563290D0A24343D0020287A49
:100420002C20737465702F6D6D290D0A24333D00E7
:100430002028792C20737465702F6D6D290D0A2486
:10044000323D002028782C20737465702F6D6D2943
:100450000D0A24313D0024303D00242420287669F3
:100460006577204772626C2073657474696E677378
:10047000290D0A24232028766965772023207061BE
:1004800072616D6574657273290D0A2447202876A0
:100490006965772070617273657220737461746529
:1004A000290D0A244E2028766965772073746172BD
:1004B00074757020626C6F636B73290D0A24783D2C
:1004C00076616C7565202873617665204772626C71
:1004D0002073657474696E67290D0A244E783D6C2B
:1004E000696E652028736176652073746172747516
:1004F0007020626C6F636B290D0A244320286368A7
:1005000065636B2067636F6465206D6F6465290D9B
:100510000A245820286B696C6C20616C61726D2014
:100520006C6F636B290D0A2448202872756E206851
:100530006F6D696E67206379636C65290D0A7E2093
:10054000286379636C65207374617274290D0A21C4
:1005500020286665656420686F6C64290D0A3F2059
:100560002863757272656E74207374617475732973
:100570000D0A6374726C2D7820287265736574207F
:100580004772626C290D0A0073746172740D0A005F
:100590000D0A4772626C20302E3863205B272427B7
:1005A00020666F722068656C705D0D0A005D0D0A33
:1005B0000044697361626C656400456E61626C65DC
:1005C000640043617574696F6E3A20556E6C6F6399
:1005D0006B656400272448277C2724582720746FE4
:1005E00020756E6C6F636B00526573657420746F59
:1005F00020636F6E74696E7565005B002E204D5030
:100600006F733F0D0A0041626F72742064757269E6
:100610006E67206379636C650048617264206C6961
:100620006D697400414C41524D3A20000D0A004161
:100630006C61726D206C6F636B0042757379206F13
:10064000722071756575656400454550524F4D20A7
:1006500072656164206661696C2E205573696E67EE
:100660002064656661756C74730056616C756520F5
:100670003C203320757365630056616C7565203CC2
:1006800020302E300053657474696E67206469737E
:1006900061626C656400496E76616C696420737494
:1006A0006174656D656E74004D6F64616C20677276
:1006B0006F75702076696F6C6174696F6E00496E3A
:1006C00076616C69642072616469757300556E733C
:1006D0007570706F727465642073746174656D6594
:1006E0006E7400457870656374656420636F6D6D2A
:1006F000616E64206C657474657200426164206E82
:10070000756D62657220666F726D617400657272DC
:100710006F723A20006F6B0D0A0011241FBECFEFDD
:10072000D8E0DEBFCDBF11E0A0E0B1E0E4EEF7E637
:1007300002C005900D92A030B107D9F716E0A0E0F5
:10074000B1E001C01D92A33EB107E1F70E947E1007
:100750000C94F0330C940000109200013B9A4398E3
:100760000895439808951F93182F8091000118173A
:1007700049F00E94001E113011F4439A01C04398C1
:10078000109300011F910895F999FECF92BD81BD8C
:1007900081E08FBB80B50895F894F999FECF92BDA2
:1007A00081BD81E08FBB40B54627842F992787FD07
:1007B0009095262F30E082239323892B39F06F3FC9
:1007C00019F060BD84E006C084E104C0442321F038
:1007D00060BD84E28FBBF99A789408958F929F92BE
:1007E000AF92BF92CF92DF92EF92FF920F93DF937F
:1007F000CF9300D0CDB7DEB75C016B017A014A011F
:1008000000E01EC0002319F021E030E008C0202FD6
:10081000332727FD30952227330F221F3327F60178
:1008200061916F01062F020F9C012F5F3F4F3A83AA
:1008300029830E94CC0308948108910889819A81B8
:1008400081149104F9F6C7018A0D9B1D602F0E9447
:10085000CC030F900F90CF91DF910F91FF90EF900D
:10086000DF90CF90BF90AF909F908F900895CF93DF
:10087000DF93EC01FB019A0190E0B1E019C0F99916
:10088000FECFF2BDE1BDBFBBA0B5992319F081E059
:1008900090E008C0892F992787FD90958827990FA8
:1008A000881F992731969A2F980FA993215030408D
:1008B0002115310521F7460F571FF999FECF52BD7B
:1008C00041BD81E08FBB80B520E030E0981711F486
:1008D00021E030E0C901DF91CF910895AF92BF923E
:1008E000CF92DF92EF92FF920F931F9359016A010B
:1008F0000E948F302091AD063091AE064091AF0638
:100900005091B0060E94F42F6093B4057093B50522
:100910008093B6059093B705C601B5010E948F304C
:100920002091B1063091B2064091B3065091B406C1
:100930000E94F42F6093B8057093B9058093BA05AF
:100940009093BB05C801B7010E948F302091B50676
:100950003091B6064091B7065091B8060E94F42F28
:100960006093BC057093BD058093BE059093BF0551
:100970001F910F91FF90EF90DF90CF90BF90AF90BD
:1009800008950F931F93CF93DF93EC018B01D9014F
:100990008C91FA01E80FF11DE081EE23B1F0E883BC
:1009A000E154EA3110F082E00EC08C918F5F8C939D
:1009B000CA01B901A8010E94ED15892B19F021E0A7
:1009C00030E005C081E08093A80520E030E0C90157
:1009D000DF91CF911F910F9108952F923F924F92E7
:1009E0005F926F927F928F929F92AF92BF92CF92BF
:1009F000DF92EF92FF920F931F93DF93CF93CDB7C8
:100A0000DEB7C654D0400FB6F894DEBF0FBECDBFE0
:100A100023969FAF8EAF23978091DE05863019F421
:100A20008CE00C946B0D19828CE0FE013796DF018F
:100A3000482F1D924A95E9F7FE017396DF011D923A
:100A40008A95E9F71092A8052224332421961FAE37
:100A500021971FAE12E0812E912C8C0E9D1EB3E0CB
:100A60006B2E712C6C0E7D1E2E010894411C511CA6
:100A7000A3E0AA2ECC24C394F2E0BF2EC3C1EB8026
:100A8000FC800D811E81C801B7010E9490330E9435
:100A90005C309B014A81473421F04D3409F0B2C1EA
:100AA0004BC16E317105C9F16F317105D4F46431F8
:100AB000710584F461317105B4F56430710569F133
:100AC000653071051CF477235CF525C06A3071052B
:100AD00011F523C0663171057CF16C317105D9F4D3
:100AE0001CC06C3571058CF46A357105FCF46C33EF
:100AF00071053CF46633710514F56533710559F4DD
:100B00000CC06035710539F40BC06C35710529F0E6
:100B10006F35710574F0DD2414C0DD24D39411C049
:100B2000E2E0DE2E0EC073E0D72E0BC064E0D62EBE
:100B300008C056E0D52E05C047E0D42E02C099E08B
:100B4000D92E2531310509F494C026313105A4F59B
:100B50002430310509F467C025303105A4F4213073
:100B6000310509F465C02230310524F4232B09F442
:100B70005CC032C12230310509F45DC0233031053B
:100B800009F02AC15BC02231310509F461C023316B
:100B900031054CF42A30310509F443C021313105C7
:100BA00009F01AC14EC02331310509F458C024316F
:100BB000310509F011C15AC02035310509F492C040
:100BC00021353105ACF42533310509F481C02633D4
:100BD00031054CF42C31310509F44EC02E3131056C
:100BE00009F0FAC049C02C3331050CF0F5C075C0CE
:100BF0002C35310509F480C02D3531054CF42A35EA
:100C0000310509F473C02B35310509F0E5C071C019
:100C10002D35310509F48AC02E35310509F0DCC0C7
:100C200088C0B2E081C0E1E04EC01092A905D6C0F4
:100C3000C092A905D3C0B092A905D0C0A092A905C1
:100C4000CDC01092C105C092C205B092C305C6C006
:100C50001092C105B092C205C092C305BFC0C09238
:100C6000C105B092C2051092C305B8C0C092AB05D1
:100C7000B5C01092AB05B2C0C801B70120E030E0AA
:100C800040E251E40E94C2320E9490330E945C30E4
:100C9000F1E069317F0791F041E06A3174072CF48B
:100CA0006851714009F098C00BC081E06C32780740
:100CB00049F06D52714009F08FC007C0A4E031C007
:100CC000B3E032C0E5E0EFAF89C0F6E0FFAF86C029
:100CD00041E021964FAF219781C0822F86538093A8
:100CE000C4057CC054E05093A90578C0C092AC05FF
:100CF00075C01092AC0572C0C801B70120E030E0A9
:100D000040E251E40E94C2320E9490330E945C3063
:100D100083E06839780739F06959734009F05CC09D
:100D2000A8E0AFAF5BC0B7E0BFAF58C0C092AA05A4
:100D300055C01092AA0552C06630710534F4633074
:100D400071055CF4772334F403C06E31710511F042
:100D5000DD2405C085E0D82E02C008E0D02E243066
:100D6000310569F12530310584F421303105B1F1C7
:100D7000223031051CF4232BC9F02EC0223031055E
:100D8000C1F02330310541F517C028303105F1F0AD
:100D90002930310524F425303105F1F414C029300F
:100DA0003105B9F02E313105B9F403C0C092AD055B
:100DB00015C0B092AD0512C0C092AE050FC0EFEFE6
:100DC000E093AE050BC01092AE0508C0C092AF050F
:100DD00005C01092AF0502C0A092A805DD2091F0D9
:100DE00021E030E002C0220F331FDA94E2F7C9019C
:100DF00082219321892B21F0F5E0F093A80502C010
:100E0000222A332AC401B30123964EAD5FAD239746
:100E100092010E94C104892B09F031CE8091A8056E
:100E2000882309F058C61982992424961FAE249766
:100E300025961FAE259740E826964FAF26975FEB85
:100E400027965FAF27970F2EF0E04F2EF0E05F2E32
:100E5000F0E06F2EF0E07F2EF02D4BAE5CAE6DAE6D
:100E60007EAEDD245E010894A11CB11C13E0812E2E
:100E7000B6E0CB2E46C11A811F347CF41D340CF031
:100E800040C11C340CF080C019340CF05AC0163428
:100E9000E9F0173409F017C134C1143509F4AFC0B3
:100EA000153554F4123509F47EC013350CF097C093
:100EB000103509F008C172C0193509F4D2C01A35CD
:100EC00009F4E8C0183509F0FEC0B2C0EB80FC8020
:100ED0000D811E81C801B70120E030E040E050E004
:100EE0000E94ED2F181614F0C092A8058091AA0553
:100EF000882381F08091AB05882309F4F6C0C801EE
:100F0000B70123E333E34BEC51E40E94C2327B018F
:100F10008C01EBC08091AB05882351F0C801B7016B
:100F200023E333E34BEC51E40E94C2327B018C019A
:100F3000E092B005F092B1050093B2051093B305AD
:100F4000C4C02B813C814D815E818091AB0588239B
:100F500051F0CA01B90123E333E34BEC51E40E94A1
:100F6000C2329B01AC01E12FFF27E7FDF095E95468
:100F7000F040EE0FFF1FEE0FFF1FEA0DFB1D228B4F
:100F8000338B448B558BA1C06B817C818D819E817D
:100F90000E9490330E946130D62E97C04B805C80B7
:100FA0006D807E8092C06B817C818D819E816BAFD4
:100FB0007CAF8DAF9EAF8091AB05882309F485C0CF
:100FC0006BAD7CAD8DAD9EAD23E333E34BEC51E4D3
:100FD0000E94C2326BAF7CAF8DAF9EAF76C06B818B
:100FE0007C818D819E8120E030E040E050E00E94D5
:100FF000ED2F88230CF069C0C092A80566C0EB8075
:10100000FC800D811E81C801B70120E030E040E086
:1010100050E00E94ED2F882314F4C092A805C80167
:10102000B7010E9490330E9461306093C0054DC0AB
:101030002B813C814D815E818091AB05882351F0ED
:10104000CA01B90123E333E34BEC51E40E94C232FD
:101050009B01AC012F83388749875A8771E0972A13
:1010600034C02B813C814D815E818091AB0588230A
:1010700051F0CA01B90123E333E34BEC51E40E9480
:10108000C2329B01AC012B873C874D875E8782E093
:10109000982A1BC02B813C814D815E818091AB05DC
:1010A000882351F0CA01B90123E333E34BEC51E447
:1010B0000E94C2329B01AC012F87388B498B5A8B1F
:1010C00094E0992A02C08092A80524962FAD249717
:1010D00025963FAD259726964FAD269727965FAD6F
:1010E0002797C901DA017C018D012496EFAE249780
:1010F0002596FFAE259726960FAF269727961FAF0A
:101100002797CE010296BE016D5F7F4F23964EADAD
:101110005FAD239795010E94C104892B09F0ABCEE6
:10112000B92C24962FAD249725963FAD259726966A
:101130004FAD269727965FAD2797C901DA018FAB90
:1011400098AFA9AFBAAF8091A805882309F0C3C4AE
:101150008091DE05873041F08091AE050E942F2AF4
:101160008091AF050E94B30331FE13C08E01015E72
:101170001F4F8091C405B8010E949829882309F463
:10118000A9C4A5ECB5E0F8018CE001900D92815066
:10119000E1F7AFADA43009F460C1A53048F4A23046
:1011A00069F1A33008F0ADC0A13009F0ACC10EC0A8
:1011B000BFADB63009F451C1B63008F4A2C0B730A3
:1011C00009F456C1B83009F09EC196C1C301B201FD
:1011D00020E030E040E050E00E94ED2F882324F42E
:1011E00086E08093A8058FC18091DE05873009F4E1
:1011F0008AC1C301B2010E94E91085C1E2E0DE1696
:1012000019F0F4E1DF1651F4C301B2010E949033EA
:101210000E945C30CB010197069720F083E0809319
:10122000A80573C1992021F442E0D41609F422C123
:101230007B010894E108F10854E1D516B1F48E2D34
:1012400064EB75E00E948D298091C40590E08E15B5
:101250009F0509F05AC1E5ECF5E0DF0151978CE0FC
:101260000D9001928150E1F750C18E2CEFE1AE2E2E
:10127000B12CAC0EBD1E8E2DB5010E94982988237D
:1012800009F428C400E010E040E050E0C92CDD245F
:10129000BE01695F7F4FC601002E02C095958795FC
:1012A0000A94E2F780FF0FC09501240F351FFB0160
:1012B000E40FF51F80819181A281B381F9018083C0
:1012C0009183A283B3830F5F1F4F4C5F5F4F033047
:1012D000110509F78E01015E1F4F882DB8010E948C
:1012E0008D298091C40590E08E159F0509F00DC1F0
:1012F000A5ECB5E0F8018CE001900D928150E1F78A
:1013000004C1992009F478C08E01095F1F4F74EB66
:10131000E72E75E0F72ECC24DD24A92CBB24C501D3
:101320000C2C02C0959587950A94E2F780FF35C092
:101330008091AC058823F9F0D70151966D917D918C
:101340008D919C9154975D962D913D914D915C911D
:1013500090970E94142F9B01AC01F801608171816C
:10136000828193810E94142FD8016D937D938D9378
:101370009C9313971CC0F8016081718182819381D5
:10138000D7012D913D914D915C910E94142FF80150
:1013900060837183828393830AC0F7018081918186
:1013A000A281B381F80180839183A283B3830894DF
:1013B000C11CD11C0C5F1F4F44E050E0E40EF51E31
:1013C00053E0C516D10409F0AACF6F8178858985CD
:1013D0009A852B853C854D855E85EF84F888098943
:1013E0001A89A090BF06B090C006C090C106D090E8
:1013F000C20688240E943D116FAD653011F487E06C
:1014000001C086E06BE2662E712C6C0E7D1EB3016E
:101410000E949829882309F45DC36BA57CA58DA53E
:101420009EA52FA538A949A95AA9EBA8FCA80DA9E2
:101430001EA9A090BF06B090C006C090C106D09073
:10144000C20688240E943D11A4EBB5E0F3018CE0B4
:1014500001900D928150E1F758C07FAD763011F4C4
:1014600087E001C086E064EB75E00E948D294BC0E7
:10147000992021F486E08093A80548C004EB15E08C
:1014800057E0C52ED12CCC0EDD1EEE24FF24A92C56
:10149000BB24C5010E2C02C0959587950A94E2F7EE
:1014A00080FF1CC0D8016D917D918D919C91139707
:1014B00051962D913D914D915C9154970E94132F1F
:1014C000F60120813181428153810E94132FD8017E
:1014D0005D966D937D938D939C9390970894E11CFA
:1014E000F11C0C5F1F4FE4E0F0E0CE0EDF1EF3E0D6
:1014F000EF16F10471F609C08CE0E1EDF5E0DF01D3
:101500001D928A95E9F7B92C01C0BB2422FC03C0C7
:10151000BB2009F4CBC28091AA05882399F06FA95A
:1015200078AD89AD9AAD20E030E040E050E00E9417
:10153000ED2F88233CF48091A905843019F086E0D2
:101540008093A8052196BFAD2197BB2339F08091E8
:10155000A905823018F086E08093A8058091A8053F
:10156000882309F0B8C28E01095F1F4F44EBE42EB7
:1015700045E0F42ECC24DD248B2C9924C4010C2CC2
:1015800002C0959587950A94E2F780FF3BC02196AB
:10159000EFAD2197EE2309F03FC08091AC05882381
:1015A000F9F0D70151966D917D918D919C91549751
:1015B0005D962D913D914D915C9190970E94142FD5
:1015C0009B01AC01F80160817181828193810E944D
:1015D000142FD8016D937D938D939C9313971CC00A
:1015E000F8016081718182819381D7012D913D91B4
:1015F0004D915C910E94142FF80160837183828366
:1016000093830AC0F70180819181A281B381F8019F
:1016100080839183A283B3830894C11CD11C0C5F87
:101620001F4F44E050E0E40EF51E53E0C516D10410
:1016300009F0A4CF8091A905843048F4823008F0E5
:101640005EC0882359F0813009F023C220C0843065
:1016500009F01FC2BB2009F41CC299C0BB2009F4C9
:1016600096C06F81788589859A852B853C854D85C7
:101670005E85EF84F88809891A89A090BF06B0902A
:10168000C006C090C106D090C206882435C0BB20D9
:1016900009F47DC06F81788589859A852B853C8585
:1016A0004D855E85EF84F88809891A898090AA059E
:1016B0008820A1F4A091B0052496AFAF2497B091F3
:1016C000B1052596BFAF2597E091B2052696EFAFFD
:1016D0002697F091B3052796FFAF27972496EFAD95
:1016E00024972596FFAD25972696AFAD269727968A
:1016F000BFAD27975F016D010E943D11CAC181E016
:1017000090E00090C30502C0880F991F0A94E2F789
:1017100080958B21E1F16BAD7CAD8DAD9EAD20E070
:1017200030E040E050E00E94ED2F8823A1F5E091E9
:10173000C105F0E0EE0FFF1FEE0FFF1F8E010F5FE0
:101740001F4FE00FF11F628973898489958920E01A
:1017500030E040E050E00E94ED2F8823E1F48091DA
:10176000C20590E0880F991F880F991F080F191F55
:10177000D80152966D917D918D919C91559720E065
:1017800030E040E050E00E94ED2F882321F486E015
:101790008093A8057EC16BAD7CAD8DAD9EAD20E084
:1017A00030E040E050E00E94ED2F8E010F5F1F4FB0
:1017B000882309F4F5C0E091C105F0E0EE0FFF1FAA
:1017C000EE0FFF1FD801AE0FBF1FEC54FA4F169655
:1017D0006D917D918D919C911997208131814281EC
:1017E00053810E94132F1B012C01E091C205F0E0F0
:1017F000EE0FFF1FEE0FFF1F0E0F1F1FEC54FA4FCF
:10180000D80116966D917D918D919C9119972081AB
:101810003181428153810E94132F3B014C018CE0A6
:10182000FE017396DF011D928A95E9F76BAD7CADE1
:101830008DAD9EAD20E030E040E850E40E94C23221
:101840002BAD3CAD4DAD5EAD0E94C2327B018C0133
:10185000C201B101A20191010E94C2329B01AC01FF
:10186000C801B7010E94132F7B018C01C401B30191
:10187000A40193010E94C2329B01AC01C801B701CF
:101880000E94132F7B018C0120E030E040E050E00B
:101890000E94ED2F882324F484E08093A8051BC1C7
:1018A000C801B7010E944F337B018C01C201B10115
:1018B000A40193010E94FD319B01AC0117FB10951F
:1018C00017F91095C801B7010E94F42F6B017C0134
:1018D0008091A905833021F4F7FAF094F7F8F09499
:1018E0006BAD7CAD8DAD9EAD20E030E040E050E0D2
:1018F0000E94ED2F88236CF4F7FAF094F7F8F09437
:101900004BAD5CAD6DAD7EAD70584BAF5CAF6DAFA8
:101910007EAF0091C105A02EBB24AA0CBB1CAA0C53
:10192000BB1C8E010F5F1F4FA00EB11EC401B3017F
:10193000A70196010E94C2329B01AC01C201B10114
:101940000E94132F20E030E040E05FE30E94C232AB
:10195000D50152966D937D938D939C93559780916D
:10196000C20590E0880F991F880F991F080F191F53
:10197000C201B101A70196010E94C2329B01AC01D4
:10198000C401B3010E94142F20E030E040E05FE387
:101990000E94C232F801628B738B848B958B23C0BB
:1019A000E091C105F0E0EE0FFF1FEE0FFF1FE00F0B
:1019B000F11F62897389848995892091C20530E07D
:1019C000220F331F220F331F020F131FD80152960D
:1019D0002D913D914D915C9155970E94FD316BAFDA
:1019E0007CAF8DAF9EAF9091A9052091C10500916C
:1019F000C205E090C3058090AA058820A1F4B091AB
:101A0000B0052496BFAF2497E091B1052596EFAFBE
:101A10002597F091B2052696FFAF26974091B30522
:101A200027964FAF279700D000D00F92EDB7FEB7A3
:101A300031964BAD5CAD6DAD7EADADB7BEB7119619
:101A40004D935D936D937C93149780E0923009F4ED
:101A500081E0848384EB95E0BE01695F7F4FAE0136
:101A60004D5E5F4F24963FAD24972596EFAD2597A9
:101A70002696FFAD26972796AFAD2797A32EBE2EAD
:101A8000CF2EDA2E0E942D120F900F900F900F90F4
:101A90000F908091A8058823F1F4A4EBB5E0FE0136
:101AA00037968CE001900D928150E1F78091AD0561
:101AB000882369F00E94001E1092EC058091AD050C
:101AC000823019F40E94CF1002C01092AD058091AF
:101AD000A80501C08AE0CA5BDF4F0FB6F894DEBFED
:101AE0000FBECDBFCF91DF911F910F91FF90EF906F
:101AF000DF90CF90BF90AF909F908F907F906F902E
:101B00005F904F903F902F900895E8EAF5E085E3CD
:101B1000DF011D928A95E9F78091BB069091BC0682
:101B2000A091BD06B091BE068093B0059093B1051B
:101B3000A093B205B093B3051092C10591E09093C4
:101B4000C20582E08093C3059093AC058091C405E3
:101B5000BF01635E7F4F0E949829882319F48AE0B1
:101B60000E945922089584B1817F84B985B18E6025
:101B700085B98091D00683FF09C080916B008E608B
:101B800080936B0080916800816008C080916B0039
:101B9000817F80936B00809168008E7F80936800C6
:101BA00008952F923F924F925F926F927F928F9201
:101BB0009F92AF92BF92CF92DF92EF92FF920F93DC
:101BC0001F93DF93CF93CDB7DEB7A9970FB6F894E5
:101BD000DEBF0FBECDBF382E562E49A738014901B2
:101BE000FE0131968CE0DF011D928A95E9F7032D05
:101BF00030FC02C010E00FC06091AD067091AE06DF
:101C00008091AF069091B0060E94923269837A83E8
:101C10008B839C8311E001FF0FC01F5F6091B106B1
:101C20007091B2068091B3069091B4060E949232F0
:101C30006D837E838F83988702FF0FC01F5F609143
:101C4000B5067091B6068091B7069091B8060E94CD
:101C5000923269877A878B879C8789859A85AB853D
:101C6000BC852D813E814F8158852DA33EA34FA376
:101C700058A7281739074A075B0720F48DA39EA3AE
:101C8000AFA3B8A789819A81AB81BC814DA15EA128
:101C90006FA178A5481759076A077B0720F48DA321
:101CA0009EA3AFA3B8A7612F70E080E090E00E94F0
:101CB0008D300E944F335B016C016DA17EA18FA11D
:101CC00098A50E948D30A60195010E94F42F7B01FA
:101CD0008C012091C8063091C9064091CA065091E6
:101CE000CB060E94C23220E030E84BE355E40E946C
:101CF000F42F0E94DA2F0E94613069A37AA38BA38C
:101D00009CA3C401B301A60195010E94C2329B01AC
:101D1000AC01C801B7010E94C2329B01AC0160EC6A
:101D200071EE84E69CE40E94F42F0E9492327B01C3
:101D30008C0158EFE51654E2F50651E0050750E036
:101D4000150718F45701680107C038EFA32E34E2D5
:101D5000B32E31E0C32ED12C4090D10660EE462246
:101D60008091C3064826552011F480EE48268DA1A7
:101D70009EA1AFA1B8A5B695A7959795879566241E
:101D800077244301681A790A8A0A9B0A8091BA0665
:101D9000A6019501281B3109410951092D8B3E8B64
:101DA0004F8B588F6D8E7E8E8F8E98A2698E7A8E15
:101DB0008B8E9C8E198A1A8A1B8A1C8A40E157E2F4
:101DC00060E070E04D875E876F87788B84E0282E17
:101DD000242423B159A5552311F06EE0262730FEA7
:101DE0001DC089819A81AB81BC81680E791E8A1ED3
:101DF0009B1E161417041804190484F421FF02C052
:101E0000522C03C07EEF3722542C8DA19EA1AFA18E
:101E1000B8A5681A790A8A0A9B0A01C0542C31FEB7
:101E20002CC08D819E81AF81B8854D8D5E8D6F8D6B
:101E300078A1480F591F6A1F7B1F4D8F5E8F6F8FD0
:101E400078A31416150616061706BCF422FF03C065
:101E500058E0552602C06DEF36228D8D9E8DAF8DD8
:101E6000B8A14DA15EA16FA178A5841B950BA60B0F
:101E7000B70B8D8F9E8FAF8FB8A332FE2CC0898594
:101E80009A85AB85BC85498D5A8D6B8D7C8D480FAD
:101E9000591F6A1F7B1F498F5A8F6B8F7C8F1416B7
:101EA000150616061706BCF423FF03C050E155269D
:101EB00002C06BEF3622898D9A8DAB8DBC8D2DA122
:101EC0003EA14FA158A5821B930BA40BB50B898F84
:101ED0009A8FAB8FBC8F0E94D91F332009F46AC040
:101EE0008091DD05882309F065C08BB13CE1532268
:101EF000837E582A5BB86091BA0670E080E090E07B
:101F00000E9470154BB86D897E898F89988D0E94CB
:101F10007015EA14FB040C051D0508F05ACF4D8519
:101F20005E856F8578894A0D5B1D6C1D7D1D4D8713
:101F30005E876F87788B41328EE4580780E06807B0
:101F400080E0780708F445CF40525E44604070401E
:101F50004D875E876F87788B29893A894B895C89A1
:101F600069A17AA18BA19CA1260F371F481F591F79
:101F7000298B3A8B4B8B5C8B60E077E883E993E0AD
:101F80000E94CE33C901DA015C016D01AE14BF04B9
:101F9000C006D10610F4570168018091BA06A60167
:101FA0009501281B3109410951092D8B3E8B4F8B1F
:101FB000588F0FCFA9960FB6F894DEBF0FBECDBFD6
:101FC000CF91DF911F910F91FF90EF90DF90CF9015
:101FD000BF90AF909F908F907F906F905F904F9049
:101FE0003F902F900895FF920F931F930E944B2ACA
:101FF0000091D6061091D7062091D8063091D906C7
:1020000084E061E040E00E94D10D0091D60610917D
:10201000D7062091D8063091D90683E061E040E0F0
:102020000E94D10D8091DA069091DB060E94661520
:1020300042E0F42EFA940091D2061091D30620913A
:10204000D4063091D50687E060E041E00E94D10DD2
:102050008091DA069091DB060E94661581E0F81601
:10206000A1F40091D2061091D3062091D4063091AC
:10207000D50687E061E040E00E94D10D8091DA064C
:102080009091DB060E946615D5CFFF2099F60E943D
:102090004D2B1F910F91FF9008951F920F920FB635
:1020A0000F9211242F933F934F935F936F937F93DE
:1020B0008F939F93AF93BF93EF93FF938091DE0530
:1020C000863059F08091DF0585FD07C00E94CF1052
:1020D0008091DF0580648093DF05FF91EF91BF91D0
:1020E000AF919F918F917F916F915F914F913F91B0
:1020F0002F910F900FBE0F901F9018950F931F9365
:102100000E94B6260E94C3290E94662B789480E123
:10211000EDEDF5E0DF011D928A95E9F781E080930E
:10212000DD058093DE0506E011E08091DD05882362
:1021300089F10E942B270E941D1E0E94850D0E947E
:10214000F3210E94272A0E94AC030E94B30D0E9433
:10215000392B0E94B0151092DD051092DF05809199
:10216000D006982F81FF02C01093EC058091DE0508
:10217000813021F494FF02C00093DE058091DE05DA
:10218000863021F482E00E94182204C01092DE05FD
:102190000E943A200E94D91F0E94A421C6CF80919C
:1021A000DF0584FD15C08091DF0580618093DF0528
:1021B0000E942D2A0E94B1038091DE058350833056
:1021C00038F48091DF0580628093DF050E944D2BFB
:1021D0000895EF92FF920F931F93CF93DF937B01AC
:1021E0008C0120E030E040EA51E40E94C2320E94BB
:1021F000CA300E946130EB010E94001EC801B70185
:1022000020E030E04AE754E40E94C2327B018C01B6
:1022100082E390E0C89FB001C99F700DD89F700DF8
:10222000112480E090E00E948D309B01AC01C80138
:10223000B7010E94132F0E94CA300E946130DC0156
:10224000CB010E94661500E911E00EC00E94D91F63
:102250008091DD05882351F484EF91E0F8013197F6
:10226000F1F70197D9F72197209781F7DF91CF9167
:102270001F910F91FF90EF9008954F925F926F9290
:102280007F928F92AF92BF92CF92DF92EF92FF92A6
:102290000F931F93DF93CF9300D000D0CDB7DEB75D
:1022A0002B013C0129833A834B835C838091DE05BB
:1022B0008730F9F00E94D91F8091DD058823C9F489
:1022C0000E94CA168823B1F7C301B20129813A815D
:1022D0004B815C810E945B1A8091DE05882319F492
:1022E00082E08093DE058091EC05882311F00E9446
:1022F000E42A0F900F900F900F90CF91DF911F91D4
:102300000F91FF90EF90DF90CF90BF90AF908F90A4
:102310007F906F905F904F9008952F923F924F92D1
:102320005F926F927F928F929F92AF92BF92CF9265
:10233000DF92EF92FF920F931F9385E08093DE056B
:1023400080916B00817F80936B000E94F30F8091DE
:10235000DD05882309F070C08CE0E0EEF5E0DF01D8
:102360001D928A95E9F70E94B0151092DE05309112
:10237000D106232F35FD02C06FEF01C061E026FDBD
:1023800003C0DD24DA9402C0DD24D39437FD03C0FA
:10239000CC24CA9402C0CC24C394E090DC06F09014
:1023A000DD060091DE061091DF06772767FD709548
:1023B000872F972F0E948F30A80197010E94C23269
:1023C0001B012C016D2D772767FD7095872F972FA7
:1023D0000E948F30A80197010E94C2323B014C013C
:1023E0006C2D772767FD7095872F972F0E948F3070
:1023F000A80197010E94C2327B018C01A090D606F1
:10240000B090D706C090D806D090D906C201B101CD
:10241000A401930188240E943D110E94E42A0E9495
:10242000001E0E94B0158091D00683FF05C08091E8
:102430006B008E6080936B001F910F91FF90EF9067
:10244000DF90CF90BF90AF909F908F907F906F90D4
:102450005F904F903F902F9008952F923F924F9210
:102460005F926F927F928F929F92AF92BF92CF9224
:10247000DF92EF92FF920F931F93DF93CF93CDB72D
:10248000DEB7CE54D0400FB6F894DEBF0FBECDBF3E
:102490003C017EAF6DAF21965FAF4EAF2197229684
:1024A0002FAF229723960FAF23972496EFAE249752
:1024B0002896ACAEBDAECEAEDFAE289729968FAED5
:1024C0002997E22EFF24EE0CFF1CEE0CFF1C4E0D94
:1024D0005F1D5CAF4BAFDA012D903D904D905C904D
:1024E000FC01EE0DFF1DC201B1012081318142814D
:1024F00053810E94142F69AB7AAB8BAB9CAB10E07D
:10250000000F111F000F111F2196EEADFFAD219797
:10251000E00FF11FFAAFE9AFA080B180C280D38095
:10252000F301E00FF11FC601B50120813181428125
:1025300053810E94142F6DA77EA78FA798AB249676
:102540002FAD2497E22FF0E0EE0FFF1FEE0FFF1FDD
:102550006E0E7F1ED3018D919D910D90BC91A02D8B
:102560008DAB9EABAFABB8AF2DAD3EADE20FF31F61
:1025700060817181828193812DA93EA94FA958ADB7
:102580000E94132F69A77AA78BA79CA7D201C1012C
:10259000B0588DA39EA3AFA3B8A7A601950150582C
:1025A00029A33AA34BA35CA34DAD5EADE40EF51E8B
:1025B000D7016D917D918D919C9129A93AA94BA943
:1025C0005CA90E94132F3B014C01EDADFEAD0E0F37
:1025D0001F1FD8016D917D918D919C912DA53EA5D8
:1025E0004FA558A90E94132F5B016C016DA17EA11C
:1025F0008FA198A5A60195010E94C2327B018C0192
:1026000069A17AA18BA19CA1A40193010E94C2326D
:102610009B01AC01C801B7010E94132F1B012C01C3
:102620006DA17EA18FA198A5A40193010E94C23241
:102630007B018C0169A17AA18BA19CA1A6019501C6
:102640000E94C2329B01AC01C801B7010E94142F45
:102650009B01AC01C201B1010E94872F5B016C019B
:10266000A8968FADA897882399F0C601B50120E000
:1026700030E040E050E00E94F0318823ECF0C601E9
:10268000B5012BED3FE049EC50E40E94132F12C03E
:10269000C601B50120E030E040E050E00E94ED2F9F
:1026A000181654F0C601B5012BED3FE049EC50E49B
:1026B0000E94142F5B016C01C601B501A7962CADD9
:1026C0003DAD4EAD5FADA7970E94C23229A53AA598
:1026D0004BA55CA50E94FD317B018C0120E030E020
:1026E00040E050E00E94ED2F882309F4D5C1C801D5
:1026F000B7012091C4063091C5064091C60650919D
:10270000C7060E94F42F0E94CA300E94613078A34D
:102710006F8F2996BFAD2997BB23A1F080E090E091
:102720000E948D309B01AC0128966CAD7DAD8EADC5
:102730009FAD28970E94C23228966CAF7DAF8EAFB6
:102740009FAF28972F8D38A1B90180E090E00E94BB
:102750008D307B018C01C601B501A80197010E9453
:10276000F42F6B8F7C8F8D8F9E8F69A57AA58BA59B
:102770009CA5A80197010E94F42F6F8B788F898FF9
:102780009A8F6B8D7C8D8D8D9E8D20E030E040E0AA
:102790005FEB0E94C2322B8D3C8D4D8D5E8D0E9471
:1027A000C23220E030E040E85FE30E94142F6B8BE0
:1027B0007C8B8D8B9E8B24963FAD2497E32FF0E08E
:1027C000EE0FFF1FEE0FFF1FCE010196E80FF91F5E
:1027D0002DA93EA94FA958AD20833183428353834D
:1027E00041E050E05E874D8766242296BFAD229778
:1027F000AB2FB0E0AA0FBB1FAA0FBB1FA80FB91FBA
:102800002B96BFAFAEAF2B9723963FAD2397232FC9
:1028100030E0220F331F220F331F280F391F2D9650
:102820003FAF2EAF2D972F96FFAFEEAF2F970EC174
:10283000262D332727FD30958091E20690E028175A
:1028400039070CF046C06DA17EA18FA198A52B8DF4
:102850003C8D4D8D5E8D0E94C2327B018C0169A141
:102860007AA18BA19CA12B893C894D895E890E940C
:10287000C2329B01AC01C801B7010E94142F7B0139
:102880008C016DA17EA18FA198A52B893C894D89D2
:102890005E890E94C2325B016C0169A17AA18BA1A1
:1028A0009CA12B8D3C8D4D8D5E8D0E94C2329B0173
:1028B000AC01C601B5010E94132F6DA37EA38FA3A7
:1028C00098A76394C701D80189A39AA3ABA3BCA31B
:1028D00061C04D855E85BA0180E090E00E948D3038
:1028E0002B8D3C8D4D8D5E8D0E94C2327B018C0103
:1028F000C8010E94F12F6F87788B898B9A8BB70163
:10290000C8010E9445333B014C01ABADBCADED901D
:10291000FD900D911C9117FB109517F91095E9ADDD
:10292000FAAD2080318042805380C801B7012F85E5
:10293000388949895A890E94C2325B016C01C201FF
:10294000B101A40193010E94C2329B01AC01C601F6
:10295000B5010E94142F6DA37EA38FA398A7C80171
:10296000B701A40193010E94C2327B018C01C20114
:10297000B1012F85388949895A890E94C2329B0149
:10298000AC01C801B7010E94132F69A37AA38BA3DE
:102990009CA3662469A97AA98BA99CA92DA13EA113
:1029A0004FA158A50E94142F2B96AEADBFAD2B970B
:1029B0006D937D938D939C9313976DA57EA58FA5A5
:1029C00098A929A13AA14BA15CA10E94142F2D9690
:1029D000EEADFFAD2D9760837183828393832F9635
:1029E000AEADBFAD2F976D917D918D919C912F894B
:1029F000388D498D5A8D0E94142F2F96EEADFFAD64
:102A00002F97608371838283938369817A818B811D
:102A10009C812D813E814F815885E984FA840B8504
:102A20001C852896ACACBDACCEACDFAC2897299603
:102A30008FAC29970E943D118091DD05882361F5B7
:102A40002D853E852F5F3F4F3E872D874D855E85C7
:102A50008F8D98A14817590708F4EACEADADBEADE9
:102A60006D917D918D919C91139714962D913D912F
:102A70004D915C9117971896ED90FD900D911C91DA
:102A80001B972896ACACBDACCEACDFAC2897299692
:102A90008FAC29970E943D11C25BDF4F0FB6F894AF
:102AA000DEBF0FBECDBFCF91DF911F910F91FF9081
:102AB000EF90DF90CF90BF90AF909F908F907F90DE
:102AC0006F905F904F903F902F90089520EA3FE0E5
:102AD00004C0F9013197F1F701970097D1F70895F4
:102AE0001F93A0EABFE040E951E015E335E031C0B3
:102AF0006A3071058105910540F4232F2A95F1F77D
:102B0000615070408040904024C06436710581055A
:102B1000910540F4212F2A95F1F76A5070408040CA
:102B2000904017C0683E23E0720720E0820720E053
:102B3000920740F4FA013197F1F7645670408040F3
:102B4000904007C0FD013197F1F7685E7340804007
:102B50009040611571058105910551F61F91089509
:102B6000EF92FF920F931F936091E0057091E10542
:102B70008091E2059091E3052091E4053091E5050F
:102B80004091E6055091E705E090E805F090E905F1
:102B90000091EA051091EB050E94D4166091E005C2
:102BA0007091E1058091E2059091E3052091E405A3
:102BB0003091E5054091E6055091E705E090E80584
:102BC000F090E9050091EA051091EB050E946E0472
:102BD0001F910F91FF90EF9008956F927F928F92C7
:102BE0009F92AF92BF92CF92DF92EF92FF920F939C
:102BF0001F93CF93DF934C013B015A01FB0180816E
:102C0000F401E80FF11DEF0189918D3229F48181E2
:102C10002196CC24C39405C08B3211F48181219676
:102C2000CC2420E030E040E050E0DD24E0E070E043
:102C3000682F60536A30F8F4EF5FE930C0F4711127
:102C4000DA94DA01C901F2E0880F991FAA1FBB1FAD
:102C5000FA95D1F7280F391F4A1F5B1F220F331F28
:102C6000441F551F260F311D411D511D09C07723DB
:102C700039F4D39405C06E3F29F4772319F471E039
:102C80008991D6CFEE2319F420E030E051C0CA017B
:102C9000B9010E948D307B018C0120E030E040E0E2
:102CA00050E00E94ED2F882369F42BC0C801B701C2
:102CB0002AE037ED43E25CE30E94C2327B018C01E3
:102CC000F2E0DF0E8FEFD8168CF3D81659F4C80156
:102CD000B7012DEC3CEC4CEC5DE30E94C2327B0171
:102CE0008C010FC0DD2069F0C801B70120E030E0A1
:102CF00040E251E40E94C2327B018C01DA941D143F
:102D00009CF3CC2049F0D801C701B058F50180836D
:102D10009183A283B38305C0F501E082F18202832F
:102D20001383882D80958C0FF301808321E030E0A0
:102D3000C901DF91CF911F910F91FF90EF90DF902C
:102D4000CF90BF90AF909F908F907F906F9008959D
:102D50009091270580912805981741F080912805CA
:102D60008F5F823109F480E0809328050895909167
:102D7000270580912805981719F420E030E008C055
:102D8000909128058BE3989F900111242F5F3E4F6F
:102D9000C90108959091280520E080912905981790
:102DA00009F421E0822F0895EF92FF920F931F9371
:102DB00060932A0570932B0580932C0590932D0525
:102DC00020932E0530932F05409330055093310505
:102DD000E0923205F09233050093340510933505E7
:102DE0001F910F91FF90EF9008958F929F92AF9255
:102DF000BF92CF92DF92EF92FF920F931F93CF93E8
:102E0000DF93EC016B01009709F460C08AA188236D
:102E100009F05CC0ED88FE880F89188DFB01B5882C
:102E2000A6889788808CC801B7012B2D3A2D492D93
:102E3000582D0E94ED2F88230CF048C0C801B7011F
:102E4000A80197010E94C2327B018C016091C806E3
:102E50007091C9068091CA069091CB06905820E0E7
:102E600030E040E050EC0E94C2322D8D3E8D4F8DFF
:102E700058A10E94C2329B01AC01C801B7010E9457
:102E8000142F0E944F337B018C016B2D7A2D892DDD
:102E9000982D9701A8010E94ED2F882324F4EB2C94
:102EA000FA2C092D182D6B2D7A2D892D982D97012F
:102EB000A8010E94ED2F882349F0C701D801F6012F
:102EC000858B968BA78BB08F81E081A3DF91CF910B
:102ED0001F910F91FF90EF90DF90CF90BF90AF9038
:102EE0009F908F9008952F923F924F925F926F9292
:102EF0007F928F929F92AF92BF92CF92DF92EF928A
:102F0000FF920F931F93DF93CF93CDB7DEB76897F0
:102F10000FB6F894DEBF0FBECDBF1C016A017B0166
:102F200028013901DC01D7966D917D918D919C919D
:102F3000DA970E948D304B015C01A70196010E9437
:102F4000C2320E94DA2F0E9461307B018C01F101B4
:102F500063A374A385A396A3C501B401A301920141
:102F60000E94C2320E94DA2F0E94613069877A87FC
:102F70008B879C87D10197966D937D938D939C93BE
:102F80009A979B966D917D918D919C919E9722E34E
:102F900030E040E050E00E94AF330E948F3020E0EC
:102FA00030E040E752E40E94C2320E945C302B01C4
:102FB0003C01C801B7010E948D307B018C01C30127
:102FC000B2010E948F306D837E838F839887C50105
:102FD000B401A50194010E94C2325B016C01C801D9
:102FE000B701A80197010E94C2326D877E878F8743
:102FF000988B6D817E818F8198859B01AC010E94A9
:10300000142F698B7A8B8B8B9C8BC601B5012D8518
:103010003E854F8558890E94132F29893A894B890B
:103020005C890E94F42F0E94DA2F0E945C30698331
:103030007A838B839C8369857A858B859C850E94A6
:103040008D309B01AC010E94C2326D8B7E8B8F8BC9
:10305000988FA60195010E94132F7B018C0170941B
:10306000609450944094411C511C611C711CC3011C
:10307000B2010E948F309B01AC010E94142F9B0172
:10308000AC01C801B7010E94F42F0E94CA30F101BF
:10309000A584B684C784D0888601750129813A81C8
:1030A0004B815C81E21AF30A040B150B0E945C3021
:1030B000A8019701261B370B480B590BDA01C901F0
:1030C00057FF4AC0C601B5010E948F309B01AC0179
:1030D00069897A898B899C890E94C2322D853E85B7
:1030E0004F8558890E94132F2D893E894F89588D0D
:1030F0000E94142F7B018C016D817E818F819885C8
:1031000020E030E040E850E40E94C2329B01AC0174
:10311000C801B7010E94F42F0E94DA2F0E945C3090
:10312000AC01CB01DA01BC01CD0197FF04C060E026
:1031300070E080E090E069837A838B839C83A6169D
:10314000B706C806D90624F4A982BA82CB82DC82EB
:1031500080E090E0A0E0B0E029813A814B815C8181
:10316000F10127A730AB41AB52AB820F931FA41FD5
:10317000B51F83AB94ABA5ABB6AB68960FB6F8940E
:10318000DEBF0FBECDBFCF91DF911F910F91FF909A
:10319000EF90DF90CF90BF90AF909F908F907F90F7
:1031A0006F905F904F903F902F9008952F923F9295
:1031B0004F925F927F928F929F92AF92BF92CF92E7
:1031C000DF92EF92FF920F931F93CF93DF93D090F4
:1031D00027058091C8069091C906A091CA06B091B2
:1031E000CB061C012D0157FA509457F8509400E07B
:1031F00010E0C0E0D0E0BB24B3943BE3C32E72C028
:10320000DD2011F422E1D22EDA94209709F463C074
:103210000115110509F45FC0A98C9A8C8B8C7C8CEC
:103220006D897E898F89988D2A2D392D482D572DAE
:103230000E94ED2F882309F44EC08AA1882309F04B
:1032400041C0F801E588F6880789108D6A2D792D2F
:10325000882D972DA80197010E94F031181694F53A
:10326000C801B701A80197010E94C2327B018C01FD
:10327000C201B10120E030E040E050EC0E94C232D7
:103280002D8D3E8D4F8D58A10E94C2329B01AC0105
:10329000C801B7010E94142F0E944F33162F072F29
:1032A000F82EE92E6A2D792D882D972D212F302F7C
:1032B0004F2D5E2D0E94ED2F87FD04C0A12E902E74
:1032C0008F2C7E2C8A2D992DA82DB72D8D8B9E8B22
:1032D000AF8BB88FB9A2DC9CC00111248E01EC0128
:1032E000CF5FDE4F80912805D81609F089CFF09086
:1032F000280520E030E000E010E09BE3E92E11C05B
:10330000FE9CE0011124CF5FDE4FC901B801AE0180
:103310000E94F516F394F2E1FF1609F4FF249801D8
:103320008E0180912705F81659F7C901B80140E0D0
:1033300050E00E94F51670902805C0E0D0E08BE3C5
:10334000582E35C0759C4001112481E091E0880E13
:10335000991E209731F189A1882321F4F40181A1DC
:103360008823F9F0E988FA880B891C896D897E89A0
:103370008F89988DA80197010E94F42F5B016C0141
:10338000F401658976898789908DA80197010E944B
:10339000F42F8B019C01CE01B601A5010E94731789
:1033A00019A27394F2E17F1609F47724E401809165
:1033B0002705781639F6E988FA880B891C896D8902
:1033C0007E898F89988DA80197010E94F42F5B0157
:1033D0006C0160E070E080E090E0A80197010E943D
:1033E000F42F8B019C01CE01B601A5010E94731739
:1033F00019A2DF91CF911F910F91FF90EF90DF9075
:10340000CF90BF90AF909F908F907F905F904F90A4
:103410003F902F900895AF92BF92CF92DF92EF929C
:10342000FF920F931F93CF93DF935B016C019091F9
:1034300028058BE3989FE0011124CF5FDE4FC60182
:10344000B5010E948F302D8D3E8D4F8D58A10E9469
:10345000C2327B018C016D857E858F8598890E94A3
:103460008F309B01AC01C801B7010E94F42F6D8F12
:103470007E8F8F8F98A3AD86BE86CF86D88A80E058
:1034800090E0A0E0B0E08D8B9E8BAF8BB88F898FE2
:103490009A8FAB8FBC8F1AA281E089A30E94D618A5
:1034A000DF91CF911F910F91FF90EF90DF90CF9020
:1034B000BF90AF9008952F923F924F925F926F927C
:1034C0007F928F929F92AF92BF92CF92DF92EF92B4
:1034D000FF920F931F93DF93CF93CDB7DEB7AF97D4
:1034E0000FB6F894DEBF0FBECDBF29013A01ADA2E1
:1034F000BEA2CFA2D8A689A6309127052BE3329F82
:103500001001112421E031E0220E331E2091AD067E
:103510003091AE064091AF065091B0060E94C23283
:103520000E94923269837A838B839C83C301B201A8
:103530002091B1063091B2064091B3065091B40685
:103540000E94C2320E9492326D837E838F8398875D
:10355000C801B7012091B5063091B6064091B70673
:103560005091B8060E94C2320E94923269877A87CF
:103570008B879C87D1011C9229813A814B815C8188
:1035800080912A0590912B05A0912C05B0912D05D5
:10359000281739074A075B071CF480E2F101808392
:1035A0002D813E814F81588580912E0590912F0568
:1035B000A0913005B0913105281739074A075B07FC
:1035C00024F4D1018C9180648C9329853A854B85B4
:1035D0005C858091320590913305A0913405B091BE
:1035E0003505281739074A075B0724F4F101808164
:1035F0008068808329813A814B815C8180912A0592
:1036000090912B05A0912C05B0912D05281B390B0D
:103610004A0B5B0B57FF07C050954095309521959D
:103620003F4F4F4F5F4FD10111962D933D934D93D7
:103630005C931497AD80BE80CF80D88480912E0596
:1036400090912F05A0913005B0913105A81AB90AC3
:10365000CA0ADB0AF101A582B682C782D086D7FEEC
:103660000BC088279927DC018A199B09AC09BD0981
:1036700085839683A783B08729853A854B855C85AA
:103680008091320590913305A0913405B0913505B4
:10369000281B390B4A0B5B0B57FF07C05095409511
:1036A000309521953F4F4F4F5F4FD10119962D9384
:1036B0003D934D935C931C971596ED90FD900D9165
:1036C0001C91189711968D919D910D90BC91A02DF4
:1036D0008E159F05A007B10710F4D801C701821706
:1036E0009307A407B50710F4DA01C901F101858732
:1036F0009687A787B08B0097A105B10509F467C22B
:1037000069817A818B819C8120912A0530912B05DA
:1037100040912C0550912D05621B730B840B950B6A
:103720000E948F302091AD063091AE064091AF06D9
:103730005091B0060E94F42F69A37AA38BA39CA397
:10374000C601B5010E948F302091B1063091B206BA
:103750004091B3065091B4060E94F42F6D8F7E8F76
:103760008F8F98A369857A858B859C8520913205FA
:10377000309133054091340550913505621B730B30
:10378000840B950B0E948F302091B5063091B606C0
:103790004091B7065091B8060E94F42F698F7A8F36
:1037A0008B8F9C8F69A17AA18BA19CA19B01AC01FD
:1037B0000E94C2327B018C016D8D7E8D8F8D98A110
:1037C0009B01AC010E94C2329B01AC01C801B70150
:1037D0000E94142F7B018C01698D7A8D8B8D9C8DBD
:1037E0009B01AC010E94C2329B01AC01C801B70130
:1037F0000E94142F0E944F337B018C01D1015D96F2
:103800006D937D938D939C93909760E070E080E83A
:103810009FE3A80197010E94F42F3B014C01B9A539
:10382000BB2349F46DA17EA18FA198A5A4019301AA
:103830000E94C2320AC060E070E080E89FE32DA1E0
:103840003EA14FA158A50E94F42F5B016C01C80155
:10385000B701A60195010E94C2326AA77BA78CA777
:103860009DA7F101618B728B838B948B6585768527
:10387000878590890E948F307B018C01A60195017C
:103880000E94C2320E94DA2F0E946130D101D79685
:103890006D937D938D939C93DA97C801B701A40132
:1038A00093010E94C2322091C8063091C90640910E
:1038B000CA065091CB060E94C23220E030E84BE3AA
:1038C00055E40E94F42F0E94DA2F0E945C30F1012F
:1038D00063A774A785A796A769A17AA18BA19CA1CC
:1038E000A40193010E94C2327B018C016D877E8707
:1038F0008F87988B6D8D7E8D8F8D98A1A4019301FC
:103900000E94C2325B016C01698B7A8B8B8B9C8B22
:10391000698D7A8D8B8D9C8DA40193010E94C2329A
:103920003B014C016D8B7E8B8F8B988F909127057F
:1039300080912805981709F4BDC0F0914205FEA7B3
:10394000209143052FA750904405409045056F2FC7
:10395000722F852D942D20E030E040E050E00E9451
:10396000F03118160CF0A6C060913605709137053D
:1039700080913805909139059058A80197010E94CF
:10398000C2327B018C0160913A0570913B058091B8
:103990003C0590913D05A60195010E94C2329B0114
:1039A000AC01C801B7010E94132F7B018C01C40137
:1039B000B30120913E0530913F0540914005509163
:1039C00041050E94C2329B01AC01C801B7010E94AF
:1039D000132F7B018C0123E333E343E75FE30E9472
:1039E000ED2F88230CF066C06EA57FA5852D942D44
:1039F0002AA53BA54CA55DA50E94ED2F87FD08C01B
:103A00008AA59BA5ACA5BDA58EA79FA75A2E4B2E18
:103A1000C801B70123E333E343E75FEB0E94F031D2
:103A200018160CF04CC060E070E080E89FE3A8013D
:103A300097010E94132F20E030E040E05FE30E94F6
:103A4000C2320E944F335B016C016091C8067091D5
:103A5000C9068091CA069091CB062091CC06309180
:103A6000CD064091CE065091CF060E94C232A601EB
:103A700095010E94C2327B018C0160E070E080E819
:103A80009FE3A60195010E94132F9B01AC01C80181
:103A9000B7010E94F42F0E944F337B018C016EA569
:103AA0007FA5852D942D9701A8010E94ED2F87FDFC
:103AB00006C009C0EE24FF2400E010E004C0EEA41C
:103AC000FFA4052D142DC701D801F101818F928F1C
:103AD000A38FB48F6091C8067091C9068091CA0601
:103AE0009091CB06905820E030E040E050EC0E94EE
:103AF000C232D1015D962D913D914D915C9190978F
:103B00000E94C23220E030E040E050E00E94142FDA
:103B10000E944F33D62EC72EB82EA92EB701C8014A
:103B20002D2D3C2D4B2D5A2D0E94ED2F87FD04C0CD
:103B3000ED2CFC2C0B2D1A2DC701D801F101858B22
:103B4000968BA78BB08F61897289838994892D2D7B
:103B50003C2D4B2D5A2D0E94ED2F18162CF081E094
:103B6000D10192968C9302C0F10112A281E0D101A1
:103B700091968C93A6E3B5E0FE013D968CE0019012
:103B80000D928150E1F7F10181899289A389B4896D
:103B90008093420590934305A0934405B093450557
:103BA0008091290580932705809127058F5F8231B9
:103BB00009F480E080932905AAE2B5E0FE01319680
:103BC0008CE001900D928150E1F70E94D618AF96DB
:103BD0000FB6F894DEBF0FBECDBFCF91DF911F911E
:103BE0000F91FF90EF90DF90CF90BF90AF909F909C
:103BF0008F907F906F905F904F903F902F9008959F
:103C00001F931BE306C00E94D91F8091DD05882306
:103C100091F49091270580912805981741F08091A3
:103C20002805819FC00111248F5F9E4F61F780910D
:103C3000DE05833041F31F9108958091270580931D
:103C40002805809127058F5F823109F480E08093F9
:103C500029058CE1EAE2F5E0DF011D928A95E9F79A
:103C600008958F929F92AF92BF92CF92DF92EF9280
:103C7000FF920F931F93DF93CF93CDB7DEB72A97B1
:103C80000FB6F894DEBF0FBECDBF7B018C0120E0E4
:103C900030E040E050E00E94ED2F88233CF48DE2BC
:103CA0000E94CC2617FB109517F91095A090E106FD
:103CB000DA2C0CC0C801B70120E030E048EC52E437
:103CC0000E94C2327B018C018EEFD80EE1E0ED152F
:103CD00088F3A0FE0AC0C801B70120E030E040E24E
:103CE00051E40E94C2327B018C01C801B70120E07F
:103CF00030E040E05FE30E94142F0E945C306B01D3
:103D00007C019E012F5F3F4FF901EA0DF11D8EE20C
:103D10008083BB2449011EC0BA1409F4B394840102
:103D20000B0D111DC701B6012AE030E040E050E064
:103D30000E94CE33605DF8016083B394C701B60181
:103D40002AE030E040E050E00E94CE33C901DA01C1
:103D50006C017D01C114D104E104F104E9F606C04F
:103D6000FC01EB0DF11D2083B39403C0CE0101963D
:103D700020E3BA14A8F3BA1489F48B2D8F5FFE01E7
:103D8000E80FF11D90E39183B82EB39407C0FE01B4
:103D9000EB0DF11D80810E94CC26BA94BB20B9F7AF
:103DA0002A960FB6F894DEBF0FBECDBFCF91DF913C
:103DB0001F910F91FF90EF90DF90CF90BF90AF9049
:103DC0009F908F9008958F929F92BF92CF92DF9293
:103DD000EF92FF920F931F93DF93CF93CDB7DEB790
:103DE0002A970FB6F894DEBF0FBECDBF7B018C01C2
:103DF00097FF0BC08DE20E94CC2610950095F094A1
:103E0000E094E11CF11C011D111D67017801C11432
:103E1000D104E104F10421F480E30E94CC262FC0F8
:103E2000BB244E010894811C911C84010B0D111DB3
:103E3000C701B6012AE030E040E050E00E94CE33F6
:103E4000605DF8016083B394C701B6012AE030E0F9
:103E500040E050E00E94CE33C901DA016C017D01DF
:103E6000C114D104E104F10401F707C0FE01EB0D18
:103E7000F11D80810E94CC26BA94BB20B9F72A9606
:103E80000FB6F894DEBF0FBECDBFCF91DF911F916B
:103E90000F91FF90EF90DF90CF90BF909F908F9009
:103EA00008950F931F93DF93CF93CDB7DEB7289775
:103EB0000FB6F894DEBF0FBECDBF982FFE0131962E
:103EC0009E01275F3F4F892F817081939695E2175E
:103ED000F307C9F78E01085F1F4FF8018081805DED
:103EE0000E94CC26015010400C171D07B1F72896F0
:103EF0000FB6F894DEBF0FBECDBFCF91DF911F91FB
:103F00000F910895CF93DF93EC0102C00E94CC265D
:103F1000FE01219684918823C9F7DF91CF910895FE
:103F2000CF93DF93EC0103C021960E94CC268881B9
:103F30008823D1F7DF91CF9108951F920F920FB68A
:103F40000F9211242F933F934F935F936F937F931F
:103F50008F939F93AF93BF93EF93FF9386B190E0BE
:103F60008095909587709070892B91F0309903C05F
:103F70000E94CF100DC0319904C08091DF05886088
:103F800005C0329905C08091DF0582608093DF050E
:103F9000FF91EF91BF91AF919F918F917F916F9121
:103FA0005F914F913F912F910F900FBE0F901F90F7
:103FB0001895CF93DF938091DF05882309F457C0CC
:103FC0008091DF05C82FD0E0CE0180769070892BDC
:103FD000E9F086E08093DE05C6FF10C08FEF0E94F7
:103FE000422281E00E9418228091DF058F7E80931B
:103FF000DF058091DF0584FFFCCF03C08EEF0E94B8
:1040000042228091DF058F798093DF05C4FF04C0D1
:1040100081E08093DD052BC0C0FF07C00E94B12264
:104020008091DF058E7F8093DF05C3FF07C00E946C
:10403000EE2A8091DF05877F8093DF05C2FF07C0EE
:104040000E94F82A8091DF058B7F8093DF05C1FFF6
:104050000EC00E94E42A8091D00681FF03C081E057
:104060008093EC058091DF058D7F8093DF05DF91E4
:10407000CF91089580E066E475E00E94042A8823C9
:1040800069F080914605882361F086E495E00E94FE
:10409000901F86E495E00E94ED0401C08AE00E9432
:1040A000592281E066E475E00E94042A882321F405
:1040B0008AE00E945922089580914605882351F094
:1040C00086E495E00E94901F86E495E00E94ED044E
:1040D0000E9459220895DF92EF92FF920F931F934F
:1040E000DF93CF93CDB7DEB729970FB6F894DEBF35
:1040F0000FBECDBF7C01FC018081843209F009C173
:1041000081E089838181873481F1883474F4843239
:10411000C1F0853234F4882389F0833209F097C0E6
:104120001AC0833409F093C02AC08E3409F469C0E0
:104130008835F1F1883409F08AC04CC00E940A2207
:10414000F3C082E08983F7018281882309F0E6C009
:104150000E945825E9C082E08983F7018281882383
:1041600009F0DCC00E949A24DFC082E08983F70155
:104170008281882309F0D2C00E94AE23D5C082E09C
:104180008983F7018281882309F0C8C08091DE0508
:10419000873021F40E94CF1085E007C0882309F002
:1041A000BFC087E08093DE0584E00E941822BCC077
:1041B00082E08983F7018281882309F0AFC0809172
:1041C000DE05863009F0B0C083E00E94182210920C
:1041D000DE05AAC08091D00684FD02C017E0A5C00C
:1041E0008091DE05882319F0863009F099C00E947D
:1041F0008D118091DD05882309F096C00E943A2038
:1042000093C082E08983F7018281882319F0DD243D
:10421000D3941EC080E0B7010E94042A882329F0AD
:1042200080E0B7010E94752403C08AE00E945922F1
:1042300081E0B7010E94042A882321F48AE00E94C9
:10424000592272C081E0B7010E9475246DC0DD243F
:10425000C7018E010F5F1F4FB801AE014E5F5F4F68
:104260000E94ED15892B09F45DC09981F701E90FD2
:10427000F11D80818D3309F051C0892F8F5F8983B3
:10428000DD2041F1482F50E02981822F90E0FC0190
:10429000E41BF50BEE0DFF1DD701A80FB91F8C9184
:1042A00080838C912F5F2983882371F7C7010E9437
:1042B000ED04182F8823C9F56A817B818C819D814B
:1042C0000E9490330E946130DC01CB01B7010E9453
:1042D000F9292BC0C701B801AE014A5F5F4F0E94A8
:1042E000ED15892BF9F08981E80EF11CF701808129
:1042F0008823A1F46A817B818C819D810E945C303E
:10430000DC01CB014E815F81688579850E94902711
:1043100003C0C7010E94ED04182F07C013E005C0B9
:104320001BE003C011E001C010E0812F29960FB6F9
:10433000F894DEBF0FBECDBFCF91DF911F910F91DB
:10434000FF90EF90DF9008951F9311E044C02A3052
:1043500011F02D30D1F40E94D91F8091DD05882302
:1043600009F03FC0E0917805EE2349F0F0E0EA5B08
:10437000FA4F108286E495E00E946B2001C080E035
:104380000E9459221092780506C0809179058823F1
:1043900029F0293201F5109279051DC02132D8F09B
:1043A0002F32C9F0283219F41093790514C0909176
:1043B0007805913380F4822F8156E92FF0E09F5FDA
:1043C0008A3120F4EA5BFA4F205202C0EA5BFA4FCE
:1043D0002083909378050E941427282F8F3F09F09F
:1043E000B6CF1F91089510927805109279050E941A
:1043F0000F2287B1887F87B988B1876088B9ECE6DA
:10440000F0E0808187608083E8E6F0E08081826070
:10441000808308958AE594E00E94821F089580E9D0
:1044200095E00E94821F88E895E00E94821F08950F
:104430001F93182F8AEF95E00E94821F133091F08E
:10444000143028F4113041F01230B1F408C01430A7
:1044500061F0153089F40CC088EE95E00BC084ED56
:1044600095E008C082EC95E005C08AEB95E002C0BB
:1044700081EB95E00E94821F8DEA95E00E94821FE9
:104480001F9108951F93182F84E296E00E94821FC7
:104490001E3F29F01F3F39F489E196E002C086E013
:1044A00096E00E94821F8CEF95E00E94821F1F9170
:1044B00008951F93182F882319F485E197E04DC0C4
:1044C0008DE097E00E94821F163079F1173070F46A
:1044D000133011F1143028F41130C1F01230D9F535
:1044E00018C01430E1F01530B1F51CC0193031F1AD
:1044F0001A3028F41730E1F0183069F51CC01B3071
:1045000019F11B30F0F01C3031F521C08BEF96E033
:1045100020C083EE96E01DC08DEC96E01AC08EEBB5
:1045200096E017C088EA96E014C086E996E011C0CC
:1045300085E896E00EC089E796E00BC08AE696E033
:1045400008C089E496E005C08AE396E002C08FE2E5
:1045500096E00E94821F8CE296E00E94821F1F91CB
:104560000895AF92BF92CF92DF92EF92FF920F9396
:104570001F93DF93CF93CDB7DEB768970FB6F8944C
:10458000DEBF0FBECDBFDE011196E0EEF5E08CE0A0
:1045900001900D928150E1F78091DE058430C9F0E1
:1045A000853038F4823079F0833080F4882341F00C
:1045B0001DC08630A1F0863078F08730B9F412C083
:1045C0008CE191E011C085E191E00EC080E191E0C5
:1045D0000BC08AE091E008C084E091E005C08DEF57
:1045E00090E002C086EF90E00E94821F8FEE90E084
:1045F0000E94821F8DE0E82EF12CEC0EFD1E67015B
:1046000000E010E05E010894A11CB11CF501E00F70
:10461000F11F60817181828193810E948F30F80146
:10462000E355F94F20813181428153810E94F42F5B
:104630009B01AC01F6016083718382839383809137
:10464000D00680FF0DC0CA01B9012BE832E441E277
:104650005DE30E94C232F60160837183828393839B
:10466000F60161917191819191916F010E94311ECA
:104670008DEE90E00E94821F0C5F1F4F0C301105E1
:1046800029F687EE90E00E94821F05EC15E0DD24FC
:104690008091D00680FF1BC0F8016081718182810A
:1046A000938124853585468557850E94142F2BE8F4
:1046B00032E441E25DEB0E94C2329B01AC01F701A2
:1046C00060817181828193810E94142F14C0F8014E
:1046D00060817181828193812485358546855785E6
:1046E0000E94142F9B01AC01F701608171818281CE
:1046F00093810E94132FF7016083718382839383D8
:10470000F70160817181828193810E94311EF2E004
:10471000DF1621F085EE90E00E94821FD39484E0A2
:1047200090E0E80EF91E0C5F1F4F93E0D91609F0D8
:10473000AFCF81EE90E00E94821F68960FB6F8948A
:10474000DEBF0FBECDBFCF91DF911F910F91FF90C4
:10475000EF90DF90CF90BF90AF9008958091A90522
:10476000823091F0833028F4882341F08130B1F415
:1047700008C0833061F0843089F40CC085E991E091
:104780000BC081E991E008C08DE891E005C089E89F
:1047900091E002C084E891E00E94821F81E891E0EC
:1047A0000E94821F6091C40570E06A5C7F4F882779
:1047B00077FD8095982F0E94E31E8091C105882384
:1047C00051F48091C205813019F48CE791E005C065
:1047D00087E791E002C082E791E00E94821F80910A
:1047E000AB05882319F08DE691E002C088E691E0E0
:1047F0000E94821F8091AC05882319F083E691E026
:1048000002C08EE591E00E94821F8091AA05882354
:1048100019F089E591E002C084E591E00E94821FD1
:104820008091AD05813041F0813018F0823059F42B
:1048300006C080E591E005C08CE491E002C088E408
:1048400091E00E94821F8091AE05882359F081304B
:1048500019F08F3F59F403C084E491E005C080E46F
:1048600091E002C08CE391E00E94821F8091AF052D
:10487000882319F0813041F403C088E391E002C03D
:1048800084E391E00E94821F81E391E00E94821FF5
:104890006091C00570E080E090E00E94E31E8EE22F
:1048A00091E00E94821F8091AB05882379F060918E
:1048B000B0057091B1058091B2059091B3052BE8D8
:1048C00032E441E25DE30E94C23208C06091B0056B
:1048D0007091B1058091B2059091B3050E94311E8F
:1048E0008AE291E00E94821F0895CF92DF92EF92B8
:1048F000FF920F931F93E82E6B0187E291E00E94D5
:10490000821FFF2400E010E0C801B7010E94E31EEF
:1049100085E291E00E94821FC6010E94901F82E200
:1049200091E00E94821F1F910F91FF90EF90DF9006
:10493000CF900895CF92DF92EF92FF920F931F9343
:10494000DF93CF93CDB7DEB72C970FB6F894DEBFC9
:104950000FBECDBFFF246E010894C11CD11C8F2D4A
:10496000B6010E949829882321F48AE00E945922E6
:1049700090C08BEC91E00E94821F83E0F816E9F072
:104980008F1530F0E1E0FE1691F0EF1598F00CC0B5
:10499000F5E0FF16C1F0FF1698F086E0F816B1F0CA
:1049A000E7E0FE16D1F415C087EC91E014C083EC6B
:1049B00091E011C08FEB91E00EC08BEB91E00BC04A
:1049C00087EB91E008C083EB91E005C08FEA91E0AE
:1049D00002C08BEA91E00E94821F8601EE24809142
:1049E000D00680FF0CC0F8016081718182819381C3
:1049F0002BE832E441E25DE30E94C23205C0F801D7
:104A000060817181828193810E94311EF2E0EF16F4
:104A100019F089EA91E002C085EA91E00E94821FC4
:104A2000E3940C5F1F4F83E0E816C9F6F394E8E0C7
:104A3000FE1609F094CF8FE991E00E94821F01EDEC
:104A400015E0FF248091D00680FF0CC0F801608142
:104A50007181828193812BE832E441E25DE30E941F
:104A6000C23205C0F80160817181828193810E9408
:104A7000311EF2E0FF1619F08DE991E002C089E9DC
:104A800091E00E94821FF3940C5F1F4F83E0F816A1
:104A9000C9F62C960FB6F894DEBF0FBECDBFCF91EE
:104AA000DF911F910F91FF90EF90DF90CF900895CD
:104AB00086E594E00E94821F6091AD067091AE067B
:104AC0008091AF069091B0060E94311E83E494E07D
:104AD0000E94821F6091B1067091B2068091B30668
:104AE0009091B4060E94311E80E394E00E94821FE0
:104AF0006091B5067091B6068091B7069091B806A0
:104B00000E94311E8DE194E00E94821F6091BA06DE
:104B100070E080E090E00E94E31E84E094E00E9458
:104B2000821F6091BB067091BC068091BD0690917A
:104B3000BE060E94311E87EE93E00E94821F6091A4
:104B4000BF067091C0068091C1069091C2060E9476
:104B5000311E8AEC93E00E94821F6091C30670E0D0
:104B600080E090E00E94E31E8CEA93E00E94821FA6
:104B70008091C3060E94511F85EA93E00E94821F24
:104B80006091E00670E080E090E00E94E31E87E81C
:104B900093E00E94821F6091C8067091C9068091BF
:104BA000CA069091CB0620E030E041E655E40E9431
:104BB000F42F0E94311E88E693E00E94821F6091CC
:104BC000CC067091CD068091CE069091CF060E94C2
:104BD000311E88E493E00E94821F6091C4067091A8
:104BE000C5068091C6069091C7060E94311E8FE2CD
:104BF00093E00E94821F6091E20670E080E090E006
:104C00000E94E31E80E193E00E94821F6091E10612
:104C100070E080E090E00E94E31E87EF92E00E9447
:104C2000821F6091D00670E080E090E0617070704B
:104C3000807090700E94E31E8AED92E00E94821FB5
:104C40006091D00670E07695679580E090E06170A5
:104C50007070807090700E94E31E80EC92E00E9461
:104C6000821F6091D00670E076956795769567957E
:104C700080E090E061707070807090700E94E31E20
:104C80008EE992E00E94821F6091D00670E023E0DE
:104C9000769567952A95E1F780E090E061707070F5
:104CA000807090700E94E31E83E892E00E94821F51
:104CB0006091D00670E094E0769567959A95E1F75B
:104CC00080E090E061707070807090700E94E31ED0
:104CD00087E692E00E94821F6091D10670E080E03A
:104CE00090E00E94E31E88E492E00E94821F80917F
:104CF000D1060E94511F80E492E00E94821F6091C1
:104D0000D2067091D3068091D4069091D5060E9468
:104D1000311E83E292E00E94821F6091D60670915C
:104D2000D7068091D8069091D9060E94311E86E060
:104D300092E00E94821F6091DA067091DB0680E0AB
:104D400090E00E94E31E87EE91E00E94821F609136
:104D5000DC067091DD068091DE069091DF060E94F0
:104D6000311E8EEC91E00E94821F0895E0ECF0E08D
:104D70008081826080831092C50080E18093C400AE
:104D8000E1ECF0E0808180618083808188608083B5
:104D90008081806880830895282FE0917C059E2F74
:104DA0009F5F903431F490E004C08091DF0584FD72
:104DB0000FC080917D059817C1F3F0E0E359F94FDA
:104DC000208390937C058091C10080628093C10014
:104DD00008951F920F920FB60F9211248F939F93F5
:104DE000EF93FF9380917D05E82FF0E0E359F94FB1
:104DF00090819093C600982F9F5F903409F490E0C3
:104E000090937D0580917C05981729F48091C100CD
:104E10008F7D8093C100FF91EF919F918F910F90B3
:104E20000FBE0F901F90189590917B0580917A0589
:104E3000891711F4EFEF0DC0E92FF0E0E351FA4FBD
:104E4000E081892F8F5F80937B05803811F4109269
:104E50007B058E2F089580917A0580937B050895B8
:104E60001F920F920FB60F9211242F933F934F93DF
:104E70005F936F937F938F939F93AF93BF93EF93C2
:104E8000FF932091C6002132A1F0223218F428317C
:104E9000B9F413C02F3319F02E3791F404C0809168
:104EA000DF05816003C08091DF0582608093DF05AC
:104EB00018C08091DF058860F9CF0E94CF1011C023
:104EC000E0917A059E2F9F5F903809F490E08091E1
:104ED0007B05981731F0F0E0E351FA4F208390936F
:104EE0007A05FF91EF91BF91AF919F918F917F9143
:104EF0006F915F914F913F912F910F900FBE0F9047
:104F00001F90189580E090E065E00E94CC0381E05E
:104F100090E06DEA76E046E350E00E94EE030895EB
:104F2000EF92FF920F931F93CF93DF93EC017A01DF
:104F30008B01FC018731910540F4EC5CFF4FEE0FD3
:104F4000FF1F0590F491E02D099486E01FC1CB016D
:104F5000BA0120E030E040E050E00E94ED2F18164A
:104F600014F088E013C1CC0FDD1FCC0FDD1FC3553B
:104F7000D94FE882F9820A831B8305C1CB01BA01AC
:104F800020E030E040E450E40E94ED2F882314F448
:104F900089E0FCC0C801B7010E9425330E9461303E
:104FA0006093BA06F0C04093BB065093BC06609372
:104FB000BD067093BE06E7C04093BF065093C0067F
:104FC0006093C1067093C206DEC0CB01BA010E9495
:104FD00090330E9461306093C306D5C0CB01BA0103
:104FE0000E9425330E9461306093E006CCC0CB0163
:104FF000BA0120E030E040E752E40E94C23220E0F3
:1050000030E040E752E40E94C2326093C8067093D9
:10501000C9068093CA069093CB06B5C0DB01CA01CE
:10502000BF778093CC069093CD06A093CE06B09325
:10503000CF06A9C04093C4065093C5066093C60628
:105040007093C706A0C0CB01BA010E9425330E940D
:1050500061306093E20697C0CB01BA010E9425330C
:105060000E9461306093E1068EC0CB01BA0120E05E
:1050700030E040E050E00E94ED2F882321F0809145
:10508000D006816011C08091D0068E7F0DC0CB010B
:10509000BA0120E030E040E050E00E94ED2F88238C
:1050A00031F08091D00682608093D0066CC08091F0
:1050B000D0068D7FF9CFCB01BA0120E030E040E08F
:1050C00050E00E94ED2F882321F08091D00684606B
:1050D000EBCF8091D0068B7FE7CFCB01BA0120E0E8
:1050E00030E040E050E00E94ED2F882321F08091D5
:1050F000D006886003C08091D006877F8093D00659
:105100000E94B30D40C0CB01BA0120E030E040E086
:1051100050E00E94ED2F882321F08091D00680611D
:10512000C3CF8091D0068F7EBFCFCB01BA010E9442
:1051300090330E9461306093D10625C04093D2061F
:105140005093D3066093D4067093D5061CC0409349
:10515000D6065093D7066093D8067093D90613C02D
:10516000CB01BA010E9425330E9461307093DB06A7
:105170006093DA0608C04093DC065093DD06609326
:10518000DE067093DF060E94822780E0DF91CF91D8
:105190001F910F91FF90EF900895882309F45AC052
:1051A00080E090E0AAE7B3E48093AD069093AE066A
:1051B000A093AF06B093B0068093B1069093B20669
:1051C000A093B306B093B4068093B5069093B60649
:1051D000A093B706B093B8062AE02093BA0680934E
:1051E000BB069093BC06A093BD06B093BE0680E0BC
:1051F00090E0AAEFB3E48093BF069093C006A0931B
:10520000C106B093C20680E090EAACE0B7E48093B8
:10521000C8069093C906A093CA06B093CB068DEC3E
:105220009CECACECBDE38093C4069093C506A093C0
:10523000C606B093C70680EC8093C3068DEC9CEC49
:10524000ACE4BDE38093CC069093CD06A093CE064C
:10525000B093CF0682E08093D0061092D10680E012
:1052600090E0A8ECB1E48093D2069093D306A0938B
:10527000D406B093D50680E090E0AAE7B3E480932B
:10528000D6069093D706A093D806B093D90684E6A5
:1052900090E09093DB068093DA0680E090E0A0E84F
:1052A000BFE38093DC069093DD06A093DE06B09307
:1052B000DF0699E19093E00683E08093E106909306
:1052C000E2060E948227089580E090E00E94C403D5
:1052D000853079F48DEA96E061E070E046E350E0D5
:1052E0000E94370420E0892B09F421E081E028277F
:1052F00012C0853078F48DEA96E061E070E043E218
:1053000050E00E943704892B29F080E00E94CD28CC
:1053100021E001C020E0822F08959DE0899FC00117
:10532000112480509E4F4CE050E00E94EE030895FF
:105330000F931F93CF93DF93162F072F9DE0899F25
:10534000E0011124C050DE4F862F972FBE014CE0A4
:1053500050E00E943704892B11F081E00FC0E12F4B
:10536000F02F8CE0DF011D928A95E9F7CE01612FC5
:10537000702F4CE050E00E94EE0380E0DF91CF916F
:105380001F910F910895EF92FF921F93DF93CF9398
:10539000CDB7DEB72C970FB6F894DEBF0FBECDBFEA
:1053A0000E946429882341F48AE00E94592281E006
:1053B0000E94CD280E94582510E07E010894E11C2F
:1053C000F11C812FB7010E949829882319F48AE0E3
:1053D0000E9459221F5F1830A1F72C960FB6F8943F
:1053E000DEBF0FBECDBFCF91DF911F91FF90EF9039
:1053F000089593E3899FC001112480509D4F42E39B
:1054000050E00E94EE0308950F931F93CF93DF9314
:105410008B0193E3899FE0011124C050DD4FCB0144
:10542000BE0142E350E00E943704892B11F081E075
:1054300009C0F8011082CE01B80142E350E00E9499
:10544000EE0380E0DF91CF911F910F9108951092AC
:105450007E05249A259A2C9808952C9808951F93D8
:10546000182F282F332727FD309580917E0590E057
:105470002817390771F00E94001E112339F0111608
:1054800014F42D9801C02D9A2C9A01C02C981093D9
:105490007E051F9108958091D00682FF02C0289A50
:1054A00001C028988091DE05833081F48091C30685
:1054B0008093A6058091BA06880F845081958093C9
:1054C000A50580916F00826080936F0008951F9200
:1054D0000F920FB60F9211248F939F939BB18091DF
:1054E000C3068C71937E892B8BB91092B1009F916A
:1054F0008F910F900FBE0F901F9018959B01AC01DC
:10550000203283E0380780E0480780E0580720F425
:1055100020E233E040E050E060E070E788E399E3A8
:105520000E94CE33C901DA01803020E0920721E0E9
:10553000A20720E0B20730F4BC019C0140E050E03B
:1055400091E02FC0803020E0920728E0A20720E001
:10555000B207A0F4F3E0B695A79597958795FA95CD
:10556000D1F7BC019C0140E050E0E3E0220F331F83
:10557000441F551FEA95D1F792E013C026E0B69577
:10558000A795979587952A95D1F7BC019C0140E096
:1055900050E086E0220F331F441F551F8A95D1F734
:1055A00093E080918100887F982B90938100709385
:1055B000890060938800209393053093940540936D
:1055C00095055093960508958091DE05823029F463
:1055D00083E08093DE050E944B2A08958091DE05CA
:1055E000833029F484E08093DE051092EC05089561
:1055F000E091A305F091A4053097C1F1658576850A
:105600008785908920918F05309190054091910573
:1056100050919205621B730B840B950B0E940B1A21
:1056200010929B0510929C0510929D0510929E056C
:1056300060E070E080E090E00E947E2A80E091E7E8
:10564000A2E0B0E08093970590939805A093990508
:10565000B0939A0510928F051092900510929105C3
:105660001092920582E08093DE0508951092DE0587
:10567000089584E2EFE7F5E0DF011D928A95E9F7EE
:1056800060E273E080E090E00E947E2A1092A40520
:105690001092A3051092A705089580916F008D7F49
:1056A00080936F009091E0069F3F21F48091DF0589
:1056B00085FF0BC0892F90E00E9466158091D0066F
:1056C00082FF02C028980895289A08958AB18C6FA5
:1056D0008AB98BB183709091C306892B8BB9209ABC
:1056E000E1E8F0E080818F7E808380818860808324
:1056F000E0E8F0E080818D7F808380818E7F8083F1
:1057000080818F73808380818F7C80831092B00032
:105710001092B100E0E7F0E08081816080830E9418
:105720004B2A0E944D2B08951F920F920FB60F9295
:105730001124EF92FF920F931F932F933F934F9358
:105740005F936F937F938F939F93AF93BF93CF9309
:10575000DF93EF93FF938091A705882309F04CC353
:105760009BB12091A605822F807E9F71892B8BB9DA
:105770008BB1837E822B8BB98091A5058093B2007B
:1057800082E08093B10081E08093A70578948091B6
:10579000A3059091A405892B09F07FC00E94B7163C
:1057A000EC019093A4058093A305009709F46EC0C3
:1057B0008091DE058330D1F46BA17CA18DA19EA1E7
:1057C00060939B0570939C0580939D0590939E0527
:1057D0000E947E2A80E091E7A2E0B0E080939705E6
:1057E00090939805A0939905B0939A052BA53CA595
:1057F0004DA55EA5DA01C901B595A7959795879541
:10580000820F931FA41FB51F80939F059093A0053F
:10581000A093A105B093A2052D853E854F8558899B
:10582000DA01C901B595A79597958795B095A0958B
:10583000909581959F4FAF4FBF4F80937F05909379
:105840008005A0938105B093820580938305909392
:105850008405A0938505B093860580938705909372
:105860008805A0938905B0938A0520938B05309312
:105870008C0540938D0550938E0510928F051092E4
:105880009005109291051092920507C00E944D2B31
:105890008091DF0584608093DF05E091A305F0919E
:1058A000A405309709F49FC220812093A60540915A
:1058B0007F055091800560918105709182058181FD
:1058C0009281A381B481480F591F6A1F7B1F4093A7
:1058D0007F055093800560938105709382051416AF
:1058E000150616061706C4F524602093A6058091B8
:1058F0008B0590918C05A0918D05B0918E05481B6C
:10590000590B6A0B7B0B40937F0550938005609386
:1059100081057093820525FF0CC08091E005909170
:10592000E105A091E205B091E3050197A109B10954
:105930000BC08091E0059091E105A091E205B09146
:10594000E3050196A11DB11D8093E0059093E1054B
:10595000A093E205B093E30540918305509184053F
:10596000609185057091860585819681A781B085B6
:10597000480F591F6A1F7B1F40938305509384056E
:10598000609385057093860514161506160617068E
:10599000D4F52091A60528602093A60580918B055B
:1059A00090918C05A0918D05B0918E05481B590BE7
:1059B0006A0B7B0B409383055093840560938505A8
:1059C0007093860526FF0CC08091E4059091E50553
:1059D000A091E605B091E7050197A109B1090BC0B7
:1059E0008091E4059091E505A091E605B091E70569
:1059F0000196A11DB11D8093E4059093E505A09348
:105A0000E605B093E70540918705509188056091C0
:105A1000890570918A0581859285A385B485480F93
:105A2000591F6A1F7B1F4093870550938805609319
:105A3000890570938A051416150616061706D4F5FF
:105A40002091A60520612093A60580918B05909159
:105A50008C05A0918D05B0918E05481B590B6A0BE2
:105A60007B0B40938705509388056093890570935D
:105A70008A0527FF0CC08091E8059091E905A09167
:105A8000EA05B091EB050197A109B1090BC080911E
:105A9000E8059091E905A091EA05B091EB05019622
:105AA000A11DB11D8093E8059093E905A093EA0537
:105AB000B093EB0520918F053091900540919105B1
:105AC000509192052F5F3F4F4F4F5F4F20938F05AF
:105AD0003093900540939105509392058585968566
