:100000000C94C1020C94E2020C94E2020C94E20201
:100010000C94E2020C94E2020C94E2020C94E202D0
:100020000C94E2020C94E2020C94E2020C94E202C0
:100030000C94E2020C94E2020C94E2020C945B2514
:100040000C94E2020C947F260C94E2020C94E202DF
:100050000C94E2020C94E2020C94E2020C94E20290
:100060000C94E2020C944F200C940A200C94E202AF
:100070000C94E2020C94E2020C94E2020C94E20270
:100080000C94E2020C94E2020C94E2020C94E20260
:100090000C94E2020C94E2020C94E2020C94E20250
:1000A0000C94E2020C94E2020C94E2020C94E20240
:1000B0000C94E2020C94E2020C94E2020C94E20230
:1000C0000C94E2020C94E2020C94E2020C94E20220
:1000D0000C94E2020C94E2020C94E2020C94E20210
:1000E0000C94E202084AD73B3BCE016E84BCBFFDB4
:1000F000C12F3D6C74319ABD56833DDA3D00C77FF8
:1001000011BED9E4BB4C3E916BAAAABE0000008090
:100110003F05A84CCDB2D44EB93836A9020C50B91F
:10012000918688083CA6AAAA2ABE000000803F0D3E
:100130000A00496E76616C696420636F6D6D616E53
:10014000640D0A004D6F64616C2067726F757020DA
:1001500076696F6C6174696F6E0D0A00466C6F6131
:1001600074696E6720706F696E74206572726F7249
:100170000D0A00556E737570706F7274656420732C
:10018000746174656D656E740D0A00457870656301
:1001900074656420636F6D6D616E64206C6574744A
:1001A00065720D0A00426164206E756D6265722091
:1001B000666F726D61740D0A006572726F723A201B
:1001C000006F6B0D0A000D0A27242720746F20642E
:1001D000756D702063757272656E742073657474CA
:1001E000696E67730D0A000D0A4D65676132353619
:1001F00030204772626C20302E3831005761726EA9
:10020000696E673A204661696C656420746F20727C
:1002100065616420454550524F4D20736574746983
:100220006E67732E205573696E672064656661750D
:100230006C74732E0D0A0053746F726564206E65C2
:10024000772073657474696E670D0A00556E6B6E66
:100250006F776E20706172616D657465720D0A0052
:10026000537465702070756C7365206D75737420A0
:100270006265203E3D2033206D6963726F73656354
:100280006F6E64730D0A0053746570732F6D6D206B
:100290006D757374206265203E20302E300D0A008B
:1002A0000D0A2724783D76616C75652720746F20D0
:1002B00073657420706172616D65746572206F7210
:1002C000206A7573742027242720746F2064756D4D
:1002D000702063757272656E742073657474696ED4
:1002E00067730D0A00202873746570706572733A25
:1002F0002030203D2064697361626C65642C20317C
:10030000203D20656E61626C6564290D0A00243110
:10031000303030203D200020286D6178696D756D8A
:10032000207370696E646C65207370656564206904
:100330006E2052504D290D0A00243134203D2000FA
:10034000202864656661756C74207370696E646CD6
:100350006520737065656420696E2052504D290DCB
:100360000A00243133203D2000202850574D206FB3
:100370006E205370696E646C653A2030203D2064B5
:10038000697361626C65642C2031203D20656E616B
:10039000626C6564290D0A00243132203D20002062
:1003A00028636F726E6572696E67206A756E63741A
:1003B000696F6E20646576696174696F6E20696E1D
:1003C000206D6D290D0A00243131203D20002028A8
:1003D000616363656C65726174696F6E20696E201C
:1003E0006D6D2F7365635E32290D0A002431302054
:1003F0003D2000290D0A0020287374657020706F5D
:10040000727420696E76657274206D61736B206CF6
:10041000696D69742E2062696E617279203D2000D9
:100420002439203D2000290D0A00202873746570AE
:1004300020706F727420696E76657274206D6173BE
:100440006B2E2062696E617279203D200024382075
:100450003D200020286D6D2F617263207365676DEC
:10046000656E74290D0A002437203D200020286D78
:100470006D2F6D696E2064656661756C742073659F
:10048000656B2072617465290D0A002436203D20B9
:100490000020286D6D2F6D696E2064656661756C36
:1004A0007420666565642072617465290D0A0024F4
:1004B00035203D200020286D6963726F7365636F7E
:1004C0006E647320737465702070756C7365290D8C
:1004D0000A002434203D2000202873746570732F97
:1004E0006465672E2063290D0A002433203D200017
:1004F000202873746570732F6D6D207A290D0A00A2
:100500002432203D2000202873746570732F6D6D98
:100510002079290D0A002431203D20002028737401
:100520006570732F6D6D2078290D0A002430203DF1
:1005300020000D0A00302E38310024564552534910
:100540004F4E203D2000494E46494E4954594E4198
:100550004ECDCCCC3D0AD7233C17B7D13877CC2B26
:10056000329595E6241FB14F0A000020410000C8D3
:100570004200401C4620BCBE4CCA1B0E5AAEC59D54
:10058000740011241FBECFEFD1E2DEBFCDBF00E06B
:100590000CBF12E0A0E0B2E0E8EEF1E600E00BBF35
:1005A00002C007900D92A631B107D9F71EE0A6E16F
:1005B000B2E001C01D92AB38B107E1F70E94FE0E18
:1005C0000C94F2300C940000109216023A9A389A69
:1005D0004298409808954298409808951F93182F84
:1005E00080911602181771F00E944A1C113011F404
:1005F000409A06C0123011F4429A02C042984098C4
:10060000109316021F910895F999FECF92BD81BDF6
:1006100081E08FBB80B50895F894F999FECF92BD23
:1006200081BD81E08FBB40B54627842F992787FD88
:100630009095262F30E082239323892B39F06F3F4A
:1006400019F060BD84E006C084E104C0442321F0B9
:1006500060BD84E28FBBF99A789408958F929F923F
:10066000AF92BF92CF92DF92EF92FF920F93DF9300
:10067000CF930F920F92CDB7DEB75C016B017A0179
:100680004A0100E01EC0002319F021E030E008C05C
:10069000202F332727FD30952227330F221F3327A2
:1006A000F60161916F01062F020F9C012F5F3F4FF2
:1006B0003A8329830E940C03089481089108898158
:1006C0009A8181149104F9F6C7018A0D9B1D602F50
:1006D0000E940C030F900F90CF91DF910F91FF902C
:1006E000EF90DF90CF90BF90AF909F908F90089544
:1006F000CF93DF93EC01FB019A0190E0B1E019C0C8
:10070000F999FECFF2BDE1BDBFBBA0B5992319F0A9
:1007100081E090E008C0892F992787FD9095882770
:10072000990F881F992731969A2F980FA9932150D6
:1007300030402115310521F7460F571FF999FECF9B
:1007400052BD41BD81E08FBB80B520E030E09817FD
:1007500011F421E030E0C901DF91CF9108956F924B
:100760007F928F929F92AF92BF92CF92DF92EF9241
:10077000FF920F931F9339014A010E94E12B2091B0
:10078000580E3091590E40915A0E50915B0E0E94B6
:10079000462B60932702709328028093290290933E
:1007A0002A02C401B3010E94E12B20915C0E30911A
:1007B0005D0E40915E0E50915F0E0E94462B60933D
:1007C0002B0270932C0280932D0290932E02C8016D
:1007D000B7010E94E12B2091600E3091610E409193
:1007E000620E5091630E0E94462B60932F0270930D
:1007F00030028093310290933202C601B5010E940B
:10080000E12B2091640E3091650E4091660E50915F
:10081000670E0E94462B60933302709334028093DC
:100820003502909336021F910F91FF90EF90DF9069
:10083000CF90BF90AF909F908F907F906F900895D2
:1008400080E1E7E2F2E0DF011D928A95E9F7089581
:1008500086E2E7E1F2E0DF011D928A95E9F78091F7
:100860006A0E90916B0EA0916C0EB0916D0E8093FC
:100870001F0290932002A0932102B09322021092B3
:100880003A0291E090933B0282E080933C02909385
:100890001B0208950F931F93CF93DF93EC018B01FD
:1008A000D9018C91FA01E80FF11DE081EE23B1F03E
:1008B000E883E154EA3110F082E00EC08C918F5F42
:1008C0008C93CA01B901A8010E94EA13892B19F07F
:1008D00021E030E005C081E08093170220E030E0A5
:1008E000C901DF91CF911F910F9108952F923F92EF
:1008F0004F925F926F927F928F929F92AF92BF9230
:10090000CF92DF92EF92FF920F931F93DF93CF93DB
:10091000CDB7DEB7E3970FB6F894DEBF0FBECDBFFD
:100920003C01198280E1FE013796DF01482F1D92BC
:100930004A95E9F7FE017796DF011D928A95E9F75E
:10094000109217021FA61EA61DA61CA613E0812E3C
:10095000912C8C0E9D1E2E010894411C511CB1E05F
:100960002B2E312CA3E0AA2E01E0F2E0BF2E9CC179
:10097000CB80DC80ED80FE80C701B6010E94E22EB4
:100980000E94AE2B9B014A81473421F04D3409F07F
:100990008BC11CC16E317105C9F16F317105D4F481
:1009A0006431710584F461317105A4F56430710519
:1009B00069F1653071051CF4772354F525C06A3060
:1009C000710511F523C06631710554F16C31710563
:1009D000D9F41CC06C3571058CF46A357105E4F4EA
:1009E0006C3371053CF466337105E4F465337105CD
:1009F00059F40CC06035710539F40AC06C357105C5
:100A000029F06F35710554F010E00DC011E00BC0F6
:100A100012E009C013E007C014E005C016E003C0EF
:100A200017E001C019E02531310509F495C02631E0
:100A30003105A4F52430310509F467C025303105AE
:100A4000A4F42130310509F466C02230310524F4C4
:100A5000232B09F45DC00EC12230310509F45EC0BC
:100A60002330310509F006C15CC02231310509F49B
:100A700062C0233131054CF42A30310509F443C0FA
:100A80002131310509F0F6C04FC02331310509F499
:100A900059C02431310509F0EDC05BC02035310566
:100AA00009F46AC021353105ACF42533310509F468
:100AB00059C0263331054CF42C31310509F44FC0AF
:100AC0002E31310509F0D6C04AC02C3331050CF067
:100AD000D1C04BC02C35310509F458C02D35310536
:100AE0004CF42A35310509F44BC02B35310509F09A
:100AF000C1C049C02D35310509F462C02E3531051C
:100B000009F0B8C060C0B2E059C0E1E0ECA7B4C0E1
:100B100010921802B1C000931802AEC0B092180231
:100B2000ABC0A0921802A8C010923A0200933B02F8
:100B3000B0923C02A1C010923A02B0923B020093E4
:100B40003C029AC000933A02B0923B0210923C02DF
:100B500093C000931A0290C010921A028DC0F3E065
:100B6000FCA78AC041E04DA787C02633310509F0B4
:100B700081C01092B50C80C054E0509318027CC024
:100B800000931B0279C010921B0276C0C701B60108
:100B900020E030E040E251E40E94142E0E94E22E58
:100BA0000E94AE2B83E06839780739F069597340A9
:100BB00009F060C0A5E0ACA75FC0B4E0BCA75CC012
:100BC0000093190259C01092190256C0663071057F
:100BD00034F46330710554F4772334F403C06E3178
:100BE000710511F010E003C015E001C018E02430D9
:100BF000310581F12530310584F42130310509F1C9
:100C0000223031051CF4232BE1F034C022303105B1
:100C1000D9F02330310571F51AC02830310521F1A2
:100C2000293031053CF425303105C1F0273031053C
:100C300009F517C029303105D1F02E313105D1F435
:100C400003C000931C0218C0B0921C0215C0009390
:100C50001D0212C0EFEFE0931D020EC010921D02A4
:100C60000BC0B0921E0208C000931E0205C0109275
:100C70001E0202C0A09217021123B1F0910102C01E
:100C8000220F331F1A95E2F78EA59FA58223932387
:100C9000892B21F0F5E0F093170206C04EA55FA561
:100CA000422B532B5FA74EA7CE010296B401A3019E
:100CB00092010E944A04892B09F05ACE80911702B2
:100CC000882309F0E0C51982882418AA19AA50E8D7
:100CD0005AAB6FEB6BAB0F2EF0E0AF2EF0E0BF2EF8
:100CE000F0E0CF2EF0E0DF2EF02DA8A6B9A6CAA620
:100CF000DBA61FA2E2E02E2E312C2C0E3D1E2E0173
:100D00000894411C511C76E0972E56C11A8110356B
:100D100009F490C0113584F41C3454F419340CF0E7
:100D20005CC0133409F424C1163409F045C11AC05B
:100D30001C3409F041C174C0143509F4B5C015352F
:100D40003CF4123509F47BC0133509F035C193C06A
:100D5000193509F4DBC01A3509F4F1C0183509F06A
:100D60002BC1BBC0EB80FC800D811E81C801B70187
:100D700020E030E040E050E00E943F2B181614F0D5
:100D80009092170280911902882381F080911A02B3
:100D9000882309F40DC1C801B70123E333E34BEC09
:100DA00051E40E94142E7B018C0102C180911A0231
:100DB000882351F0C801B70123E333E34BEC51E43E
:100DC0000E94142E7B018C01E0921F02F0922002FF
:100DD0000093210210932202E3C02B813C814D81BC
:100DE0005E8180911A02882351F0CA01B90123E380
:100DF00033E34BEC51E40E94142E9B01AC01E12F34
:100E0000FF27E7FDF095E954F040EE0FFF1FEE0FCE
:100E1000FF1FE40DF51D268B378B408F518FC0C00F
:100E20006B817C818D819E810E94E22E0E94B32B7A
:100E30006FA3B6C0AB80BC80CD80DE80B1C08B819B
:100E40009C81AD81BE8188A799A7AAA7BBA78091E5
:100E50001A02882309F4A4C068A579A58AA59BA5D0
:100E600023E333E34BEC51E40E94142E68A779A7E7
:100E70008AA79BA795C0EB80FC800D811E81C801CD
:100E8000B70120E030E040E050E00E943F2B882393
:100E900014F490921702C801B7010E94B32B70930B
:100EA0003902609338027CC0EB80FC800D811E818A
:100EB000C801B70120E030E040E050E00E943F2B45
:100EC000882314F490921702C801B7010E94E22E01
:100ED0000E94B32B6093370263C02B813C814D810C
:100EE0005E8180911A02882351F0CA01B90123E37F
:100EF00033E34BEC51E40E94142E9B01AC012F8391
:100F0000388749875A8791E0892A4AC02B813C81DA
:100F10004D815E8180911A02882351F0CA01B90186
:100F200023E333E34BEC51E40E94142E9B01AC010C
:100F30002B873C874D875E87A2E08A2A31C02B81B0
:100F40003C814D815E8180911A02882351F0CA0153
:100F5000B90123E333E34BEC51E40E94142E9B01CF
:100F6000AC012F87388B498B5A8BB4E08B2A18C081
:100F70002B813C814D815E8180911A02882351F042
:100F8000CA01B90123E333E34BEC51E40E94142E70
:100F90009B01AC012B8B3C8B4D8B5E8BE8E08E2A4A
:100FA00028A939A94AA95BA9C901DA017C018D01E7
:100FB000E8AAF9AA0AAB1BABC101BE016D5F7F4F66
:100FC000A30192010E944A04892B09F09FCE982C1C
:100FD00028A939A94AA95BA9C901DA011C012D0177
:100FE00080911702882309F04EC4609138027091F5
:100FF000390280911D020E94AB2480911E020E9442
:10100000EE02FCA5F33009F457C0F43028F4F130B7
:1010100061F0F23041F419C04CA5443009F4EFC03E
:10102000453009F443C1982C4AC1C601B50120E0FE
:1010300030E040E050E00E943F2B88230CF4E1C0F8
:10104000C601B5010E94AE0F3AC15FA1523049F40A
:10105000C601B5010E94E22E0E94AE2B61307105DF
:1010600021F083E08093170229C1882009F4C9C0C8
:10107000AE01495F5F4FE6EBFCE020E030E0682D19
:1010800070E0CB01022E02C0959587950A94E2F795
:1010900080FF09C0DA01ED90FD900D911C91E08276
:1010A000F182028313832F5F3F4F4C5F5F4F349673
:1010B0002430310531F702C1882009F49DC08E012A
:1010C000095F1F4F37E2C32E32E0D32E26ECA22E4B
:1010D0002CE0B22EEE24FF249924C4010E2C02C071
:1010E000959587950A94E2F780FF40C080911B0296
:1010F000882349F1E091B50CF0E0EE0FFF1FEE0FF1
:10110000FF1FEE0DFF1DEE0FFF1FEE0FFF1FEA5436
:10111000F34F6081718182819381F501208131815A
:10112000428153810E94662A9B01AC01D8016D91D6
:101130007D918D919C910E94662AF8016083718354
:10114000828393831DC0D8016D917D918D919C9177
:10115000F60120813181428153810E94662AD801A3
:101160006D937D938D939C9313970AC0F6018081B4
:101170009181A281B381F80180839183A283B3839B
:101180000894E11CF11C0C5F1F4F44E050E0C40EBA
:10119000D51EA40EB51E54E0E516F10409F09DCF4E
:1011A00000D00F920F926F81788589859A852B8563
:1011B0003C854D855E85EF84F88809891A89AB885E
:1011C000BC88CD88DE8860906E0E70906F0E809027
:1011D000700E9090710EADB7BEB711966D927D9264
:1011E0008D929C92149715961C920E9402100F905B
:1011F0000F900F900F900F900E94A00F5FC088205B
:1012000021F486E0809317025AC007E2A02E02E084
:10121000B02EEE24FF24CC24DD24992417E0612E87
:10122000712C6C0E7D1EC4010E2C02C09595879505
:101230000A94E2F780FF2BC086010E55134FE09110
:10124000B50CF0E0EE0FFF1FEE0FFF1FEE0DFF1DC0
:10125000EE0FFF1FEE0FFF1FEA54F34FD5016D9104
:101260007D918D919C9120813181428153810E9499
:10127000652AF301EC0DFD1D2081318142815381EE
:101280000E94652AF80164A375A386A397A3089416
:10129000E11CF11C44E050E0A40EB51EC40ED51EA6
:1012A00054E0E516F10409F0BECF08C080E1E6EC99
:1012B000FCE0DF011D928A95E9F701C09924BEA5E3
:1012C000B2FD03C0992009F4D2C28091190288238B
:1012D00089F0C201B10120E030E040E050E00E941E
:1012E0003F2B88233CF480911802843019F086E06B
:1012F00080931702EDA5EE2339F080911802823019
:1013000018F086E08093170280911702882309F075
:10131000BAC28E01095F1F4F76ECA72E7CE0B72E74
:1013200067E2C62E62E0D62EEE24FF24692C7724D5
:10133000C3010E2C02C0959587950A94E2F780FFB1
:1013400044C0FDA5FF2309F04AC080911B028823F9
:1013500051F1E091B50CF0E0EE0FFF1FEE0FFF1F13
:10136000EE0DFF1DEE0FFF1FEE0FFF1FEA54F34FB0
:101370006081718182819381D5012D913D914D9143
:101380005C910E94662A9B01AC01F8016081718129
:10139000828193810E94662AD8016D937D938D93FB
:1013A0009C9313971CC0F8016081718182819381A5
:1013B000D6012D913D914D915C910E94662AF801D4
:1013C00060837183828393830AC0F6018081918157
:1013D000A281B381F80180839183A283B3830894AF
:1013E000E11CF11C0C5F1F4F44E050E0A40EB51E41
:1013F000C40ED51E54E0E516F10409F099CF809192
:101400001802843048F4823008F070C0882359F004
:10141000813009F01FC230C0843009F01BC299200E
:1014200009F418C2ABC0992009F4A8C000D00F92EB
:101430000F926F81788589859A852B853C854D85AE
:101440005E85EF84F88809891A89AB88BC88CD88C5
:10145000DE8860906E0E70906F0E8090700E90908F
:10146000710EADB7BEB711966D927D928D929C9222
:10147000149715961C9237C0992009F47FC02F80CD
:10148000388449845A846B847C848D849E84EF8460
:10149000F88809891A89AB88BC88CD88DE88609174
:1014A0001902662361F4B0911F02B8ABE0912002EB
:1014B000E9ABF0912102FAAB409122024BAB00D094
:1014C0000F920F9228A939A94AA95BA9C901DA018B
:1014D000EDB7FEB781839283A383B4836583C20192
:1014E000B101A40193010E940210AFC181E090E01C
:1014F00000903C0202C0880F991F0A94E2F7809581
:101500008921E1F168A579A58AA59BA520E030E0B5
:1015100040E050E00E943F2B8823A1F5E0913A0281
:10152000F0E0EE0FFF1FEE0FFF1F8E010F5F1F4F4A
:10153000E00FF11F66897789808D918D20E030E082
:1015400040E050E00E943F2B8823E1F480913B0271
:1015500090E0880F991F880F991F080F191FD80155
:1015600056966D917D918D919C91599720E030E038
:1015700040E050E00E943F2B882321F486E08093D6
:10158000170268C168A579A58AA59BA520E030E06F
:1015900040E050E00E943F2B8E010F5F1F4F8823D9
:1015A00009F4EFC0E0913A02F0E0EE0FFF1FEE0FFA
:1015B000FF1FD801AE0FBF1FE95DFD4F16966D915D
:1015C0007D918D919C911997208131814281538128
:1015D0000E94652A1B012C01E0913B02F0E0EE0F16
:1015E000FF1FEE0FFF1F0E0F1F1FE95DFD4FD801FC
:1015F00016966D917D918D919C91199720813181E5
:10160000428153810E94652A3B014C0180E1FE0129
:101610007796DF011D928A95E9F768A579A58AA5D5
:101620009BA520E030E040E850E40E94142E28A55D
:1016300039A54AA55BA50E94142E7B018C01C2012D
:10164000B101A20191010E94142E9B01AC01C801BD
:10165000B7010E94652A7B018C01C401B301A4017A
:1016600093010E94142E9B01AC01C801B7010E9496
:10167000652A0E94A12E7B018C01C201B101A40147
:1016800093010E944F2D9B01AC0117FB109517F998
:101690001095C801B7010E94462B6B017C01A70180
:1016A00096010E94E92E882321F084E0809317029E
:1016B000EAC080911802833021F4F7FAF094F7F829
:1016C000F09468A579A58AA59BA520E030E040E0CC
:1016D00050E00E943F2B88236CF4F7FAF094F7F85F
:1016E000F09448A559A56AA57BA5705848A759A7A5
:1016F0006AA77BA700913A02A02EBB24AA0CBB1CB0
:10170000AA0CBB1C8E010F5F1F4FA00EB11EC4019F
:10171000B301A70196010E94142E9B01AC01C201E6
:10172000B1010E94652A20E030E040E05FE30E94C2
:10173000142ED50156966D937D938D939C93599756
:1017400080913B0290E0880F991F880F991F080F26
:10175000191FC201B101A70196010E94142E9B011D
:10176000AC01C401B3010E94662A20E030E040E0F1
:101770005FE30E94142EF801668B778B808F918F28
:1017800023C0E0913A02F0E0EE0FFF1FEE0FFF1FC3
:10179000E00FF11F66897789808D918D20913B0242
:1017A00030E0220F331F220F331F020F131FD80107
:1017B00056962D913D914D915C9159970E944F2DD8
:1017C00068A779A78AA79BA79091180220913A024F
:1017D00000913B02E0903C0280901902882061F465
:1017E000B0911F02B8ABE0912002E9ABF091210269
:1017F000FAAB409122024BAB00D00F920F92EDB7A3
:10180000FEB7319648A559A56AA57BA5ADB7BEB769
:1018100011964D935D936D937C93149780E0923075
:1018200009F481E0848387E292E0BE01695F7F4F23
:10183000AE01495E5F4F38A9E9A9FAA9ABA9A32E69
:10184000BE2ECF2EDA2E0E9457100F900F900F90C1
:101850000F900F90809117028823A9F4A7E2B2E0BD
:10186000FE01379680E101900D928150E1F7809161
:101870001C02882331F00E944A1C1092A40C109282
:101880001C0280911702E3960FB6F894DEBF0FBEDC
:10189000CDBFCF91DF911F910F91FF90EF90DF901F
:1018A000CF90BF90AF909F908F907F906F905F9000
:1018B0004F903F902F90089587B1877887B908950A
:1018C0002F923F924F925F926F927F928F929F9250
:1018D000AF92BF92CF92DF92EF92FF920F931F933E
:1018E000DF93CF93CDB7DEB7AF970FB6F894DEBFD7
:1018F0000FBECDBF8DA76EA7242E2FA7902E560109
:101900006701FE01319680E1DF011D928A95E9F7BA
:10191000BDA5BB2371F06091580E7091590E809156
:101920005A0E90915B0E0E94E42D69837A838B831B
:101930009C832EA5222371F060915C0E70915D0E48
:1019400080915E0E90915F0E0E94E42D6D837E83E8
:101950008F839887222071F06091600E7091610EE4
:101960008091620E9091630E0E94E42D69877A87C0
:101970008B879C873FA5332371F06091640E709133
:10198000650E8091660E9091670E0E94E42D6D8722
:101990007E878F87988B8D859E85AF85B889498492
:1019A0005A846B847C84481659066A067B0610F4B8
:1019B0002C013D018D819E81AF81B8854816590665
:1019C0006A067B0610F42C013D0189819A81AB8166
:1019D000BC81481659066A067B0610F42C013D01AD
:1019E0004DA5642F70E05EA5650F711D620D711D20
:1019F000882777FD8095982F0E94E12B0E94A12EC9
:101A00007B018C01C301B2010E94DF2BA801970169
:101A10000E94462B7B018C012091780E3091790E2B
:101A200040917A0E50917B0E0E94142E20E030E8F7
:101A30004BE355E40E94462B0E942C2B0E94B32BB3
:101A400069A77AA78BA79CA7C801B701A601950132
:101A50000E94142E9B01AC0160EC71EE84E69CE4C4
:101A60000E94462B0E94E42D6B017C011091720EA6
:101A7000992011F08AEA1827D301C201B695A795DB
:101A800097958795882499245401881A990AAA0A57
:101A9000BB0A8091690E28EF34E241E050E0281B38
:101AA0003109410951092D8F3E8F4F8F58A38DA2C7
:101AB0009EA2AFA2B8A689A29AA2ABA2BCA288EFAE
:101AC00094E2A1E0B0E0898B9A8BAB8BBC8B198E32
:101AD0001A8E1B8E1C8E20E137E240E050E02D8BE9
:101AE0003E8B4F8B588F3324339431263DA53323BF
:101AF000C1F089819A81AB81BC81880E991EAA1E92
:101B0000BB1E181419041A041B045CF4369903C094
:101B1000012F1DA601C0032D84189508A608B7083B
:101B200001C0012F4EA5442339F18D819E81AF81E3
:101B3000B8852DA13EA14FA158A5280F391F4A1FD6
:101B40005B1F2DA33EA34FA358A71216130614061E
:101B5000150694F4359902C01EA602C034E003278E
:101B60008DA19EA1AFA1B8A584199509A609B709B1
:101B70008DA39EA3AFA3B8A7222039F189859A85AA
:101B8000AB85BC8529A13AA14BA15CA1280F391FC7
:101B90004A1F5B1F29A33AA34BA35CA3121613068B
:101BA0001406150694F4349902C0222402C030E1D0
:101BB000032789A19AA1ABA1BCA184199509A60903
:101BC000B70989A39AA3ABA3BCA39FA5992379F0D6
:101BD00029A13AA14BA15CA1121613061406150601
:101BE00034F4339902C01FA602C030E403270E94D8
:101BF000341F4DA5442349F45EA5552331F422201A
:101C000021F48FA5882309F473C08091A20C882346
:101C100009F06EC082B105758A7A082B02B98091ED
:101C2000690E90E00E94C11312B98D8D9E8D0E94A5
:101C3000C11329893A894B895C89C216D306E40607
:101C4000F50608F053CF8D899E89AF89B88D820F34
:101C5000931FA41FB51F8D8B9E8BAF8BB88F8132C6
:101C60002EE4920720E0A20720E0B20708F43ECF5E
:101C700080529E44A040B0408D8B9E8BAF8BB88F1E
:101C8000898D9A8DAB8DBC8D29A53AA54BA55CA5F8
:101C9000820F931FA41FB51F898F9A8FAB8FBC8FA4
:101CA00060E077E883E993E0298D3A8D4B8D5C8D78
:101CB0000E94242FC901DA01898B9A8BAB8BBC8BD4
:101CC0008C159D05AE05BF0520F4C98ADA8AEB8A1A
:101CD000FC8A8091690E29893A894B895C89281B85
:101CE0003109410951092D8F3E8F4F8F58A3FECEE8
:101CF000AF960FB6F894DEBF0FBECDBFCF91DF9188
:101D00001F910F91FF90EF90DF90CF90BF90AF9019
:101D10009F908F907F906F905F904F903F902F900B
:101D20000895CF92DF92EF92FF920F931F930E943C
:101D30004A1C16B1C0906E0ED0906F0EE090700EDF
:101D4000F090710E80E060E041E020E001E00E9450
:101D5000600CC0906E0ED0906F0EE090700EF09000
:101D6000710E81E061E040E020E00E94600CC090D4
:101D70006E0ED0906F0EE090700EF090710E80E0BD
:101D800060E040E021E00E94600C82E390E00E946D
:101D9000B71386B18127887790E0BC01E5E076959E
:101DA0006795EA95E1F76170AC0174E05695479547
:101DB0007A95E1F7417053E0969587955A95E1F74A
:101DC000282F2170C0906A0ED0906B0EE0906C0EA0
:101DD000F0906D0E33E0969587953A95E1F7817016
:101DE00000E00E94600C82E390E00E94B7131F9114
:101DF0000F91FF90EF90DF90CF9008952F923F9238
:101E00004F925F926F927F928F929F92AF92BF920A
:101E1000CF92DF92EF92FF920F931F93DF93CF93B6
:101E2000CDB7DEB76C970FB6F894DEBF0FBECDBF4F
:101E300060E071EE80E090E00E94BC1F0E9472257D
:101E40007894E2EAFCE086E3DF011D928A95E9F7E7
:101E500081E08093A20C9DE0692E712C6C0E7D1E9A
:101E60004E010894811C911C2F0186E3282E3324F7
:101E700033948091A20C882309F45DC0D301E5EA74
:101E8000FCE080E101900D928150E1F7D401E6EB96
:101E9000FCE080E101900D928150E1F7F201822D8A
:101EA00011928A95E9F70E944A200E9427240E94F5
:101EB000DF1D0E94F1170E9428040E9497240E94AF
:101EC0005C0C0E94E4020E946B26A5EABCE0F301D0
:101ED00080E101900D928150E1F7A6EBBCE0F401A6
:101EE0008CE001900D928150E1F76D857E858F85A4
:101EF000988929893A894B895C89ED88FE880F8900
:101F0000188DA98CBA8CCB8CDC8C0E94AF036D85AC
:101F10007E858F85988929893A894B895C89ED88E6
:101F2000FE880F89188DA98CBA8CCB8CDC8C0E9412
:101F300052143092A40C0E94341F0E946B1F99CF40
:101F40000E94910E0E9420040E94E91780E1E5EAB8
:101F5000FCE0DF011D928A95E9F70895EF92FF9268
:101F60000F931F93CF93DF937B018C0120E030E030
:101F700040EA51E40E94142E0E941C2C0E94B32BB4
:101F8000EB010E944A1CC801B70120E030E04AE79B
:101F900054E40E94142E7B018C0182E390E0C89FE0
:101FA000B001C99F700DD89F700D112480E090E0A2
:101FB0000E94DF2B9B01AC01C801B7010E94652A7A
:101FC0000E941C2C0E94B32BDC01CB010E94B71392
:101FD00000E911E00EC00E94341F8091A20C8823FA
:101FE00051F484EF91E0F8013197F1F70197D9F7B7
:101FF0002197209781F7DF91CF911F910F91FF904B
:10200000EF9008952F923F924F925F926F927F923E
:102010008F929F92AF92BF92CF92DF92EF92FF92F8
:102020000F931F93DF93CF93CDB7DEB73B014C01E6
:1020300019012A010E94341F8091A20C882321F5E6
:102040000E9448148823B1F700D00F920F928E8916
:102050009F89A88DB98DEDB7FEB781839283A38345
:10206000B4838A8D8583C401B301A20191010E94CA
:1020700005180F900F900F900F900F908091A40C67
:10208000882311F00E940326CF91DF911F910F91B9
:10209000FF90EF90DF90CF90BF90AF909F908F9088
:1020A0007F906F905F904F903F902F9008952F9268
:1020B0003F924F925F926F927F928F929F92AF92D8
:1020C000BF92CF92DF92EF92FF920F931F93DF9315
:1020D000CF93CDB7DEB7CE54D0400FB6F894DEBF65
:1020E0000FBECDBF3C017EAF6DAF21965FAF4EAF4F
:1020F000219722962FAF229723960FAF23972496EE
:10210000EFAE24972896ACAEBDAECEAEDFAE28972C
:1021100029968FAE2997E22EFF24EE0CFF1CEE0CC1
:10212000FF1C4E0D5F1D5CAF4BAFDA012D903D9053
:102130004D905C90FC01EE0DFF1DC201B1012081AC
:102140003181428153810E94662A69AB7AAB8BABA5
:102150009CAB10E0000F111F000F111F2196EEAD78
:10216000FFAD2197E00FF11FFAAFE9AFA080B1807A
:10217000C280D380F301E00FF11FC601B5012081B9
:102180003181428153810E94662A6DA77EA78FA765
:1021900098AB24962FAD2497E22FF0E0EE0FFF1FAF
:1021A000EE0FFF1F6E0E7F1ED3018D919D910D903E
:1021B000BC91A02D8DAB9EABAFABB8AF2DAD3EADFE
:1021C000E20FF31F60817181828193812DA93EA965
:1021D0004FA958AD0E94652A69A77AA78BA79CA72B
:1021E000D201C101B0588DA39EA3AFA3B8A7A60189
:1021F0009501505829A33AA34BA35CA34DAD5EAD06
:10220000E40EF51ED7016D917D918D919C9129A9C8
:102210003AA94BA95CA90E94652A3B014C01EDAD8E
:10222000FEAD0E0F1F1FD8016D917D918D919C9178
:102230002DA53EA54FA558A90E94652A5B016C01FA
:102240006DA17EA18FA198A5A60195010E94142ED3
:102250007B018C0169A17AA18BA19CA1A4019301AE
:102260000E94142E9B01AC01C801B7010E94652A8F
:102270001B012C016DA17EA18FA198A5A401930142
:102280000E94142E7B018C0169A17AA18BA19CA1D3
:10229000A60195010E94142E9B01AC01C801B70153
:1022A0000E94662A9B01AC01C201B1010E94D92A99
:1022B0005B016C0120E030E040E050E00E943F2BE9
:1022C000882354F4C601B5012BED3FE049EC50E4FE
:1022D0000E94662A5B016C01A9968FADA99788239D
:1022E00051F0C601B5012BED3FE049EC50E40E94EE
:1022F000652A5B016C01C601B501A8962CAD3DAD08
:102300004EAD5FADA8970E94142E29A53AA54BA506
:102310005CA50E944F2D7B018C0120E030E040E065
:1023200050E00E943F2B882309F407C2C801B7017F
:102330002091740E3091750E4091760E5091770E6B
:102340000E94462B0E941C2C0E94B32B78A36F8FF7
:102350002996BFAD2997BB23A1F080E090E00E94B1
:10236000DF2B9B01AC0128966CAD7DAD8EAD9FAD92
:1023700028970E94142E28966CAF7DAF8EAF9FAF2A
:1023800028972F8D38A1B90180E090E00E94DF2BC3
:102390007B018C01C601B501A80197010E94462B63
:1023A0006B8F7C8F8D8F9E8F69A57AA58BA59CA541
:1023B000A80197010E94462B6F8B788F898F9A8F87
:1023C0006B8D7C8D8D8D9E8D20E030E040E05FEB4D
:1023D0000E94142E2B8D3C8D4D8D5E8D0E94142EEF
:1023E00020E030E040E85FE30E94662A6B8B7C8B44
:1023F0008D8B9E8B24963FAD2497E32FF0E0EE0F5C
:10240000FF1FEE0FFF1FCE010196E80FF91FADA8C9
:10241000BEA8CFA8D8ACA082B182C282D38221E06C
:1024200030E03E872D87882422965FAD2297452F86
:1024300050E0440F551F440F551F480F591F2B964E
:102440005FAF4EAF2B972396BFAD2397AB2FB0E076
:10245000AA0FBB1FAA0FBB1FA80FB91F2D96BFAF96
:10246000AEAF2D972F96FFAFEEAF2F9724C1E7E2C7
:10247000E8150CF446C06DA17EA18FA198A52B8D07
:102480003C8D4D8D5E8D0E94142E7B018C0169A1C7
:102490007AA18BA19CA12B893C894D895E890E94E0
:1024A000142E9B01AC01C801B7010E94662A7B0172
:1024B0008C016DA17EA18FA198A52B893C894D89A6
:1024C0005E890E94142E5B016C0169A17AA18BA127
:1024D0009CA12B8D3C8D4D8D5E8D0E94142E9B01F9
:1024E000AC01C601B5010E94652A6DA37EA38FA32E
:1024F00098A78394C701D80189A39AA3ABA3BCA3CF
:1025000061C0AD84BE84B50180E090E00E94DF2B05
:102510002B8D3C8D4D8D5E8D0E94142E7B018C0188
:10252000C8010E94432B6F87788B898B9A8BB701E8
:10253000C8010E94972E3B014C01ABADBCADED90A4
:10254000FD900D911C9117FB109517F91095E9ADB1
:10255000FAAD2080318042805380C801B7012F85B9
:10256000388949895A890E94142E5B016C01C20185
:10257000B101A40193010E94142E9B01AC01C6017C
:10258000B5010E94662A6DA37EA38FA398A7C801F8
:10259000B701A40193010E94142E7B018C01C2019A
:1025A000B1012F85388949895A890E94142E9B01CF
:1025B000AC01C801B7010E94652A69A37AA38BA365
:1025C0009CA3882469A97AA98BA99CA92DA13EA1C5
:1025D0004FA158A50E94662A2B96AEADBFAD2B9792
:1025E0006D937D938D939C9313976DA57EA58FA579
:1025F00098A929A13AA14BA15CA10E94662A2D9617
:10260000EEADFFAD2D9760837183828393832F9608
:10261000AEADBFAD2F976D917D918D919C912F891E
:10262000388D498D5A8D0E94662A2F96EEADFFADEA
:102630002F97608371838283938300D00F920F92D0
:1026400069817A818B819C812D813E814F81588562
:10265000E984FA840B851C852896ACACBDACCEAC65
:10266000DFAC2897ADB7BEB71196AD92BD92CD92B3
:10267000DC9214972996EFAD29971596EC930F2EBF
:10268000F0E0AF2EF0E0BF2EF0E0CF2EF0E0DF2E36
:10269000F02D0E9402100F900F900F900F900F904E
:1026A0008091A20C882309F048C02D853E852F5FBC
:1026B0003F4F3E872D874D855E858F8D98A14817AA
:1026C000590708F4D4CE00D00F920F92ADADBEAD35
:1026D0006D917D918D919C91139714962D913D91C3
:1026E0004D915C9117971896ED90FD900D911C916E
:1026F0001B972896ACACBDACCEACDFAC2897ADB781
:10270000BEB71196AD92BD92CD92DC9214972996E8
:10271000EFAD29971596EC930F2EF0E0AF2EF0E079
:10272000BF2EF0E0CF2EF0E0DF2EF02D0E94021041
:102730000F900F900F900F900F90C25BDF4F0FB66E
:10274000F894DEBF0FBECDBFCF91DF911F910F91E7
:10275000FF90EF90DF90CF90BF90AF909F908F90C1
:102760007F906F905F904F903F902F90089520EA58
:102770003FE004C0F9013197F1F701970097D1F7D5
:10278000089560EA7FE040E951E0A5E335E01FC02D
:102790008A30910528F4232F2A95F1F7019717C065
:1027A0008436910528F42A2F2A95F1F70A970FC04D
:1027B00023E0883E920730F4FA013197F1F784560E
:1027C000904005C0FB013197F1F7885E9340009778
:1027D000F9F60895AF92BF92CF92DF92EF92FF92F7
:1027E0000F931F93DF93CF930F920F92CDB7DEB766
:1027F0006C015B017A01FB0180818601080F111DCC
:10280000C801BE016F5F7F4F0E94612FF701608397
:1028100071838283938389819A818017910719F448
:1028200020E030E005C08C19F501808321E030E024
:10283000C9010F900F90CF91DF911F910F91FF90E1
:10284000EF90DF90CF90BF90AF9008959091150CCE
:102850008091160C981741F08091160C8F5F88328A
:1028600009F480E08093160C08959091150C8091E6
:10287000160C981719F420E030E008C09091160C5F
:102880008FE3989F90011124235C3D4FC901089567
:102890009091160C20E08091170C981709F421E014
:1028A000822F0895AF92BF92CF92DF92EF92FF9264
:1028B0000F931F936093180C7093190C80931A0C4C
:1028C00090931B0C20931C0C30931D0C40931E0CFA
:1028D00050931F0CE092200CF092210C0093220CDC
:1028E0001093230CA092240CB092250CC092260CBD
:1028F000D092270C1F910F91FF90EF90DF90CF9017
:10290000BF90AF9008958F929F92AF92BF92CF9257
:10291000DF92EF92FF920F931F93CF93DF93EC011F
:102920006B01009709F460C08EA1882309F05CC098
:10293000E98CFA8C0B8D1C8DFB01B18CA28C938CD5
:10294000848CC801B7012B2D3A2D492D582D0E949A
:102950003F2B88230CF048C0C801B701A80197019C
:102960000E94142E7B018C016091780E7091790E7B
:1029700080917A0E90917B0E905820E030E040E0FC
:1029800050EC0E94142E29A13AA14BA15CA10E94F7
:10299000142E9B01AC01C801B7010E94662A0E9457
:1029A000A12E7B018C016B2D7A2D892D982D9701FD
:1029B000A8010E943F2B882324F4EB2CFA2C092D2C
:1029C000182D6B2D7A2D892D982D9701A8010E9425
:1029D0003F2B882349F0C701D801F601818F928FE0
:1029E000A38FB48F81E085A3DF91CF911F910F91C9
:1029F000FF90EF90DF90CF90BF90AF909F908F901F
:102A000008952F923F924F925F926F927F928F9292
:102A10009F92AF92BF92CF92DF92EF92FF920F936D
:102A20001F93DF93CF93CDB7DEB768970FB6F894B7
:102A3000DEBF0FBECDBF1C016A017B012801390139
:102A4000DC01DB966D917D918D919C91DE970E94CA
:102A5000DF2B4B015C01A70196010E94142E0E94FE
:102A60002C2B0E94B32B7B018C01F10167A370A773
:102A700081A792A7C501B401A30192010E94142E5F
:102A80000E942C2B0E94B32B69877A878B879C87A7
:102A9000D1019B966D937D938D939C939E979F966A
:102AA0006D917D918D919C91D29722E330E040E031
:102AB00050E00E94052F0E94E12B20E030E040E72B
:102AC00052E40E94142E0E94AE2B2B013C01C8013F
:102AD000B7010E94DF2B7B018C01C301B2010E9470
:102AE000E12B6D837E838F839887C501B401A50197
:102AF00094010E94142E5B016C01C801B701A8016A
:102B000097010E94142E6D877E878F87988B6D8129
:102B10007E818F8198859B01AC010E94662A698B1A
:102B20007A8B8B8B9C8BC601B5012D853E854F859D
:102B300058890E94652A29893A894B895C890E94B3
:102B4000462B0E942C2B0E94AE2B69837A838B83A9
:102B50009C8369857A858B859C850E94DF2B9B01F0
:102B6000AC010E94142E6D8B7E8B8F8B988FA601EB
:102B700095010E94652A7B018C01709460945094A9
:102B80004094411C511C611C711CC301B2010E9484
:102B9000E12B9B01AC010E94662A9B01AC01C8019C
:102BA000B7010E94462B0E941C2CF101A188B2881B
:102BB000C388D4888601750129813A814B815C8163
:102BC000E21AF30A040B150B0E94AE2BA801970121
:102BD000261B370B480B590BDA01C90157FF4AC0B6
:102BE000C601B5010E94E12B9B01AC0169897A897C
:102BF0008B899C890E94142E2D853E854F8558898E
:102C00000E94652A2D893E894F89588D0E94662A27
:102C10007B018C016D817E818F81988520E030E081
:102C200040E850E40E94142E9B01AC01C801B7019A
:102C30000E94462B0E942C2B0E94AE2BAC01CB0194
:102C4000DA01BC01CD0197FF04C060E070E080E0D4
:102C500090E069837A838B839C83A616B706C806A7
:102C6000D90624F4A982BA82CB82DC8280E090E08B
:102C7000A0E0B0E029813A814B815C81F10123AB76
:102C800034AB45AB56AB820F931FA41FB51F87AB68
:102C900090AFA1AFB2AF68960FB6F894DEBF0FBE8B
:102CA000CDBFCF91DF911F910F91FF90EF90DF90FB
:102CB000CF90BF90AF909F908F907F906F905F90DC
:102CC0004F903F902F9008952F923F924F925F9296
:102CD0007F928F929F92AF92BF92CF92DF92EF92AC
:102CE000FF920F931F93CF93DF93D090150C809199
:102CF000780E9091790EA0917A0EB0917B0E1C0106
:102D00002D0157FA509457F8509400E010E0C0E0BD
:102D1000D0E0BB24B3943FE3C32E72C0DD2011F496
:102D200028E2D22EDA94209709F463C00115110528
:102D300009F45FC0AD8C9E8C8F8C78A0698D7A8DE4
:102D40008B8D9C8D2A2D392D482D572D0E943F2B80
:102D5000882309F44EC08EA1882309F041C0F801F0
:102D6000E18CF28C038D148D6A2D792D882D972D91
:102D7000A80197010E94422D181694F5C801B701C9
:102D8000A80197010E94142E7B018C01C201B101A0
:102D900020E030E040E050EC0E94142E29A13AA13E
:102DA0004BA15CA10E94142E9B01AC01C801B7018C
:102DB0000E94662A0E94A12E162F072FF82EE92EB8
:102DC0006A2D792D882D972D212F302F4F2D5E2D97
:102DD0000E943F2B87FD04C0A12E902E8F2C7E2CAD
:102DE0008A2D992DA82DB72D898F9A8FAB8FBC8FE7
:102DF000BDA2DC9CC00111248E01EC01C35CDD4F3F
:102E00008091160CD81609F089CFF090160C20E0AE
:102E100030E000E010E09FE3E92E11C0FE9CE001ED
:102E20001124C35CDD4FC901B801AE010E948314B7
:102E3000F394F8E2FF1609F4FF2498018E018091C3
:102E4000150CF81659F7C901B80140E050E00E948E
:102E500083147090160CC0E0D0E08FE3582E35C07C
:102E6000759C400111248DE392E0880E991E2097F5
:102E700031F18DA1882321F4F40185A18823F9F093
:102E8000ED88FE880F89188D698D7A8D8B8D9C8DCC
:102E9000A80197010E94462B5B016C01F401618D32
:102EA000728D838D948DA80197010E94462B8B0112
:102EB0009C01CE01B601A5010E9401151DA27394CB
:102EC000F8E27F1609F47724E4018091150C781656
:102ED00039F6ED88FE880F89188D698D7A8D8B8D76
:102EE0009C8DA80197010E94462B5B016C0160E05C
:102EF00070E080E090E0A80197010E94462B8B01D2
:102F00009C01CE01B601A5010E9401151DA2DF9111
:102F1000CF911F910F91FF90EF90DF90CF90BF90D6
:102F2000AF909F908F907F905F904F903F902F90A9
:102F30000895AF92BF92CF92DF92EF92FF920F93DC
:102F40001F93CF93DF935B016C019091160C8FE37D
:102F5000989FE0011124C35CDD4FC601B5010E94BA
:102F6000E12B29A13AA14BA15CA10E94142E7B0167
:102F70008C0169897A898B899C890E94E12B9B014C
:102F8000AC01C801B7010E94462B69A37AA38BA3A9
:102F90009CA3A98ABA8ACB8ADC8A80E090E0A0E070
:102FA000B0E0898F9A8FAB8FBC8F8D8F9E8FAF8F44
:102FB000B8A31EA281E08DA30E946416DF91CF9179
:102FC0001F910F91FF90EF90DF90CF90BF90AF9047
:102FD000089580E1E8E1FCE0DF011D928A95E9F7C0
:102FE00008958091150C8093160C8091150C8F5FBD
:102FF000883209F480E08093170C84E2E8E1FCE079
:10300000DF011D928A95E9F708952F923F924F9222
:103010005F926F927F928F929F92AF92BF92CF9268
:10302000DF92EF92FF920F931F93DF93CF93CDB771
:10303000DEB7EE970FB6F894DEBF0FBECDBF3901F5
:103040004A013091150C2FE3329F200111242DE30A
:1030500032E0420E531E2091580E3091590E40918D
:103060005A0E50915B0E0E94142E0E94E42D69832B
:103070007A838B839C83C401B30120915C0E3091D1
:103080005D0E40915E0E50915F0E0E94142E0E94C4
:10309000E42D6D837E838F839887C801B7012091CB
:1030A000600E3091610E4091620E5091630E0E944D
:1030B000142E0E94E42D69877A878B879C87C6012E
:1030C000B5012091640E3091650E4091660E5091CD
:1030D000670E0E94142E0E94E42D6D877E878F87D5
:1030E000988BD2011C9229813A814B815C8180911D
:1030F000180C9091190CA0911A0CB0911B0C281768
:1031000039074A075B071CF482E0F20180832D81B6
:103110003E814F81588580911C0C90911D0CA0918F
:103120001E0CB0911F0C281739074A075B0724F4BF
:10313000D2018C9188608C9329853A854B855C857A
:103140008091200C9091210CA091220CB091230C25
:10315000281739074A075B0724F4F201808180624F
:1031600080832D853E854F8558898091240C9091D0
:10317000250CA091260CB091270C281739074A0777
:103180005B0724F4D2018C9180688C9329813A8169
:103190004B815C818091180C9091190CA0911A0CB4
:1031A000B0911B0C281B390B4A0B5B0B57FF07C058
:1031B00050954095309521953F4F4F4F5F4FF2010D
:1031C00021833283438354836D807E808F809884F3
:1031D00080911C0C90911D0CA0911E0CB0911F0CA5
:1031E000681A790A8A0A9B0AD20115966D927D9215
:1031F0008D929C92189797FE0BC088279927DC0127
:1032000086199709A809B90985839683A783B0878A
:10321000A984BA84CB84DC848091200C9091210C09
:10322000A091220CB091230CA81AB90ACA0ADB0A91
:10323000D2011996AD92BD92CD92DC921C97D7FE29
:103240000CC088279927DC018A199B09AC09BD09A4
:10325000F20181879287A387B4872091240C309153
:10326000250C4091260C5091270C29A33AA34BA37F
:103270005CA32D853E854F85588989A19AA1ABA174
:10328000BCA1281B390B4A0B5B0B57FF07C050959D
:103290004095309521953F4F4F4F5F4FD2011D967E
:1032A0002D933D934D935C9350971996ED90FD901F
:1032B0000D911C911C9715968D919D910D90BC912F
:1032C000A02D8E159F05A007B10710F4D801C701E6
:1032D000F201E180F280038114818E159F05A00721
:1032E000B10710F4D801C70182179307A407B507E7
:1032F00010F4DA01C901F201818B928BA38BB48B9C
:103300000097A105B10509F4ACC269817A818B816E
:103310009C812091180C3091190C40911A0C5091FD
:103320001B0C621B730B840B950B0E94E12B2091ED
:10333000580E3091590E40915A0E50915B0E0E94DA
:10334000462B69AB7AAB8BAB9CABC401B3010E943B
:10335000E12B20915C0E30915D0E40915E0E5091FC
:103360005F0E0E94462B6DA77EA78FA798ABC60164
:10337000B5010E94E12B2091600E3091610E4091C9
:10338000620E5091630E0E94462B69A77AA78BA705
:103390009CA76D857E858F85988929A13AA14BA12F
:1033A0005CA1621B730B840B950B0E94E12B209197
:1033B000640E3091650E4091660E5091670E0E942A
:1033C000462B6DA37EA38FA398A769A97AA98BA981
:1033D0009CA99B01AC010E94142E7B018C016DA560
:1033E0007EA58FA598A99B01AC010E94142E9B017C
:1033F000AC01C801B7010E94662A7B018C0169A556
:103400007AA58BA59CA59B01AC010E94142E9B0163
:10341000AC01C801B7010E94662A7B018C016DA135
:103420007EA18FA198A59B01AC010E94142E9B0147
:10343000AC01C801B7010E94662A0E94A12E7B013F
:103440008C01D20191966D937D938D939C9394976B
:1034500060E070E080E89FE3A80197010E94462B9E
:103460003B014C0169968FAD6997882359F46896A2
:103470006CAD7DAD8EAD9FAD6897A40193010E94A8
:10348000142E0CC060E070E080E89FE368962CADDD
:103490003DAD4EAD5FAD68970E94462B5B016C0160
:1034A000C801B701A60195010E94142E6DAB7EAB39
:1034B0008FAB98AFF201658B768B878B908F61898C
:1034C0007289838994890E94E12B7B018C01A6017A
:1034D00095010E94142E0E942C2B0E94B32BD20126
:1034E000DB966D937D938D939C93DE97C801B70116
:1034F000A40193010E94142E2091780E3091790E30
:1035000040917A0E50917B0E0E94142E20E030E8FC
:103510004BE355E40E94462B0E942C2B0E94AE2BBD
:10352000F20167A770AB81AB92AB69A97AA98BA9AD
:103530009CA9A40193010E94142E7B018C01698B2C
:103540007A8B8B8B9C8B6DA57EA58FA598A9A401EA
:1035500093010E94142E5B016C016D8B7E8B8F8B0F
:10356000988F69A57AA58BA59CA5A40193010E94BB
:10357000142E69AF7AAF8BAF9CAF698F7A8F8B8F28
:103580009C8F6DA17EA18FA198A5A40193010E949B
:10359000142E3B014C016D8F7E8F8F8F98A39091DD
:1035A000150C8091160C981709F4CFC0F091380CC7
:1035B000FDAF2091390C2EAF20903A0C30903B0C8F
:1035C0006F2F722FC10120E030E040E050E00E94F8
:1035D000422D18160CF0B9C06091280C7091290C7E
:1035E00080912A0C90912B0C9058A80197010E9471
:1035F000142E7B018C0160912C0C70912D0C80910C
:103600002E0C90912F0CA60195010E94142E9B0167
:10361000AC01C801B7010E94652A7B018C01609151
:10362000300C7091310C8091320C9091330C29AD9B
:103630003AAD4BAD5CAD0E94142E9B01AC01C801AC
:10364000B7010E94652A7B018C01C401B30120915E
:10365000340C3091350C4091360C5091370C0E944F
:10366000142E9B01AC01C801B7010E94652A7B01A1
:103670008C0123E333E343E75FE30E943F2B88237E
:103680000CF063C06DAD7EADC1012DA93EA94FA95F
:1036900058AD0E943F2B87FD07C08DA99EA9AFA9F9
:1036A000B8AD8DAF9EAF1D01C801B70123E333E371
:1036B00043E75FEB0E94422D18160CF04BC060E010
:1036C00070E080E89FE3A80197010E94652A20E04E
:1036D00030E040E05FE30E94142E0E94A12E5B01C7
:1036E0006C016091780E7091790E80917A0E9091B4
:1036F0007B0E20917C0E30917D0E40917E0E50917C
:103700007F0E0E94142EA60195010E94142E7B01AB
:103710008C0160E070E080E89FE3A60195010E94C3
:10372000652A9B01AC01C801B7010E94462B0E948B
:10373000A12E7B018C016DAD7EADC1019701A80169
:103740000E943F2B87FD06C008C0EE24FF2400E046
:1037500010E003C0EDACFEAC8101C701D801F2015D
:10376000858F968FA78FB0A36091780E7091790E98
:1037700080917A0E90917B0E905820E030E040E0EE
:1037800050EC0E94142ED20191962D913D914D91B5
:103790005C9194970E94142E20E030E040E050E0CD
:1037A0000E94662A0E94A12ED62EC72EB82EA92EC0
:1037B000B701C8012D2D3C2D4B2D5A2D0E943F2BBA
:1037C00087FD04C0ED2CFC2C0B2D1A2DC701D80150
:1037D000F201818F928FA38FB48F65897689878953
:1037E000908D2D2D3C2D4B2D5A2D0E943F2B1816C0
:1037F0002CF081E0D20196968C9302C0F20116A2C1
:1038000081E0D20195968C93A8E2BCE0FE0171960E
:1038100080E101900D928150E1F7F201858996894E
:10382000A789B08D8093380C9093390CA0933A0CF3
:10383000B0933B0C8091170C8093150C8091150C64
:103840008F5F883209F480E08093170CA8E1BCE018
:10385000FE01319680E101900D928150E1F70E94C6
:103860006416EE960FB6F894DEBF0FBECDBFCF91B3
:10387000DF911F910F91FF90EF90DF90CF90BF905D
:10388000AF909F908F907F906F905F904F903F9000
:103890002F9008951F931FE306C00E94341F80914C
:1038A000A20C882391F49091150C8091160C981716
:1038B00041F08091160C819FC0011124835C9D4FC3
:1038C00061F78091D60C882341F71F910895AF923C
:1038D000BF92CF92DF92EF92FF920F93DF93CF933D
:1038E000CDB7DEB7A2970FB6F894DEBF0FBECDBF3F
:1038F0006B017C01611571058105910521F480E35F
:103900000E94ED1F32C000E05E010894A11CB11CB2
:10391000C501800F911D9AA389A3C701B6012AE0B2
:1039200030E040E050E00E94242FE9A1FAA160833A
:103930000F5FC701B6012AE030E040E050E00E948E
:10394000242FC901DA016C017D01C114D104E10405
:10395000F104F1F608C0FE01E00FF11D8081805DE9
:103960000E94ED1F01500023B1F7A2960FB6F89404
:10397000DEBF0FBECDBFCF91DF910F91FF90EF90D3
:10398000DF90CF90BF90AF900895AF92BF92CF924B
:10399000DF92EF92FF920F931F93CF93DF937B0100
:1039A0008C0120E030E040E050E00E943F2B882373
:1039B0003CF48DE20E94ED1F17FB109517F910954E
:1039C000C801B7012AE037ED43EA5BE30E94662AAB
:1039D0007B018C010E94AE2B5B016C01CC24B7FCF7
:1039E000C094DC2CC601B5010E94671C8EE20E94C7
:1039F000ED1FC601B5010E94E12B9B01AC01C8017E
:103A0000B7010E94652AC2E0D0E01EC020E030E08D
:103A100040E251E40E94142E5B016C010E94AE2B27
:103A20007B018C01862F805D0E94ED1F6E2D70E062
:103A3000882777FD8095982F0E94E12B9B01AC0190
:103A4000C601B5010E94652A21972FEFCF3FD2070B
:103A5000E9F6DF91CF911F910F91FF90EF90DF90EA
:103A6000CF90BF90AF900895EF92FF920F931F9366
:103A70007B018C0197FF0BC08DE20E94ED1F10951A
:103A80000095F094E094E11CF11C011D111DC8018A
:103A9000B7010E94671C1F910F91FF90EF9008954E
:103AA0000F931F93DF93CF93CDB7DEB728970FB651
:103AB000F894DEBF0FBECDBF982FFE0131969E0158
:103AC000275F3F4F892F817081939695E217F30707
:103AD000C9F78E01085F1F4FF8018081805D0E9449
:103AE000ED1F015010400C171D07B1F728960FB6B7
:103AF000F894DEBF0FBECDBFCF91DF911F910F9124
:103B00000895CF93DF93EC0102C00E94ED1FFE01E8
:103B1000219684918823C9F7DF91CF910895CF939F
:103B2000DF93EC0103C021960E94ED1F888188235A
:103B3000D1F7DF91CF910895CF93DF93EC010097F8
:103B400019F481EC91E036C089EB91E00E94811D6F
:103B5000C330D105D1F0C430D1053CF4C130D1051A
:103B600071F0C230D105E9F40DC0C530D10599F02E
:103B7000C530D1056CF0C630D10599F40FC085EA87
:103B800091E018C08BE891E015C083E791E012C086
:103B90008CE591E00FC084E491E00CC082E391E0F9
:103BA00009C0BE01882777FD8095982F0E94341D9B
:103BB0008FE291E00E94811DDF91CF91089587EE01
:103BC00091E00E94811D86EC91E00E94811D80E0C1
:103BD00090E00E949C1D10926E0C10926F0C089544
:103BE000FC018081843221F4CF010E9436240895A3
:103BF000CF010E9476040895DF93CF93CDB7DEB74F
:103C000060970FB6F894DEBF0FBECDBFDE011196F0
:103C1000E5EAFCE080E101900D928150E1F780E05F
:103C200092E00E948F1D69817A818B819C810E9424
:103C3000E12B2091580E3091590E40915A0E50911F
:103C40005B0E0E94462B0E94C51C87E092E00E94FA
:103C50008F1D6D817E818F8198850E94E12B20913F
:103C60005C0E30915D0E40915E0E50915F0E0E9491
:103C7000462B0E94C51C87E092E00E948F1D69853B
:103C80007A858B859C850E94E12B2091600E309176
:103C9000610E4091620E5091630E0E94462B0E946D
:103CA000C51C87E092E00E948F1D6D857E858F8503
:103CB00098890E94E12B2091640E3091650E40910D
:103CC000660E5091670E0E94462B0E94C51C89E02B
:103CD00092E00E948F1D69817A818B819C810E9474
:103CE000E12B2091580E3091590E40915A0E50916F
:103CF0005B0E0E94462BE091B50CF0E054E0EE0F15
:103D0000FF1F5A95E1F7EE55F34F2489358946890F
:103D100057890E94652A2091C60C3091C70C4091AA
:103D2000C80C5091C90C0E94652A0E94C51C87E0EE
:103D300092E00E948F1D6D817E818F8198850E9407
:103D4000E12B20915C0E30915D0E40915E0E509102
:103D50005F0E0E94462BE091B50CF0E044E0EE0FC0
:103D6000FF1F4A95E1F7EE55F34F208D318D428DBF
:103D7000538D0E94652A2091CA0C3091CB0C409142
:103D8000CC0C5091CD0C0E94652A0E94C51C87E086
:103D900092E00E948F1D69857A858B859C850E94A3
:103DA000E12B2091600E3091610E4091620E509196
:103DB000630E0E94462BE091B50CF0E034E0EE0F6C
:103DC000FF1F3A95E1F7E655F34F24893589468977
:103DD00057890E94652A2091CE0C3091CF0C4091DA
:103DE000D00C5091D10C0E94652A0E94C51C87E01E
:103DF00092E00E948F1D6D857E858F8598890E9437
:103E0000E12B2091640E3091650E4091660E509129
:103E1000670E0E94462BE091B50CF0E024E0EE0F17
:103E2000FF1F2A95E1F7EE53F34F20813181428144
:103E300053810E94652A2091D20C3091D30C40917D
:103E4000D40C5091D50C0E94652A0E94C51C82E1B9
:103E500092E00E948F1D60960FB6F894DEBF0FBEF1
:103E6000CDBFCF91DF9108951F938091D70C882308
:103E700081F18091D70C182F84FF04C081E08093DA
:103E8000A20C27C080FF07C00E94FC1D8091D70CA8
:103E90008E7F8093D70C13FF07C00E94202680914D
:103EA000D70C877F8093D70C12FF07C00E942E2665
:103EB0008091D70C8B7F8093D70C11FF0AC00E9492
:103EC000032681E08093A40C8091D70C8D7F809392
:103ED000D70C1F9108951F9311E046C02A3011F0AE
:103EE0002D30E1F40E94341F8091A20C882309F048
:103EF00041C0E0916E0CEE2351F0F0E0E45CF34F32
:103F000010828CE39CE00E94F01D90E002C080E0F3
:103F100090E00E949C1D10926E0C06C080916F0C68
:103F2000882329F0293201F510926F0C1DC021322F
:103F3000D8F02F32C9F0283219F410936F0C14C046
:103F400090916E0C913380F4822F8156E92FF0E02E
:103F50009F5F8A3120F4E45CF34F205202C0E45C9E
:103F6000F34F208390936E0C0E943920282F8F3FAF
:103F700009F0B4CF1F910895EF92FF920F931F9312
:103F80007B018C0122E030E040E050E00E94462FAF
:103F9000205C3D4B404F5F4FCA01B901A80197011A
:103FA0000E94242F215030403093C5002093C4003C
:103FB000E0ECF0E080818D7F8083E1ECF0E08081B7
:103FC0008061808380818860808380818068808335
:103FD0001F910F91FF90EF900895282FE091720CA0
:103FE0009E2F9F5F903831F490E004C08091D70CF1
:103FF00084FD0FC08091730C9817C1F3F0E0E85274
:10400000F24F20839093720C8091C1008062809364
:10401000C10008951F920F920FB60F920BB60F9228
:1040200011248F939F93EF93FF938091730CE82F4C
:10403000F0E0E852F24F90819093C600982F9F5F76
:10404000903809F490E09093730C8091720C98175B
:1040500029F48091C1008F7D8093C100FF91EF9181
:104060009F918F910F900BBE0F900FBE0F901F90DE
:1040700018959091710C8091700C891711F48FEF45
:104080000895E92FF0E0E852F34F80819F5F90930D
:10409000710C08958091700C8093710C08951F929B
:1040A0000F920FB60F920BB60F9211242F933F93DE
:1040B0004F935F936F937F938F939F93AF93BF9330
:1040C000EF93FF939091C6009132A1F0923218F4D1
:1040D000983101F513C09F3319F09E37D9F404C00D
:1040E0008091D70C816003C08091D70C826080934F
:1040F000D70C1EC08091D70C8860F9CF8091D70C67
:1041000084FD04C00E944C250E94A5248091D70CF8
:104110008061EDCFE091700C2E2F2F5F8091710C9C
:10412000281731F0F0E0E852F34F90832093700CA1
:10413000FF91EF91BF91AF919F918F917F916F917F
:104140005F914F913F912F910F900BBE0F900FBE3B
:104150000F901F90189580E090E0A0EAB2E4809361
:10416000580E9093590EA0935A0EB0935B0E809305
:104170005C0E90935D0EA0935E0EB0935F0E8093E5
:10418000600E9093610EA093620EB093630E80E078
:1041900090E0A8E4B3E48093640E9093650EA0933E
:1041A000660EB093670E8EE18093690E80E090E812
:1041B000ABE3B4E480936A0E90936B0EA0936C0E05
:1041C000B0936D0E80E090E8ABEBB4E480936E0E9C
:1041D00090936F0EA093700EB093710E80E096EDE9
:1041E000A3E8B8E48093780E9093790EA0937A0EAA
:1041F000B0937B0E8DEC9CECACECBDE38093740E25
:104200009093750EA093760EB093770E85E580930C
:10421000720E1092730E8DEC9CECACE4BDE38093B7
:104220007C0E90937D0EA0937E0EB0937F0E109225
:10423000800E8CE291E0A0E0B0E08093810E90933C
:10424000820EA093830EB093840E80E090E0AAE7E4
:10425000B4E48093850E9093860EA093870EB0935E
:10426000880E089580E090E065E00E940C0381E0F4
:1042700090E068E57EE041E350E00E942E0308955F
:10428000EF92FF920F931F93CF93DF93EC017A018C
:104290008B018830910509F47CC0893091059CF42C
:1042A0008430910509F444C0853091051CF497FFD2
:1042B00027C0DFC08630910509F459C087309105C9
:1042C0000CF05EC04BC08C30910509F497C08D3066
:1042D00091054CF48A30910509F46DC08B3091053D
:1042E0000CF080C05FC08E30910509F49BC08E3009
:1042F00091050CF48AC0C85ED34009F0BAC09BC0D7
:10430000CB01BA0120E030E040E050E00E943F2BBA
:1043100018161CF087E892E0B3C0CC0FDD1FCC0F5D
:10432000DD1FC85AD14FE882F9820A831B83A4C0DB
:10433000CB01BA0120E030E040E450E40E943F2B82
:1043400088231CF480E692E09BC0C801B7010E945C
:10435000772E0E94B32B6093690E8EC040936A0E35
:1043600050936B0E60936C0E70936D0E85C04093EE
:104370006E0E50936F0E6093700E7093710E7CC032
:104380004093740E5093750E6093760E7093770E73
:1043900073C0CB01BA010E94E22E0E94B32B60933E
:1043A000720E6AC0CB01BA010E94E22E0E94B32BAA
:1043B0006093730E61C0CB01BA0120E030E040E7AA
:1043C00052E40E94142E20E030E040E752E40E94C4
:1043D000142E6093780E7093790E80937A0E9093DA
:1043E0007B0E4AC0DB01CA01BF7780937C0E90939D
:1043F0007D0EA0937E0EB0937F0E3EC0CB01BA011E
:104400000E94B32B6093800E37C0CB01BA010E948B
:10441000B32B6093810E7093820E8093830E9093E2
:10442000840E2AC04093850E5093860E6093870EAB
:104430007093880E21C0CB01BA0120E030E040E04B
:1044400050E00E943F2B882319F00E94362502C0BD
:104450000E943825C801B70120E030E040E050E07C
:104460000E943F2B882371F40E94EB020E94A52436
:1044700009C08CE492E004C00E94322187E392E0FC
:104480000E94811DDF91CF911F910F91FF90EF90BE
:1044900008951F9380E090E00E940403182F853058
:1044A00081F488E59EE061E070E041E350E00E9425
:1044B000780320E0892B09F421E081E0282730E00F
:1044C00086C0813021F588E59EE061E070E04FE133
:1044D00050E00E947803892B09F477C080E096EDC4
:1044E000A3E8B8E48093780E9093790EA0937A0EA7
:1044F000B0937B0E8DEC9CECACE4BDE380937C0E22
:1045000090937D0EA0937E0EB0937F0E59C0825083
:10451000823080F588E59EE061E070E041E350E0A4
:104520000E947803892B09F450C0123061F48DEC9D
:104530009CECACE4BDE380937C0E90937D0EA09345
:104540007E0EB0937F0E6091780E7091790E8091FF
:104550007A0E90917B0E20E030E041E655E40E9417
:10456000142E6093780E7093790E80937A0E909348
:104570007B0E26C0143049F588E59EE061E070E0CE
:1045800041E350E00E947803892BF9F01092800EED
:104590008CE291E0A0E0B0E08093810E9093820ED7
:1045A000A093830EB093840E80E090E0AAE7B4E479
:1045B0008093850E9093860EA093870EB093880EFD
:1045C0000E94322121E030E002C020E030E0C90149
:1045D0001F9108958AE395E00E94811D85E395E08F
:1045E0000E94811D82E395E00E94811D8CE295E08E
:1045F0000E94811D6091580E7091590E80915A0E43
:1046000090915B0E0E94C51C8CE195E00E94811D7B
:1046100086E195E00E94811D60915C0E70915D0EB7
:1046200080915E0E90915F0E0E94C51C86E095E021
:104630000E94811D80E095E00E94811D6091600EC6
:104640007091610E8091620E9091630E0E94C51C64
:1046500080EF94E00E94811D8AEE94E00E94811D0B
:104660006091640E7091650E8091660E9091670E58
:104670000E94C51C88ED94E00E94811D82ED94E0AB
:104680000E94811D6091690E70E080E090E00E94C0
:10469000341D85EB94E00E94811D8FEA94E00E9416
:1046A000811D60916A0E70916B0E80916C0E9091DD
:1046B0006D0E0E94C51C81E994E00E94811D8BE86B
:1046C00094E00E94811D60916E0E70916F0E80913A
:1046D000700E9091710E0E94C51C8DE694E00E94B0
:1046E000811D87E694E00E94811D6091740E709197
:1046F000750E8091760E9091770E0E94C51C83E511
:1047000094E00E94811D8DE494E00E94811D6091DF
:10471000720E70E080E090E00E94341D8AE294E026
:104720000E94811D8091720E0E94501D86E294E0CD
:104730000E94811D80E294E00E94811D6091730EB1
:1047400070E080E090E00E94341D87EF93E00E94CB
:10475000811D8091730E0E94501D83EF93E00E9493
:10476000811D8CEE93E00E94811D6091780E709106
:10477000790E80917A0E90917B0E20E030E041E638
:1047800055E40E94462B0E94C51C8EEC93E00E94CB
:10479000811D87EC93E00E94811D60917C0E7091D9
:1047A0007D0E80917E0E90917F0E0E94C51C8FE938
:1047B00093E00E94811D88E993E00E94811D609131
:1047C000800E70E080E090E00E94341D89E693E066
:1047D0000E94811D82E693E00E94811D6091810EFE
:1047E0007091820E8091830E9091840E0E94DF2B37
:1047F0000E94C51C80E493E00E94811D89E393E040
:104800000E94811D6091850E7091860E8091870EA9
:104810009091880E0E94C51C87E193E00E94811D43
:104820008EE093E00E94811D0E943A25AA2797FD01
:10483000A095BA2FBC01CD010E94341D85EE92E0F7
:104840000E94811D80EA92E00E94811D08950E94CD
:104850004922892B51F48CEF91E00E94811D0E9426
:10486000AB200E9432210E94EA220895EF92FF922B
:104870000F931F93DF93CF93CDB7DEB729970FB672
:10488000F894DEBF0FBECDBF8C0181E08983F801B3
:1048900080818432E1F58181882319F40E94EA2223
:1048A00034C0C8017E010894E11CF11CB701AE01BF
:1048B0004E5F5F4F0E94EA13892B59F19981F801ED
:1048C000E90FF11D80818D3311F59F5F9983C80138
:1048D000B701AE014A5F5F4F0E94EA13892BC9F00E
:1048E0008981080F111DF8018081882381F46A8174
:1048F0007B818C819D810E94AE2BDC01CB014E819E
:104900005F81688579850E94402180E003C083E053
:1049100001C081E029960FB6F894DEBF0FBECDBF6F
:10492000CF91DF911F910F91FF90EF90089510921A
:10493000740CE1E0F1E0808188608083399AE2E0E4
:10494000F1E08081877F80830895E2E0F1E080815B
:10495000877F80830895DF92EF92FF920F931F93DA
:10496000CF93DF93D82EEB01282F332727FD3095E7
:104970008091740C90E028173907A1F00E944A1C1E
:10498000DD2049F01D1414F4419801C0419A809132
:104990000201886003C080910201877F8093020139
:1049A000D092740C8091800E813009F057C0E09055
:1049B000850EF090860E0091870E1091880EBE0134
:1049C00080E090E00E94DF2BA80197010E94422D19
:1049D00018162CF4C801B7010E94B32BEB01DD209F
:1049E00049F41092A9001092A8001092A000109211
:1049F000A10034C0209771F01092A0001092A10085
:104A00008BE88093A00082E08093A100BE0180E04B
:104A100090E012C01092A0001092A1008BE8809349
:104A2000A00082E08093A1006091810E7091820EBF
:104A30008091830E9091840E0E94DF2BA801970134
:104A40000E94462B20E030EC4FE754E40E94142EE5
:104A50000E94B32B7093A9006093A800DF91CF91BF
:104A60001F910F91FF90EF90DF9008954798089560
:104A7000479A08953F9903C021E030E00BC088B108
:104A8000282F332727FD3095209530952227330F87
:104A9000221F3327C901089580916F008D7F809375
:104AA0006F008AEF90E020E931E0F9013197F1F7EA
:104AB0000197D9F708951F920F920FB60F92112404
:104AC0008F939F9392B18091720E85759A7A892BFC
:104AD00082B91092B1009F918F910F900FBE0F90ED
:104AE0001F90189581B18FEF81B982B18091720EBC
:104AF00082B93F9A479AE1E8F0E080818F7E808317
:104B0000808188608083E0E8F0E080818D7F808311
:104B100080818E7F808380818F73808380818F7C72
:104B200080831092B0001092B100E0E7F0E0808145
:104B3000816080830E944C2508959B01AC01203246
:104B400083E0380780E0480780E0580720F420E23F
:104B500033E040E050E060E070E788E399E30E94D2
:104B6000242FC901DA01803020E0920721E0A2075A
:104B700020E0B20730F4BC019C0140E050E091E03D
:104B80002FC0803020E0920728E0A20720E0B20783
:104B9000A0F4F3E0B695A79597958795FA95D1F788
:104BA000BC019C0140E050E0E3E0220F331F441FB2
:104BB000551FEA95D1F792E013C026E0B695A79568
:104BC000979587952A95D1F7BC019C0140E050E06C
:104BD00096E0220F331F441F551F9A95D1F793E09B
:104BE00080918100887F982B909381007093890039
:104BF0006093880020938D0C30938E0C40938F0C23
:104C00005093900C08958091D60C8823C1F4809124
:104C1000A30C8823A1F481E08093D60C8091720EBE
:104C20008093A00C8091690E880F845081958093A9
:104C30009F0C479880916F00826080936F00089569
:104C40008091A30C882349F48091D60C882329F005
:104C50001092A40C81E08093A30C0895E0919D0C28
:104C6000F0919E0C3097A1F16189728983899489B2
:104C70002091890C30918A0C40918B0C50918C0CB6
:104C8000621B730B840B950B0E9499171092950C65
:104C90001092960C1092970C1092980C60E070E0B5
:104CA00080E090E00E949D2580E091E7A2E0B0E0E6
:104CB0008093910C9093920CA093930CB093940CCE
:104CC0001092890C10928A0C10928B0C10928C0C02
:104CD0001092A30C089588E2E5E7FCE0DF011D9245
:104CE0008A95E9F760E273E080E090E00E949D25FC
:104CF00010929E0C10929D0C1092A10C08951F9280
:104D00000F920FB60F920BB60F921124EF92FF92F3
:104D10000F931F932F933F934F935F936F937F93C3
:104D20008F939F93AF93BF93CF93DF93EF93FF93B3
:104D30008091A10C882309F0AFC392B12091A00CFF
:104D4000822F8A7A9575892B82B982B18A7A822BD1
:104D500082B980919F0C8093B20082E08093B10071
:104D600081E08093A10C789480919D0C90919E0C91
:104D7000892B09F089C00E943514EC0190939E0C98
:104D800080939D0C009709F476C08091A30C882332
:104D9000D1F46FA178A589A59AA56093950C70931D
:104DA000960C8093970C9093980C0E949D2580E020
:104DB00091E7A2E0B0E08093910C9093920CA093C5
:104DC000930CB093940C2FA538A949A95AA9DA01DC
:104DD000C901B595A79597958795820F931FA41F35
:104DE000B51F8093990C90939A0CA0939B0CB09351
:104DF0009C0C29893A894B895C89DA01C901B595EE
:104E0000A79597958795B095A095909581959F4F7B
:104E1000AF4FBF4F8093750C9093760CA093770C97
:104E2000B093780C8093790C90937A0CA0937B0CC0
:104E3000B0937C0C80937D0C90937E0CA0937F0CA0
:104E4000B093800C8093810C9093820CA093830C80
:104E5000B093840C2093850C3093860C4093870C80
:104E60005093880C1092890C10928A0C10928B0C23
:104E700010928C0C09C00E944C251092D60C809187
:104E8000D70C84608093D70CE0919D0CF0919E0C20
:104E9000309709F4F8C220812093A00C4091750C42
:104EA0005091760C6091770C7091780C8181928191
:104EB000A381B481480F591F6A1F7B1F4093750C53
:104EC0005093760C6093770C7093780C141615063B
:104ED00016061706C4F521602093A00C8091850C5E
:104EE0009091860CA091870CB091880C481B590BAF
:104EF0006A0B7B0B4093750C5093760C6093770C88
:104F00007093780C21FF0CC08091A50C9091A60C99
:104F1000A091A70CB091A80C0197A109B1090BC0F1
:104F20008091A50C9091A60CA091A70CB091A80C13
:104F30000196A11DB11D8093A50C9093A60CA09382
:104F4000A70CB093A80C4091790C50917A0C609109
:104F50007B0C70917C0C85819681A781B085480F70
:104F6000591F6A1F7B1F4093790C50937A0C6093F2
:104F70007B0C70937C0C1416150616061706D4F5D8
:104F80002091A00C24602093A00C8091850C90911E
:104F9000860CA091870CB091880C481B590B6A0BAA
:104FA0007B0B4093790C50937A0C60937B0C70933D
:104FB0007C0C23FF0CC08091A90C9091AA0CA091AD
:104FC000AB0CB091AC0C0197A109B1090BC0809159
:104FD000A90C9091AA0CA091AB0CB091AC0C0196CD
:104FE000A11DB11D8093A90C9093AA0CA093AB0CAA
:104FF000B093AC0C40917D0C50917E0C60917F0C75
:105000007091800C81859285A385B485480F591FC6
:105010006A1F7B1F40937D0C50937E0C60937F0C26
:105020007093800C1416150616061706D4F52091F9
:10503000A00C20612093A00C8091850C9091860C8F
:10504000A091870CB091880C481B590B6A0B7B0B05
:1050500040937D0C50937E0C60937F0C7093800C7A
:1050600025FF0CC08091AD0C9091AE0CA091AF0CBF
:10507000B091B00C0197A109B1090BC08091AD0CA2
:105080009091AE0CA091AF0CB091B00C0196A11D07
:10509000B11D8093AD0C9093AE0CA093AF0CB09368
:1050A000B00C4091810C5091820C6091830C7091F6
:1050B000840C85859685A785B089480F591F6A1F7E
:1050C0007B1F4093810C5093820C6093830C7093F0
:1050D000840C1416150616061706D4F52091A00C9C
:1050E00020642093A00C8091850C9091860CA09157
:1050F000870CB091880C481B590B6A0B7B0B4093B3
:10510000810C5093820C6093830C7093840C27FF66
:105110000CC08091B10C9091B20CA091B30CB091E5
:10512000B40C0197A109B1090BC08091B10C909109
:10513000B20CA091B30CB091B40C0196A11DB11D9D
:105140008093B10C9093B20CA093B30CB093B40CB9
:105150002091890C30918A0C40918B0C50918C0CD1
:105160002F5F3F4F4F4F5F4F2093890C30938A0C36
:1051700040938B0C50938C0C81899289A389B489BC
:10518000281739074A075B0708F077C18091A30CFD
:10519000882309F45DC020918D0C30918E0C4091D4
:1051A0008F0C5091900C8091910C9091920CA09149
:1051B000930CB091940C280F391F4A1F5B1F20934A
:1051C000910C3093920C4093930C5093940C21309B
:1051D00002EE300704E0400700E0500708F453C136
:1051E0002050324E444050402093910C3093920C0A
:1051F0004093930C5093940C2091950C3091960C05
:105200004091970C5091980C67A570A981A992A91B
:10521000621773078407950750F00E944C2510927F
:10522000D60C8091D70C84608093D70C2CC1790167
:105230008A01E61AF70A080B190BC801B701E092B8
:10524000950CF092960C0093970C1093980C6CC0F0
:1052500083A994A9A5A9B6A9281739074A075B0706
:1052600008F065C020918D0C30918E0C40918F0C10
:105270005091900C8091910C9091920CA091930C74
:10528000B091940C280F391F4A1F5B1F2093910C7B
:105290003093920C4093930C5093940C213002EE77
:1052A000300704E0400700E0500708F4ECC020504D
:1052B000324E444050402093910C3093920C4093D6
:1052C000930C5093940C87A590A9A1A9B2A9209101
:1052D000950C3091960C4091970C5091980C820F40
:1052E000931FA41FB51F8093950C9093960CA093C9
:1052F000970CB093980C23AD34AD45AD56AD8217E5
:105300009307A407B50740F02093950C3093960CB3
:105310004093970C5093980C6091950C7091960C5B
:105320008091970C9091980C0E949D25ACC087A904
:1053300090ADA1ADB2AD281739074A075B0708F455
:1053400080C0281739074A075B0769F480E091E7B6
:10535000A2E0B0E08093910C9093920CA093930CF8
:10536000B093940C90C020918D0C30918E0C409194
:105370008F0C5091900C8091910C9091920CA09177
:10538000930CB091940C280F391F4A1F5B1F209378
:10539000910C3093920C4093930C5093940C2130C9
:1053A00012EE310714E0410710E0510708F46BC01A
:1053B0002050324E444050402093910C3093920C38
:1053C0004093930C5093940C2091950C3091960C33
:1053D0004091970C5091980C8091990C90919A0C57
:1053E000A0919B0CB0919C0C82179307A407B50762
:1053F00048F487A590A9A1A9B2A9281B390B4A0B8B
:105400005B0B04C056954795379527952093950CCF
:105410003093960C4093970C5093980C23A534A589
:1054200045A556A58091950C9091960CA091970C4E
:10543000B091980C82179307A407B50708F06CCFBA
:1054400063CF23AD34AD45AD56AD8091950C9091B1
:10545000960CA091970CB091980C82179307A40713
:10546000B50789F02093950C3093960C4093970CD8
:105470005093980CCA01B90157CF10929E0C10920C
:105480009D0C0E9426148091A00C9091720E892789
:105490008093A00C1092A10CFF91EF91DF91CF911E
:1054A000BF91AF919F918F917F916F915F914F913C
:1054B0003F912F911F910F91FF90EF900F900BBE96
:1054C0000F900FBE0F901F9018955058BB27AA271A
:1054D0000ED076C23FD230F044D220F031F49F3F5C
:1054E00011F41EF40FC20EF4E095E7FBDCC1E92FC6
:1054F00089D280F3BA17620773078407950718F0FB
:1055000071F49EF5B8C20EF4E0950B2EBA2FA02DC3
:105510000B01B90190010C01CA01A0011124FF2760
:10552000591B99F0593F50F4503E68F11A16F0405B
:10553000A22F232F342F4427585FF3CF469537955A
:105540002795A795F0405395C9F77EF41F16BA0B1F
:10555000620B730B840BBAF09150A1F0FF0FBB1FCD
:10556000661F771F881FC2F70EC0BA0F621F731F16
:10557000841F48F4879577956795B795F7959E3F73
:1055800008F0B3CF9395880F08F09927EE0F979501
:1055900087950895DFD158F080E891E009F49EEFF7
:1055A000E0D128F040E851E059F45EEF09C0AAC10B
:1055B00062C2E92FE07826D268F3092E052AC1F3EA
:1055C000261737074807590738F00E2E07F8E02549
:1055D00069F0E025E0640AC0EF6307F8009407FA79
:1055E000DB01B9019D01DC01CA01AD01EF935DD082
:1055F000E7D10AD05F91552331F02BED3FE049E42C
:1056000050FD49EC63CF0895DF93DD27B92FBF77B5
:1056100040E85FE31616170648075B0710F4D92F1A
:1056200096D29F938F937F936F93C9D3E4EEF0E06C
:105630006CD1C6D12F913F914F915F9101D3DD2362
:1056400049F09058A2EA2AED3FE049EC5FE3D078B8
:105650005D274DDFDF91B4C1F7D180F09F3740F473
:1056600091110EF409C260E070E080E89FE30895B4
:1056700026F01B16611D711D811D1BC135C1EFD0A8
:1056800008F481E0089575D1E395ABC10CD098C1C1
:1056900068D140F05FD130F021F45F3F19F003C1D1
:1056A0005111EAC12FC1AED198F39923C9F3552303
:1056B000B1F3951B550BBB27AA2762177307840705
:1056C00038F09F5F5F4F220F331F441FAA1FA9F3BB
:1056D00033D00E2E3AF0E0E830D091505040E695AD
:1056E000001CCAF729D0FE2F27D0660F771F881F0E
:1056F000BB1F261737074807AB07B0E809F0BB0BFD
:10570000802DBF01FF2793585F4F2AF09E3F510520
:1057100068F0C9C0B1C15F3FECF3983EDCF38695F9
:1057200077956795B795F7959F5FC9F7880F911D96
:105730009695879597F90895E1E0660F771F881F82
:10574000BB1F621773078407BA0720F0621B730B35
:10575000840BBA0BEE1F88F7E095089504D0689487
:10576000B1118AC1089556D188F09F5790F0B92F92
:105770009927B751A0F0D1F0660F771F881F991FA6
:105780001AF0BA95C9F712C0B13081F074D1B1E006
:10579000089571C1672F782F8827B85F39F0B93F16
:1057A000CCF3869577956795B395D9F73EF49095A8
:1057B0008095709561957F4F8F4F9F4F0895E89426
:1057C00009C097FB3EF490958095709561957F4F49
:1057D0008F4F9F4F9923A9F0F92F96E9BB279395F7
:1057E000F695879577956795B795F111F8CFFAF407
:1057F000BB0F11F460FF1BC06F5F7F4F8F4F9F4F38
:1058000016C0882311F096E911C0772321F09EE895
:10581000872F762F05C0662371F096E8862F70E0FB
:1058200060E02AF09A95660F771F881FDAF7880FD5
:105830009695879597F9089507D180F09F3740F4A2
:1058400091110EF019C160E070E080E89FEB0895BF
:1058500026F41B16611D711D811D2BC045C0990FBB
:105860000008550FAA0BE0E8FEEF16161706E8072A
:10587000F907C0F012161306E407F50798F0621B4B
:10588000730B840B950B39F40A2661F0232B242B20
:10589000252B21F408950A2609F4A140A6958FEF3F
:1058A000811D811D089597F99F6780E870E060E091
:1058B0000895882371F4772321F09850872B762F51
:1058C00007C0662311F499270DC09051862B70E014
:1058D00060E02AF09A95660F771F881FDAF7880F25
:1058E0009695879597F908959F3F31F0915020F450
:1058F000879577956795B795880F911D96958795AC
:1059000097F908959FEF80EC0895DF93CF931F934D
:105910000F93FF92EF92DF927B018C01689405C098
:10592000DA2EEF018DD1FE01E894A59125913591F4
:1059300045915591AEF3EF01DADDFE019701A80123
:10594000DA9479F7DF90EF90FF900F911F91CF914C
:10595000DF91089500240A94161617061806090602
:10596000089500240A9412161306140605060895D5
:10597000C9CF50D0E8F3E894E0E0BB279F57F0F0A0
:105980002AED3FE049EC06C0EE0FBB0F661F771F04
:10599000881F28F0B23A62077307840728F0B25ACA
:1059A000620B730B840BE3959A9572F7803830F491
:1059B0009A95BB0F661F771F881FD2F7904896CF26
:1059C000092E0394000C11F4882352F0BB0F40F40D
:1059D000BF2B11F460FF04C06F5F7F4F8F4F9F4F4D
:1059E0000895EF93E0FF06C0A2EA2AED3FE049ECFC
:1059F0005FEB7DDDE5DF0F90039401FC9058E1E162
:105A0000F1E0F2C157FD9058440F551F59F05F3F28
:105A100071F04795880F97FB991F61F09F3F79F0D0
:105A200087950895121613061406551FF2CF469552
:105A3000F1DF08C0161617061806991FF1CF8695D4
:105A40007105610508940895E5DFA0F0BEE7B91778
:105A500088F4BB279F3860F41616B11D672F782F86
:105A60008827985FF7CF869577956795B11D9395B1
:105A70009639C8F30895E894BB2766277727CB01AA
:105A800097F90895ECDE08F48FEF089563DF19F0BD
:105A900068DF09F037CF07CFB901CA0125CF9F775B
:105AA0005F77B0DF98F39923B9F35523B9F3FF2754
:105AB000951758F4E52FE91BED3070F75E3B10F0B9
:105AC000F1E41CC09034E0F40AC0E92FE51BED308E
:105AD00028F79E3B10F0F1E411C0503488F4F9EA45
