:100000000C94F1030C9412040C9412040C9412043A
:100010000C9412040C9412040C9412040C94120408
:100020000C9412040C94DE110C9412040C9496227D
:100030000C9412040C9412040C9412040C94DA2DF7
:100040000C9412040C94052F0C9412040C941204BA
:100050000C9412040C9412040C9412040C941204C8
:100060000C9412040C94A42A0C945F2A0C9412048D
:100070000C9412040C9412040C9412040C941204A8
:100080000C9412040C9412040C9412040C94120498
:100090000C9412040C9412040C9412040C94120488
:1000A0000C9412040C9412040C9412040C94120478
:1000B0000C9412040C9412040C9412040C94120468
:1000C0000C9412040C9412040C9412040C94120458
:1000D0000C9412040C9412040C9412040C94120448
:1000E0000C9412041C2B1C2B1C2B332B552B6A2B12
:1000F000732B7C2B852B8E2BA52BB12BBA2BC32BD3
:10010000CC2BDE2BF22B042C1A2C2C2C352C3E2C39
:10011000472C522C084AD73B3BCE016E84BCBFFD16
:10012000C12F3D6C74319ABD56833DDA3D00C77FC7
:1001300011BED9E4BB4C3E916BAAAABE0000008060
:100140003F05A84CCDB2D44EB93836A9020C50B9EF
:10015000918688083CA6AAAA2ABE000000803F3EDD
:100160000D0A002C0057506F733A002C002C4D5094
:100170006F733A003C436865636B003C416C61728D
:100180006D003C486F6D65003C486F6C64003C52EC
:10019000756E003C5175657565003C49646C650081
:1001A0000D0A003D00244E005D0D0A00204600208F
:1001B0005400204D3800204D3900204D3500204D91
:1001C0003400204D3300204D3200204D3100204DB1
:1001D0003000204739340020473933002047393177
:1001E00000204739300020473231002047323000AC
:1001F000204731390020473138002047313700206F
:1002000047005B473830005B4733005B4732005B99
:100210004731005B4730005D0D0A002C005B473919
:10022000323A005D0D0A002C0033303A0032383A81
:100230000035393A0035383A0035373A0035363A24
:100240000035353A0035343A005B47002028686FA6
:100250006D696E672070756C6C2D6F66662C206DF5
:100260006D290D0A002028686F6D696E672064652E
:10027000626F756E63652C206D736563290D0A24AA
:1002800032333D002028686F6D696E6720736565A5
:100290006B2C206D6D2F6D696E290D0A2432323D55
:1002A000002028686F6D696E6720666565642C2084
:1002B0006D6D2F6D696E290D0A2432313D00290DB7
:1002C0000A2432303D002028686F6D696E67206413
:1002D000697220696E76657274206D61736B2C2073
:1002E000696E743A002028686F6D696E67206379C3
:1002F000636C652C20626F6F6C290D0A2431393DC7
:1003000000202868617264206C696D6974732C2008
:10031000626F6F6C290D0A2431383D002028696E08
:1003200076657274207374657020656E61626C65A9
:100330002C20626F6F6C290D0A2431373D00202874
:100340006175746F2073746172742C20626F6F6CAE
:10035000290D0A2431363D0020287265706F7274B1
:1003600020696E636865732C20626F6F6C290D0ABB
:100370002431353D0020286E2D646563696D616C04
:10038000732C20696E74290D0A2431343D00202815
:100390006E2D61726320636F7272656374696F6E34
:1003A0002C20696E74290D0A2431333D0020286108
:1003B00072632C206D6D2F7365676D656E74290DEA
:1003C0000A2431323D0020286A756E6374696F6EAD
:1003D00020646576696174696F6E2C206D6D290DDE
:1003E0000A2431313D002028616363656C657261C8
:1003F00074696F6E2C206D6D2F7365635E32290DED
:100400000A2431303D002028737465702069646CC3
:10041000652064656C61792C206D736563290D0A14
:1004200024393D00290D0A24383D002028737465C5
:100430007020706F727420696E76657274206D61C1
:10044000736B2C20696E743A0020286465666175B0
:100450006C74207365656B2C206D6D2F6D696E2932
:100460000D0A24373D00202864656661756C742090
:10047000666565642C206D6D2F6D696E290D0A24EB
:10048000363D002028737465702070756C73652C80
:100490002075736563290D0A24353D002028742CCE
:1004A00020737465702F6465672E290D0A24343D0E
:1004B0000020287A2C20737465702F6D6D290D0A29
:1004C00024333D002028792C20737465702F6D6DC6
:1004D000290D0A24323D002028782C207374657081
:1004E0002F6D6D290D0A24313D0024303D00242458
:1004F000202876696577204772626C207365747472
:10050000696E6773290D0A24232028766965772090
:100510002320706172616D6574657273290D0A2400
:100520004720287669657720706172736572207341
:1005300074617465290D0A244E2028766965772038
:100540007374617274757020626C6F636B73290DC4
:100550000A24783D76616C75652028736176652084
:100560004772626C2073657474696E67290D0A2482
:100570004E783D6C696E65202873617665207374D2
:10058000617274757020626C6F636B290D0A24436D
:100590002028636865636B2067636F6465206D6FF7
:1005A0006465290D0A245820286B696C6C20616CE5
:1005B00061726D206C6F636B290D0A2448202872CC
:1005C000756E20686F6D696E67206379636C65294D
:1005D0000D0A247E20286379636C65207374617230
:1005E00074290D0A242120286665656420686F6CD3
:1005F00064290D0A243F202863757272656E742089
:10060000737461747573290D0A6374726C2D78208C
:10061000287265736574204772626C290D0A000D9B
:100620000A4772626C20302E386331205B27242702
:1006300020666F722068656C705D0D0A000D0A4DB2
:1006400065676132353630207769746820342061FF
:100650007865732028582C20592C205A2C204129A9
:10066000005D0D0A0044697361626C656400456E4B
:1006700061626C65640043617574696F6E3A205500
:100680006E6C6F636B656400272448277C272458B1
:100690002720746F20756E6C6F636B0052657365F5
:1006A0007420746F20636F6E74696E7565005B00F3
:1006B0002E204D506F733F0D0A0041626F727420FF
:1006C000647572696E67206379636C650048617256
:1006D00064206C696D697400414C41524D3A2000B0
:1006E0000D0A004C696E65206F766572666C6F77D7
:1006F00000416C61726D206C6F636B0042757379A1
:10070000206F722071756575656400454550524FC4
:100710004D2072656164206661696C2E2055736995
:100720006E672064656661756C74730056616C75E4
:1007300065203C203320757365630056616C7565D8
:10074000203C20302E300053657474696E6720643D
:10075000697361626C656400496E76616C696420DE
:1007600073746174656D656E74004D6F64616C20A7
:1007700067726F75702076696F6C6174696F6E0057
:10078000496E76616C6964207261646975730055A5
:100790006E737570706F72746564207374617465C4
:1007A0006D656E7400457870656374656420636F71
:1007B0006D6D616E64206C65747465720042616475
:1007C000206E756D62657220666F726D6174006572
:1007D00072726F72206772626C3A20006F6B0D0A42
:1007E000000011241FBECFEFD1E2DEBFCDBF00E07D
:1007F0000CBF12E0A0E0B2E0EAE3F0E700E00BBFDC
:1008000002C007900D92A030B107D9F71DE0A0E01B
:10081000B2E001C01D92AB3AB107E1F70E9413129A
:100820000C941B380C94000010920002389A4098E7
:100830000895409808951F93182F8091000218176B
:1008400049F00E94F920113011F4409A01C04098FB
:10085000109300021F910895F894F999FECF92BD6C
:1008600081BD81E08FBB40B54627842F992787FD46
:100870009095262F30E082239323892B39F06F3F08
:1008800019F060BD84E006C084E104C0442321F077
:1008900060BD84E28FBBF99A789408958F929F92FD
:1008A000AF92BF92CF92DF92EF92FF920F93DF93BE
:1008B000CF930F920F92CDB7DEB75C016B017A0137
:1008C0004A0100E01EC0002319F021E030E008C01A
:1008D000202F332727FD30952227330F221F332760
:1008E000F60161916F01062F020F9C012F5F3F4FB0
:1008F0003A8329830E942C040894810891088981F5
:100900009A8181149104F9F6C7018A0D9B1D602F0D
:100910000E942C040F900F90CF91DF910F91FF90C8
:10092000EF90DF90CF90BF90AF909F908F90089501
:10093000CF93DF93EC01FB019A0190E0B1E019C085
:10094000F999FECFF2BDE1BDBFBBA0B5992319F067
:1009500081E090E008C0892F992787FD909588272E
:10096000990F881F992731969A2F980FA993215094
:1009700030402115310521F7460F571FF999FECF59
:1009800052BD41BD81E08FBB80B520E030E09817BB
:1009900011F421E030E0C901DF91CF9108956F9209
:1009A0007F928F929F92AF92BF92CF92DF92EF92FF
:1009B000FF920F931F9339014A010E9491342091B5
:1009C000710D3091720D4091730D5091740D0E9414
:1009D000F5336093A80B7093A90B8093AA0B9093A7
:1009E000AB0BC401B3010E9491342091750D30917D
:1009F000760D4091770D5091780D0E94F5336093FC
:100A0000AC0B7093AD0B8093AE0B9093AF0BC80102
:100A1000B7010E9491342091790D30917A0D409167
:100A20007B0D50917C0D0E94F5336093B00B709359
:100A3000B10B8093B20B9093B30BC601B5010E942A
:100A4000913420917D0D30917E0D40917F0D50911C
:100A5000800D0E94F5336093B40B7093B50B8093B7
:100A6000B60B9093B70B1F910F91FF90EF90DF9013
:100A7000CF90BF90AF909F908F907F906F90089590
:100A800008950F931F93CF93DF93EC018B01D9014E
:100A90008C91FA01E80FF11DE081EE23B1F0E883BB
:100AA000E154EA3110F082E00EC08C918F5F8C939C
:100AB000CA01B901A8010E948017892B19F021E011
:100AC00030E005C081E080939C0B20E030E0C9015C
:100AD000DF91CF911F910F9108952F923F924F92E6
:100AE0005F926F927F928F929F92AF92BF92CF92BE
:100AF000DF92EF92FF920F931F93DF93CF93CDB7C7
:100B0000DEB7C955D0400FB6F894DEBF0FBECDBFDB
:100B10004C018091DE0B863019F48CE00C94BF0EF2
:100B2000198280E1FE013796DF01482F1D924A9518
:100B3000E9F7FE017796DF011D928A95E9F7109299
:100B40009C0B64961FAE1EAE649762961FAE6297B2
:100B500061961FAE619712E0612E712C6C0E7D1EA6
:100B6000B3E04B2E512C4C0E5D1E1E010894211C2F
:100B7000311CA3E0AA2ECC24C394F2E0BF2ED6C130
:100B8000EB80FC800D811E81C801B7010E94B9373E
:100B90000E945E349B014A81473421F04D3409F0B4
:100BA000C5C153C16E317105C9F16F317105D4F4FE
:100BB0006431710584F461317105B4F564307105F7
:100BC00069F1653071051CF477235CF525C06A3046
:100BD000710511F523C0663171057CF16C31710529
:100BE000D9F41CC06C3571058CF46A357105FCF4C0
:100BF0006C3371053CF46633710514F5653371058A
:100C000059F40CC06035710539F40BC06C357105B1
:100C100029F06F35710574F0DD2414C0DD24D39400
:100C200011C0E2E0DE2E0EC073E0D72E0BC064E0F0
:100C3000D62E08C056E0D52E05C047E0D42E02C0FF
:100C400099E0D92E2531310509F494C026313105BA
:100C5000A4F52430310509F467C025303105A4F42A
:100C60002130310509F465C02230310524F4232BED
:100C700009F45CC03AC12230310509F45DC023306B
:100C8000310509F032C15BC02231310509F461C080
:100C9000233131054CF42A30310509F443C02131A8
:100CA000310509F022C14EC02331310509F458C085
:100CB0002431310509F019C15AC02035310509F434
:100CC00096C021353105ACF42533310509F485C0D2
:100CD000263331054CF42C31310509F44EC02E3148
:100CE000310509F002C149C02C3331050CF0FDC0BB
:100CF00079C02C35310509F484C02D3531054CF40B
:100D00002A35310509F477C02B35310509F0EDC0DE
:100D100075C02D35310509F492C02E35310509F025
:100D2000E4C090C0B2E087C0E1E04EC010929D0BDD
:100D3000DEC0C0929D0BDBC0B0929D0BD8C0A092CC
:100D40009D0BD5C01092B90BC092BA0BB092BB0BE1
:100D5000CEC0B092B90B1092BA0BC092BB0BC7C0F9
:100D6000C092B90BB092BA0B1092BB0BC0C0C0922C
:100D70009F0BBDC010929F0BBAC0C801B70120E005
:100D800030E040E251E40E94DF360E94B9370E9411
:100D90005E34F1E069317F0791F041E06A31740718
:100DA0002CF46851714009F0A0C00BC081E06C3296
:100DB000780749F06D52714009F097C009C0A4E06E
:100DC00035C0B3E038C0E5E06196EFAF61978FC002
:100DD000F6E06196FFAF61978AC041E062964FAF3F
:100DE000629785C0822F86538093BC0B80C054E0ED
:100DF00050939D0B7CC0C092A00B79C01092A00BA9
:100E000076C0C801B70120E030E040E251E40E9422
:100E1000DF360E94B9370E945E3483E06839780774
:100E200049F06959734009F060C0A8E06196AFAF1E
:100E300061975DC0B7E06196BFAF619758C0C0923F
:100E40009E0B55C010929E0B52C06630710534F453
:100E5000633071055CF4772334F403C06E3171059F
:100E600011F0DD2405C085E0D82E02C008E0D02EA8
:100E70002430310569F12530310584F42130310504
:100E8000B1F1223031051CF4232BC9F02EC02230E1
:100E90003105C1F02330310541F517C02830310547
:100EA000F1F02930310524F425303105F1F414C076
:100EB00029303105B9F02E313105B9F403C0C092A3
:100EC000A10B15C0B092A10B12C0C092A20B0FC013
:100ED000EFEFE093A20B0BC01092A20B08C0C092E0
:100EE000A30B05C01092A30B02C0A0929C0BDD20A7
:100EF000E9F021E030E002C0220F331FDA94E2F77C
:100F000064968EAD9FAD649782239323892B21F045
:100F1000F5E0F0939C0B0AC064964EAD5FAD64970C
:100F2000422B532B64965FAF4EAF6497C301B2015F
:100F3000A40191010E944105892B09F021CE8091E5
:100F40009C0B882309F01BC719820F2EF0E02F2E6F
:100F5000F0E03F2EF0E04F2EF0E05F2EF02D609697
:100F60002CAE3DAE4EAE5FAE60972C961FAE2C976A
:100F7000772465961FAE659766961FAE669750E814
:100F800067965FAF67976FEB68966FAF68975E0184
:100F90000894A11CB11C13E0C12EB6E0DB2E62C187
:100FA0001A811F34D4F41D340CF05CC1173409F4D9
:100FB00059C118343CF4113409F42BC1163409F02A
:100FC00033C124C019340CF42FC12B813C814D81D5
:100FD0005E811C340CF455C077C0143509F4B5C0DB
:100FE000153554F4123509F47EC013350CF09DC04C
:100FF000103509F019C172C0193509F4D8C01A3575
:1010000009F4EEC0183509F00FC1B8C0EB80FC80C0
:101010000D811E81C801B70120E030E040E050E0C2
:101020000E94EE33181614F0D0929C0B80919E0B08
:10103000882381F080919F0B882309F407C1C801A0
:10104000B70123E333E34BEC51E40E94DF367B012D
:101050008C01FCC080919F0B882351F0C801B7011F
:1010600023E333E34BEC51E40E94DF367B018C0138
:10107000E092A40BF092A50B0093A60B1093A70B84
:10108000D5C0C901DA019C01AD0180919F0B882375
:1010900051F0CA01B90123E333E34BEC51E40E9460
:1010A000DF369B01AC01E12FFF27E7FDF095E95406
:1010B000F040EE0FFF1FEE0FFF1FEA0DFB1D268B0A
:1010C000378B408F518FB2C0B901CA010E94B93726
:1010D0000E9463342C966FAF2C97A8C02B803C8065
:1010E0004D805E80A3C08B819C81AD81BE81609666
:1010F0008CAF9DAFAEAFBFAF609780919F0B882341
:1011000009F494C060966CAD7DAD8EAD9FAD6097D7
:1011100023E333E34BEC51E40E94DF3660966CAF7F
:101120007DAF8EAF9FAF609781C06B817C818D81D9
:101130009E8120E030E040E050E00E94EE338823C2
:101140000CF074C0D0929C0B71C0EB80FC800D81C0
:101150001E81C801B70120E030E040E050E00E946D
:10116000EE33882314F4D0929C0BC801B7010E947F
:10117000B9370E9463346093B80B58C02B813C810F
:101180004D815E8180919F0B882351F0CA01B90186
:1011900023E333E34BEC51E40E94DF369B01AC01C7
:1011A0002F83388749875A8791E0792A3FC02B815E
:1011B0003C814D815E8180919F0B882351F0CA0153
:1011C000B90123E333E34BEC51E40E94DF369B018A
:1011D000AC012B873C874D875E87A2E07A2A26C028
:1011E0002B813C814D815E8180919F0B882351F042
:1011F000CA01B90123E333E34BEC51E40E94DF362B
:101200009B01AC012F87388B498B5A8BB4E07B2A2A
:101210000DC08B819C81AD81BE818B8B9C8BAD8BF6
:10122000BE8BE8E07E2A02C0C0929C0B65962FAD73
:10123000659766963FAD669767964FAD67976896D8
:101240005FAD6897C901DA017C018D016596EFAE4B
:1012500065976696FFAE669767960FAF6797689635
:101260001FAF6897CE010296BE016D5F7F4FA4014C
:1012700095010E944105892B09F092CEB72C659605
:101280002FAD659766963FAD669767964FAD6797AA
:1012900068965FAD6897C901DA012B968CAF9DAF58
:1012A000AEAFBFAF2B9780919C0B882309F067C529
:1012B0008091DE0B873041F08091A20B0E94A22D1D
:1012C0008091A30B0E941B0464964EAD5FAD6497A2
:1012D00051FF13C08E01095D1F4F8091BC0BB801F7
:1012E0000E94142D882309F449C5ADEBBBE0F80139
:1012F00080E101900D928150E1F761965FAD6197B9
:10130000543009F4ABC1553048F4523079F15330C0
:1013100008F0BCC0513009F0F9C110C061966FAD42
:101320006197663009F49AC1663008F4AFC067303F
:1013300009F4A1C1683009F0E9C1E1C1C201B101FC
:1013400020E030E040E050E00E94EE33882324F4B7
:1013500086E080939C0BDAC18091DE0B873009F424
:10136000D5C1C201B1010E947E12D0C12C967FADC1
:101370002C97723011F0743149F4C201B1010E940E
:10138000B9370E945E346730710520F083E08093A6
:101390009C0BBEC1772031F42C968FAD2C978230F8
:1013A00009F46BC1161617062CF44B01089481083A
:1013B000910804C08091BC0B882E9924582C8E0172
:1013C000095D1F4F882DB8010E94142D882309F450
:1013D000D5C4E8EAAE2EEBE0BE2E77E0C72ED12CC6
:1013E000CC0EDD1E780100E010E0672C7724C301ED
:1013F000002E02C0959587950A94E2F780FF22C0DF
:101400002C969FAD2C97943199F4D5016D917D91D7
:101410008D919C91F60120813181428153810E94FE
:101420000933D7016D937D938D939C9313970AC0D5
:10143000F60180819181A281B381F701808391833C
:10144000A283B3830F5F1F4F44E050E0A40EB51E8C
:10145000C40ED51EE40EF51E0430110541F68E01B2
:10146000095D1F4F852DB8010E94092D8091BC0B8D
:1014700090E08815990509F04BC1ADEBBBE0F80190
:1014800080E101900D928150E1F742C1772009F48B
:1014900092C08E01095F1F4F68EAE62E6BE0F62EC0
:1014A000CC24DD24A72CBB24C5010C2C02C09595AF
:1014B00087950A94E2F780FF35C08091A00B8823BE
:1014C000F9F0D70155966D917D918D919C9158972A
:1014D00095962D913D914D915C9198970E940A337C
:1014E0009B01AC01F80160817181828193810E942E
:1014F0000A33D8016D937D938D939C9313971CC0F1
:10150000F8016081718182819381D7012D913D9194
:101510004D915C910E940A33F8016083718382834C
:1015200093830AC0F70180819181A281B381F80180
:1015300080839183A283B3830894C11CD11C0C5F68
:101540001F4F44E050E0E40EF51E54E0C516D104F0
:1015500009F0AACF00D000D0EDB7FEB731966F8169
:10156000788589859A852B853C854D855E85EF84B8
:10157000F88809891A89AB88BC88CD88DE88609094
:10158000870D7090880D8090890D90908A0DADB771
:10159000BEB711966D927D928D929C921497148293
:1015A00015820E94D212EDB7FEB736960FB6F894A8
:1015B000FEBF0FBEEDBFBE01695C7F4F6196FFAD00
:1015C0006197F53011F487E001C086E00E94142D88
:1015D000882309F4D3C300D000D0ADB7BEB71196AD
:1015E0006FA978AD89AD9AAD2BAD3CAD4DAD5EAD7B
:1015F000FE01FF96E080F18002811381FE01ED5B28
:10160000FF4FA080B180C280D3806090870D709022
:10161000880D8090890D90908A0DEDB7FEB761829C
:1016200072828382948214961C92149715961C924F
:101630000E94D212A8EABBE0FE01F79680E1019079
:101640000D928150E1F7BB244DB75EB74A5F5F4F03
:101650000FB6F8945EBF0FBE4DBF5BC061965FAD25
:101660006197563011F487E001C086E068EA7BE0BC
:101670000E94092D4BC0772021F486E080939C0BBB
:1016800048C008EA1BE057E0C52ED12CCC0EDD1E69
:10169000EE24FF24A72CBB24C5010E2C02C0959577
:1016A00087950A94E2F780FF1CC0D8016D917D9167
:1016B0008D919C91139755962D913D914D915C91F3
:1016C00058970E940933F60120813181428153816C
:1016D0000E940933D80195966D937D938D939C93C9
:1016E00098970894E11CF11C0C5F1F4FE4E0F0E0B8
:1016F000CE0EDF1EF4E0EF16F10471F609C080E1B2
:10170000EDECFBE0DF011D928A95E9F7B72C01C0F3
:10171000BB246396BFAD6397B2FD03C0BB2009F441
:1017200019C380919E0B8823A9F02B966CAD7DADDB
:101730008EAD9FAD2B9720E030E040E050E00E945E
:10174000EE3388233CF480919D0B843019F086E0C1
:1017500080939C0B6296EFAD6297EE2339F08091F7
:101760009D0B823018F086E080939C0B80919C0B3F
:10177000882309F004C38E01095F1F4F48EAE42E55
:101780004BE0F42ECC24DD248B2C9924C4010C2CAA
:1017900002C0959587950A94E2F780FF3BC0629658
:1017A000FFAD6297FF2309F03FC08091A00B882313
:1017B000F9F0D70155966D917D918D919C91589737
:1017C00095962D913D914D915C9198970E940A3389
:1017D0009B01AC01F80160817181828193810E943B
:1017E0000A33D8016D937D938D939C9313971CC0FE
:1017F000F8016081718182819381D7012D913D91A2
:101800004D915C910E940A33F80160837183828359
:1018100093830AC0F70180819181A281B381F8018D
:1018200080839183A283B3830894C11CD11C0C5F75
:101830001F4F44E050E0E40EF51E54E0C516D104FD
:1018400009F0A4CF80919D0B843048F4823008F0D9
:1018500098C0882359F0813009F06FC232C08430BB
:1018600009F06BC2BB2009F468C2D5C0BB2009F4E3
:10187000D2C000D000D0EDB7FEB731966F81788529
:1018800089859A852B853C854D855E85EF84F88812
:1018900009891A89AB88BC88CD88DE886090870D5D
:1018A0007090880D8090890D90908A0DADB7BEB76D
:1018B00011966D927D928D929C921497148215824E
:1018C00055C0BB2009F4A7C02F80388449845A84AE
:1018D0006B847C848D849E84EF84F88809891A89BE
:1018E000AB88BC88CD88DE8860919E0B6623A1F40E
:1018F000F091A40B6596FFAF65974091A50B669696
:101900004FAF66975091A60B67965FAF6797709140
:10191000A70B68967FAF689700D000D08DB79EB7B1
:1019200001966A969FAF8EAF6A9765962FAD6597C1
:1019300066963FAD669767964FAD679768965FADC1
:101940006897C901DA01EDB7FEB781839283A3835B
:10195000B4836A96AEADBFAD6A9714966C93149734
:1019600015961C92C201B101A40193010E94D212EA
:10197000EDB7FEB736960FB6F894FEBF0FBEEDBFBB
:10198000DCC181E090E00090BB0B02C0880F991F82
:101990000A94E2F780958B21F1F160966CAD7DADF4
:1019A0008EAD9FAD609720E030E040E050E00E94B7
:1019B000EE338823A1F5E091B90BF0E0EE0FFF1FA5
:1019C000EE0FFF1F8E010F5F1F4FE00FF11F6689A3
:1019D0007789808D918D20E030E040E050E00E94DA
:1019E000EE338823E1F48091BA0B90E0880F991FC1
:1019F000880F991F080F191FD80156966D917D9178
:101A00008D919C91599720E030E040E050E00E9499
:101A1000EE33882321F486E080939C0B8EC1609680
:101A20006CAD7DAD8EAD9FAD609720E030E040E0C5
:101A300050E00E94EE338E010F5F1F4F882309F4A0
:101A4000FFC0E091B90BF0E0EE0FFF1FEE0FFF1F9C
:101A5000D801AE0FBF1FE855F44F16966D917D91DA
:101A60008D919C91199720813181428153810E94EF
:101A700009331B012C01E091BA0BF0E0EE0FFF1FC0
:101A8000EE0FFF1F0E0F1F1FE855F44FD8011696DB
:101A90006D917D918D919C91199720813181428129
:101AA00053810E9409333B014C0180E1FE0177968E
:101AB000DF011D928A95E9F760966CAD7DAD8EAD24
:101AC0009FAD609720E030E040E850E40E94DF36B0
:101AD00060962CAD3DAD4EAD5FAD60970E94DF3698
:101AE0007B018C01C201B101A20191010E94DF368C
:101AF0009B01AC01C801B7010E9409337B018C0135
:101B0000C401B301A40193010E94DF369B01AC0123
:101B1000C801B7010E9409337B018C0120E030E04D
:101B200040E050E00E94EE33882324F484E0809368
:101B30009C0B25C1C801B7010E9474377B018C0141
:101B4000C201B101A40193010E9414369B01AC01B2
:101B500017FB109517F91095C801B7010E94F533CE
:101B60006B017C0180919D0B833021F4F7FAF09496
:101B7000F7F8F09460966CAD7DAD8EAD9FAD60973B
:101B800020E030E040E050E00E94EE3388238CF407
:101B9000F7FAF094F7F8F09460964CAD5DAD6EAD49
:101BA0007FAD6097705860964CAF5DAF6EAF7FAF02
:101BB00060970091B90BA02EBB24AA0CBB1CAA0CE9
:101BC000BB1C8E010F5F1F4FA00EB11EC401B301DD
:101BD000A70196010E94DF369B01AC01C201B10151
:101BE0000E94093320E030E040E05FE30E94DF36EE
:101BF000D50156966D937D938D939C9359978091C3
:101C0000BA0B90E0880F991F880F991F080F191FB2
:101C1000C201B101A70196010E94DF369B01AC0110
:101C2000C401B3010E940A3320E030E040E05FE3EA
:101C30000E94DF36F801668B778B808F918F25C0ED
:101C4000E091B90BF0E0EE0FFF1FEE0FFF1FE00F6A
:101C5000F11F66897789808D918D2091BA0B30E0D4
:101C6000220F331F220F331F020F131FD801569666
:101C70002D913D914D915C9159970E94143660963B
:101C80006CAF7DAF8EAF9FAF609790919D0B209111
:101C9000B90B0091BA0BE090BB0B80909E0B882093
:101CA000A1F4B091A40B6596BFAF6597E091A50B29
:101CB0006696EFAF6697F091A60B6796FFAF6797B2
:101CC0004091A70B68964FAF689700D00F920F9284
:101CD000EDB7FEB7319660964CAD5DAD6EAD7FADA4
:101CE0006097ADB7BEB711964D935D936D937C939E
:101CF000149780E0923009F481E0848388EA9BE0C5
:101D0000BE01695F7F4FAE01495E5F4F65963FAD93
:101D100065976696EFAD66976796FFAD679768968D
:101D2000AFAD6897A32EBE2ECF2EDA2E0E940314DD
:101D30000F900F900F900F900F9080919C0B882325
:101D4000F1F4A8EABBE0FE01379680E101900D9224
:101D50008150E1F78091A10B882369F00E94F9205E
:101D60001092F00B8091A10B823019F40E94641242
:101D700002C01092A10B80919C0B01C08AE0C75A4F
:101D8000DF4F0FB6F894DEBF0FBECDBFCF91DF910E
:101D90001F910F91FF90EF90DF90CF90BF90AF9089
:101DA0009F908F907F906F905F904F903F902F907B
:101DB0000895ECE9FBE081E4DF011D928A95E9F7E3
:101DC0008091830D9091840DA091850DB091860D29
:101DD0008093A40B9093A50BA093A60BB093A70B95
:101DE0001092B90B91E09093BA0B82E08093BB0BF9
:101DF0009093A00B8091BC0BBF016F5D7F4F0E9441
:101E0000142D882319F48AE00E944C25089584B18A
:101E1000877884B985B1886785B98091980D83FFEB
:101E200009C080916B00886780936B008091680087
:101E3000816008C080916B00877880936B008091EF
:101E400068008E7F8093680008952F923F924F9292
:101E50005F926F927F928F929F92AF92BF92CF923A
:101E6000DF92EF92FF920F931F93DF93CF93CDB743
:101E7000DEB7E1970FB6F894DEBF0FBECDBF8EA7D9
:101E80006FA748AB38014901FE01319680E1DF01BF
:101E90001D928A95E9F70EA500FD02C010E00FC063
:101EA0006091710D7091720D8091730D9091740D10
:101EB0000E94AF3669837A838B839C8311E001FF94
:101EC0000FC01F5F6091750D7091760D8091770D39
:101ED0009091780D0E94AF366D837E838F839887B3
:101EE00002FF0FC01F5F6091790D70917A0D809194
:101EF0007B0D90917C0D0E94AF3669877A878B8726
:101F00009C8703FF11C01F5F60917D0D70917E0D56
:101F100080917F0D9091800D0E9440050E94AF3608
:101F20006D877E878F87988B8D859E85AF85B889D5
:101F300029843A844B845C84281639064A065B0659
:101F400010F41C012D018D819E81AF81B88528166A
:101F500039064A065B0610F41C012D0189819A811D
:101F6000AB81BC81281639064A065B0610F41C01B9
:101F70002D01612F70E080E090E00E948F340E947C
:101F800074375B016C01C201B1010E948F34A6015C
:101F900095010E94F5337B018C012091900D3091C9
:101FA000910D4091920D5091930D0E94DF3620E0EB
:101FB00030E84BE355E40E94F5330E94DB330E9486
:101FC00063346AA77BA78CA79DA7C401B301A601B0
:101FD00095010E94DF369B01AC01C801B7010E9448
:101FE000DF369B01AC0160EC71EE84E69CE40E945C
:101FF000F5330E94AF367B018C01B8EFEB16B4E2EB
:10200000FB06B1E00B07B0E01B0718F457016801AD
:1020100007C038EFA32E34E2B32E31E0C32ED12C0B
:102020002091990D2A7A80918B0D282729A73FA509
:10203000332319F48AEA282729A7D201C101B695CA
:10204000A79597958795662477244301681A790A9E
:102050008A0A9B0A8091820DB601A501481B51098D
:1020600061097109498F5A8F6B8F7C8F6DA27EA297
:102070008FA298A669A27AA28BA29CA26D8E7E8E58
:102080008F8E98A21D8A1E8A1F8A188E60E177E2C1
:1020900080E090E0698B7A8B8B8B9C8B71E089A5BB
:1020A000872789AB33B198A9992311F0A8E73A277C
:1020B000BEA5B0FF1AC089819A81AB81BC81680E30
:1020C000791E8A1E9B1E16141704180419046CF43A
:1020D00034FF02C029A904C02EA52E7F2EA729A552
:1020E000621873088408950801C029A54EA541FF10
:1020F00029C08D819E81AF81B8854DA15EA16FA160
:1021000078A5480F591F6A1F7B1F4DA35EA36FA3BD
:1021100078A71416150616061706A4F435FF03C093
:1021200054E0252703C06EA56D7F6EA78DA19EA1EB
:10213000AFA1B8A582199309A409B5098DA39EA3DF
:10214000AFA3B8A79EA592FF29C089859A85AB85C4
:10215000BC8549A15AA16BA17CA1480F591F6A1FD8
:102160007B1F49A35AA36BA37CA31416150616065E
:102170001706A4F436FF03C050E1252703C06EA55F
:102180006B7F6EA789A19AA1ABA1BCA1821993090B
:10219000A409B50989A39AA3ABA3BCA39EA593FFE9
:1021A00029C08D859E85AF85B8894D8D5E8D6F8DDB
:1021B00078A1480F591F6A1F7B1F4D8F5E8F6F8F4D
:1021C00078A31416150616061706C4F433FF03C0C9
:1021D00050E4252703C06EA5677F6EA78D8D9E8D69
:1021E000AF8DB8A182199309A409B5098D8F9E8F6F
:1021F000AF8FB8A39EA5992309F46DC08091DF0B22
:1022000084FD69C082B125758A7A282B22B9609134
:10221000820D70E080E090E00E944518A9A5A2B967
:10222000698D7A8D8B8D9C8D0E944518EA14FB0474
:102230000C051D0508F036CF29893A894B895C8940
:102240002A0D3B1D4C1D5D1D298B3A8B4B8B5C8BE6
:1022500021326EE4360760E0460760E0560708F476
:1022600021CF20523E4440405040298B3A8B4B8B2B
:102270005C8B8D899E89AF89B88D2AA53BA54CA51D
:102280005DA5820F931FA41FB51F8D8B9E8BAF8BF7
:10229000B88F60E077E883E993E02D893E894F8924
:1022A000588D0E94F937C901DA015C016D01AE1445
:1022B000BF04C006D10610F4570168018091820D59
:1022C000B601A501481B510961097109498F5A8F4F
:1022D0006B8F7C8FE7CEE1960FB6F894DEBF0FBE12
:1022E000CDBFCF91DF911F910F91FF90EF90DF90C5
:1022F000CF90BF90AF909F908F907F906F905F90A6
:102300004F903F902F900895FF920F931F930E943C
:10231000BE2D00919E0D10919F0D2091A00D30912A
:10232000A10D84E061E040E00E94250F00919E0D28
:1023300010919F0D2091A00D3091A10D83E061E0DF
:1023400040E00E94250F8091A20D9091A30D0E9464
:102350003B1842E0F42EFA9400919A0D10919B0DD7
:1023600020919C0D30919D0D87E060E041E00E943E
:10237000250F8091A20D9091A30D0E943B1881E042
:10238000F816A1F400919A0D10919B0D20919C0DCF
:1023900030919D0D87E061E040E00E94250F809123
:1023A000A20D9091A30D0E943B18D5CFFF2099F666
:1023B0000E94C02E1F910F91FF9008951F920F92BF
:1023C0000FB60F920BB60F9211242F933F934F939A
:1023D0005F936F937F938F939F93AF93BF93EF938D
:1023E000FF938091DE0B863059F08091DF0B85FDE5
:1023F00007C00E9464128091DF0B80648093DF0B22
:10240000FF91EF91BF91AF919F918F917F916F91CC
:102410005F914F913F912F910F900BBE0F900FBE88
:102420000F901F9018950F931F930E942C2A0E94C3
:102430003F2D0E94D92E789484E1EDEDFBE0DF0181
:102440001D928A95E9F781E08093DD0B8093DE0B86
:1024500006E011E08091DD0B882389F10E949F2A1C
:102460000E9416210E94D90E0E94F9240E949A2DE2
:102470000E9414040E94070F0E94AC2E0E9485182F
:102480001092DD0B1092DF0B8091980D982F81FF39
:1024900002C01093F00B8091DE0B813021F494FF89
:1024A00002C00093DE0B8091DE0B863021F482E0C7
:1024B0000E94222504C01092DE0B0E943E230E943F
:1024C000DD220E94A824C6CF8091DF0B84FD15C0B9
:1024D0008091DF0B80618093DF0B0E94A02D0E9412
:1024E00019048091DE0B8350833038F48091DF0B28
:1024F00080628093DF0B0E94C02E0895EF92FF92BE
:102500000F931F93CF93DF937B018C0120E030E08A
:1025100040EA51E40E94DF360E94CC340E946334CA
:10252000EB010E94F920C801B70120E030E04AE742
:1025300054E40E94DF367B018C0182E390E0C89F67
:10254000B001C99F700DD89F700D112480E090E0FC
:102550000E948F349B01AC01C801B7010E9409336E
:102560000E94CC340E946334DC01CB010E943B18F2
:1025700000E911E00EC00E94DD228091DD0B88236E
:1025800051F484EF91E0F8013197F1F70197D9F711
:102590002197209781F7DF91CF911F910F91FF90A5
:1025A000EF9008952F923F924F925F926F927F9299
:1025B0008F929F92AF92BF92CF92DF92EF92FF9253
:1025C0000F931F93DF93CF93CDB7DEB73B014C0141
:1025D00019012A018091DE0B8730D1F10E94DD22A2
:1025E0008091DD0B8823A1F50E94FC188823B1F7A8
:1025F00000D000D0EDB7FEB731962E893F89488DC7
:10260000598DADB7BEB711962D933D934D935C9305
:1026100014978A8D84838B8D8583C401B301A201B5
:1026200091010E949B1C8DB79EB706960FB6F89439
:102630009EBF0FBE8DBF8091DE0B882319F482E010
:102640008093DE0B8091F00B882311F00E94572EAF
:10265000CF91DF911F910F91FF90EF90DF90CF907E
:10266000BF90AF909F908F907F906F905F904F90B2
:102670003F902F9008954F925F926F927F928F922A
:102680009F92AF92BF92CF92DF92EF92FF920F9301
:102690001F93DF93CF9300D00F92CDB7DEB785E0C5
:1026A0008093DE0B80916B00877880936B000E9493
:1026B00084110E94DD228091DD0B882309F08EC0F9
:1026C00080E1E0EEFBE0DF011D928A95E9F70E94D0
:1026D00085181092DE0B8091990D81FD02C06FEF7D
:1026E00001C061E083FD02C01FEF01C011E085FD64
:1026F00002C00FEF01C001E0A090A40DB090A50DA5
:10270000C090A60DD090A70D00D000D08DB69EB67B
:102710000894811C911C772767FD7095872F972F50
:102720000E949134A60195010E94DF3669837A8365
:102730008B839C83612F772767FD7095872F972F59
:102740000E949134A60195010E94DF362B013C01C5
:10275000602F772767FD7095872F972F0E94913400
:10276000A60195010E94DF367B018C01C601B501EF
:1027700020E030E040E050E00E94DF365B016C0179
:1027800080919E0D90919F0DA091A00DB091A10DF3
:10279000F40180839183A283B383148215826981BB
:1027A0007A818B819C81A30192010E94D2128DB704
:1027B0009EB706960FB6F8949EBF0FBE8DBF0E94BF
:1027C000572E0E94F9200E9485188091980D83FF52
:1027D00005C080916B00886780936B000F900F900D
:1027E0000F900F90CF91DF911F910F91FF90EF907D
:1027F000DF90CF90BF90AF909F908F907F906F9021
:102800005F904F9008952F923F924F925F926F92F8
:102810007F928F929F92AF92BF92CF92DF92EF9270
:10282000FF920F931F93DF93CF93CDB7DEB7CE54B4
:10283000D0400FB6F894DEBF0FBECDBF3C017EAFD7
:102840006DAF21965FAF4EAF219722962FAF2297A3
:1028500023960FAF23972496EFAE24972896ACAE1D
:10286000BDAECEAEDFAE289729968FAE2997E22E69
:10287000FF24EE0CFF1CEE0CFF1C4E0D5F1D5CAF29
:102880004BAFDA012D903D904D905C90FC01EE0D28
:10289000FF1DC201B10120813181428153810E941B
:1028A0000A3369AB7AAB8BAB9CAB10E0000F111F06
:1028B000000F111F2196EEADFFAD2197E00FF11F24
:1028C000FAAFE9AFA080B180C280D380F301E00FFE
:1028D000F11FC601B50120813181428153810E94DF
:1028E0000A336DA77EA78FA798AB24962FAD2497A8
:1028F000E22FF0E0EE0FFF1FEE0FFF1F6E0E7F1EA8
:10290000D3018D919D910D90BC91A02D8DAB9EAB6F
:10291000AFABB8AF2DAD3EADE20FF31F608171815B
:10292000828193812DA93EA94FA958AD0E940933F8
:1029300069A77AA78BA79CA7D201C101B0588DA324
:102940009EA3AFA3B8A7A6019501505829A33AA307
:102950004BA35CA34DAD5EADE40EF51ED7016D91AA
:102960007D918D919C9129A93AA94BA95CA90E94BE
:1029700009333B014C01EDADFEAD0E0F1F1FD80119
:102980006D917D918D919C912DA53EA54FA558A946
:102990000E9409335B016C016DA17EA18FA198A5F6
:1029A000A60195010E94DF367B018C0169A17AA105
:1029B0008BA19CA1A40193010E94DF369B01AC0175
:1029C000C801B7010E9409331B012C016DA17EA132
:1029D0008FA198A5A40193010E94DF367B018C0191
:1029E00069A17AA18BA19CA1A60195010E94DF3665
:1029F0009B01AC01C801B7010E940A339B01AC01E5
:102A0000C201B1010E9482335B016C01A9968FADB6
:102A1000A997882399F0C601B50120E030E040E095
:102A200050E00E9405368823ECF0C601B5012BED7D
:102A30003FE049EC50E40E94093312C0C601B501E1
:102A400020E030E040E050E00E94EE33181654F0F1
:102A5000C601B5012BED3FE049EC50E40E940A337A
:102A60005B016C01C601B501A8962CAD3DAD4EAD24
:102A70005FADA8970E94DF3629A53AA54BA55CA5B6
:102A80000E9414367B018C0120E030E040E050E0F1
:102A90000E94EE33882309F419C2C801B7012091BE
:102AA0008C0D30918D0D40918E0D50918F0D0E94A7
:102AB000F5330E94CC340E94633478A36F8F29963B
:102AC000BFAD2997BB23A1F080E090E00E948F3436
:102AD0009B01AC0128966CAD7DAD8EAD9FAD289766
:102AE0000E94DF3628966CAF7DAF8EAF9FAF2897E0
:102AF0002F8D38A1B90180E090E00E948F347B01D6
:102B00008C01C601B501A80197010E94F5336B8FB6
:102B10007C8F8D8F9E8F69A57AA58BA59CA5A8011A
:102B200097010E94F5336F8B788F898F9A8F6B8D09
:102B30007C8D8D8D9E8D20E030E040E05FEB0E942B
:102B4000DF362B8D3C8D4D8D5E8D0E94DF3620E073
:102B500030E040E85FE30E940A336B8B7C8B8D8B07
:102B60009E8B24963FAD2497E32FF0E0EE0FFF1FDE
:102B7000EE0FFF1FCE010196E80FF91FADA8BEA80A
:102B8000CFA8D8ACA082B182C282D38221E030E04B
:102B90003E872D87882422965FAD2297452F50E0EF
:102BA000440F551F440F551F480F591F2B965FAFF9
:102BB0004EAF2B972396BFAD2397AB2FB0E0AA0F54
:102BC000BB1FAA0FBB1FA80FB91F2D96BFAFAEAF7B
:102BD0002D972F96FFAFEEAF2F9733C1282D3327B8
:102BE00027FD30958091AA0D90E0281739070CF049
:102BF00046C06DA17EA18FA198A52B8D3C8D4D8DDA
:102C00005E8D0E94DF367B018C0169A17AA18BA1C8
:102C10009CA12B893C894D895E890E94DF369B01EE
:102C2000AC01C801B7010E940A337B018C016DA180
:102C30007EA18FA198A52B893C894D895E890E9430
:102C4000DF365B016C0169A17AA18BA19CA12B8D60
:102C50003C8D4D8D5E8D0E94DF369B01AC01C6011F
:102C6000B5010E9409336DA37EA38FA398A7839417
:102C7000C701D80189A39AA3ABA3BCA361C0ED850A
:102C8000FE85BF0180E090E00E948F342B8D3C8D4B
:102C90004D8D5E8D0E94DF367B018C01C8010E9444
:102CA000F2336F87788B898B9A8BB701C8010E94AA
:102CB0006A373B014C01ABADBCADED90FD900D9181
:102CC0001C9117FB109517F91095E9ADFAAD20800E
:102CD000318042805380C801B7012F8538894989E6
:102CE0005A890E94DF365B016C01C201B101A40167
:102CF00093010E94DF369B01AC01C601B5010E9421
:102D00000A336DA37EA38FA398A7C801B701A401BE
:102D100093010E94DF367B018C01C201B1012F8536
:102D2000388949895A890E94DF369B01AC01C80164
:102D3000B7010E94093369A37AA38BA39CA38824BB
:102D400069A97AA98BA99CA92DA13EA14FA158A53B
:102D50000E940A332B96AEADBFAD2B976D937D933A
:102D60008D939C9313976DA57EA58FA598A929A1F6
:102D70003AA14BA15CA10E940A332D96EEADFFADA6
:102D80002D9760837183828393832F96AEADBFAD01
:102D90002F976D917D918D919C912F89388D498DC3
:102DA0005A8D0E940A332F96EEADFFAD2F976083A8
:102DB00071838283938300D000D0EDB7FEB7319644
:102DC00069817A818B819C812D813E814F815885DB
:102DD000E984FA840B851C852896ACACBDACCEACDE
:102DE000DFAC2897ADB7BEB71196AD92BD92CD922C
:102DF000DC9214972996BFAD2997B483AA24A39493
:102E0000A5820F2EF0E0AF2EF0E0BF2EF0E0CF2E27
:102E1000F0E0DF2EF02D0E94D2122DB73EB72A5FD0
:102E20003F4F0FB6F8943EBF0FBE2DBF8091DD0B14
:102E3000882309F04BC04D855E854F5F5F4F5E87ED
:102E40004D878D859E85AF8DB8A18A179B0708F4A5
:102E5000C5CE00D000D0ADB7BEB71196EDADFEAD7A
:102E6000608171818281938124813581468157817E
:102E7000E084F184028513852896ACACBDACCEAC61
:102E8000DFAC2897EDB7FEB7A182B282C382D482AD
:102E90002996FFAD29971496FC931497E1E01596B7
:102EA000EC930F2EF0E0AF2EF0E0BF2EF0E0CF2E2F
:102EB000F0E0DF2EF02D0E94D2122DB73EB72A5F30
:102EC0003F4F0FB6F8943EBF0FBE2DBFC25BDF4F22
:102ED0000FB6F894DEBF0FBECDBFCF91DF911F912B
:102EE0000F91FF90EF90DF90CF90BF90AF909F90A9
:102EF0008F907F906F905F904F903F902F900895AC
:102F00006F927F928F929F92AF92BF92CF92DF92F9
:102F1000EF92FF920F931F93CF93DF934C013B01EE
:102F20005A01FB018081F401E80FF11DEF01899145
:102F30008D3229F481812196CC24C39405C08B3233
:102F400011F481812196CC24E0E070E020E030E0B3
:102F500040E050E0DD24682F60536A30F8F4EF5F02
:102F6000E930C0F47111DA94DA01C901F2E0880F96
:102F7000991FAA1FBB1FFA95D1F7280F391F4A1FA7
:102F80005B1F220F331F441F551F260F311D411D8C
:102F9000511D09C0772339F4D39405C06E3F29F43D
:102FA000772319F471E08991D6CFEE2319F420E04C
:102FB00030E051C0CA01B9010E948F347B018C01FD
:102FC00020E030E040E050E00E94EE33882369F4D6
:102FD0002BC0C801B7012AE037ED43E25CE30E9451
:102FE000DF367B018C01F2E0DF0E8FEFD8168CF319
:102FF000D81659F4C801B7012DEC3CEC4CEC5DE35C
:103000000E94DF367B018C010FC0DD2069F0C80112
:10301000B70120E030E040E251E40E94DF367B015E
:103020008C01DA941D149CF3CC2049F0D801C7011F
:10303000B058F50180839183A283B38305C0F50165
:10304000E082F18202831383882D80958C0FF30137
:10305000808321E030E0C901DF91CF911F910F9172
:10306000FF90EF90DF90CF90BF90AF909F908F90A8
:103070007F906F90089520EA3FE004C0F9013197F6
:10308000F1F701970097D1F708951F93A0EABFE0E9
:1030900040E951E015E335E031C06A307105810542
:1030A000910540F4232F2A95F1F76150704080403C
:1030B000904024C0643671058105910540F4212FAC
:1030C0002A95F1F76A5070408040904017C0683EE2
:1030D00023E0720720E0820720E0920740F4FA0123
:1030E0003197F1F7645670408040904007C0FD0171
:1030F0003197F1F7685E734080409040611571052B
:103100008105910551F61F910895AF92BF92CF921C
:10311000DF92EF92FF920F931F936091E00B7091FB
:10312000E10B8091E20B9091E30B2091E40B309145
:10313000E50B4091E60B5091E70BE090E80BF09027
:10314000E90B0091EA0B1091EB0BA090EC0BB09007
:10315000ED0BC090EE0BD090EF0B0E940619609122
:10316000E00B7091E10B8091E20B9091E30B2091C9
:10317000E40B3091E50B4091E60B5091E70BE090AA
:10318000E80BF090E90B0091EA0B1091EB0BA0908B
:10319000EC0BB090ED0BC090EE0BD090EF0B0E94BB
:1031A000CF041F910F91FF90EF90DF90CF90BF90D1
:1031B000AF9008959091DD0A8091DE0A981741F052
:1031C0008091DE0A8F5F843209F480E08093DE0A0A
:1031D00008959091DD0A8091DE0A981719F420E095
:1031E00030E008C09091DE0A8FE3989F900111248F
:1031F0002F5F3D4FC90108959091DE0A20E0809134
:10320000DF0A981709F421E0822F0895AF92BF9248
:10321000CF92DF92EF92FF920F931F936093E00A99
:103220007093E10A8093E20A9093E30A2093E40A00
:103230003093E50A4093E60A5093E70AE092E80AE1
:10324000F092E90A0093EA0A1093EB0AA092EC0AC2
:10325000B092ED0AC092EE0AD092EF0A1F910F9140
:10326000FF90EF90DF90CF90BF90AF9008958F9236
:103270009F92AF92BF92CF92DF92EF92FF920F9305
:103280001F93CF93DF93EC016B01009709F460C0AB
:103290008EA1882309F05CC0E98CFA8C0B8D1C8D03
:1032A000FB01B18CA28C938C848CC801B7012B2DAF
:1032B0003A2D492D582D0E94EE3388230CF048C03A
:1032C000C801B701A80197010E94DF367B018C017C
:1032D0006091900D7091910D8091920D9091930D50
:1032E000905820E030E040E050EC0E94DF3629A109
:1032F0003AA14BA15CA10E94DF369B01AC01C80141
:10330000B7010E940A330E9474377B018C016B2D38
:103310007A2D892D982D9701A8010E94EE338823DC
:1033200024F4EB2CFA2C092D182D6B2D7A2D892DD8
:10333000982D9701A8010E94EE33882349F0C70118
:10334000D801F601818F928FA38FB48F81E085A37E
:10335000DF91CF911F910F91FF90EF90DF90CF9071
:10336000BF90AF909F908F9008952F923F924F9271
:103370005F926F927F928F929F92AF92BF92CF9205
:10338000DF92EF92FF920F931F93DF93CF93CDB70E
:10339000DEB768970FB6F894DEBF0FBECDBF1C0135
:1033A0006A017B0128013901DC01DB966D917D9179
:1033B0008D919C91DE970E948F344B015C01A70197
:1033C00096010E94DF360E94DB330E9463347B014A
:1033D0008C01F10167A370A781A792A7C501B40171
:1033E000A30192010E94DF360E94DB330E94633406
:1033F00069877A878B879C87D1019B966D937D9394
:103400008D939C939E979F966D917D918D919C91AC
:10341000D29722E330E040E050E00E94DA370E9489
:10342000913420E030E040E752E40E94DF360E9411
:103430005E342B013C01C801B7010E948F347B012F
:103440008C01C301B2010E9491346D837E838F830E
:103450009887C501B401A50194010E94DF365B0184
:103460006C01C801B701A80197010E94DF366D8782
:103470007E878F87988B6D817E818F8198859B0158
:10348000AC010E940A33698B7A8B8B8B9C8BC601B3
:10349000B5012D853E854F8558890E9409332989BC
:1034A0003A894B895C890E94F5330E94DB330E9484
:1034B0005E3469837A838B839C8369857A858B8567
:1034C0009C850E948F349B01AC010E94DF366D8B7E
:1034D0007E8B8F8B988FA60195010E9409337B010B
:1034E0008C017094609450944094411C511C611C58
:1034F000711CC301B2010E9491349B01AC010E9476
:103500000A339B01AC01C801B7010E94F5330E9448
:10351000CC34F101A188B288C388D48886017501B2
:1035200029813A814B815C81E21AF30A040B150B65
:103530000E945E34A8019701261B370B480B590BDC
:10354000DA01C90157FF48C0C601B5010E948F3496
:103550009B01AC0169897A898B899C890E94DF363D
:103560002D853E854F8558890E9409332D893E89D6
:103570004F89588D0E940A337B018C016D817E81B9
:103580008F81988520E030E040E850E40E94DF36EB
:103590009B01AC01C801B7010E94F5330E94DB33E7
:1035A0000E945E34AC01CB01DA01BC01CD0197FF72
:1035B00004C060E070E080E090E0A616B706C806A0
:1035C000D90610F4C601B50169837A838B839C8385
:1035D00080E090E0A0E0B0E029813A814B815C81FD
:1035E000F10123AB34AB45AB56AB820F931FA41F45
:1035F000B51F87AB90AFA1AFB2AF68960FB6F89486
:10360000DEBF0FBECDBFCF91DF911F910F91FF9015
:10361000EF90DF90CF90BF90AF909F908F907F9072
:103620006F905F904F903F902F9008952F923F9210
:103630004F925F927F928F929F92AF92BF92CF9262
:10364000DF92EF92FF920F931F93CF93DF93D0906F
:10365000DD0A8091900D9091910DA091920DB09105
:10366000930D1C012D0157FA509457F8509400E027
:1036700010E0C0E0D0E0BB24B3943FE3C32E72C09F
:10368000DD2011F424E2D22EDA94209709F463C0ED
:103690000115110509F45FC0AD8C9E8C8F8C78A04C
:1036A000698D7A8D8B8D9C8D2A2D392D482D572D26
:1036B0000E94EE33882309F44EC08EA1882309F0BE
:1036C00041C0F801E18CF28C038D148D6A2D792DA7
:1036D000882D972DA80197010E940536181694F59C
:1036E000C801B701A80197010E94DF367B018C0158
:1036F000C201B10120E030E040E050EC0E94DF3632
:1037000029A13AA14BA15CA10E94DF369B01AC012B
:10371000C801B7010E940A330E947437162F072F81
:10372000F82EE92E6A2D792D882D972D212F302FF7
:103730004F2D5E2D0E94EE3387FD04C0A12E902EEA
:103740008F2C7E2C8A2D992DA82DB72D898F9A8F9D
:10375000AB8FBC8FBDA2DC9CC00111248E01EC019B
:10376000CF5FDD4F8091DE0AD81609F089CFF09047
:10377000DE0A20E030E000E010E09FE3E92E11C017
:10378000FE9CE0011124CF5FDD4FC901B801AE01FD
:103790000E943719F394F4E2FF1609F4FF2498010C
:1037A0008E018091DD0AF81659F7C901B80140E091
:1037B00050E00E9437197090DE0AC0E0D0E08FE33D
:1037C000582E35C0759C4001112481E092E0880E8E
:1037D000991E209731F18DA1882321F4F40185A150
:1037E0008823F9F0ED88FE880F89188D698D7A8D10
:1037F0008B8D9C8DA80197010E94F5335B016C01B4
:10380000F401618D728D838D948DA80197010E94C2
:10381000F5338B019C01CE01B601A5010E94B519BB
:103820001DA27394F4E27F1609F47724E4018091D9
:10383000DD0A781639F6ED88FE880F89188D698DB6
:103840007A8D8B8D9C8DA80197010E94F5335B01C9
:103850006C0160E070E080E090E0A80197010E94B8
:10386000F5338B019C01CE01B601A5010E94B5196B
:103870001DA2DF91CF911F910F91FF90EF90DF90EC
:10388000CF90BF90AF909F908F907F905F904F9020
:103890003F902F900895AF92BF92CF92DF92EF9218
:1038A000FF920F931F93CF93DF935B016C01909175
:1038B000DE0A8FE3989FE0011124CF5FDD4FC60140
:1038C000B5010E94913429A13AA14BA15CA10E94AB
:1038D000DF367B018C0169897A898B899C890E94FA
:1038E0008F349B01AC01C801B7010E94F53369A375
:1038F0007AA38BA39CA3A98ABA8ACB8ADC8A80E0AC
:1039000090E0A0E0B0E0898F9A8FAB8FBC8F8D8F55
:103910009E8FAF8FB8A31EA281E08DA30E94161BBD
:10392000DF91CF911F910F91FF90EF90DF90CF909B
:10393000BF90AF9008954F925F926F927F928F9257
:103940009F92AF92BF92CF92DF92EF92FF920F932E
:103950001F93DF93CF93CDB7DEB7E8970FB6F894F8
:10396000DEBF0FBECDBF39014A013091DD0A2FE322
:10397000329F2001112421E032E0420E531E20919B
:10398000710D3091720D4091730D5091740D0E9424
:10399000DF360E94AF3669837A838B839C83C401B0
:1039A000B3012091750D3091760D4091770D5091B6
:1039B000780D0E94DF360E94AF366D837E838F8341
:1039C0009887C801B7012091790D30917A0D409107
:1039D0007B0D50917C0D0E94DF360E94AF366987C7
:1039E0007A878B879C8762963FAD6297313029F446
:1039F0001D861E861F86188A16C060917D0D7091E7
:103A00007E0D80917F0D9091800D0E9440059B015D
:103A1000AC01C601B5010E94DF360E94AF366D874A
:103A20007E878F87988BD2011C9229813A814B81A6
:103A30005C818091E00A9091E10AA091E20AB09144
:103A4000E30A281739074A075B071CF482E0F201F2
:103A500080832D813E814F8158858091E40A909129
:103A6000E50AA091E60AB091E70A281739074A0744
:103A70005B0724F4D2018C9188608C9329853A8568
:103A80004B855C858091E80A9091E90AA091EA0A49
:103A9000B091EB0A281739074A075B0724F4F201B3
:103AA0008081806280832D853E854F8558898091F5
:103AB000EC0A9091ED0AA091EE0AB091EF0A281756
:103AC00039074A075B0724F4D2018C9180688C93F4
:103AD00029813A814B815C818091E00A9091E10AD1
:103AE000A091E20AB091E30A281B390B4A0B5B0B49
:103AF00057FF07C050954095309521953F4F4F4F48
:103B00005F4FF2012183328343835483AD80BE80B3
:103B1000CF80D8848091E40A9091E50AA091E60ACA
:103B2000B091E70AA81AB90ACA0ADB0AD2011596A7
:103B3000AD92BD92CD92DC921897D7FE0BC088272C
:103B40009927DC018A199B09AC09BD0985839683F5
:103B5000A783B087E984FA840B851C858091E80AE5
:103B60009091E90AA091EA0AB091EB0AE81AF90AE1
:103B70000A0B1B0BD2011996ED92FD920D931C932B
:103B80001C9717FF0CC088279927DC018E199F0905
:103B9000A00BB10BF20181879287A387B48762964D
:103BA000FFAD6297F13041F4D2011D961D921D9236
:103BB0001D921C9250971EC02D853E854F855889B9
:103BC0008091EC0A9091ED0AA091EE0AB091EF0A73
:103BD000281B390B4A0B5B0B57FF07C050954095CC
:103BE000309521953F4F4F4F5F4FF2012587368724
:103BF0004787508BD2011D962D913D914D915C913F
:103C0000509719968D919D910D90BC91A02D821782
:103C10009307A407B50710F4DA01C901F201258161
:103C200036814781508582179307A407B50710F4A2
:103C3000DA01C901F2012181328143815481821765
:103C40009307A407B50710F4DA01C901F201818BCB
:103C5000928BA38BB48B0097A105B10509F4B2C276
:103C600069817A818B819C812091E00A3091E10AFF
:103C70004091E20A5091E30A621B730B840B950B8F
:103C80000E9491342091710D3091720D4091730D0D
:103C90005091740D0E94F5336DA77EA78FA798AB46
:103CA000C601B5010E9491342091750D3091760DB9
:103CB0004091770D5091780D0E94F53369A77AA74E
:103CC0008BA79CA7C801B7010E9491342091790D60
:103CD00030917A0D40917B0D50917C0D0E94F5330F
:103CE0006DA37EA38FA398A76296FFAD6297F13074
:103CF00049F420E030E040E050E029A33AA34BA390
:103D00005CA328C06D857E858F8598892091EC0AFB
:103D10003091ED0A4091EE0A5091EF0A621B730B4D
:103D2000840B950B0E9491347B018C0160917D0D79
:103D300070917E0D80917F0D9091800D0E944005C5
:103D40009B01AC01C801B7010E94F53369A37AA3B6
:103D50008BA39CA36DA57EA58FA598A99B01AC0103
:103D60000E94DF367B018C0169A57AA58BA59CA5F5
:103D70009B01AC010E94DF369B01AC01C801B70179
:103D80000E940A337B018C016DA17EA18FA198A5B1
:103D90009B01AC010E94DF369B01AC01C801B70159
:103DA0000E940A330E9474377B018C0169A17AA1B9
:103DB0008BA19CA10E945E3497FF07C090958095CF
:103DC000709561957F4F8F4F9F4F0E9491349B015B
:103DD000AC01C801B7010E940A337B018C01D201FA
:103DE00091966D937D938D939C93949760E070E092
:103DF00080E89FE3A80197010E94F5333B014C0145
:103E000061968FAD6197882359F460966CAD7DAD56
:103E10008EAD9FAD6097A40193010E94DF360CC068
:103E200060E070E080E89FE360962CAD3DAD4EAD64
:103E30005FAD60970E94F5335B016C01C801B7016B
:103E4000A60195010E94DF3669AB7AAB8BAB9CABC8
:103E5000F201658B768B878B908F6189728983895C
:103E600094890E948F347B018C01A60195010E94E8
:103E7000DF360E94DB330E946334D201DB966D9300
:103E80007D938D939C93DE97C801B701A4019301A4
:103E90000E94DF362091900D3091910D4091920D4E
:103EA0005091930D0E94DF3620E030E84BE355E45B
:103EB0000E94F5330E94DB330E945E34F20167A753
:103EC00070AB81AB92AB6DA57EA58FA598A9A4011F
:103ED00093010E94DF367B018C01698B7A8B8B8B7F
:103EE0009C8B69A57AA58BA59CA5A40193010E9432
:103EF000DF365B016C016D8B7E8B8F8B988F6DA194
:103F00007EA18FA198A5A40193010E94DF366DAB1D
:103F10007EAB8FAB98AF698F7A8F8B8F9C8F69A1A7
:103F20007AA18BA19CA1A40193010E94DF366D8F21
:103F30007E8F8F8F98A39091DD0A8091DE0A98176B
:103F400009F4B5C06090000B7090010B8090020BDB
:103F50009090030BB301C40120E030E040E050E05A
:103F60000E94053618160CF0A2C06091F00A7091FC
:103F7000F10A8091F20A9091F30A9058A8019701F2
:103F80000E94DF367B018C016091F40A7091F50A82
:103F90008091F60A9091F70AA60195010E94DF36FA
:103FA0009B01AC01C801B7010E9409337B018C0160
:103FB0006091F80A7091F90A8091FA0A9091FB0ACF
:103FC0002DA93EA94FA958AD0E94DF369B01AC0137
:103FD000C801B7010E9409337B018C0123E333E35D
:103FE00043E75FE30E94EE3388230CF060C0B30127
:103FF000C40129A93AA94BA95CA90E94EE3387FD07
:1040000006C089A99AA9ABA9BCA93C014D01C80168
:10401000B70123E333E343E75FEB0E94053618164D
:104020000CF04AC060E070E080E89FE3A8019701CF
:104030000E94093320E030E040E05FE30E94DF3679
:104040000E9474375B016C016091900D7091910D2D
:104050008091920D9091930D2091940D3091950D3A
:104060004091960D5091970D0E94DF36A601950163
:104070000E94DF367B018C0160E070E080E89FE306
:10408000A60195010E9409339B01AC01C801B7014B
:104090000E94F5330E9474377B018C01B301C40187
:1040A0009701A8010E94EE3387FD06C007C0EE24E9
:1040B000FF2400E010E002C073018401C701D801B1
:1040C000F201858F968FA78FB0A36091900D7091AC
:1040D000910D8091920D9091930D905820E030E0D9
:1040E00040E050EC0E94DF36D20191962D913D9137
:1040F0004D915C9194970E94DF3620E030E040E0E3
:1041000050E00E940A330E947437D62EC72EB82E74
:10411000A92EB701C8012D2D3C2D4B2D5A2D0E94E3
:10412000EE3387FD04C0ED2CFC2C0B2D1A2DC7019E
:10413000D801F201818F928FA38FB48F6589768920
:104140008789908D2D2D3C2D4B2D5A2D0E94EE33BD
:1041500018162CF081E0D20196968C9302C0F201E1
:1041600016A281E0D20195968C93A0EFBAE0FE01F1
:10417000719680E101900D928150E1F7F2018589FD
:104180009689A789B08D8093000B9093010BA09323
:10419000020BB093030B8091DF0A8093DD0A8091BC
:1041A000DD0A8F5F843209F480E08093DF0AA0EE9D
:1041B000BAE0FE01319680E101900D928150E1F765
:1041C0000E94161BE8960FB6F894DEBF0FBECDBF57
:1041D000CF91DF911F910F91FF90EF90DF90CF90E3
:1041E000BF90AF909F908F907F906F905F904F9017
:1041F00008951F931FE306C00E94DD228091DD0B0E
:10420000882391F49091DD0A8091DE0A981741F09D
:104210008091DE0A819FC00111248F5F9D4F61F75D
:104220008091DE0B833041F31F9108958091DD0A68
:104230008093DE0A8091DD0A8F5F843209F480E08A
:104240008093DF0A84E2E0EEFAE0DF011D928A95B6
:10425000E9F708958F929F92AF92BF92CF92DF922B
:10426000EF92FF920F931F93DF93CF93CDB7DEB7FB
:104270002A970FB6F894DEBF0FBECDBF7B018C012D
:1042800020E030E040E050E00E94EE3388233CF430
:104290008DE20E94422A17FB109517F91095A09005
:1042A000A90DDA2C0CC0C801B70120E030E048ECC1
:1042B00052E40E94DF367B018C018EEFD80EE1E0E4
:1042C000ED1588F3A0FE0AC0C801B70120E030E078
:1042D00040E251E40E94DF367B018C01C801B70146
:1042E00020E030E040E05FE30E940A330E945E3449
:1042F0006B017C019E012F5F3F4FF901EA0DF11D1B
:104300008EE28083BB2449011EC0BA1409F4B39421
:1043100084010B0D111DC701B6012AE030E040E019
:1043200050E00E94F937605DF8016083B394C701E3
:10433000B6012AE030E040E050E00E94F937C901C0
:10434000DA016C017D01C114D104E104F104E9F644
:1043500006C0FC01EB0DF11D2083B39403C0CE0118
:10436000019620E3BA14A8F3BA1489F48B2D8F5F59
:10437000FE01E80FF11D90E39183B82EB39407C0BE
:10438000FE01EB0DF11D80810E94422ABA94BB20F0
:10439000B9F72A960FB6F894DEBF0FBECDBFCF9106
:1043A000DF911F910F91FF90EF90DF90CF90BF9022
:1043B000AF909F908F9008958F929F92BF92CF92CF
:1043C000DF92EF92FF920F931F93DF93CF93CDB7BE
:1043D000DEB72A970FB6F894DEBF0FBECDBF7B01C4
:1043E0008C0197FF0BC08DE20E94422A1095009528
:1043F000F094E094E11CF11C011D111D670178018E
:10440000C114D104E104F10421F480E30E94422AA2
:104410002FC0BB244E010894811C911C84010B0DFC
:10442000111DC701B6012AE030E040E050E00E94D3
:10443000F937605DF8016083B394C701B6012AE0E3
:1044400030E040E050E00E94F937C901DA016C0128
:104450007D01C114D104E104F10401F707C0FE019C
:10446000EB0DF11D80810E94422ABA94BB20B9F75E
:104470002A960FB6F894DEBF0FBECDBFCF91DF9165
:104480001F910F91FF90EF90DF90CF90BF909F9082
:104490008F9008950F931F93DF93CF93CDB7DEB71F
:1044A00028970FB6F894DEBF0FBECDBF982FFE0140
:1044B00031969E01275F3F4F892F8170819396959A
:1044C000E217F307C9F78E01085F1F4FF8018081DB
:1044D000805D0E94422A015010400C171D07B1F761
:1044E00028960FB6F894DEBF0FBECDBFCF91DF91F7
:1044F0001F910F910895CF93DF93EC0102C00E94AA
:10450000422AFE01219684918823C9F7DF91CF9139
:104510000895CF93DF93EC0103C021960E94422AB5
:1045200088818823D1F7DF91CF9108951F920F9250
:104530000FB60F920BB60F9211242F933F934F9308
:104540005F936F937F938F939F93AF93BF93EF93FB
:10455000FF938091060190E0809590958770907010
:10456000892BC1F08091060180FD03C00E94641276
:1045700011C08091060181FD04C08091DF0B88602D
:1045800007C08091060182FD05C08091DF0B82602B
:104590008093DF0BFF91EF91BF91AF919F918F912E
:1045A0007F916F915F914F913F912F910F900BBE33
:1045B0000F900FBE0F901F901895CF93DF938091AF
:1045C000DF0B882309F457C08091DF0BC82FD0E0A0
:1045D000CE0180769070892BE9F086E08093DE0B27
:1045E000C6FF10C08FEF0E94112A81E00E94222591
:1045F0008091DF0B8F7E8093DF0B8091DF0B84FF38
:10460000FCCF03C08EEF0E94112A8091DF0B8F79BF
:104610008093DF0BC4FF04C081E08093DD0B2BC0CF
:10462000C0FF07C00E94A7258091DF0B8E7F80937B
:10463000DF0BC3FF07C00E94612E8091DF0B877FD5
:104640008093DF0BC2FF07C00E946B2E8091DF0BAF
:104650008B7F8093DF0BC1FF0EC00E94572E80918D
:10466000980D81FF03C081E08093F00B8091DF0BF8
:104670008D7F8093DF0BDF91CF91089580E064E020
:104680007BE00E94772D882369F08091040B8823BA
:1046900061F084E09BE00E94892284E09BE00E941C
:1046A0006D0501C08AE00E944C2581E064E07BE05A
:1046B0000E94772D882321F48AE00E944C250895DA
:1046C0008091040B882351F084E09BE00E948922B2
:1046D00084E09BE00E946D050E944C250895DF92C6
:1046E000EF92FF920F931F93DF93CF93CDB7DEB777
:1046F00029970FB6F894DEBF0FBECDBF7C01FC0139
:104700008081843209F009C181E089838181873405
:1047100081F1883474F48432C1F0853234F4882312
:1047200089F0833209F097C01AC0833409F093C02E
:104730002AC08E3409F469C08835F1F1883409F053
:104740008AC04CC00E941425F3C082E08983F7011F
:104750008281882309F0E6C00E94A328E9C082E094
:104760008983F7018281882309F0DCC00E94E52754
:10477000DFC082E08983F7018281882309F0D2C0FB
:104780000E94F926D5C082E08983F70182818823BF
:1047900009F0C8C08091DE0B873021F40E946412BA
:1047A00085E007C0882309F0BFC087E08093DE0B57
:1047B00084E00E942225BCC082E08983F7018281C7
:1047C000882309F0AFC08091DE0B863009F0B0C0BD
:1047D00083E00E9422251092DE0BAAC08091980DE2
:1047E00084FD02C017E0A5C08091DE0B882319F07C
:1047F000863009F099C00E943B138091DD0B88231D
:1048000009F096C00E943E2393C082E08983F7019D
:104810008281882319F0DD24D3941EC080E0B70183
:104820000E94772D882329F080E0B7010E94C027DD
:1048300003C08AE00E944C2581E0B7010E94772DD9
:10484000882321F48AE00E944C2572C081E0B701E0
:104850000E94C0276DC0DD24C7018E010F5F1F4F6E
:10486000B801AE014E5F5F4F0E948017892B09F49B
:104870005DC09981F701E90FF11D80818D3309F049
:1048800051C0892F8F5F8983DD2041F1482F50E08F
:104890002981822F90E0FC01E41BF50BEE0DFF1D3A
:1048A000D701A80FB91F8C9180838C912F5F29832A
:1048B000882371F7C7010E946D05182F8823C9F559
:1048C0006A817B818C819D810E94B9370E9463340B
:1048D000DC01CB01B7010E946C2D2BC0C701B801D0
:1048E000AE014A5F5F4F0E948017892BF9F08981E2
:1048F000E80EF11CF70180818823A1F46A817B8195
:104900008C819D810E945E34DC01CB014E815F81F0
:10491000688579850E94052B03C0C7010E946D053B
:10492000182F07C013E005C01BE003C011E001C051
:1049300010E0812F29960FB6F894DEBF0FBECDBFD1
:10494000CF91DF911F910F91FF90EF90DF9008952D
:104950001F9311E046C02A3011F02D30B1F40E94AF
:10496000DD228091DD0B882309F041C0E091680BC6
:10497000EE2349F0F0E0EC5FF44F108284E09BE01E
:104980000E946F2317C080E015C08091690B8823B7
:1049900019F0293231F512C0213218F12F3209F104
:1049A000283219F41093690B1CC09091680B933650
:1049B00040F08DE00E944C251092680B1092690B1C
:1049C00010C0822F8156E92FF0E09F5F8A3120F4DA
:1049D000EC5FF44F205202C0EC5FF44F20839093C1
:1049E000680B0E948E2A282F8F3F09F0B4CF1F91A9
:1049F00008951092680B1092690B0E941925E7E048
:104A0000F1E08081887F8083E8E0F1E08081876049
:104A10008083EDE6F0E0808187608083E8E6F0E067
:104A200080818460808308958EEE94E00E947B22D2
:104A300008958DE396E00E947B228FE196E00E942C
:104A40007B2208951F93182F8EEA96E00E947B2206
:104A5000133091F0143028F4113041F01230B1F4D9
:104A600008C0143061F0153089F40CC08CE996E070
:104A70000BC088E896E008C086E796E005C08EE6A1
:104A800096E002C085E696E00E947B2281E696E0F1
:104A90000E947B221F9108951F93182F882319F4D9
:104AA0008CED97E050C08FEC97E00E947B2217308E
:104AB00091F1183070F4133011F1143028F41130E2
:104AC000C1F01230F1F518C01530F9F0163000F5CC
:104AD00019C01A3049F11B3028F41830F9F0193098
:104AE00081F51FC01C3031F11C3008F11D3049F533
:104AF00024C08DEB97E023C085EA97E020C08FE8C3
:104B000097E01DC080E897E01AC08AE697E017C0DA
:104B100088E597E014C087E497E011C08BE397E045
:104B20000EC08CE297E00BC08BE097E008C08CEFE2
:104B300096E005C081EF96E002C083EE96E00E9409
:104B40007B2280EE96E00E947B221F9108954F9277
:104B50005F927F928F929F92AF92BF92CF92DF929D
:104B6000EF92FF920F931F93DF93CF93CDB7DEB7F2
:104B7000A0970FB6F894DEBF0FBECDBFDE01119631
:104B8000E0EEFBE080E101900D928150E1F7809131
:104B9000DE0B8430C9F0853038F4823079F0833010
:104BA00080F4882341F01DC08630A1F0863078F073
:104BB0008730B9F412C08AE991E011C083E991E02D
:104BC0000EC08EE891E00BC088E891E008C082E852
:104BD00091E005C08BE791E002C084E791E00E947C
:104BE0007B228DE691E00E947B2281E1C82ED12CB0
:104BF000CC0EDD1E56017724882499242E010894BA
:104C0000411C511C83E07816E9F46D857E858F8503
:104C100098890E9491347B018C0160917D0D709187
:104C20007E0D80917F0D9091800D0E9440059B012B
:104C3000AC01C801B7010E94F5336D8F7E8F8F8F55
:104C400098A317C0F201E80DF91D6081718182817E
:104C500093810E949134F401EF58F24F2081318109
:104C6000428153810E94F533F50160837183828311
:104C700093838091980D80FF13C0F3E07F1681F03D
:104C8000F50160817181828193812BE832E441E2F8
:104C90005DE30E94DF36F501608371838283938335
:104CA000F50161917191819191915F010E942A2199
:104CB0008BE691E00E947B22739484E090E0880E62
:104CC000991E94E0791609F09DCF85E691E00E9447
:104CD0007B220DEB1BE0EE248091980D80FF3DC000
:104CE000E3E0EE16F9F46091C90B7091CA0B809164
:104CF000CB0B9091CC0B2091D90B3091DA0B4091DA
:104D0000DB0B5091DC0B0E940A339B01AC016D8DD3
:104D10007E8D8F8D98A10E9409336D8F7E8F8F8F2E
:104D200098A334C0F80160817181828193812089C8
:104D30003189428953890E940A332BE832E441E2E7
:104D40005DEB0E94DF369B01AC01F6016081718151
:104D5000828193810E940A3314C0F80160817181BD
:104D60008281938120893189428953890E940A3343
:104D70009B01AC01F60160817181828193810E9467
:104D80000933F6016083718382839383F601608126
:104D90007181828193810E942A21F3E0EF1621F034
:104DA00083E691E00E947B22E39484E090E0C80EC9
:104DB000D91E0C5F1F4F94E0E91609F08DCF8FE5E7
:104DC00091E00E947B22A0960FB6F894DEBF0FBE42
:104DD000CDBFCF91DF911F910F91FF90EF90DF90AA
:104DE000CF90BF90AF909F908F907F905F904F90AB
:104DF000089580919D0B823091F0833028F48823B0
:104E000041F08130B1F408C0833061F0843089F41E
:104E10000CC083E192E00BC08FE092E008C08BE011
:104E200092E005C087E092E002C082E092E00E943A
:104E30007B228FEF91E00E947B226091BC0B70E09F
:104E40006A5C7F4F882777FD8095982F0E94DC2130
:104E50008091B90B882351F48091BA0B813019F4F9
:104E60008AEF91E005C085EF91E002C080EF91E00C
:104E70000E947B2280919F0B882319F08BEE91E09A
:104E800002C086EE91E00E947B228091A00B8823D5
:104E900019F081EE91E002C08CED91E00E947B223E
:104EA00080919E0B882319F087ED91E002C082ED7E
:104EB00091E00E947B228091A10B813041F08130F2
:104EC00018F0823059F406C08EEC91E005C08AECEF
:104ED00091E002C086EC91E00E947B228091A20BBF
:104EE000882359F0813019F08F3F59F403C082ECC8
:104EF00091E005C08EEB91E002C08AEB91E00E9448
:104F00007B228091A30B882319F0813041F403C0E8
:104F100086EB91E002C082EB91E00E947B228FEA57
:104F200091E00E947B226091B80B70E080E090E0FD
:104F30000E94DC218CEA91E00E947B2280919F0BF1
:104F4000882379F06091A40B7091A50B8091A60B3A
:104F50009091A70B2BE832E441E25DE30E94DF363B
:104F600008C06091A40B7091A50B8091A60B909145
:104F7000A70B0E942A2188EA91E00E947B220895D3
:104F8000CF92DF92EF92FF920F931F93E82E6B0167
:104F900085EA91E00E947B22FF2400E010E0C80136
:104FA000B7010E94DC2183EA91E00E947B22C601C6
:104FB0000E94892280EA91E00E947B221F910F913A
:104FC000FF90EF90DF90CF900895CF92DF92EF9215
:104FD000FF920F931F93DF93CF93CDB7DEB7609708
:104FE0000FB6F894DEBF0FBECDBFFF246E0108944C
:104FF000C11CD11C8F2DB6010E94142D882321F4D1
:105000008AE00E944C2590C089E492E00E947B22B5
:1050100083E0F816E9F08F1530F0E1E0FE1691F02C
:10502000EF1598F00CC0F5E0FF16C1F0FF1698F0F0
:1050300086E0F816B1F0E7E0FE16D1F415C085E47D
:1050400092E014C081E492E011C08DE392E00EC0C2
:1050500089E392E00BC085E392E008C081E392E02F
:1050600005C08DE292E002C089E292E00E947B22BC
:105070008601EE248091980D80FF0CC0F8016081BC
:105080007181828193812BE832E441E25DE30E94E9
:10509000DF3605C0F80160817181828193810E94B1
:1050A0002A21F3E0EF1619F087E292E002C083E2D2
:1050B00092E00E947B22E3940C5F1F4F84E0E8168D
:1050C000C9F6F394E8E0FE1609F094CF8DE192E082
:1050D0000E947B220DEC1BE0FF248091980D80FF45
:1050E0000CC0F80160817181828193812BE832E4E8
:1050F00041E25DE30E94DF3605C0F8016081718105
:10510000828193810E942A21F3E0FF1619F08BE13E
:1051100092E002C087E192E00E947B22F3940C5F50
:105120001F4F84E0F816C9F660960FB6F894DEBFFC
:105130000FBECDBFCF91DF911F910F91FF90EF90E8
:10514000DF90CF9008958AEE94E00E947B226091D8
:10515000710D7091720D8091730D9091740D0E947C
:105160002A2187ED94E00E947B226091750D709159
:10517000760D8091770D9091780D0E942A2184EC14
:1051800094E00E947B226091790D70917A0D80915C
:105190007B0D90917C0D0E942A2181EB94E00E946E
:1051A0007B2260917D0D70917E0D80917F0D90919D
:1051B000800D0E9440050E942A218CE994E00E9403
:1051C0007B226091820D70E080E090E00E94DC2103
:1051D00083E894E00E947B226091830D7091840D9E
:1051E0008091850D9091860D0E942A2186E694E09B
:1051F0000E947B226091870D7091880D8091890DAE
:1052000090918A0D0E942A2189E494E00E947B22D9
:1052100060918B0D70E080E090E00E94DC218BE2D9
:1052200094E00E947B2280918B0D0E944A2284E2AE
:1052300094E00E947B226091A80D70E080E090E0F5
:105240000E94DC2186E094E00E947B226091900D18
:105250007091910D8091920D9091930D20E030E02E
:1052600041E655E40E94F5330E942A2186EE93E040
:105270000E947B226091940D7091950D8091960D06
:105280009091970D0E942A2186EC93E00E947B2248
:1052900060918C0D70918D0D80918E0D90918F0D80
:1052A0000E942A218DEA93E00E947B226091AA0D40
:1052B00070E080E090E00E94DC218EE893E00E94A4
:1052C0007B226091A90D70E080E090E00E94DC21DB
:1052D00085E793E00E947B226091980D70E080E06A
:1052E00090E061707070807090700E94DC2188E5A1
:1052F00093E00E947B226091980D70E0769567950F
:1053000080E090E061707070807090700E94DC218D
:105310008EE393E00E947B226091980D70E0769579
:1053200067957695679580E090E061707070807009
:1053300090700E94DC218CE193E00E947B226091BE
:10534000980D70E023E0769567952A95E1F780E067
:1053500090E061707070807090700E94DC2181E03C
:1053600093E00E947B226091980D70E094E0769526
:1053700067959A95E1F780E090E0617070708070B9
:1053800090700E94DC2185EE92E00E947B22609169
:10539000990D70E080E090E00E94DC2186EC92E0C4
:1053A0000E947B228091990D0E944A228EEB92E00E
:1053B0000E947B2260919A0D70919B0D80919C0DB3
:1053C00090919D0D0E942A2181EA92E00E947B2209
:1053D00060919E0D70919F0D8091A00D9091A10DF7
:1053E0000E942A2184E892E00E947B226091A20D13
:1053F0007091A30D80E090E00E94DC2185E692E0B0
:105400000E947B226091A40D7091A50D8091A60D44
:105410009091A70D0E942A218CE492E00E947B22A9
:1054200008951F93182F88ED96E00E947B221E3F5F
:1054300029F01F3F39F48DEC96E002C08AEB96E02C
:105440000E947B2280EB96E00E947B2284EF91E019
:105450000E943B181F910895E0ECF0E0808182608B
:1054600080831092C50082E28093C400E1ECF0E0FA
:105470008081806180838081886080838081806872
:1054800080830895282FE0916C0B9E2F9F5F9038AA
:1054900031F490E004C08091DF0B84FD0FC0809157
:1054A0006D0B9817C1F3F0E0EF50F34F208390930A
:1054B0006C0B8091C10080628093C10008951F929F
:1054C0000F920FB60F920BB60F9211248F939F93EA
:1054D000EF93FF9380916D0BE82FF0E0EF50F34FC7
:1054E00090819093C600982F9F5F903809F490E0C8
:1054F00090936D0B80916C0B981729F48091C100EB
:105500008F7D8093C100FF91EF919F918F910F90BC
:105510000BBE0F900FBE0F901F90189590916B0BC4
:1055200080916A0B891711F48FEF0895E92FF0E04D
:10553000EF50F44F80819F5F90936B0B08958091A3
:105540006A0B80936B0B08951F920F920FB60F9208
:105550000BB60F9211242F933F934F935F936F934A
:105560007F938F939F93AF93BF93EF93FF9390910C
:10557000C6009132A1F0923218F49831B9F413C0F8
:105580009F3319F09E3791F404C08091DF0B816046
:1055900003C08091DF0B82608093DF0B15C0809188
:1055A000DF0B8860F9CF0E9464120EC0E0916A0B95
:1055B0002E2F2F5F80916B0B281731F0F0E0EF500A
:1055C000F44F908320936A0BFF91EF91BF91AF91BD
:1055D0009F918F917F916F915F914F913F912F910B
:1055E0000F900BBE0F900FBE0F901F90189580E08C
:1055F00090E065E00E942C0481E090E061E77DE0AE
:105600004AE350E00E944E040895EF92FF920F93F8
:105610001F93CF93DF93EC017A018B01FC0188315A
:10562000910540F4EE58FF4FEE0FFF1F0590F491E7
:10563000E02D199486E043C1CB01BA0120E030E0AF
:1056400040E050E00E94EE33181614F088E037C1B5
:10565000CC0FDD1FCC0FDD1FCF58D24FE882F9826F
:105660000A831B8327C1CB01BA0120E030E044EB61
:1056700053EC0E94EE3387FD21C1C801B70120E041
:1056800030E044EB53E40E94053618160CF416C1C2
:10569000C801B7010E94400560937D0D70937E0D97
:1056A00080937F0D9093800D05C1CB01BA0120E05E
:1056B00030E040E450E40E94EE33882314F489E0A3
:1056C000FEC0C801B7010E944A370E94633460934C
:1056D000820DF0C04093830D5093840D6093850D2F
:1056E0007093860DE7C04093870D5093880D6093AB
:1056F000890D70938A0DDEC0CB01BA010E94B937C3
:105700000E94633460938B0DD5C0CB01BA010E9417
:105710004A370E9463346093A80DCCC0CB01BA0114
:1057200020E030E040E752E40E94DF3620E030E045
:1057300040E752E40E94DF366093900D7093910D24
:105740008093920D9093930DB5C0DB01CA01BF7792
:105750008093940D9093950DA093960DB093970D13
:10576000A9C040938C0D50938D0D60938E0D709356
:105770008F0DA0C0CB01BA010E944A370E9463344A
:105780006093AA0D97C0CB01BA010E944A370E94CC
:1057900063346093A90D8EC0CB01BA0120E030E0E4
:1057A00040E050E00E94EE33882321F08091980D74
:1057B000816011C08091980D8E7F0DC0CB01BA0120
:1057C00020E030E040E050E00E94EE33882331F0EA
:1057D0008091980D82608093980D6CC08091980D97
:1057E0008D7FF9CFCB01BA0120E030E040E050E0FE
:1057F0000E94EE33882321F08091980D8460EBCFD6
:105800008091980D8B7FE7CFCB01BA0120E030E08B
:1058100040E050E00E94EE33882321F08091980D03
:10582000886003C08091980D877F8093980D0E94B7
:10583000070F40C0CB01BA0120E030E040E050E06B
:105840000E94EE33882321F08091980D8061C3CFB0
:105850008091980D8F7EBFCFCB01BA010E94B937DE
:105860000E9463346093990D25C040939A0D509324
:105870009B0D60939C0D70939D0D1CC040939E0DDD
:1058800050939F0D6093A00D7093A10D13C0CB0199
:10589000BA010E944A370E9463347093A30D60934B
:1058A000A20D08C04093A40D5093A50D6093A60DC2
:1058B0007093A70D0E94F72A80E001C08EE0DF916F
:1058C000CF911F910F91FF90EF900895882309F4D5
:1058D00066C080E090E0A8ECB2E48093710D9093F4
:1058E000720DA093730DB093740D8093750D90930A
:1058F000760DA093770DB093780D8093790D9093EA
:105900007A0DA0937B0DB0937C0D80937D0D9093C9
:105910007E0DA0937F0DB093800D8AE08093820D61
:1059200080E090E0A6E9B4E48093830D9093840D29
:10593000A093850DB093860D80E090E0A6E1B5E4DC
:105940008093870D9093880DA093890DB0938A0D55
:1059500080E090EAACE0B7E48093900D9093910DD5
:10596000A093920DB093930D8DEC9CECACECBDE349
:1059700080938C0D90938D0DA0938E0DB0938F0D11
:105980008FEF80938B0D8DEC9CECACE4BDE38093AA
:10599000940D9093950DA093960DB093970D82E082
:1059A0008093980D1092990D80E090E0A8ECB1E4FE
:1059B00080939A0D90939B0DA0939C0DB0939D0D99
:1059C00080E090E0AAE7B3E480939E0D90939F0D52
:1059D000A093A00DB093A10D84E690E09093A30D49
:1059E0008093A20D80E090E0A0E8BFE38093A40D37
:1059F0009093A50DA093A60DB093A70D99E1909358
:105A0000A80D83E08093A90D9093AA0D0E94F72A18
:105A1000089591E1899FC001112480509E4F40E17B
:105A200050E00E944E0408950F931F93CF93DF938D
:105A3000162F072F91E1899FE0011124C050DE4FFE
:105A4000862F972FBE0140E150E00E949804892BD9
:105A500011F081E00FC0E12FF02F80E1DF011D92F6
:105A60008A95E9F7CE01612F702F40E150E00E9446
:105A70004E0480E0DF91CF911F910F910895EF9236
:105A8000FF921F93DF93CF93CDB7DEB760970FB62A
:105A9000F894DEBF0FBECDBF81E00E94662C10E0FF
:105AA0007E010894E11CF11C812FB7010E94142D86
:105AB000882319F48AE00E944C251F5F1830A1F753
:105AC00060960FB6F894DEBF0FBECDBFCF91DF91C9
:105AD0001F91FF90EF90089595E6899FC0011124D2
