:100000000C9400040C9421040C9421040C942104FD
:100010000C9421040C9421040C9421040C942104CC
:100020000C9421040C944A0F0C9421040C944E312E
:100030000C9421040C9421040C9421040C942104AC
:100040000C9421040C94032F0C9421040C9421048F
:100050000C9421040C9421040C9421040C94C227C8
:100060000C9421040C9426240C94DD230C9421047C
:100070000C9421040C9421040C9421040C9421046C
:100080000C9421040C9421040C9421040C9421045C
:100090000C9421040C9421040C9421040C9421044C
:1000A0000C9421040C9421040C9421040C9421043C
:1000B0000C9421040C9421040C9421040C9421042C
:1000C0000C9421040C9421040C9421040C9421041C
:1000D0000C9421040C9421040C9421040C9421040C
:1000E0000C9421044A255125542557255A25642569
:1000F0007025EE25EE25EE257A257C2585258E2595
:100100009825EE25EE25EE25EE25EE25A225B02537
:10011000BE25C825CB25D425DD25E225084AD73BB9
:100120003BCE016E84BCBFFDC12F3D6C74319ABDC6
:1001300056833DDA3D00C77F11BED9E4BB4C3E91EA
:100140006BAAAABE000000803F05A84CCDB2D44ED9
:10015000B93836A9020C50B9918688083CA6AAAADB
:100160002ABE000000803F3E0D0A002C52583A0083
:100170002C4275663A002C002C57506F733A002CB5
:10018000002C4D506F733A003C436865636B003C34
:10019000416C61726D003C486F6D65003C486F6C4E
:1001A00064003C52756E003C5175657565003C49B4
:1001B000646C65005D0D0A005B302E39672E3230AD
:1001C0003134303732353A000D0A003D00244E00FC
:1001D0005D0D0A00204600205400204D3800204DBF
:1001E0003900204D3500204D3400204D3300204D86
:1001F0003200204D3100204D30002047393400209E
:100200004739330020473931002047393000204733
:100210003230002047323100204731390020473149
:10022000380020473137002047005B473830005BFB
:100230004733005B4732005B4731005B4730005D6E
:100240000D0A005B544C4F3A005D0D0A002C005B18
:100250004739323A005D0D0A002C003A0033300075
:100260003238005B47005D0D0A002C005B505242A3
:100270003A00290D0A00206D61782074726176655C
:100280006C2C206D6D0020616363656C2C206D6D9E
:100290002F7365635E3200206D6178207261746532
:1002A0002C206D6D2F6D696E002C20737465702F7E
:1002B0006D6D007A00790078002028003D00240050
:1002C0002028686F6D696E672070756C6C2D6F6685
:1002D000662C206D6D290D0A002028686F6D696EEF
:1002E00067206465626F756E63652C206D7365634E
:1002F000290D0A2432373D002028686F6D696E672A
:10030000207365656B2C206D6D2F6D696E290D0A4C
:100310002432363D002028686F6D696E672066655F
:1003200065642C206D6D2F6D696E290D0A243235A0
:100330003D00290D0A2432343D002028686F6D6984
:100340006E672064697220696E76657274206D61D3
:10035000736B3A002028686F6D696E67206379635C
:100360006C652C20626F6F6C290D0A2432333D00BE
:10037000202868617264206C696D6974732C206236
:100380006F6F6C290D0A2432323D002028736F668E
:1003900074206C696D6974732C20626F6F6C290D09
:1003A0000A2432313D0020286175746F2073746116
:1003B00072742C20626F6F6C290D0A2432303D005C
:1003C00020287265706F727420696E636865732C83
:1003D00020626F6F6C290D0A2431343D00202861A2
:1003E000726320746F6C6572616E63652C206D6D35
:1003F000290D0A2431333D0020286A756E63746923
:100400006F6E20646576696174696F6E2C206D6D06
:10041000290D0A2431323D00290D0A2431313D00D5
:100420002028737461747573207265706F72742004
:100430006D61736B3A00202870726F62652070697D
:100440006E20696E766572742C20626F6F6C290D58
:100450000A2431303D0020286C696D697420706970
:100460006E7320696E766572742C20626F6F6C29D2
:100470000D0A24363D0020287374657020656E6176
:10048000626C6520696E766572742C20626F6F6C89
:10049000290D0A24353D00290D0A24343D00202869
:1004A00064697220706F727420696E766572742050
:1004B0006D61736B3A00290D0A24333D00202873C7
:1004C00074657020706F727420696E766572742026
:1004D0006D61736B3A002028737465702069646CD9
:1004E000652064656C61792C206D736563290D0A44
:1004F00024323D002028737465702070756C73651C
:100500002C2075736563290D0A24313D0024303D8C
:10051000002424202876696577204772626C207356
:10052000657474696E6773290D0A2423202876691F
:100530006577202320706172616D6574657273291F
:100540000D0A2447202876696577207061727365EB
:1005500072207374617465290D0A244E202876690F
:100560006577207374617274757020626C6F636B51
:1005700073290D0A24783D76616C756520287361B6
:100580007665204772626C2073657474696E6729A2
:100590000D0A244E783D6C696E652028736176657E
:1005A000207374617274757020626C6F636B290DB7
:1005B0000A24432028636865636B2067636F646562
:1005C000206D6F6465290D0A245820286B696C6CB6
:1005D00020616C61726D206C6F636B290D0A244879
:1005E000202872756E20686F6D696E67206379636D
:1005F0006C65290D0A7E20286379636C652073740D
:10060000617274290D0A2120286665656420686F6F
:100610006C64290D0A3F202863757272656E742020
:10062000737461747573290D0A6374726C2D78206C
:10063000287265736574204772626C290D0A000D7B
:100640000A4772626C20302E3967205B27242720EE
:10065000666F722068656C705D0D0A005D0D0A00A2
:1006600044697361626C656400456E61626C6564C7
:100670000043617574696F6E3A20556E6C6F636BE1
:10068000656400272448277C2724582720746F207E
:10069000756E6C6F636B00526573657420746F20A8
:1006A000636F6E74696E7565005B000D0A005072B1
:1006B0006F6265206661696C0041626F72742064CC
:1006C0007572696E67206379636C65004861726456
:1006D0002F736F6674206C696D697400414C4152D0
:1006E0004D3A20000D0A00496E76616C69642067FE
:1006F000636F64652049443A00556E646566696EAF
:1007000065642066656564207261746500556E736A
:100710007570706F7274656420636F6D6D616E6467
:10072000004D6F64616C2067726F75702076696F21
:100730006C6174696F6E004C696E65206F766572CE
:10074000666C6F7700486F6D696E67206E6F7420FE
:10075000656E61626C656400416C61726D206C6FE6
:10076000636B004E6F742069646C650045455052A0
:100770004F4D2072656164206661696C2E2055734F
:10078000696E672064656661756C74730056616C90
:100790007565203C20332075736563005365747460
:1007A000696E672064697361626C65640056616C90
:1007B0007565203C203000496E76616C6964207359
:1007C000746174656D656E7400426164206E756D50
:1007D00062657220666F726D617400457870656342
:1007E00074656420636F6D6D616E64206C657474F4
:1007F0006572006572726F723A20006F6B0D0A00AD
:1008000011241FBECFEFD1E2DEBFCDBF00E00CBF91
:1008100012E0A0E0B2E0EAEFFEE600E00BBF02C0AB
:1008200007900D92A030B107D9F717E0A0E0B2E031
:1008300001C01D92A73CB107E1F70E949D110C94E5
:100840007B370C940000E1E0F1E0808180628083DE
:10085000E2E0F1E080818F7D80830895E2E0F1E0C5
:1008600080818F7D808308951F93182F80919C062F
:10087000823079F00E947A1D0E94211E123021F4EC
:1008800080910201806203C0809102018F7D80937C
:1008900002011F910895F999FECF92BD81BD81E0BB
:1008A0008FBB80B50895F894F999FECF92BD81BDB4
:1008B00081E08FBB40B54627842F992787FD90950F
:1008C000262F30E082239323892B39F06F3F19F0D4
:1008D00060BD84E006C084E104C0442321F060BD13
:1008E00084E28FBBF99A789408958F929F92AF9289
:1008F000BF92CF92DF92EF92FF920F93DF93CF934D
:100900000F920F92CDB7DEB75C016B017A014A01FD
:1009100000E01EC0002319F021E030E008C0202FC5
:10092000332727FD30952227330F221F3327F60167
:1009300061916F01062F020F9C012F5F3F4F3A8399
:1009400029830E94530408948108910889819A811F
:1009500081149104F9F6C7018A0D9B1D602F0E9436
:1009600053040F900F90CF91DF910F91FF90EF9074
:10097000DF90CF90BF90AF909F908F900895CF93CE
:10098000DF93EC01FB019A0190E0B1E019C0F99905
:10099000FECFF2BDE1BDBFBBA0B5992319F081E048
:1009A00090E008C0892F992787FD90958827990F97
:1009B000881F992731969A2F980FA993215030407C
:1009C0002115310521F7460F571FF999FECF52BD6A
:1009D00041BD81E08FBB80B520E030E0981711F475
:1009E00021E030E0C901DF91CF91089560919F0629
:1009F0007091A0068091A1069091A2060E94A13458
:100A000020917A0730917B0740917C0750917D07B8
:100A10000E94053460933A0670933B0680933C062F
:100A200090933D066091A3067091A4068091A5065F
:100A30009091A6060E94A13420917E0730917F07F5
:100A400040918007509181070E94053460933E06D3
:100A500070933F0680934006909341066091A706ED
:100A60007091A8068091A9069091AA060E94A134CF
:100A70002091820730918307409184075091850728
:100A80000E940534609342067093430680934406A7
:100A90009093450608952F923F924F925F926F92E6
:100AA0007F928F929F92AF92BF92CF92DF92EF92FE
:100AB000FF920F931F93DF93CF93CDB7DEB7A89725
:100AC0000FB6F894DEBF0FBECDBF1C01E2E6F6E024
:100AD00089E3DF011D928A95E9F73196A7E2B6E036
:100AE0008AE00D9001928150E1F719821CA27724CF
:100AF0006624AA24BB241F8E1E8E61E0462E512C34
:100B00009924939452E0852E6AC2802F81548A31B1
:100B100018F081E00C94970E9F5F9983C101BE018C
:100B20006F5F7F4FAE014E5F5F4F0E942716882395
:100B300019F482E00C94970ECA80DB80EC80FD8073
:100B4000C701B6010E942C370E947334162F70E043
:100B5000882777FD8095982F0E94A1349B01AC01D6
:100B6000C701B6010E94193320E030E048EC52E49E
:100B70000E9452360E94BD360E947334262F0734DD
:100B800021F00D3409F052C10AC1163209F496C0A1
:100B90001732F0F4143170F4113108F0BAC0143087
:100BA00009F443C0143008F489C01A3011F00C94D1
:100BB000860E32C01C3181F11D3128F4163110F03F
:100BC0000C94860EC8C01E3111F00C94860E24C001
:100BD000103509F47AC0113588F4153331F1163324
:100BE00040F41B3209F4C0C0113311F00C94860E8E
:100BF000BBC01C3310F00C94860ECAC01C3561F0CB
:100C00001D3528F41A3510F40C94860E92C01F3549
:100C100010F00C94860E96C0222339F4BCA1BB239D
:100C200011F00C94840EE1E0ECA31C31A9F01D310D
:100C300028F4143051F01A3069F40AC0153351F118
:100C40001C3561F11E3131F416C09092620602C06B
:100C50008092620680E0A0C0222329F02A3011F0A1
:100C60000C94860E04C0F3E0F093620621C024E0E9
:100C7000209362061DC0222329F02A3011F00C9423
:100C8000860E04C085E08093620612C096E09093C1
:100C900062060EC0A7E0A0936206DCCF222329F0F3
:100CA0002A3011F00C94860E05C0B8E0B0936206AD
:100CB00080E0ADC0E9E0E0936206FACFFCA1FF233B
:100CC00011F00C94840E82E08CA3123089F0133062
:100CD00028F4112351F01130D1F40AC0163259F022
:100CE000103591F0133099F403C0109263060FC0D1
:100CF000109363060CC0243111F00C94860E94E01E
:100D00009093630681E083C0A5E0A093630681E031
:100D100043C0123139F0133149F0113129F41092E6
:100D2000670602C09092670682E036C0809267062E
:100D3000FBCF1A3519F41092660602C0909266062F
:100D400083E02AC01D3519F49092640602C0109207
:100D5000640684E021C0143119F49092650602C043
:100D60001092650685E018C0BCA1BB2309F0CCC772
:100D7000113329F410926806E3E0ECA307C02A308F
:100D800009F0C4C790926806F3E0FCA386E03FC078
:100D900016531093690687E02223C9F1B9C7662369
:100DA00009F0B6C7163018F41330B0F408C0183084
:100DB00008F4ACC71A3000F11E3109F0A7C7123091
:100DC00041F01E3131F0112311F490926A0688E04F
:100DD0001EC080926A06FBCF143039F0153041F006
:100DE000133041F490926C0605C080926C0602C0EC
:100DF00010926C0689E00BC0183019F0193031F4EC
:100E000003C080926B0602C010926B068AE09201CA
:100E100002C0220F331F8A95E2F7C9018A219B2164
:100E2000892B09F077C7A22AB32AD9C0003509F463
:100E30006BC001359CF40A34E9F10B3434F4063408
:100E400021F1093409F062C72AC00C3409F44AC000
:100E50000C34E4F10E3409F059C748C0043599F058
:100E600005353CF4023509F459C0033509F04EC785
:100E70005FC0093509F472C00A3509F47BC0083532
:100E800009F044C75FC029E080C0C0926D06D092CF
:100E90006E06E0926F06F092700620E076C0C09277
:100EA0007106D0927206E0927306F092740621E009
:100EB000622A6BC0C0927506D0927606E0927706E1
:100EC000F092780682E0682A22E05FC0C09279063C
:100ED000D0927A06E0927B06F0927C0694E0692A32
:100EE00023E053C010937D0624E04FC0C701B60134
:100EF0000E946E3460937E0670937F068093800616
:100F00009093810625E041C0C0928206D09283066C
:100F1000E0928406F092850626E037C0C0928606ED
:100F2000D0928706E0928806F092890627E02DC0CD
:100F3000C0928A06D0928B06E0928C06F0928D06C3
:100F400028E023C0C0928F06D0929006E0929106CE
:100F5000F0929206A1E07A2A2AE017C0C092930686
:100F6000D0929406E0929506F0929606B2E07B2A23
:100F70002BE00BC0C0929706D0929806E09299069B
:100F8000F0929A06E4E07E2A2CE08201022E02C052
:100F9000000F111F0A94E2F78E8D9F8D80239123FD
:100FA000892B11F089E1C3C681E693E002C09595D3
:100FB00087952A95E2F780FF0CC0C701B60120E0B3
:100FC00030E040E050E00E94FE33882314F484E0D7
:100FD000AEC68E8D9F8D802B912B9F8F8E8F99818A
:100FE000F101E90FF11D0081002309F08ECD77207A
:100FF00029F09CA1992311F4A2E0ACA3BE8DB5FF0A
:101000000FC080917E0690917F06A0918006B091DE
:10101000810680589649A849B04014F08BE187C6F4
:1010200080916406813039F4FCA1F230B1F52E8D47
:1010300020FD33C071C680912806882371F58E8DFE
:1010400080FF1BC080916506813039F560916D0687
:1010500070916E0680916F069091700623E333E3E2
:101060004BEC51E40E94523660936D0670936E060D
:1010700080936F069093700610C080913506909112
:101080003606A0913706B091380680936D0690938E
:101090006E06A0936F06B0937006AE8DBF8DB0FD47
:1010A00010C08091310690913206A0913306B09124
:1010B000340680938A0690938B06A0938C06B09397
:1010C0008D0680916206813041F4BE8DB6FF26C642
:1010D000EE8DFF8DEF7BFF8FEE8F8091670688236B
:1010E00041F0813061F4F2E0FBA321E029A31AA2D0
:1010F0000BC01BA282E089A391E09AA305C0A1E0E6
:10110000ABA319A2B2E0BAA380916506813059F56C
:101110004FE8E42E46E0F42E00E010E0C72CDD247A
:10112000C601002E02C0959587950A94E2F780FFCC
:1011300011C0F701608171818281938123E333E3E0
:101140004BEC51E40E945236D7016D937D938D9301
:101150009C9313970F5F1F4FE4E0F0E0EE0EFF1E2D
:1011600003301105E9F6FCA1F33049F480916806DB
:10117000813029F424E0721611F086E2D8C5DE0130
:101180001696E6E4F6E08CE001900D928150E1F7CE
:10119000A7FE12C090916906973008F0C1C58091F2
:1011A0002D06891749F0892FBE016A5F7F4F0E9483
:1011B000C526882309F4B6C580916206823021F0E5
:1011C000883009F0FDC09AC0772009F4ADC58E8D36
:1011D0009F8D80759070892B09F4A0C5609182065F
:1011E0007091830680918406909185060E942C3729
:1011F0000E947334673008F093C520917D06243136
:1012000031F0223009F082C58E8D87FD7FC56623BF
:1012100019F0615068A303C09091690698A38E01EC
:101220000E5E1F4F88A1B8010E94C526882309F4CD
:1012300079C578013FE8832E36E0932E2AE3C22E4B
:1012400026E0D22E00E010E0A72CBB24C501002E22
:1012500002C0959587950A94E2F780FF3BC0809184
:101260007D06843169F5D6016D917D918D919C91BA
:10127000139758962D913D914D915C915B970E94EB
:101280001933F40120813181428153810E94193345
:10129000D7016D937D938D939C9313970230D1F476
:1012A00020915E0630915F06409160065091610684
:1012B0000E941933F70160837183828393830AC08C
:1012C000F40180819181A281B381F70180839183B0
:1012D000A283B3830F5F1F4F84E090E0E80EF91EF6
:1012E000880E991EC80ED91E0330110509F0AECF25
:1012F000AE8DBF8DAF7ABF8FAE8FFCC0772009F463
:1013000013C50FE816E09AE3C92E96E0D92E86E0C1
:10131000882E912C8C0E9D1EEE24FF24A72CBB241E
:10132000C5010E2C02C0959587950A94E2F780FFBF
:101330002CC0F6016081718182819381D4012D914D
:101340003D914D915C910E941933F80120813181CA
:10135000428153810E941933D8016D937D938D93FF
:101360009C931397B2E0EB16D1F420915E06309176
:101370005F0640916006509161060E941933F801A2
:1013800060837183828393830AC0F601808D918D7F
:10139000A28DB38DF80180839183A283B3830894D7
:1013A000E11CF11C0C5F1F4F84E090E0C80ED91EB9
:1013B000880E991E93E0E916F10409F0B1CF99C0A7
:1013C000ACA1A33009F47CC0772009F479C01AE3FA
:1013D000C12E16E0D12E0FE816E0B6E0AB2EB12CF0
:1013E000AC0EBD1EEE24FF24872C9924C4010E2CC4
:1013F00002C0959587950A94E2F780FD0BC0F6012F
:1014000080819181A281B381F80180839183A2833D
:10141000B38346C080916206873009F441C0809151
:101420006606882361F5D5016D917D918D919C9122
:10143000F601208D318D428D538D0E941A33D801D3
:101440002D913D914D915C910E941A33F80160837A
:10145000718382839383F2E0EF1611F520915E068B
:1014600030915F0640916006509161060E941A33E8
:10147000D8016D937D938D939C93139711C0F801C0
:101480006081718182819381D6012D913D914D9131
:101490005C910E941A33F801608371838283938385
:1014A0000894E11CF11C84E090E0C80ED91E0C5F8A
:1014B0001F4FA80EB91E93E0E916F10409F096CF6C
:1014C00080916206853031F0873069F0833089F48D
:1014D00086E001C087E0BE016E5E7F4F0E94C52698
:1014E000882339F41FC480916306823010F08EE1A6
:1014F0001EC418A210916306153049F4772009F430
:1015000065C2ACA1A13009F461C28FE110C4BCA1D5
:10151000B23009F05BC21123E9F060916D06709161
:101520006E0680916F069091700620E030E040E0FA
:1015300050E00E94FE33882309F4EEC3143030F4E7
:10154000123060F4113009F041C204C0143009F0C7
:101550003DC213C2772009F438C238C2772009F49B
:10156000E3C3FBA1EF2FF0E0F8A7EFA39AA1892F27
:1015700090E09EA38DA381E090E08C010DA002C0BD
:10158000000F111F0A94E2F70FA002C0880F991FE5
:101590000A94E2F7082B192B872D90E080239123E2
:1015A000892B11F480E2C3C3EFA1F8A5EE0FFF1F52
:1015B000EE0FFF1FDF01A95DB94FEE59F94F65A589
:1015C00076A587A590A953962D913D914D915C915B
:1015D00056970E9419335B016C01EDA1FEA1EE0F3D
:1015E000FF1FEE0FFF1FDF01A95DB94FEE59F94F45
:1015F00065A576A587A590A953962D913D914D910E
:101600005C9156970E9419331B012C01AE8DA7FFE8
:1016100002C10AE316E06FE8E62E66E0F62EF80156
:101620006081718182819381D7012D913D914D918E
:101630005C910E94FE33882359F40C5F1F4FE4E055
:10164000F0E0EE0EFF1EF6E006341F0741F76EC312
:10165000809165068130B1F46091860670918706AD
:10166000809188069091890623E333E34BEC51E4A3
:101670000E94523660938606709387068093880690
:1016800090938906E0908606F09087060091880680
:1016900010918906C801B70120E030E040E850E42D
:1016A0000E945236A80197010E9452367B018C019C
:1016B000C601B501A60195010E9452369B01AC01FD
:1016C000C801B7010E9419337B018C01C201B1012D
:1016D000A20191010E9452369B01AC01C801B701E1
:1016E0000E9419337B018C0120E030E040E050E0A3
:1016F0000E94FE33882314F482E219C3C801B701A3
:101700000E94E7367B018C01C601B501A20191015F
:101710000E94E9169B01AC0117FB109517F9109573
:10172000C801B7010E9405347B018C0180916306DA
:10173000833021F417FB109517F9109560908606F9
:10174000709087068090880690908906C401B30146
:1017500020E030E040E050E00E94FE3388237CF43B
:1017600017FB109517F91095D401C301B058809359
:10177000860690938706A0938806B09389068E8D7F
:101780009F8D8F779F8F8E8FAFA1B8A5AA0FBB1F9C
:10179000AA0FBB1FAA59B94FB8A7AFA3C201B10185
:1017A000A80197010E9452369B01AC01C601B50108
:1017B0000E94193320E030E040E05FE30E9452369F
:1017C000EFA1F8A563877487858796878DA19EA171
:1017D000880F991F880F991F8A59994F9EA38DA32F
:1017E000C601B501A80197010E9452369B01AC01C8
:1017F000C201B1010E941A3320E030E040E05FE313
:101800000E945236ADA1BEA11B966D937D938D9320
:101810009C931E97DBC0862C992408211921012B4B
:1018200011F483E284C2EE8DFF8DE17FFF8FEE8F96
:1018300080916506813041F531E7E32E36E0F32EE5
:1018400000E010E0C401002E02C0959587950A942F
:10185000E2F780FF10C0D7016D917D918D919C9131
:1018600023E333E34BEC51E40E945236F7016083EB
:101870007183828393830F5F1F4F84E090E0E80EB3
:10188000F91E03301105F1F6EFA0F8A4EE0CFF1CD1
:10189000EE0CFF1CA6E6B6E0EA0EFB1EC601B50183
:1018A000F70123853485458556850E9419335B01F0
:1018B0006C010DA11EA1000F111F000F111F0A596D
:1018C000194FC201B101D8011B962D913D914D9147
:1018D0005C911E970E9419339B01AC01C601B501B2
:1018E0000E94E9165B016C01F701638574858585AB
:1018F0009685D8011B962D913D914D915C911E9737
:101900000E94E9163B014C0160938606709387069E
:101910008093880690938906C601B501A4019301BE
:101920000E9419337B018C01E89417F9C801B701B3
:101930002AE037ED43EA5BE30E94153618160CF0F7
:1019400045C0C801B70120E030E040E05FE30E94FD
:10195000153618160CF4EAC1C401B3012FE632E1C2
:1019600043E85AE30E9452369B01AC01C801B7011B
:101970000E941536181654F5D9C1772009F4D4C140
:101980000AE316E08FE8E82E86E0F82EF801608181
:10199000718182819381D7012D913D914D915C910F
:1019A0000E94FE33882359F40C5F1F4FE4E0F0E0FF
:1019B000EE0EFF1EF6E006341F0741F7B7C10E9486
:1019C000571D882319F084E2B2C11CA28E8D9F8D11
:1019D0008E7D9C7F2CA1222321F08E8D9F8D8E7D6C
:1019E000907E892B11F085E2A2C1809164068093DC
:1019F000280680916D0690916E06A0916F06B091B9
:101A000070068093350690933606A0933706B09300
:101A10003806E0908A06F0908B0600918C061091B3
:101A20008D06609131067091320680913306909157
:101A30003406A80197010E94FE33882381F0E092CA
:101A40003106F092320600933306109334068091EB
:101A50003006882321F0B801A7010E9486278091D3
:101A60008E068093390690916C0680913006891716
:101A700069F09093300640913106509132066091A2
:101A8000330670913406892F0E94862790916B0649
:101A900080912F06891729F090932F06892F0E9495
:101AA000340480916206813051F460918206709115
:101AB000830680918406909185060E94161280917B
:101AC000670680932B0680916506809329068CA17A
:101AD0008330D9F48091680680932C06813049F4D4
:101AE0008091970690919806A0919906B0919A06D8
:101AF00004C080E090E0A0E0B0E080935E069093A8
:101B00005F06A0936006B09361069091690680918C
:101B10002D06891759F090932D06A6E4B6E0FE0134
:101B200036968CE001900D928150E1F78091660627
:101B300080932A0680916206853059F1863048F4F8
:101B4000833039F1843008F044C0823009F05AC043
:101B50000AC0883009F445C0893009F44CC0863089
:101B600009F050C038C08E010E5E1F4F88A1B80129
:101B70000E94BA2680912D0698A1891709F042C0CB
:101B8000A6E4B6E0F8018CE001900D928150E1F7F7
:101B900039C0ACA1AA2349F08FE896E040E050E0BC
:101BA00060E87FEB20E00E9471128E010E5E1F4FF5
:101BB000C80140E050E060E87FEB20E00E94711235
:101BC000AAE3B6E0F8018CE001900D928150E1F7B4
:101BD00019C086E001C087E06AE376E00E94BA2679
:101BE00011C0A2E5B6E0EFE8F6E08CE001900D92BE
:101BF0008150E1F707C08CE0E2E5F6E0DF011D92DD
:101C00008A95E9F78091630680932706853009F469
:101C100066C0BCA1B23009F062C0843040F48230AA
:101C200008F5882341F0813009F050C00CC08430A1
:101C300009F04CC03DC08FE896E040E050E060E81D
:101C40007FEB20E00CC04091350650913606609144
:101C50003706709138068FE896E0209128060E949A
:101C6000711234C00F920F92009186061091870670
:101C70002091880630918906C0903506D0903606AE
:101C8000E0903706F09038068AA1EDB7FEB7818361
:101C900099A192838AE396E06FE876E041E756E007
:101CA000A09028068BA00E943F130F900F900EC0AB
:101CB000409135065091360660913706709138068E
:101CC0008FE896E0209128060E94A912AAE3B6E0C8
:101CD000EFE8F6E08CE001900D928150E1F7809101
:101CE0006A0680932E06882311F10E94211E10920D
:101CF000AB0680912E06823019F40E94DD1102C0DD
:101D000010922E0680E013C088E111C084E10FC05C
:101D100087E10DC085E10BC086E109C08CE107C0F9
:101D20008DE105C087E003C08AE101C081E2A89689
:101D30000FB6F894DEBF0FBECDBFCF91DF911F91DC
:101D40000F91FF90EF90DF90CF90BF90AF909F905A
:101D50008F907F906F905F904F903F902F9008955D
:101D6000E7E2F6E08BE3DF011D928A95E9F78091C7
:101D70002D06BF01615E7F4F0E94C526882319F49E
:101D800087E00E94131F089584B18F7884B98091F1
:101D9000B707982F86FF03C085B18F7802C085B141
:101DA000806785B993FF09C080916B00806780933D
:101DB0006B0080916800816008C080916B008F7813
:101DC00080936B00809168008E7F809368000895F7
:101DD000EBE6F0E080818F788083E8E6F0E08081B8
:101DE0008E7F80830895CF92DF92EF92FF920F93C0
:101DF0001F93CF93DF936C01C0E0D0E0F601EC0FAE
:101E0000FD1FE080F18002811381C801B70120E04D
:101E100030E040E050E00E94153618166CF0FE01EC
:101E2000E658F84FC801B70124A135A146A157A132
:101E30000E94FE33882304F580919C06803179F45A
:101E40009FB7F89480919D06886080939D069FBF00
:101E50000E94871D80919B068823D1F312C00E94A7
:101E6000DD119FB7F89480919D06806680939D0652
:101E70009FBF0E94871D05C02496CC30D10509F074
:101E8000BDCFDF91CF911F910F91FF90EF90DF9029
:101E9000CF9008951F920F920FB60F920BB60F922C
:101EA00011242F933F934F935F936F937F938F935F
:101EB0009F93AF93BF93EF93FF9380919C068130E4
:101EC00071F080919D0685FD0AC00E94DD119FB7CB
:101ED000F89480919D06806680939D069FBFFF9138
:101EE000EF91BF91AF919F918F917F916F915F9192
:101EF0004F913F912F910F900BBE0F900FBE0F90FF
:101F00001F9018952F923F924F925F926F927F92FF
:101F10008F929F92AF92BF92CF92DF92EF92FF92F9
:101F20000F931F93DF93CF93CDB7DEB7A3970FB671
:101F3000F894DEBF0FBECDBF8F8F80919B068823A4
:101F400009F0E2C18091BD079091BE07A091BF0743
:101F5000B091C0078F8B988FA98FBA8F4EE9A42EAE
:101F600047E0B42E6624772488249924CC24DD24E9
:101F70001E010894211C311C34E0432E512C4C0EC0
:101F80005D1E8C2D0E949724F101EC0DFD1D8083B8
:101F90008C2D0E948324F201EC0DFD1D8083D50160
:101FA000ED90FD900D911C91B301C401A801970122
:101FB0000E941536181624F0C301D4017C018D014E
:101FC0000894C11CD11CE4E0F0E0AE0EBF1EF3E0AB
:101FD000CF16D10429F0D801C70137014D01D1CF67
:101FE000C801B70120E030E040EC5FEB0E945236C0
:101FF0005B016C010E94CD1B01E025E02D8B27E0E9
:10200000422E512C4C0E5D1E9F8D892F90E099A37E
:1020100088A33501460197FA909497F8909480919F
:10202000B70786FD02C00E8B03C0A1E0A027AE8BD0
:102030008091B807E82EFF241201920160E010E0C1
:1020400040E050E0742F88A199A1042E02C095951C
:1020500087950A94E2F7FC01E170F070FBA3EAA314
:1020600080FF10C06F5F002339F4D9016D927D921B
:102070008D929C9213970FC0F901A082B182C28207
:10208000D38209C080E090E0A0E0B0E0F901808355
:102090009183A283B383C70102C0959587957A95F2
:1020A000E2F780FF0AC0F90180819181A281B381AA
:1020B000B05880839183A283B3838AA19BA1892B8B
:1020C00041F0E4E0F0E0EC0FFD1FE40FF51F80812C
:1020D000182B4F5F5F4F2C5F3F4F4330510509F086
:1020E000B1CF70E080E090E00E949F340E94E7361C
:1020F0009B01AC0110939E066F89788D898D9A8D16
:102100000E945236AB01BC01C20120E00E94C718F8
:102110000E941C280E94A22743B19E89992311F096
:10212000A0E74A2720E030E0E4E0F0E0EC0FFD1FFC
:10213000E20FF31F9081812F892359F0E1E0F0E055
:10214000EC0FFD1FE20FF31F8081842311F09095A7
:1021500019232F5F3F4F2330310531F710939E062F
:102160000E941C2880919D0684FF03C00E94871D49
:10217000CBC0812F8C7181F60E949A2E0E94CD1BBC
:102180008091C1079091C2070E94DF168091B90724
:102190009091BA07A091BB07B091BC078F8B988F25
:1021A000A98FBA8F9D89992329F0A1E00A27915020
:1021B0009D8B35CF8091B807E82FF0E0FC8BEB8B3F
:1021C0004090C3075090C4076090C5077090C60741
:1021D000D301C201B0588B8F9C8FAD8FBE8F9FE90A
:1021E000C92E96E0D92E8AE7A82E87E0B82E88243B
:1021F000992488A199A1082C02C0959587950A94E5
:10220000E2F780FF3DC08B899C89082C02C0959520
:1022100087950A94E2F780FF23C0D5019496ED904C
:10222000FD900D911C919797C301B201A8019701F0
:102230000E941A33F1016083718382839383C80102
:10224000B701D5012D913D914D915C910E9452367F
:102250000E942236F601608371838283938323C0B8
:102260008B8D9C8DAD8DBE8DF10180839183A2837A
:10227000B383D6011D921D921D921C92139713C019
:10228000F60160817181828193810E94A134D50120
:102290002D913D914D915C910E940534F101608337
:1022A0007183828393830894811C911C24E030E025
:1022B000220E331EC20ED31EA20EB31E33E08316AF
:1022C000910409F096CF0E9441174091BD075091AB
:1022D000BE076091BF077091C007CE01079620E04E
:1022E0000E94C71888E080939C069FB7F89480915D
:1022F0009D06826080939D069FBF0E94871D0E945D
:10230000211E84E080939C06A3960FB6F894DEBF4E
:102310000FBECDBFCF91DF911F910F91FF90EF9036
:10232000DF90CF90BF90AF909F908F907F906F90F5
:102330005F904F903F902F9008951F930E94AA2383
:102340000E94F0260E94D8270E9439318EE1EBE9E5
:10235000F6E0DF011D928A95E9F781E080939B0604
:1023600078948091B70784FF03C081E080939C0636
:1023700011E00E9421240E94B00E0E9474270E9446
:1023800023040E94C40E0E943D1D0E94CD1B0E948A
:102390009A2E0E9441170E94F60410929B061092FA
:1023A0009D068091B70781FF03C01093AB0602C062
:1023B0001092AB060E94381EDCCF80919D0684FDF2
:1023C0001AC08FB7F89490919D06906190939D06E6
:1023D0008FBF0E9480270E942E0480919C068473E8
:1023E00051F09FB7F89480919D06806280939D067E
:1023F0009FBF0E946E2E089584E080939C060E94E9
:10240000E80E84E00E94820F83E00E94820F0E9407
:10241000871D80919B06882341F40E94F604109248
:102420009C060E946E2E0E94C40E0895EF92FF92A9
:102430000F931F93CF93DF937B018C0180919C06B8
:10244000823009F447C0C801B70120E030E040EA1B
:1024500051E40E9452360E94DC340E947334EB0136
:102460000E94211EC801B70120E030E04AE754E491
:102470000E9452367B018C0182E390E0C89FB0013C
:10248000C99F700DD89F700D112480E090E00E94CC
:102490009F349B01AC01C801B7010E9419330E940F
:1024A000DC340E947334DC01CB010E94DF1600E9AA
:1024B00011E00EC00E94871D80919B06882351F475
:1024C00084EF91E0F8013197F1F70197D9F721975F
:1024D000209781F7DF91CF911F910F91FF90EF909F
:1024E0000895DF92EF92FF920F931F93CF93DF93A4
:1024F000EC017A018B01D22E8091B70785FF03C0D2
:10250000CE010E94F30E80919C068230D1F00E9491
:10251000871D80919B068823A1F40E94371788238A
:1025200019F00E947A1DF3CFCE01B801A7012D2D1D
:102530000E94C71880919C06882319F488E0809334
:102540009C06DF91CF911F910F91FF90EF90DF904C
:1025500008957F928F929F92AF92BF92CF92DF9217
:10256000EF92FF920F931F93CF93DF936C014A0179
:102570005B01722E0E94211E80919B06882309F028
:1025800070C0C601B501A401272D0E94711281E01F
:102590008093AC069FB7F89480919D0682608093EB
:1025A0009D069FBF0E94871D80919B06882309F08E
:1025B00058C080919C06882311F0883099F780914B
:1025C000AC06813041F49FB7F89480919D068064F9
:1025D00080939D069FBF0E94871D80919B06882344
:1025E00009F03FC00E949A2E0E94CD1B0E94411705
:1025F0008DEAE82E86E0F82EC0E0D0E086010C0FD0
:102600001D1FF70161917191819191917F010E944C
:10261000A134FE01E658F84F208131814281538177
:102620000E940534F801608371838283938324962A
:10263000CC30D10519F7C601B501A401272D0E94A0
:1026400071128FB7F89490919D06926090939D06B9
:102650008FBF0E94211E80919B06882311F40E9447
:10266000DE1EDF91CF911F910F91FF90EF90DF90D1
:10267000CF90BF90AF909F908F907F9008952F92B2
:102680003F924F925F926F927F928F929F92AF9202
:10269000BF92CF92DF92EF92FF920F931F93DF933F
:1026A000CF93CDB7DEB7EF970FB6F894DEBF0FBE6E
:1026B000CDBF9CAB8BAB7EAB6DAB3A010FAB18AF14
:1026C00029AF3AAFCBAEDCAEEDAEFEAEAFAE9924E5
:1026D000880C991C880C991C880D991D9AAB89ABA4
:1026E0009A01280D391D38AB2FA7D901AD90BD90A7
:1026F000CD90DC90C601B501E9A9FAA9208131810C
:10270000428153810E941A336DA37EA38FA398A7A1
:1027100066966FAD6697462E5524440C551C440CA6
:10272000551C2BA93CA9240D351D3EA72DA7C3017F
:10273000840D951D9CA78BA7DC01ED90FD900D915C
:102740001C91C801B701F901208131814281538177
:102750000E941A3369A37AA38BA39CA3D601C50157
:10276000B0588D8F9E8FAF8FB8A3D801C701B058D6
:10277000898F9A8FAB8FBC8FADA9BEA98A0E9B1E85
:10278000F40160817181828193812DA13EA14FA1CD
:1027900058A50E9419333B014C012DA93EA9420EB8
:1027A000531ED2016D917D918D919C9129A13AA1E9
:1027B0004BA15CA10E9419335B016C016D8D7E8D74
:1027C0008F8D98A1A60195010E9452367B018C0144
:1027D000698D7A8D8B8D9C8DA40193010E94523658
:1027E0009B01AC01C801B7010E9419331B012C01E8
:1027F0006D8D7E8D8F8D98A1A40193010E9452361C
:102800007B018C01698D7A8D8B8D9C8DA601950144
:102810000E9452369B01AC01C801B7010E941A33D5
:102820009B01AC01C201B1010E9492335B016C01BA
:1028300080912706823099F4C601B50120E030E08E
:1028400040E050E00E9415368823ECF0C601B50147
:102850002BED3FE049EC50E40E94193312C0C60151
:10286000B50120E030E040E050E00E94FE33181651
:1028700054F0C601B5012BED3FE049EC50E40E9455
:102880001A335B016C01E090B307F090B40700913C
:10289000B5071091B6076FA978AD89AD9AAD9B01C8
:1028A000AC010E941A33A80197010E9419339B01C1
:1028B000AC01C801B7010E9452360E94E7367B0185
:1028C0008C01C601B50120E030E040E05FE30E94EA
:1028D00052362FA938AD49AD5AAD0E9452369F7776
:1028E000A80197010E9405340E94DC340E947334D1
:1028F000788F6F8B6115710509F487C1BFADBB235C
:1029000081F080E090E00E949F349B01AC016BADB0
:102910007CAD8DAD9EAD0E9452366BAF7CAF8DAF5E
:102920009EAF2F89388DB90180E090E00E949F34DE
:102930007B018C01C601B501A80197010E940534F5
:102940006B8B7C8B8D8B9E8B6796EFAD6797F0E0E2
:10295000EE0FFF1FEE0FFF1F8BA99CA98E0F9F1F6D
:102960009AA789A7ADA9BEA9EA0FFB1F6081718153
:1029700082819381E9A5FAA5208131814281538129
:102980000E941933A80197010E9405346F87788B44
:10299000898B9A8B6B897C898D899E899B01AC017F
:1029A0000E9452369B01AC0160E070E080E090E450
:1029B0000E9419335B016C016B897C898D899E892A
:1029C0002BEA3AEA4AE25EE30E9452367B018C012E
:1029D000C601B50120E030E040E850E40E941A331F
:1029E0009B01AC01C801B7010E9452366B877C87FE
:1029F0008D879E87C601B50120E030E040E05FE3AF
:102A00000E94523669837A838B839C8321E030E075
:102A10003E832D839924F1C03BE0391508F446C06C
:102A20006D8D7E8D8F8D98A12B853C854D855E8526
:102A30000E9452367B018C01698D7A8D8B8D9C8D25
:102A400029813A814B815C810E9452369B01AC0105
:102A5000C801B7010E941A337B018C016D8D7E8DF8
:102A60008F8D98A129813A814B815C810E945236D9
:102A70005B016C01698D7A8D8B8D9C8D2B853C85DE
:102A80004D855E850E9452369B01AC01C601B501A1
:102A90000E9419336D8F7E8F8F8F98A39394C701F7
:102AA000D801898F9A8FAB8FBC8F61C0AD81BE81F9
:102AB000BD0180E090E00E949F342B893C894D89C4
:102AC0005E890E9452367B018C01C8010E9402344B
:102AD0006F83788789879A87B701C8010E94DD369E
:102AE0003B014C01EFA5F8A9E080F1800281138140
:102AF00017FB109517F91095ABA5BCA52D903D902F
:102B00004D905C90C801B7012F81388549855A8561
:102B10000E9452365B016C01C201B101A401930114
:102B20000E9452369B01AC01C601B5010E941A33C6
:102B30006D8F7E8F8F8F98A3C801B701A401930179
:102B40000E9452367B018C01C201B1012F81388570
:102B500049855A850E9452369B01AC01C801B701D4
:102B60000E941933698F7A8F8B8F9C8F99246DA166
:102B70007EA18FA198A52D8D3E8D4F8D58A10E94CD
:102B80001A33E9A9FAA9608371838283938369A1C7
:102B90007AA18BA19CA1298D3A8D4B8D5C8D0E94D1
:102BA0001A33ADA5BEA56D937D938D939C9313971A
:102BB000E9A5FAA560817181828193812F85388989
:102BC00049895A890E941A33A9A5BAA56D937D93A4
:102BD0008D939C9313978BA99CA94BAD5CAD6DAD68
:102BE0007EAD2FAD0E94711280919B068823B1F4B7
:102BF000ED81FE813196FE83ED832D813E818F89AB
:102C0000988D2817390708F407CF8DA99EA94BADD9
:102C10005CAD6DAD7EAD2FAD0E947112EF960FB61B
:102C2000F894DEBF0FBECDBFCF91DF911F910F9102
:102C3000FF90EF90DF90CF90BF90AF909F908F90DC
:102C40007F906F905F904F903F902F9008956F927C
:102C50007F928F929F92AF92BF92CF92DF92EF922C
:102C6000FF920F931F93CF93DF934C013B015A01C7
:102C7000FB018081F401E80FF11DEF0189918D3294
:102C800029F481812196CC24C39405C08B3211F4A0
:102C900081812196CC2420E030E040E050E0DD242A
:102CA000E0E070E0682F60536A30F8F4EF5FE930DD
:102CB000C0F47111DA94DA01C901F2E0880F991FAA
:102CC000AA1FBB1FFA95D1F7280F391F4A1F5B1F98
:102CD000220F331F441F551F260F311D411D511D4B
:102CE00009C0772339F4D39405C06E3F29F47723C4
:102CF00019F471E08991D6CFEE2311F480E050C031
:102D0000CA01B9010E949F347B018C0120E030E0B0
:102D100040E050E00E94FE33882369F42BC0C801D4
:102D2000B7012AE037ED43E25CE30E9452367B01B3
:102D30008C01F2E0DF0E8FEFD8168CF3D81659F421
:102D4000C801B7012DEC3CEC4CEC5DE30E9452361F
:102D50007B018C010FC0DD2069F0C801B70120E0C4
:102D600030E040E251E40E9452367B018C01DA945B
:102D70001D149CF3CC2049F0D801C701B058F501CF
:102D800080839183A283B38305C0F501E082F18241
:102D900002831383882D80958C0FF301808381E05B
:102DA000DF91CF911F910F91FF90EF90DF90CF9027
:102DB000BF90AF909F908F907F906F90089520EA82
:102DC0003FE004C0F9013197F1F701970097D1F77F
:102DD0000895AF92BF92CF92DF92EF92FF920F933E
:102DE0001F937B018C0159016A01A80197010E9480
:102DF00052367B018C01C601B501A60195010E94E6
:102E000052369B01AC01C801B7010E941A330E94DF
:102E1000E7361F910F91FF90EF90DF90CF90BF901A
:102E2000AF9008952091E2048091E304821769F045
:102E3000922F9F5F923109F490E08091E50428176A
:102E400011F49093E5049093E20408959091E204C4
:102E50008091E304891719F420E030E006C089E28C
:102E6000989F9001112420503E4FC901089520E001
:102E70009091E2048091E404981709F421E0822FF4
:102E8000089580919F069091A006A091A106B0910F
:102E9000A2068093E6049093E704A093E804B0931D
:102EA000E9048091A3069091A406A091A506B09193
:102EB000A6068093EA049093EB04A093EC04B093ED
:102EC000ED048091A7069091A806A091A906B09163
:102ED000AA068093EE049093EF04A093F004B093BD
:102EE000F10408958091E3049091E204891710F0B1
:102EF000891B08958E5E891B08954F925F926F9291
:102F00007F928F929F92AF92BF92CF92DF92EF9279
:102F1000FF920F931F93CF93DF938091E304882355
:102F200009F482E1782E7A946090E504761409F42D
:102F3000F2C089E2789E4001112480E092E0880E80
:102F4000991EF401A588B688C788D08C21A132A12A
:102F500043A154A1CA01B9010E941A33F40125A169
:102F600036A147A150A50E9452367B018C01B501C4
:102F7000C601A80197010E94FE3387FD04C0D80155
:102F8000C70157016D01C501D601F401818B928BF8
:102F9000A38BB48B772011F432E1732E7A947614DC
:102FA00009F04EC08091E204681609F050C00E94FA
:102FB000FA274DC0769CE0011124C050DE4F7720E7
:102FC00011F422E1722E7A948091E204781611F4C1
:102FD0000E94FA27AD88BE88CF88D88C69897A8903
:102FE0008B899C89A60195010E94FE33882331F1CB
:102FF00029A13AA14BA15CA1CA01B9010E941A33CF
:103000002DA13EA14FA158A50E945236F40121895D
:103010003289438954890E941A337B018C01A601AD
:1030200095010E94FE3388232CF4E98AFA8A0B8BDF
:103030001C8B04C0A98ABA8ACB8ADC8A4E0102C0E2
:1030400099E2692E8091E504781609F0B3CFA0903B
:10305000E504BA2CB394F2E1BF1609F4BB2489E26B
:10306000A89E8001112400501E4F5090E30489E275
:10307000482E4CC0B49CE0011124C050DE4FF80132
:10308000C188D288E388F48869887A888B889C888C
:10309000C701B601A40193010E94FE3388231CF5E9
:1030A000F80121A132A143A154A1CA01B9010E9492
:1030B0001A33F80125A136A147A150A50E94523626
:1030C0009B01AC01C701B6010E941A337B018C0140
:1030D000A40193010E94FE3388232CF4E98AFA8A22
:1030E0000B8B1C8BAB2C69897A898B899C892D89E8
:1030F0003E894F89588D0E94FE33882309F4AB2CFA
:10310000B394F2E1BF1609F4BB248E01B51409F0A3
:10311000B1CFA092E504DF91CF911F910F91FF9065
:10312000EF90DF90CF90BF90AF909F908F907F9067
:103130006F905F904F9008950E94FA278091E2046B
:103140008093E5040E947D1708952091E2042F5F8B
:10315000223109F420E08091E304281729F460E08B
:1031600070E080E090E012C030E089E290E0289FBB
:10317000F001299FF00D389FF00D1124E050FE4F13
:1031800061897289838994890E94E73608952F9214
:103190003F924F925F926F927F928F929F92AF92E7
:1031A000BF92CF92DF92EF92FF920F931F93DF9324
:1031B000CF93CDB7DEB7E6970FB6F894DEBF0FBE5C
:1031C000CDBF9DA78CA74EA75FA768AB79AB2AABF5
:1031D0009091E30489E2989F4001112420E032E0BD
:1031E000820E931ED4011D961D921D921D921C925B
:1031F000509780E090E0A0E0B0E0F40185A396A3B2
:10320000A7A3B0A7108289E996E7A6E9BEE781A344
:1032100092A3A3A3B4A32AE737E03C8F2B8F1E0110
:103220000894211C311C46EE442E44E0542E9A8E04
:10323000898E1BA666247724ECA5FDA5E60DF71D57
:103240006081718182819381AB8DBC8D2D913D9187
:103250004D915C910E9452360E9422369B01AC0136
:10326000F1012083318342835383F2018081918174
:10327000A281B381281B390B4A0B5B0B57FF07C098
:1032800050954095309521953F4F4F4F5F4FA98DF9
:10329000BA8D11962D933D934D935C931497F40141
:1032A00085859685A785B089281739074A075B0762
:1032B00010F49C01AD01D4011D962D933D934D93C7
:1032C0005C935097F1016081718182819381D20179
:1032D0002D913D914D915C91621B730B840B950B6D
:1032E0000E94A134EB8DFC8D20813181428153817C
:1032F0000E9405345B016C01EDE0F0E0EC0FFD1F76
:10330000E60DF71D608371838283938320E030E0B4
:1033100040E050E00E94FE33882344F4D4011C9125
:103320008BA50E948D24182BF4011083D40195964F
:10333000ED90FD900D911C919897C601B501A601E5
:1033400095010E9452369B01AC01C801B7010E9451
:103350001A337B018C01CB01D801F40185A396A31C
:10336000A7A3B0A7FBA5FF5FFBA724E030E0620E98
:10337000731E8B8D9C8D04969C8F8B8F220E331E1B
:10338000420E531EA98DBA8D1496BA8FA98FF330B1
:1033900009F052CFB701C8010E94E7367B018C01CA
:1033A000F40165A376A387A390A785859685A78555
:1033B000B0890097A105B10509F4D6C16EA57FA516
:1033C00088A999A920E030E040E050E00E94FE3357
:1033D00088234CF489E996E7A6E9BEE78EA79FA764
:1033E000A8ABB9AB0FC09AA9992361F0C801B70186
:1033F0002EA53FA548A959A90E9405346EA77FA70D
:1034000088AB99AB60E070E080E89FE3A80197018A
:103410000E9405346FA378A789A79AA7DE011D969D
:10342000BAA3A9A3E2EFF4E0F8A3EF8F26E837E010
:103430003E8F2D8F80E090E0A0E0B0E08BA39CA3B6
:10344000ADA3BEA3DE015996BEABADABE9A1FAA117
:10345000E080F18002811381C801B70120E030E0F3
:1034600040E050E00E94FE33882309F47CC0C8018C
:10347000B7012FA138A549A55AA50E9452362B01A4
:103480003C01A9A1BAA16D937D938D939C93139751
:1034900060E070E080E89FE3A30192010E940534A0
:1034A0005B016C01E894D7F8C601B501ED8DFE8D86
:1034B00020813181428153810E9452367B018C01EF
:1034C0006EA57FA588A999A9A80197010E94FE333E
:1034D00087FD04C0EEA6FFA608AB19ABD4019196F8
:1034E000BC91BBABF401F2A1FCABD40193962C9040
:1034F000939794963C90C601B501ED8DFE8D248581
:103500003585468557850E9452367B018C016BA913
:103510007CA9C101A80197010E94FE3387FD05C067
:10352000D801C701EBAA9CAB1D018BA99CA9D101B5
:10353000F40181A392A3A3A3B4A3C301B201AF8DED
:10354000B8A12D913D914D915C910E9452369B0105
:10355000AC016BA17CA18DA19EA10E9419336BA32C
:103560007CA38DA39EA3E9A1FAA13496FAA3E9A3B3
:103570002F8D38A12C5F3F4F38A32F8F8D8D9E8DBF
:1035800004969E8F8D8FADA9BEA9EA17FB0709F09F
:103590005DCF9091E3048091E204981771F480E08C
:1035A00090E0A0E0B0E0F401818B928BA38BB48B10
:1035B000818F928FA38FB48F52C060E070E080E85B
:1035C0009FE32BA13CA14DA15EA10E94193320E0F5
:1035D00030E040E05FE30E9452360E94E7365B0134
:1035E0006C01D40191966D917D918D919C919497F0
:1035F0002091AF073091B0074091B1075091B207C9
:103600000E945236A60195010E9452367B018C0120
:1036100060E070E080E89FE3A60195010E94193305
:103620009B01AC01C801B7010E9405347B018C01EC
:1036300020E030E040E050E00E94FE33882354F464
:103640000F2EF0E0EF2EF0E0FF2EF0E00F2FF0E075
:103650001F2FF02DF401E18EF28E038F148F6EA5D3
:103660007FA588A999A99B01AC010E9452367B01D4
:103670008C01D4015D966D937D938D939C9390976F
:1036800059965C9059975A964C905A975B963C90F5
:103690005B975C962C90D090FE04C090FF04B09095
:1036A0000005A09001052D2D3C2D4B2D5A2D0E947B
:1036B000FE3387FD04C06D2C7C2CF50105C0D801BC
:1036C000C7013701FA2FEB2F652D742D832D922D15
:1036D00093014F2F5E2F0E94FE3388232CF4852DFB
:1036E000942DA32DB22D0EC0C801B7012D2D3C2D58
:1036F0004B2D5A2D0E94FE3387FD06C08D2D9C2D2B
:10370000AB2DBA2D7C018D01F401E58AF68A078B79
:10371000108FA2EFB4E0FE013D968CE001900D9277
:103720008150E1F7F401858D968DA78DB0A180932E
:10373000FE049093FF04A0930005B0930105A6EE4C
:10374000B4E0FE0131968CE001900D928150E1F7DA
:103750008091E4048093E3048F5F823109F480E078
:103760008093E4040E947D17E6960FB6F894DEBFBE
:103770000FBECDBFCF91DF911F910F91FF90EF90C2
:10378000DF90CF90BF90AF909F908F907F906F9081
:103790005F904F903F902F9008958CE1E6EEF4E01B
:1037A000DF011D928A95E9F71092E2041092E3047A
:1037B00081E08093E4041092E50408958F929F9233
:1037C000AF92BF92CF92DF92EF92FF920F931F932F
:1037D000DF93CF93CDB7DEB72A970FB6F894DEBF4D
:1037E0000FBECDBF7B018C01A42E20E030E040E075
:1037F00050E00E94FE3388233CF48DE20E94C023F7
:1038000017FB109517F91095DA2C0CC0C801B701F9
:1038100020E030E048EC52E40E9452367B018C01FB
:103820008EEFD80EE1E0ED1588F3A0FE0AC0C801C6
:10383000B70120E030E040E251E40E9452367B01C3
:103840008C01C801B70120E030E040E05FE30E9456
:103850001A330E946E346B017C019E012F5F3F4F33
:10386000F901EA0DF11D8EE28083BB2449011EC0DF
:10387000BA1409F4B39484010B0D111DC701B601EC
:103880002AE030E040E050E00E945937605DF801E6
:103890006083B394C701B6012AE030E040E050E015
:1038A0000E945937C901DA016C017D01C114D104AC
:1038B000E104F104E9F606C0FC01EB0DF11D2083E3
:1038C000B39403C0CE01019620E3BA14A8F3BA144E
:1038D00089F48B2D8F5FFE01E80FF11D90E391833A
:1038E000B82EB39407C0FE01EB0DF11D80810E943C
:1038F000C023BA94BB20B9F72A960FB6F894DEBF5E
:103900000FBECDBFCF91DF911F910F91FF90EF9030
:10391000DF90CF90BF90AF909F908F90089543E03D
:103920000E94DE1B08959B01AC018091B70780FFC8
:103930000AC0CA01B9012BE832E441E25DE30E940A
:10394000523641E003C0CA01B90140E00E94DE1BCB
:1039500008959B01AC018091B70780FF0AC0CA019E
:10396000B9012BE832E441E25DE30E94523644E0C3
:1039700003C0CA01B90143E00E94DE1B08951F93F2
:10398000DF93CF9300D0CDB7DEB7282F882321F463
:1039900080E30E94C0231EC010E0AE014F5F5F4F66
:1039A000FA01E10FF11D822F6AE00E944D37905D10
:1039B00090831F5F822F0E944D37282F882381F725
:1039C00007C0FE01E10FF11D80810E94C02311504C
:1039D0001123B9F70F900F900F90CF91DF911F91A6
:1039E00008950F931F93DF93CF93CDB7DEB728973A
:1039F0000FB6F894DEBF0FBECDBF982FFE013196F3
:103A00009E01275F3F4F892F817081939695E21722
:103A1000F307C9F78E01085F1F4FF8018081805DB1
:103A20000E94C023015010400C171D07B1F72896C3
:103A30000FB6F894DEBF0FBECDBFCF91DF911F91BF
:103A40000F910895CF93DF93EC0102C00E94C02331
:103A5000FE01219684918823C9F7DF91CF910895C3
:103A6000CF93DF93EC0103C021960E94C02388818D
:103A70008823D1F7DF91CF91089580910701877F47
:103A8000809307018091B70787FF08C080910801E4
:103A9000877F809308011092B906089580910801EC
:103AA00088608093080188E08093B906089580912A
:103AB000060188709091B906892708958091AC0617
:103AC0008130B9F48091060188709091B906891708
:103AD00081F01092AC06EDEAF6E0DF011E978CE073
:103AE0000D9001928150E1F780919D06886080934E
:103AF0009D0608958091AB06882341F09FB7F89406
:103B000080919D06826080939D069FBF0895CF930C
:103B1000DF9380919D06882309F48AC0C82FD0E0E6
:103B2000CE0180769070892B39F181E080939C06DC
:103B3000C6FF17C0C5FF02C08FEF01C08DEF0E9406
:103B40007E2381E00E94B41E9FB7F89480919D0669
:103B50008F7E80939D069FBF80919D0684FFFCCF42
:103B600003C08EEF0E947E239FB7F89480919D063C
:103B70008F7980939D069FBFC4FF04C081E080932E
:103B80009B065CC0C0FF0AC00E947A1F9FB7F894D2
:103B900080919D068E7F80939D069FBFC3FF15C0B9
:103BA00080919C06803149F480E280939C060E94BB
:103BB000FA270E941C281092AB069FB7F8948091B8
:103BC0009D06877F80939D069FBFC1FF1DC080918A
:103BD0009C06883089F480E180939C060E941C2812
:103BE0000E94A2278091B70781FF04C081E08093E3
:103BF000AB0602C01092AB069FB7F89480919D0669
:103C00008D7F80939D069FBFC2FF12C00E94261722
:103C1000892B21F088E080939C0602C010929C06BC
:103C20009FB7F89480919D068B7F80939D069FBFE0
:103C300080919C06847311F00E941C28DF91CF9123
:103C4000089580919C06803151F481E08093AB0609
:103C500006C00E94871D80919B06882341F40E9424
:103C60002617892BB1F780919C06803191F3089536
:103C70000F931F930E94AF1E80919C06813021F408
:103C800082E00E94B41E1CC010929C0682E095E067
:103C90000E94953115C09A3011F09D3029F5E12F21
:103CA000F0E0EE5FFA4F10820E94871D80919B0624
:103CB000882331F480910205882321F40E94131F88
:103CC00000E025C0843229F482E095E00E94C131F1
:103CD000F5CF80919C06813011F489E0EFCF82E02E
:103CE00095E00E944B05EACF002321F0993209F5B7
:103CF00000E01FC09132E8F09F32D9F0983211F401
:103D000001E017C01F3428F08BE00E94131F10E061
:103D100010C0892F8156A12FB0E0E12FEF5F8A31CB
:103D200020F4AE5FBA4F905202C0AE5FBA4F9C9380
:103D30001E2F0E940C24982F8F3F09F0ACCF0E94B9
:103D40007A1D0E94871D80919B06882391F31F9105
:103D50000F91089581E195E00E94221D08958FE35F
:103D600096E00E94221D08951F93182F89EA96E07D
:103D70000E94221D133091F0143028F4113041F0CC
:103D80001230B1F408C0143061F0153089F40CC061
:103D900087E996E00BC083E896E008C081E796E0EB
:103DA00005C089E696E002C080E696E00E94221DEA
:103DB0008CE596E00E94221D1F910895FF920F93BB
:103DC0001F93CF93DF938CE692E00E94221D0DEAB1
:103DD00016E0CAE7D7E0FF24F80160817181828193
:103DE00093810E94A134288139814A815B810E949C
:103DF00005340E94A91CF2E0FF1621F08AE692E049
:103E00000E94221DF3940C5F1F4F249683E0F81646
:103E100019F786E692E00E94221DDF91CF911F9153
:103E20000F91FF9008951F93182F882319F48BEF9B
:103E300097E05CC083EF97E00E94221D1730A9F144
:103E4000183078F4133029F1143030F41130C9F0FF
:103E5000123009F042C018C0153009F1163010F5C3
:103E60001BC01B3071F11C3028F4193021F11A30BD
:103E700028F51EC0153141F1163161F1143169F593
:103E800026C08BED97E002C089EC97E00E94221DCE
:103E90002BC087EB97E0FACF8DEA97E0F7CF8CE95C
:103EA00097E0F4CF8DE897E0F1CF8CE697E0EECF86
:103EB00083E697E0EBCF88E597E0E8CF85E497E0ED
:103EC000E5CF87E397E0E2CF81E297E0DFCF8DE0B7
:103ED00097E0DCCF89EF96E0D9CF87EE96E00E949D
:103EE000221D812F0E94BF1C84EE96E00E94221D9D
:103EF0001F9108958F929F92AF92BF92DF92EF929F
:103F0000FF920F931F93DF93CF93CDB7DEB76897E0
:103F10000FB6F894DEBF0FBECDBFDE011196EFE9FC
:103F2000F6E08CE001900D928150E1F780919C06C3
:103F30008430E1F0853038F48130D9F0813050F0B0
:103F40008230F1F419C0803159F0803261F088304C
:103F5000B9F403C08EEA91E011C087EA91E00EC087
:103F600082EA91E00BC08CE991E008C086E991E01B
:103F700005C08FE891E002C088E891E00E94221D10
:103F80008091AE0780FF3DC081E891E00E94221D34
:103F9000DD24EE24FF244E010894811C911C9DE039
:103FA000A92EB12CAC0EBD1EF401EE0DFF1D6081DB
:103FB0007181828193810E94A134F701E658F84F04
:103FC00020813181428153810E94053485010E0D8B
:103FD0001F1D9B01AC01F801208331834283538371
:103FE0000E94A91CF2E0DF1621F08FE791E00E9409
:103FF000221DD39484E090E0E80EF91E93E0D916D8
:1040000099F68091AE0781FF50C088E791E00E9449
:10401000221D8E01035F1F4F86E4E82E86E0F82EF6
:10402000DD24F7016081718182819381248535854A
:10403000468557850E941A339B01AC01F8016081C7
:104040007181828193810E941933F80160837183A9
:1040500082839383F2E0DF1679F420915E0630913B
:104060005F0640916006509161060E941933F80185
:104070006083718382839383F8016081718182817F
:1040800093810E94A91CF2E0DF1621F086E791E0FF
:104090000E94221DD3940C5F1F4F84E090E0E80E35
:1040A000F91E93E0D91609F0BCCF8091AE0782FFCC
:1040B00008C080E791E00E94221D0E9472170E94B2
:1040C000BF1C8091AE0783FF08C08BE691E00E9481
:1040D000221D0E949F230E94BF1C87E691E00E9440
:1040E000221D68960FB6F894DEBF0FBECDBFCF91EC
:1040F000DF911F910F91FF90EF90DF90BF90AF90F5
:104100009F908F9008950F931F938C0188EB91E0FF
:104110000E94221DC8010E94301D84EB91E00E9484
:10412000221D1F910F910895FF920F931F93F82E58
:104130008B018DEC91E00E94221D8F2D0E94BF1CEF
:104140008BEC91E00E94221DC8010E94301D88EC7A
:1041500091E00E94221D1F910F91FF900895809180
:104160002706823091F0833028F4882341F0813093
:10417000B1F408C0833061F0853089F40CC08BE362
:1041800092E00BC087E392E008C083E392E005C0B1
:104190008FE292E002C08AE292E00E94221D87E252
:1041A00092E00E94221D80912D068A5C0E94BF1C15
:1041B00080912B06813041F0813018F0823059F423
:1041C00006C082E292E005C08DE192E002C088E183
:1041D00092E00E94221D80912906882319F483E130
:1041E00092E002C08EE092E00E94221D80912A0699
:1041F000882319F489E092E002C084E092E00E94F2
:10420000221D80912806813019F48FEF91E002C0C1
:104210008AEF91E00E94221D80912E06813041F0AC
:10422000813018F0823059F406C086EF91E005C065
:1042300082EF91E002C08EEE91E00E94221D8091FB
:104240003006813029F0813048F0823059F403C0C3
:104250008AEE91E005C086EE91E002C082EE91E028
:104260000E94221D80912F06882319F0823041F48C
:1042700003C08EED91E002C08AED91E00E94221D04
:1042800087ED91E00E94221D809139060E94BF1C9B
:1042900084ED91E00E94221D6091350670913606F2
:1042A00080913706909138060E94931C80ED91E032
:1042B0000E94221D0895CF92DF92EF92FF920F93FA
:1042C0001F93DF93CF93CDB7DEB72C970FB6F8943B
:1042D000DEBF0FBECDBFEE246E010894C11CD11C01
:1042E0008E2DB6010E94C526882321F487E00E9406
:1042F000131F6BC083E692E00E94221D86E0E81641
:1043000021F0E7E0EE1649F403C080E692E002C037
:104310008DE592E00E94221D04C08E2D8A5C0E94D1
:10432000BF1C8BE592E00E94221D8601FF24F8014C
:1043300060817181828193810E94A91CF2E0FF1645
:1043400019F089E592E002C085E592E00E94221D05
:10435000F3940C5F1F4F83E0F81649F7E394E8E00D
:10436000EE1609F0BDCF8FE492E00E94221D02E517
:1043700016E0FF24F80160817181828193810E949F
:10438000A91CF2E0FF1619F08DE492E002C089E466
:1043900092E00E94221DF3940C5F1F4F83E0F816F9
:1043A00049F783E492E00E94221D60915E067091BD
:1043B0005F0680916006909161060E94A91C8FE3C0
:1043C00092E00E94221D0E94DE1E2C960FB6F894E9
:1043D000DEBF0FBECDBFCF91DF911F910F91FF9038
:1043E000EF90DF90CF900895FF920F931F93CF939C
:1043F000DF938DE095E00E94221D8091AA070E9424
:10440000BF1C84EF94E00E94221D8091AD070E94A2
:10441000BF1C86ED94E00E94221D8091AB070E9494
:10442000BF1C8DEB94E00E94221D8091AB070E947F
:10443000F11C86EB94E00E94221D8091AC070E9443
:10444000BF1C8EE994E00E94221D8091AC070E945F
:10445000F11C87E994E00E94221D8091B70790E04B
:10446000969587959695879581700E94BF1C86E7E3
:1044700094E00E94221D8091B70790E076E0969527
:1044800087957A95E1F781700E94BF1C86E594E0DC
:104490000E94221D90E08091B70787FD91E0892F4F
:1044A0000E94BF1C86E394E00E94221D8091AE070B
:1044B0000E94BF1C80E294E00E94221D8091AE0702
:1044C0000E94F11C88E194E00E94221D6091AF07D8
:1044D0007091B0078091B1079091B2070E948F1C34
:1044E00088EF93E00E94221D6091B3077091B4079A
:1044F0008091B5079091B6070E948F1C8DED93E0D7
:104500000E94221D8091B70781700E94BF1C80EC21
:1045100093E00E94221D8091B70790E096958795C1
:1045200081700E94BF1C86EA93E00E94221D809148
:10453000B70790E055E0969587955A95E1F7817019
:104540000E94BF1C8BE893E00E94221D8091B70758
:1045500090E043E0969587954A95E1F781700E9437
:10456000BF1C80E793E00E94221D8091B70790E076
:1045700034E0969587953A95E1F781700E94BF1CCB
:1045800084E593E00E94221D8091B8070E94BF1C21
:104590008AE393E00E94221D8091B8070E94F11CDB
:1045A00082E393E00E94221D6091B9077091BA07DF
:1045B0008091BB079091BC070E948F1C85E193E01E
:1045C0000E94221D6091BD077091BE078091BF07B8
:1045D0009091C0070E948F1C88EF92E00E94221DDC
:1045E0008091C1070E94BF1C89ED92E00E94221DAC
:1045F0006091C3077091C4078091C5079091C60769
:104600000E948F1C80EC92E00E94221D10E024E6A4
:10461000F22E6AC08EEB92E00E94221D802F8F0D39
:104620000E94BF1C8CEB92E00E94221D113061F0B1
:10463000113028F0123069F01330E9F415C06881A8
:1046400079818A819B8115C06C857D858E859F854A
:1046500010C0688D798D8A8D9B8D20E030E041E619
:1046600055E40E94053405C06CA17DA18EA19FA1D7
:1046700090580E948F1C89EB92E00E94221D01300D
:1046800041F0013018F0023059F406C087EB92E097
:1046900005C085EB92E002C083EB92E00E94221DF0
:1046A000113051F0113028F0123049F0133071F40C
:1046B00009C089EA92E008C087E992E005C086E86F
:1046C00092E002C086E792E00E94221D82E792E01B
:1046D0000E94221D0F5F2496033009F09BCF1F5FBD
:1046E000143031F08AE0F80ECAE7D7E000E092CF4C
:1046F000DF91CF911F910F91FF9008951F93182F75
:104700008CED96E00E94221D1E3F41F01F3F19F0E4
:104710001D3F59F406C08CEC96E005C089EB96E08D
:1047200002C08EEA96E00E94221D8BEA96E00E946B
:10473000221D84EF91E00E94DF161F910895909151
:10474000530580915205891710F0891B08958058F0
:10475000891B0895E0ECF0E08081826080831092F4
:10476000C50080E18093C400E1ECF0E080818061CD
:1047700080838081886080838081806880830895C1
:10478000282FE09154059E2F9F5F903431F490E0E4
:1047900004C080919D0684FD0FC080915505981737
:1047A000C1F3F0E0E654F94F2083909354058091D3
:1047B000C10080628093C10008951F920F920FB6CE
:1047C0000F920BB60F9211248F939F93EF93FF9349
:1047D00080915505E82FF0E0E654F94F90819093D1
:1047E000C600982F9F5F903409F490E09093550590
:1047F00080915405981729F48091C1008F7D809392
:10480000C100FF91EF919F918F910F900BBE0F9080
:104810000FBE0F901F9018959091530580915205EF
:10482000891711F48FEF0895E92FF0E0E650F94F62
:104830008081E92FEF5FE03809F4E0E0E093530571
:104840000895809152058093530508951F920F9209
:104850000FB60F920BB60F9211242F933F934F93E5
:104860005F936F937F938F939F93AF93BF93EF93D8
:10487000FF932091C6002132C9F0223218F428316A
:10488000F1F41AC02F3319F02E37C9F406C09FB7C0
:10489000F89480919D06816005C09FB7F89480913F
:1048A0009D06826080939D069FBF1AC09FB7F894B3
:1048B00080919D068860F6CF0E94DD1111C0E091C5
:1048C00052059E2F9F5F903809F490E08091530528
:1048D000981731F0F0E0E650F94F2083909352059D
:1048E000FF91EF91BF91AF919F918F917F916F91C8
:1048F0005F914F913F912F910F900BBE0F900FBE84
:104900000F901F901895882311F484E0089581304A
:1049100011F080E1089588E00895882311F480E281
:104920000895813011F080E8089580E40895882387
:1049300011F480E10895813011F080E4089580E25F
:10494000089580E090E00E944B04893011F020E04F
:104950000CC08AE797E061E070E04DE450E00E940F
:10496000BF0420E0892B09F021E0822F089580E028
:1049700090E069E00E94530481E090E06AE777E00C
:104980004DE450E00E9475040895CF92DF92EF92BB
:10499000FF920F931F93082F6A017B01CB01BA018D
:1049A00020E030E040E050E00E94FE33882314F421
:1049B00084E015C1043608F459C0045690E0033071
:1049C00008F04BC0913089F0913030F09230D1F046
:1049D000933009F0FFC031C0E02FF0E0EE0FFF1F71
:1049E000EE0FFF1FE658F84F08C0E02FF0E0EE0F83
:1049F000FF1FEE0FFF1FEA57F84FC082D182E282FD
:104A0000F382E8C010E0000F111F000F111F0E56B7
:104A1000184FC701B60120E030E040E752E40E94A1
:104A2000523620E030E040E752E40E945236F8016E
:104A30006083718382839383CDC0E02FF0E0EE0F1B
:104A4000FF1FEE0FFF1FE256F84FD701C601B05807
:104A500080839183A283B383BDC00A3008F4BEC0B3
:104A60009F5F943009F4BAC00A50A9CFC701B601BC
:104A70000E942C370E947334E02FF0E0EC31F105F6
:104A800008F0ACC0EE58FF4FEE0FFF1F0590F491F9
:104A9000E02D1994633010F486E0A1C06093AA075A
:104AA00099C06093AD0796C06093AB0793C06093C5
:104AB000AC0790C0662321F08091B707846009C0DD
:104AC0008091B7078B7F05C0662331F08091B707CF
:104AD00080648093B7077EC08091B7078F7BF9CF42
:104AE000662321F08091B7078068F3CF8091B707E4
:104AF0008F77EFCF6093AE07C092AF07D092B00729
:104B0000E092B107F092B20765C0C092B307D092AD
:104B1000B407E092B507F092B6075CC0662321F0B7
:104B20008091B7078160D5CF8091B7078E7FD1CFB5
:104B3000662321F08091B7078260CBCF8091B707C1
:104B40008D7FC7CF662341F08091B70784FD02C0F7
:104B50008AE045C08062BDCF8091B7078F7DB9CF15
:104B6000662321F08091B707886003C08091B70762
:104B7000877F8093B7070E94C40E2CC0662321F064
:104B80008091B7078061A5CF8091B7078F7CA1CFB7
:104B90006093B8071FC0C092B907D092BA07E092DD
:104BA000BB07F092BC0716C0C092BD07D092BE07EB
:104BB000E092BF07F092C0070DC06093C10710924A
:104BC000C20708C0C092C307D092C407E092C507CD
:104BD000F092C6070E94B72480E001C083E01F91D5
:104BE0000F91FF90EF90DF90CF9008958AE080932F
:104BF000AA0789E18093AD071092AB0786E0809306
:104C0000AC0783E08093AE078AE097EDA3EABCE3AC
:104C10008093AF079093B007A093B107B093B2070A
:104C20008FE692E1A3E0BBE38093B3079093B407D0
:104C3000A093B507B093B6071092B80780E090E054
:104C4000A8ECB1E48093B9079093BA07A093BB078F
:104C5000B093BC0720E030E04AEF53E42093BD0757
:104C60003093BE074093BF075093C0078AEF90E090
:104C70009093C2078093C10780E090E0A0E8BFE373
:104C80008093C3079093C407A093C507B093C6074A
:104C900082E08093B70780E090E0AAE7B3E48093D6
:104CA0007A0790937B07A0937C07B0937D0780934E
:104CB0007E0790937F07A0938007B093810780932E
:104CC000820790938307A0938407B093850720936E
:104CD000860730938707409388075093890720936E
:104CE0008A0730938B0740938C0750938D0720934E
:104CF0008E0730938F07409390075093910780E081
:104D000090EAACE0B7E48093920790939307A09366
:104D10009407B09395078093960790939707A09375
:104D20009807B093990780939A0790939B07A09355
:104D30009C07B0939D0780E090E0A8E4B3EC8093DB
:104D40009E0790939F07A093A007B093A10780931D
:104D5000A2079093A307A093A407B093A5078093FD
:104D6000A6079093A707A093A807B093A9070E944E
:104D7000B72408959DE0899FC001112480509E4F63
:104D80004CE050E00E94750408950F931F93CF9359
:104D9000DF93162F072F9DE0899FE0011124C0505B
:104DA000DE4F862F972FBE014CE050E00E94BF04DB
:104DB000892B11F081E00FC0E12FF02F8CE0DF0193
:104DC0001D928A95E9F7CE01612F702F4CE050E0DB
:104DD0000E94750480E0DF91CF911F910F9108959B
:104DE000EF92FF921F93DF93CF93CDB7DEB72C974F
:104DF0000FB6F894DEBF0FBECDBF0E94A12488235A
:104E000039F487E00E94131F0E94F6250E94F421C6
:104E100010E07E010894E11CF11C812FB7010E9473
:104E2000C526882319F487E00E94131F1F5F1830DE
:104E3000A1F72C960FB6F894DEBF0FBECDBFCF9171
:104E4000DF911F91FF90EF900895BC0180EE93E0F9
:104E500040E550E00E9475040895CF93DF93EC0184
:104E600060EE73E040E550E00E94BF04892B11F032
:104E700081E009C0188280EE93E0BE0140E550E079
:104E80000E94750480E0DF91CF91089591E5899F9C
:104E9000C001112480509D4F40E550E00E947504F0
:104EA00008950F931F93CF93DF938B0191E5899F13
:104EB000E0011124C050DD4FCB01BE0140E550E0C0
:104EC0000E94BF04892B11F081E009C0F801108213
:104ED000CE01B80140E550E00E94750480E0DF910A
:104EE000CF911F910F910895E1E0F1E080818860FA
:104EF00080836B9AE2E0F1E08081877F8083089570
:104F0000E2E0F1E08081877F808308951F93182F6E
:104F100080919C068230A1F00E947A1D0E94211E81
:104F2000112321F480910201877F08C0113011F410
:104F3000739801C0739A8091020188608093020186
:104F40001F9108958091B70782FF02C02F9A01C078
:104F50002F9880919C068471A1F08091F605809332
:104F6000DE058091F5058093DD058091AA07880F05
:104F7000845081958093DC0580916F0082608093DE
:104F80006F0008951F920F920FB60F9211248F9306
:104F90009F9392B18091F5058C71937E892B82B994
:104FA00015BC9F918F910F900FBE0F901F90189579
:104FB00081B18C6181B9279A81B1806E81B9E1E8B4
:104FC000F0E080818F7E8083808188608083E0E84C
:104FD000F0E080818C7F808380818F708083EEE61B
:104FE000F0E08081887F808314BC15BC8081816063
:104FF00080830895CF93DF93C091F805D091F90590
:105000002097B9F081E08093FD052091130630913F
:1050100014064091150650911606CA01B9010E9466
:105020005236698B7A8B8B8B9C8B1092F905109280
:10503000F805DF91CF9108952F923F924F925F92A2
:105040006F927F928F929F92AF92BF92CF92DF9298
:10505000EF92FF920F931F93DF93CF93CDB7DEB7FD
:10506000E9970FB6F894DEBF0FBECDBF17C680918B
:10507000F8059091F905892B09F07EC20E94261748
:105080009093F9058093F805892B09F40EC6809159
:10509000FD05882319F01092FD05CAC08091FC051A
:1050A0008F5F8093FC05853011F41092FC05E09130
:1050B000FC0521E1E29FF0011124EA5AFA4FF09336
:1050C000FB05E093FA050091F8051091F905D80168
:1050D0008C91808311962D913D914D915C91149707
:1050E00073E0220F331F441F551F7A95D1F7218398
:1050F00032834383548315962D913D914D915C915C
:10510000189763E0220F331F441F551F6A95D1F78C
:10511000258336834783508719962D913D914D9174
:105120005C911C9793E0220F331F441F551F9A95E3
:10513000D1F721873287438754871D962D913D9162
:105140004D915C91509783E0220F331F441F551FF0
:105150008A95D1F7258736874787508B1D966D91A5
:105160007D918D919C9150970E949F346093FE0594
:105170007093FF058093000690930106F80125A126
:1051800036A147A150A50E9405349B01AC01609354
:10519000020670930306809304069093050660E070
:1051A00070E080EA9FE30E940534609306067093E6
:1051B0000706809308069093090680E090E0A0E03F
:1051C000B0E080930A0690930B06A0930C06B09370
:1051D0000D0680919C068032E1F420911B063091EF
:1051E0001C0640911D0650911E0620931306309315
:1051F00014064093150650931606CA01B9010E9481
:105200005236D80151966D937D938D939C9354970C
:105210000FC0F80161897289838994890E94E736F9
:1052200060931306709314068093150690931606E8
:1052300080E090E0A0E0B0E080930F06909310062D
:10524000A0931106B09312060091F8051091F9058C
:10525000D80191968D919D910D90BC91A02D88AB18
:1052600099ABAAABBBAB60E070E080E09FE328A9FC
:1052700039A94AA95BA90E9405341B012C01809120
:105280009C06803209F056C0B2E0B0930E06F801D9
:10529000A5A0B6A0C7A0D0A461887288838894888E
:1052A000C201B101A40193010E9452369B01AC01DD
:1052B000C601B5010E9419337B018C0120E030E06A
:1052C00040E050E00E94FE338823FCF468A979A9ED
:1052D0008AA99BA920E030E040E050EC0E945236C1
:1052E000A60195010E9452369B01AC01C401B30195
:1052F0000E941A330E94E73660931B0670931C06C7
:1053000080931D0690931E0637C1E0920F06F0921F
:105310001006009311061093120680E090E0A0E0C2
:10532000B0E080931B0690931C06A0931D06B093DB
:105330001E0622C110920E06F80185A196A1A7A112
:10534000B0A580931F0690932006A0932106B093EA
:1053500022060E94A5185B016C0160931B067093E6
:105360001C0680931D0690931E06A60195010E94BF
:1053700052363B014C012091F8053091F90539AFC7
:1053800028AFD90195968D919D910D90BC91A02D3E
:105390008B8F9C8FAD8FBE8FF90161897289838954
:1053A0009489A40193010E9419339B01AC01C201AD
:1053B000B1010E9452369B01AC016B8D7C8D8D8DAD
:1053C0009E8D0E941A3320E030E040E05FE30E94AF
:1053D00052367B018C0120E030E040E050E00E943A
:1053E000153618160CF0B4C0C801B7012B8D3C8DD2
:1053F0004D8D5E8D0E94FE3388230CF095C0A8ADC4
:10540000B9AD5D966D917D918D919C919097A40120
:1054100093010E9419339B01AC01C201B1010E94AA
:10542000523660932306709324068093250690934A
:105430002606A80197010E94FE3388230CF047C07E
:10544000E8ADF9ADE58CF68C078D10A1C801B70168
:105450000E94E7366093170670931806809319062A
:1054600090931A06A8ADB9AD5196AD90BD90CD9070
:10547000DC905497C601B501A80197010E94FE3344
:10548000882321F4B1E0B0930E0676C0C801B701BD
:10549000A60195010E9419339B01AC01C201B10123
:1054A0000E9452369B01AC0160911F06709120064C
:1054B00080912106909122060E94193360931F0665
:1054C00070932006809321069093220655C0E092A7
:1054D0001F06F09220060093210610932206E09208
:1054E0002306F09224060093250610932606E8ADC5
:1054F000F9AD21A132A143A154A1CA01B9010E9471
:105500001A33A80197010E945236A40193010E9408
:105510001A330E94E736609317067093180680933B
:10552000190690931A0628C0F2E0F0930E068091B7
:10553000130690911406A0911506B091160680935B
:10554000170690931806A0931906B0931A0614C074
:1055500080E090E0A0E0B0E080931F0690932006EA
:10556000A0932106B0932206A0921706B0921806C7
:10557000C0921906D0921A068091F305B6E08B9F6F
:10558000D0011124A555BA4FB9AFA8AF8091FC0541
:1055900012968C93E091F805F091F905FA8FE98F56
:1055A00085A196A1A7A1B0A58D8B9E8BAF8BB88F3F
:1055B000BC01CD01209106063091070640910806F6
:1055C000509109060E9419336CA37DA38EA39FA35B
:1055D00020E030E040E050E00E94FE33882344F4B5
:1055E00080E090E0A0E0B0E08CA39DA3AEA3BFA3B9
:1055F00080911F0690912006A0912106B09122066D
:10560000898B9A8BAB8BBC8B809117069091180677
:10561000A0911906B0911A068D879E87AF87B88B27
:105620008091230690912406A0912506B09126062C
:1056300089879A87AB87BC8780910F069091100667
:10564000A0911106B09112068D839E83AF83B88717
:1056500080911B0690911C06A0911D06B0911E061C
:1056600089839A83AB83BC8380911306909114063F
:10567000A0911506B091160688A399A3AAA3BBA36F
:1056800090910E069F8FAD88BE88CF88D88C8EE310
:1056900093ECAEE2B9E38CA79DA7AEA7BFA780E0CD
:1056A00090E0A0E0B0E088A799A7AAA7BBA70F2E1B
:1056B000FEE36F2EF3EC7F2EFEE28F2EF9E39F2E9A
:1056C000F02D9F8D992321F0913009F0B3C080C057
:1056D000C401B301A98DBA8D91962D913D914D9143
:1056E0005C9194970E9452367B018C0120E030E05F
:1056F00040E05FE30E9452369B01AC0168A179A1B2
:105700008AA19BA10E941A339B01AC01C401B30181
:105710000E9452369B01AC01C601B5010E941933AB
:105720005B016C0129893A894B895C890E94FE33AF
:1057300088230CF040C069897A898B899C892985E6
:105740003A854B855C850E94FE33882319F4B2E0CC
:10575000BF8F02C0E1E0EF8F6D897E898F89988DC0
:1057600029893A894B895C890E9419339B01AC01D4
:105770000E941A337B018C0168A179A18AA19BA1A7
:105780002D853E854F8558890E941A339B01AC01B7
:10579000C801B7010E9405343B014C01A988BA88B1
:1057A000CB88DC888D859E85AF85B88988A399A331
:1057B000AAA3BBA3B0C068A179A18AA19BA1A8019B
:1057C00097010E941A3368A379A38AA39BA3A3C05D
:1057D0006D857E858F859889A40193010E9452363C
:1057E0009B01AC01C601B5010E9419337B018C01FC
:1057F00029853A854B855C850E94FE3387FD03C071
:105800005701680188C0C601B50129853A854B85D5
:105810005C850E9419332D853E854F8558890E94ED
:1058200005343B014C01A984BA84CB84DC8492E02A
:105830009F8F71C0C401B301A98DBA8D91962D912E
:105840003D914D915C9194970E9452367B018C0161
:1058500068A179A18AA19BA1A80197010E94153690
:105860001816ACF5C801B70120E030E040E05FEB6E
:105870000E9452369B01AC0168A179A18AA19BA12B
:105880000E941A339B01AC01C401B3010E9452363D
:105890009B01AC01C601B5010E9419331B012C010B
:1058A0002D813E814F8158850E94153618167CF453
:1058B00068A179A18AA19BA1A80197010E9419332F
:1058C00068A379A38AA39BA36201510124C0C601E6
:1058D000B5012D813E814F8158850E9419339B016E
:1058E000AC010E941A337B018C0168A179A18AA1C5
:1058F0009BA129813A814B815C810E941A339B01D3
:10590000AC01C801B7010E9405343B014C01AD80D8
:10591000BE80CF80D88468A579A58AA59BA5A4015F
:1059200093010E941A3368A779A78AA79BA72CA581
:105930003DA54EA55FA50E94FE3388232CF46CA5DF
:105940007DA58EA59FA518C0C601B5012CA13DA1BE
:105950004EA15FA10E94153618160CF56CA57DA509
:105960008EA59FA52EE333EC4EE259E30E941A3335
:105970006CA77DA78EA79FA728A539A54AA55BA5DB
:105980000E9419333B014C01C601B5012D813E81B6
:105990004F8158850E94153618160CF492CE88A1B6
:1059A00099A1AAA1BBA18093130690931406A0937A
:1059B0001506B09316069F8D90930E06C601B5018D
:1059C000209102063091030640910406509105068D
:1059D0000E9452366CAB7DAB8EAB9FAB0E94EB331B
:1059E0001B012C016091FE057091FF05809100065E
:1059F000909101060E94EB333B014C01A201910101
:105A00000E9419330E947334A8ADB9AD6D937C9395
:105A1000672BB1F580919C06803291F580E090E093
:105A2000A0E0B0E08093130690931406A0931506AF
:105A3000B093160680930A0690930B06A0930C066B
:105A4000B0930D062092FE053092FF0540920006AD
:105A5000509201060091F8051091F905C201B101BB
:105A600020910206309103064091040650910506EC
:105A70000E940534F80165A376A387A390A702C10D
:105A800068A579A58AA59BA520910A0630910B06E9
:105A900040910C0650910D060E941A337B018C0137
:105AA000C401B3012CA93DA94EA95FA90E941933D5
:105AB0009B01AC01C801B7010E9405347B018C0138
:105AC000C201B1012CA93DA94EA95FA90E941933B9
:105AD000A80197010E94523660930A0670930B0644
