:100000000C94C2030C94DF030C94DF030C94F40EE5
:100010000C94C5300C94DF030C94DF030C94DF03C5
:100020000C94DF030C94DF030C94DF030C94822EFA
:100030000C94DF030C94DF030C94DF030C94DF03B8
:100040000C9441270C94DF030C94BB230C9476236F
:100050000C94DF030C94DF030C94DF030C94DF0398
:100060000C94DF030C94DF03DB24E224E524E82472
:10007000EB24F52401257F257F257F250B250D25E4
:1000800016251F2529257F257F257F257F257F256F
:10009000332541254F2559255C2565256E2573257A
:1000A000084AD73B3BCE016E84BCBFFDC12F3D6CDF
:1000B00074319ABD56833DDA3D00C77F11BED9E445
:1000C000BB4C3E916BAAAABE000000803F05A84C25
:1000D000CDB2D44EB93836A9020C50B991868808F1
:1000E0003CA6AAAA2ABE000000803F3E0D0A002CB2
:1000F00052583A002C4275663A002C002C57506F2B
:10010000733A002C002C4D506F733A003C436865E5
:10011000636B003C416C61726D003C486F6D650023
:100120003C486F6C64003C52756E003C51756575BF
:1001300065003C49646C65005D0D0A005B302E393A
:10014000672E32303134303732353A000D0A003DF7
:1001500000244E005D0D0A00204600205400204D72
:100160003800204D3900204D3500204D3400204D01
:100170003300204D3200204D3100204D300020470B
:1001800039340020473933002047393100204739BE
:1001900030002047323000204732310020473139CB
:1001A00000204731380020473137002047005B47A7
:1001B0003830005B4733005B4732005B4731005B00
:1001C0004730005D0D0A005B544C4F3A005D0D0A4C
:1001D000002C005B4739323A005D0D0A002C003AD2
:1001E000003330003238005B47005D0D0A002C0000
:1001F0005B5052423A00290D0A00206D617820744C
:10020000726176656C2C206D6D0020616363656C96
:100210002C206D6D2F7365635E3200206D61782038
:10022000726174652C206D6D2F6D696E002C2073CA
:100230007465702F6D6D007A0079007800202800B9
:100240003D0024002028686F6D696E672070756C12
:100250006C2D6F66662C206D6D290D0A00202868B4
:100260006F6D696E67206465626F756E63652C20C3
:100270006D736563290D0A2432373D002028686FAD
:100280006D696E67207365656B2C206D6D2F6D69D0
:100290006E290D0A2432363D002028686F6D696E84
:1002A0006720666565642C206D6D2F6D696E290D64
:1002B0000A2432353D00290D0A2432343D0020281D
:1002C000686F6D696E672064697220696E76657209
:1002D00074206D61736B3A002028686F6D696E67DA
:1002E000206379636C652C20626F6F6C290D0A2482
:1002F00032333D00202868617264206C696D697436
:10030000732C20626F6F6C290D0A2432323D00205D
:1003100028736F6674206C696D6974732C20626F2A
:100320006F6C290D0A2432313D0020286175746FED
:100330002073746172742C20626F6F6C290D0A2413
:1003400032303D0020287265706F727420696E63D0
:100350006865732C20626F6F6C290D0A2431343D5F
:1003600000202861726320746F6C6572616E636532
:100370002C206D6D290D0A2431333D0020286A752B
:100380006E6374696F6E20646576696174696F6EFF
:100390002C206D6D290D0A2431323D00290D0A24CF
:1003A00031313D002028737461747573207265705B
:1003B0006F7274206D61736B3A00202870726F62E7
:1003C000652070696E20696E766572742C20626F8C
:1003D0006F6C290D0A2431303D0020286C696D694D
:1003E000742070696E7320696E766572742C206259
:1003F0006F6F6C290D0A24363D00202873746570D8
:1004000020656E61626C6520696E766572742C2061
:10041000626F6F6C290D0A24353D00290D0A2434C2
:100420003D00202864697220706F727420696E76B6
:10043000657274206D61736B3A00290D0A24333D97
:100440000020287374657020706F727420696E7656
:10045000657274206D61736B3A0020287374657047
:100460002069646C652064656C61792C206D73650E
:1004700063290D0A24323D002028737465702070B2
:10048000756C73652C2075736563290D0A24313DE5
:100490000024303D002424202876696577204772A7
:1004A000626C2073657474696E6773290D0A242366
:1004B000202876696577202320706172616D6574EC
:1004C000657273290D0A24472028766965772070A4
:1004D0006172736572207374617465290D0A244E0C
:1004E0002028766965772073746172747570206254
:1004F0006C6F636B73290D0A24783D76616C7565AA
:10050000202873617665204772626C20736574746D
:10051000696E67290D0A244E783D6C696E65202846
:1005200073617665207374617274757020626C6F8C
:10053000636B290D0A24432028636865636B206779
:10054000636F6465206D6F6465290D0A2458202847
:100550006B696C6C20616C61726D206C6F636B29D0
:100560000D0A2448202872756E20686F6D696E67C9
:10057000206379636C65290D0A7E20286379636C9A
:1005800065207374617274290D0A212028666565DF
:100590006420686F6C64290D0A3F202863757272AD
:1005A000656E7420737461747573290D0A637472B7
:1005B0006C2D7820287265736574204772626C29EF
:1005C0000D0A000D0A4772626C20302E3967205BDD
:1005D00027242720666F722068656C705D0D0A0005
:1005E0005D0D0A0044697361626C656400456E616B
:1005F000626C65640043617574696F6E3A20556E74
:100600006C6F636B656400272448277C2724582778
:1006100020746F20756E6C6F636B00526573657428
:1006200020746F20636F6E74696E7565005B000DDA
:100630000A0050726F6265206661696C0041626FEA
:10064000727420647572696E67206379636C6500EB
:10065000486172642F736F6674206C696D697400F1
:10066000414C41524D3A20000D0A00496E76616CB2
:1006700069642067636F64652049443A00556E647D
:100680006566696E6564206665656420726174657F
:1006900000556E737570706F7274656420636F6D52
:1006A0006D616E64004D6F64616C2067726F757070
:1006B0002076696F6C6174696F6E004C696E65209D
:1006C0006F766572666C6F7700486F6D696E672034
:1006D0006E6F7420656E61626C656400416C61725E
:1006E0006D206C6F636B004E6F742069646C6500E5
:1006F000454550524F4D2072656164206661696CBA
:100700002E205573696E672064656661756C74731D
:100710000056616C7565203C20332075736563005D
:1007200053657474696E672064697361626C656493
:100730000056616C7565203C203000496E76616C16
:1007400069642073746174656D656E7400426164E0
:10075000206E756D62657220666F726D6174004502
:100760007870656374656420636F6D6D616E64207D
:100770006C6574746572006572726F723A20006FF6
:100780006B0D0A0011241FBECFEFD8E0DEBFCDBF36
:1007900011E0A0E0B1E0E2EDFDE602C005900D92AF
:1007A000A030B107D9F716E0A0E0B1E001C01D927A
:1007B000A73CB107E1F70E9443110C94E7360C9473
:1007C00000003B9A43980895439808951F93182F6B
:1007D00080919C05823049F00E94131D0E94BA1D31
:1007E000123011F4439A01C043981F910895F9996A
:1007F000FECF92BD81BD81E08FBB80B50895F89496
:10080000F999FECF92BD81BD81E08FBB40B54627EF
:10081000842F992787FD9095262F30E082239323FC
:10082000892B39F06F3F19F060BD84E006C084E188
:1008300004C0442321F060BD84E28FBBF99A789410
:1008400008958F929F92AF92BF92CF92DF92EF92D4
:10085000FF920F93DF93CF9300D0CDB7DEB75C014B
:100860006B017A014A0100E01EC0002319F021E06B
:1008700030E008C0202F332727FD30952227330F83
:10088000221F3327F60161916F01062F020F9C0191
:100890002F5F3F4F3A8329830E94FF03089481080A
:1008A000910889819A8181149104F9F6C7018A0D12
:1008B0009B1D602F0E94FF030F900F90CF91DF913F
:1008C0000F91FF90EF90DF90CF90BF90AF909F90EF
:1008D0008F900895CF93DF93EC01FB019A0190E094
:1008E000B1E019C0F999FECFF2BDE1BDBFBBA0B523
:1008F000992319F081E090E008C0892F992787FD9E
:1009000090958827990F881F992731969A2F980FCD
:10091000A993215030402115310521F7460F571F6B
:10092000F999FECF52BD41BD81E08FBB80B520E07B
:1009300030E0981711F421E030E0C901DF91CF9148
:10094000089560919F057091A0058091A1059091F7
:10095000A2050E940D3420917A0630917B064091C9
:100960007C0650917D060E94713360933A05709326
:100970003B0580933C0590933D056091A3057091E4
:10098000A4058091A5059091A6050E940D342091A3
:100990007E0630917F0640918006509181060E942C
:1009A000713360933E0570933F05809340059093AB
:1009B00041056091A7057091A8058091A9059091C6
:1009C000AA050E940D342091820630918306409141
:1009D0008406509185060E9471336093420570939E
:1009E0004305809344059093450508952F923F92C7
:1009F0004F925F926F927F928F929F92AF92BF922F
:100A0000CF92DF92EF92FF920F931F93DF93CF93DA
:100A1000CDB7DEB7A8970FB6F894DEBF0FBECDBF37
:100A20001C01E2E6F5E089E3DF011D928A95E9F712
:100A30003196A7E2B5E08AE00D9001928150E1F78E
:100A400019821CA277246624AA24BB241F8E1E8E22
:100A500061E0462E512C9924939452E0852E6AC26F
:100A6000802F81548A3118F081E00C94410E9F5FF1
:100A70009983C101BE016F5F7F4FAE014E5F5F4F33
:100A80000E94CD15882319F482E00C94410ECA808F
:100A9000DB80EC80FD80C701B6010E9498360E9481
:100AA000DF33162F70E0882777FD8095982F0E94FE
:100AB0000D349B01AC01C701B6010E94853220E0D4
:100AC00030E048EC52E40E94BE350E9429360E9474
:100AD000DF33262F073421F00D3409F052C10AC14B
:100AE000163209F496C01732F0F4143170F4113153
:100AF00008F0BAC0143009F443C0143008F489C0B7
:100B00001A3011F00C94300E32C01C3181F11D31BD
:100B100028F4163110F00C94300EC8C01E3111F0BC
:100B20000C94300E24C0103509F47AC0113588F4C5
:100B3000153331F1163340F41B3209F4C0C01133C0
:100B400011F00C94300EBBC01C3310F00C94300E1E
:100B5000CAC01C3561F01D3528F41A3510F40C9408
:100B6000300E92C01F3510F00C94300E96C0222328
:100B700039F4BCA1BB2311F00C942E0EE1E0ECA3E0
:100B80001C31A9F01D3128F4143051F01A3069F4E9
:100B90000AC0153351F11C3561F11E3131F416C014
:100BA0009092620502C08092620580E0A0C022237C
:100BB00029F02A3011F00C94300E04C0F3E0F093C9
:100BC000620521C024E0209362051DC0222329F084
:100BD0002A3011F00C94300E04C085E08093620539
:100BE00012C096E0909362050EC0A7E0A093620544
:100BF000DCCF222329F02A3011F00C94300E05C0EE
:100C0000B8E0B093620580E0ADC0E9E0E093620532
:100C1000FACFFCA1FF2311F00C942E0E82E08CA3DE
:100C2000123089F0133028F4112351F01130D1F42F
:100C30000AC0163259F0103591F0133099F403C000
:100C4000109263050FC0109363050CC0243111F09E
:100C50000C94300E94E09093630581E083C0A5E08E
:100C6000A093630581E043C0123139F0133149F09C
:100C7000113129F41092670502C09092670582E055
:100C800036C080926705FBCF1A3519F410926605BD
:100C900002C09092660583E02AC01D3519F4909237
:100CA000640502C01092640584E021C0143119F477
:100CB0009092650502C01092650585E018C0BCA140
:100CC000BB2309F0CBC7113329F410926805E3E088
:100CD000ECA307C02A3009F0C3C790926805F3E07F
:100CE000FCA386E03FC016531093690587E02223DA
:100CF000C9F1B8C7662309F0B5C7163018F4133028
:100D0000B0F408C0183008F4ABC71A3000F11E3137
:100D100009F0A6C7123041F01E3131F0112311F451
:100D200090926A0588E01EC080926A05FBCF14305D
:100D300039F0153041F0133041F490926C0505C044
:100D400080926C0502C010926C0589E00BC01830CF
:100D500019F0193031F403C080926B0502C0109273
:100D60006B058AE0920102C0220F331F8A95E2F7D9
:100D7000C9018A219B21892B09F076C7A22AB32AAF
:100D8000D9C0003509F46BC001359CF40A34E9F18F
:100D90000B3434F4063421F1093409F061C72AC058
:100DA0000C3409F44AC00C34E4F10E3409F058C78D
:100DB00048C0043599F005353CF4023509F459C0B2
:100DC000033509F04DC75FC0093509F472C00A3513
:100DD00009F47BC0083509F043C75FC029E080C033
:100DE000C0926D05D0926E05E0926F05F09270058D
:100DF00020E076C0C0927105D0927205E092730532
:100E0000F092740521E0622A6BC0C0927505D09201
:100E10007605E0927705F092780582E0682A22E074
:100E20005FC0C0927905D0927A05E0927B05F0927E
:100E30007C0594E0692A23E053C010937D0524E0EB
:100E40004FC0C701B6010E94DA3360937E057093EC
:100E50007F05809380059093810525E041C0C09275
:100E60008205D0928305E0928405F092850526E004
:100E700037C0C0928605D0928705E0928805F0922F
:100E8000890527E02DC0C0928A05D0928B05E0929B
:100E90008C05F0928D0528E023C0C0928F05D0927A
:100EA0009005E0929105F0929205A1E07A2A2AE05D
:100EB00017C0C0929305D0929405E0929505F092E8
:100EC0009605B2E07B2A2BE00BC0C0929705D0922A
:100ED0009805E0929905F0929A05E4E07E2A2CE0CC
:100EE0008201022E02C0000F111F0A94E2F78E8DBC
:100EF0009F8D80239123892B11F089E1C2C681E661
:100F000093E002C0959587952A95E2F780FF0CC083
:100F1000C701B60120E030E040E050E00E946A33B3
:100F2000882314F484E0ADC68E8D9F8D802B912B89
:100F30009F8F8E8F9981F101E90FF11D00810023B0
:100F400009F08ECD772029F09CA1992311F4A2E01D
:100F5000ACA3BE8DB5FF0FC080917E0590917F053B
:100F6000A0918005B091810580589649A849B0406C
:100F700014F08BE186C680916405813039F4FCA1C0
:100F8000F230B1F52E8D20FD33C070C6809128055A
:100F9000882371F58E8D80FF1BC08091650581309F
:100FA00039F560916D0570916E0580916F05909196
:100FB000700523E333E34BEC51E40E94BE356093AC
:100FC0006D0570936E0580936F059093700510C04A
:100FD0008091350590913605A0913705B09138057F
:100FE00080936D0590936E05A0936F05B093700587
:100FF000AE8DBF8DB0FD10C080913105909132054E
:10100000A0913305B091340580938A0590938B05A8
:10101000A0938C05B0938D0580916205813041F4D9
:10102000BE8DB6FF25C6EE8DFF8DEF7BFF8FEE8F59
:1010300080916705882341F0813061F4F2E0FBA3E1
:1010400021E029A31AA20BC01BA282E089A391E090
:101050009AA305C0A1E0ABA319A2B2E0BAA3809104
:101060006505813059F54FE8E42E45E0F42E00E0A7
:1010700010E0C72CDD24C601002E02C0959587958F
:101080000A94E2F780FF11C0F701608171818281CB
:10109000938123E333E34BEC51E40E94BE35D70147
:1010A0006D937D938D939C9313970F5F1F4FE4E097
:1010B000F0E0EE0EFF1E03301105E9F6FCA1F3305F
:1010C00049F480916805813029F424E0721611F00A
:1010D00086E2D7C5DE011696E6E4F5E08CE00190E5
:1010E0000D928150E1F7A7FE12C0909169059730EB
:1010F00008F0C0C580912D05891749F0892FBE01E0
:101100006A5F7F4F0E945626882309F4B5C58091F7
:101110006205823021F0883009F0FDC09AC0772046
:1011200009F4ACC58E8D9F8D80759070892B09F464
:101130009FC560918205709183058091840590918F
:1011400085050E9498360E94DF33673008F092C50B
:1011500020917D05243131F0223009F081C58E8D3A
:1011600087FD7EC5662319F0615068A303C0909186
:10117000690598A38E010E5E1F4F88A1B8010E94D9
:101180005626882309F478C578013FE8832E35E098
:10119000932E2AE3C22E25E0D22E00E010E0A72CE9
:1011A000BB24C501002E02C0959587950A94E2F7ED
:1011B00080FF3BC080917D05843169F5D6016D913A
:1011C0007D918D919C91139758962D913D914D91C4
:1011D0005C915B970E948532F401208131814281CC
:1011E00053810E948532D7016D937D938D939C939B
:1011F00013970230D1F420915E0530915F05409144
:101200006005509161050E948532F701608371830A
:10121000828393830AC0F40180819181A281B3818A
:10122000F70180839183A283B3830F5F1F4F84E014
:1012300090E0E80EF91E880E991EC80ED91E0330E4
:10124000110509F0AECFAE8DBF8DAF7ABF8FAE8FD7
:10125000FCC0772009F412C50FE815E09AE3C92E07
:1012600095E0D92E86E0882E912C8C0E9D1EEE24C2
:10127000FF24A72CBB24C5010E2C02C09595879591
:101280000A94E2F780FF2CC0F601608171818281AF
:101290009381D4012D913D914D915C910E948532B5
:1012A000F80120813181428153810E948532D80129
:1012B0006D937D938D939C931397B2E0EB16D1F4CD
:1012C00020915E0530915F05409160055091610568
:1012D0000E948532F80160837183828393830AC000
:1012E000F601808D918DA28DB38DF801808391835D
:1012F000A283B3830894E11CF11C0C5F1F4F84E0B0
:1013000090E0C80ED91E880E991E93E0E916F104EC
:1013100009F0B1CF99C0ACA1A33009F47CC077200B
:1013200009F479C01AE3C12E15E0D12E0FE815E0BB
:10133000B6E0AB2EB12CAC0EBD1EEE24FF24872CE4
:101340009924C4010E2C02C0959587950A94E2F762
:1013500080FD0BC0F60180819181A281B381F801EB
:1013600080839183A283B38346C0809162058730D6
:1013700009F441C080916605882361F5D5016D911E
:101380007D918D919C91F601208D318D428D538DF3
:101390000E948632D8012D913D914D915C910E9421
:1013A0008632F8016083718382839383F2E0EF16C3
:1013B00011F520915E0530915F05409160055091D7
:1013C00061050E948632D8016D937D938D939C9325
:1013D000139711C0F8016081718182819381D601D8
:1013E0002D913D914D915C910E948632F801608370
:1013F0007183828393830894E11CF11C84E090E064
:10140000C80ED91E0C5F1F4FA80EB91E93E0E91637
:10141000F10409F096CF80916205853031F0873074
:1014200069F0833089F486E001C087E0BE016E5E1A
:101430007F4F0E945626882339F41EC4809163058D
:10144000823010F08EE11DC418A210916305153092
:1014500049F4772009F465C2ACA1A13009F461C256
:101460008FE10FC4BCA1B23009F05BC21123E9F0D7
:1014700060916D0570916E0580916F05909170057A
:1014800020E030E040E050E00E946A33882309F415
:10149000EDC3143030F4123060F4113009F041C261
:1014A00004C0143009F03DC213C2772009F438C2D9
:1014B00038C2772009F4E2C3FBA1EF2FF0E0F8A7D0
:1014C000EFA39AA1892F90E09EA38DA381E090E0E5
:1014D0008C010DA002C0000F111F0A94E2F70FA0AB
:1014E00002C0880F991F0A94E2F7082B192B872D49
:1014F00090E080239123892B11F480E2C2C3EFA1F5
:10150000F8A5EE0FFF1FEE0FFF1FDF01A95DBA4F19
:10151000EE59FA4F65A576A587A590A953962D910A
:101520003D914D915C9156970E9485325B016C0113
:10153000EDA1FEA1EE0FFF1FEE0FFF1FDF01A95D62
:10154000BA4FEE59FA4F65A576A587A590A953968F
:101550002D913D914D915C9156970E9485321B01D2
:101560002C01AE8DA7FF02C10AE315E06FE8E62E5D
:1015700065E0F62EF8016081718182819381D70147
:101580002D913D914D915C910E946A33882359F4CD
:101590000C5F1F4FE4E0F0E0EE0EFF1EF5E00634B6
:1015A0001F0741F76DC3809165058130B1F46091EB
:1015B000860570918705809188059091890523E3C0
:1015C00033E34BEC51E40E94BE3560938605709383
:1015D00087058093880590938905E0908605F090B3
:1015E00087050091880510918905C801B70120E0A1
:1015F00030E040E850E40E94BE35A80197010E9407
:10160000BE357B018C01C601B501A60195010E9482
:10161000BE359B01AC01C801B7010E9485327B0138
:101620008C01C201B101A20191010E94BE359B0152
:10163000AC01C801B7010E9485327B018C0120E01A
:1016400030E040E050E00E946A33882314F482E2E4
:1016500018C3C801B7010E9453367B018C01C60133
:10166000B501A20191010E948F169B01AC0117FBED
:10167000109517F91095C801B7010E9471337B01CD
:101680008C0180916305833021F417FB109517F9C5
:1016900010956090860570908705809088059090E1
:1016A0008905C401B30120E030E040E050E00E9431
:1016B0006A3388237CF417FB109517F91095D40131
:1016C000C301B0588093860590938705A093880541
:1016D000B09389058E8D9F8D8F779F8F8E8FAFA151
:1016E000B8A5AA0FBB1FAA0FBB1FAA59BA4FB8A70C
:1016F000AFA3C201B101A80197010E94BE359B01B1
:10170000AC01C601B5010E94853220E030E040E026
:101710005FE30E94BE35EFA1F8A5638774878587D4
:1017200096878DA19EA1880F991F880F991F8A59AE
:101730009A4F9EA38DA3C601B501A80197010E94EF
:10174000BE359B01AC01C201B1010E94863220E08E
:1017500030E040E05FE30E94BE35ADA1BEA11B9624
:101760006D937D938D939C931E97DBC0862C99245B
:1017700008211921012B11F483E283C2EE8DFF8D24
:10178000E17FFF8FEE8F80916505813041F531E774
:10179000E32E35E0F32E00E010E0C401002E02C07D
:1017A000959587950A94E2F780FF10C0D7016D9157
:1017B0007D918D919C9123E333E34BEC51E40E94A6
:1017C000BE35F70160837183828393830F5F1F4F60
:1017D00084E090E0E80EF91E03301105F1F6EFA069
:1017E000F8A4EE0CFF1CEE0CFF1CA6E6B5E0EA0E1A
:1017F000FB1EC601B501F701238534854585568555
:101800000E9485325B016C010DA11EA1000F111F0A
:10181000000F111F0A591A4FC201B101D8011B96BE
:101820002D913D914D915C911E970E9485329B01B7
:10183000AC01C601B5010E948F165B016C01F70176
:101840006385748585859685D8011B962D913D917C
:101850004D915C911E970E948F163B014C01609345
:101860008605709387058093880590938905C60146
:10187000B501A40193010E9485327B018C01E8949B
:1018800017F9C801B7012AE037ED43EA5BE30E948C
:10189000813518160CF045C0C801B70120E030E0D2
:1018A00040E05FE30E94813518160CF4E9C1C401E1
:1018B000B3012FE632E143E85AE30E94BE359B01B3
:1018C000AC01C801B7010E948135181654F5D8C182
:1018D000772009F4D3C10AE315E08FE8E82E85E00C
:1018E000F82EF8016081718182819381D7012D9159
:1018F0003D914D915C910E946A33882359F40C5FAD
:101900001F4FE4E0F0E0EE0EFF1EF5E006341F0787
:1019100041F7B6C10E94F21C882319F084E2B1C1DC
:101920001CA28E8D9F8D8E7D9C7F2CA1222321F069
:101930008E8D9F8D8E7D907E892B11F085E2A1C1C9
:10194000809164058093280580916D0590916E05C6
:10195000A0916F05B0917005809335059093360581
:10196000A0933705B0933805E0908A05F0908B0579
:1019700000918C0510918D056091310570913205B3
:101980008091330590913405A80197010E946A3334
:10199000882381F0E0923105F092320500933305FF
:1019A0001093340580913005882321F0B801A701F8
:1019B0000E940B2780918E058093390590916C05CC
:1019C00080913005891769F0909330054091310579
:1019D000509132056091330570913405892F0E9432
:1019E0000B2790916B0580912F05891729F0909313
:1019F0002F05892F0E94E60380916205813051F402
:101A00006091820570918305809184059091850590
:101A10000E94BC118091670580932B05809165051C
:101A2000809329058CA18330D9F480916805809337
:101A30002C05813049F48091970590919805A091EB
:101A40009905B0919A0504C080E090E0A0E0B0E074
:101A500080935E0590935F05A0936005B093610548
:101A60009091690580912D05891759F090932D0566
:101A7000A6E4B5E0FE0136968CE001900D9281500F
:101A8000E1F78091660580932A0580916205853093
:101A900059F1863048F4833039F1843008F044C07D
:101AA000823009F05AC00AC0883009F445C0893034
:101AB00009F44CC0863009F050C038C08E010E5E6B
:101AC0001F4F88A1B8010E944B2680912D0598A137
:101AD000891709F042C0A6E4B5E0F8018CE0019056
:101AE0000D928150E1F739C0ACA1AA2349F08FE8EB
:101AF00095E040E050E060E87FEB20E00E941712A4
:101B00008E010E5E1F4FC80140E050E060E87FEBA1
:101B100020E00E941712AAE3B5E0F8018CE00190E2
:101B20000D928150E1F719C086E001C087E06AE3B9
:101B300075E00E944B2611C0A2E5B5E0EFE8F5E0A4
:101B40008CE001900D928150E1F707C08CE0E2E556
:101B5000F5E0DF011D928A95E9F780916305809396
:101B60002705853009F465C0BCA1B23009F061C019
:101B7000843040F4823008F5882341F0813009F048
:101B80004FC00CC0843009F04BC03CC08FE895E0DA
:101B900040E050E060E87FEB20E00CC0409135056C
:101BA0005091360560913705709138058FE895E0C2
:101BB000209128050E94171233C000D0009186059D
:101BC000109187052091880530918905C0903505D1
:101BD000D0903605E0903705F09038058AA1EDB732
:101BE000FEB7818399A192838AE395E06FE875E05F
:101BF00041E755E0A09028058BA00E94E5120F90C8
:101C00000F900EC040913505509136056091370513
:101C1000709138058FE895E0209128050E944F12B9
:101C2000AAE3B5E0EFE8F5E08CE001900D92815079
:101C3000E1F780916A0580932E05882311F10E94B7
:101C4000BA1D1092AB0580912E05823019F40E94C6
:101C5000831102C010922E0580E013C088E111C0EC
:101C600084E10FC087E10DC085E10BC086E109C0AA
:101C70008CE107C08DE105C087E003C08AE101C0A7
:101C800081E2A8960FB6F894DEBF0FBECDBFCF910C
:101C9000DF911F910F91FF90EF90DF90CF90BF9059
:101CA000AF909F908F907F906F905F904F903F90FC
:101CB0002F900895E7E2F5E08BE3DF011D928A950E
:101CC000E9F780912D05BF01615E7F4F0E94562686
:101CD000882319F487E00E94AC1E089584B1817FA7
:101CE00084B98091B706982F86FF03C085B1817FA4
:101CF00002C085B18E6085B993FF09C080916B00E9
:101D00008E6080936B0080916800816008C0809134
:101D10006B00817F80936B00809168008E7F809341
:101D200068000895EBE6F0E08081817F8083E8E63B
:101D3000F0E080818E7F80830895CF92DF92EF92D2
:101D4000FF920F931F93CF93DF936C01C0E0D0E01D
:101D5000F601EC0FFD1FE080F18002811381C801C4
:101D6000B70120E030E040E050E00E9481351816D5
:101D70006CF0FE01E658F94FC801B70124A135A166
:101D800046A157A10E946A33882304F580919C05DF
:101D9000803179F49FB7F89480919D058860809395
:101DA0009D059FBF0E94201D80919B058823D1F334
:101DB00012C00E9483119FB7F89480919D058066A0
:101DC00080939D059FBF0E94201D05C02496CC30A6
:101DD000D10509F0BDCFDF91CF911F910F91FF90F9
:101DE000EF90DF90CF9008951F920F920FB60F9251
:101DF00011242F933F934F935F936F937F938F9310
:101E00009F93AF93BF93EF93FF9380919C05813095
:101E100071F080919D0585FD0AC00E9483119FB7D6
:101E2000F89480919D05806680939D059FBFFF91EA
:101E3000EF91BF91AF919F918F917F916F915F9142
:101E40004F913F912F910F900FBE0F901F901895BB
:101E50002F923F924F925F926F927F928F929F92BA
:101E6000AF92BF92CF92DF92EF92FF920F931F93A8
:101E7000DF93CF93CDB7DEB7A3970FB6F894DEBF4D
:101E80000FBECDBF8F8F80919B05882309F0E2C1E3
:101E90008091BD069091BE06A091BF06B091C0068C
:101EA0008F8B988FA98FBA8F4EE9A42E46E0B42E5F
:101EB0006624772488249924CC24DD241E010894E8
:101EC000211C311C34E0432E512C4C0E5D1E8C2DF8
:101ED0000E942824F101EC0DFD1D80838C2D0E94B1
:101EE0001424F201EC0DFD1D8083D501ED90FD90D1
:101EF0000D911C91B301C401A80197010E94813585
:101F0000181624F0C301D4017C018D010894C11C72
:101F1000D11CE4E0F0E0AE0EBF1EF3E0CF16D1041A
:101F200029F0D801C70137014D01D1CFC801B70150
:101F300020E030E040EC5FEB0E94BE355B016C01BD
:101F40000E94731B01E025E02D8B27E0422E512CCF
:101F50004C0E5D1E9F8D892F90E099A388A33501BB
:101F6000460197FA909497F890948091B70686FD71
:101F700002C00E8B03C0A1E0A027AE8B8091B806F3
:101F8000E82EFF241201920160E010E040E050E0F2
:101F9000742F88A199A1042E02C0959587950A9463
:101FA000E2F7FC01E170F070FBA3EAA380FF10C030
:101FB0006F5F002339F4D9016D927D928D929C92CE
:101FC00013970FC0F901A082B182C282D38209C0E7
:101FD00080E090E0A0E0B0E0F90180839183A283EB
:101FE000B383C70102C0959587957A95E2F780FF84
:101FF0000AC0F90180819181A281B381B0588083A8
:102000009183A283B3838AA19BA1892B41F0E4E051
:10201000F0E0EC0FFD1FE40FF51F8081182B4F5FE0
:102020005F4F2C5F3F4F4330510509F0B1CF70E057
:1020300080E090E00E940B340E9453369B01AC017B
:1020400010939E056F89788D898D9A8D0E94BE357B
:10205000AB01BC01C20120E00E946D180E949B27C9
:102060000E94212743B19E89992311F0AEE04A27AF
:1020700020E030E0E4E0F0E0EC0FFD1FE20FF31FA2
:102080009081812F892359F0E1E0F0E0EC0FFD1FF2
:10209000E20FF31F8081842311F0909519232F5FA5
:1020A0003F4F2330310531F710939E050E949B2747
:1020B00080919D0584FF03C00E94201DCBC0812F0D
:1020C0008C7181F60E94192E0E94731B8091C106AB
:1020D0009091C2060E9485168091B9069091BA0629
:1020E000A091BB06B091BC068F8B988FA98FBA8F39
:1020F0009D89992329F0A1E00A2791509D8B35CF26
:102100008091B806E82FF0E0FC8BEB8B4090C30683
:102110005090C4066090C5067090C606D301C201F7
:10212000B0588B8F9C8FAD8FBE8F9FE9C92E95E0E5
:10213000D92E8AE7A82E86E0B82E8824992488A173
:1021400099A1082C02C0959587950A94E2F780FF23
:102150003DC08B899C89082C02C0959587950A946F
:10216000E2F780FF23C0D5019496ED90FD900D918C
:102170001C919797C301B201A80197010E94863272
:10218000F1016083718382839383C801B701D50114
:102190002D913D914D915C910E94BE350E948E35EE
:1021A000F601608371838283938323C08B8D9C8D22
:1021B000AD8DBE8DF10180839183A283B383D6015F
:1021C0001D921D921D921C92139713C0F6016081FF
:1021D0007181828193810E940D34D5012D913D91B1
:1021E0004D915C910E947133F10160837183828310
:1021F00093830894811C911C24E030E0220E331E4E
:10220000C20ED31EA20EB31E33E08316910409F052
:1022100096CF0E94E7164091BD065091BE06609190
:10222000BF067091C006CE01079620E00E946D188F
:1022300088E080939C059FB7F89480919D0582600B
:1022400080939D059FBF0E94201D0E94BA1D84E0BF
:1022500080939C05A3960FB6F894DEBF0FBECDBF4A
:10226000CF91DF911F910F91FF90EF90DF90CF9072
:10227000BF90AF909F908F907F906F905F904F90A6
:102280003F902F9008951F930E9443230E94812620
:102290000E9457270E94B4308EE1EBE9F5E0DF01A0
:1022A0001D928A95E9F781E080939B05789480914F
:1022B000B70684FF03C081E080939C0511E00E9473
:1022C000B6230E945A0E0E9405270E94E1030E9435
:1022D0006E0E0E94E41C0E94731B0E94192E0E9425
:1022E000E7160E94A10410929B0510929D05809113
:1022F000B70681FF03C01093AB0502C01092AB0577
:102300000E94D11DDCCF80919D0584FD1AC08FB73E
:10231000F89490919D05906190939D058FBF0E94C8
:1023200009270E94E40380919C05847351F09FB7B4
:10233000F89480919D05806280939D059FBF0E94C7
:10234000ED2D089584E080939C050E94920E84E018
:102350000E94280F83E00E94280F0E94201D809178
:102360009B05882341F40E94A10410929C050E94C1
:10237000ED2D0E946E0E0895EF92FF920F931F9322
:10238000CF93DF937B018C0180919C05823009F40F
:1023900047C0C801B70120E030E040EA51E40E94A4
:1023A000BE350E9448340E94DF33EB010E94BA1D03
:1023B000C801B70120E030E04AE754E40E94BE358E
:1023C0007B018C0182E390E0C89FB001C99F700D32
:1023D000D89F700D112480E090E00E940B349B0187
:1023E000AC01C801B7010E9485320E9448340E94A6
:1023F000DF33DC01CB010E94851600E911E00EC03D
:102400000E94201D80919B05882351F484EF91E068
:10241000F8013197F1F70197D9F72197209781F7C4
:10242000DF91CF911F910F91FF90EF900895DF9270
:10243000EF92FF920F931F93CF93DF93EC017A01FA
:102440008B01D22E8091B70685FF03C0CE010E947A
:102450009D0E80919C058230D1F00E94201D8091BC
:102460009B058823A1F40E94DD16882319F00E94A1
:10247000131DF3CFCE01B801A7012D2D0E946D18B9
:1024800080919C05882319F488E080939C05DF9156
:10249000CF911F910F91FF90EF90DF9008957F9261
:1024A0008F929F92AF92BF92CF92DF92EF92FF9264
:1024B0000F931F93CF93DF936C014A015B01722E40
:1024C0000E94BA1D80919B05882309F070C0C60147
:1024D000B501A401272D0E94171281E08093AC055D
:1024E0009FB7F89480919D05826080939D059FBF62
:1024F0000E94201D80919B05882309F058C080917F
:102500009C05882311F0883099F78091AC058130C3
:1025100041F49FB7F89480919D05806480939D0558
:102520009FBF0E94201D80919B05882309F03FC01A
:102530000E94192E0E94731B0E94E7168DEAE82E56
:1025400085E0F82EC0E0D0E086010C0F1D1FF701DA
:1025500061917191819191917F010E940D34FE01F1
:10256000E658F94F20813181428153810E947133B5
:10257000F80160837183828393832496CC30D105E4
:1025800019F7C601B501A401272D0E9417128FB7B4
:10259000F89490919D05926090939D058FBF0E9445
:1025A000BA1D80919B05882311F40E94771EDF914C
:1025B000CF911F910F91FF90EF90DF90CF90BF9040
:1025C000AF909F908F907F9008952F923F924F925F
:1025D0005F926F927F928F929F92AF92BF92CF92B3
:1025E000DF92EF92FF920F931F93DF93CF93CDB7BC
:1025F000DEB7EF970FB6F894DEBF0FBECDBF9CAB32
:102600008BAB7EAB6DAB3A010FAB18AF29AF3AAFD6
:10261000CBAEDCAEEDAEFEAEAFAE9924880C991C0D
:10262000880C991C880D991D9AAB89AB9A01280DCD
:10263000391D38AB2FA7D901AD90BD90CD90DC905E
:10264000C601B501E9A9FAA92081318142815381EE
:102650000E9486326DA37EA38FA398A765966FAD67
:102660006597462E5524440C551C440C551C2BA92B
:102670003CA9240D351D3EA72DA7C301840D951D32
:102680009CA78BA7DC01ED90FD900D911C91C801DA
:10269000B701F90120813181428153810E94863244
:1026A00069A37AA38BA39CA3D601C501B0588D8FD3
:1026B0009E8FAF8FB8A3D801C701B058898F9A8F6A
:1026C000AB8FBC8FADA9BEA98A0E9B1EF4016081A1
:1026D0007181828193812DA13EA14FA158A50E94B5
:1026E00085323B014C012DA93EA9420E531ED20159
:1026F0006D917D918D919C9129A13AA14BA15CA1F5
:102700000E9485325B016C016D8D7E8D8F8D98A14D
:10271000A60195010E94BE357B018C01698D7A8DE1
:102720008B8D9C8DA40193010E94BE359B01AC0151
:10273000C801B7010E9485321B012C016D8D7E8D71
:102740008F8D98A1A40193010E94BE357B018C015D
:10275000698D7A8D8B8D9C8DA60195010E94BE3569
:102760009B01AC01C801B7010E9486329B01AC01FC
:10277000C201B1010E94FE325B016C01809127050C
:10278000823099F4C601B50120E030E040E050E02D
:102790000E9481358823ECF0C601B5012BED3FE0A6
:1027A00049EC50E40E94853212C0C601B50120E018
:1027B00030E040E050E00E946A33181654F0C60141
:1027C000B5012BED3FE049EC50E40E9486325B01FD
:1027D0006C01E090B306F090B4060091B50610913C
:1027E000B6066FA978AD89AD9AAD9B01AC010E9488
:1027F0008632A80197010E9485329B01AC01C80175
:10280000B7010E94BE350E9453367B018C01C60180
:10281000B50120E030E040E05FE30E94BE352FA923
:1028200038AD49AD5AAD0E94BE359F77A8019701DA
:102830000E9471330E9448340E94DF33788F6F8B7F
:102840006115710509F487C1BFADBB2381F080E03C
:1028500090E00E940B349B01AC016BAD7CAD8DAD63
:102860009EAD0E94BE356BAF7CAF8DAF9EAF2F8902
:10287000388DB90180E090E00E940B347B018C011F
:10288000C601B501A80197010E9471336B8B7C8B47
:102890008D8B9E8B6696EFAD6697F0E0EE0FFF1F77
:1028A000EE0FFF1F8BA99CA98E0F9F1F9AA789A7C8
:1028B000ADA9BEA9EA0FFB1F60817181828193815E
:1028C000E9A5FAA520813181428153810E94853298
:1028D000A80197010E9471336F87788B898B9A8B3F
:1028E0006B897C898D899E899B01AC010E94BE35D4
:1028F0009B01AC0160E070E080E090E40E948532D2
:102900005B016C016B897C898D899E892BEA3AEA8F
:102910004AE25EE30E94BE357B018C01C601B5012F
:1029200020E030E040E850E40E9486329B01AC0198
:10293000C801B7010E94BE356B877C878D879E8753
:10294000C601B50120E030E040E05FE30E94BE3503
:1029500069837A838B839C8321E030E03E832D83DF
:102960009924F1C03BE0391508F446C06D8D7E8D89
:102970008F8D98A12B853C854D855E850E94BE3547
:102980007B018C01698D7A8D8B8D9C8D29813A819B
:102990004B815C810E94BE359B01AC01C801B7012F
:1029A0000E9486327B018C016D8D7E8D8F8D98A16A
:1029B00029813A814B815C810E94BE355B016C01AB
:1029C000698D7A8D8B8D9C8D2B853C854D855E85A3
:1029D0000E94BE359B01AC01C601B5010E94853243
:1029E0006D8F7E8F8F8F98A39394C701D801898FA5
:1029F0009A8FAB8FBC8F61C0AD81BE81BD0180E07D
:102A000090E00E940B342B893C894D895E890E949D
:102A1000BE357B018C01C8010E946E336F837887BD
:102A200089879A87B701C8010E9449363B014C014A
:102A3000EFA5F8A9E080F1800281138117FB1095C2
:102A400017F91095ABA5BCA52D903D904D905C90CD
:102A5000C801B7012F81388549855A850E94BE3546
:102A60005B016C01C201B101A40193010E94BE355A
:102A70009B01AC01C601B5010E9486326D8F7E8F2D
:102A80008F8F98A3C801B701A40193010E94BE359E
:102A90007B018C01C201B1012F81388549855A859E
:102AA0000E94BE359B01AC01C801B7010E9485326E
:102AB000698F7A8F8B8F9C8F99246DA17EA18FA1B6
:102AC00098A52D8D3E8D4F8D58A10E948632E9A983
:102AD000FAA9608371838283938369A17AA18BA110
:102AE0009CA1298D3A8D4B8D5C8D0E948632ADA5BF
:102AF000BEA56D937D938D939C931397E9A5FAA53D
:102B000060817181828193812F85388949895A89B1
:102B10000E948632A9A5BAA56D937D938D939C934F
:102B200013978BA99CA94BAD5CAD6DAD7EAD2FAD60
:102B30000E94171280919B058823B1F4ED81FE81DC
:102B40003196FE83ED832D813E818F89988D2817E4
:102B5000390708F407CF8DA99EA94BAD5CAD6DADCB
:102B60007EAD2FAD0E941712EF960FB6F894DEBF20
:102B70000FBECDBFCF91DF911F910F91FF90EF90CE
:102B8000DF90CF90BF90AF909F908F907F906F908D
:102B90005F904F903F902F9008956F927F928F9209
:102BA0009F92AF92BF92CF92DF92EF92FF920F93DC
:102BB0001F93CF93DF934C013B015A01FB018081AE
:102BC000F401E80FF11DEF0189918D3229F4818123
:102BD0002196CC24C39405C08B3211F481812196B7
:102BE000CC2420E030E040E050E0DD24E0E070E084
:102BF000682F60536A30F8F4EF5FE930C0F4711168
:102C0000DA94DA01C901F2E0880F991FAA1FBB1FED
:102C1000FA95D1F7280F391F4A1F5B1F220F331F68
:102C2000441F551F260F311D411D511D09C077231B
:102C300039F4D39405C06E3F29F4772319F471E079
:102C40008991D6CFEE2311F480E050C0CA01B901BA
:102C50000E940B347B018C0120E030E040E050E02A
:102C60000E946A33882369F42BC0C801B7012AE0A7
:102C700037ED43E25CE30E94BE357B018C01F2E05C
:102C8000DF0E8FEFD8168CF3D81659F4C801B701B0
:102C90002DEC3CEC4CEC5DE30E94BE357B018C01DD
:102CA0000FC0DD2069F0C801B70120E030E040E24C
:102CB00051E40E94BE357B018C01DA941D149CF313
:102CC000CC2049F0D801C701B058F5018083918329
:102CD000A283B38305C0F501E082F18202831383EE
:102CE000882D80958C0FF301808381E0DF91CF9157
:102CF0001F910F91FF90EF90DF90CF90BF90AF901A
:102D00009F908F907F906F90089520EA3FE004C0DD
:102D1000F9013197F1F701970097D1F70895AF9234
:102D2000BF92CF92DF92EF92FF920F931F937B019E
:102D30008C0159016A01A80197010E94BE357B01EF
:102D40008C01C601B501A60195010E94BE359B010B
:102D5000AC01C801B7010E9486320E9453361F9110
:102D60000F91FF90EF90DF90CF90BF90AF900895BC
:102D70002091E2038091E303821769F0922F9F5F15
:102D8000923109F490E08091E503281711F49093B3
:102D9000E5039093E20308959091E2038091E303A9
:102DA000891719F420E030E006C089E2989F90016D
:102DB000112420503F4FC901089520E09091E20373
:102DC0008091E403981709F421E0822F08958091FF
:102DD0009F059091A005A091A105B091A2058093B7
:102DE000E6039093E703A093E803B093E90380918F
:102DF000A3059091A405A091A505B091A605809387
:102E0000EA039093EB03A093EC03B093ED0380915E
:102E1000A7059091A805A091A905B091AA05809356
:102E2000EE039093EF03A093F003B093F1030895A2
:102E30008091E3039091E203891710F0891B0895B4
:102E40008E5E891B08954F925F926F927F928F9250
:102E50009F92AF92BF92CF92DF92EF92FF920F9329
:102E60001F93CF93DF938091E303882309F482E1DA
:102E7000782E7A946090E503761409F4F2C089E222
:102E8000789E4001112480E091E0880E991EF401A3
:102E9000A588B688C788D08C21A132A143A154A1AE
:102EA000CA01B9010E948632F40125A136A147A1C9
:102EB00050A50E94BE357B018C01B501C601A80159
:102EC00097010E946A3387FD04C0D801C7015701EA
:102ED0006D01C501D601F401818B928BA38BB48B5C
:102EE000772011F432E1732E7A94761409F04EC0F3
:102EF0008091E203681609F050C00E9479274DC006
:102F0000769CE0011124C050DF4F772011F422E1BC
:102F1000722E7A948091E203781611F40E94792738
:102F2000AD88BE88CF88D88C69897A898B899C893D
:102F3000A60195010E946A33882331F129A13AA1A3
:102F40004BA15CA1CA01B9010E9486322DA13EA10C
:102F50004FA158A50E94BE35F401218932894389C9
:102F600054890E9486327B018C01A60195010E9442
:102F70006A3388232CF4E98AFA8A0B8B1C8B04C0F1
:102F8000A98ABA8ACB8ADC8A4E0102C099E2692EEC
:102F90008091E503781609F0B3CFA090E503BA2C31
:102FA000B394F2E1BF1609F4BB2489E2A89E800124
:102FB000112400501F4F5090E30389E2482E4CC06B
:102FC000B49CE0011124C050DF4FF801C188D288C1
:102FD000E388F48869887A888B889C88C701B60161
:102FE000A40193010E946A3388231CF5F80121A1F2
:102FF00032A143A154A1CA01B9010E948632F8014D
:1030000025A136A147A150A50E94BE359B01AC0168
:10301000C701B6010E9486327B018C01A401930195
:103020000E946A3388232CF4E98AFA8A0B8B1C8B62
:10303000AB2C69897A898B899C892D893E894F8936
:10304000588D0E946A33882309F4AB2CB394F2E1C3
:10305000BF1609F4BB248E01B51409F0B1CFA092BC
:10306000E503DF91CF911F910F91FF90EF90DF90DB
:10307000CF90BF90AF909F908F907F906F905F9018
:103080004F9008950E9479278091E2038093E50391
:103090000E94231708952091E2032F5F223109F443
:1030A00020E08091E303281729F460E070E080E0DD
:1030B00090E012C030E089E290E0289FF001299F63
:1030C000F00D389FF00D1124E050FF4F6189728997
:1030D000838994890E94533608952F923F924F928C
:1030E0005F926F927F928F929F92AF92BF92CF9298
:1030F000DF92EF92FF920F931F93DF93CF93CDB7A1
:10310000DEB7E6970FB6F894DEBF0FBECDBF9DA722
:103110008CA74EA75FA768AB79AB2AAB9091E3036E
:1031200089E2989F4001112420E031E0820E931E35
:10313000D4011D961D921D921D921C92509780E005
:1031400090E0A0E0B0E0F40185A396A3A7A3B0A708
:10315000108289E996E7A6E9BEE781A392A3A3A31B
:10316000B4A32AE736E03C8F2B8F1E010894211C64
:10317000311C46EE442E43E0542E9A8E898E1BA6B7
:1031800066247724ECA5FDA5E60DF71D608171810D
:1031900082819381AB8DBC8D2D913D914D915C9140
:1031A0000E94BE350E948E359B01AC01F101208347
:1031B000318342835383F20180819181A281B38163
:1031C000281B390B4A0B5B0B57FF07C050954095E6
:1031D000309521953F4F4F4F5F4FA98DBA8D119676
:1031E0002D933D934D935C931497F40185859685BB
:1031F000A785B089281739074A075B0710F49C0197
:10320000AD01D4011D962D933D934D935C93509742
:10321000F1016081718182819381D2012D913D9173
:103220004D915C91621B730B840B950B0E940D34C6
:10323000EB8DFC8D20813181428153810E9471335D
:103240005B016C01EDE0F0E0EC0FFD1FE60DF71DFA
:10325000608371838283938320E030E040E050E01C
:103260000E946A33882344F4D4011C918BA50E94E8
:103270001E24182BF4011083D4019596ED90FD9037
:103280000D911C919897C601B501A60195010E9468
:10329000BE359B01AC01C801B7010E9486327B019B
:1032A0008C01CB01D801F40185A396A3A7A3B0A7F5
:1032B000FBA5FF5FFBA724E030E0620E731E8B8D41
:1032C0009C8D04969C8F8B8F220E331E420E531EB4
:1032D000A98DBA8D1496BA8FA98FF33009F052CF09
:1032E000B701C8010E9453367B018C01F40165A32C
:1032F00076A387A390A785859685A785B089009733
:10330000A105B10509F4D6C16EA57FA588A999A923
:1033100020E030E040E050E00E946A3388234CF423
:1033200089E996E7A6E9BEE78EA79FA7A8ABB9AB48
:103330000FC09AA9992361F0C801B7012EA53FA536
:1033400048A959A90E9471336EA77FA788AB99AB92
:1033500060E070E080E89FE3A80197010E9471336C
:103360006FA378A789A79AA7DE011D96BAA3A9A380
:10337000E2EFF3E0F8A3EF8F26E836E03E8F2D8FE3
:1033800080E090E0A0E0B0E08BA39CA3ADA3BEA33F
:10339000DE015996BEABADABE9A1FAA1E080F180A8
:1033A00002811381C801B70120E030E040E050E025
:1033B0000E946A33882309F47CC0C801B7012FA199
:1033C00038A549A55AA50E94BE352B013C01A9A1EB
:1033D000BAA16D937D938D939C93139760E070E0F9
:1033E00080E89FE3A30192010E9471335B016C01AD
:1033F000E894D7F8C601B501ED8DFE8D20813181AD
:10340000428153810E94BE357B018C016EA57FA550
:1034100088A999A9A80197010E946A3387FD04C071
:10342000EEA6FFA608AB19ABD4019196BC91BBAB3D
:10343000F401F2A1FCABD40193962C90939794964F
:103440003C90C601B501ED8DFE8D24853585468500
:1034500057850E94BE357B018C016BA97CA9C101F7
:10346000A80197010E946A3387FD05C0D801C701F2
:10347000EBAA9CAB1D018BA99CA9D101F40181A3EE
:1034800092A3A3A3B4A3C301B201AF8DB8A12D91A0
:103490003D914D915C910E94BE359B01AC016BA1A9
:1034A0007CA18DA19EA10E9485326BA37CA38DA3DC
:1034B0009EA3E9A1FAA13496FAA3E9A32F8D38A11E
:1034C0002C5F3F4F38A32F8F8D8D9E8D04969E8F3E
:1034D0008D8FADA9BEA9EA17FB0709F05DCF9091CA
:1034E000E3038091E203981771F480E090E0A0E09C
:1034F000B0E0F401818B928BA38BB48B818F928F80
:10350000A38FB48F52C060E070E080E89FE32BA1EE
:103510003CA14DA15EA10E94853220E030E040E058
:103520005FE30E94BE350E9453365B016C01D401FB
:1035300091966D917D918D919C9194972091AF067C
:103540003091B0064091B1065091B2060E94BE354E
:10355000A60195010E94BE357B018C0160E070E000
:1035600080E89FE3A60195010E9485329B01AC0192
:10357000C801B7010E9471337B018C0120E030E06B
:1035800040E050E00E946A33882354F40F2EF0E0AC
:10359000EF2EF0E0FF2EF0E00F2FF0E01F2FF02DC8
:1035A000F401E18EF28E038F148F6EA57FA588A99A
:1035B00099A99B01AC010E94BE357B018C01D4010D
:1035C0005D966D937D938D939C93909759965C90A7
:1035D00059975A964C905A975B963C905B975C969D
:1035E0002C90D090FE03C090FF03B0900004A090F8
:1035F00001042D2D3C2D4B2D5A2D0E946A3387FD41
:1036000004C06D2C7C2CF50105C0D801C701370121
:10361000FA2FEB2F652D742D832D922D93014F2FB3
:103620005E2F0E946A3388232CF4852D942DA32DC0
:10363000B22D0EC0C801B7012D2D3C2D4B2D5A2D9A
:103640000E946A3387FD06C08D2D9C2DAB2DBA2DAF
:103650007C018D01F401E58AF68A078B108FA2EFB9
:10366000B3E0FE013D968CE001900D928150E1F7B0
:10367000F401858D968DA78DB0A18093FE03909364
:10368000FF03A0930004B0930104A6EEB3E0FE0193
:1036900031968CE001900D928150E1F78091E40326
:1036A0008093E3038F5F823109F480E08093E40329
:1036B0000E942317E6960FB6F894DEBF0FBECDBF6B
:1036C000CF91DF911F910F91FF90EF90DF90CF90FE
:1036D000BF90AF909F908F907F906F905F904F9032
:1036E0003F902F9008958CE1E6EEF3E0DF011D920C
:1036F0008A95E9F71092E2031092E30381E0809348
:10370000E4031092E50308958F929F92AF92BF92C7
:10371000CF92DF92EF92FF920F931F93DF93CF939D
:10372000CDB7DEB72A970FB6F894DEBF0FBECDBF78
:103730007B018C01A42E20E030E040E050E00E94AC
:103740006A3388233CF48DE20E94592317FB1095BD
:1037500017F91095DA2C0CC0C801B70120E030E051
:1037600048EC52E40E94BE357B018C018EEFD80EEE
:10377000E1E0ED1588F3A0FE0AC0C801B70120E022
:1037800030E040E251E40E94BE357B018C01C8016B
:10379000B70120E030E040E05FE30E9486320E9403
:1037A000DA336B017C019E012F5F3F4FF901EA0D77
:1037B000F11D8EE28083BB2449011EC0BA1409F4B6
:1037C000B39484010B0D111DC701B6012AE030E04E
:1037D00040E050E00E94C536605DF8016083B3941C
:1037E000C701B6012AE030E040E050E00E94C53653
:1037F000C901DA016C017D01C114D104E104F104B5
:10380000E9F606C0FC01EB0DF11D2083B39403C063
:10381000CE01019620E3BA14A8F3BA1489F48B2DD3
:103820008F5FFE01E80FF11D90E39183B82EB394F2
:1038300007C0FE01EB0DF11D80810E945923BA944F
:10384000BB20B9F72A960FB6F894DEBF0FBECDBFE6
:10385000CF91DF911F910F91FF90EF90DF90CF906C
:10386000BF90AF909F908F90089543E00E94841B7B
:1038700008959B01AC018091B70680FF0AC0CA0180
:10388000B9012BE832E441E25DE30E94BE3541E03C
:1038900003C0CA01B90140E00E94841B08959B0146
:1038A000AC018091B70680FF0AC0CA01B9012BE8BC
:1038B00032E441E25DE30E94BE3544E003C0CA0148
:1038C000B90143E00E94841B08951F93DF93CF93B7
:1038D00000D00F92CDB7DEB7282F882321F480E3E4
:1038E0000E9459231EC010E0AE014F5F5F4FFA01E6
:1038F000E10FF11D822F6AE00E94B936905D90833E
:103900001F5F822F0E94B936282F882381F707C0B6
:10391000FE01E10FF11D80810E94592311501123F6
:10392000B9F70F900F900F90CF91DF911F910895ED
:103930000F931F93DF93CF93CDB7DEB728970FB6C2
:10394000F894DEBF0FBECDBF982FFE0131969E01C9
:10395000275F3F4F892F817081939695E217F30778
:10396000C9F78E01085F1F4FF8018081805D0E94BA
:103970005923015010400C171D07B1F728960FB6B8
:10398000F894DEBF0FBECDBFCF91DF911F910F9195
:103990000895CF93DF93EC0102C00E945923FE01EA
:1039A000219684918823C9F7DF91CF910895CF9311
:1039B000DF93EC0103C021960E945923888188235C
:1039C000D1F7DF91CF9108953D988091B70687FF99
:1039D00004C045981092B9050895459A80E28093F5
:1039E000B905089586B180729091B9058927089527
:1039F0008091AC058130B1F486B180729091B905A7
:103A0000891781F01092AC05EDEAF5E0DF011E9711
:103A10008CE00D9001928150E1F780919D058860C6
:103A200080939D0508958091AB05882341F09FB751
:103A3000F89480919D05826080939D059FBF0895B5
:103A4000CF93DF9380919D05882309F48AC0C82F06
:103A5000D0E0CE0180769070892B39F181E080939F
:103A60009C05C6FF17C0C5FF02C08FEF01C08DEFD8
:103A70000E94172381E00E944D1E9FB7F894809109
:103A80009D058F7E80939D059FBF80919D0584FF3E
:103A9000FCCF03C08EEF0E9417239FB7F89480914C
:103AA0009D058F7980939D059FBFC4FF04C081E071
:103AB00080939B055CC0C0FF0AC00E94131F9FB784
:103AC000F89480919D058E7F80939D059FBFC3FFD5
:103AD00015C080919C05803149F480E280939C055B
:103AE0000E9479270E949B271092AB059FB7F894FC
:103AF00080919D05877F80939D059FBFC1FF1DC05D
:103B000080919C05883089F480E180939C050E9417
:103B10009B270E9421278091B70681FF04C081E086
:103B20008093AB0502C01092AB059FB7F8948091CB
:103B30009D058D7F80939D059FBFC2FF12C00E948F
:103B4000CC16892B21F088E080939C0502C010924E
:103B50009C059FB7F89480919D058B7F80939D0570
:103B60009FBF80919C05847311F00E949B27DF9179
:103B7000CF91089580919C05803151F481E080932C
:103B8000AB0506C00E94201D80919B05882341F44F
:103B90000E94CC16892BB1F780919C05803191F35E
:103BA00008950F931F930E94481E80919C058130B9
:103BB00021F482E00E944D1E1CC010929C0582E000
:103BC00094E00E94013115C09A3011F09D3029F522
:103BD000E12FF0E0EE5FFB4F10820E94201D8091EC
:103BE0009B05882331F480910204882321F40E94EC
:103BF000AC1E00E025C0843229F482E094E00E94EB
:103C00002D31F5CF80919C05813011F489E0EFCF03
:103C100082E094E00E94F604EACF002321F099327A
:103C200009F500E01FC09132E8F09F32D9F09832D8
:103C300011F401E017C01F3428F08BE00E94AC1E85
:103C400010E010C0892F8156A12FB0E0E12FEF5F67
:103C50008A3120F4AE5FBB4F905202C0AE5FBB4FC3
:103C60009C931E2F0E94A123982F8F3F09F0ACCF69
:103C70000E94131D0E94201D80919B05882391F3B3
:103C80001F910F91089585E994E00E94C91C089541
:103C900083EC95E00E94C91C08951F93182F8DE2B4
:103CA00096E00E94C91C133091F0143028F41130B2
:103CB00041F01230B1F408C0143061F0153089F4CD
:103CC0000CC08BE196E00BC087E096E008C085EF62
:103CD00095E005C08DEE95E002C084EE95E00E946F
:103CE000C91C80EE95E00E94C91C1F910895FF92A7
:103CF0000F931F93CF93DF9380EF91E00E94C91C35
:103D00000DEA15E0CAE7D6E0FF24F8016081718171
:103D1000828193810E940D34288139814A815B819F
:103D20000E9471330E944F1CF2E0FF1621F08EEECC
:103D300091E00E94C91CF3940C5F1F4F249683E00E
:103D4000F81619F78AEE91E00E94C91CDF91CF9115
:103D50001F910F91FF9008951F93182F882319F436
:103D60008FE797E05CC087E797E00E94C91C173097
:103D7000A9F1183078F4133029F1143030F41130EF
:103D8000C9F0123009F042C018C0153009F11630E0
:103D900010F51BC01B3071F11C3028F4193021F1D3
:103DA0001A3028F51EC0153141F1163161F1143178
:103DB00069F526C08FE597E002C08DE497E00E9488
:103DC000C91C2BC08BE397E0FACF81E397E0F7CFD4
:103DD00080E297E0F4CF81E197E0F1CF80EF96E0C9
:103DE000EECF87EE96E0EBCF8CED96E0E8CF89EC56
:103DF00096E0E5CF8BEB96E0E2CF85EA96E0DFCF69
:103E000081E996E0DCCF8DE796E0D9CF8BE696E0AE
:103E10000E94C91C812F0E94651C88E696E00E94C2
:103E2000C91C1F9108958F929F92AF92BF92DF920B
:103E3000EF92FF920F931F93DF93CF93CDB7DEB72F
:103E400068970FB6F894DEBF0FBECDBFDE011196A6
:103E5000EFE9F5E08CE001900D928150E1F780915F
:103E60009C058430E1F0853038F48130D9F0813020
:103E700050F08230F1F419C0803159F0803261F095
:103E80008830B9F403C082E391E011C08BE291E085
:103E90000EC086E291E00BC080E291E008C08AE1AA
:103EA00091E005C083E191E002C08CE091E00E94C6
:103EB000C91C8091AE0680FF3DC085E091E00E9464
:103EC000C91CDD24EE24FF244E010894811C911CA2
:103ED0009DE0A92EB12CAC0EBD1EF401EE0DFF1D10
:103EE00060817181828193810E940D34F701E658CF
:103EF000F94F20813181428153810E9471338501C4
:103F00000E0D1F1D9B01AC01F801208331834283FC
:103F100053830E944F1CF2E0DF1621F083E091E012
:103F20000E94C91CD39484E090E0E80EF91E93E04F
:103F3000D91699F68091AE0681FF50C08CEF90E0C3
:103F40000E94C91C8E01035F1F4F86E4E82E85E0A6
:103F5000F82EDD24F70160817181828193812485AF
:103F60003585468557850E9486329B01AC01F80154
:103F700060817181828193810E948532F801608322
:103F8000718382839383F2E0DF1679F420915E05DA
:103F900030915F0540916005509161050E94853226
:103FA000F8016083718382839383F801608171815A
:103FB000828193810E944F1CF2E0DF1621F08AEF8C
:103FC00090E00E94C91CD3940C5F1F4F84E090E0E6
:103FD000E80EF91E93E0D91609F0BCCF8091AE0629
:103FE00082FF08C084EF90E00E94C91C0E9418174D
:103FF0000E94651C8091AE0683FF08C08FEE90E0A2
:104000000E94C91C0E9438230E94651C8BEE90E020
:104010000E94C91C68960FB6F894DEBF0FBECDBFD4
:10402000CF91DF911F910F91FF90EF90DF90BF90A4
:10403000AF909F908F9008950F931F938C018CE306
:1040400091E00E94C91CC8010E94D71C88E391E03E
:104050000E94C91C1F910F910895FF920F931F9307
:10406000F82E8B0181E591E00E94C91C8F2D0E94E2
:10407000651C8FE491E00E94C91CC8010E94D71CF6
:104080008CE491E00E94C91C1F910F91FF9008954C
:1040900080912705823091F0833028F4882341F005
:1040A0008130B1F408C0833061F0853089F40CC0F0
:1040B0008FEB91E00BC08BEB91E008C087EB91E0B8
:1040C00005C083EB91E002C08EEA91E00E94C91C1A
:1040D0008BEA91E00E94C91C80912D058A5C0E94A8
:1040E000651C80912B05813041F0813018F08230C1
:1040F00059F406C086EA91E005C081EA91E002C069
:104100008CE991E00E94C91C80912905882319F44B
:1041100087E991E002C082E991E00E94C91C809188
:104120002A05882319F48DE891E002C088E891E01F
:104130000E94C91C80912805813019F483E891E020
:1041400002C08EE791E00E94C91C80912E0581304B
:1041500041F0813018F0823059F406C08AE791E0CE
:1041600005C086E791E002C082E791E00E94C91C89
:1041700080913005813029F0813048F0823059F447
:1041800003C08EE691E005C08AE691E002C086E6B3
:1041900091E00E94C91C80912F05882319F082307C
:1041A00041F403C082E691E002C08EE591E00E94F6
:1041B000C91C8BE591E00E94C91C809139050E94C1
:1041C000651C88E591E00E94C91C609135057091DD
:1041D000360580913705909138050E94391C84E599
:1041E00091E00E94C91C0895CF92DF92EF92FF9256
:1041F0000F931F93DF93CF93CDB7DEB72C970FB6F6
:10420000F894DEBF0FBECDBFEE246E010894C11C32
:10421000D11C8E2DB6010E945626882321F487E0FA
:104220000E94AC1E6BC087EE91E00E94C91C86E024
:10423000E81621F0E7E0EE1649F403C084EE91E0C1
:1042400002C081EE91E00E94C91C04C08E2D8A5CE0
:104250000E94651C8FED91E00E94C91C8601FF241D
:10426000F80160817181828193810E944F1CF2E08C
:10427000FF1619F08DED91E002C089ED91E00E94EA
:10428000C91CF3940C5F1F4F83E0F81649F7E394C1
:10429000E8E0EE1609F0BDCF83ED91E00E94C91C65
:1042A00002E515E0FF24F80160817181828193812C
:1042B0000E944F1CF2E0FF1619F081ED91E002C060
:1042C0008DEC91E00E94C91CF3940C5F1F4F83E0BA
:1042D000F81649F787EC91E00E94C91C60915E05D1
:1042E00070915F0580916005909161050E944F1C5F
:1042F00083EC91E00E94C91C0E94771E2C960FB699
:10430000F894DEBF0FBECDBFCF91DF911F910F910B
:10431000FF90EF90DF90CF900895FF920F931F933F
:10432000CF93DF9381E994E00E94C91C8091AA0693
:104330000E94651C88E794E00E94C91C8091AD062C
:104340000E94651C8AE594E00E94C91C8091AB061E
:104350000E94651C81E494E00E94C91C8091AB0618
:104360000E94981C8AE394E00E94C91C8091AC06CC
:104370000E94651C82E294E00E94C91C8091AC06F8
:104380000E94981C8BE194E00E94C91C8091B706A2
:1043900090E0969587959695879581700E94651C0B
:1043A0008AEF93E00E94C91C8091B70690E076E006
:1043B000969587957A95E1F781700E94651C8AED44
:1043C00093E00E94C91C90E08091B70687FD91E0C0
:1043D000892F0E94651C8AEB93E00E94C91C809182
:1043E000AE060E94651C84EA93E00E94C91C80917D
:1043F000AE060E94981C8CE993E00E94C91C609153
:10440000AF067091B0068091B1069091B2060E94FD
:10441000351C8CE793E00E94C91C6091B306709133
:10442000B4068091B5069091B6060E94351C81E6CF
:1044300093E00E94C91C8091B70681700E94651CA0
:1044400084E493E00E94C91C8091B70690E09695A1
:10445000879581700E94651C8AE293E00E94C91CC6
:104460008091B70690E055E0969587955A95E1F7CB
:1044700081700E94651C8FE093E00E94C91C8091AE
:10448000B70690E043E0969587954A95E1F78170ED
:104490000E94651C84EF92E00E94C91C8091B706BF
:1044A00090E034E0969587953A95E1F781700E9407
:1044B000651C88ED92E00E94C91C8091B8060E949C
:1044C000651C8EEB92E00E94C91C8091B8060E9488
:1044D000981C86EB92E00E94C91C6091B90670910D
:1044E000BA068091BB069091BC060E94351C89E9F2
:1044F00092E00E94C91C6091BD067091BE06809139
:10450000BF069091C0060E94351C8CE792E00E9485
:10451000C91C8091C1060E94651C8DE592E00E9435
:10452000C91C6091C3067091C4068091C506909124
:10453000C6060E94351C84E492E00E94C91C10E06B
:1045400024E6F22E6AC082E492E00E94C91C802F09
:104550008F0D0E94651C80E492E00E94C91C1130FE
:1045600061F0113028F0123069F01330E9F415C011
:10457000688179818A819B8115C06C857D858E8556
:104580009F8510C0688D798D8A8D9B8D20E030E0ED
:1045900041E655E40E94713305C06CA17DA18EA156
:1045A0009FA190580E94351C8DE392E00E94C91C87
:1045B000013041F0013018F0023059F406C08BE3AD
:1045C00092E005C089E392E002C087E392E00E9496
:1045D000C91C113051F0113028F0123049F013305D
:1045E00071F409C08DE292E008C08BE192E005C051
:1045F0008AE092E002C08AEF91E00E94C91C86EF37
:1046000091E00E94C91C0F5F2496033009F09BCFF4
:104610001F5F143031F08AE0F80ECAE7D6E000E000
:1046200092CFDF91CF911F910F91FF9008951F932B
:10463000182F80E696E00E94C91C1E3F41F01F3FE4
:1046400019F01D3F59F406C080E596E005C08DE3E2
:1046500096E002C082E396E00E94C91C8FE296E0D9
:104660000E94C91C84EF91E00E9485161F91089555
:104670009091530480915204891710F0891B08957A
:104680008058891B0895E0ECF0E08081826080838F
:104690001092C50080E18093C400E1ECF0E08081DD
:1046A000806180838081886080838081806880834E
:1046B0000895282FE09154049E2F9F5F903431F489
:1046C00090E004C080919D0584FD0FC08091550449
:1046D0009817C1F3F0E0E654FA4F20839093540406
:1046E0008091C10080628093C10008951F920F9253
:1046F0000FB60F9211248F939F93EF93FF938091A6
:104700005504E82FF0E0E654FA4F90819093C600EC
:10471000982F9F5F903409F490E090935504809116
:104720005404981729F48091C1008F7D8093C100B3
:10473000FF91EF919F918F910F900FBE0F901F905F
:1047400018959091530480915204891711F48FEFBA
:104750000895E92FF0E0E650FA4F8081E92FEF5FEE
:10476000E03809F4E0E0E0935304089580915204A6
:104770008093530408951F920F920FB60F92112445
:104780002F933F934F935F936F937F938F939F9359
:10479000AF93BF93EF93FF932091C6002132C9F0EE
:1047A000223218F42831F1F41AC02F3319F02E37C1
:1047B000C9F406C09FB7F89480919D05816005C03B
:1047C0009FB7F89480919D05826080939D059FBF5F
:1047D0001AC09FB7F89480919D058860F6CF0E941B
:1047E000831111C0E09152049E2F9F5F903809F40D
:1047F00090E080915304981731F0F0E0E650FA4FC2
:10480000208390935204FF91EF91BF91AF919F91BC
:104810008F917F916F915F914F913F912F910F9069
:104820000FBE0F901F901895882311F484E008950F
:10483000813011F080E1089588E00895882311F413
:1048400080E20895813011F080E8089580E40895B1
:10485000882311F482E00895813011F088E00895F2
:1048600084E0089580E090E00E94F703893011F021
:1048700020E00CC08AE796E061E070E04DE450E093
:104880000E946A0420E0892B09F021E0822F08951C
:1048900080E090E069E00E94FF0381E090E06AE739
:1048A00076E04DE450E00E9421040895CF92DF921B
:1048B000EF92FF920F931F93082F6A017B01CB01A8
:1048C000BA0120E030E040E050E00E946A338823E3
:1048D00014F484E015C1043608F459C0045690E07D
:1048E000033008F04BC0913089F0913030F09230B5
:1048F000D1F0933009F0FFC031C0E02FF0E0EE0FAF
:10490000FF1FEE0FFF1FE658F94F08C0E02FF0E041
:10491000EE0FFF1FEE0FFF1FEA57F94FC082D18243
:10492000E282F382E8C010E0000F111F000F111F98
:104930000E56194FC701B60120E030E040E752E4BF
:104940000E94BE3520E030E040E752E40E94BE35D0
:10495000F8016083718382839383CDC0E02FF0E000
:10496000EE0FFF1FEE0FFF1FE256F94FD701C601F2
:10497000B05880839183A283B383BDC00A3008F40A
:10498000BEC09F5F943009F4BAC00A50A9CFC701D6
:10499000B6010E9498360E94DF33E02FF0E0EC3140
:1049A000F10508F0ACC0EC5CFF4FEE0FFF1F059067
:1049B000F491E02D0994633010F486E0A1C0609377
:1049C000AA0699C06093AD0696C06093AB0693C0EB
:1049D0006093AC0690C0662321F08091B706846096
:1049E00009C08091B7068B7F05C0662331F08091A6
:1049F000B70680648093B7067EC08091B7068F7B30
:104A0000F9CF662321F08091B7068068F3CF8091BB
:104A1000B7068F77EFCF6093AE06C092AF06D09205
:104A2000B006E092B106F092B20665C0C092B3063D
:104A3000D092B406E092B506F092B6065CC066234A
:104A400021F08091B7068160D5CF8091B7068E7F27
:104A5000D1CF662321F08091B7068260CBCF8091C1
:104A6000B7068D7FC7CF662341F08091B70684FDDE
:104A700002C08AE045C08062BDCF8091B7068F7DBD
:104A8000B9CF662321F08091B706886003C080917A
:104A9000B706877F8093B7060E946E0E2CC06623F0
:104AA00021F08091B7068061A5CF8091B7068F7CF9
:104AB000A1CF6093B8061FC0C092B906D092BA06C3
:104AC000E092BB06F092BC0616C0C092BD06D09222
:104AD000BE06E092BF06F092C0060DC06093C1060C
:104AE0001092C20608C0C092C306D092C406E092DB
:104AF000C506F092C6060E94482480E001C083E00B
:104B00001F910F91FF90EF90DF90CF9008958AE072
:104B10008093AA0689E18093AD061092AB0686E0E9
:104B20008093AC0683E08093AE068AE097EDA3EA1B
:104B3000BCE38093AF069093B006A093B106B09308
:104B4000B2068FE692E1A3E0BBE38093B3069093B5
:104B5000B406A093B506B093B6061092B80680E0EE
:104B600090E0A8ECB1E48093B9069093BA06A093C4
:104B7000BB06B093BC0620E030E04AEF53E420933C
:104B8000BD063093BE064093BF065093C0068AEF21
:104B900090E09093C2068093C10680E090E0A0E888
:104BA000BFE38093C3069093C406A093C506B09359
:104BB000C60682E08093B70680E090E0AAE7B3E4FF
:104BC00080937A0690937B06A0937C06B0937D0633
:104BD00080937E0690937F06A0938006B093810613
:104BE0008093820690938306A0938406B0938506F3
:104BF0002093860630938706409388065093890653
:104C000020938A0630938B0640938C0650938D0632
:104C100020938E0630938F06409390065093910612
:104C200080E090EAACE0B7E480939206909393061C
:104C3000A0939406B093950680939606909397065A
:104C4000A0939806B093990680939A0690939B063A
:104C5000A0939C06B0939D0680E090E0A8E4B3EC9E
:104C600080939E0690939F06A093A006B093A10602
:104C70008093A2069093A306A093A406B093A506E2
:104C80008093A6069093A706A093A806B093A906C2
:104C90000E94482408959DE0899FC00111248050FE
:104CA0009E4F4CE050E00E94210408950F931F9303
:104CB000CF93DF93162F072F9DE0899FE0011124EA
:104CC000C050DE4F862F972FBE014CE050E00E946F
:104CD0006A04892B11F081E00FC0E12FF02F8CE0E6
:104CE000DF011D928A95E9F7CE01612F702F4CE00C
:104CF00050E00E94210480E0DF91CF911F910F913D
:104D00000895EF92FF921F93DF93CF93CDB7DEB755
:104D10002C970FB6F894DEBF0FBECDBF0E94322491
:104D2000882339F487E00E94AC1E0E9487250E94E8
:104D30008D2110E07E010894E11CF11C812FB70148
:104D40000E945626882319F487E00E94AC1E1F5F3C
:104D50001830A1F72C960FB6F894DEBF0FBECDBF6A
:104D6000CF91DF911F91FF90EF900895BC0180EEED
:104D700093E040E550E00E9421040895CF93DF9333
:104D8000EC0160EE73E040E550E00E946A04892B7C
:104D900011F081E009C0188280EE93E0BE0140E589
:104DA00050E00E94210480E0DF91CF91089591E5C9
:104DB000899FC001112480509D4F40E550E00E9422
:104DC000210408950F931F93CF93DF938B0191E5F7
:104DD000899FE0011124C050DD4FCB01BE0140E5A9
:104DE00050E00E946A04892B11F081E009C0F801AB
:104DF0001082CE01B80140E550E00E94210480E01D
:104E0000DF91CF911F910F910895249A259A2C98A4
:104E100008952C9808951F93182F80919C05823037
:104E200071F00E94131D0E94BA1D112311F42C98D9
:104E300006C0113011F42D9801C02D9A2C9A1F91A3
:104E400008958091B70682FF02C0289A01C0289871
:104E500080919C058471A1F08091F6048093DE041A
:104E60008091F5048093DD048091AA06880F845018
:104E700081958093DC0480916F00826080936F0045
:104E800008951F920F920FB60F9211248F939F9344
:104E90009BB18091F5048C71937E892B8BB915BCE5
:104EA0009F918F910F900FBE0F901F9018958AB110
:104EB0008C618AB9209A8AB1806E8AB9E1E8F0E003
:104EC00080818F7E8083808188608083E0E8F0E04D
:104ED00080818C7F808380818F708083EEE6F0E01C
:104EE0008081887F808314BC15BC80818160808331
:104EF0000895CF93DF93C091F804D091F9042097DF
:104F0000B9F081E08093FD042091130530911405E0
:104F10004091150550911605CA01B9010E94BE3590
:104F2000698B7A8B8B8B9C8B1092F9041092F8040E
:104F3000DF91CF9108952F923F924F925F926F929F
:104F40007F928F929F92AF92BF92CF92DF92EF9219
:104F5000FF920F931F93DF93CF93CDB7DEB7E997FF
:104F60000FB6F894DEBF0FBECDBF17C68091F80410
:104F70009091F904892B09F07EC20E94CC1690937F
:104F8000F9048093F804892B09F40EC68091FD047E
:104F9000882319F01092FD04CAC08091FC048F5F31
:104FA0008093FC04853011F41092FC04E091FC0421
:104FB00021E1E29FF0011124EA5AFB4FF093FB0438
:104FC000E093FA040091F8041091F904D8018C914F
:104FD000808311962D913D914D915C91149773E0D2
:104FE000220F331F441F551F7A95D1F72183328337
:104FF0004383548315962D913D914D915C91189763
:1050000063E0220F331F441F551F6A95D1F7258394
:1050100036834783508719962D913D914D915C9130
:105020001C9793E0220F331F441F551F9A95D1F709
:1050300021873287438754871D962D913D914D914D
:105040005C91509783E0220F331F441F551F8A95B0
:10505000D1F7258736874787508B1D966D917D91B7
:105060008D919C9150970E940B346093FE04709335
:10507000FF048093000590930105F80125A136A156
:1050800047A150A50E9471339B01AC0160930205BA
:1050900070930305809304059093050560E070E02C
:1050A00080EA9FE30E9471336093060570930705C1
:1050B000809308059093090580E090E0A0E0B0E0BF
:1050C00080930A0590930B05A0930C05B0930D05F2
:1050D00080919C058032E1F420911B0530911C05E4
:1050E00040911D0550911E05209313053093140522
:1050F0004093150550931605CA01B9010E94BE35AB
:10510000D80151966D937D938D939C9354970FC0C6
:10511000F80161897289838994890E94533660936A
:10512000130570931405809315059093160580E080
:1051300090E0A0E0B0E080930F0590931005A0935D
:105140001105B09312050091F8041091F904D801EB
:1051500091968D919D910D90BC91A02D88AB99ABAE
:10516000AAABBBAB60E070E080E09FE328A939A95F
:105170004AA95BA90E9471331B012C0180919C05F7
:10518000803209F056C0B2E0B0930E05F801A5A038
:10519000B6A0C7A0D0A46188728883889488C20111
:1051A000B101A40193010E94BE359B01AC01C6016F
:1051B000B5010E9485327B018C0120E030E040E0A7
:1051C00050E00E946A338823FCF468A979A98AA96F
:1051D0009BA920E030E040E050EC0E94BE35A601E3
:1051E00095010E94BE359B01AC01C401B3010E9430
:1051F00086320E94533660931B0570931C05809382
:105200001D0590931E0537C1E0920F05F092100521
:10521000009311051093120580E090E0A0E0B0E04B
:1052200080931B0590931C05A0931D05B0931E054C
:1052300022C110920E05F80185A196A1A7A1B0A5E3
:1052400080931F0590932005A0932105B09322051C
:105250000E944B185B016C0160931B0570931C0549
:1052600080931D0590931E05A60195010E94BE35F1
:105270003B014C012091F8043091F90439AF28AF7B
:10528000D90195968D919D910D90BC91A02D8B8FFC
:105290009C8FAD8FBE8FF901618972898389948952
:1052A000A40193010E9485329B01AC01C201B101AE
:1052B0000E94BE359B01AC016B8D7C8D8D8D9E8DCA
:1052C0000E94863220E030E040E05FE30E94BE357D
:1052D0007B018C0120E030E040E050E00E9481350D
:1052E00018160CF0B4C0C801B7012B8D3C8D4D8D44
:1052F0005E8D0E946A3388230CF095C0A8ADB9ADCD
:105300005D966D917D918D919C919097A4019301F3
:105310000E9485329B01AC01C201B1010E94BE35E1
:1053200060932305709324058093250590932605AB
:10533000A80197010E946A3388230CF047C0E8ADAA
:10534000F9ADE58CF68C078D10A1C801B7010E945C
:105350005336609317057093180580931905909341
:105360001A05A8ADB9AD5196AD90BD90CD90DC9029
:105370005497C601B501A80197010E946A3388239A
:1053800021F4B1E0B0930E0576C0C801B701A601C3
:1053900095010E9485329B01AC01C201B1010E94BE
:1053A000BE359B01AC0160911F0570912005809175
:1053B0002105909122050E94853260931F0570930C
:1053C0002005809321059093220555C0E0921F058A
:1053D000F09220050093210510932205E092230509
:1053E000F09224050093250510932605E8ADF9AD4C
:1053F00021A132A143A154A1CA01B9010E94863260
:10540000A80197010E94BE35A40193010E94863233
:105410000E94533660931705709318058093190501
:1054200090931A0528C0F2E0F0930E0580911305C1
:1054300090911405A0911505B0911605809317055C
:1054400090931805A0931905B0931A0514C080E035
:1054500090E0A0E0B0E080931F0590932005A0931A
:105460002105B0932205A0921705B0921805C092AD
:105470001905D0921A058091F304B6E08B9FD001F4
:105480001124A555BB4FB9AFA8AF8091FC0412966B
:105490008C93E091F804F091F904FA8FE98F85A1DB
:1054A00096A1A7A1B0A58D8B9E8BAF8BB88FBC01A9
:1054B000CD012091060530910705409108055091D6
:1054C00009050E9485326CA37DA38EA39FA320E0D3
:1054D00030E040E050E00E946A33882344F480E0EA
:1054E00090E0A0E0B0E08CA39DA3AEA3BFA3809109
:1054F0001F0590912005A0912105B0912205898B6F
:105500009A8BAB8BBC8B8091170590911805A0915D
:105510001905B0911A058D879E87AF87B88B80914A
:10552000230590912405A0912505B0912605898732
:105530009A87AB87BC8780910F0590911005A09149
:105540001105B09112058D839E83AF83B88780913A
:105550001B0590911C05A0911D05B0911E05898326
:105560009A83AB83BC838091130590911405A0911D
:105570001505B091160588A399A3AAA3BBA3909182
:105580000E059F8FAD88BE88CF88D88C8EE393ECB4
:10559000AEE2B9E38CA79DA7AEA7BFA780E090E0DD
:1055A000A0E0B0E088A799A7AAA7BBA70F2EFEE3AB
:1055B0006F2EF3EC7F2EFEE28F2EF9E39F2EF02D5F
:1055C0009F8D992321F0913009F0B3C080C0C401B0
:1055D000B301A98DBA8D91962D913D914D915C911C
:1055E00094970E94BE357B018C0120E030E040E0C2
:1055F0005FE30E94BE359B01AC0168A179A18AA13D
:105600009BA10E9486329B01AC01C401B3010E94A0
:10561000BE359B01AC01C601B5010E9485325B011C
:105620006C0129893A894B895C890E946A338823F5
:105630000CF040C069897A898B899C8929853A85D3
:105640004B855C850E946A33882319F4B2E0BF8FD2
:1056500002C0E1E0EF8F6D897E898F89988D29895D
:105660003A894B895C890E9485329B01AC010E947A
:1056700086327B018C0168A179A18AA19BA12D852D
:105680003E854F8558890E9486329B01AC01C80136
:10569000B7010E9471333B014C01A988BA88CB88BD
:1056A000DC888D859E85AF85B88988A399A3AAA338
:1056B000BBA3B0C068A179A18AA19BA1A801970151
:1056C0000E94863268A379A38AA39BA3A3C06D8599
:1056D0007E858F859889A40193010E94BE359B0128
:1056E000AC01C601B5010E9485327B018C01298580
:1056F0003A854B855C850E946A3387FD03C057015C
:10570000680188C0C601B50129853A854B855C854D
:105710000E9485322D853E854F8558890E947133C0
:105720003B014C01A984BA84CB84DC8492E09F8F36
:1057300071C0C401B301A98DBA8D91962D913D918F
:105740004D915C9194970E94BE357B018C0168A1BC
:1057500079A18AA19BA1A80197010E948135181601
:10576000ACF5C801B70120E030E040E05FEB0E94FB
:10577000BE359B01AC0168A179A18AA19BA10E94C1
:1057800086329B01AC01C401B3010E94BE359B016E
:10579000AC01C601B5010E9485321B012C012D818F
:1057A0003E814F8158850E94813518167CF468A18E
:1057B00079A18AA19BA1A80197010E94853268A3C3
:1057C00079A38AA39BA36201510124C0C601B5013C
:1057D0002D813E814F8158850E9485329B01AC010D
:1057E0000E9486327B018C0168A179A18AA19BA1CC
:1057F00029813A814B815C810E9486329B01AC01F8
:10580000C801B7010E9471333B014C01AD80BE80DD
:10581000CF80D88468A579A58AA59BA5A40193010A
:105820000E94863268A779A78AA79BA72CA53DA5C9
:105830004EA55FA50E946A3388232CF46CA57DA534
:105840008EA59FA518C0C601B5012CA13DA14EA1F2
:105850005FA10E94813518160CF56CA57DA58EA55B
:105860009FA52EE333EC4EE259E30E9486326CA7EB
:105870007DA78EA79FA728A539A54AA55BA50E944D
:1058800085323B014C01C601B5012D813E814F811E
:1058900058850E94813518160CF492CE88A199A1E2
:1058A000AAA1BBA18093130590931405A09315059D
:1058B000B09316059F8D90930E05C601B5012091FA
:1058C00002053091030540910405509105050E94A1
:1058D000BE356CAB7DAB8EAB9FAB0E9457331B01CB
:1058E0002C016091FE047091FF048091000590915D
:1058F00001050E9457333B014C01A20191010E9416
:1059000085320E94DF33A8ADB9AD6D937C93672BD0
:10591000B1F580919C05803291F580E090E0A0E0A7
:10592000B0E08093130590931405A0931505B093F0
:10593000160580930A0590930B05A0930C05B09370
:105940000D052092FE043092FF0440920005509213
:1059500001050091F8041091F904C201B1012091F0
:1059600002053091030540910405509105050E9400
:105970007133F80165A376A387A390A702C168A538
:1059800079A58AA59BA520910A0530910B05409128
:105990000C0550910D050E9486327B018C01C401DB
:1059A000B3012CA93DA94EA95FA90E9485329B0194
:1059B000AC01C801B7010E9471337B018C01C201A7
:1059C000B1012CA93DA94EA95FA90E948532A80169
:1059D00097010E94BE3560930A0570930B05809372
:1059E0000C0590930D05C801B70120EC31EE44E69B
:1059F0005EE40E94BE350E9457330E94DF33AB0144
:105A0000BC01403DF7E05F07F0E06F07F0E07F0783
:105A100028F4A8ADB9AD15961C9233C0403ABFE04A
:105A20005B07B0E06B07B0E07B0728F421E0E8AD4E
:105A3000F9AD25830FC040343FE1530730E06307E1
:105A400030E0730710F4E2E001C0E3E0A8ADB9ADC7
:105A50001596EC93A8ADB9AD15962C911597022E1D
:105A600004C076956795579547950A94D2F78D911E
:105A70009C91119702C0880F991F2A95E2F78D9388
:105A80009C934030B0E05B07B1E06B07B0E07B0770
:105A900028F4E8ADF9AD5483438308C0EFEFFFEF7E
:105AA000A8ADB9AD1496FC93EE9313978091F404CE
:105AB0008093F3048F5F8093F404863011F4109286
:105AC000F404C601B50120910F05309110054091F5
:105AD0001105509112050E9481351816ACF4E09121
