:100000000C940F040C942C040C942C040C94550F99
:100010000C9437310C942C040C942C040C942C0468
:100020000C942C040C942C040C942C040C94F42E9E
:100030000C942C040C942C040C942C040C942C0480
:100040000C94EE270C942C040C9402240C94BD23E5
:100050000C942C040C942C040C942C040C942C0460
:100060000C942C040C942C04A224A224A224AD24CD
:10007000B624BF24C824DF24F6240D251925252500
:10008000312546254F25582561256D25A024762547
:1000900088259C25AE25C025D625EC25FE250726DE
:1000A000102619262426084AD73B3BCE016E84BC75
:1000B000BFFDC12F3D6C74319ABD56833DDA3D00C2
:1000C000C77F11BED9E4BB4C3E916BAAAABE00000B
:1000D00000803F05A84CCDB2D44EB93836A9020CE9
:1000E00050B9918688083CA6AAAA2ABE00000080C2
:1000F0003F3E0D0A002C0057506F733A002C002C25
:100100004D506F733A003C436865636B003C416C33
:1001100061726D003C486F6D65003C486F6C640017
:100120003C52756E003C5175657565003C49646CC8
:1001300065005D0D0A005B302E39662E3230313499
:10014000303730363A000D0A003D00244E005D0D78
:100150000A00204600205400204D3800204D390070
:10016000204D3500204D3400204D3300204D32000D
:10017000204D3100204D30002047393400204739D0
:1001800033002047393100204739300020473230D2
:1001900000204732310020473139002047313800F4
:1001A00020473137002047005B473830005B47333A
:1001B000005B4732005B4731005B4730005D0D0A52
:1001C000005B544C4F3A005D0D0A002C005B473930
:1001D000323A005D0D0A002C003A0033300032380C
:1001E000005B47005D0D0A002C005B5052423A0054
:1001F0002028686F6D696E672070756C6C2D6F6656
:10020000662C206D6D290D0A002028686F6D696EBF
:1002100067206465626F756E63652C206D7365631E
:10022000290D0A2433303D002028686F6D696E6700
:10023000207365656B2C206D6D2F6D696E290D0A1D
:100240002432393D002028686F6D696E672066652D
:1002500065642C206D6D2F6D696E290D0A2432386E
:100260003D00290D0A2432373D002028686F6D6952
:100270006E672064697220696E76657274206D61A4
:10028000736B3A002028686F6D696E67206379632D
:100290006C652C20626F6F6C290D0A2432363D008C
:1002A000202868617264206C696D6974732C206207
:1002B0006F6F6C290D0A2432353D002028736F665C
:1002C00074206C696D6974732C20626F6F6C290DDA
:1002D0000A2432343D002028696E76657274206CE1
:1002E000696D69742070696E732C20626F6F6C2960
:1002F0000D0A2432333D002028696E766572742021
:100300007374657020656E61626C652C20626F6F1E
:100310006C290D0A2432323D0020286175746F204B
:1003200073746172742C20626F6F6C290D0A243211
:10033000313D0020287265706F727420696E6368A9
:1003400065732C20626F6F6C290D0A2432303D00DA
:10035000202861726320746F6C6572616E63652C16
:10036000206D6D290D0A2431393D0020286A756EF3
:100370006374696F6E20646576696174696F6E2C51
:10038000206D6D290D0A2431373D002028737465D6
:10039000702069646C652064656C61792C206D73D4
:1003A0006563290D0A2431363D00290D0A243135B3
:1003B0003D00202864697220706F727420696E7627
:1003C000657274206D61736B3A00290D0A24313413
:1003D0003D0020287374657020706F727420696E00
:1003E00076657274206D61736B3A002028737465B2
:1003F000702070756C73652C2075736563290D0A08
:100400002431333D0020287A206D61782074726198
:1004100076656C2C206D6D290D0A2431323D00204B
:100420002879206D61782074726176656C2C206D5E
:100430006D290D0A2431313D00202878206D617826
:100440002074726176656C2C206D6D290D0A243143
:10045000303D0020287A20616363656C2C206D6D2F
:100460002F7365635E32290D0A24393D00202879F7
:1004700020616363656C2C206D6D2F7365635E3244
:10048000290D0A24383D0020287820616363656CBB
:100490002C206D6D2F7365635E32290D0A24373D64
:1004A0000020287A206D617820726174652C206D9F
:1004B0006D2F6D696E290D0A24363D0020287920A4
:1004C0006D617820726174652C206D6D2F6D696E81
:1004D000290D0A24353D00202878206D617820728E
:1004E0006174652C206D6D2F6D696E290D0A2434A1
:1004F0003D0020287A2C20737465702F6D6D290DB6
:100500000A24333D002028792C20737465702F6DE8
:100510006D290D0A24323D002028782C2073746543
:10052000702F6D6D290D0A24313D0024303D0024CB
:1005300024202876696577204772626C2073657481
:1005400074696E6773290D0A2423202876696577FC
:10055000202320706172616D6574657273290D0AC4
:100560002447202876696577207061727365722050
:100570007374617465290D0A244E202876696577A5
:10058000207374617274757020626C6F636B732971
:100590000D0A24783D76616C756520287361766557
:1005A000204772626C2073657474696E67290D0A46
:1005B000244E783D6C696E652028736176652073E2
:1005C00074617274757020626C6F636B290D0A24FC
:1005D000432028636865636B2067636F6465206DE3
:1005E0006F6465290D0A245820286B696C6C2061A2
:1005F0006C61726D206C6F636B290D0A2448202892
:1006000072756E20686F6D696E67206379636C65C3
:10061000290D0A7E20286379636C652073746172EA
:1006200074290D0A2120286665656420686F6C6452
:10063000290D0A3F202863757272656E74207374E9
:1006400061747573290D0A6374726C2D7820287299
:1006500065736574204772626C290D0A000D0A47A4
:1006600072626C20302E3966205B27242720666F4B
:10067000722068656C705D0D0A005D0D0A004469AA
:100680007361626C656400456E61626C6564004311
:10069000617574696F6E3A20556E6C6F636B65643B
:1006A00000272448277C2724582720746F20756E44
:1006B0006C6F636B00526573657420746F20636F99
:1006C0006E74696E7565005B000D0A0050726F6292
:1006D00065206661696C0041626F72742064757296
:1006E000696E67206379636C6500486172642F737B
:1006F0006F6674206C696D697400414C41524D3ACB
:1007000020000D0A00496E76616C69642067636F92
:1007100064652049443A00556E646566696E656497
:100720002066656564207261746500556E7375702E
:10073000706F7274656420636F6D6D616E64004DDF
:100740006F64616C2067726F75702076696F6C6181
:1007500074696F6E004C696E65206F766572666CA9
:100760006F7700486F6D696E67206E6F7420656EDD
:1007700061626C656400416C61726D206C6F636BCB
:10078000004E6F742069646C6500454550524F4DB2
:100790002072656164206661696C2E205573696EF4
:1007A000672064656661756C74730056616C75656D
:1007B000203C203320757365630053657474696E43
:1007C000672064697361626C65640056616C75656D
:1007D000203C203000496E76616C6964207374613E
:1007E00074656D656E7400426164206E756D62653E
:1007F0007220666F726D6174004578706563746510
:100800006420636F6D6D616E64206C6574746572D5
:10081000006572726F723A20006F6B0D0A0011242E
:100820001FBECFEFD8E0DEBFCDBF11E0A0E0B1E04A
:10083000E6EBFEE602C005900D92A030B107D9F7B5
:1008400016E0A0E0B1E001C01D92A83BB107E1F7BE
:100850000E9490110C9459370C9400003B9A4398D5
:100860000895439808951F93182F80918F05823023
:1008700049F00E94601D0E94071E123011F4439A35
:1008800001C043981F910895F999FECF92BD81BD93
:1008900081E08FBB80B50895F894F999FECF92BDA1
:1008A00081BD81E08FBB40B54627842F992787FD06
:1008B0009095262F30E082239323892B39F06F3FC8
:1008C00019F060BD84E006C084E104C0442321F037
:1008D00060BD84E28FBBF99A789408958F929F92BD
:1008E000AF92BF92CF92DF92EF92FF920F93DF937E
:1008F000CF9300D0CDB7DEB75C016B017A014A011E
:1009000000E01EC0002319F021E030E008C0202FD5
:10091000332727FD30952227330F221F3327F60177
:1009200061916F01062F020F9C012F5F3F4F3A83A9
:1009300029830E944C0408948108910889819A8136
:1009400081149104F9F6C7018A0D9B1D602F0E9446
:100950004C040F900F90CF91DF910F91FF90EF908B
:10096000DF90CF90BF90AF909F908F900895CF93DE
:10097000DF93EC01FB019A0190E0B1E019C0F99915
:10098000FECFF2BDE1BDBFBBA0B5992319F081E058
:1009900090E008C0892F992787FD90958827990FA7
:1009A000881F992731969A2F980FA993215030408C
:1009B0002115310521F7460F571FF999FECF52BD7A
:1009C00041BD81E08FBB80B520E030E0981711F485
:1009D00021E030E0C901DF91CF9108956091920547
:1009E0007091930580919405909195050E947F34B4
:1009F00020916C0630916D0640916E0650916F0605
:100A00000E94E33360932E0570932F058093300589
:100A100090933105609196057091970580919805A6
:100A2000909199050E947F34209170063091710653
:100A300040917206509173060E94E3336093320531
:100A400070933305809334059093350560919A0532
:100A500070919B0580919C0590919D050E947F342B
:100A60002091740630917506409176065091770674
:100A70000E94E33360933605709337058093380501
:100A80009093390508952F923F924F925F926F9203
:100A90007F928F929F92AF92BF92CF92DF92EF920E
:100AA000FF920F931F93DF93CF93CDB7DEB7A79736
:100AB0000FB6F894DEBF0FBECDBF1C01E6E5F5E032
:100AC00088E3DF011D928A95E9F73196ABE1B5E045
:100AD0008AE00D9001928150E1F719821BA27724E0
:100AE00066241F8E1E8EAA24BB2411E0412E512C99
:100AF00099249394B2E08B2E6AC2802F81548A315C
:100B000018F081E00C94A20E9F5F9983C101BE0191
:100B10006F5F7F4FAE014E5F5F4F0E9424168823A8
:100B200019F482E00C94A20ECA80DB80EC80FD8078
:100B3000C701B6010E940A370E945134162F70E097
:100B4000882777FD8095982F0E947F349B01AC0108
:100B5000C701B6010E94F73220E030E048EC52E4D1
:100B60000E9430360E949B360E945134262F073453
:100B700021F00D3409F052C10AC1163209F496C0B1
:100B80001732F0F4143170F4113108F0BAC0143097
:100B900009F443C0143008F489C01A3011F00C94E1
:100BA000910E32C01C3181F11D3128F4163110F044
:100BB0000C94910EC8C01E3111F00C94910E24C0FB
:100BC000103509F47AC0113588F4153331F1163334
:100BD00040F41B3209F4C0C0113311F00C94910E93
:100BE000BBC01C3310F00C94910ECAC01C3561F0D0
:100BF0001D3528F41A3510F40C94910E92C01F354F
:100C000010F00C94910E96C0222339F4BBA1BB23A3
:100C100011F00C948F0EE1E0EBA31C31A9F01D3113
:100C200028F4143051F01A3069F40AC0153351F128
:100C30001C3561F11E3131F416C09092560502C088
:100C40008092560580E0A0C0222329F02A3011F0BE
:100C50000C94910E04C0F3E0F093560521C024E0FB
:100C6000209356051DC0222329F02A3011F00C9440
:100C7000910E04C085E08093560512C096E09093D3
:100C800056050EC0A7E0A0935605DCCF222329F01D
:100C90002A3011F00C94910E05C0B8E0B0935605BF
:100CA00080E0ADC0E9E0E0935605FACFFBA1FF2359
:100CB00011F00C948F0E82E08BA3123089F0133068
:100CC00028F4112351F01130D1F40AC0163259F032
:100CD000103591F0133099F403C0109257050FC0EE
:100CE000109357050CC0243111F00C94910E94E030
:100CF0009093570581E083C0A5E0A093570581E05C
:100D000043C0123139F0133149F0113129F41092F6
:100D10005B0502C090925B0582E036C080925B0565
:100D2000FBCF1A3519F410925A0502C090925A0559
:100D300083E02AC01D3519F49092580502C0109224
:100D4000580584E021C0143119F49092590502C06D
:100D50001092590585E018C0BBA1BB2309F0DFC77D
:100D6000113329F410925C05E3E0EBA307C02A30AD
:100D700009F0D7C790925C05F3E0FBA386E03FC083
:100D8000165310935D0587E02223C9F1CCC7662373
:100D900009F0C9C7163018F41330B0F408C0183081
:100DA00008F4BFC71A3000F11E3109F0BAC712307B
:100DB00041F01E3131F0112311F490925E0588E06C
:100DC0001EC080925E05FBCF143039F0153041F023
:100DD000133041F49092600505C08092600502C016
:100DE0001092600589E00BC0183019F0193031F409
:100DF00003C080925F0502C010925F058AE09201F5
:100E000002C0220F331F8A95E2F7C9018A219B2174
:100E1000892B09F08AC7A22AB32AD9C0003509F460
:100E20006BC001359CF40A34E9F10B3434F4063418
:100E300021F1093409F075C72AC00C3409F44AC0FD
:100E40000C34E4F10E3409F06CC748C0043599F055
:100E500005353CF4023509F459C0033509F061C782
:100E60005FC0093509F472C00A3509F47BC0083542
:100E700009F057C75FC029E080C0C0926105D092D9
:100E80006205E0926305F092640520E076C0C092AE
:100E90006505D0926605E0926705F092680521E04D
:100EA000622A6BC0C0926905D0926A05E0926B0518
:100EB000F0926C0582E0682A22E05FC0C0926D0566
:100EC000D0926E05E0926F05F092700594E0692A69
:100ED00023E053C01093710524E04FC0C701B60151
:100EE0000E944C346093720570937305809374056F
:100EF0009093750525E041C0C0927605D0927705A4
:100F0000E0927805F092790526E037C0C0927A0524
:100F1000D0927B05E0927C05F0927D0527E02DC004
:100F2000C0927E05D0927F05E0928005F092810507
:100F300028E023C0C0928205D0928305E092840508
:100F4000F0928505A1E07A2A2AE017C0C0928605B2
:100F5000D0928705E0928805F0928905B2E07B2A5D
:100F60002BE00BC0C0928A05D0928B05E0928C05D5
:100F7000F0928D05E4E07E2A2CE08201022E02C070
:100F8000000F111F0A94E2F78E8D9F8D802391230D
:100F9000892B11F089E1D6C681E693E002C09595D0
:100FA00087952A95E2F780FF0CC0C701B60120E0C3
:100FB00030E040E050E00E94DC33882314F484E009
:100FC000C1C68E8D9F8D802B912B9F8F8E8F998187
:100FD000F101E90FF11D0081002309F08ECD77208A
:100FE00029F09BA1992311F4A2E0ABA3BE8DB5FF1C
:100FF0000FC08091720590917305A0917405B09116
:10100000750580589649A849B04014F08BE19AC6FE
:1010100080915805813039F4FBA1F230B1F52E8D65
:1010200020FD33C084C680911C05882371F58E8D08
:1010300080FF1BC080915905813039F560916105B1
:1010400070916205809163059091640523E333E319
:101050004BEC51E40E943036609361057093620559
:10106000809363059093640510C080912905909149
:101070002A05A0912B05B0912C05809361059093D2
:101080006205A0936305B0936405AE8DBF8DB0FD7E
:1010900010C08091250590912605A0912705B0915B
:1010A000280580937E0590937F05A0938005B093DB
:1010B000810580915605813041F4BE8DB6FF39C659
:1010C000EE8DFF8DEF7BFF8FEE8F80915B05882388
:1010D00041F0813061F4F2E0FAA319A221E028A3E3
:1010E0000BC01AA281E089A392E098A305C0A1E0F9
:1010F000AAA3B2E0B9A318A280915905813059F58D
:10110000A2E8EA2EA5E0FA2E00E010E0C72CDD24CC
:10111000C601002E02C0959587950A94E2F780FFDC
:1011200011C0F701608171818281938123E333E3F0
:101130004BEC51E40E943036D7016D937D938D9333
:101140009C9313970F5F1F4FE4E0F0E0EE0EFF1E3D
:1011500003301105E9F6FBA1F33049F480915C05F9
:10116000813029F424E0721611F086E2EBC5DE012D
:101170001696EAE3F5E08CE001900D928150E1F7DC
:10118000A7FE12C090915D05973008F0D4C58091FC
:101190002105891749F0892FBE016A5F7F4F0E94A0
:1011A0000327882309F4C9C580915605823021F0B0
:1011B000883009F0FBC098C0772009F4C0C58E8D37
:1011C0009F8D80759070892B09F4B3C56091760569
:1011D0007091770580917805909179050E940A3782
:1011E0000E945134673008F0A6C520917105243162
:1011F00031F0223009F095C58E8D87FD92C56623AA
:1012000019F0862F815002C080915D058E010E5E1F
:101210001F4FB8010E940327882309F48EC5780167
:10122000F2E88F2EF5E09F2EEEE2CE2EE5E0DE2EE8
:1012300000E010E0A72CBB24C501002E02C095954C
:1012400087950A94E2F780FF3BC080917105843155
:1012500069F5D6016D917D918D919C91139758966A
:101260002D913D914D915C915B970E94F732F40175
:1012700020813181428153810E94F732D7016D93E1
:101280007D938D939C9313970230D1F42091520556
:101290003091530540915405509155050E94F73205
:1012A000F70160837183828393830AC0F401808194
:1012B0009181A281B381F70180839183A283B3835B
:1012C0000F5F1F4F84E090E0E80EF91E880E991E14
:1012D000C80ED91E0330110509F0AECFAE8DBF8DFB
:1012E000AF7ABF8FAE8FFBC0772009F428C502E824
:1012F00015E07EE2C72E75E0D72E66E0862E912C93
:101300008C0E9D1EEE24FF24A72CBB24C5010E2CA1
:1013100002C0959587950A94E2F780FF2CC0F601EC
:101320006081718182819381D4012D913D914D9194
:101330005C910E94F732F801208131814281538112
:101340000E94F732D8016D937D938D939C931397F0
:10135000B2E0EB16D1F42091520530915305409143
:101360005405509155050E94F732F801608371834E
:10137000828393830AC0F601808D918DA28DB38DF7
:10138000F80180839183A283B3830894E11CF11C4C
:101390000C5F1F4F84E090E0C80ED91E880E991E86
:1013A00093E0E916F10409F0B1CF99C0ABA1A330E5
:1013B00009F47CC0772009F479C05EE2C52E55E0BF
:1013C000D52E02E815E046E0A42EB12CAC0EBD1ED1
:1013D000EE24FF24872C9924C4010E2C02C095957D
:1013E00087950A94E2F780FD0BC0F6018081918118
:1013F000A281B381F80180839183A283B38346C025
:1014000080915605873009F441C080915A058823A0
:1014100061F5D5016D917D918D919C91F601208DA5
:10142000318D428D538D0E94F832D8012D913D911E
:101430004D915C910E94F832F80160837183828340
:101440009383F2E0EF1611F5209152053091530588
:1014500040915405509155050E94F832D8016D9382
:101460007D938D939C93139711C0F80160817181D6
:1014700082819381D6012D913D914D915C910E9485
:10148000F832F80160837183828393830894E11CAE
:10149000F11C84E090E0C80ED91E0C5F1F4FA80E0F
:1014A000B91E93E0E916F10409F096CF8091560534
:1014B000853031F0873069F0833089F486E001C0EF
:1014C00087E0BE016E5E7F4F0E940327882339F4B8
:1014D00034C480915705823010F08EE133C41091EE
:1014E0005705153049F4772009F46BC2ABA1A13040
:1014F00009F467C28FE126C4BBA1B23009F061C212
:101500001123E9F060916105709162058091630596
:101510009091640520E030E040E050E00E94DC3330
:10152000882309F404C4143030F4123060F411300C
:1015300009F047C204C0143009F043C219C2772031
:1015400009F43EC23EC2772009F4F9C3FAA1EF2F95
:10155000F0E0FFA3EEA399A1892F90E09DA38CA3B7
:1015600081E090E08C010CA002C0000F111F0A94D2
:10157000E2F70EA002C0880F991F0A94E2F7082B29
:10158000192B872D90E080239123892B11F480E281
:10159000D9C3AEA1BFA1AA0FBB1FAA0FBB1FAE57D5
:1015A000BA4FEEA1FFA1EE0FFF1FEE0FFF1FE55E8A
:1015B000FA4F6D917D918D919C9123893489458954
:1015C00056890E94F7325B016C01ACA1BDA1AA0F44
:1015D000BB1FAA0FBB1FAE57BA4FECA1FDA1EE0F68
:1015E000FF1FEE0FFF1FE55EFA4F6D917D918D910C
:1015F0009C9123893489458956890E94F7321B01C1
:101600002C01AE8DA7FF02C10EE215E072E8E72EB5
:1016100075E0F72EF8016081718182819381D70195
:101620002D913D914D915C910E94DC33882359F4BA
:101630000C5F1F4FE4E0F0E0EE0EFF1EF5E00A3312
:101640001F0741F77EC3809159058130B1F4609145
:101650007A0570917B0580917C0590917D0523E34F
:1016600033E34BEC51E40E94303660937A0570937B
:101670007B0580937C0590937D05E0907A05F09042
:101680007B0500917C0510917D05C801B70120E024
:1016900030E040E850E40E943036A80197010E94F3
:1016A00030367B018C01C601B501A60195010E946F
:1016B00030369B01AC01C801B7010E94F7327B01B3
:1016C0008C01C201B101A20191010E9430369B013F
:1016D000AC01C801B7010E94F7327B018C0120E008
:1016E00030E040E050E00E94DC33882314F482E2D2
:1016F00029C3C801B7010E94C5367B018C01C60110
:10170000B501A20191010E94F5169B01AC0117FBE6
:10171000109517F91095C801B7010E94E3337B01BA
:101720008C0180915705833021F417FB109517F930
:10173000109560907A0570907B0580907C05909064
:101740007D05C401B30120E030E040E050E00E949C
:10175000DC3388237CF417FB109517F91095D4011E
:10176000C301B05880937A0590937B05A0937C05C4
:10177000B0937D058E8D9F8D8F779F8F8E8FAEA1BD
:10178000BFA1AA0FBB1FAA0FBB1FA65ABA4FBFA368
:10179000AEA3C201B101A80197010E9430369B019E
:1017A000AC01C601B5010E94F73220E030E040E014
:1017B0005FE30E943036EEA1FFA1638774878587BF
:1017C00096878CA19DA1880F991F880F991F865A13
:1017D0009A4F9DA38CA3C601B501A80197010E9451
:1017E00030369B01AC01C201B1010E94F83220E009
:1017F00030E040E05FE30E943036ACA1BDA11B9613
:101800006D937D938D939C931E97DBC0862C9924BA
:1018100008211921012B11F483E294C2EE8DFF8D72
:10182000E17FFF8FEE8F80915905813041F545E6CC
:10183000E42E45E0F42E00E010E0C401002E02C0CA
:10184000959587950A94E2F780FF10C0D7016D91B6
:101850007D918D919C9123E333E34BEC51E40E9405
:101860003036F70160837183828393830F5F1F4F4C
:1018700084E090E0E80EF91E03301105F1F6EEA0C9
:10188000FFA0EE0CFF1CEE0CFF1CAAE5B5E0EA0E73
:10189000FB1EC601B501F7012385348545855685B4
:1018A0000E94F7325B016C010CA11DA1000F111FFA
:1018B000000F111F065A1A4FC201B101D8011B9621
:1018C0002D913D914D915C911E970E94F7329B01A5
:1018D000AC01C601B5010E94F5165B016C01F70170
:1018E0006385748585859685D8011B962D913D91DC
:1018F0004D915C911E970E94F5163B014C0160933F
:101900007A0570937B0580937C0590937D05C601D5
:10191000B501A40193010E94F7327B018C01E89488
:1019200017F9C801B7012AE037ED43EA5BE30E94EB
:10193000F33518160CF045C0C801B70120E030E0BF
:1019400040E05FE30E94F33518160CF4FAC1C401BD
:10195000B3012FE632E143E85AE30E9430369B019F
:10196000AC01C801B7010E94F335181654F5E9C15E
:10197000772009F4E4C10EE215E092E8E92E95E043
:10198000F92EF8016081718182819381D7012D91B7
:101990003D914D915C910E94DC33882359F40C5F9A
:1019A0001F4FE4E0F0E0EE0EFF1EF5E00A331F07E4
:1019B00041F7C7C10E94421D882319F084E2C2C1C9
:1019C0001BA28E8D9F8D8E7D9C7F2BA1222321F0CB
:1019D0008E8D9F8D8E7D907E892B11F085E2B2C118
:1019E0008091580580931C05809161059091620556
:1019F000A0916305B09164058093290590932A0511
:101A0000A0932B05B0932C05E0907E05F0907F0508
:101A10000091800510918105609125057091260542
:101A20008091270590912805A80197010E94DC3339
:101A3000882381F0E0922505F09226050093270582
:101A40001093280580912405882321F0B801A7016F
:101A50000E94B8279091600580912405891769F04C
:101A60009093240540912505509126056091270506
:101A700070912805892F0E94B82790915F05809169
:101A80002305891729F090932305892F0E94330499
:101A900080915605813051F46091760570917705FB
:101AA00080917805909179050E94091280915B05DB
:101AB00080931F058091590580931D058BA183306C
:101AC000D9F480915C0580932005813049F48091A0
:101AD0008A0590918B05A0918C05B0918D0504C06D
:101AE00080E090E0A0E0B0E0809352059093530531
:101AF000A0935405B093550590915D058091210503
:101B0000891759F090932105AAE3B5E0FE013696B6
:101B10008CE001900D928150E1F780915A058093FD
:101B20001E0580915605853009F43FC0863048F483
:101B30008330D9F1843008F058C0823009F06EC08B
:101B40000AC0883009F459C0893009F460C0863071
:101B500009F064C04CC06091760570917705809162
:101B60007805909179050E940A370E9451346623C6
:101B700019F0162F115002C01091210582E1E82EB4
:101B8000F12CEC0EFD1E812FB7010E94F8268091EA
:101B90002105811709F042C0AAE3B5E0F7018CE006
:101BA00001900D928150E1F739C09BA1992349F032
:101BB00082E895E040E050E060E87FEB20E00E94A2
:101BC00064128E010E5E1F4FC80140E050E060E8D5
:101BD0007FEB20E00E946412AEE2B5E0F8018CE0F9
:101BE00001900D928150E1F719C086E001C087E0B5
:101BF0006EE275E00E94F82611C0A6E4B5E0E2E8C6
:101C0000F5E08CE001900D928150E1F707C08CE087
:101C1000E6E4F5E0DF011D928A95E9F7809157052A
:101C200080931B05853009F465C0BBA1B23009F073
:101C300061C0843040F4823008F5882341F081305F
:101C400009F04FC00CC0843009F04BC03CC082E8A2
:101C500095E040E050E060E87FEB20E00CC0409170
:101C6000290550912A0560912B0570912C0582E879
:101C700095E020911C050E94641233C000D00091B1
:101C80007A0510917B0520917C0530917D05C090EF
:101C90002905D0902A05E0902B05F0902C0589A10C
:101CA000EDB7FEB7818398A192838EE295E062E85A
:101CB00075E045E655E0A0901C058AA00E943C1303
:101CC0000F900F900EC04091290550912A05609108
:101CD0002B0570912C0582E895E020911C050E944F
:101CE0009C12AEE2B5E0E2E8F5E08CE001900D92E6
:101CF0008150E1F780915E0580932205882311F1E0
:101D00000E94071E10929E0580912205823019F4D0
:101D10000E94D01102C01092220580E013C088E119
:101D200011C084E10FC087E10DC085E10BC086E1E1
:101D300009C08CE107C08DE105C087E003C08AE1DE
:101D400001C081E2A7960FB6F894DEBF0FBECDBFEB
:101D5000CF91DF911F910F91FF90EF90DF90CF9087
:101D6000BF90AF909F908F907F906F905F904F90BB
:101D70003F902F900895EBE1F5E08BE3DF011D929A
:101D80008A95E9F780912105BF01615E7F4F0E942E
:101D90000327882319F487E00E940620089584B160
:101DA000817F84B98091A806982F86FF03C085B1F2
:101DB000817F02C085B18E6085B993FF09C0809193
:101DC0006B008E6080936B0080916800816008C01A
:101DD00080916B00817F80936B00809168008E7F83
:101DE000809368000895EBE6F0E08081817F808336
:101DF000E8E6F0E080818E7F80830895CF92DF92C5
:101E0000EF92FF920F931F93CF93DF936C01C0E08B
:101E1000D0E0F601EC0FFD1FE080F180028113811C
:101E2000C801B70120E030E040E050E00E94F33507
:101E300018166CF0FE01E459F94FC801B70124A14E
:101E400035A146A157A10E94DC33882304F5809177
:101E50008F05803179F49FB7F89480919005886060
:101E6000809390059FBF0E946D1D80918E058823F1
:101E7000D1F312C00E94D0119FB7F89480919005C1
:101E80008066809390059FBF0E946D1D05C02496BB
:101E9000CC30D10509F0BDCFDF91CF911F910F91CB
:101EA000FF90EF90DF90CF9008951F920F920FB6A2
:101EB0000F9211242F933F934F935F936F937F93D0
:101EC0008F939F93AF93BF93EF93FF9380918F0571
:101ED000813071F08091900585FD0AC00E94D0117B
:101EE0009FB7F894809190058066809390059FBF7E
:101EF000FF91EF91BF91AF919F918F917F916F91E2
:101F00005F914F913F912F910F900FBE0F901F90B7
:101F100018952F923F924F925F926F927F928F927D
:101F20009F92AF92BF92CF92DF92EF92FF920F9368
:101F30001F93DF93CF93CDB7DEB768970FB6F894B2
:101F4000DEBF0FBECDBF982E80918E05882309F08D
:101F5000CEC18091AE069091AF06A091B006B0912F
:101F6000B1068F87988BA98BBA8BE0909006F09082
:101F700091060091920610919306D0909406C0901D
:101F80009506B0909606A0909706C801B7012D2D32
:101F90003C2D4B2D5A2D0E94F335181634F48D2DFF
:101FA0009C2DAB2DBA2D7C018D01D0909806C09050
:101FB0009906B0909A06A0909B06C801B7012D2DF6
:101FC0003C2D4B2D5A2D0E94F335181634F48D2DCF
:101FD0009C2DAB2DBA2D7C018D01C801B70120E0ED
:101FE00030E040EC5FEB0E9430366B017C010E94D8
:101FF000CE1B01E095E09D871E010894211C311C39
:10200000492C552446015701B7FAB094B7F8B0945B
:10201000D201A170B070BC8BAB8BF201E270F0709A
:10202000FE8BED8BC20184709070988F8F8B8091A6
:10203000A80686FD02C00E8703C091E090279E8708
:102040003101F10160E020E030E0C201022E02C067
:10205000959587950A94E2F780FF0DC06F5F002386
:1020600029F480829182A282B3820DC0C082D18283
:10207000E282F38208C080E090E0A0E0B0E08083DC
:102080009183A283B3832F5F3F4F34962330310572
:10209000E1F63091A906232F35FF09C089819A8185
:1020A000AB81BC81B05889839A83AB83BC8326FF04
:1020B00009C08D819E81AF81B885B0588D839E8384
:1020C000AF83B88737FF09C089859A85AB85BC8502
:1020D000B05889879A87AB87BC87AB89BC89AB2B03
:1020E00011F410E001C014E0ED89FE89EF2B09F036
:1020F00018608F89988D892B09F0106110939105D4
:1021000070E080E090E00E947D340E94C5369B0123
:10211000AC016F85788989899A890E943036AB0134
:10212000BC01C10120E00E94C8180E9454280E94EE
:10213000CE2783B19E85992311F0AEE08A2712FF46
:1021400002C081FD1B7F13FF02C082FD177F14FFB9
:1021500002C083FD1F7E109391050E945428809138
:10216000900584FF03C00E946D1DC1C0812F8C713A
:1021700001F70E94D22E0E94CE1B8091B206909150
:10218000B3060E94DC168091AA069091AB06A0913E
:10219000AC06B091AD068F87988BA98BBA8B9D85C5
:1021A000992329F0A1E00A2791509D8740CF92E919
:1021B000C92E95E0D92E8CE6882E86E0982EAA248A
:1021C000BB24C2010A2C02C0959587950A94E2F7B8
:1021D00080FF49C01091A9068A2D0E94E616182397
:1021E00069F1F401E4A0F5A006A117A16091B4067D
:1021F0007091B5068091B6069091B706A801970137
:102200000E94F832D3016D937D938D939C93139725
:10221000C801B701F40120813181428153810E94BC
:1022200030360E940036D6016C9311967C9311973C
:1022300012968C93129713969C9328C08091B406A3
:102240009091B506A091B606B091B706B058F301CB
:1022500080839183A283B383D6011D921D921D9228
:102260001C92139713C0F601608171818281938162
:102270000E947F34D4012D913D914D915C910E943B
:10228000E333F30160837183828393830894A11CF9
:10229000B11C84E090E0680E791EC80ED91E880E2D
:1022A000991E93E0A916B10409F08BCF0E944D1737
:1022B0004091AE065091AF066091B0067091B106A4
:1022C000CE01019620E00E94C81888E080938F0517
:1022D0009FB7F894809190058260809390059FBF8E
:1022E0000E946D1D0E94071E84E080938F056896F2
:1022F0000FB6F894DEBF0FBECDBFCF91DF911F9117
:102300000F91FF90EF90DF90CF90BF90AF909F9094
:102310008F907F906F905F904F903F902F90089597
:102320001F930E948A230E942E270E9404280E9445
:1023300026318EE1EEE8F5E0DF011D928A95E9F79E
:1023400081E080938E0578948091A80684FF03C075
:1023500081E080938F0511E00E94FD230E94BB0E57
:102360000E94B2270E942E040E94CF0E0E943F1DA1
:102370000E94CE1B0E94D22E0E944D170E94EE0496
:1023800010928E05109290058091A80681FF03C0DF
:1023900010939E0502C010929E050E941E1EDCCF67
:1023A0008091900584FD1AC08FB7F89490919005A4
:1023B0009061909390058FBF0E94B6270E943104D0
:1023C00080918F05847351F09FB7F89480919005A8
:1023D0008062809390059FBF0E94A62E089584E09E
:1023E00080938F050E94F30E84E00E94890F83E0A2
:1023F0000E94890F0E946D1D80918E05882341F4F3
:102400000E94EE0410928F050E94A62E0E94CF0E0D
:102410000895EF92FF920F931F93CF93DF937B0169
:102420008C0180918F05823009F447C0C801B70143
:1024300020E030E040EA51E40E9430360E94BA3495
:102440000E945134EB010E94071EC801B70120E031
:1024500030E04AE754E40E9430367B018C0182E38D
:1024600090E0C89FB001C99F700DD89F700D1124D6
:1024700080E090E00E947D349B01AC01C801B7016F
:102480000E94F7320E94BA340E945134DC01CB0121
:102490000E94DC1600E911E00EC00E946D1D8091C3
:1024A0008E05882351F484EF91E0F8013197F1F71C
:1024B0000197D9F72197209781F7DF91CF911F914D
:1024C0000F91FF90EF900895DF92EF92FF920F939C
:1024D0001F93CF93DF93EC017A018B01D22E809171
:1024E000A80685FF03C0CE010E94FE0E80918F05D5
:1024F0008230D1F00E946D1D80918E058823A1F459
:102500000E944317882319F00E94601DF3CFCE016B
:10251000B801A7012D2D0E94C81880918F0588232E
:1025200019F488E080938F05DF91CF911F910F916F
:10253000FF90EF90DF9008957F928F929F92AF92DD
:10254000BF92CF92DF92EF92FF920F931F93CF93A0
:10255000DF936C014A015B01722E80918F058031FF
:1025600011F00E94601D0E94071E80918E05882335
:1025700009F074C0C601B501A401272D0E946412A0
:1025800081E080939F059FB7F894809190058260C9
:10259000809390059FBF0E946D1D80918E058823BA
:1025A00009F05CC080918F05882311F0883099F77D
:1025B00080919F05813041F49FB7F89480919005F8
:1025C0008064809390059FBF0E946D1D80918E0551
:1025D000882309F043C080EAE82E85E0F82EC0E0A9
:1025E000D0E086010C0F1D1FF7016191719181915F
:1025F00091917F010E947F34FE01E459F94F2081BF
:102600003181428153810E94E333F80160837183F9
:10261000828393832496CC30D10519F70E946D1DD7
:102620000E94D22E0E94CE1B0E944D17C601B501FA
:10263000A401272D0E9464128FB7F8949091900501
:102640009260909390058FBF0E94071E80918E0527
:10265000882321F40E94EE040E94A51FDF91CF91F0
:102660001F910F91FF90EF90DF90CF90BF90AF90B0
:102670009F908F907F9008952F923F924F925F92FC
:102680006F927F928F929F92AF92BF92CF92DF9282
:10269000EF92FF920F931F93DF93CF93CDB7DEB7E7
:1026A000EF970FB6F894DEBF0FBECDBF9CAB8BABE0
:1026B0007EAB6DAB3A010FAB18AF29AF3AAFCBAEE3
:1026C000DCAEEDAEFEAEAFAE9924880C991C880C42
:1026D000991C880D991D9AAB89AB9A01280D391D5B
:1026E00038AB2FA7D901AD90BD90CD90DC90C6013D
:1026F000B501E9A9FAA920813181428153810E9463
:10270000F8326DA37EA38FA398A765966FAD6597EA
:10271000462E5524440C551C440C551C2BA93CA991
:10272000240D351D3EA72DA7C301840D951D9CA723
:102730008BA7DC01ED90FD900D911C91C801B701B4
:10274000F90120813181428153810E94F83269A3CD
:102750007AA38BA39CA3D601C501B0588D8F9E8F01
:10276000AF8FB8A3D801C701B058898F9A8FAB8FAC
:10277000BC8FADA9BEA98A0E9B1EF4016081718138
:10278000828193812DA13EA14FA158A50E94F732CD
:102790003B014C012DA93EA9420E531ED2016D9161
:1027A0007D918D919C9129A13AA14BA15CA10E94A0
:1027B000F7325B016C016D8D7E8D8F8D98A1A60126
:1027C00095010E9430367B018C01698D7A8D8B8D4D
:1027D0009C8DA40193010E9430369B01AC01C8017D
:1027E000B7010E94F7321B012C016D8D7E8D8F8DFC
:1027F00098A1A40193010E9430367B018C01698D60
:102800007A8D8B8D9C8DA60195010E9430369B019F
:10281000AC01C801B7010E94F8329B01AC01C201B2
:10282000B1010E9470335B016C0180911B05823005
:1028300099F4C601B50120E030E040E050E00E948C
:10284000F3358823ECF0C601B5012BED3FE049ECF0
:1028500050E40E94F73212C0C601B50120E030E01A
:1028600040E050E00E94DC33181654F0C601B50178
:102870002BED3FE049EC50E40E94F8325B016C0123
:10288000E090A406F090A5060091A6061091A70678
:102890006FA978AD89AD9AAD9B01AC010E94F83269
:1028A000A80197010E94F7329B01AC01C801B70152
:1028B0000E9430360E94C5367B018C01C601B501ED
:1028C00020E030E040E05FE30E9430362FA938ADD1
:1028D00049AD5AAD0E9430369F77A80197010E94FA
:1028E000E3330E94BA340E945134788F6F8B6115A4
:1028F000710509F487C1BFADBB2381F080E090E092
:102900000E947D349B01AC016BAD7CAD8DAD9EAD65
:102910000E9430366BAF7CAF8DAF9EAF2F89388D64
:10292000B90180E090E00E947D347B018C01C601FA
:10293000B501A80197010E94E3336B8B7C8B8D8BD3
:102940009E8B6696EFAD6697F0E0EE0FFF1FEE0FE1
:10295000FF1F8BA99CA98E0F9F1F9AA789A7ADA9BE
:10296000BEA9EA0FFB1F6081718182819381E9A575
:10297000FAA520813181428153810E94F732A8015A
:1029800097010E94E3336F87788B898B9A8B6B89D1
:102990007C898D899E899B01AC010E9430369B0108
:1029A000AC0160E070E080E090E40E94F7325B01EF
:1029B0006C016B897C898D899E892BEA3AEA4AE20F
:1029C0005EE30E9430367B018C01C601B50120E038
:1029D00030E040E850E40E94F8329B01AC01C801AD
:1029E000B7010E9430366B877C878D879E87C60132
:1029F000B50120E030E040E05FE30E9430366983BB
:102A00007A838B839C8321E030E03E832D8399245D
:102A1000F1C033E1391508F446C06D8D7E8D8F8D80
:102A200098A12B853C854D855E850E9430367B01C3
:102A30008C01698D7A8D8B8D9C8D29813A814B819A
:102A40005C810E9430369B01AC01C801B7010E9435
:102A5000F8327B018C016D8D7E8D8F8D98A129813F
:102A60003A814B815C810E9430365B016C01698D3B
:102A70007A8D8B8D9C8D2B853C854D855E850E9446
:102A800030369B01AC01C601B5010E94F7326D8F53
:102A90007E8F8F8F98A39394C701D801898F9A8FC7
:102AA000AB8FBC8F61C0AD81BE81BD0180E090E085
:102AB0000E947D342B893C894D895E890E94303685
:102AC0007B018C01C8010E94E0336F83788789877E
:102AD0009A87B701C8010E94BB363B014C01EFA5A4
:102AE000F8A9E080F1800281138117FB109517F996
:102AF0001095ABA5BCA52D903D904D905C90C80164
:102B0000B7012F81388549855A850E9430365B018F
:102B10006C01C201B101A40193010E9430369B01F6
:102B2000AC01C601B5010E94F8326D8F7E8F8F8F88
:102B300098A3C801B701A40193010E9430367B011C
:102B40008C01C201B1012F81388549855A850E94C7
:102B500030369B01AC01C801B7010E94F732698F82
:102B60007A8F8B8F9C8F99246DA17EA18FA198A5C0
:102B70002D8D3E8D4F8D58A10E94F832E9A9FAA9FA
:102B8000608371838283938369A17AA18BA19CA1C5
:102B9000298D3A8D4B8D5C8D0E94F832ADA5BEA576
:102BA0006D937D938D939C931397E9A5FAA560810E
:102BB0007181828193812F85388949895A890E9440
:102BC000F832A9A5BAA56D937D938D939C93139725
:102BD0008BA99CA94BAD5CAD6DAD7EAD2FAD0E94B8
:102BE000641280918E058823B1F4ED81FE813196C7
:102BF000FE83ED832D813E818F89988D28173907BB
:102C000008F407CF8DA99EA94BAD5CAD6DAD7EAD2F
:102C10002FAD0E946412EF960FB6F894DEBF0FBE80
:102C2000CDBFCF91DF911F910F91FF90EF90DF907B
:102C3000CF90BF90AF909F908F907F906F905F905C
:102C40004F903F902F9008956F927F928F929F9216
:102C5000AF92BF92CF92DF92EF92FF920F931F93AA
:102C6000CF93DF934C013B015A01FB018081F401BA
:102C7000E80FF11DEF0189918D3229F481812196B0
:102C8000CC24C39405C08B3211F481812196CC24CD
:102C900020E030E040E050E0DD24E0E070E0682F2C
:102CA00060536A30F8F4EF5FE930C0F47111DA94E0
:102CB000DA01C901F2E0880F991FAA1FBB1FFA951C
:102CC000D1F7280F391F4A1F5B1F220F331F441FE4
:102CD000551F260F311D411D511D09C0772339F4A1
:102CE000D39405C06E3F29F4772319F471E08991DC
:102CF000D6CFEE2311F480E050C0CA01B9010E9482
:102D00007D347B018C0120E030E040E050E00E9407
:102D1000DC33882369F42BC0C801B7012AE037ED02
:102D200043E25CE30E9430367B018C01F2E0DF0E6F
:102D30008FEFD8168CF3D81659F4C801B7012DECD3
:102D40003CEC4CEC5DE30E9430367B018C010FC003
:102D5000DD2069F0C801B70120E030E040E251E435
:102D60000E9430367B018C01DA941D149CF3CC2038
:102D700049F0D801C701B058F50180839183A2833F
:102D8000B38305C0F501E082F18202831383882DAD
:102D900080958C0FF301808381E0DF91CF911F91AB
:102DA0000F91FF90EF90DF90CF90BF90AF909F90EA
:102DB0008F907F906F90089520EA3FE004C0F90162
:102DC0003197F1F701970097D1F70895813049F0D5
:102DD000813018F0823019F406C080E2089580E056
:102DE000089580E4089580E80895AF92BF92CF924D
:102DF000DF92EF92FF920F931F937B018C01590199
:102E00006A01A80197010E9430367B018C01C6013E
:102E1000B501A60195010E9430369B01AC01C801A5
:102E2000B7010E94F8320E94C5361F910F91FF90A2
:102E3000EF90DF90CF90BF90AF9008952091E20384
:102E40008091E303821769F0922F9F5F923109F41A
:102E500090E08091E503281711F49093E503909397
:102E6000E20308959091E2038091E303891719F436
:102E700020E030E006C089E2989F900111242050A4
:102E80003F4FC901089520E09091E2038091E4034F
:102E9000981709F421E0822F08958091920590916E
:102EA0009305A0919405B09195058093E6039093C6
:102EB000E703A093E803B093E9038091960590910E
:102EC0009705A0919805B09199058093EA03909396
:102ED000EB03A093EC03B093ED0380919A059091DE
:102EE0009B05A0919C05B0919D058093EE03909366
:102EF000EF03A093F003B093F10308954F925F9214
:102F00006F927F928F929F92AF92BF92CF92DF92F9
:102F1000EF92FF920F931F93CF93DF938091E30380
:102F2000882309F482E1782E7A946090E503761480
:102F300009F4F2C089E2789E4001112480E091E01A
:102F4000880E991EF401A588B688C788D08C21A167
:102F500032A143A154A1CA01B9010E94F832F4017F
:102F600025A136A147A150A50E9430367B018C01D6
:102F7000B501C601A80197010E94DC3387FD04C09A
:102F8000D801C70157016D01C501D601F401818B3C
:102F9000928BA38BB48B772011F432E1732E7A9449
:102FA000761409F04EC08091E203681609F050C013
:102FB0000E9432284DC0769CE0011124C050DF4FA2
:102FC000772011F422E1722E7A948091E203781630
:102FD00011F40E943228AD88BE88CF88D88C6989C8
:102FE0007A898B899C89A60195010E94DC3388230C
:102FF00031F129A13AA14BA15CA1CA01B9010E94FA
:10300000F8322DA13EA14FA158A50E943036F401FF
:1030100021893289438954890E94F8327B018C01CD
:10302000A60195010E94DC3388232CF4E98AFA8AF0
:103030000B8B1C8B04C0A98ABA8ACB8ADC8A4E010E
:1030400002C099E2692E8091E503781609F0B3CFAA
:10305000A090E503BA2CB394F2E1BF1609F4BB24A7
:1030600089E2A89E8001112400501F4F5090E30375
:1030700089E2482E4CC0B49CE0011124C050DF4FBF
:10308000F801C188D288E388F48869887A888B88B7
:103090009C88C701B601A40193010E94DC338823F8
:1030A0001CF5F80121A132A143A154A1CA01B90123
:1030B0000E94F832F80125A136A147A150A50E942F
:1030C00030369B01AC01C701B6010E94F8327B018A
:1030D0008C01A40193010E94DC3388232CF4E98A3B
:1030E000FA8A0B8B1C8BAB2C69897A898B899C891A
:1030F0002D893E894F89588D0E94DC33882309F43D
:10310000AB2CB394F2E1BF1609F4BB248E01B514C5
:1031100009F0B1CFA092E503DF91CF911F910F91FC
:10312000FF90EF90DF90CF90BF90AF909F908F90E7
:103130007F906F905F904F9008950E943228809109
:10314000E2038093E5030E947E1708952091E20335
:103150002F5F223109F420E08091E303281729F43E
:1031600060E070E080E090E012C030E089E290E042
:10317000289FF001299FF00D389FF00D1124E05099
:10318000FF4F61897289838994890E94C5360895A9
:103190002F923F924F925F926F927F928F929F9267
:1031A000AF92BF92CF92DF92EF92FF920F931F9355
:1031B000DF93CF93CDB7DEB7E6970FB6F894DEBFB7
:1031C0000FBECDBF9DA78CA74EA75FA768AB79ABFD
:1031D0002AAB9091E30389E2989F4001112420E0FB
:1031E00031E0820E931ED4011D961D921D921D92F8
:1031F0001C92509780E090E0A0E0B0E0F40185A33D
:1032000096A3A7A3B0A7108289E996E7A6E9BEE72F
:1032100081A392A3A3A3B4A32CE636E03C8F2B8F0B
:103220001E010894211C311C46EE442E43E0542E0E
:103230009A8E898E1BA666247724ECA5FDA5E60D43
:10324000F71D6081718182819381AB8DBC8D2D9141
:103250003D914D915C910E9430360E9400369B0159
:10326000AC01F1012083318342835383F2018081D9
:103270009181A281B381281B390B4A0B5B0B57FF4D
:1032800007C050954095309521953F4F4F4F5F4F68
:10329000A98DBA8D11962D933D934D935C93149700
:1032A000F40185859685A785B089281739074A07CF
:1032B0005B0710F49C01AD01D4011D962D933D9345
:1032C0004D935C935097F10160817181828193816C
:1032D000D2012D913D914D915C91621B730B840B3A
:1032E000950B0E947F34EB8DFC8D208131814281D2
:1032F00053810E94E3335B016C01EDE0F0E0EC0FE1
:10330000FD1FE60DF71D608371838283938320E0A8
:1033100030E040E050E00E94DC33882344F4D401E4
:103320001C918BA50E94E616182BF4011083D40182
:103330009596ED90FD900D911C919897C601B50161
:10334000A60195010E9430369B01AC01C801B7016E
:103350000E94F8327B018C01CB01D801F40185A3D6
:1033600096A3A7A3B0A7FBA5FF5FFBA724E030E0CF
:10337000620E731E8B8D9C8D04969C8F8B8F220EFC
:10338000331E420E531EA98DBA8D1496BA8FA98F83
:10339000F33009F052CFB701C8010E94C5367B0156
:1033A0008C01F40165A376A387A390A785859685F4
:1033B000A785B0890097A105B10509F4D6C16EA50E
:1033C0007FA588A999A920E030E040E050E00E9464
:1033D000DC3388234CF489E996E7A6E9BEE78EA79B
:1033E0009FA7A8ABB9AB0FC09AA9992361F0C801F8
:1033F000B7012EA53FA548A959A90E94E3336EA79E
:103400007FA788AB99AB60E070E080E89FE3A801FC
:1034100097010E94E3336FA378A789A79AA7DE01DB
:103420001D96BAA3A9A3E2EFF3E0F8A3EF8F28E774
:1034300036E03E8F2D8F80E090E0A0E0B0E08BA3DF
:103440009CA3ADA3BEA3DE015996BEABADABE9A173
:10345000FAA1E080F18002811381C801B70120E068
:1034600030E040E050E00E94DC33882309F47CC067
:10347000C801B7012FA138A549A55AA50E94303629
:103480002B013C01A9A1BAA16D937D938D939C93CF
:10349000139760E070E080E89FE3A30192010E942F
:1034A000E3335B016C01E894D7F8C601B501ED8DFB
:1034B000FE8D20813181428153810E9430367B0113
:1034C0008C016EA57FA588A999A9A80197010E94E2
:1034D000DC3387FD04C0EEA6FFA608AB19ABD40110
:1034E0009196BC91BBABF401F2A1FCABD4019396D5
:1034F0002C90939794963C90C601B501ED8DFE8D6E
:1035000024853585468557850E9430367B018C01A0
:103510006BA97CA9C101A80197010E94DC3387FD3A
:1035200005C0D801C701EBAA9CAB1D018BA99CA9C2
:10353000D101F40181A392A3A3A3B4A3C301B20157
:10354000AF8DB8A12D913D914D915C910E94303687
:103550009B01AC016BA17CA18DA19EA10E94F732C1
:103560006BA37CA38DA39EA3E9A1FAA13496FAA331
:10357000E9A32F8D38A12C5F3F4F38A32F8F8D8D5E
:103580009E8D04969E8F8D8FADA9BEA9EA17FB076D
:1035900009F05DCF9091E3038091E203981771F4F5
:1035A00080E090E0A0E0B0E0F401818B928BA38BEF
:1035B000B48B818F928FA38FB48F52C060E070E084
:1035C00080E89FE32BA13CA14DA15EA10E94F732B0
:1035D00020E030E040E05FE30E9430360E94C536D4
:1035E0005B016C01D40191966D917D918D919C91BF
:1035F00094972091A0063091A1064091A206509187
:10360000A3060E943036A60195010E9430367B0148
:103610008C0160E070E080E89FE3A60195010E94C4
:10362000F7329B01AC01C801B7010E94E3337B0173
:103630008C0120E030E040E050E00E94DC33882341
:1036400054F40F2EF0E0EF2EF0E0FF2EF0E00F2FFD
:10365000F0E01F2FF02DF401E18EF28E038F148F16
:103660006EA57FA588A999A99B01AC010E9430365F
:103670007B018C01D4015D966D937D938D939C931A
:10368000909759965C9059975A964C905A975B969A
:103690003C905B975C962C90D090FE03C090FF030B
:1036A000B0900004A09001042D2D3C2D4B2D5A2DDF
:1036B0000E94DC3387FD04C06D2C7C2CF50105C015
:1036C000D801C7013701FA2FEB2F652D742D832DFB
:1036D000922D93014F2F5E2F0E94DC3388232CF410
:1036E000852D942DA32DB22D0EC0C801B7012D2D0F
:1036F0003C2D4B2D5A2D0E94DC3387FD06C08D2DAD
:103700009C2DAB2DBA2D7C018D01F401E58AF68A42
:10371000078B108FA2EFB3E0FE013D968CE0019085
:103720000D928150E1F7F401858D968DA78DB0A1A2
:103730008093FE039093FF03A0930004B0930104D1
:10374000A6EEB3E0FE0131968CE001900D9281501F
:10375000E1F78091E4038093E3038F5F823109F402
:1037600080E08093E4030E947E17E6960FB6F894FB
:10377000DEBF0FBECDBFCF91DF911F910F91FF90A4
:10378000EF90DF90CF90BF90AF909F908F907F9001
:103790006F905F904F903F902F9008958CE1E6EEF0
:1037A000F3E0DF011D928A95E9F71092E20310928F
:1037B000E30381E08093E4031092E50308958F9280
:1037C0009F92AF92BF92CF92DF92EF92FF920F93B0
:1037D0001F93DF93CF93CDB7DEB72A970FB6F89438
:1037E000DEBF0FBECDBF7B018C01A42E20E030E0F8
:1037F00040E050E00E94DC3388233CF48DE20E94DC
:10380000A02317FB109517F91095DA2C0CC0C801EE
:10381000B70120E030E048EC52E40E9430367B01F2
:103820008C018EEFD80EE1E0ED1588F3A0FE0AC002
:10383000C801B70120E030E040E251E40E94303698
:103840007B018C01C801B70120E030E040E05FE37C
:103850000E94F8320E944C346B017C019E012F5F64
:103860003F4FF901EA0DF11D8EE28083BB2449012F
:103870001EC0BA1409F4B39484010B0D111DC701C5
:10388000B6012AE030E040E050E00E943737605D4A
:10389000F8016083B394C701B6012AE030E040E04C
:1038A00050E00E943737C901DA016C017D01C11473
:1038B000D104E104F104E9F606C0FC01EB0DF11DB1
:1038C0002083B39403C0CE01019620E3BA14A8F379
:1038D000BA1489F48B2D8F5FFE01E80FF11D90E380
:1038E0009183B82EB39407C0FE01EB0DF11D8081CA
:1038F0000E94A023BA94BB20B9F72A960FB6F89479
:10390000DEBF0FBECDBFCF91DF911F910F91FF9012
:10391000EF90DF90CF90BF90AF909F908F900895E1
:1039200043E00E94DF1B08959B01AC018091A80633
:1039300080FF0AC0CA01B9012BE832E441E25DE32D
:103940000E94303641E003C0CA01B90140E00E9444
:10395000DF1B08959B01AC018091A80680FF0AC07F
:10396000CA01B9012BE832E441E25DE30E9430363E
:1039700044E003C0CA01B90143E00E94DF1B08957F
:103980001F93DF93CF9300D00F92CDB7DEB7282FD0
:10399000882321F480E30E94A0231EC010E0AE0122
:1039A0004F5F5F4FFA01E10FF11D822F6AE00E9425
:1039B0002B37905D90831F5F822F0E942B37282F1B
:1039C000882381F707C0FE01E10FF11D80810E946D
:1039D000A02311501123B9F70F900F900F90CF91A2
:1039E000DF911F9108950F931F93DF93CF93CDB76E
:1039F000DEB728970FB6F894DEBF0FBECDBF982F65
:103A0000FE0131969E01275F3F4F892F8170819380
:103A10009695E217F307C9F78E01085F1F4FF8016B
:103A20008081805D0E94A023015010400C171D076B
:103A3000B1F728960FB6F894DEBF0FBECDBFCF9179
:103A4000DF911F910F910895CF93DF93EC0102C096
:103A50000E94A023FE01219684918823C9F7DF915B
:103A6000CF910895CF93DF93EC0103C021960E947C
:103A7000A02388818823D1F7DF91CF9108953D98C5
:103A8000459A089586B18295869587708095817054
:103A9000089580919F05813091F4359910C010925E
:103AA0009F05E0EAF5E0DF011E978CE00D900192A2
:103AB0008150E1F78091900588608093900508958A
:103AC00080919E05882341F09FB7F89480919005DE
:103AD0008260809390059FBF0895CF93DF9380917C
:103AE0009005882309F48AC0C82FD0E0CE018076E3
:103AF0009070892B39F181E080938F05C6FF17C044
:103B0000C5FF02C08FEF01C08DEF0E94692381E0E5
:103B10000E949A1E9FB7F894809190058F7E8093A3
:103B200090059FBF8091900584FFFCCF03C08EEF6E
:103B30000E9469239FB7F894809190058F798093B4
:103B400090059FBFC4FF04C081E080938E055CC0D8
:103B5000C0FF0AC00E94C41E9FB7F89480919005D0
:103B60008E7F809390059FBFC3FF15C080918F0506
:103B7000803149F480E280938F050E9432280E94B0
:103B8000542810929E059FB7F89480919005877FE6
:103B9000809390059FBFC1FF1DC080918F05883025
:103BA00089F480E180938F050E9454280E94CE27DB
:103BB0008091A80681FF04C081E080939E0502C029
:103BC00010929E059FB7F894809190058D7F809309
:103BD00090059FBFC2FF12C00E943217892B21F0AF
:103BE00088E080938F0502C010928F059FB7F894EC
:103BF000809190058B7F809390059FBF80918F056A
:103C0000847311F00E945428DF91CF910895809120
:103C10008F05803151F481E080939E0506C00E949B
:103C20006D1D80918E05882341F40E943217892BE7
:103C3000B1F780918F05803191F308950F931F9311
:103C40000E94951E80918F05813021F482E00E94B0
:103C50009A1E1CC010928F0582E094E00E9473317E
:103C600015C09A3011F09D3029F5E12FF0E0EE5F9C
:103C7000FB4F10820E946D1D80918E05882331F4C8
:103C800080910204882321F40E94062000E025C0D0
:103C9000843229F482E094E00E949F31F5CF809134
:103CA0008F05813011F489E0EFCF82E094E00E942B
:103CB0004305EACF002321F0993209F500E01FC047
:103CC0009132E8F09F32D9F0983211F401E017C038
:103CD000153428F08BE00E94062010E010C0892FD8
:103CE0008156A12FB0E0E12FEF5F8A3120F4AE5F63
:103CF000BB4F905202C0AE5FBB4F9C931E2F0E94E1
:103D0000E823982F8F3F09F0ACCF0E94601D0E94DE
:103D10006D1D80918E05882391F31F910F91089559
:103D20008FE295E00E94241D08958DE596E00E94A3
:103D3000241D08951F93182F87EC96E00E94241DE0
:103D4000133091F0143028F4113041F01230B1F4F6
:103D500008C0143061F0153089F40CC085EB96E092
:103D60000BC081EA96E008C08FE896E005C087E8BE
:103D700096E002C08EE796E00E94241D8AE796E056
:103D80000E94241D1F910895AF92BF92CF92DF929F
:103D9000EF92FF920F931F93DF93CF93CDB7DEB7D0
:103DA00068970FB6F894DEBF0FBECDBFDE01119647
:103DB000E2E9F5E08CE001900D928150E1F780910D
:103DC0008F058430E1F0853038F48130D9F08130CE
:103DD00050F08230F1F419C0803159F0803261F036
:103DE0008830B9F403C08CE291E011C085E291E023
:103DF0000EC080E291E00BC08AE191E008C084E14E
:103E000091E005C08DE091E002C086E091E00E9463
:103E1000241D8FEF90E00E94241DEE24FF245E01FC
:103E20000894A11CB11C9DE0C92ED12CCC0EDD1E26
:103E3000F501EE0DFF1D60817181828193810E94E9
:103E40007F34F701E459F94F208131814281538158
:103E50000E94E33386010E0D1F1D9B01AC01F8018A
:103E600020833183428353830E94AA1C8DEF90E00C
:103E70000E94241D84E090E0E80EF91E9CE0E91603
:103E8000F104B1F687EF90E00E94241D86018AE3D9
:103E9000E82E85E0F82EDD24F701608171818281B2
:103EA000938124853585468557850E94F8329B018C
:103EB000AC01F80160817181828193810E94F732A7
:103EC000F8016083718382839383F2E0DF1679F4D3
:103ED000209152053091530540915405509155055C
:103EE0000E94F732F8016083718382839383F80123
:103EF00060817181828193810E94AA1CF2E0DF16A9
:103F000021F085EF90E00E94241DD3940C5F1F4F99
:103F100084E090E0E80EF91E93E0D91609F0BCCFDA
:103F200081EF90E00E94241D68960FB6F894DEBFE2
:103F30000FBECDBFCF91DF911F910F91FF90EF90FA
:103F4000DF90CF90BF90AF900895FF920F931F9393
:103F5000CF93DF938AEE91E00E94241D00EA15E0E2
:103F6000CCE6D6E0FF24F8016081718182819381E3
:103F70000E947F34288139814A815B810E94E3332A
:103F80000E94AA1CF2E0FF1621F088EE91E00E9448
:103F9000241DF3940C5F1F4F249683E0F81619F745
:103FA00084EE91E00E94241DDF91CF911F910F912B
:103FB000FF9008950F931F938C0186E391E00E9478
:103FC000241DC8010E94321D82E391E00E94241D3D
:103FD0001F910F910895FF920F931F93F82E8B015D
:103FE0008BE491E00E94241D8F2D0E94C01C89E467
:103FF00091E00E94241DC8010E94321D86E491E0D8
:104000000E94241D1F910F91FF9008951F93182F58
:10401000882319F489E198E05CC081E198E00E946E
:10402000241D1730A9F1183078F4133029F1143019
:1040300030F41130C9F0123009F042C018C0153008
:1040400009F1163010F51BC01B3071F11C3028F43B
:10405000193021F11A3028F51EC0153141F1163101
:1040600061F1143169F526C089EF97E002C087EE4F
:1040700097E00E94241D2BC085ED97E0FACF8BECD2
:1040800097E0F7CF8AEB97E0F4CF8BEA97E0F1CF98
:104090008AE897E0EECF81E897E0EBCF86E797E0FC
:1040A000E8CF83E697E0E5CF85E597E0E2CF8FE3C1
:1040B00097E0DFCF8BE297E0DCCF87E197E0D9CFC5
:1040C00085E097E00E94241D812F0E94C01C82E0A1
:1040D00097E00E94241D1F91089580911B05823056
:1040E00091F0833028F4882341F08130B1F408C086
:1040F000833061F0853089F40CC089EB91E00BC00E
:1041000085EB91E008C081EB91E005C08DEA91E07C
:1041100002C088EA91E00E94241D85EA91E00E9495
:10412000241D809121058A5C0E94C01C80911F057E
:10413000813041F0813018F0823059F406C080EAB5
:1041400091E005C08BE991E002C086E991E00E9410
:10415000241D80911D05882319F481E991E002C096
:104160008CE891E00E94241D80911E05882319F49B
:1041700087E891E002C082E891E00E94241D8091CE
:104180001C05813019F48DE791E002C088E791E0C9
:104190000E94241D80912205813041F0813018F069
:1041A000823059F406C084E791E005C080E791E0D1
:1041B00002C08CE691E00E94241D8091240581308C
:1041C00029F0813048F0823059F403C088E691E04C
:1041D00005C084E691E002C080E691E00E94241DC3
:1041E00080912305882319F0823041F403C08CE5C7
:1041F00091E002C088E591E00E94241D85E591E0F0
:104200000E94241D80912D050E94C01C82E591E032
:104210000E94241D6091290570912A0580912B052B
:1042200090912C050E94941C8EE491E00E94241D24
:104230000895CF92DF92EF92FF920F931F93DF9337
:10424000CF93CDB7DEB72C970FB6F894DEBF0FBE75
:10425000CDBFEE246E010894C11CD11C8E2DB60179
:104260000E940327882321F487E00E9406206BC068
:1042700081EE91E00E94241D86E0E81621F0E7E03F
:10428000EE1649F403C08EED91E002C08BED91E093
:104290000E94241D04C08E2D8A5C0E94C01C89EDE2
:1042A00091E00E94241D8601FF24F8016081718144
:1042B000828193810E94AA1CF2E0FF1619F087ED1B
:1042C00091E002C083ED91E00E94241DF3940C5F05
:1042D0001F4F83E0F81649F7E394E8E0EE1609F083
:1042E000BDCF8DEC91E00E94241D06E415E0FF2473
:1042F000F80160817181828193810E94AA1CF2E0A1
:10430000FF1619F08BEC91E002C087EC91E00E945F
:10431000241DF3940C5F1F4F83E0F81649F781ECDE
:1043200091E00E94241D6091520570915305809187
:104330005405909155050E94AA1C8DEB91E00E94B6
:10434000241D0E94A51F2C960FB6F894DEBF0FBE49
:10435000CDBFCF91DF911F910F91FF90EF90DF9034
:10436000CF9008950F931F938BE295E00E94241D38
:104370000CE616E060916C0670916D0680916E06F9
:1043800090916F060E94901C88E195E00E94241D88
:10439000609170067091710680917206909173061B
:1043A0000E94901C85E095E00E94241D6091740697
:1043B0007091750680917606909177060E94901C08
:1043C00082EF94E00E94241D609178067091790636
:1043D00080917A0690917B060E94901C87ED94E074
:1043E0000E94241D60917C0670917D0680917E065E
:1043F00090917F060E94901C8CEB94E00E94241DFB
:10440000609180067091810680918206909183066A
:104410000E94901C81EA94E00E94241D6091840611
:1044200070918506809186069091870620E030E0A5
:1044300041E655E40E94E3330E94901C87E894E033
:104440000E94241D609188067091890680918A06D9
:1044500090918B0620E030E041E655E40E94E33382
:104460000E94901C8DE694E00E94241D60918C06B1
:1044700070918D0680918E0690918F0620E030E03D
:1044800041E655E40E94E3330E94901C83E594E0EA
:104490000E94241D60919006709191068091920671
:1044A0009091930690580E94901C89E394E00E949A
:1044B000241D6091940670919506809196069091C6
:1044C000970690580E94901C8FE194E00E94241D52
:1044D000609198067091990680919A0690919B063A
:1044E00090580E94901C85E094E00E94241D8091C9
:1044F0009C060E94C01C8BEE93E00E94241D8091BC
:104500009D060E94C01C82ED93E00E94241D8091B4
:104510009D060E94F31C8AEC93E00E94241D80916A
:104520009E060E94C01C82EB93E00E94241D809195
:104530009E060E94F31C8AEA93E00E94241D80914B
:104540009F060E94C01C8BE893E00E94241D60918E
:10455000A0067091A1068091A2069091A3060E94E8
:10456000901C8BE693E00E94241D6091A40670913C
:10457000A5068091A6069091A7060E94901C80E552
:1045800093E00E94241D8091A80681700E94C01CA7
:1045900083E393E00E94241D8091A80690E0969505
:1045A000879581700E94C01C89E193E00E94241DC0
:1045B0008091A80690E0969587959695879581704D
:1045C0000E94C01C87EF92E00E94241D8091A806E3
:1045D00090E056E0969587955A95E1F781700E9494
:1045E000C01C86ED92E00E94241D8091A80690E0F8
:1045F00045E0969587954A95E1F781700E94C01C29
:104600008BEB92E00E94241D8091A80690E033E09D
:10461000969587953A95E1F781700E94C01C80EAD3
:1046200092E00E94241D8091A80690E024E09695D7
:1046300087952A95E1F781700E94C01C84E892E07A
:104640000E94241D035C1F4FF80180810E94C01C42
:104650008AE692E00E94241DF80180810E94F31CEA
:1046600082E692E00E94241D6091AA067091AB063A
:104670008091AC069091AD060E94901C85E492E07A
:104680000E94241D6091AE067091AF068091B00625
:104690009091B1060E94901C88E292E00E94241D35
:1046A0008091B2060E94C01C89E092E00E94241D05
:1046B0006091B4067091B5068091B6069091B706E8
:1046C0000E94901C80EF91E00E94241D1F910F9189
:1046D00008951F93182F8AEF96E00E94241D1E3F15
:1046E00041F01F3F19F01D3F59F406C08AEE96E0D5
:1046F00005C087ED96E002C08CEC96E00E94241D78
:1047000089EC96E00E94241D84EF91E00E94DC1663
:104710001F910895E0ECF0E0808182608083109228
:10472000C50080E18093C400E1ECF0E0808180610D
:104730008083808188608083808180688083089501
:10474000282FE0914A049E2F9F5F903431F490E02F
:1047500004C08091900584FD0FC080914B04981790
:10476000C1F3F0E0E45DF94F208390934A04809117
:10477000C10080628093C10008951F920F920FB60E
:104780000F9211248F939F93EF93FF9380914B048B
:10479000E82FF0E0E45DF94F90819093C600982FE8
:1047A0009F5F903409F490E090934B0480914A0409
:1047B000981729F48091C1008F7D8093C100FF91EB
:1047C000EF919F918F910F900FBE0F901F901895B2
:1047D0009091490480914804891711F48FEF08954E
:1047E000E92FF0E0E455FA4F8081E92FEF5FE038E0
:1047F00009F4E0E0E093490408958091480480932F
:10480000490408951F920F920FB60F9211242F930F
:104810003F934F935F936F937F938F939F93AF9348
:10482000BF93EF93FF932091C6002132C9F022324B
:1048300018F42831F1F41AC02F3319F02E37C9F4C7
:1048400006C09FB7F89480919005816005C09FB71E
:10485000F894809190058260809390059FBF1AC064
:104860009FB7F894809190058860F6CF0E94D01190
:1048700011C0E09148049E2F9F5F903809F490E0AA
:1048800080914904981731F0F0E0E455FA4F208305
:1048900090934804FF91EF91BF91AF919F918F91B9
:1048A0007F916F915F914F913F912F910F900FBE2C
:1048B0000F901F90189580E090E00E94440488308B
:1048C00011F020E00CC08CE696E061E070E04CE472
:1048D00050E00E94B70420E0892B09F021E0822FEC
:1048E000089580E090E068E00E944C0481E090E050
:1048F0006CE676E04CE450E00E946E040895EF927E
:10490000FF920F931F93CF93DF93EC017A018B01FA
:10491000CB01BA0120E030E040E050E00E94DC33FF
:10492000882314F484E09BC1FE01CF31D10540F40B
:10493000EC5CFF4FEE0FFF1F0590F491E02D099402
:1049400083E08DC1CC0FDD1FCC0FDD1FC459D94FC3
:10495000E882F9820A831B837FC1E0927806F09295
:10496000790600937A0610937B0676C1E0927C0666
:10497000F0927D0600937E0610937F066DC1E09253
:104980008006F0928106009382061093830664C12C
:10499000C801B70120E030E040E752E40E94303621
:1049A00020E030E040E752E40E9430366093840615
:1049B0007093850680938606909387064DC1C80143
:1049C000B70120E030E040E752E40E94303620E0BA
:1049D00030E040E752E40E943036609388067093DE
:1049E000890680938A0690938B0636C1C801B70169
:1049F00020E030E040E752E40E94303620E030E032
:104A000040E752E40E94303660938C0670938D0626
:104A100080938E0690938F061FC1D801C701B058AE
:104A20008093900690939106A0939206B09393067C
:104A300013C1D801C701B05880939406909395068E
:104A4000A0939606B093970607C1D801C701B05846
:104A50008093980690939906A0939A06B0939B062C
:104A6000FBC0C801B70120E030E040E450E40E9400
:104A7000DC33882314F486E0F2C0C801B7010E9439
:104A80009B360E94513460939C06E6C0C801B70172
:104A90000E940A370E94513460939D06DDC0C80110
:104AA000B7010E940A370E94513460939E06D4C019
:104AB000C801B7010E949B360E94513460939F0643
:104AC000CBC0D801C701BF778093A0069093A10601
:104AD000A093A206B093A306BFC0E092A406F092F2
:104AE000A5060093A6061093A706B6C0C801B70195
:104AF00020E030E040E050E00E94DC33882321F0E9
:104B00008091A806816011C08091A8068E7F0DC09B
:104B1000C801B70120E030E040E050E00E94DC3303
:104B2000882331F08091A80682608093A80694C003
:104B30008091A8068D7FF9CFC801B70120E030E051
:104B400040E050E00E94DC33882321F08091A806E9
:104B50008460EBCF8091A8068B7FE7CFC801B701B7
:104B600020E030E040E050E00E94DC33882321F078
:104B70008091A8068064D9CF8091A8068F7BD5CF7D
:104B8000C801B70120E030E040E050E00E94DC3393
:104B9000882341F08091A80684FD02C08AE05FC0AE
:104BA0008062C3CF8091A8068F7DBFCFC801B701B7
:104BB00020E030E040E050E00E94DC33882321F028
:104BC0008091A806886003C08091A806877F8093A3
:104BD000A8060E94CF0E40C0C801B70120E030E017
:104BE00040E050E00E94DC33882321F08091A80649
:104BF00080619BCF8091A8068F7C97CFC801B701B9
:104C00000E940A370E9451346093A90625C0E092A1
:104C1000AA06F092AB060093AC061093AD061CC03A
:104C2000E092AE06F092AF060093B0061093B10684
:104C300013C0C801B7010E949B360E945134709383
:104C4000B3066093B20608C0E092B406F092B506CF
:104C50000093B6061093B7060E94712480E0DF919E
:104C6000CF911F910F91FF90EF90089580E090E019
:104C7000AAE7B3E480936C0690936D06A0936E064A
:104C8000B0936F068093700690937106A09372069E
:104C9000B09373068093740690937506A09376067E
:104CA000B09377068AE080939C0620E030E04AEFDC
:104CB00053E4209378063093790640937A06509314
:104CC0007B0620937C0630937D0640937E065093AE
:104CD0007F0620938006309381064093820650938E
:104CE000830680E090EAACE0B7E48093840690937A
:104CF0008506A0938606B0938706809388069093D6
:104D00008906A0938A06B0938B0680938C069093B5
:104D10008D06A0938E06B0938F068FE692E1A3E0F6
:104D2000BBE38093A4069093A506A093A606B09338
:104D3000A70610929D0680EC80939E068AE097ED70
:104D4000A3EABCE38093A0069093A106A093A206D9
:104D5000B093A30682E08093A806ECE6F6E015AED9
:104D600080E090E0A8ECB1E48093AA069093AB06B3
:104D7000A093AC06B093AD062093AE063093AF0679
:104D80004093B0065093B1068AEF90E09093B3063B
:104D90008093B20680E090E0A0E8BFE38093B40681
:104DA0009093B506A093B606B093B70689E18093B9
:104DB0009F0680E090E0A8E4B3EC80939006909387
:104DC0009106A0939206B0939306809394069093D5
:104DD0009506A0939606B0939706809398069093B5
:104DE0009906A0939A06B0939B060E947124089599
:104DF0009DE0899FC001112480509E4F4CE050E0FF
:104E00000E946E0408950F931F93CF93DF93162F84
:104E1000072F9DE0899FE0011124C050DE4F862FAF
:104E2000972FBE014CE050E00E94B704892B11F08F
:104E300081E00FC0E12FF02F8CE0DF011D928A95F9
:104E4000E9F7CE01612F702F4CE050E00E946E0414
:104E500080E0DF91CF911F910F910895EF92FF9223
:104E60001F93DF93CF93CDB7DEB72C970FB6F8948F
:104E7000DEBF0FBECDBF0E945B24882339F487E0DC
:104E80000E9406200E9436260E94B22110E07E0178
:104E90000894E11CF11C812FB7010E94032788238D
:104EA00019F487E00E9406201F5F1830A1F72C96A6
:104EB0000FB6F894DEBF0FBECDBFCF91DF911F912B
:104EC000FF90EF900895BC0180EE93E046E450E03F
:104ED0000E946E040895CF93DF93EC0160EE73E0BF
:104EE00046E450E00E94B704892B11F081E009C02C
:104EF000188280EE93E0BE0146E450E00E946E040A
:104F000080E0DF91CF91089597E4899FC00111243B
:104F100080509D4F46E450E00E946E0408950F9328
:104F20001F93CF93DF938B0197E4899FE0011124B6
:104F3000C050DD4FCB01BE0146E450E00E94B704F3
:104F4000892B11F081E009C0F8011082CE01B8016F
:104F500046E450E00E946E0480E0DF91CF911F9103
:104F60000F910895249A259A2C9808952C980895C5
:104F70001F93182F80918F05823071F00E94601D61
:104F80000E94071E112311F42C9806C0113011F451
:104F90002D9801C02D9A2C9A1F9108958091A806F2
:104FA00082FF02C0289A01C0289880918F058471E1
:104FB000A1F080919E068093D40480919D068093F9
:104FC000D30480919C06880F845081958093D204ED
:104FD00080916F00826080936F0008951F920F92FE
:104FE0000FB60F9211248F939F939BB180919D06D2
:104FF0008C71937E892B8BB915BC9F918F910F90EB
:105000000FBE0F901F9018958AB18C618AB98BB131
:10501000837E90919D06892B8BB9209A8AB1806EF0
:105020008AB98BB18F7190919E06892B8BB9E1E87B
:10503000F0E080818F7E8083808188608083E0E8DB
:10504000F0E080818C7F808380818F708083EEE6AA
:10505000F0E08081887F808314BC15BC80818160F2
:1050600080830895CF93DF93C091EC04D091ED0439
:105070002097B9F081E08093F104209107053091E9
:1050800008054091090550910A05CA01B9010E941D
:105090003036698B7A8B8B8B9C8B1092ED0410923F
:1050A000EC04DF91CF9108952F923F924F925F923F
:1050B0006F927F928F929F92AF92BF92CF92DF9228
:1050C000EF92FF920F931F93DF93CF93CDB7DEB78D
:1050D000E9970FB6F894DEBF0FBECDBF17C680911B
:1050E000EC049091ED04892B09F07EC20E943217E6
:1050F0009093ED048093EC04892B09F40EC6809103
:10510000F104882319F01092F104CAC08091F004D0
:105110008F5F8093F004853011F41092F004E091D9
:10512000F00421E1E29FF0011124E45BFB4FF093D6
:10513000EF04E093EE040091EC041091ED04D8012B
:105140008C91808311962D913D914D915C91149796
:1051500073E0220F331F441F551F7A95D1F7218327
:1051600032834383548315962D913D914D915C91EB
:10517000189763E0220F331F441F551F6A95D1F71C
:10518000258336834783508719962D913D914D9104
:105190005C911C9793E0220F331F441F551F9A9573
:1051A000D1F721873287438754871D962D913D91F2
:1051B0004D915C91509783E0220F331F441F551F80
:1051C0008A95D1F7258736874787508B1D966D9135
:1051D0007D918D919C9150970E947D346093F20453
:1051E0007093F3048093F4049093F504F80125A1DF
:1051F00036A147A150A50E94E3339B01AC01609307
:10520000F6047093F7048093F8049093F90460E037
:1052100070E080EA9FE30E94E3336093FA047093A6
:10522000FB048093FC049093FD0480E090E0A0E0F8
:10523000B0E08093FE049093FF04A0930005B09328
:10524000010580918F058032E1F420910F053091A6
:1052500010054091110550911205209307053093D8
:1052600008054093090550930A05CA01B9010E9437
:105270003036D80151966D937D938D939C935497BE
:105280000FC0F80161897289838994890E94C536AB
:1052900060930705709308058093090590930A05AC
:1052A00080E090E0A0E0B0E08093030590930405D7
:1052B000A0930505B09306050091EC041091ED0450
:1052C000D80191968D919D910D90BC91A02D88ABA8
:1052D00099ABAAABBBAB60E070E080E09FE328A98C
:1052E00039A94AA95BA90E94E3331B012C018091D3
:1052F0008F05803209F056C0B2E0B0930205F80184
:10530000A5A0B6A0C7A0D0A461887288838894881D
:10531000C201B101A40193010E9430369B01AC018E
:10532000C601B5010E94F7327B018C0120E030E01C
:1053300040E050E00E94DC338823FCF468A979A99E
:105340008AA99BA920E030E040E050EC0E94303672
:10535000A60195010E9430369B01AC01C401B30146
:105360000E94F8320E94C53660930F0570931005B5
:10537000809311059093120537C1E0920305F092D6
:105380000405009305051093060580E090E0A0E079
:10539000B0E080930F0590931005A0931105B09392
:1053A000120522C110920205F80185A196A1A7A1BC
:1053B000B0A58093130590931405A0931505B093A1
:1053C00016050E94A6185B016C0160930F0570938F
:1053D00010058093110590931205A60195010E9476
:1053E00030363B014C012091EC043091ED0439AF93
:1053F00028AFD90195968D919D910D90BC91A02DCE
:105400008B8F9C8FAD8FBE8FF901618972898389E3
:105410009489A40193010E94F7329B01AC01C2015F
:10542000B1010E9430369B01AC016B8D7C8D8D8D5E
:105430009E8D0E94F83220E030E040E05FE30E9461
:1054400030367B018C0120E030E040E050E00E94EB
:10545000F33518160CF0B4C0C801B7012B8D3C8D84
:105460004D8D5E8D0E94DC3388230CF095C0A8AD75
:10547000B9AD5D966D917D918D919C919097A401B0
:1054800093010E94F7329B01AC01C201B1010E945D
:105490003036609317057093180580931905909323
:1054A0001A05A80197010E94DC3388230CF047C03D
:1054B000E8ADF9ADE58CF68C078D10A1C801B701F8
:1054C0000E94C53660930B0570930C0580930D0503
:1054D00090930E05A8ADB9AD5196AD90BD90CD900D
:1054E000DC905497C601B501A80197010E94DC33F6
:1054F000882321F4B1E0B093020576C0C801B7015A
:10550000A60195010E94F7329B01AC01C201B101D5
:105510000E9430369B01AC01609113057091140517
:1055200080911505909116050E94F732609313053E
:1055300070931405809315059093160555C0E0925D
:105540001305F09214050093150510931605E092CB
:105550001705F09218050093190510931A05E8AD88
:10556000F9AD21A132A143A154A1CA01B9010E9400
:10557000F832A80197010E943036A40193010E94DD
:10558000F8320E94C53660930B0570930C0580932A
:105590000D0590930E0528C0F2E0F093020580916E
:1055A000070590910805A0910905B0910A0580931F
:1055B0000B0590930C05A0930D05B0930E0514C038
:1055C00080E090E0A0E0B0E0809313059093140594
:1055D000A0931505B0931605A0920B05B0920C058B
:1055E000C0920D05D0920E058091E904B6E08B9F24
:1055F000D0011124AF55BB4FB9AFA8AF8091F004D3
:1056000012968C93E091EC04F091ED04FA8FE98FFF
:1056100085A196A1A7A1B0A58D8B9E8BAF8BB88FCE
:10562000BC01CD012091FA043091FB044091FC04AF
:105630005091FD040E94F7326CA37DA38EA39FA31B
:1056400020E030E040E050E00E94DC33882344F466
:1056500080E090E0A0E0B0E08CA39DA3AEA3BFA348
:105660008091130590911405A0911505B091160530
:10567000898B9A8BAB8BBC8B80910B0590910C0521
:10568000A0910D05B0910E058D879E87AF87B88BD1
:105690008091170590911805A0911905B0911A05F0
:1056A00089879A87AB87BC87809103059091040511
:1056B000A0910505B09106058D839E83AF83B887C1
:1056C00080910F0590911005A0911105B0911205E0
:1056D00089839A83AB83BC838091070590910805E9
:1056E000A0910905B0910A0588A399A3AAA3BBA319
:1056F000909102059F8FAD88BE88CF88D88C8EE3AD
:1057000093ECAEE2B9E38CA79DA7AEA7BFA780E05C
:1057100090E0A0E0B0E088A799A7AAA7BBA70F2EAA
:10572000FEE36F2EF3EC7F2EFEE28F2EF9E39F2E29
:10573000F02D9F8D992321F0913009F0B3C080C0E6
:10574000C401B301A98DBA8D91962D913D914D91D2
:105750005C9194970E9430367B018C0120E030E010
:1057600040E05FE30E9430369B01AC0168A179A163
:105770008AA19BA10E94F8329B01AC01C401B30134
:105780000E9430369B01AC01C601B5010E94F73280
:105790005B016C0129893A894B895C890E94DC3361
:1057A00088230CF040C069897A898B899C89298576
:1057B0003A854B855C850E94DC33882319F4B2E07E
:1057C000BF8F02C0E1E0EF8F6D897E898F89988D50
:1057D00029893A894B895C890E94F7329B01AC0187
:1057E0000E94F8327B018C0168A179A18AA19BA15A
:1057F0002D853E854F8558890E94F8329B01AC016A
:10580000C801B7010E94E3333B014C01A988BA8863
:10581000CB88DC888D859E85AF85B88988A399A3C0
:10582000AAA3BBA3B0C068A179A18AA19BA1A8012A
:1058300097010E94F83268A379A38AA39BA3A3C00F
:105840006D857E858F859889A40193010E943036ED
:105850009B01AC01C601B5010E94F7327B018C01AE
:1058600029853A854B855C850E94DC3387FD03C022
:105870005701680188C0C601B50129853A854B8565
:105880005C850E94F7322D853E854F8558890E94A0
:10589000E3333B014C01A984BA84CB84DC8492E0DD
:1058A0009F8F71C0C401B301A98DBA8D91962D91BE
:1058B0003D914D915C9194970E9430367B018C0113
:1058C00068A179A18AA19BA1A80197010E94F33543
:1058D0001816ACF5C801B70120E030E040E05FEBFE
:1058E0000E9430369B01AC0168A179A18AA19BA1DD
:1058F0000E94F8329B01AC01C401B3010E94303612
:105900009B01AC01C601B5010E94F7321B012C01BD
:105910002D813E814F8158850E94F33518167CF405
:1059200068A179A18AA19BA1A80197010E94F732E1
:1059300068A379A38AA39BA36201510124C0C60175
:10594000B5012D813E814F8158850E94F7329B0120
:10595000AC010E94F8327B018C0168A179A18AA177
:105960009BA129813A814B815C810E94F8329B0185
:10597000AC01C801B7010E94E3333B014C01AD808B
:10598000BE80CF80D88468A579A58AA59BA5A401EF
:1059900093010E94F83268A779A78AA79BA72CA534
:1059A0003DA54EA55FA50E94DC3388232CF46CA591
:1059B0007DA58EA59FA518C0C601B5012CA13DA14E
:1059C0004EA15FA10E94F33518160CF56CA57DA5BC
:1059D0008EA59FA52EE333EC4EE259E30E94F832E8
:1059E0006CA77DA78EA79FA728A539A54AA55BA56B
:1059F0000E94F7323B014C01C601B5012D813E8169
:105A00004F8158850E94F33518160CF492CE88A168
:105A100099A1AAA1BBA18093070590930805A09323
:105A20000905B0930A059F8D90930205C601B50143
:105A30002091F6043091F7044091F8045091F90454
:105A40000E9430366CAB7DAB8EAB9FAB0E94C933EE
:105A50001B012C016091F2047091F3048091F40415
:105A60009091F5040E94C9333B014C01A2019101C0
:105A70000E94F7320E945134A8ADB9AD6D937C936A
:105A8000672BB1F580918F05803291F580E090E031
:105A9000A0E0B0E08093070590930805A093090566
:105AA000B0930A058093FE049093FF04A093000531
:105AB000B09301052092F2043092F3044092F40472
:105AC0005092F5040091EC041091ED04C201B10173
:105AD0002091F6043091F7044091F8045091F904B4
