:100000000C94C2020C94E3020C94E3020C94E302FD
:100010000C94E3020C94E3020C94E3020C94E302CC
:100020000C94E3020C94E3020C94E3020C94E302BC
:100030000C94E3020C94E3020C94E3020C94EF267C
:100040000C94E3020C9413280C94E3020C94E30246
:100050000C94E3020C94E3020C94E3020C94E3028C
:100060000C94E3020C94EA210C94A5210C94E30275
:100070000C94E3020C94E3020C94E3020C94E3026C
:100080000C94E3020C94E3020C94E3020C94E3025C
:100090000C94E3020C94E3020C94E3020C94E3024C
:1000A0000C94E3020C94E3020C94E3020C94E3023C
:1000B0000C94E3020C94E3020C94E3020C94E3022C
:1000C0000C94E3020C94E3020C94E3020C94E3021C
:1000D0000C94E3020C94E3020C94E3020C94E3020C
:1000E0000C94E302084AD73B3BCE016E84BCBFFDB3
:1000F000C12F3D6C74319ABD56833DDA3D00C77FF8
:1001000011BED9E4BB4C3E916BAAAABE0000008090
:100110003F05A84CCDB2D44EB93836A9020C50B91F
:10012000918688083CA6AAAA2ABE000000803F0D3E
:100130000A00496E76616C696420636F6D6D616E53
:10014000640D0A004D6F64616C2067726F757020DA
:1001500076696F6C6174696F6E0D0A00466C6F6131
:1001600074696E6720706F696E74206572726F7249
:100170000D0A00556E737570706F7274656420732C
:10018000746174656D656E740D0A00457870656301
:1001900074656420636F6D6D616E64206C6574744A
:1001A00065720D0A00426164206E756D6265722091
:1001B000666F726D61740D0A006572726F723A201B
:1001C000006F6B0D0A000D0A27242720746F20642E
:1001D000756D702063757272656E742073657474CA
:1001E000696E67730D0A000D0A4772626C20302E2B
:1001F0003833000D0A4D656761323536300057617E
:10020000726E696E673A204661696C656420746F2E
:10021000207265616420454550524F4D20736574CE
:1002200074696E67732E205573696E672064656606
:1002300061756C74732E0D0A0053746F72656420BF
:100240006E65772073657474696E670D0A00556E6C
:100250006B6E6F776E20706172616D657465720D83
:100260000A00537465702070756C7365206D75732A
:1002700074206265203E3D2033206D6963726F7388
:1002800065636F6E64730D0A0053746570732F6D30
:100290006D206D757374206265203E20302E300D08
:1002A0000A000D0A2724783D76616C756527207455
:1002B0006F2073657420706172616D657465722062
:1002C0006F72206A7573742027242720746F20644E
:1002D000756D702063757272656E742073657474C9
:1002E000696E67730D0A00202873746570706572FB
:1002F000733A2030203D2064697361626C65642C20
:100300002031203D20656E61626C6564290D0A0014
:100310002431303030203D200020286D6178696D17
:10032000756D207370696E646C65207370656564AB
:1003300020696E2052504D290D0A00243134203D91
:100340002000202864656661756C74207370696E86
:10035000646C6520737065656420696E2052504D31
:10036000290D0A00243133203D2000202850574D0C
:10037000206F6E205370696E646C653A2030203DAA
:100380002064697361626C65642C2031203D2065B6
:100390006E61626C6564290D0A00243132203D20B3
:1003A000002028636F726E6572696E67206A756ED1
:1003B0006374696F6E20646576696174696F6E201D
:1003C000696E206D6D290D0A00243131203D200019
:1003D0002028616363656C65726174696F6E206962
:1003E0006E206D6D2F7365635E32290D0A00243116
:1003F00030203D2000290D0A0020287374657020EC
:10040000706F727420696E76657274206D61736BA3
:10041000206C696D69742E2062696E617279203D6D
:1004200020002439203D2000290D0A002028737463
:10043000657020706F727420696E76657274206DBD
:1004400061736B2E2062696E617279203D200024F9
:1004500038203D200020286D6D2F61726320736568
:10046000676D656E74290D0A002437203D20002039
:10047000286D6D2F6D696E2064656661756C7420E2
:100480007365656B2072617465290D0A002436203E
:100490003D200020286D6D2F6D696E2064656661BA
:1004A000756C7420666565642072617465290D0A37
:1004B000002435203D200020286D6963726F73652C
:1004C000636F6E647320737465702070756C7365F0
:1004D000290D0A002434203D200020287374657003
:1004E000732F6465672E2063290D0A002433203D95
:1004F0002000202873746570732F6D6D207A290D8C
:100500000A002432203D2000202873746570732F68
:100510006D6D2079290D0A002431203D200020280E
:1005200073746570732F6D6D2078290D0A00243067
:10053000203D20000D0A00302E383300245645524D
:1005400053494F4E203D2000494E46494E4954598B
:100550004E414ECDCCCC3D0AD7233C17B7D138778E
:10056000CC2B329595E6241FB14F0A0000204100A4
:1005700000C84200401C4620BCBE4CCA1B0E5AAEEE
:10058000C59D740011241FBECFEFD1E2DEBFCDBFE9
:1005900000E00CBF12E0A0E0B2E0E0E1F5E600E030
:1005A0000BBF02C007900D92A631B107D9F71EE02C
:1005B000A6E1B2E001C01D92AB38B107E1F70E949D
:1005C0000E0F0C9486320C940000109216023A9A88
:1005D000389A4298409808954298409808951F93F9
:1005E000182F80911602181771F00E94B61D113055
:1005F00011F4409A06C0123011F4429A02C0429897
:100600004098109316021F910895F999FECF92BD5C
:1006100081BD81E08FBB80B50895F894F999FECF34
:1006200092BD81BD81E08FBB40B54627842F9927BD
:1006300087FD9095262F332727FD3095822393231E
:10064000892B19F060BD84E004C0442321F060BD13
:1006500084E28FBBF99A789408958F929F92AF921B
:10066000BF92CF92DF92EF92FF920F93DF93CF93DF
:100670000F920F92CDB7DEB75C016B017A014A0190
:1006800000E01EC0602F70E06115710539F420E0B4
:10069000660F672F661F770B672B09F021E0F601C5
:1006A00061916F01022F060F9C012F5F3F4F3A832C
:1006B00029830E940D0308948108910889819A81F9
:1006C00081149104F9F6C7018A0D9B1D602F0E94C9
:1006D0000D030F900F90CF91DF910F91FF90EF904E
:1006E000DF90CF90BF90AF909F908F9008951F9311
:1006F000CF93DF93EC01DB01FA0190E011E017C02A
:10070000F999FECFB2BDA1BD1FBB30B5892F90E0D6
:10071000009739F420E0880F892F881F990B892BC7
:1007200009F021E01196922F930F3993319730976A
:1007300039F7460F571FF999FECF52BD41BD81E0F1
:100740008FBB80B520E030E0981711F421E030E055
:10075000C901DF91CF911F9108956F927F928F927F
:100760009F92AF92BF92CF92DF92EF92FF920F9340
:100770001F9339014A010E94752D20912A0E309154
:100780002B0E40912C0E50912D0E0E94DA2C60936E
:100790002702709328028093290290932A02C401B1
:1007A000B3010E94752D20912E0E30912F0E409195
:1007B000300E5091310E0E94DA2C60932B02709310
:1007C0002C0280932D0290932E02C801B7010E9443
:1007D000752D2091320E3091330E4091340E509190
:1007E000350E0E94DA2C60932F02709330028093B2
:1007F000310290933202C601B5010E94752D2091FD
:10080000360E3091370E4091380E5091390E0E94BD
:10081000DA2C609333027093340280933502909304
:1008200036021F910F91FF90EF90DF90CF90BF9015
:10083000AF909F908F907F906F90089580E1E7E256
:10084000F2E0DF011D928A95E9F7089586E2E7E17B
:10085000F2E0DF011D928A95E9F780913C0E9091BC
:100860003D0EA0913E0EB0913F0E80931F029093DB
:100870002002A0932102B093220210923A0291E04A
:1008800090933B0282E080933C0290931B02089578
:100890000F931F93CF93DF93EC018B01D9018C91C0
:1008A000FA01E80FF11DE081EE23B1F0E883E15495
:1008B000EA3110F082E00EC08C918F5F8C93CA01F8
:1008C000B901A8010E942914892B19F021E030E018
:1008D00005C081E08093170220E030E0C901DF917C
:1008E000CF911F910F9108952F923F924F925F9257
:1008F0006F927F928F929F92AF92BF92CF92DF9230
:10090000EF92FF920F931F93DF93CF93CDB7DEB794
:10091000E3970FB6F894DEBF0FBECDBF3C0119823E
:1009200080E1FE013796DF01482F1D924A95E9F7D5
:10093000FE017796DF011D928A95E9F71092170262
:100940001FA61EA61DA61CA613E0812E912C8C0EA0
:100950009D1E2E010894411C511CB1E02B2E312C00
:10096000A3E0AA2E01E0F2E0BF2E9CC1CB80DC8088
:10097000ED80FE80C701B6010E9476300E94422DB4
:100980009B014A81473421F04D3409F08BC11CC1D1
:100990006E317105C9F16F317105D4F4643171059F
:1009A00084F461317105A4F56430710569F1653035
:1009B00071051CF4772354F525C06A30710511F5D3
:1009C00023C06631710554F16C317105D9F41CC036
:1009D0006C3571058CF46A357105E4F46C3371057E
:1009E0003CF466337105E4F46533710559F40CC0C9
:1009F0006035710539F40AC06C35710529F06F3521
:100A0000710554F010E00DC011E00BC012E009C0F8
:100A100013E007C014E005C016E003C017E001C0F2
:100A200019E02531310509F495C026313105A4F5C9
:100A30002430310509F467C025303105A4F4213094
:100A4000310509F466C02230310524F4232B09F462
:100A50005DC00EC12230310509F45EC0233031057E
:100A600009F006C15CC02231310509F462C02331AE
:100A700031054CF42A30310509F443C021313105E8
:100A800009F0F6C04FC02331310509F459C02431B3
:100A9000310509F0EDC05BC02035310509F46AC0AD
:100AA00021353105ACF42533310509F459C026331D
:100AB00031054CF42C31310509F44FC02E3131058C
:100AC00009F0D6C04AC02C3331050CF0D1C04BC060
:100AD0002C35310509F458C02D3531054CF42A3533
:100AE000310509F44BC02B35310509F0C1C049C0AF
:100AF0002D35310509F462C02E35310509F0B8C035
:100B000060C0B2E059C0E1E0ECA7B4C01092180296
:100B1000B1C000931802AEC0B0921802ABC0A09250
:100B20001802A8C010923A0200933B02B0923C0215
:100B3000A1C010923A02B0923B0200933C029AC0CC
:100B400000933A02B0923B0210923C0293C0009391
:100B50001A0290C010921A028DC0F3E0FCA78AC05E
:100B600041E04DA787C02633310509F081C01092BE
:100B7000500280C054E0509318027CC000931B02C6
:100B800079C010921B0276C0C701B60120E030E0A8
:100B900040E251E40E94A82F0E9476300E94422D2C
:100BA00083E06839780739F06959734009F060C00B
:100BB000A5E0ACA75FC0B4E0BCA75CC0009319027D
:100BC00059C01092190256C06630710534F4633072
:100BD000710554F4772334F403C06E31710511F0BC
:100BE00010E003C015E001C018E02430310581F1A8
:100BF0002530310584F42130310509F122303105E9
:100C00001CF4232BE1F034C022303105D9F023301D
:100C1000310571F51AC02830310521F1293031052F
:100C20003CF425303105C1F02730310509F517C0F6
:100C300029303105D1F02E313105D1F403C00093B4
:100C40001C0218C0B0921C0215C000931D0212C0F5
:100C5000EFEFE0931D020EC010921D020BC0B09288
:100C60001E0208C000931E0205C010921E0202C0A0
:100C7000A09217021123B1F0910102C0220F331F7D
:100C80001A95E2F78EA59FA582239323892B21F045
:100C9000F5E0F093170206C04EA55FA5422B532B3B
:100CA0005FA74EA7CE010296B401A30192010E9454
:100CB0004804892B09F05ACE80911702882309F045
:100CC000D8C51982882418AA19AA50E85AAB6FEB24
:100CD0006BAB0F2EF0E0AF2EF0E0BF2EF0E0CF2E8A
:100CE000F0E0DF2EF02DA8A6B9A6CAA6DBA61FA2AB
:100CF000E2E02E2E312C2C0E3D1E2E010894411CBC
:100D0000511C76E0972E56C11A81103509F490C017
:100D1000113584F41C3454F419340CF05CC01334D1
:100D200009F424C1163409F045C11AC01C3409F075
:100D300041C174C0143509F4B5C015353CF4123501
:100D400009F47BC0133509F035C193C0193509F496
:100D5000DBC01A3509F4F1C0183509F02BC1BBC04E
:100D6000EB80FC800D811E81C801B70120E030E0DE
:100D700040E050E00E94D32C181614F09092170215
:100D800080911902882381F080911A02882309F446
:100D90000DC1C801B70123E333E34BEC51E40E94DA
:100DA000A82F7B018C0102C180911A02882351F087
:100DB000C801B70123E333E34BEC51E40E94A82FB1
:100DC0007B018C01E0921F02F0922002009321022D
:100DD00010932202E3C02B813C814D815E81809182
:100DE0001A02882351F0CA01B90123E333E34BEC23
:100DF00051E40E94A82F9B01AC01E12FFF27E7FDE2
:100E0000F095E954F040EE0FFF1FEE0FFF1FE40DC9
:100E1000F51D268B378B408F518FC0C06B817C8135
:100E20008D819E810E9476300E94472D6FA3B6C0AF
:100E3000AB80BC80CD80DE80B1C08B819C81AD81D8
:100E4000BE8188A799A7AAA7BBA780911A02882369
:100E500009F4A4C068A579A58AA59BA523E333E37B
:100E60004BEC51E40E94A82F68A779A78AA79BA7FB
:100E700095C0EB80FC800D811E81C801B70120E088
:100E800030E040E050E00E94D32C882314F490928C
:100E90001702C801B7010E94472D70933902609371
:100EA00038027CC0EB80FC800D811E81C801B70137
:100EB00020E030E040E050E00E94D32C882314F47E
:100EC00090921702C801B7010E9476300E94472D08
:100ED0006093370263C02B813C814D815E8180919C
:100EE0001A02882351F0CA01B90123E333E34BEC22
:100EF00051E40E94A82F9B01AC012F8338874987BA
:100F00005A8791E0892A4AC02B813C814D815E81BC
:100F100080911A02882351F0CA01B90123E333E317
:100F20004BEC51E40E94A82F9B01AC012B873C871E
:100F30004D875E87A2E08A2A31C02B813C814D819A
:100F40005E8180911A02882351F0CA01B90123E31E
:100F500033E34BEC51E40E94A82F9B01AC012F8797
:100F6000388B498B5A8BB4E08B2A18C02B813C817B
:100F70004D815E8180911A02882351F0CA01B90126
:100F800023E333E34BEC51E40E94A82F9B01AC0117
:100F90002B8B3C8B4D8B5E8BE8E08E2A28A939A9E0
:100FA0004AA95BA9C901DA017C018D01E8AAF9AA65
:100FB0000AAB1BABC101BE016D5F7F4FA301920164
:100FC0000E944804892B09F09FCE982C28A939A9A2
:100FD0004AA95BA9C901DA011C012D018091170200
:100FE000882309F046C460913802709139028091DB
:100FF0001D020E94462680911E020E94EF02FCA55F
:10100000F33009F457C0F43028F4F13061F0F230D5
:1010100041F419C04CA5443009F4EFC0453009F43F
:1010200043C1982C4AC1C601B50120E030E040E040
:1010300050E00E94D32C88230CF4E1C0C601B50116
:101040000E94EC0F3AC15FA1523049F4C601B501CC
:101050000E9476300E94422D6130710521F083E0BC
:101060008093170229C1882009F4C9C0AE01495FE5
:101070005F4FE1E5F2E020E030E0682D70E0CB0169
:10108000022E02C0959587950A94E2F780FF09C069
:10109000DA01ED90FD900D911C91E082F1820283C6
:1010A00013832F5F3F4F4C5F5F4F349624303105E1
:1010B00031F702C1882009F49DC08E01095F1F4FDE
:1010C00037E2C32E32E0D32E21E6A22E22E0B22E4A
:1010D000EE24FF249924C4010E2C02C09595879517
:1010E0000A94E2F780FF40C080911B02882349F1F7
:1010F000E0915002F0E0EE0FFF1FEE0FFF1FEE0D2C
:10110000FF1DEE0FFF1FEE0FFF1FEF5AFD4F608117
:10111000718182819381F5012081318142815381E6
:101120000E94FA2B9B01AC01D8016D917D918D91AC
:101130009C910E94FA2BF8016083718382839383D0
:101140001DC0D8016D917D918D919C91F6012081FA
:101150003181428153810E94FA2BD8016D937D9396
:101160008D939C9313970AC0F60180819181A2818F
:10117000B381F80180839183A283B3830894E11C37
:10118000F11C0C5F1F4F44E050E0C40ED51EA40EAE
:10119000B51E54E0E516F10409F09DCF00D00F9282
:1011A0000F926F81788589859A852B853C854D8541
:1011B0005E85EF84F88809891A89AB88BC88CD8858
:1011C000DE886090400E7090410E8090420E9090AC
:1011D000430EADB7BEB711966D927D928D929C92E3
:1011E000149715961C920E9440100F900F900F902C
:1011F0000F900F900E94DE0F5FC0882021F486E0E0
:10120000809317025AC007E2A02E02E0B02EEE240F
:10121000FF24CC24DD24992417E0612E712C6C0E60
:101220007D1EC4010E2C02C0959587950A94E2F7A5
:1012300080FF2BC08601035C1D4FE0915002F0E05F
:10124000EE0FFF1FEE0FFF1FEE0DFF1DEE0FFF1F36
:10125000EE0FFF1FEF5AFD4FD5016D917D918D91DE
:101260009C9120813181428153810E94F92BF301AD
:10127000EC0DFD1D20813181428153810E94F92BAB
:10128000F80164A375A386A397A30894E11CF11C3D
:1012900044E050E0A40EB51EC40ED51E54E0E51681
:1012A000F10409F0BECF08C080E1E1E6F2E0DF0121
:1012B0001D928A95E9F701C09924BEA5B2FD03C02D
:1012C000992009F4CAC280911902882389F0C201C9
:1012D000B10120E030E040E050E00E94D32C8823B0
:1012E0003CF480911802843019F086E08093170254
:1012F000EDA5EE2339F080911802823018F086E0D7
:101300008093170280911702882309F0B2C28E01E0
:10131000095F1F4F71E6A72E72E0B72E67E2C62E57
:1013200062E0D62EEE24FF24692C7724C3010E2C14
:1013300002C0959587950A94E2F780FF44C0FDA509
:10134000FF2309F04AC080911B02882351F1E091EC
:101350005002F0E0EE0FFF1FEE0FFF1FEE0DFF1D1E
:10136000EE0FFF1FEE0FFF1FEF5AFD4F60817181DF
:1013700082819381D5012D913D914D915C910E9487
:10138000FA2B9B01AC01F80160817181828193810C
:101390000E94FA2BD8016D937D938D939C931397A4
:1013A0001CC0F8016081718182819381D6012D91E9
:1013B0003D914D915C910E94FA2BF80160837183FD
:1013C000828393830AC0F60180819181A281B381D7
:1013D000F80180839183A283B3830894E11CF11CFC
:1013E0000C5F1F4F44E050E0A40EB51EC40ED51E86
:1013F00054E0E516F10409F099CF80911802843089
:1014000048F4823008F070C0882359F0813009F028
:1014100017C230C0843009F013C2992009F410C2F9
:10142000AFC0992009F4ACC000D00F920F926F8129
:10143000788589859A852B853C854D855E85EF84E9
:10144000F88809891A89AB88BC88CD88DE886090C5
:10145000400E7090410E8090420E9090430EADB7BA
:10146000BEB711966D927D928D929C9214971596AF
:101470001C9237C0992009F483C02F803884498496
:101480005A846B847C848D849E84EF84F8880989D7
:101490001A89AB88BC88CD88DE88609119026623E2
:1014A00061F4B0911F02B8ABE0912002E9ABF0917A
:1014B0002102FAAB409122024BAB00D00F920F9267
:1014C00028A939A94AA95BA9C901DA01EDB7FEB774
:1014D00081839283A383B4836583C201B101A40194
:1014E00093010E944010A7C181E090E000903C026F
:1014F00002C0880F991F0A94E2F78095892109F4A8
:101500003FC068A579A58AA59BA520E030E040E012
:1015100050E00E94D32C882309F0C4C1E0913A0224
:10152000F0E0EE0FFF1FEE0FFF1F8E010F5F1F4F4A
:10153000E00FF11F66897789808D918D20E030E082
:1015400040E050E00E94D32C882309F0ABC1809189
:101550003B0290E0880F991F880F991F080F191FF1
:10156000D80156966D917D918D919C91599720E06F
:1015700030E040E050E00E94D32C882309F092C173
:1015800086E0809317025CC1E0913A02F0E0EE0F32
:10159000FF1FEE0FFF1F8E010F5F1F4FD801AE0F11
:1015A000BF1FE95DFD4F16966D917D918D919C91C8
:1015B000199720813181428153810E94F92B1B01AF
:1015C0002C01E0913B02F0E0EE0FFF1FEE0FFF1F3A
:1015D0000E0F1F1FE95DFD4FD80116966D917D918D
:1015E0008D919C91199720813181428153810E9474
:1015F000F92B3B014C0180E1FE017796DF011D9242
:101600008A95E9F768A579A58AA59BA520E030E031
:1016100040E850E40E94A82F28A539A54AA55BA55B
:101620000E94A82F7B018C01C201B101A20191018E
:101630000E94A82F9B01AC01C801B7010E94F92BA1
:101640007B018C01C401B301A40193010E94A82F66
:101650009B01AC01C801B7010E94F92B0E943530F3
:101660007B018C01C201B101A40193010E94E32E10
:101670009B01AC0117FB109517F91095C801B70134
:101680000E94DA2C6B017C01A70196010E947D303B
:10169000882321F084E080931702EBC08091180228
:1016A000833021F4F7FAF094F7F8F09468A579A55F
:1016B0008AA59BA520E030E040E050E00E94D32CBA
:1016C00088236CF4F7FAF094F7F8F09448A559A53C
:1016D0006AA57BA5705848A759A76AA77BA7009160
:1016E0003A02A02EBB24AA0CBB1CAA0CBB1C8E0168
:1016F0000F5F1F4FA00EB11EC401B301A7019601D9
:101700000E94A82F9B01AC01C201B1010E94F92BDC
:1017100020E030E040E05FE30E94A82FD50156961C
:101720006D937D938D939C93599780913B0290E0AC
:10173000880F991F880F991F080F191FC201B10147
:10174000A70196010E94A82F9B01AC01C401B3011F
:101750000E94FA2B20E030E040E05FE30E94A82FD7
:10176000F801668B778B808F918F24C0E0913A02CD
:10177000F0E0EE0FFF1FEE0FFF1FDE011196EA0FE4
:10178000FB1F66897789808D918D20913B0230E027
:10179000220F331F220F331FA20FB31F56962D9116
:1017A0003D914D915C9159970E94E32E68A779A7CE
:1017B0008AA79BA79091180220913A0200913B02C0
:1017C000E0903C0280901902882061F4F0911F02A1
:1017D000F8AB4091200249AB509121025AAB609185
:1017E00022026BAB00D00F920F92EDB7FEB731968D
:1017F00048A559A56AA57BA5ADB7BEB711964D936F
:101800005D936D937C93149780E0923009F481E0AE
:10181000848387E292E0BE01695F7F4FAE01495E3B
:101820005F4F38A9E9A9FAA9ABA9A32EBE2ECF2EE6
:10183000DA2E0E9495100F900F900F900F900F903E
:10184000809117028823A9F4A7E2B2E0FE0137963F
:1018500080E101900D928150E1F780911C02882374
:1018600031F00E94B61D10923F0210921C0280912E
:101870001702E3960FB6F894DEBF0FBECDBFCF912F
:10188000DF911F910F91FF90EF90DF90CF90BF906D
:10189000AF909F908F907F906F905F904F903F9010
:1018A0002F90089568A579A58AA59BA520E030E032
:1018B00040E050E00E94D32C882309F065CE56CF3B
:1018C00087B1877887B908952F923F924F925F92A0
:1018D0006F927F928F929F92AF92BF92CF92DF9240
:1018E000EF92FF920F931F93DF93CF93CDB7DEB7A5
:1018F000AF970FB6F894DEBF0FBECDBF8DA76EA712
:10190000242E2FA7502E36014701FE01319680E18B
:10191000DF011D928A95E9F7BDA5BB2371F06091A7
:101920002A0E70912B0E80912C0E90912D0E0E94FC
:10193000782F69837A838B839C832EA5222371F071
:1019400060912E0E70912F0E8091300E9091310E7D
:101950000E94782F6D837E838F839887222071F079
:101960006091320E7091330E8091340E9091350E4D
:101970000E94782F69877A878B879C873FA53323BE
:1019800071F06091360E7091370E8091380E909103
:10199000390E0E94782F6D877E878F87988BA9805C
:1019A000BA80CB80DC80ED80FE800F811885298590
:1019B0003A854B855C856D857E858F859889621714
:1019C00073078407950710F4CA01B9016E157F05E6
:1019D0008007910710F4C801B701698B7A8B8B8B54
:1019E0009C8B6A157B058C059D0520F4A98ABA8A13
:1019F000CB8ADC8A4DA5642F70E05EA5650F711D52
:101A0000620D711D882777FD8095982F0E94752D96
:101A10000E9435307B018C0169897A898B899C8988
:101A20000E94732DA80197010E94DA2C7B018C0182
:101A300020914A0E30914B0E40914C0E50914D0E1C
:101A40000E94A82F20E030E84BE355E40E94DA2CF6
:101A50000E94C02C0E94472D69A77AA78BA79CA73C
:101A6000C801B701A40193010E94A82F9B01AC01FA
:101A700060EC71EE84E69CE40E94DA2C0E94782FE0
:101A80007B018C018090440E552011F08AEA882653
:101A900089899A89AB89BC89B695A79597958795C9
:101AA000AA24BB246501A81AB90ACA0ADB0A8091D4
:101AB0003B0E28EF34E241E050E0281B3109410998
:101AC00051092D8F3E8F4F8F58A3ADA2BEA2CFA23A
:101AD000D8A6A9A2BAA2CBA2DCA288EF482E84E2A3
:101AE000582E81E0682E712C198E1A8E1B8E1C8E3A
:101AF00080E197E2A0E0B0E08D8B9E8BAF8BB88F3A
:101B00003324339438249DA59923E1F089819A8167
:101B1000AB81BC81A80EB91ECA1EDB1E1A141B04A1
:101B20001C041D047CF4369903C0982C1DA601C02A
:101B3000932C29893A894B895C89A21AB30AC40A71
:101B4000D50A01C0982C3EA5332359F18D819E8181
:101B5000AF81B8852DA13EA14FA158A5280F391FEF
:101B60004A1F5B1F2DA33EA34FA358A712161306AF
:101B700014061506B4F4359902C01EA602C034E05E
:101B800093268DA19EA1AFA1B8A529893A894B8939
:101B90005C89821B930BA40BB50B8DA39EA3AFA3F3
:101BA000B8A7222059F189859A85AB85BC8529A1E2
:101BB0003AA14BA15CA1280F391F4A1F5B1F29A323
:101BC0003AA34BA35CA31216130614061506B4F42D
:101BD000349902C0222402C030E1932689A19AA13F
:101BE000ABA1BCA129893A894B895C89821B930BE3
:101BF000A40BB50B89A39AA3ABA3BCA33FA5332326
:101C000079F089A19AA1ABA1BCA1181619061A06F0
:101C10001B0634F4339902C01FA602C090E4992633
:101C20000E94CF20ADA5AA2349F4BEA5BB2331F461
:101C3000222021F42FA5222309F46AC080913D02BD
:101C4000882309F065C082B135E593228A7A982A03
:101C500092B880913B0E90E00E94001482B88D8D66
:101C60009E8D0E940014E414F5040605170508F083
:101C70004ACF8D899E89AF89B88D840D951DA61D8B
:101C8000B71D8D8B9E8BAF8BB88F81322EE4920760
:101C900020E0A20720E0B20708F435CF80529E442E
:101CA000A040B0408D8B9E8BAF8BB88F898D9A8D65
:101CB000AB8DBC8D29A53AA54BA55CA5820F931FC2
:101CC000A41FB51F898F9A8FAB8FBC8F60E077E818
:101CD00083E993E0298D3A8D4B8D5C8D0E94B8305D
:101CE000C901DA012C013D014E145F046006710642
:101CF00010F42701380180913B0EA3019201281BAB
:101D00003109410951092D8F3E8F4F8F58A3FBCECA
:101D1000AF960FB6F894DEBF0FBECDBFCF91DF9167
:101D20001F910F91FF90EF90DF90CF90BF90AF90F9
:101D30009F908F907F906F905F904F903F902F90EB
:101D40000895CF92DF92EF92FF920F931F930E941C
:101D5000B61D16B1C090400ED090410EE090420EDC
:101D6000F090430E80E060E041E020E001E00E945E
:101D7000640CC090400ED090410EE090420EF09066
:101D8000430E81E061E040E020E00E94640CC090DE
:101D9000400ED090410EE090420EF090430E80E055
:101DA00060E040E021E00E94640C82E390E00E9449
:101DB000F61386B18127887790E0BC01E5E076953F
:101DC0006795EA95E1F76170AC0174E05695479527
:101DD0007A95E1F7417053E0969587955A95E1F72A
:101DE000282F2170C0903C0ED0903D0EE0903E0E0A
:101DF000F0903F0E33E0969587953A95E1F7817024
:101E000000E00E94640C82E390E00E94F6131F91B0
:101E10000F91FF90EF90DF90CF9008952F923F9217
:101E20004F925F926F927F928F929F92AF92BF92EA
:101E3000CF92DF92EF92FF920F931F93DF93CF9396
:101E4000CDB7DEB768970FB6F894DEBF0FBECDBF33
:101E500060E071EE80E090E00E9457210E9406272A
:101E60007894EDE3F2E086E3DF011D928A95E9F7CD
:101E700081E080933D0280913D02882309F499C05E
:101E800080914C0290914D02A0914E02B0914F0270
:101E90008D8B9E8BAF8BB88F8091480290914902B9
:101EA000A0914A02B0914B02898B9A8BAB8BBC8B71
:101EB00020904402309045024090460250904702E4
:101EC00060904002709041028090420290904302E4
:101ED000DE011196E1E5F2E080E101900D92815082
:101EE000E1F7ADE3B2E0E6E31D92EA95E9F70E947F
:101EF000E5210E94C2250E94421F0E9471180E9483
:101F000026040E9432260E94600C0E94E5020E9474
:101F1000FF278D899E89AF89B88D80934C0290935D
:101F20004D02A0934E02B0934F0289899A89AB89E2
:101F3000BC898093480290934902A0934A02B093CF
:101F40004B02209244023092450240924602509247
:101F50004702609240027092410280924202909247
:101F60004302A1E5B2E0FE01319680E101900D92BD
:101F70008150E1F7C401B301A2019101E988FA8817
:101F80000B891C89AD88BE88CF88D88C0E94AD0390
:101F9000C401B301A2019101E988FA880B891C8967
:101FA000AD88BE88CF88D88C0E94911491E0909320
:101FB0003F020E94CF200E9406215DCF0E94A10E09
:101FC0000E941E040E94691880E1E0E4F2E0DF0153
:101FD0001D928A95E9F70895EF92FF920F931F9350
:101FE000CF93DF937B018C0120E030E040EA51E4A5
:101FF0000E94A82F0E94B02D0E94472DEB010E9445
:10200000B61DC801B70120E030E04AE754E40E9461
:10201000A82F7B018C0182E390E0C89FB001C99F8B
:10202000700DD89F700D112480E090E00E94732DF8
:102030009B01AC01C801B7010E94F92B0E94B02D91
:102040000E94472DDC01CB010E94F61300E911E04C
:102050000EC00E94CF2080913D02882351F484EF6E
:1020600091E0F8013197F1F70197D9F7219720977F
:1020700081F7DF91CF911F910F91FF90EF9008951D
:102080002F923F924F925F926F927F928F929F9288
:10209000AF92BF92CF92DF92EF92FF920F931F9376
:1020A000DF93CF93CDB7DEB73B014C0119012A0175
:1020B0000E94CF2080913D02882321F50E94871441
:1020C0008823B1F700D00F920F928E899F89A88D37
:1020D000B98DEDB7FEB781839283A383B4838A8DD4
:1020E0008583C401B301A20191010E9485180F905C
:1020F0000F900F900F900F9080913F02882311F066
:102100000E949727CF91DF911F910F91FF90EF9041
:10211000DF90CF90BF90AF909F908F907F906F9007
:102120005F904F903F902F9008952F923F924F9243
:102130005F926F927F928F929F92AF92BF92CF9257
:10214000DF92EF92FF920F931F93DF93CF93CDB760
:10215000DEB7CE54D0400FB6F894DEBF0FBECDBF71
:102160003C017EAF6DAF21965FAF4EAF21972296B7
:102170002FAF229723960FAF23972496EFAE249785
:102180002896ACAEBDAECEAEDFAE289729968FAE08
:102190002997E22EFF24EE0CFF1CEE0CFF1C4E0DC7
:1021A0005F1D5CAF4BAFDA012D903D904D905C9080
:1021B000FC01EE0DFF1DC201B10120813181428180
:1021C00053810E94FA2B69AB7AAB8BAB9CAB10E0CE
:1021D000000F111F000F111F2196EEADFFAD2197CB
:1021E000E00FF11FFAAFE9AFA080B180C280D380C9
:1021F000F301E00FF11FC601B50120813181428159
:1022000053810E94FA2B6DA77EA78FA798AB2496C7
:102210002FAD2497E22FF0E0EE0FFF1FEE0FFF1F10
:102220006E0E7F1ED3018D919D910D90BC91A02DBE
:102230008DAB9EABAFABB8AF2DAD3EADE20FF31F94
:1022400060817181828193812DA93EA94FA958ADEA
:102250000E94F92B69A77AA78BA79CA7D201C1017D
:10226000B0588DA39EA3AFA3B8A7A601950150585F
:1022700029A33AA34BA35CA34DAD5EADE40EF51EBE
:10228000D7016D917D918D919C9129A93AA94BA976
:102290005CA90E94F92B3B014C01EDADFEAD0E0F88
:1022A0001F1FD8016D917D918D919C912DA53EA50B
:1022B0004FA558A90E94F92B5B016C016DA17EA16D
:1022C0008FA198A5A60195010E94A82F7B018C01E2
:1022D00069A17AA18BA19CA1A40193010E94A82FBE
:1022E0009B01AC01C801B7010E94F92B1B012C0115
:1022F0006DA17EA18FA198A5A40193010E94A82F92
:102300007B018C0169A17AA18BA19CA1A6019501F9
:102310000E94A82F9B01AC01C801B7010E94FA2BB3
:102320009B01AC01C201B1010E946D2C5B016C01EB
:1023300020E030E040E050E00E94D32C882354F4A9
:10234000C601B5012BED3FE049EC50E40E94FA2BA9
:102350005B016C01A9968FADA997882351F0C60146
:10236000B5012BED3FE049EC50E40E94F92B5B01F5
:102370006C01C601B501A8962CAD3DAD4EAD5FAD6B
:10238000A8970E94A82F29A53AA54BA55CA55F7721
:102390000E94E32E7B018C0120E030E040E050E021
:1023A0000E94D32C882309F407C2C801B7012091E9
:1023B000460E3091470E4091480E5091490E0E94B2
:1023C000DA2C0E94B02D0E94472D78A36F8F29969A
:1023D000BFAD2997BB23A1F080E090E00E94732D50
:1023E0009B01AC0128966CAD7DAD8EAD9FAD28975D
:1023F0000E94A82F28966CAF7DAF8EAF9FAF289715
:102400002F8D38A1B90180E090E00E94732D7B01EF
:102410008C01C601B501A80197010E94DA2C6B8FCF
:102420007C8F8D8F9E8F69A57AA58BA59CA5A80111
:1024300097010E94DA2C6F8B788F898F9A8F6B8D22
:102440007C8D8D8D9E8D20E030E040E05FEB0E9422
:10245000A82F2B8D3C8D4D8D5E8D0E94A82F20E0E6
:1024600030E040E85FE30E94FA2B6B8B7C8B8D8B16
:102470009E8B24963FAD2497E32FF0E0EE0FFF1FD5
:10248000EE0FFF1FCE010196E80FF91FADA8BEA801
:10249000CFA8D8ACA082B182C282D38221E030E042
:1024A0003E872D87882422965FAD2297452F50E0E6
:1024B000440F551F440F551F480F591F2B965FAFF0
:1024C0004EAF2B972396BFAD2397AB2FB0E0AA0F4B
:1024D000BB1FAA0FBB1FA80FB91F2D96BFAFAEAF72
:1024E0002D972F96FFAFEEAF2F9724C1E7E2E815A7
:1024F0000CF446C06DA17EA18FA198A52B8D3C8DBB
:102500004D8D5E8D0E94A82F7B018C0169A17AA15F
:102510008BA19CA12B893C894D895E890E94A82FA3
:102520009B01AC01C801B7010E94FA2B7B018C0111
:102530006DA17EA18FA198A52B893C894D895E89CB
:102540000E94A82F5B016C0169A17AA18BA19CA1BB
:102550002B8D3C8D4D8D5E8D0E94A82F9B01AC0173
:10256000C601B5010E94F92B6DA37EA38FA398A786
:102570008394C701D80189A39AA3ABA3BCA361C06C
:10258000AD84BE84B50180E090E00E94732D2B8D58
:102590003C8D4D8D5E8D0E94A82F7B018C01C80162
:1025A0000E94D72C6F87788B898B9A8BB701C801D3
:1025B0000E942B303B014C01ABADBCADED90FD90CA
:1025C0000D911C9117FB109517F91095E9ADFAAD17
:1025D0002080318042805380C801B7012F8538891F
:1025E00049895A890E94A82F5B016C01C201B1017F
:1025F000A40193010E94A82F9B01AC01C601B50163
:102600000E94FA2B6DA37EA38FA398A7C801B701E0
:10261000A40193010E94A82F7B018C01C201B1018A
:102620002F85388949895A890E94A82F9B01AC01BE
:10263000C801B7010E94F92B69A37AA38BA39CA3BD
:10264000882469A97AA98BA99CA92DA13EA14FA193
:1026500058A50E94FA2B2B96AEADBFAD2B976D936C
:102660007D938D939C9313976DA57EA58FA598A9B7
:1026700029A13AA14BA15CA10E94FA2B2D96EEADA7
:10268000FFAD2D9760837183828393832F96AEADC8
:10269000BFAD2F976D917D918D919C912F89388D34
:1026A000498D5A8D0E94FA2B2F96EEADFFAD2F97D4
:1026B000608371838283938300D00F920F9269812C
:1026C0007A818B819C812D813E814F815885E9845F
:1026D000FA840B851C852896ACACBDACCEACDFACC7
:1026E0002897ADB7BEB71196AD92BD92CD92DC9250
:1026F00014972996EFAD29971596EC930F2EF0E0DD
:10270000AF2EF0E0BF2EF0E0CF2EF0E0DF2EF02D68
:102710000E9440100F900F900F900F900F9080919B
:102720003D02882309F048C02D853E852F5F3F4F2D
:102730003E872D874D855E858F8D98A14817590757
:1027400008F4D4CE00D00F920F92ADADBEAD6D9116
:102750007D918D919C91139714962D913D914D9162
:102760005C9117971896ED90FD900D911C911B9719
:102770002896ACACBDACCEACDFAC2897ADB7BEB73D
:102780001196AD92BD92CD92DC9214972996EFAD41
:1027900029971596EC930F2EF0E0AF2EF0E0BF2EA8
:1027A000F0E0CF2EF0E0DF2EF02D0E9440100F90D1
:1027B0000F900F900F900F90C25BDF4F0FB6F89401
:1027C000DEBF0FBECDBFCF91DF911F910F91FF9064
:1027D000EF90DF90CF90BF90AF909F908F907F90C1
:1027E0006F905F904F903F902F90089520EA3FE0C8
:1027F00004C0F9013197F1F701970097D1F70895D7
:1028000060EA7FE040E951E0A5E335E01FC08A308F
:10281000910528F4232F2A95F1F7019717C08436E4
:10282000910528F42A2F2A95F1F70A970FC023E083
:10283000883E920730F4FA013197F1F784569040C0
:1028400005C0FB013197F1F7885E93400097F9F6D8
:102850000895AF92BF92CF92DF92EF92FF920F93C3
:102860001F93DF93CF930F920F92CDB7DEB76C011A
:102870005B017A01FB0180818601080F111DC801EF
:10288000BE016F5F7F4F0E94F530F7016083718357
:102890008283938389819A818017910719F420E0BC
:1028A00030E005C08C19F501808321E030E0C901DA
:1028B0000F900F90CF91DF911F910F91FF90EF90AC
:1028C000DF90CF90BF90AF90089590914C0C809185
:1028D0007302981741F0809173028F5F883209F478
:1028E00080E080937302089590914C0C8091730264
:1028F000981719F420E030E008C0909173028FE33C
:10290000989F900111242C583D4FC9010895909132
:10291000730220E08091710C981709F421E0822F56
:102920000895AF92BF92CF92DF92EF92FF920F93F2
:102930001F9360934D0C70934E0C80934F0C9093AB
:10294000500C2093510C3093520C4093530C5093E5
:10295000540CE092550CF092560C0093570C1093C7
:10296000580CA092590CB0925A0CC0925B0CD092A9
:102970005C0C1F910F91FF90EF90DF90CF90BF9074
:10298000AF9008953F924F925F926F927F928F9295
:102990009F92AF92BF92CF92DF92EF92FF920F93EE
:1029A0001F93CF93DF9390904C0C80914A0E90919F
:1029B0004B0EA0914C0EB0914D0E2C013D0177FABB
:1029C000709477F87094C0E0D0E000E010E0332419
:1029D00033949FE3892E71C0992011F488E2982ED8
:1029E0009A94209719F400E010E062C001151105D7
:1029F00009F45DC0DD8CCE8CBF8CA8A0698D7A8D6A
:102A00008B8D9C8D2D2D3C2D4B2D5A2D0E94D32C22
:102A1000882309F44CC08EA1882309F03FC0F80137
:102A2000E18CF28C038D148D6D2D7C2D8B2D9A2DC8
:102A3000A80197010E94D62E181684F5C801B70187
:102A4000A80197010E94A82F7B018C01C301B2014C
:102A500020E030E040E050EC0E94A82F29A13AA1EC
:102A60004BA15CA10E94A82F9B01AC01C801B7013A
:102A70000E94FA2B0E943530162F072FF82EE92ED0
:102A80006D2D7C2D8B2D9A2D212F302F4F2D5E2DCE
:102A90000E94D32C87FD02C0680157018D2D9C2D0B
:102AA000AB2DBA2D898F9A8FAB8FBC8F3DA28E0133
:102AB000989CE0011124CC58DD4F80917302981648
:102AC00009F08ACFDF91CF911F910F91FF90EF9086
:102AD000DF90CF90BF90AF909F908F907F906F903E
:102AE0005F904F903F9008958F929F92AF92BF92C8
:102AF000CF92DF92EF92FF920F931F93CF93DF93CA
:102B0000EC016B01009709F460C08EA1882309F0E5
:102B10005CC0E98CFA8C0B8D1C8DFB01B18CA28CF6
:102B2000938C848CC801B7012B2D3A2D492D582D3B
:102B30000E94D32C88230CF048C0C801B701A8011B
:102B400097010E94A82F7B018C0160914A0E709121
:102B50004B0E80914C0E90914D0E905820E030E03D
:102B600040E050EC0E94A82F29A13AA14BA15CA102
:102B70000E94A82F9B01AC01C801B7010E94FA2B4B
:102B80000E9435307B018C016B2D7A2D892D982D7B
:102B90009701A8010E94D32C882324F4EB2CFA2C53
:102BA000092D182D6B2D7A2D892D982D9701A801AF
:102BB0000E94D32C882349F0C701D801F601818FE8
:102BC000928FA38FB48F81E085A3DF91CF911F9166
:102BD0000F91FF90EF90DF90CF90BF90AF909F90BC
:102BE0008F900895EF92FF920F931F93CF93DF93EF
:102BF000F090730200E010E020E030E04FE3E42EBC
:102C000011C0FE9CE0011124CC58DD4FC901B80170
:102C1000AE010E947415F39488E2F81609F4FF24BB
:102C200098018E0180914C0CF81659F7C901B80132
:102C300040E050E00E947415DF91CF911F910F91F9
:102C4000FF90EF9008952F923F924F925F926F9274
:102C50007F928F929F92AF92BF92CF92DF92EF922C
:102C6000FF920F931F93DF93CF93CDB7DEB7689793
:102C70000FB6F894DEBF0FBECDBF1C016A017B0109
:102C800028013901DC01DB966D917D918D919C913C
:102C9000DE970E94732D4B015C01A70196010E94F3
:102CA000A82F0E94C02C0E94472D7B018C01F101AE
:102CB00067A370A781A792A7C501B401A3019201E0
:102CC0000E94A82F0E94C02C0E94472D6D837E83F6
:102CD0008F839887D1019B966D937D938D939C9361
:102CE0009E979F966D917D918D919C91D29722E3B5
:102CF00030E040E050E00E9499300E94752D20E0C5
:102D000030E040E752E40E94A82F0E94422D2B01A0
:102D10003C01C801B7010E94732D7B018C01C301E6
:102D2000B2010E94752D69837A838B839C83C501D0
:102D3000B401A50194010E94A82F5B016C01C80198
:102D4000B701A80197010E94A82F69877A878B870E
:102D50009C8769817A818B819C819B01AC010E9457
:102D6000FA2B6D877E878F87988BC601B5012985E1
:102D70003A854B855C850E94F92B2D853E854F85D4
:102D800058890E94DA2C0E94C02C0E94422D698B27
:102D90007A8B8B8B9C8B6D817E818F8198850E9435
:102DA000732D9B01AC010E94A82F6D8B7E8B8F8BA6
:102DB000988FA60195010E94F92B7B018C017094DC
:102DC000609450944094411C511C611C711CC301BF
:102DD000B2010E94752D9B01AC010E94FA2B9B0150
:102DE000AC01C801B7010E94DA2C0E94B02DF1019C
:102DF000A188B288C388D4888601750129893A8957
:102E00004B895C89E21AF30A040B150B0E94422DD0
:102E1000A8019701261B370B480B590BDA01C90192
:102E200057FD05C0A988BA88CB88DC8842C0C60196
:102E3000B5010E94752D9B01AC016D857E858F8546
:102E400098890E94A82F29853A854B855C850E9428
:102E5000F92B2D893E894F89588D0E94FA2B7B01D1
:102E60008C0169817A818B819C8120E030E040E88F
:102E700050E40E94A82F9B01AC01C801B7010E9439
:102E8000DA2C0E94C02C0E94422DAC01CB01DA0149
:102E9000B7FF04C080E090E0A0E0B0E08A159B0599
:102EA000AC05BD0514F45C016D0180E090E0A0E08C
:102EB000B0E0F101A3AAB4AAC5AAD6AA8A0D9B1DA7
:102EC000AC1DBD1D87AB90AFA1AFB2AF68960FB67A
:102ED000F894DEBF0FBECDBFCF91DF911F910F9150
:102EE000FF90EF90DF90CF90BF90AF909F908F902A
:102EF0007F906F905F904F903F902F9008957F92BA
:102F00008F929F92AF92BF92CF92DF92EF92FF92F9
:102F10000F931F93CF93DF930E94C2140E94F21568
:102F200070907302C0E0D0E04BC0872C99242097AA
:102F3000C1F18DA1882369F4F40176E0EE0FFF1F43
:102F40007A95E1F7E819F909EC58FD4F85A1882336
:102F500041F1ED88FE880F89188D698D7A8D8B8DF2
:102F60009C8DA80197010E94DA2C5B016C01F40191
:102F700066E0EE0FFF1F6A95E1F7E819F909EC58D2
:102F8000FD4F618D728D838D948DA80197010E94F4
:102F9000DA2C8B019C01CE01B601A5010E942316FB
:102FA0001DA2739488E2781609F47724E40156E0B0
:102FB000CC0FDD1F5A95E1F7C819D909CC58DD4F60
:102FC00080914C0C781609F0B0CFED88FE880F89FF
:102FD000188D698D7A8D8B8D9C8DA80197010E942B
:102FE000DA2C5B016C0160E070E080E090E0A80109
:102FF00097010E94DA2C8B019C01CE01B601A5013C
:103000000E9423161DA2DF91CF911F910F91FF9077
:10301000EF90DF90CF90BF90AF909F908F907F9078
:1030200008958F929F92AF92BF92CF92DF92EF92CC
:10303000FF920F931F934B015C018091730290E00C
:103040008C01E6E0000F111FEA95E1F7081B190B50
:103050000C581D4FC501B4010E94752DF80121A126
:1030600032A143A154A10E94A82F6B017C01F80159
:1030700061897289838994890E94752D9B01AC01B5
:10308000C701B6010E94DA2CF80161A372A383A3E1
:1030900094A3818A928AA38AB48A80E090E0A0E017
:1030A000B0E0818F928FA38FB48F858F968FA78F7B
:1030B000B0A316A281E085A30E947F171F910F91F4
:1030C000FF90EF90DF90CF90BF90AF909F908F9048
:1030D000089580E1EDE4FCE0DF011D928A95E9F7B7
:1030E000089580914C0C8093730280914C0C8F5FFB
:1030F000883209F480E08093710C84E2EDE4FCE016
:10310000DF011D928A95E9F708952F923F924F9221
:103110005F926F927F928F929F92AF92BF92CF9267
:10312000DF92EF92FF920F931F93DF93CF93CDB770
:10313000DEB7CE54D0400FB6F894DEBF0FBECDBF81
:1031400039014A0120914C0C422F50E05AAF49AF4F
:1031500020912A0E30912B0E40912C0E50912D0E65
:103160002DAB3EAB4FAB58AF0E94A82F0E94782FDB
:103170006FAF21967FAF219722968FAF229723962C
:103180009FAF239780912E0E90912F0EA091300E1D
:10319000B091310E89AB9AABABABBCABC401B30100
:1031A00029A93AA94BA95CA90E94A82F0E94782FAF
:1031B00024966FAF249725967FAF259726968FAFDD
:1031C000269727969FAF27972091320E3091330E86
:1031D0004091340E5091350E2DA73EA74FA758AB06
:1031E000C801B7010E94A82F0E94782F28966FAFC0
:1031F000289729967FAF29972A968FAF2A972B96E3
:103200009FAF2B978091360E9091370EA091380E7C
:10321000B091390E89A79AA7ABA7BCA7C601B50183
:1032200029A53AA54BA55CA50E94A82F0E94782F3E
:103230002C966FAF2C972D967FAF2D972E968FAF34
:103240002E972F969FAF2F97E9ADFAAD16E0EE0FB0
:10325000FF1F1A95E1F7A9ADBAADEA1BFB0BEC58BD
:10326000FD4F108220914D0C30914E0C40914F0C2F
:103270005091500C23968CAD9DADAEADBFAD239754
:1032800082179307A407B50714F482E08083609047
:10329000510C7090520C8090530C9090540C2796C7
:1032A0008CAD9DADAEADBFAD279786159705A80532
:1032B000B90584F4E9ADFAADB6E0EE0FFF1FBA959B
:1032C000E1F7A9ADBAADEA1BFB0BEC58FD4F8081CD
:1032D00088608083A090550CB090560CC090570C1D
:1032E000D090580C2B968CAD9DADAEADBFAD2B974D
:1032F0008A159B05AC05BD0584F4E9ADFAADA6E0E1
:10330000EE0FFF1FAA95E1F7A9ADBAADEA1BFB0BC3
:10331000EC58FD4F808180628083E090590CF090E2
:103320005A0C00915B0C10915C0C2F968CAD9DADEE
:10333000AEADBFAD2F978E159F05A007B10784F4E2
:10334000E9ADFAAD76E0EE0FFF1F7A95E1F7A9AD92
:10335000BAADEA1BFB0BEC58FD4F8081806880837F
:1033600023968CAD9DADAEADBFAD2397821B930B65
:10337000A40BB50B8DA39EA3AFA3B8A7E9ADFAAD7F
:1033800066E0EE0FFF1F6A95E1F7A9ADBAADEA1B43
:10339000FB0BEC58FD4F2DA13EA14FA158A5218359
:1033A00032834383548357FF0DC0DA01C901B095BE
:1033B000A095909581959F4FAF4FBF4F818392838A
:1033C000A383B48327968CAD9DADAEADBFAD2797DB
:1033D00086199709A809B90989A39AA3ABA3BCA325
:1033E000E9ADFAAD56E0EE0FFF1F5A95E1F7A9AD32
:1033F000BAADEA1BFB0BEC58FD4F29A13AA14BA13A
:103400005CA1258336834783508757FF0DC0DA01BF
:10341000C901B095A095909581959F4FAF4FBF4F33
:1034200085839683A783B0872B962CAC3DAC4EAC9E
:103430005FAC2B972A183B084C085D08E9ADFAAD44
:1034400046E0EE0FFF1F4A95E1F749AD5AADE41B88
:10345000F50BEC58FD4F218632864386548657FE85
:103460000BC088279927DC0182199309A409B509A3
:1034700081879287A387B4872F966CAC7DAC8EAC86
:103480009FAC2F976E187F08800A910AD401C30160
:1034900097FE07C088279927DC0186199709A80994
:1034A000B909E9ADFAAD36E0EE0FFF1F3A95E1F745
:1034B00029AD3AADE21BF30BEC58FD4F858796879B
:1034C000A787B08BA180B280C380D480E580F680CE
:1034D000078110852185328543855485821793079E
:1034E000A407B50710F4DA01C9018E159F05A007DE
:1034F000B10710F4D801C7018A159B05AC05BD05BD
:1035000010F4D601C501A9ACBAAC26E0AA0CBB1CCC
:103510002A95E1F749AD5AADA41AB50AE4E7F2E0FD
:10352000AE0EBF1EF501818B928BA38BB48B0097DF
:10353000A105B10509F400C36DA17EA18FA198A5D5
:103540000E94752D2DA93EA94FA958AD0E94DA2CD5
:103550006D8F7E8F8F8F98A369A17AA18BA19CA17B
:103560000E94752D29A93AA94BA95CA90E94DA2CC1
:10357000698F7A8F8B8F9C8FC201B1010E94752D4C
:103580002DA53EA54FA558A90E94DA2C6D8B7E8BE8
:103590008F8B988FC401B3010E94752D29A53AA580
:1035A0004BA55CA50E94DA2C698B7A8B8B8B9C8B4C
:1035B0006D8D7E8D8F8D98A19B01AC010E94A82FEF
:1035C0007B018C01698D7A8D8B8D9C8D9B01AC016B
:1035D0000E94A82F9B01AC01C801B7010E94FA2BE1
:1035E0007B018C016D897E898F89988D9B01AC014F
:1035F0000E94A82F9B01AC01C801B7010E94FA2BC1
:103600007B018C0169897A898B899C899B01AC013A
:103610000E94A82F9B01AC01C801B7010E94FA2BA0
:103620000E9435306B017C01D50191966D937D939D
:103630008D939C93949760E070E080E89FE3A701EE
:1036400096010E94DA2C2B013C01A9968FADA99717
:10365000882359F4A8966CAD7DAD8EAD9FADA8972B
:10366000A30192010E94A82F0CC060E070E080E8E6
:103670009FE3A8962CAD3DAD4EAD5FADA8970E94DF
:10368000DA2C4B015C0109AD1AAD96E0000F111F59
:103690009A95E1F7E9ADFAAD0E1B1F0B0C581D4FC3
:1036A000C701B601A50194010E94A82F6BAF7CAFA2
:1036B0008DAF9EAFD80155966D937D938D939C935E
:1036C000589751966D917D918D919C9154970E9440
:1036D000752D6B017C01A50194010E94A82F0E9409
:1036E000C02C0E94472DF80163AF74AF85AF96AF31
:1036F00020914A0E30914B0E40914C0E50914D0E40
:103700002D873E874F87588BC701B601A3019201D1
:103710000E94A82F2D853E854F8558890E94A82F8D
:1037200020E030E84BE355E40E94DA2C0E94C02CE4
:103730000E94422DD8019F966D937D938D939C930B
:10374000D2976D8D7E8D8F8D98A1A30192010E94DD
:10375000A82F69877A878B879C87698D7A8D8B8D57
:103760009C8DA30192010E94A82F6D837E838F837D
:1037700098876D897E898F89988DA30192010E9417
:10378000A82F69837A838B839C8369897A898B8943
:103790009C89A30192010E94A82F1B012C019091EA
:1037A0004C0C80917302981709F4C9C060906D0C9D
:1037B00070906E0C80906F0C9090700CB301C401EF
:1037C00020E030E040E050E00E94D62E18160CF0C9
:1037D000B6C060915D0C70915E0C80915F0C909111
:1037E000600C905829853A854B855C850E94A82FEE
:1037F0007B018C016D817E818F8198852091610C88
:103800003091620C4091630C5091640C0E94A82F7F
:103810009B01AC01C801B7010E94F92B7B018C010F
:1038200069817A818B819C812091650C3091660C35
:103830004091670C5091680C0E94A82F9B01AC012D
:10384000C801B7010E94F92B7B018C01C201B101B3
:103850002091690C30916A0C40916B0C50916C0C6A
:103860000E94A82F9B01AC01C801B7010E94F92B4F
:103870007B018C0123E333E343E75FE30E94D32C16
:1038800088230CF05CC0B301C4012BAD3CAD4DAD41
:103890005EAD0E94D32C87FD06C08BAD9CADADAD57
:1038A000BEAD3C014D01C801B70123E333E343E75B
:1038B0005FEB0E94D62E18160CF046C060E070E058
:1038C00080E89FE3A80197010E94F92B20E030E0F7
:1038D00040E05FE30E94A82F0E9435305B016C013D
:1038E0006D857E858F85988920914E0E30914F0E83
:1038F0004091500E5091510E0E94A82FA6019501A3
:103900000E94A82F7B018C0160E070E080E89FE3BB
:10391000A60195010E94F92B9B01AC01C801B701DA
:103920000E94DA2C0E9435306B017C01B301C40186
:103930009601A7010E94D32C87FD06C007C0CC24A6
:10394000DD24EE24FF2402C06301740109AD1AAD29
:1039500086E0000F111F8A95E1F7E9ADFAAD0E1B65
:103960001F0B0C581D4FC601D701F801858F968F8C
:10397000A78FB0A36D857E858F859889905820E0AC
:1039800030E040E050EC0E94A82FD80191962D9194
:103990003D914D915C9194970E94A82F20E030E0DA
:1039A00040E050E00E94FA2B0E943530B62EA72E40
:1039B000982E892EB601C7012B2D3A2D492D582D51
:1039C0000E94D32C87FD04C0CB2CDA2CE92CF82CD8
:1039D00009AD1AADB6E0000F111FBA95E1F7E9ADD8
:1039E000FAAD0E1B1F0B0C581D4FC601D701F80175
:1039F000818F928FA38FB48F658976898789908D07
:103A00002B2D3A2D492D582D0E94D32C18162CF011
:103A100081E0D80196968C9302C0F80116A2E9AD18
:103A2000FAADA6E0EE0FFF1FAA95E1F729AD3AAD7A
:103A3000E21BF30BEC58FD4F81E085A32092690C4B
:103A400030926A0C40926B0C50926C0C89819A8176
:103A5000AB81BC818093650C9093660CA093670C3E
:103A6000B093680C2D813E814F8158852093610C65
:103A70003093620C4093630C5093640C89859A8553
:103A8000AB85BC8580935D0C90935E0CA0935F0C1E
:103A9000B093600C85899689A789B08D80936D0C51
:103AA00090936E0CA0936F0CB093700C8091710C7E
:103AB00080934C0C80914C0C8F5F883209F480E02D
:103AC0008093710C2F962CAD3DAD4EAD5FAD2F9711
:103AD0002093590C30935A0C40935B0C50935C0C20
:103AE0002B968CAD9DADAEADBFAD2B978093550C95
:103AF0009093560CA093570CB093580C27962CAD6E
:103B00003DAD4EAD5FAD27972093510C3093520CD5
:103B10004093530C5093540C23968CAD9DADAEAD99
:103B2000BFAD239780934D0C90934E0CA0934F0CF8
:103B3000B093500C0E947F17C25BDF4F0FB6F89412
:103B4000DEBF0FBECDBFCF91DF911F910F91FF90D0
:103B5000EF90DF90CF90BF90AF909F908F907F902D
:103B60006F905F904F903F902F90089590914C0CE4
:103B700080917302981719F08091730204C08091AC
:103B80007102882331F00E94CF2080913D0288236A
:103B900069F30895AF92BF92CF92DF92EF92FF92B6
:103BA0000F93DF93CF93CDB7DEB7A2970FB6F894FC
:103BB000DEBF0FBECDBF6B017C01611571058105B4
:103BC000910521F480E30E94882132C000E05E016B
:103BD0000894A11CB11CC501800F911D9AA389A353
:103BE000C701B6012AE030E040E050E00E94B83062
:103BF000E9A1FAA160830F5FC701B6012AE030E0B6
:103C000040E050E00E94B830C901DA016C017D014A
:103C1000C114D104E104F104F1F608C0FE01E00F83
:103C2000F11D8081805D0E94882101500023B1F741
:103C3000A2960FB6F894DEBF0FBECDBFCF91DF9135
:103C40000F91FF90EF90DF90CF90BF90AF900895CD
:103C5000AF92BF92CF92DF92EF92FF920F931F939A
:103C6000CF93DF937B018C0120E030E040E050E017
:103C70000E94D32C88233CF48DE20E94882117FBFC
:103C8000109517F91095C801B7012AE037ED43EAFE
:103C90005BE30E94FA2B7B018C010E94422D5B01A9
:103CA0006C01CC24B7FCC094DC2CC601B5010E9489
:103CB000CA1D8EE20E948821C601B5010E94752DA1
:103CC0009B01AC01C801B7010E94F92BC2E0D0E012
:103CD0001EC020E030E040E251E40E94A82F5B01CA
:103CE0006C010E94422D7B018C01862F805D0E9419
:103CF00088216E2D70E0882777FD8095982F0E948F
:103D0000752D9B01AC01C601B5010E94F92B2197CD
:103D10002FEFCF3FD207E9F6DF91CF911F910F919F
:103D2000FF90EF90DF90CF90BF90AF900895EF920B
:103D3000FF920F931F937B018C0197FF0BC08DE2C5
:103D40000E94882110950095F094E094E11CF11CEC
:103D5000011D111DC801B7010E94CA1D1F910F91BD
:103D6000FF90EF9008950F931F93DF93CF93CDB7FC
:103D7000DEB728970FB6F894DEBF0FBECDBF982FE1
:103D8000FE0131969E01275F3F4F892F81708193FD
:103D90009695E217F307C9F78E01085F1F4FF801E8
:103DA0008081805D0E948821015010400C171D0702
:103DB000B1F728960FB6F894DEBF0FBECDBFCF91F6
:103DC000DF911F910F910895CF93DF93EC0102C013
:103DD0000E948821FE01219684918823C9F7DF91F2
:103DE000CF910895CF93DF93EC0103C021960E94F9
:103DF000882188818823D1F7DF91CF910895CF93CF
:103E0000DF93EC01009719F481EC91E036C089EB67
:103E100091E00E94E41EC330D105D1F0C430D10539
:103E20003CF4C130D10571F0C230D105E9F40DC0C8
:103E3000C530D10599F0C530D1056CF0C630D1053B
:103E400099F40FC085EA91E018C08BE891E015C0A5
:103E500083E791E012C08CE591E00FC084E491E02B
:103E60000CC082E391E009C0BE01882777FD8095F0
:103E7000982F0E94971E8FE291E00E94E41EDF912E
:103E8000CF91089583EF91E00E94E41E87EE91E0C8
:103E90000E94E41E86EC91E00E94E41E80E090E027
:103EA0000E94FF1E1092720C1092A50C0895FC0146
:103EB0008081843221F4CF010E94D1250895CF0161
:103EC0000E94740408952F923F924F925F926F92D6
:103ED0007F928F929F92AF92BF92CF92DF92EF929A
:103EE000FF920F931F93DF93CF93CDB7DEB7289741
:103EF0000FB6F894DEBF0FBECDBF80914C029091FB
:103F00004D02A0914E02B0914F0289839A83AB83F8
:103F1000BC83609048027090490280904A02909061
:103F20004B02A0904402B0904502C0904602D0904F
:103F30004702E0904002F09041020091420210914D
:103F4000430280E092E00E94F21EC801B7010E9485
:103F5000752D1B012C0120912A0E30912B0E4091C2
:103F60002C0E50912D0E0E94DA2C0E94281E17E074
:103F7000E12E12E0F12EC7010E94F21EC601B5012A
:103F80000E94752D5B016C0120912E0E30912F0E39
:103F90004091300E5091310E0E94DA2C0E94281E62
:103FA000C7010E94F21EC401B3010E94752D3B019E
:103FB0004C012091320E3091330E4091340E5091CD
:103FC000350E0E94DA2C0E94281EC7010E94F21EA4
:103FD00069817A818B819C810E94752D6D837E839E
:103FE0008F8398872091360E3091370E4091380E8E
:103FF0005091390E0E94DA2C0E94281E89E092E02E
:104000000E94F21EC201B10120912A0E30912B0EA6
:1040100040912C0E50912D0E0E94DA2CE09150020E
:10402000F0E00DE312E0B4E0EE0FFF1FBA95E1F708
:10403000E00FF11F24893589468957890E94F92BA1
:1040400020916102309162024091630250916402BA
:104050000E94F92B0E94281EC7010E94F21EC60171
:10406000B50120912E0E30912F0E4091300E5091BF
:10407000310E0E94DA2CE0915002F0E0A4E0EE0F45
:10408000FF1FAA95E1F7E00FF11F208D318D428DC2
:10409000538D0E94F92B2091650230916602409168
:1040A0006702509168020E94F92B0E94281EC701E6
:1040B0000E94F21EC401B3012091320E3091330EE2
:1040C0004091340E5091350E0E94DA2CE09150024E
:1040D000F0E054E0EE0FFF1F5A95E1F7E00FF11FFB
:1040E000248D358D468D578D0E94F92B20916902C4
:1040F00030916A0240916B0250916C020E94F92B40
:104100000E94281EC7010E94F21E6D817E818F8150
:1041100098852091360E3091370E4091380E50918F
:10412000390E0E94DA2C2091500230E02E5F3F4F72
:1041300044E0220F331F4A95E1F7020F131FD80105
:104140002D913D914D915C910E94F92B20916D0232
:1041500030916E0240916F02509170020E94F92BD3
:104160000E94281E82E192E00E94F21E28960FB65D
:10417000F894DEBF0FBECDBFCF91DF911F910F919D
:10418000FF90EF90DF90CF90BF90AF909F908F9077
:104190007F906F905F904F903F902F9008951F9366
:1041A00080917202882381F180917202182F84FF1E
:1041B00004C081E080933D0227C080FF07C00E94B9
:1041C000631F809172028E7F8093720213FF07C07B
:1041D0000E94B42780917202877F8093720212FF3F
:1041E00007C00E94C227809172028B7F8093720267
:1041F00011FF0AC00E94972781E080933F028091BF
:1042000072028D7F809372021F9108951F9311E0B7
:1042100046C02A3011F02D30E1F40E94CF20809169
:104220003D02882309F041C0E091720CEE2351F069
:10423000F0E0ED58F34F108283E79CE00E94571F97
:1042400090E002C080E090E00E94FF1E1092720C8D
:1042500006C08091A50C882329F0293201F510921F
:10426000A50C1DC02132D8F02F32C9F0283219F424
:104270001093A50C14C09091720C913380F4822F8E
:104280008156E92FF0E09F5F8A3120F4ED58F34F1B
:10429000205202C0ED58F34F20839093720C0E947D
:1042A000D421282F8F3F09F0B4CF1F910895EF92AA
:1042B000FF920F931F937B018C0122E030E040E0DE
:1042C00050E00E94DA30205C3D4B404F5F4FCA0106
:1042D000B901A80197010E94B830215030403093B5
:1042E000C5002093C400E0ECF0E080818D7F8083E6
:1042F000E1ECF0E080818061808380818860808350
:104300008081806880831F910F91FF90EF900895C6
:10431000282FE091280E9E2F9F5F903831F490E077
:1043200004C08091720284FD0FC08091290E9817FD
:10433000C1F3F0E0E855F24F20839093280E80916E
:10434000C10080628093C10008951F920F920FB642
:104350000F920BB60F9211248F939F93EF93FF93BD
:104360008091290EE82FF0E0E855F24F908190936C
:10437000C600982F9F5F903809F490E09093290E23
:104380008091280E981729F48091C1008F7D809329
:10439000C100FF91EF919F918F910F900BBE0F90F5
:1043A0000FBE0F901F9018959091A70D8091A60DAC
:1043B000891711F48FEF0895E92FF0E0EA55F34FD4
:1043C00080819F5F9093A70D08958091A60D8093A3
:1043D000A70D08951F920F920FB60F920BB60F9272
:1043E00011242F933F934F935F936F937F938F93FA
:1043F0009F93AF93BF93EF93FF939091C600913239
:10440000A1F0923218F4983101F513C09F3319F0DE
:104410009E37D9F404C080917202816003C08091FC
:1044200072028260809372021EC080917202886064
:10443000F9CF8091720284FD04C00E94E0260E94A0
:104440004026809172028061EDCFE091A60D2E2F63
:104450002F5F8091A70D281731F0F0E0EA55F34F58
:1044600090832093A60DFF91EF91BF91AF919F9103
:104470008F917F916F915F914F913F912F910F900D
:104480000BBE0F900FBE0F901F90189580E090E02C
:10449000A0EAB2E480932A0E90932B0EA0932C0EE8
:1044A000B0932D0E80932E0E90932F0EA093300E6E
:1044B000B093310E8093320E9093330EA093340E4E
:1044C000B093350E80E090E0A8E4B3E48093360E1C
:1044D0009093370EA093380EB093390E8EE18093EF
:1044E0003B0E80E090E8ABE3B4E480933C0E909305
:1044F0003D0EA0933E0EB0933F0E80E090E8ABEBF4
:10450000B4E48093400E9093410EA093420EB0937A
:10451000430E80E096EDA3E8B8E480934A0E9093B2
:104520004B0EA0934C0EB0934D0E8DEC9CECACEC6E
:10453000BDE38093460E9093470EA093480EB09330
:10454000490E85E58093440E1092450E8DEC9CEC4F
:10455000ACE4BDE380934E0E90934F0EA093500EAB
:10456000B093510E1092520E8CE291E0A0E0B0E0B8
:104570008093530E9093540EA093550EB093560E05
:1045800080E090E0AAE7B4E48093570E9093580E31
:10459000A093590EB0935A0E089580E090E065E024
:1045A0000E940D0381E090E06AE27EE041E350E08A
:1045B0000E942D030895EF92FF920F931F93CF93C4
:1045C000DF93EC017A018B018830910509F47CC0FE
:1045D000893091059CF48430910509F444C08530FC
:1045E00091051CF497FF27C0DFC08630910509F4C0
:1045F00059C0873091050CF05EC04BC08C309105DE
:1046000009F497C08D3091054CF48A30910509F476
:104610006DC08B3091050CF080C05FC08E3091056D
:1046200009F49BC08E3091050CF48AC0C85ED3405B
:1046300009F0BAC09BC0CB01BA0120E030E040E0F5
:1046400050E00E94D32C18161CF089E892E0B3C009
:10465000CC0FDD1FCC0FDD1FC65DD14FE882F98284
:104660000A831B83A4C0CB01BA0120E030E040E400
:1046700050E40E94D32C88231CF482E692E09BC075
:10468000C801B7010E940B300E94472D60933B0E7A
:104690008EC040933C0E50933D0E60933E0E70933F
:1046A0003F0E85C04093400E5093410E6093420EE2
:1046B0007093430E7CC04093460E5093470E609318
:1046C000480E7093490E73C0CB01BA010E94763038
:1046D0000E94472D6093440E6AC0CB01BA010E942C
:1046E00076300E94472D6093450E61C0CB01BA0120
:1046F00020E030E040E752E40E94A82F20E030E0C4
:1047000040E752E40E94A82F60934A0E70934B0E2C
:1047100080934C0E90934D0E4AC0DB01CA01BF77C7
:1047200080934E0E90934F0EA093500EB093510E67
:104730003EC0CB01BA010E94472D6093520E37C094
:10474000CB01BA010E94472D6093530E7093540E13
:104750008093550E9093560E2AC04093570E509357
:10476000580E6093590E70935A0E21C0CB01BA01B6
:1047700020E030E040E050E00E94D32C882319F084
:104780000E94D12602C00E94D326C801B70120E0B2
:1047900030E040E050E00E94D32C882371F40E9466
:1047A000EC020E94402609C08EE492E004C00E9400
:1047B000CD2289E392E00E94E41EDF91CF911F9108
:1047C0000F91FF90EF9008951F9380E090E00E947A
:1047D0000503182F853081F48AE29EE061E070E0E5
:1047E00041E350E00E94770320E0892B09F421E0A7
:1047F00081E0282730E086C0813021F58AE29EE002
:1048000061E070E04FE150E00E947703892B09F4EA
:1048100077C080E096EDA3E8B8E480934A0E9093C9
:104820004B0EA0934C0EB0934D0E8DEC9CECACE473
:10483000BDE380934E0E90934F0EA093500EB09315
:10484000510E59C08250823080F58AE29EE061E0CC
:1048500070E041E350E00E947703892B09F450C0D7
:10486000123061F48DEC9CECACE4BDE380934E0E11
:1048700090934F0EA093500EB093510E60914A0E3C
:1048800070914B0E80914C0E90914D0E20E030E0D7
:1048900041E655E40E94A82F60934A0E70934B0E98
:1048A00080934C0E90934D0E26C0143049F58AE249
:1048B0009EE061E070E041E350E00E947703892BC5
:1048C000F9F01092520E8CE291E0A0E0B0E08093FB
:1048D000530E9093540EA093550EB093560E80E055
:1048E00090E0AAE7B4E48093570E9093580EA093FB
:1048F000590EB0935A0E0E94CD2221E030E002C042
:1049000020E030E0C9011F9108958CE395E00E94FA
:10491000E41E87E395E00E94E41E84E395E00E9494
:10492000E41E8EE295E00E94E41E60912A0E7091D2
:104930002B0E80912C0E90912D0E0E94281E8EE140
:1049400095E00E94E41E88E195E00E94E41E6091DB
:104950002E0E70912F0E8091300E9091310E0E948C
:10496000281E88E095E00E94E41E82E095E00E9407
:10497000E41E6091320E7091330E8091340E90914E
:10498000350E0E94281E82EF94E00E94E41E8CEEF9
:1049900094E00E94E41E6091360E7091370E809173
:1049A000380E9091390E0E94281E8AED94E00E94E4
:1049B000E41E84ED94E00E94E41E60913B0E70E0E2
:1049C00080E090E00E94971E87EB94E00E94E41E36
:1049D00081EB94E00E94E41E60913C0E70913D0ECC
:1049E00080913E0E90913F0E0E94281E83E994E034
:1049F0000E94E41E8DE894E00E94E41E6091400E47
:104A00007091410E8091420E9091430E0E94281E9B
:104A10008FE694E00E94E41E89E694E00E94E41E82
:104A20006091460E7091470E8091480E9091490E0C
:104A30000E94281E85E594E00E94E41E8FE494E025
:104A40000E94E41E6091440E70E080E090E00E94BD
:104A5000971E8CE294E00E94E41E8091440E0E9416
:104A6000B31E88E294E00E94E41E82E294E00E9479
:104A7000E41E6091450E70E080E090E00E94971E79
:104A800089EF93E00E94E41E8091450E0E94B31EC0
:104A900085EF93E00E94E41E8EEE93E00E94E41EF8
:104AA00060914A0E70914B0E80914C0E90914D0E7C
:104AB00020E030E041E655E40E94DA2C0E94281EF6
:104AC00080ED93E00E94E41E89EC93E00E94E41ED6
:104AD00060914E0E70914F0E8091500E9091510E3C
:104AE0000E94281E81EA93E00E94E41E8AE993E076
:104AF0000E94E41E6091520E70E080E090E00E94FF
:104B0000971E8BE693E00E94E41E84E693E00E94E9
:104B1000E41E6091530E7091540E8091550E909149
:104B2000560E0E94732D0E94281E82E493E00E947C
:104B3000E41E8BE393E00E94E41E6091570E709197
:104B4000580E8091590E90915A0E0E94281E89E1AC
:104B500093E00E94E41E80E193E00E94E41E0E9424
:104B6000D526AA2797FDA095BA2FBC01CD010E949A
:104B7000971E87EE92E00E94E41E82EA92E00E9475
:104B8000E41E08950E94E423892B51F48EEF91E0F6
:104B90000E94E41E0E9446220E94CD220E9485248B
:104BA0000895EF92FF920F931F93DF93CF93CDB7AA
:104BB000DEB729970FB6F894DEBF0FBECDBF8C01CC
:104BC00081E08983F80180818432E1F58181882345
:104BD00019F40E94852434C0C8017E010894E11CA8
:104BE000F11CB701AE014E5F5F4F0E942914892B63
:104BF00059F19981F801E90FF11D80818D3311F58B
:104C00009F5F9983C801B701AE014A5F5F4F0E9461
:104C10002914892BC9F08981080F111DF8018081A1
:104C2000882381F46A817B818C819D810E94422D41
:104C3000DC01CB014E815F81688579850E94DB2292
:104C400080E003C083E001C081E029960FB6F894AC
:104C5000DEBF0FBECDBFCF91DF911F910F91FF90AF
:104C6000EF90089510925B0EE1E0F1E080818860A2
:104C70008083399AE2E0F1E08081877F8083089524
:104C8000E2E0F1E08081877F80830895DF92EF92F8
:104C9000FF920F931F93CF93DF93D82EEB01282F12
:104CA000332727FD309580915B0E90E02817390758
:104CB000A1F00E94B61DDD2049F01D1414F4419AA4
:104CC00001C0419880910201886003C08091020177
:104CD000877F80930201D0925B0E8091520E8130CB
:104CE00009F057C0E090570EF090580E0091590E01
:104CF00010915A0EBE0180E090E00E94732DA80131
:104D000097010E94D62E18162CF4C801B7010E94F4
:104D1000472DEB01DD2049F41092A9001092A80064
:104D20001092A0001092A10034C0209771F0109250
:104D3000A0001092A1008BE88093A00082E08093F5
:104D4000A100BE0180E090E012C01092A00010927D
:104D5000A1008BE88093A00082E08093A100609185
:104D6000530E7091540E8091550E9091560E0E94E4
:104D7000732DA80197010E94DA2C20E030EC4FE758
:104D800054E40E94A82F0E94472D7093A9006093BD
:104D9000A800DF91CF911F910F91FF90EF90DF90CE
:104DA000089547980895479A08953F9902C081E071
:104DB00005C088B18095881F8827881F90E00895D6
:104DC00080916F008D7F80936F008AEF90E020E9E3
:104DD00031E0F9013197F1F70197D9F708951F9262
:104DE0000F920FB60F9211248F939F9392B18091DF
:104DF000440E85759A7A892B82B91092B1009F91E1
:104E00008F910F900FBE0F901F90189581B18FEF6B
:104E100081B982B18091440E82B93F9A479AE1E804
:104E2000F0E080818F7E8083808188608083E0E8ED
:104E3000F0E080818D7F808380818E7F8083808180
:104E40008F73808380818F7C80831092B00010925A
:104E5000B100E0E7F0E08081816080830E94E0267D
:104E600008959B01AC01203283E0380780E04807B9
:104E700080E0580720F420E233E040E050E060E0BA
:104E800070E788E399E30E94B830C901DA01803005
:104E900020E0920721E0A20720E0B20730F4BC0135
:104EA0009C0140E050E091E02FC0803020E092076C
:104EB00028E0A20720E0B207A0F4F3E0B695A7959A
:104EC00097958795FA95D1F7BC019C0140E050E099
:104ED000E3E0220F331F441F551FEA95D1F792E0FC
:104EE00013C026E0B695A795979587952A95D1F793
:104EF000BC019C0140E050E086E0220F331F441FBC
:104F0000551F8A95D1F793E080918100887F982B77
:104F10009093810070938900609388002093760EAF
:104F20003093770E4093780E5093790E08958091C8
:104F300071028823C1F480913E028823A1F481E0AC
:104F4000809371028091440E8093860E80913B0E77
:104F5000880F845081958093870E479880916F00C9
:104F6000826080936F00089580913E02882349F407
:104F700080917102882329F010923F0281E0809392
:104F80003E020895E0915C0EF0915D0E3097A1F124
:104F900061897289838994892091720E3091730E90
:104FA0004091740E5091750E621B730B840B950B20
:104FB0000E94111810927E0E10927F0E1092800E99
:104FC0001092810E60E070E080E090E00E94312756
:104FD00080E091E7A2E0B0E080937A0E90937B0EA0
:104FE000A0937C0EB0937D0E1092720E1092730EF1
:104FF0001092740E1092750E10923E02089588E27F
:10500000EEE5FEE0DF011D928A95E9F760E273E0CC
:1050100080E090E00E94312710925D0E10925C0EAD
:105020001092880E08951F920F920FB60F920BB632
:105030000F921124EF92FF920F931F932F933F93A0
:105040004F935F936F937F938F939F93AF93BF9390
:10505000CF93DF93EF93FF938091880E882309F01D
:10506000AFC392B12091860E822F8A7A9575892BD3
:1050700082B982B18A7A822B82B98091870E80931D
:10508000B20082E08093B10081E08093880E789432
:1050900080915C0E90915D0E892B09F089C00E9471
:1050A0007414EC0190935D0E80935C0E009709F4EC
:1050B00076C080913E028823D1F46FA178A589A59E
:1050C0009AA560937E0E70937F0E8093800E9093CE
:1050D000810E0E94312780E091E7A2E0B0E080934A
:1050E0007A0E90937B0EA0937C0EB0937D0E2FA52D
:1050F00038A949A95AA9DA01C901B595A795979583
:105100008795820F931FA41FB51F8093820E9093E3
:10511000830EA093840EB093850E29893A894B891A
:105120005C89DA01C901B595A79597958795B095E2
:10513000A095909581959F4FAF4FBF4F80935E0E86
:1051400090935F0EA093600EB093610E8093620EF9
:105150009093630EA093640EB093650E8093660ED9
:105160009093670EA093680EB093690E80936A0EB9
:1051700090936B0EA0936C0EB0936D0E20936E0EF9
:1051800030936F0E4093700E5093710E1092720E0A
:105190001092730E1092740E1092750E09C00E9438
:1051A000E0261092710280917202846080937202F4
:1051B000E0915C0EF0915D0E309709F4F8C2208109
:1051C0002093860E40915E0E50915F0E6091600EAE
:1051D0007091610E81819281A381B481480F591F22
:1051E0006A1F7B1F40935E0E50935F0E6093600EAC
:1051F0007093610E1416150616061706C4F5216085
:105200002093860E80916E0E90916F0EA091700E7D
:10521000B091710E481B590B6A0B7B0B40935E0ECD
:1052200050935F0E6093600E7093610E21FF0CC06F
:105230008091400290914102A0914202B0914302BC
:105240000197A109B1090BC08091400290914102E0
:10525000A0914202B09143020196A11DB11D80931D
:10526000400290934102A0934202B09343024091C6
:10527000620E5091630E6091640E7091650E85818F
:105280009681A781B085480F591F6A1F7B1F4093E5
:10529000620E5093630E6093640E7093650E141645
:1052A000150616061706D4F52091860E2460209365
:1052B000860E80916E0E90916F0EA091700EB0913F
:1052C000710E481B590B6A0B7B0B4093620E509377
:1052D000630E6093640E7093650E23FF0CC0809183
:1052E000440290914502A0914602B0914702019775
:1052F000A109B1090BC08091440290914502A0918F
:105300004602B09147020196A11DB11D809344024F
:1053100090934502A0934602B09347024091660ED7
:105320005091670E6091680E7091690E818592852B
:10533000A385B485480F591F6A1F7B1F4093660ED3
:105340005093670E6093680E7093690E14161506DD
:1053500016061706D4F52091860E20612093860E3E
:1053600080916E0E90916F0EA091700EB091710EA3
:10537000481B590B6A0B7B0B4093660E5093670ECC
:105380006093680E7093690E25FF0CC080914802EF
:1053900090914902A0914A02B0914B020197A10954
:1053A000B1090BC08091480290914902A0914A0234
:1053B000B0914B020196A11DB11D809348029093BC
:1053C0004902A0934A02B0934B0240916A0E509159
:1053D0006B0E60916C0E70916D0E85859685A7851C
:1053E000B089480F591F6A1F7B1F40936A0E509364
:1053F0006B0E60936C0E70936D0E141615061606E8
:105400001706D4F52091860E20642093860E809195
:105410006E0E90916F0EA091700EB091710E481BA0
:10542000590B6A0B7B0B40936A0E50936B0E609383
:105430006C0E70936D0E27FF0CC080914C02909102
:105440004D02A0914E02B0914F020197A109B109FE
:105450000BC080914C0290914D02A0914E02B091F0
:105460004F020196A11DB11D80934C0290934D02F5
:10547000A0934E02B0934F022091720E3091730EA2
:105480004091740E5091750E2F5F3F4F4F4F5F4FFD
:105490002093720E3093730E4093740E5093750EDA
:1054A00081899289A389B489281739074A075B073C
:1054B00008F077C180913E02882309F45DC02091F5
:1054C000760E3091770E4091780E5091790E809142
:1054D0007A0E90917B0EA0917C0EB0917D0E280FDC
:1054E000391F4A1F5B1F20937A0E30937B0E409327
:1054F0007C0E50937D0E213002EE300704E0400711
:1055000000E0500708F453C12050324E4440504050
:1055100020937A0E30937B0E40937C0E50937D0E39
:1055200020917E0E30917F0E4091800E5091810E21
:1055300067A570A981A992A96217730784079507C7
:1055400050F00E94E02610927102809172028460F5
:10555000809372022CC179018A01E61AF70A080BBE
:10556000190BC801B701E0927E0EF0927F0E0093F6
:10557000800E1093810E6CC083A994A9A5A9B6A929
:10558000281739074A075B0708F065C02091760E97
:105590003091770E4091780E5091790E80917A0E6D
:1055A00090917B0EA0917C0EB0917D0E280F391F3B
:1055B0004A1F5B1F20937A0E30937B0E40937C0E24
:1055C00050937D0E213002EE300704E0400700E0EA
:1055D000500708F4ECC02050324E44405040209315
:1055E0007A0E30937B0E40937C0E50937D0E87A5F0
:1055F00090A9A1A9B2A920917E0E30917F0E409171
:10560000800E5091810E820F931FA41FB51F8093AF
:105610007E0E90937F0EA093800EB093810E23ADEB
:1056200034AD45AD56AD82179307A407B50740F0DA
:1056300020937E0E30937F0E4093800E5093810E08
:1056400060917E0E70917F0E8091800E9091810E00
:105650000E943127ACC087A990ADA1ADB2AD28178B
:1056600039074A075B0708F480C0281739074A073B
:105670005B0769F480E091E7A2E0B0E080937A0EE6
:1056800090937B0EA0937C0EB0937D0E90C02091E2
:10569000760E3091770E4091780E5091790E809170
:1056A0007A0E90917B0EA0917C0EB0917D0E280F0A
:1056B000391F4A1F5B1F20937A0E30937B0E409355
:1056C0007C0E50937D0E213012EE310714E041071D
:1056D00010E0510708F46BC02050324E4440504057
:1056E00020937A0E30937B0E40937C0E50937D0E68
:1056F00020917E0E30917F0E4091800E5091810E50
:105700008091820E9091830EA091840EB091850EAF
:1057100082179307A407B50748F487A590A9A1A904
:10572000B2A9281B390B4A0B5B0B04C05695479551
:105730003795279520937E0E30937F0E4093800EF1
:105740005093810E23A534A545A556A580917E0EC4
:1057500090917F0EA091800EB091810E82179307D9
:10576000A407B50708F06CCF63CF23AD34AD45ADCA
:1057700056AD80917E0E90917F0EA091800EB091DB
:10578000810E82179307A407B50789F020937E0E38
:1057900030937F0E4093800E5093810ECA01B90161
:1057A00057CF10925D0E10925C0E0E94651480918E
:1057B000860E9091440E89278093860E1092880E53
:1057C000FF91EF91DF91CF91BF91AF919F918F9119
:1057D0007F916F915F914F913F912F911F910F9109
:1057E000FF90EF900F900BBE0F900FBE0F901F9089
:1057F00018955058BB27AA270ED076C23FD230F05A
:1058000044D220F031F49F3F11F41EF40FC20EF485
:10581000E095E7FBDCC1E92F89D280F3BA17620774
:1058200073078407950718F071F49EF5B8C20EF45B
:10583000E0950B2EBA2FA02D0B01B90190010C01A0
:10584000CA01A0011124FF27591B99F0593F50F4B8
:10585000503E68F11A16F040A22F232F342F442710
:10586000585FF3CF469537952795A795F040539508
:10587000C9F77EF41F16BA0B620B730B840BBAF0D8
:105880009150A1F0FF0FBB1F661F771F881FC2F743
:105890000EC0BA0F621F731F841F48F48795779557
:1058A0006795B795F7959E3F08F0B3CF9395880F0E
:1058B00008F09927EE0F979587950895DFD158F056
:1058C00080E891E009F49EEFE0D128F040E851E053
:1058D00059F45EEF09C0AAC162C2E92FE07826D26E
:1058E00068F3092E052AC1F3261737074807590719
:1058F00038F00E2E07F8E02569F0E025E0640AC0D4
:10590000EF6307F8009407FADB01B9019D01DC01A0
:10591000CA01AD01EF935DD0E7D10AD05F91552365
:1059200031F02BED3FE049E450FD49EC63CF0895A1
:10593000DF93DD27B92FBF7740E85FE31616170620
:1059400048075B0710F4D92F96D29F938F937F93CC
:105950006F93C9D3E4EEF0E06CD1C6D12F913F91A3
:105960004F915F9101D3DD2349F09058A2EA2AEDCF
:105970003FE049EC5FE3D0785D274DDFDF91B4C1B4
:10598000F7D180F09F3740F491110EF409C260E026
:1059900070E080E89FE3089526F01B16611D711DDD
:1059A000811D1BC135C1EFD008F481E0089575D188
:1059B000E395ABC10CD098C168D140F05FD130F015
:1059C00021F45F3F19F003C15111EAC12FC1AED1DB
:1059D00098F39923C9F35523B1F3951B550BBB27B6
:1059E000AA2762177307840738F09F5F5F4F220F63
:1059F000331F441FAA1FA9F333D00E2E3AF0E0E85C
:105A000030D091505040E695001CCAF729D0FE2FA7
:105A100027D0660F771F881FBB1F26173707480739
:105A2000AB07B0E809F0BB0B802DBF01FF279358EF
:105A30005F4F2AF09E3F510568F0C9C0B1C15F3F7A
:105A4000ECF3983EDCF3869577956795B795F795D7
:105A50009F5FC9F7880F911D9695879597F90895CF
:105A6000E1E0660F771F881FBB1F6217730784076B
:105A7000BA0720F0621B730B840BBA0BEE1F88F77A
:105A8000E095089504D06894B1118AC1089556D163
:105A900088F09F5790F0B92F9927B751A0F0D1F017
:105AA000660F771F881F991F1AF0BA95C9F712C0A1
:105AB000B13081F074D1B1E0089571C1672F782FB2
:105AC0008827B85F39F0B93FCCF38695779567950D
:105AD000B395D9F73EF490958095709561957F4F79
