:100000000C944D040C946E040C946E040C946E04C9
:100010000C946E040C946E040C946E040C946E0498
:100020000C946E040C94AB0F0C946E040C94BD31C4
:100030000C946E040C946E040C946E040C946E0478
:100040000C946E040C94722F0C946E040C946E0439
:100050000C946E040C946E040C946E040C946C2836
:100060000C946E040C946A240C9421240C946E0459
:100070000C946E040C946E040C946E040C946E0438
:100080000C946E040C946E040C946E040C946E0428
:100090000C946E040C946E040C946E040C946E0418
:1000A0000C946E040C946E040C946E040C946E0408
:1000B0000C946E040C946E040C946E040C946E04F8
:1000C0000C946E040C946E040C946E040C946E04E8
:1000D0000C946E040C946E040C946E040C946E04D8
:1000E0000C946E040E250E250E25192522252B2590
:1000F00034254B2562257925852591259D25B22519
:10010000BB25C425CD25D9250C25E225F4250826B7
:100110001A262C26422658266A2673267C268526F1
:100120009026084AD73B3BCE016E84BCBFFDC12F51
:100130003D6C74319ABD56833DDA3D00C77F11BED8
:10014000D9E4BB4C3E916BAAAABE000000803F05DB
:10015000A84CCDB2D44EB93836A9020C50B991860C
:1001600088083CA6AAAA2ABE000000803F3E0D0ACD
:10017000002C0057506F733A002C002C4D506F73B9
:100180003A003C436865636B003C416C61726D00F2
:100190003C486F6D65003C486F6C64003C52756E66
:1001A000003C5175657565003C49646C65005D0DEA
:1001B0000A005B302E39662E32303134303730361B
:1001C0003A000D0A003D00244E005D0D0A00204655
:1001D00000205400204D3800204D3900204D3500BE
:1001E000204D3400204D3300204D3200204D310091
:1001F000204D300020473934002047393300204754
:100200003931002047393000204732300020473252
:10021000310020473139002047313800204731373D
:10022000002047005B473830005B4733005B4732B4
:10023000005B4731005B4730005D0D0A005B544CAA
:100240004F3A005D0D0A002C005B4739323A005DE1
:100250000D0A002C003A003330003238005B4700B2
:100260005D0D0A002C005B5052423A002028686F56
:100270006D696E672070756C6C2D6F66662C206DD5
:100280006D290D0A002028686F6D696E672064650E
:10029000626F756E63652C206D736563290D0A248A
:1002A00033303D002028686F6D696E672073656587
:1002B0006B2C206D6D2F6D696E290D0A2432393D2E
:1002C000002028686F6D696E6720666565642C2064
:1002D0006D6D2F6D696E290D0A2432383D00290D90
:1002E0000A2432373D002028686F6D696E672064EC
:1002F000697220696E76657274206D61736B3A0065
:100300002028686F6D696E67206379636C652C20A7
:10031000626F6F6C290D0A2432363D002028686117
:100320007264206C696D6974732C20626F6F6C2924
:100330000D0A2432353D002028736F6674206C69E5
:100340006D6974732C20626F6F6C290D0A2432342E
:100350003D002028696E76657274206C696D697441
:100360002070696E732C20626F6F6C290D0A243225
:10037000333D002028696E76657274207374657051
:1003800020656E61626C652C20626F6F6C290D0AAE
:100390002432323D0020286175746F2073746172BD
:1003A000742C20626F6F6C290D0A2432313D0020BD
:1003B000287265706F727420696E636865732C2093
:1003C000626F6F6C290D0A2432303D002028617263
:1003D0006320746F6C6572616E63652C206D6D298E
:1003E0000D0A2431393D0020286A756E6374696FE7
:1003F0006E20646576696174696F6E2C206D6D295D
:100400000D0A2431373D002028737465702069641B
:100410006C652064656C61792C206D736563290DB2
:100420000A2431363D00290D0A2431353D002028AB
:1004300064697220706F727420696E7665727420C0
:100440006D61736B3A00290D0A2431343D00202878
:100450007374657020706F727420696E7665727443
:10046000206D61736B3A002028737465702070757D
:100470006C73652C2075736563290D0A2431333D37
:100480000020287A206D61782074726176656C2C6A
:10049000206D6D290D0A2431323D00202879206D10
:1004A00061782074726176656C2C206D6D290D0A5F
:1004B0002431313D00202878206D617820747261EC
:1004C00076656C2C206D6D290D0A2431303D00209D
:1004D000287A20616363656C2C206D6D2F736563D2
:1004E0005E32290D0A24393D00202879206163639A
:1004F000656C2C206D6D2F7365635E32290D0A24A7
:10050000383D0020287820616363656C2C206D6D78
:100510002F7365635E32290D0A24373D0020287A47
:10052000206D617820726174652C206D6D2F6D696E
:100530006E290D0A24363D00202879206D6178202F
:10054000726174652C206D6D2F6D696E290D0A2402
:10055000353D00202878206D617820726174652C0B
:10056000206D6D2F6D696E290D0A24343D00202801
:100570007A2C20737465702F6D6D290D0A24333D1C
:10058000002028792C20737465702F6D6D290D0A59
:1005900024323D002028782C20737465702F6D6DF7
:1005A000290D0A24313D0024303D002424202876E2
:1005B000696577204772626C2073657474696E6731
:1005C00073290D0A2423202876696577202320705B
:1005D0006172616D6574657273290D0A2447202864
:1005E00076696577207061727365722073746174C7
:1005F00065290D0A244E2028766965772073746179
:100600007274757020626C6F636B73290D0A2478A5
:100610003D76616C7565202873617665204772624E
:100620006C2073657474696E67290D0A244E783DD9
:100630006C696E65202873617665207374617274CD
:10064000757020626C6F636B290D0A244320286348
:100650006865636B2067636F6465206D6F646529EF
:100660000D0A245820286B696C6C20616C61726DD6
:10067000206C6F636B290D0A2448202872756E2048
:10068000686F6D696E67206379636C65290D0A7EFA
:1006900020286379636C65207374617274290D0A74
:1006A0002120286665656420686F6C64290D0A3F07
:1006B000202863757272656E74207374617475732B
:1006C000290D0A6374726C2D782028726573657425
:1006D000204772626C290D0A000D0A4772626C2075
:1006E000302E3966205B27242720666F72206865CC
:1006F0006C705D0D0A005D0D0A0044697361626CE7
:10070000656400456E61626C65640043617574697F
:100710006F6E3A20556E6C6F636B656400272448DA
:10072000277C2724582720746F20756E6C6F636BAD
:1007300000526573657420746F20636F6E74696E08
:100740007565005B000D0A0050726F62652066617E
:10075000696C0041626F727420647572696E672003
:100760006379636C6500486172642F736F667420EF
:100770006C696D697400414C41524D3A20000D0A7C
:1007800000496E76616C69642067636F6465204917
:10079000443A00556E646566696E656420666565F9
:1007A00064207261746500556E737570706F727439
:1007B000656420636F6D6D616E64004D6F64616C84
:1007C0002067726F75702076696F6C6174696F6EE7
:1007D000004C696E65206F766572666C6F770048B5
:1007E0006F6D696E67206E6F7420656E61626C65F7
:1007F0006400416C61726D206C6F636B004E6F74AE
:100800002069646C6500454550524F4D207265610A
:1008100064206661696C2E205573696E672064657B
:100820006661756C74730056616C7565203C20338D
:1008300020757365630053657474696E672064691D
:100840007361626C65640056616C7565203C203094
:1008500000496E76616C69642073746174656D65BE
:100860006E7400426164206E756D62657220666F01
:10087000726D617400457870656374656420636FA0
:100880006D6D616E64206C65747465720065727262
:100890006F723A20006F6B0D0A0011241FBECFEF5C
:1008A000D1E2DEBFCDBF00E00CBF12E0A0E0B2E0BD
:1008B000E8EDFFE600E00BBF02C007900D92A0300C
:1008C000B107D9F717E0A0E0B2E001C01D92A83B44
:1008D000B107E1F70E94EA110C94EA370C9400008A
:1008E000E1E0F1E0808180628083E2E0F1E08081FC
:1008F0008F7D80830895E2E0F1E080818F7D8083A9
:1009000008951F93182F80918F06823079F00E94EE
:10091000C41D0E946B1E123021F48091020180627E
:1009200003C0809102018F7D809302011F91089581
:10093000F999FECF92BD81BD81E08FBB80B508954E
:10094000F894F999FECF92BD81BD81E08FBB40B58F
:100950004627842F992787FD9095262F30E0822304
:100960009323892B39F06F3F19F060BD84E006C0F6
:1009700084E104C0442321F060BD84E28FBBF99A76
:10098000789408958F929F92AF92BF92CF92DF9208
:10099000EF92FF920F93DF93CF930F920F92CDB709
:1009A000DEB75C016B017A014A0100E01EC0002342
:1009B00019F021E030E008C0202F332727FD3095C3
:1009C0002227330F221F3327F60161916F01062F73
:1009D000020F9C012F5F3F4F3A8329830E94A0049E
:1009E00008948108910889819A8181149104F9F60B
:1009F000C7018A0D9B1D602F0E94A0040F900F90CD
:100A0000CF91DF910F91FF90EF90DF90CF90BF904B
:100A1000AF909F908F900895CF93DF93EC01FB01EF
:100A20009A0190E0B1E019C0F999FECFF2BDE1BDA5
:100A3000BFBBA0B5992319F081E090E008C0892FD1
:100A4000992787FD90958827990F881F99273196B8
:100A50009A2F980FA993215030402115310521F785
:100A6000460F571FF999FECF52BD41BD81E08FBBA4
:100A700080B520E030E0981711F421E030E0C901A2
:100A8000DF91CF91089560919206709193068091C5
:100A90009406909195060E94103520916C07309134
:100AA0006D0740916E0750916F070E9474346093F8
:100AB0002E0670932F068093300690933106609136
:100AC00096067091970680919806909199060E94DB
:100AD0001035209170073091710740917207509145
:100AE00073070E94743460933206709333068093C8
:100AF00034069093350660919A0670919B0680911A
:100B00009C0690919D060E941035209174073091AB
:100B1000750740917607509177070E94743460936F
:100B200036067093370680933806909339060895F9
:100B30002F923F924F925F926F927F928F929F92ED
:100B4000AF92BF92CF92DF92EF92FF920F931F93DB
:100B5000DF93CF93CDB7DEB7A7970FB6F894DEBF7C
:100B60000FBECDBF1C01E6E5F6E088E3DF011D9274
:100B70008A95E9F73196ABE1B6E08AE00D900192F3
:100B80008150E1F719821BA2772466241F8E1E8EE6
:100B9000AA24BB2411E0412E512C99249394B2E055
:100BA0008B2E6AC2802F81548A3118F081E00C9418
:100BB000F80E9F5F9983C101BE016F5F7F4FAE0149
:100BC0004E5F5F4F0E947E16882319F482E00C94DA
:100BD000F80ECA80DB80EC80FD80C701B6010E9460
:100BE0009B370E94E234162F70E0882777FD8095AE
:100BF000982F0E9410359B01AC01C701B6010E94DD
:100C0000883320E030E048EC52E40E94C1360E9474
:100C10002C370E94E234262F073421F00D3409F0DE
:100C200052C10AC1163209F496C01732F0F41431D9
:100C300070F4113108F0BAC0143009F443C0143014
:100C400008F489C01A3011F00C94E70E32C01C3140
:100C500081F11D3128F4163110F00C94E70EC8C054
:100C60001E3111F00C94E70E24C0103509F47AC03F
:100C7000113588F4153331F1163340F41B3209F481
:100C8000C0C0113311F00C94E70EBBC01C3310F040
:100C90000C94E70ECAC01C3561F01D3528F41A35D6
:100CA00010F40C94E70E92C01F3510F00C94E70E70
:100CB00096C0222339F4BBA1BB2311F00C94E50E9E
:100CC000E1E0EBA31C31A9F01D3128F4143051F000
:100CD0001A3069F40AC0153351F11C3561F11E3127
:100CE00031F416C09092560602C08092560680E0FB
:100CF000A0C0222329F02A3011F00C94E70E04C082
:100D0000F3E0F093560621C024E0209356061DC060
:100D1000222329F02A3011F00C94E70E04C085E05C
:100D20008093560612C096E0909356060EC0A7E038
:100D3000A0935606DCCF222329F02A3011F00C9420
:100D4000E70E05C0B8E0B093560680E0ADC0E9E01C
:100D5000E0935606FACFFBA1FF2311F00C94E50EA9
:100D600082E08BA3123089F0133028F4112351F064
:100D70001130D1F40AC0163259F0103591F0133009
:100D800099F403C0109257060FC0109357060CC079
:100D9000243111F00C94E70E94E09093570681E013
:100DA00083C0A5E0A093570681E043C0123139F01B
:100DB000133149F0113129F410925B0602C0909270
:100DC0005B0682E036C080925B06FBCF1A3519F4D1
:100DD00010925A0602C090925A0683E02AC01D352E
:100DE00019F49092580602C01092580684E021C06F
:100DF000143119F49092590602C01092590685E0F8
:100E000018C0BBA1BB2309F0E0C7113329F410922D
:100E10005C06E3E0EBA307C02A3009F0D8C7909244
:100E20005C06F3E0FBA386E03FC0165310935D061B
:100E300087E02223C9F1CDC7662309F0CAC716305F
:100E400018F41330B0F408C0183008F4C0C71A30D2
:100E500000F11E3109F0BBC7123041F01E3131F0F4
:100E6000112311F490925E0688E01EC080925E0607
:100E7000FBCF143039F0153041F0133041F490922B
:100E8000600605C08092600602C01092600689E08C
:100E90000BC0183019F0193031F403C080925F068E
:100EA00002C010925F068AE0920102C0220F331F37
:100EB0008A95E2F7C9018A219B21892B09F08BC70A
:100EC000A22AB32AD9C0003509F46BC001359CF4BD
:100ED0000A34E9F10B3434F4063421F1093409F011
:100EE00076C72AC00C3409F44AC00C34E4F10E343D
:100EF00009F06DC748C0043599F005353CF402355A
:100F000009F459C0033509F062C75FC0093509F417
:100F100072C00A3509F47BC0083509F058C75FC0B4
:100F200029E080C0C0926106D0926206E09263061A
:100F3000F092640620E076C0C0926506D092660604
:100F4000E0926706F092680621E0622A6BC0C092C8
:100F50006906D0926A06E0926B06F0926C0682E017
:100F6000682A22E05FC0C0926D06D0926E06E092C1
:100F70006F06F092700694E0692A23E053C0109344
:100F8000710624E04FC0C701B6010E94DD346093B2
:100F9000720670937306809374069093750625E02D
:100FA00041C0C0927606D0927706E0927806F09221
:100FB000790626E037C0C0927A06D0927B06E0928E
:100FC0007C06F0927D0627E02DC0C0927E06D0926E
:100FD0007F06E0928006F092810628E023C0C0924E
:100FE0008206D0928306E0928406F0928506A1E004
:100FF0007A2A2AE017C0C0928606D0928706E0922D
:101000008806F0928906B2E07B2A2BE00BC0C092E2
:101010008A06D0928B06E0928C06F0928D06E4E070
:101020007E2A2CE08201022E02C0000F111F0A94BA
:10103000E2F78E8D9F8D80239123892B11F089E11A
:10104000D7C681E693E002C0959587952A95E2F789
:1010500080FF0CC0C701B60120E030E040E050E066
:101060000E946D34882314F484E0C2C68E8D9F8D57
:10107000802B912B9F8F8E8F9981F101E90FF11DAC
:101080000081002309F08ECD772029F09BA19923C0
:1010900011F4A2E0ABA3BE8DB5FF0FC08091720624
:1010A00090917306A0917406B09175068058964988
:1010B000A849B04014F08BE19BC68091580681305E
:1010C00039F4FBA1F230B1F52E8D20FD33C085C679
:1010D00080911C06882371F58E8D80FF1BC0809146
:1010E0005906813039F560916106709162068091F0
:1010F00063069091640623E333E34BEC51E40E94D2
:10110000C136609361067093620680936306909384
:10111000640610C08091290690912A06A0912B06A2
:10112000B0912C068093610690936206A0936306AB
:10113000B0936406AE8DBF8DB0FD10C080912506C2
:1011400090912606A0912706B091280680937E06EE
:1011500090937F06A0938006B093810680915606F7
:10116000813041F4BE8DB6FF3AC6EE8DFF8DEF7B28
:10117000FF8FEE8F80915B06882341F0813061F410
:10118000F2E0FAA319A221E028A30BC01AA281E081
:1011900089A392E098A305C0A1E0AAA3B2E0B9A3F5
:1011A00018A280915906813059F5A2E8EA2EA6E0EE
:1011B000FA2E00E010E0C72CDD24C601002E02C08C
:1011C000959587950A94E2F780FF11C0F701608139
:1011D00071818281938123E333E34BEC51E40E94DC
:1011E000C136D7016D937D938D939C9313970F5FB9
:1011F0001F4FE4E0F0E0EE0EFF1E03301105E9F6AC
:10120000FBA1F33049F480915C06813029F424E09D
:10121000721611F086E2ECC5DE011696EAE3F6E0FE
:101220008CE001900D928150E1F7A7FE12C09091E1
:101230005D06973008F0D5C580912106891749F0E1
:10124000892FBE016A5F7F4F0E946F27882309F4B0
:10125000CAC580915606823021F0883009F0FBC063
:1012600098C0772009F4C1C58E8D9F8D80759070D0
:10127000892B09F4B4C56091760670917706809148
:101280007806909179060E949B370E94E23467307D
:1012900008F0A7C520917106243131F0223009F001
:1012A00096C58E8D87FD93C5662319F0862F8150D4
:1012B00002C080915D068E010E5E1F4FB8010E9434
:1012C0006F27882309F48FC57801F2E88F2EF6E0A6
:1012D0009F2EEEE2CE2EE6E0DE2E00E010E0A72C00
:1012E000BB24C501002E02C0959587950A94E2F7AC
:1012F00080FF3BC080917106843169F5D6016D9104
:101300007D918D919C91139758962D913D914D9182
:101310005C915B970E948833F40120813181428186
:1013200053810E948833D7016D937D938D939C9355
:1013300013970230D1F42091520630915306409118
:101340005406509155060E948833F70160837183DB
:10135000828393830AC0F40180819181A281B38149
:10136000F70180839183A283B3830F5F1F4F84E0D3
:1013700090E0E80EF91E880E991EC80ED91E0330A3
:10138000110509F0AECFAE8DBF8DAF7ABF8FAE8F96
:10139000FBC0772009F429C502E816E07EE2C72EDB
:1013A00076E0D72E66E0862E912C8C0E9D1EEE24C4
:1013B000FF24A72CBB24C5010E2C02C09595879550
:1013C0000A94E2F780FF2CC0F6016081718182816E
:1013D0009381D4012D913D914D915C910E94883370
:1013E000F80120813181428153810E948833D801E4
:1013F0006D937D938D939C931397B2E0EB16D1F48C
:101400002091520630915306409154065091550652
:101410000E948833F80160837183828393830AC0BA
:10142000F601808D918DA28DB38DF801808391831B
:10143000A283B3830894E11CF11C0C5F1F4F84E06E
:1014400090E0C80ED91E880E991E93E0E916F104AB
:1014500009F0B1CF99C0ABA1A33009F47CC07720CB
:1014600009F479C05EE2C52E56E0D52E02E816E0FA
:1014700046E0A42EB12CAC0EBD1EEE24FF24872C1A
:101480009924C4010E2C02C0959587950A94E2F721
:1014900080FD0BC0F60180819181A281B381F801AA
:1014A00080839183A283B38346C0809156068730A0
:1014B00009F441C080915A06882361F5D5016D91E8
:1014C0007D918D919C91F601208D318D428D538DB2
:1014D0000E948933D8012D913D914D915C910E94DC
:1014E0008933F8016083718382839383F2E0EF167E
:1014F00011F52091520630915306409154065091B7
:1015000055060E948933D8016D937D938D939C93EA
:10151000139711C0F8016081718182819381D60196
:101520002D913D914D915C910E948933F80160832A
:101530007183828393830894E11CF11C84E090E022
:10154000C80ED91E0C5F1F4FA80EB91E93E0E916F6
:10155000F10409F096CF80915606853031F087303E
:1015600069F0833089F486E001C087E0BE016E5ED9
:101570007F4F0E946F27882339F435C48091570626
:10158000823010F08EE134C410915706153049F4C2
:10159000772009F46BC2ABA1A13009F467C28FE1D7
:1015A00027C4BBA1B23009F061C21123E9F06091F8
:1015B000610670916206809163069091640620E056
:1015C00030E040E050E00E946D34882309F405C407
:1015D000143030F4123060F4113009F047C204C006
:1015E000143009F043C219C2772009F43EC23EC24A
:1015F000772009F4FAC3FAA1EF2FF0E0FFA3EEA3DE
:1016000099A1892F90E09DA38CA381E090E08C01AB
:101610000CA002C0000F111F0A94E2F70EA002C036
:10162000880F991F0A94E2F7082B192B872D90E059
:1016300080239123892B11F480E2DAC3AEA1BFA1EC
:10164000AA0FBB1FAA0FBB1FAE57B94FEEA1FFA138
:10165000EE0FFF1FEE0FFF1FE55EF94F6D917D91BD
:101660008D919C9123893489458956890E948833BC
:101670005B016C01ACA1BDA1AA0FBB1FAA0FBB1FD0
:10168000AE57B94FECA1FDA1EE0FFF1FEE0FFF1FEC
:10169000E55EF94F6D917D918D919C9123893489FF
:1016A000458956890E9488331B012C01AE8DA7FF06
:1016B00002C10EE216E072E8E72E76E0F72EF8019E
:1016C0006081718182819381D7012D913D914D91EE
:1016D0005C910E946D34882359F40C5F1F4FE4E045
:1016E000F0E0EE0EFF1EF6E00A331F0741F77FC35E
:1016F000809159068130B1F460917A0670917B0631
:1017000080917C0690917D0623E333E34BEC51E41A
:101710000E94C13660937A0670937B0680937C06A4
:1017200090937D06E0907A06F0907B0600917C060F
:1017300010917D06C801B70120E030E040E850E498
:101740000E94C136A80197010E94C1367B018C011D
:10175000C601B501A60195010E94C1369B01AC01ED
:10176000C801B7010E9488337B018C01C201B1011D
:10177000A20191010E94C1369B01AC01C801B701D1
:101780000E9488337B018C0120E030E040E050E093
:101790000E946D34882314F482E22AC3C801B70181
:1017A0000E9456377B018C01C601B501A20191014F
:1017B0000E944F179B01AC0117FB109517F910956C
:1017C000C801B7010E9474347B018C0180915706D7
:1017D000833021F417FB109517F9109560907A0665
:1017E00070907B0680907C0690907D06C401B301CA
:1017F00020E030E040E050E00E946D3488237CF42B
:1018000017FB109517F91095D401C301B0588093B8
:101810007A0690937B06A0937C06B0937D068E8D0E
:101820009F8D8F779F8F8E8FAEA1BFA1AA0FBB1FF9
:10183000AA0FBB1FA65AB94FBFA3AEA3C201B101E5
:10184000A80197010E94C1369B01AC01C601B501F8
:101850000E94883320E030E040E05FE30E94C13620
:10186000EEA1FFA163877487858796878CA19DA1D0
:10187000880F991F880F991F865A994F9DA38CA393
:10188000C601B501A80197010E94C1369B01AC01B8
:10189000C201B1010E94893320E030E040E05FE303
:1018A0000E94C136ACA1BDA11B966D937D938D9313
:1018B0009C931E97DBC0862C992408211921012BAB
:1018C00011F483E295C2EE8DFF8DE17FFF8FEE8FE5
:1018D00080915906813041F545E6E42E46E0F42E2C
:1018E00000E010E0C401002E02C0959587950A948F
:1018F000E2F780FF10C0D7016D917D918D919C9191
:1019000023E333E34BEC51E40E94C136F7016083DB
:101910007183828393830F5F1F4F84E090E0E80E12
:10192000F91E03301105F1F6EEA0FFA0EE0CFF1C2E
:10193000EE0CFF1CAAE5B6E0EA0EFB1EC601B501DF
:10194000F70123853485458556850E9488335B01E0
:101950006C010CA11DA1000F111F000F111F065AD1
:10196000194FC201B101D8011B962D913D914D91A6
:101970005C911E970E9488339B01AC01C601B501A2
:101980000E944F175B016C01F701638574858585A3
:101990009685D8011B962D913D914D915C911E9796
:1019A0000E944F173B014C0160937A0670937B06AF
:1019B00080937C0690937D06C601B501A401930136
:1019C0000E9488337B018C01E89417F9C801B701A4
:1019D0002AE037ED43EA5BE30E94843618160CF0E8
:1019E00045C0C801B70120E030E040E05FE30E945D
:1019F000843618160CF4FBC1C401B3012FE632E1A2
:101A000043E85AE30E94C1369B01AC01C801B7010B
:101A10000E948436181654F5EAC1772009F4E5C10E
:101A20000EE216E092E8E92E96E0F92EF8016081C8
:101A3000718182819381D7012D913D914D915C916E
:101A40000E946D34882359F40C5F1F4FE4E0F0E0EE
:101A5000EE0EFF1EF6E00A331F0741F7C8C10E94D1
:101A6000A31D882319F084E2C3C11BA28E8D9F8D14
:101A70008E7D9C7F2BA1222321F08E8D9F8D8E7DCC
:101A8000907E892B11F085E2B3C180915806809336
:101A90001C068091610690916206A0916306B09148
:101AA00064068093290690932A06A0932B06B09390
:101AB0002C06E0907E06F0907F0600918006109143
:101AC00081066091250670912606809127069091E7
:101AD0002806A80197010E946D34882381F0E092C6
:101AE0002506F0922606009327061093280680917B
:101AF0002406882321F0B801A7010E943028909184
:101B0000600680912406891769F09093240640911D
:101B10002506509126066091270670912806892F88
:101B20000E94302890915F0680912306891729F042
:101B300090932306892F0E9481048091560681305C
:101B400051F46091760670917706809178069091B5
:101B500079060E94631280915B0680931F06809134
:101B6000590680931D068BA18330D9F480915C06C1
:101B700080932006813049F480918A0690918B06EB
:101B8000A0918C06B0918D0604C080E090E0A0E0AA
:101B9000B0E08093520690935306A0935406B093FE
:101BA000550690915D0680912106891759F0909312
:101BB0002106AAE3B6E0FE0136968CE001900D9274
:101BC0008150E1F780915A0680931E068091560657
:101BD000853009F43FC0863048F48330D9F1843031
:101BE00008F058C0823009F06EC00AC0883009F48D
:101BF00059C0893009F460C0863009F064C04CC017
:101C000060917606709177068091780690917906BA
:101C10000E949B370E94E234662319F0162F115060
:101C200002C01091210682E1E82EF12CEC0EFD1E7F
:101C3000812FB7010E94642780912106811709F046
:101C400042C0AAE3B6E0F7018CE001900D9281500A
:101C5000E1F739C09BA1992349F082E896E040E082
:101C600050E060E87FEB20E00E94BE128E010E5E25
:101C70001F4FC80140E050E060E87FEB20E00E9489
:101C8000BE12AEE2B6E0F8018CE001900D928150F8
:101C9000E1F719C086E001C087E06EE276E00E94BD
:101CA000642711C0A6E4B6E0E2E8F6E08CE001901B
:101CB0000D928150E1F707C08CE0E6E4F6E0DF0129
:101CC0001D928A95E9F78091570680931B0685300F
:101CD00009F466C0BBA1B23009F062C0843040F4A0
:101CE000823008F5882341F0813009F050C00CC0E3
:101CF000843009F04CC03DC082E896E040E050E0FE
:101D000060E87FEB20E00CC04091290650912A0644
:101D100060912B0670912C0682E896E020911C06BB
:101D20000E94BE1234C00F920F9200917A06109159
:101D30007B0620917C0630917D06C0902906D090CC
:101D40002A06E0902B06F0902C0689A1EDB7FEB78D
:101D5000818398A192838EE296E062E876E045E680
:101D600056E0A0901C068AA00E9496130F900F9038
:101D70000EC04091290650912A0660912B06709161
:101D80002C0682E896E020911C060E94F612AEE234
:101D9000B6E0E2E8F6E08CE001900D928150E1F7C8
:101DA00080915E0680932206882311F10E946B1EAB
:101DB00010929E0680912206823019F40E942A1207
:101DC00002C01092220680E013C088E111C084E1B5
:101DD0000FC087E10DC085E10BC086E109C08CE131
:101DE00007C08DE105C087E003C08AE101C081E240
:101DF000A7960FB6F894DEBF0FBECDBFCF91DF918F
:101E00001F910F91FF90EF90DF90CF90BF90AF9018
:101E10009F908F907F906F905F904F903F902F900A
:101E20000895EBE1F6E08BE3DF011D928A95E9F777
:101E300080912106BF01615E7F4F0E946F2788233A
:101E400019F487E00E946A20089584B18F7884B9DC
:101E50008091A807982F86FF03C085B18F7802C0B4
:101E600085B1806785B993FF09C080916B00806759
:101E700080936B0080916800816008C080916B0046
:101E80008F7880936B00809168008E7F80936800CC
:101E90000895EBE6F0E080818F788083E8E6F0E05B
:101EA00080818E7F80830895CF92DF92EF92FF92A0
:101EB0000F931F93CF93DF936C01C0E0D0E0F60146
:101EC000EC0FFD1FE080F18002811381C801B70192
:101ED00020E030E040E050E00E94843618166CF0BC
:101EE000FE01E459F84FC801B70124A135A146A16C
:101EF00057A10E946D34882304F580918F068031AC
:101F000079F49FB7F894809190068860809390064A
:101F10009FBF0E94D11D80918E068823D1F312C0ED
:101F20000E942A129FB7F894809190068066809351
:101F300090069FBF0E94D11D05C02496CC30D105CC
:101F400009F0BDCFDF91CF911F910F91FF90EF90DE
:101F5000DF90CF9008951F920F920FB60F920BB69D
:101F60000F9211242F933F934F935F936F937F931F
:101F70008F939F93AF93BF93EF93FF9380918F06BF
:101F8000813071F08091900685FD0AC00E942A126E
:101F90009FB7F894809190068066809390069FBFCB
:101FA000FF91EF91BF91AF919F918F917F916F9131
:101FB0005F914F913F912F910F900BBE0F900FBEED
:101FC0000F901F9018952F923F924F925F926F92B1
:101FD0007F928F929F92AF92BF92CF92DF92EF92B9
:101FE000FF920F931F93DF93CF93CDB7DEB7689720
:101FF0000FB6F894DEBF0FBECDBF982E80918E062F
:10200000882309F0CEC18091AE079091AF07A091CF
:10201000B007B091B1078F87988BA98BBA8BE090EE
:102020009007F09091070091920710919307D0903C
:102030009407C0909507B0909607A0909707C801A5
:10204000B7012D2D3C2D4B2D5A2D0E94843618168C
:1020500034F48D2D9C2DAB2DBA2D7C018D01D090AB
:102060009807C0909907B0909A07A0909B07C80165
:10207000B7012D2D3C2D4B2D5A2D0E94843618165C
:1020800034F48D2D9C2DAB2DBA2D7C018D01C80112
:10209000B70120E030E040EC5FEB0E94C1366B01FD
:1020A0007C010E94281C01E095E09D871E01089498
:1020B000211C311C492C552446015701B7FAB09414
:1020C000B7F8B094D201A170B070BC8BAB8BF201A9
:1020D000E270F070FE8BED8BC20184709070988F6F
:1020E0008F8B8091A80786FD02C00E8703C091E008
:1020F00090279E873101F10160E020E030E0C201CD
:10210000022E02C0959587950A94E2F780FF0DC0D4
:102110006F5F002329F480829182A282B3820DC076
:10212000C082D182E282F38208C080E090E0A0E029
:10213000B0E080839183A283B3832F5F3F4F3496B7
:1021400023303105E1F63091A907232F35FF09C06F
:1021500089819A81AB81BC81B05889839A83AB8392
:10216000BC8326FF09C08D819E81AF81B885B058A0
:102170008D839E83AF83B88737FF09C089859A8591
:10218000AB85BC85B05889879A87AB87BC87AB89FC
:10219000BC89AB2B11F410E001C014E0ED89FE897D
:1021A000EF2B09F018608F89988D892B09F0106149
:1021B0001093910670E080E090E00E940E350E943E
:1021C00056379B01AC016F85788989899A890E946D
:1021D000C136AB01BC01C10120E00E9422190E945E
:1021E000D2280E944C2883B19E85992311F0A0E744
:1021F0008A2712FF02C084FD1B7F13FF02C085FDEA
:10220000177F14FF02C086FD1F7E109391060E9467
:10221000D2288091900684FF03C00E94D11DC1C0C6
:10222000812F8C7101F70E94502F0E94281C8091F1
:10223000B2079091B3070E9436178091AA07909138
:10224000AB07A091AC07B091AD078F87988BA98B96
:10225000BA8B9D85992329F0A1E00A2791509D878B
:1022600040CF92E9C92E96E0D92E8CE6882E87E0E1
:10227000982EAA24BB24C2010A2C02C095958795EA
:102280000A94E2F780FF49C01091A9078A2D0E94A5
:102290004017182369F1F401E4A0F5A006A117A1E5
:1022A0006091B4077091B5078091B6079091B70718
:1022B000A80197010E948933D3016D937D938D937B
:1022C0009C931397C801B701F401208131814281A9
:1022D00053810E94C1360E949136D6016C931196AB
:1022E0007C93119712968C93129713969C9328C007
:1022F0008091B4079091B507A091B607B091B70748
:10230000B058F30180839183A283B383D6011D92D9
:102310001D921D921C92139713C0F601608171816A
:10232000828193810E941035D4012D913D914D9170
:102330005C910E947434F301608371838283938380
:102340000894A11CB11C84E090E0680E791EC80EB0
:10235000D91E880E991E93E0A916B10409F08BCFFF
:102360000E94A7174091AE075091AF076091B00748
:102370007091B107CE01019620E00E94221988E0F9
:1023800080938F069FB7F894809190068260809327
:1023900090069FBF0E94D11D0E946B1E84E0809317
:1023A0008F0668960FB6F894DEBF0FBECDBFCF91F3
:1023B000DF911F910F91FF90EF90DF90CF90BF9032
:1023C000AF909F908F907F906F905F904F903F90D5
:1023D0002F9008951F930E94EE230E949A270E9437
:1023E00082280E94A8318EE1EEE8F6E0DF011D921E
:1023F0008A95E9F781E080938E0678948091A8070A
:1024000084FF03C081E080938F0611E00E94652461
:102410000E94110F0E941E280E9470040E94250F26
:102420000E94981D0E94281C0E94502F0E94A717EE
:102430000E94430510928E06109290068091A80784
:1024400081FF03C010939E0602C010929E060E9458
:10245000821EDCCF8091900684FD1AC08FB7F8945D
:10246000909190069061909390068FBF0E942A28C9
:102470000E947B0480918F06847351F09FB7F8947B
:10248000809190068062809390069FBF0E94242FC7
:10249000089584E080938F060E94490F84E00E9493
:1024A000E30F83E00E94E30F0E94D11D80918E060E
:1024B000882341F40E94430510928F060E94242F26
:1024C0000E94250F0895EF92FF920F931F93CF93D1
:1024D000DF937B018C0180918F06823009F447C025
:1024E000C801B70120E030E040EA51E40E94C13663
:1024F0000E944B350E94E234EB010E946B1EC80122
:10250000B70120E030E04AE754E40E94C1367B0185
:102510008C0182E390E0C89FB001C99F700DD89FE5
:10252000700D112480E090E00E940E359B01AC01FB
:10253000C801B7010E9488330E944B350E94E234E3
:10254000DC01CB010E94361700E911E00EC00E94A9
:10255000D11D80918E06882351F484EF91E0F8011B
:102560003197F1F70197D9F72197209781F7DF91FC
:10257000CF911F910F91FF90EF900895DF92EF920E
:10258000FF920F931F93CF93DF93EC017A018B019E
:10259000D22E8091A80785FF03C0CE010E94540F60
:1025A00080918F068230D1F00E94D11D80918E06DD
:1025B0008823A1F40E949D17882319F00E94C41D4E
:1025C000F3CFCE01B801A7012D2D0E9422198091D1
:1025D0008F06882319F488E080938F06DF91CF91CE
:1025E0001F910F91FF90EF90DF9008957F928F924F
:1025F0009F92AF92BF92CF92DF92EF92FF920F9392
:102600001F93CF93DF936C014A015B01722E80917F
:102610008F06803111F00E94C41D0E946B1E8091B4
:102620008E06882309F074C0C601B501A401272DC8
:102630000E94BE1281E080939F069FB7F89480911C
:1026400090068260809390069FBF0E94D11D80916A
:102650008E06882309F05CC080918F06882311F0D4
:10266000883099F780919F06813041F49FB7F894A4
:10267000809190068064809390069FBF0E94D11D38
:1026800080918E06882309F043C080EAE82E86E018
:10269000F82EC0E0D0E086010C0F1D1FF7016191FC
:1026A0007191819191917F010E941035FE01E45951
:1026B000F84F20813181428153810E947434F801A6
:1026C00060837183828393832496CC30D10519F77C
:1026D0000E94D11D0E94502F0E94281C0E94A71703
:1026E000C601B501A401272D0E94BE128FB7F89430
:1026F000909190069260909390068FBF0E946B1EFF
:1027000080918E06882321F40E9443050E940920AF
:10271000DF91CF911F910F91FF90EF90DF90CF90BD
:10272000BF90AF909F908F907F9008952F923F928F
:102730004F925F926F927F928F929F92AF92BF92D1
:10274000CF92DF92EF92FF920F931F93DF93CF937D
:10275000CDB7DEB7EF970FB6F894DEBF0FBECDBF93
:102760009CAB8BAB7EAB6DAB3A010FAB18AF29AF17
:102770003AAFCBAEDCAEEDAEFEAEAFAE9924880C78
:10278000991C880C991C880D991D9AAB89AB9A01EC
:10279000280D391D38AB2FA7D901AD90BD90CD9034
:1027A000DC90C601B501E9A9FAA9208131814281F5
:1027B00053810E9489336DA37EA38FA398A7669649
:1027C0006FAD6697462E5524440C551C440C551C81
:1027D0002BA93CA9240D351D3EA72DA7C301840DAF
:1027E000951D9CA78BA7DC01ED90FD900D911C9190
:1027F000C801B701F90120813181428153810E94D2
:10280000893369A37AA38BA39CA3D601C501B058D1
:102810008D8F9E8FAF8FB8A3D801C701B058898F15
:102820009A8FAB8FBC8FADA9BEA98A0E9B1EF401F7
:1028300060817181828193812DA13EA14FA158A514
:102840000E9488333B014C012DA93EA9420E531E24
:10285000D2016D917D918D919C9129A13AA14BA1BD
:102860005CA10E9488335B016C016D8D7E8D8F8D24
:1028700098A1A60195010E94C1367B018C01698D4A
:102880007A8D8B8D9C8DA40193010E94C1369B0192
:10289000AC01C801B7010E9488331B012C016D8D6A
:1028A0007E8D8F8D98A1A40193010E94C1367B017A
:1028B0008C01698D7A8D8B8D9C8DA60195010E946E
:1028C000C1369B01AC01C801B7010E9489339B014D
:1028D000AC01C201B1010E9401345B016C01809125
:1028E0001B06823099F4C601B50120E030E040E0DB
:1028F00050E00E9484368823ECF0C601B5012BED30
:102900003FE049EC50E40E94883312C0C601B50193
:1029100020E030E040E050E00E946D34181654F0A2
:10292000C601B5012BED3FE049EC50E40E9489332C
:102930005B016C01E090A407F090A5070091A60749
:102940001091A7076FA978AD89AD9AAD9B01AC0135
:102950000E948933A80197010E9488339B01AC0132
:10296000C801B7010E94C1360E9456377B018C0115
:10297000C601B50120E030E040E05FE30E94C136CF
:102980002FA938AD49AD5AAD0E94C1369F77A80135
:1029900097010E9474340E944B350E94E234788F74
:1029A0006F8B6115710509F487C1BFADBB2381F041
:1029B00080E090E00E940E359B01AC016BAD7CADD8
:1029C0008DAD9EAD0E94C1366BAF7CAF8DAF9EAF1B
:1029D0002F89388DB90180E090E00E940E357B018F
:1029E0008C01C601B501A80197010E9474346B8B5C
:1029F0007C8B8D8B9E8B6796EFAD6797F0E0EE0F2B
:102A0000FF1FEE0FFF1F8BA99CA98E0F9F1F9AA778
:102A100089A7ADA9BEA9EA0FFB1F608171818281E0
:102A20009381E9A5FAA520813181428153810E94D9
:102A30008833A80197010E9474346F87788B898B43
:102A40009A8B6B897C898D899E899B01AC010E9440
:102A5000C1369B01AC0160E070E080E090E40E9430
:102A600088335B016C016B897C898D899E892BEA97
:102A70003AEA4AE25EE30E94C1367B018C01C6015C
:102A8000B50120E030E040E850E40E9489339B012A
:102A9000AC01C801B7010E94C1366B877C878D8766
:102AA0009E87C601B50120E030E040E05FE30E9470
:102AB000C13669837A838B839C8321E030E03E8337
:102AC0002D839924F1C033E1391508F446C06D8D8A
:102AD0007E8D8F8D98A12B853C854D855E850E94CE
:102AE000C1367B018C01698D7A8D8B8D9C8D2981FE
:102AF0003A814B815C810E94C1369B01AC01C801C7
:102B0000B7010E9489337B018C016D8D7E8D8F8D85
:102B100098A129813A814B815C810E94C1365B0179
:102B20006C01698D7A8D8B8D9C8D2B853C854D85B7
:102B30005E850E94C1369B01AC01C601B5010E94B1
:102B400088336D8F7E8F8F8F98A39394C701D801A0
:102B5000898F9A8FAB8FBC8F61C0AD81BE81BD0163
:102B600080E090E00E940E352B893C894D895E897A
:102B70000E94C1367B018C01C8010E9471346F83B1
:102B8000788789879A87B701C8010E944C373B0133
:102B90004C01EFA5F8A9E080F1800281138117FBB9
:102BA000109517F91095ABA5BCA52D903D904D90B3
:102BB0005C90C801B7012F81388549855A850E94EC
:102BC000C1365B016C01C201B101A40193010E94F5
:102BD000C1369B01AC01C601B5010E9489336D8FDE
:102BE0007E8F8F8F98A3C801B701A40193010E9423
:102BF000C1367B018C01C201B1012F813885498525
:102C00005A850E94C1369B01AC01C801B7010E94E0
:102C10008833698F7A8F8B8F9C8F99246DA17EA1C9
:102C20008FA198A52D8D3E8D4F8D58A10E9489337F
:102C3000E9A9FAA9608371838283938369A17AA148
:102C40008BA19CA1298D3A8D4B8D5C8D0E9489337F
:102C5000ADA5BEA56D937D938D939C931397E9A528
:102C6000FAA560817181828193812F853889498994
:102C70005A890E948933A9A5BAA56D937D938D9336
:102C80009C9313978BA99CA94BAD5CAD6DAD7EADAC
:102C90002FAD0E94BE1280918E068823B1F4ED8183
:102CA000FE813196FE83ED832D813E818F89988D43
:102CB0002817390708F407CF8DA99EA94BAD5CAD45
:102CC0006DAD7EAD2FAD0E94BE12EF960FB6F8949B
:102CD000DEBF0FBECDBFCF91DF911F910F91FF904F
:102CE000EF90DF90CF90BF90AF909F908F907F90AC
:102CF0006F905F904F903F902F9008956F927F92CA
:102D00008F929F92AF92BF92CF92DF92EF92FF92FB
:102D10000F931F93CF93DF934C013B015A01FB01AB
:102D20008081F401E80FF11DEF0189918D3229F4C2
:102D300081812196CC24C39405C08B3211F481810A
:102D40002196CC2420E030E040E050E0DD24E0E0BB
:102D500070E0682F60536A30F8F4EF5FE930C0F438
:102D60007111DA94DA01C901F2E0880F991FAA1FE4
:102D7000BB1FFA95D1F7280F391F4A1F5B1F220F7F
:102D8000331F441F551F260F311D411D511D09C002
:102D9000772339F4D39405C06E3F29F4772319F4CF
:102DA00071E08991D6CFEE2311F480E050C0CA01C2
:102DB000B9010E940E357B018C0120E030E040E03B
:102DC00050E00E946D34882369F42BC0C801B7011C
:102DD0002AE037ED43E25CE30E94C1367B018C01BF
:102DE000F2E0DF0E8FEFD8168CF3D81659F4C80135
:102DF000B7012DEC3CEC4CEC5DE30E94C1367B014D
:102E00008C010FC0DD2069F0C801B70120E030E07F
:102E100040E251E40E94C1367B018C01DA941D141A
:102E20009CF3CC2049F0D801C701B058F50180834C
:102E30009183A283B38305C0F501E082F18202830E
:102E40001383882D80958C0FF301808381E0DF91BF
:102E5000CF911F910F91FF90EF90DF90CF90BF9097
:102E6000AF909F908F907F906F90089520EA3FE001
:102E700004C0F9013197F1F701970097D1F7089550
:102E8000813049F0813018F0823019F406C080E2B8
:102E9000089580E0089580E4089580E80895AF9251
:102EA000BF92CF92DF92EF92FF920F931F937B011D
:102EB0008C0159016A01A80197010E94C1367B016A
:102EC0008C01C601B501A60195010E94C1369B0186
:102ED000AC01C801B7010E9489330E9456371F9187
:102EE0000F91FF90EF90DF90CF90BF90AF9008953B
:102EF0002091E2048091E304821769F0922F9F5F92
:102F0000923109F490E08091E504281711F4909330
:102F1000E5049093E20408959091E2048091E30423
:102F2000891719F420E030E006C089E2989F9001EB
:102F3000112420503E4FC901089520E09091E204F1
:102F40008091E404981709F421E0822F089580917C
:102F5000920690919306A0919406B0919506809365
:102F6000E6049093E704A093E804B093E904809109
:102F7000960690919706A0919806B0919906809335
:102F8000EA049093EB04A093EC04B093ED048091D9
:102F90009A0690919B06A0919C06B0919D06809305
:102FA000EE049093EF04A093F004B093F10408951D
:102FB0004F925F926F927F928F929F92AF92BF9249
:102FC000CF92DF92EF92FF920F931F93CF93DF93F5
:102FD0008091E304882309F482E1782E7A9460904A
:102FE000E504761409F4F2C089E2789E40011124C8
:102FF00080E092E0880E991EF401A588B688C78803
:10300000D08C21A132A143A154A1CA01B9010E94CF
:103010008933F40125A136A147A150A50E94C136EC
:103020007B018C01B501C601A80197010E946D3496
:1030300087FD04C0D801C70157016D01C501D60144
:10304000F401818B928BA38BB48B772011F432E146
:10305000732E7A94761409F04EC08091E2046816BB
:1030600009F050C00E94B0284DC0769CE0011124A8
:10307000C050DE4F772011F422E1722E7A948091B5
:10308000E204781611F40E94B028AD88BE88CF887B
:10309000D88C69897A898B899C89A60195010E94BF
:1030A0006D34882331F129A13AA14BA15CA1CA0159
:1030B000B9010E9489332DA13EA14FA158A50E94BC
:1030C000C136F40121893289438954890E948933A8
:1030D0007B018C01A60195010E946D3488232CF49C
:1030E000E98AFA8A0B8B1C8B04C0A98ABA8ACB8A1C
:1030F000DC8A4E0102C099E2692E8091E5047816BF
:1031000009F0B3CFA090E504BA2CB394F2E1BF1656
:1031100009F4BB2489E2A89E8001112400501E4FAF
:103120005090E30489E2482E4CC0B49CE001112485
:10313000C050DE4FF801C188D288E388F4886988DE
:103140007A888B889C88C701B601A40193010E94EC
:103150006D3488231CF5F80121A132A143A154A1AB
:10316000CA01B9010E948933F80125A136A147A1FE
:1031700050A50E94C1369B01AC01C701B6010E9457
:1031800089337B018C01A40193010E946D34882353
:103190002CF4E98AFA8A0B8B1C8BAB2C69897A890F
:1031A0008B899C892D893E894F89588D0E946D3469
:1031B000882309F4AB2CB394F2E1BF1609F4BB24C5
:1031C0008E01B51409F0B1CFA092E504DF91CF9143
:1031D0001F910F91FF90EF90DF90CF90BF90AF9035
:1031E0009F908F907F906F905F904F9008950E9476
:1031F000B0288091E2048093E5040E94D8170895D6
:103200002091E2042F5F223109F420E08091E30451
:10321000281729F460E070E080E090E012C030E010
:1032200089E290E0289FF001299FF00D389FF00D72
:103230001124E050FE4F61897289838994890E942C
:10324000563708952F923F924F925F926F927F92DE
:103250008F929F92AF92BF92CF92DF92EF92FF92A6
:103260000F931F93DF93CF93CDB7DEB7E6970FB6DB
:10327000F894DEBF0FBECDBF9DA78CA74EA75FA75A
:1032800068AB79AB2AAB9091E30489E2989F400147
:10329000112420E032E0820E931ED4011D961D926F
:1032A0001D921D921C92509780E090E0A0E0B0E04B
:1032B000F40185A396A3A7A3B0A7108289E996E796
:1032C000A6E9BEE781A392A3A3A3B4A32CE637E0AB
:1032D0003C8F2B8F1E010894211C311C46EE442E7E
:1032E00044E0542E9A8E898E1BA666247724ECA582
:1032F000FDA5E60DF71D6081718182819381AB8D03
:10330000BC8D2D913D914D915C910E94C1360E94E2
:1033100091369B01AC01F1012083318342835383B9
:10332000F20180819181A281B381281B390B4A0B64
:103330005B0B57FF07C050954095309521953F4F47
:103340004F4F5F4FA98DBA8D11962D933D934D939D
:103350005C931497F40185859685A785B089281715
:1033600039074A075B0710F49C01AD01D4011D9693
:103370002D933D934D935C935097F1016081718142
:1033800082819381D2012D913D914D915C91621B7F
:10339000730B840B950B0E941035EB8DFC8D2081F7
:1033A0003181428153810E9474345B016C01EDE0F4
:1033B000F0E0EC0FFD1FE60DF71D60837183828343
:1033C000938320E030E040E050E00E946D34882399
:1033D00044F4D4011C918BA50E944017182BF401D2
:1033E0001083D4019596ED90FD900D911C919897C6
:1033F000C601B501A60195010E94C1369B01AC0131
:10340000C801B7010E9489337B018C01CB01D8012F
:10341000F40185A396A3A7A3B0A7FBA5FF5FFBA715
:1034200024E030E0620E731E8B8D9C8D04969C8F81
:103430008B8F220E331E420E531EA98DBA8D149609
:10344000BA8FA98FF33009F052CFB701C8010E949B
:1034500056377B018C01F40165A376A387A390A75F
:1034600085859685A785B0890097A105B10509F4E2
:10347000D6C16EA57FA588A999A920E030E040E0DB
:1034800050E00E946D3488234CF489E996E7A6E960
:10349000BEE78EA79FA7A8ABB9AB0FC09AA9992387
:1034A00061F0C801B7012EA53FA548A959A90E94FE
:1034B00074346EA77FA788AB99AB60E070E080E8BA
:1034C0009FE3A80197010E9474346FA378A789A78E
:1034D0009AA7DE011D96BAA3A9A3E2EFF4E0F8A330
:1034E000EF8F28E737E03E8F2D8F80E090E0A0E05F
:1034F000B0E08BA39CA3ADA3BEA3DE015996BEABE7
:10350000ADABE9A1FAA1E080F18002811381C8018D
:10351000B70120E030E040E050E00E946D348823A5
:1035200009F47CC0C801B7012FA138A549A55AA547
:103530000E94C1362B013C01A9A1BAA16D937D93D4
:103540008D939C93139760E070E080E89FE3A30164
:1035500092010E9474345B016C01E894D7F8C601B3
:10356000B501ED8DFE8D20813181428153810E9414
:10357000C1367B018C016EA57FA588A999A9A801F8
:1035800097010E946D3487FD04C0EEA6FFA608AB2C
:1035900019ABD4019196BC91BBABF401F2A1FCAB89
:1035A000D40193962C90939794963C90C601B501C4
:1035B000ED8DFE8D24853585468557850E94C13663
:1035C0007B018C016BA97CA9C101A80197010E9414
:1035D0006D3487FD05C0D801C701EBAA9CAB1D0166
:1035E0008BA99CA9D101F40181A392A3A3A3B4A3A5
:1035F000C301B201AF8DB8A12D913D914D915C9168
:103600000E94C1369B01AC016BA17CA18DA19EA142
:103610000E9488336BA37CA38DA39EA3E9A1FAA18A
:103620003496FAA3E9A32F8D38A12C5F3F4F38A31E
:103630002F8F8D8D9E8D04969E8F8D8FADA9BEA9E7
:10364000EA17FB0709F05DCF9091E3048091E20453
:10365000981771F480E090E0A0E0B0E0F401818B75
:10366000928BA38BB48B818F928FA38FB48F52C018
:1036700060E070E080E89FE32BA13CA14DA15EA13A
:103680000E94883320E030E040E05FE30E94C136D2
:103690000E9456375B016C01D40191966D917D912A
:1036A0008D919C9194972091A0073091A107409112
:1036B000A2075091A3070E94C136A60195010E945E
:1036C000C1367B018C0160E070E080E89FE3A601D9
:1036D00095010E9488339B01AC01C801B7010E948B
:1036E00074347B018C0120E030E040E050E00E9427
:1036F0006D34882354F40F2EF0E0EF2EF0E0FF2E0F
:10370000F0E00F2FF0E01F2FF02DF401E18EF28E8C
:10371000038F148F6EA57FA588A999A99B01AC0181
:103720000E94C1367B018C01D4015D966D937D931F
:103730008D939C93909759965C9059975A964C907C
:103740005A975B963C905B975C962C90D090FE04C9
:10375000C090FF04B0900005A09001052D2D3C2DD8
:103760004B2D5A2D0E946D3487FD04C06D2C7C2C8E
:10377000F50105C0D801C7013701FA2FEB2F652DE0
:10378000742D832D922D93014F2F5E2F0E946D3447
:1037900088232CF4852D942DA32DB22D0EC0C801A5
:1037A000B7012D2D3C2D4B2D5A2D0E946D3487FDD8
:1037B00006C08D2D9C2DAB2DBA2D7C018D01F40101
:1037C000E58AF68A078B108FA2EFB4E0FE013D96E2
:1037D0008CE001900D928150E1F7F401858D968D7A
:1037E000A78DB0A18093FE049093FF04A0930005E1
:1037F000B0930105A6EEB4E0FE0131968CE0019095
:103800000D928150E1F78091E4048093E3048F5F8F
:10381000823109F480E08093E4040E94D817E69690
:103820000FB6F894DEBF0FBECDBFCF91DF911F91D1
:103830000F91FF90EF90DF90CF90BF90AF909F904F
:103840008F907F906F905F904F903F902F90089552
:103850008CE1E6EEF4E0DF011D928A95E9F7109223
:10386000E2041092E30481E08093E4041092E50402
:1038700008958F929F92AF92BF92CF92DF92EF9274
:10388000FF920F931F93DF93CF93CDB7DEB72A97A5
:103890000FB6F894DEBF0FBECDBF7B018C01A42E06
:1038A00020E030E040E050E00E946D3488233CF49A
:1038B0008DE20E94042417FB109517F91095DA2C5D
:1038C0000CC0C801B70120E030E048EC52E40E948F
:1038D000C1367B018C018EEFD80EE1E0ED1588F347
:1038E000A0FE0AC0C801B70120E030E040E251E488
:1038F0000E94C1367B018C01C801B70120E030E095
:1039000040E05FE30E9489330E94DD346B017C015B
:103910009E012F5F3F4FF901EA0DF11D8EE280837A
:10392000BB2449011EC0BA1409F4B39484010B0DE1
:10393000111DC701B6012AE030E040E050E00E94CE
:10394000C837605DF8016083B394C701B6012AE00F
:1039500030E040E050E00E94C837C901DA016C0154
:103960007D01C114D104E104F104E9F606C0FC01B3
:10397000EB0DF11D2083B39403C0CE01019620E32B
:10398000BA14A8F3BA1489F48B2D8F5FFE01E80FE7
:10399000F11D90E39183B82EB39407C0FE01EB0DA7
:1039A000F11D80810E940424BA94BB20B9F72A96A5
:1039B0000FB6F894DEBF0FBECDBFCF91DF911F9140
:1039C0000F91FF90EF90DF90CF90BF90AF909F90BE
:1039D0008F90089543E00E94391C08959B01AC012B
:1039E0008091A80780FF0AC0CA01B9012BE832E420
:1039F00041E25DE30E94C13641E003C0CA01B90162
:103A000040E00E94391C08959B01AC018091A807F9
:103A100080FF0AC0CA01B9012BE832E441E25DE34C
:103A20000E94C13644E003C0CA01B90143E00E94CC
:103A3000391C08951F93DF93CF9300D0CDB7DEB725
:103A4000282F882321F480E30E9404241EC010E064
:103A5000AE014F5F5F4FFA01E10FF11D822F6AE067
:103A60000E94BC37905D90831F5F822F0E94BC37FD
:103A7000282F882381F707C0FE01E10FF11D808107
:103A80000E94042411501123B9F70F900F900F904A
:103A9000CF91DF911F9108950F931F93DF93CF93E1
:103AA000CDB7DEB728970FB6F894DEBF0FBECDBFF7
:103AB000982FFE0131969E01275F3F4F892F81701D
:103AC00081939695E217F307C9F78E01085F1F4FA0
:103AD000F8018081805D0E940424015010400C1781
:103AE0001D07B1F728960FB6F894DEBF0FBECDBF05
:103AF000CF91DF911F910F910895CF93DF93EC0148
:103B000002C00E940424FE01219684918823C9F7F3
:103B1000DF91CF910895CF93DF93EC0103C02196FD
:103B20000E94042488818823D1F7DF91CF910895E2
:103B3000E7E0F1E08081877F8083E8E0F1E0808149
:103B40008860808308958091060186958695869584
:103B500080958170089580919F068130A1F48091B5
:103B6000060183FD10C010929F06E0EAF6E0DF0137
:103B70001E978CE00D9001928150E1F780919006A4
:103B8000886080939006089580919E06882341F076
:103B90009FB7F894809190068260809390069FBFB3
:103BA0000895CF93DF9380919006882309F48AC00B
:103BB000C82FD0E0CE0180769070892B39F181E05A
:103BC00080938F06C6FF17C0C5FF02C08FEF01C0EC
:103BD0008DEF0E94CD2381E00E94FE1E9FB7F894D6
:103BE000809190068F7E809390069FBF8091900673
:103BF00084FFFCCF03C08EEF0E94CD239FB7F894C3
:103C0000809190068F79809390069FBFC4FF04C077
:103C100081E080938E065CC0C0FF0AC00E94281F0E
:103C20009FB7F894809190068E7F809390069FBFF7
:103C3000C3FF15C080918F06803149F480E28093E4
:103C40008F060E94B0280E94D22810929E069FB72D
:103C5000F89480919006877F809390069FBFC1FF64
:103C60001DC080918F06883089F480E180938F0693
:103C70000E94D2280E944C288091A80781FF04C08E
:103C800081E080939E0602C010929E069FB7F89432
:103C9000809190068D7F809390069FBFC2FF12C0D7
:103CA0000E948C17892B21F088E080938F0602C038
:103CB00010928F069FB7F894809190068B7F809327
:103CC00090069FBF80918F06847311F00E94D228C6
:103CD000DF91CF91089580918F06803151F481E07A
:103CE00080939E0606C00E94D11D80918E06882377
:103CF00041F40E948C17892BB1F780918F06803197
:103D000091F308950F931F930E94F91E80918F06DF
:103D1000813021F482E00E94FE1E1CC010928F06AA
:103D200082E095E00E94043215C09A3011F09D3077
:103D300029F5E12FF0E0EE5FFA4F10820E94D11DCD
:103D400080918E06882331F480910205882321F426
:103D50000E946A2000E025C0843229F482E095E0C8
:103D60000E943032F5CF80918F06813011F489E0C6
:103D7000EFCF82E095E00E949805EACF002321F082
:103D8000993209F500E01FC09132E8F09F32D9F076
:103D9000983211F401E017C0153428F08BE00E942E
:103DA0006A2010E010C0892F8156A12FB0E0E12FCA
:103DB000EF5F8A3120F4AE5FBA4F905202C0AE5F1F
:103DC000BA4F9C931E2F0E945024982F8F3F09F0CA
:103DD000ACCF0E94C41D0E94D11D80918E06882305
:103DE00091F31F910F9108958BEA95E00E947D1D3C
:103DF000089589ED96E00E947D1D08951F93182F68
:103E000083E497E00E947D1D133091F0143028F474
:103E1000113041F01230B1F408C0143061F01530A7
:103E200089F40CC081E397E00BC08DE197E008C0F6
:103E30008BE097E005C083E097E002C08AEF96E050
:103E40000E947D1D86EF96E00E947D1D1F910895C2
:103E5000AF92BF92CF92DF92EF92FF920F931F9398
:103E6000DF93CF93CDB7DEB768970FB6F894DEBF78
:103E70000FBECDBFDE011196E2E9F6E08CE00190C5
:103E80000D928150E1F780918F068430E1F085300A
:103E900038F48130D9F0813050F08230F1F419C01B
:103EA000803159F0803261F08830B9F403C088EA7B
:103EB00091E011C081EA91E00EC08CE991E00BC065
:103EC00086E991E008C080E991E005C089E891E0C9
:103ED00002C082E891E00E947D1D8BE791E00E9484
:103EE0007D1DEE24FF245E010894A11CB11C9DE001
:103EF000C92ED12CCC0EDD1EF501EE0DFF1D60810B
:103F00007181828193810E941035F701E459F84F45
:103F100020813181428153810E94743486010E0DCB
:103F20001F1D9B01AC01F801208331834283538321
:103F30000E94041D89E791E00E947D1D84E090E0CD
:103F4000E80EF91E9CE0E916F104B1F683E791E072
:103F50000E947D1D86018AE3E82E86E0F82EDD248E
:103F6000F701608171818281938124853585468541
:103F700057850E9489339B01AC01F80160817181F2
:103F8000828193810E948833F801608371838283E8
:103F90009383F2E0DF1679F42091520630915306B4
:103FA00040915406509155060E948833F801608371
:103FB000718382839383F80160817181828193810F
:103FC0000E94041DF2E0DF1621F081E791E00E94DB
:103FD0007D1DD3940C5F1F4F84E090E0E80EF91E26
:103FE00093E0D91609F0BCCF8DE691E00E947D1DCB
:103FF00068960FB6F894DEBF0FBECDBFCF91DF91AC
:104000001F910F91FF90EF90DF90CF90BF90AF90F6
:104010000895FF920F931F93CF93DF9386E692E06C
:104020000E947D1D00EA16E0CCE6D7E0FF24F801EF
:1040300060817181828193810E941035288139814C
:104040004A815B810E9474340E94041DF2E0FF16D5
:1040500021F084E692E00E947D1DF3940C5F1F4FD7
:10406000249683E0F81619F780E692E00E947D1D01
:10407000DF91CF911F910F91FF9008950F931F93A0
:104080008C0182EB91E00E947D1DC8010E948B1D76
:104090008EEA91E00E947D1D1F910F910895FF927D
:1040A0000F931F93F82E8B0187EC91E00E947D1DEA
:1040B0008F2D0E941A1D85EC91E00E947D1DC80184
:1040C0000E948B1D82EC91E00E947D1D1F910F913B
:1040D000FF9008951F93182F882319F485E998E01D
:1040E0005CC08DE898E00E947D1D1730A9F1183062
:1040F00078F4133029F1143030F41130C9F0123053
:1041000009F042C018C0153009F1163010F51BC077
:104110001B3071F11C3028F4193021F11A3028F5C8
:104120001EC0153141F1163161F1143169F526C017
:1041300085E798E002C083E698E00E947D1D2BC0D1
:1041400081E598E0FACF87E498E0F7CF86E398E03E
:10415000F4CF87E298E0F1CF86E098E0EECF8DEFE4
:1041600097E0EBCF82EF97E0E8CF8FED97E0E5CFD8
:1041700081ED97E0E2CF8BEB97E0DFCF87EA97E026
:10418000DCCF83E997E0D9CF81E897E00E947D1DDD
:10419000812F0E941A1D8EE797E00E947D1D1F91BE
:1041A000089580911B06823091F0833028F4882393
:1041B00041F08130B1F408C0833061F0853089F47A
:1041C0000CC085E392E00BC081E392E008C08DE271
:1041D00092E005C089E292E002C084E292E00E948F
:1041E0007D1D81E292E00E947D1D809121068A5C06
:1041F0000E941A1D80911F06813041F0813018F015
:10420000823059F406C08CE192E005C087E192E06B
:1042100002C082E192E00E947D1D80911D068823EC
:1042200019F48DE092E002C088E092E00E947D1DCA
:1042300080911E06882319F483E092E002C08EEF7D
:1042400091E00E947D1D80911C06813019F489EF58
:1042500091E002C084EF91E00E947D1D80912206D2
:10426000813041F0813018F0823059F406C080EF7F
:1042700091E005C08CEE91E002C088EE91E00E94D2
:104280007D1D80912406813029F0813048F08230F4
:1042900059F403C084EE91E005C080EE91E002C0C5
:1042A0008CED91E00E947D1D80912306882319F0FA
:1042B000823041F403C088ED91E002C084ED91E0CA
:1042C0000E947D1D81ED91E00E947D1D80912D0653
:1042D0000E941A1D8EEC91E00E947D1D60912906BE
:1042E00070912A0680912B0690912C060E94EE1C5C
:1042F0008AEC91E00E947D1D0895CF92DF92EF92AB
:10430000FF920F931F93DF93CF93CDB7DEB72C9718
:104310000FB6F894DEBF0FBECDBFEE246E01089439
:10432000C11CD11C8E2DB6010E946F27882321F459
:1043300087E00E946A206BC08DE592E00E947D1D9F
:1043400086E0E81621F0E7E0EE1649F403C08AE5BE
:1043500092E002C087E592E00E947D1D04C08E2D90
:104360008A5C0E941A1D85E592E00E947D1D8601EF
:10437000FF24F80160817181828193810E94041D74
:10438000F2E0FF1619F083E592E002C08FE492E0BC
:104390000E947D1DF3940C5F1F4F83E0F81649F7D0
:1043A000E394E8E0EE1609F0BDCF89E492E00E94C4
:1043B0007D1D06E416E0FF24F80160817181828191
:1043C00093810E94041DF2E0FF1619F087E492E049
:1043D00002C083E492E00E947D1DF3940C5F1F4FA6
:1043E00083E0F81649F78DE392E00E947D1D60910D
:1043F00052067091530680915406909155060E9482
:10440000041D89E392E00E947D1D0E9409202C96E4
:104410000FB6F894DEBF0FBECDBFCF91DF911F91D5
:104420000F91FF90EF90DF90CF9008950F931F931F
:1044300087EA95E00E947D1D0CE617E060916C070D
:1044400070916D0780916E0790916F070E94EA1C32
:1044500084E995E00E947D1D60917007709171075D
:1044600080917207909173070E94EA1C81E895E0A1
:104470000E947D1D60917407709175078091760789
:10448000909177070E94EA1C8EE695E00E947D1DC0
:10449000609178077091790780917A0790917B07F6
:1044A0000E94EA1C83E595E00E947D1D60917C07D7
:1044B00070917D0780917E0790917F070E94EA1C92
:1044C00088E395E00E947D1D6091800770918107CF
:1044D00080918207909183070E94EA1C8DE195E00C
:1044E0000E947D1D609184077091850780918607E9
:1044F0009091870720E030E041E655E40E94743453
:104500000E94EA1C83E095E00E947D1D609188076F
:104510007091890780918A0790918B0720E030E0A5
:1045200041E655E40E9474340E94EA1C89EE94E04E
:104530000E947D1D60918C0770918D0780918E0780
:1045400090918F0720E030E041E655E40E947434FA
:104550000E94EA1C8FEC94E00E947D1D6091900700
:1045600070919107809192079091930790580E94C3
:10457000EA1C85EB94E00E947D1D60919407709188
:104580009507809196079091970790580E94EA1C92
:104590008BE994E00E947D1D6091980770919907C6
:1045A00080919A0790919B0790580E94EA1C81E89D
:1045B00094E00E947D1D80919C070E941A1D87E651
:1045C00094E00E947D1D80919D070E941A1D8EE43B
:1045D00094E00E947D1D80919D070E944C1D86E401
:1045E00094E00E947D1D80919E070E941A1D8EE21C
:1045F00094E00E947D1D80919E070E944C1D86E2E2
:1046000094E00E947D1D80919F070E941A1D87E003
:1046100094E00E947D1D6091A0077091A107809198
:10462000A2079091A3070E94EA1C87EE93E00E94E4
:104630007D1D6091A4077091A5078091A6079091B8
:10464000A7070E94EA1C8CEC93E00E947D1D8091DC
:10465000A80781700E941A1D8FEA93E00E947D1DB9
:104660008091A80790E09695879581700E941A1D09
:1046700085E993E00E947D1D8091A80790E09695C2
:1046800087959695879581700E941A1D83E793E020
:104690000E947D1D8091A80790E056E09695879531
:1046A0005A95E1F781700E941A1D82E593E00E94FD
:1046B0007D1D8091A80790E045E0969587954A95E5
:1046C000E1F781700E941A1D87E393E00E947D1D2F
:1046D0008091A80790E033E0969587953A95E1F7A9
:1046E00081700E941A1D8CE193E00E947D1D8091D3
:1046F000A80790E024E0969587952A95E1F78170C8
:104700000E941A1D80E093E00E947D1D035C1F4FF4
:10471000F80180810E941A1D86EE92E00E947D1DA4
:10472000F80180810E944C1D8EED92E00E947D1D5B
:104730006091AA077091AB078091AC079091AD078B
:104740000E94EA1C81EC92E00E947D1D6091AE0700
:104750007091AF078091B0079091B1070E94EA1C59
:1047600084EA92E00E947D1D8091B2070E941A1D8A
:1047700085E892E00E947D1D6091B4077091B507B5
:104780008091B6079091B7070E94EA1C8CE692E0F0
:104790000E947D1D1F910F9108951F93182F86E78A
:1047A00097E00E947D1D1E3F41F01F3F19F01D3F05
:1047B00059F406C086E697E005C083E597E002C09D
:1047C00088E497E00E947D1D85E497E00E947D1DAE
:1047D00084EF91E00E9436171F910895E0ECF0E01D
:1047E0008081826080831092C50080E18093C40044
:1047F000E1ECF0E08081806180838081886080834B
:104800008081806880830895282FE0914A059E2F3B
:104810009F5F903431F490E004C08091900684FD55
:104820000FC080914B059817C1F3F0E0E45DF84F9D
:10483000208390934A058091C10080628093C100DB
:1048400008951F920F920FB60F920BB60F9211247C
:104850008F939F93EF93FF9380914B05E82FF0E0A8
:10486000E45DF84F90819093C600982F9F5F90343D
:1048700009F490E090934B0580914A05981729F42C
:104880008091C1008F7D8093C100FF91EF919F9136
:104890008F910F900BBE0F900FBE0F901F90189529
:1048A0009091490580914805891711F48FEF08957B
:1048B000E92FF0E0E455F94F8081E92FEF5FE03810
:1048C00009F4E0E0E093490508958091480580935C
:1048D000490508951F920F920FB60F920BB60F92D3
:1048E00011242F933F934F935F936F937F938F93F5
:1048F0009F93AF93BF93EF93FF932091C600213214
:10490000C9F0223218F42831F1F41AC02F3319F00B
:104910002E37C9F406C09FB7F89480919006816045
:1049200005C09FB7F89480919006826080939006AE
:104930009FBF1AC09FB7F894809190068860F6CF09
:104940000E942A1211C0E09148059E2F9F5F903867
:1049500009F490E080914905981731F0F0E0E455B2
:10496000F94F208390934805FF91EF91BF91AF914C
:104970009F918F917F916F915F914F913F912F9177
:104980000F900BBE0F900FBE0F901F90189580E0F8
:1049900090E00E949804883011F020E00CC08CE672
:1049A00097E061E070E04CE450E00E940C0520E0EC
:1049B000892B09F021E0822F089580E090E068E0E3
:1049C0000E94A00481E090E06CE677E04CE450E0C7
:1049D0000E94C2040895EF92FF920F931F93CF930A
:1049E000DF93EC017A018B01CB01BA0120E030E0CA
:1049F00040E050E00E946D34882314F484E09BC1B1
:104A0000FE01CF31D10540F4EE58FF4FEE0FFF1FEE
:104A10000590F491E02D199483E08DC1CC0FDD1F3A
:104A2000CC0FDD1FC459D84FE882F9820A831B835B
:104A30007FC1E0927807F092790700937A0710938C
:104A40007B0776C1E0927C07F0927D0700937E079A
:104A500010937F076DC1E0928007F0928107009369
:104A600082071093830764C1C801B70120E030E0DA
:104A700040E752E40E94C13620E030E040E752E4D3
:104A80000E94C136609384077093850780938607E0
:104A9000909387074DC1C801B70120E030E040E79F
:104AA00052E40E94C13620E030E040E752E40E9428
:104AB000C136609388077093890780938A07909323
:104AC0008B0736C1C801B70120E030E040E752E46F
:104AD0000E94C13620E030E040E752E40E94C13637
:104AE00060938C0770938D0780938E0790938F0748
:104AF0001FC1D801C701B0588093900790939107C8
:104B0000A0939207B093930713C1D801C701B0587F
:104B10008093940790939507A0939607B093970777
:104B200007C1D801C701B05880939807909399079F
:104B3000A0939A07B0939B07FBC0C801B70120E080
:104B400030E040E450E40E946D34882314F486E0A1
:104B5000F2C0C801B7010E942C370E94E234609372
:104B60009C07E6C0C801B7010E949B370E94E2344F
:104B700060939D07DDC0C801B7010E949B370E946A
:104B8000E23460939E07D4C0C801B7010E942C375D
:104B90000E94E23460939F07CBC0D801C701BF7762
:104BA0008093A0079093A107A093A207B093A307B7
:104BB000BFC0E092A407F092A5070093A607109348
:104BC000A707B6C0C801B70120E030E040E050E0E0
:104BD0000E946D34882321F08091A807816011C064
:104BE0008091A8078E7F0DC0C801B70120E030E09A
:104BF00040E050E00E946D34882331F08091A80796
:104C000082608093A80794C08091A8078D7FF9CF18
:104C1000C801B70120E030E040E050E00E946D3470
:104C2000882321F08091A8078460EBCF8091A807AA
:104C30008B7FE7CFC801B70120E030E040E050E0D3
:104C40000E946D34882321F08091A8078064D9CF19
:104C50008091A8078F7BD5CFC801B70120E030E055
:104C600040E050E00E946D34882341F08091A80715
:104C700084FD02C08AE05FC08062C3CF8091A80734
:104C80008F7DBFCFC801B70120E030E040E050E0A9
:104C90000E946D34882321F08091A807886003C0AA
:104CA0008091A807877F8093A8070E94250F40C0A6
:104CB000C801B70120E030E040E050E00E946D34D0
:104CC000882321F08091A80780619BCF8091A8075D
:104CD0008F7C97CFC801B7010E949B370E94E234B6
:104CE0006093A90725C0E092AA07F092AB07009352
:104CF000AC071093AD071CC0E092AE07F092AF076F
:104D00000093B0071093B10713C0C801B7010E9408
:104D10002C370E94E2347093B3076093B20708C047
:104D2000E092B407F092B5070093B6071093B70767
:104D30000E94DD2480E0DF91CF911F910F91FF90C1
:104D4000EF90089580E090E0AAE7B3E480936C07C9
:104D500090936D07A0936E07B0936F0780937007D1
:104D600090937107A0937207B093730780937407B1
:104D700090937507A0937607B09377078AE08093A6
:104D80009C0720E030E04AEF53E42093780730930B
:104D9000790740937A0750937B0720937C073093E1
:104DA0007D0740937E0750937F07209380073093C1
:104DB0008107409382075093830780E090EAACE03C
:104DC000B7E48093840790938507A0938607B093F8
:104DD00087078093880790938907A0938A07B093E9
:104DE0008B0780938C0790938D07A0938E07B093C9
:104DF0008F078FE692E1A3E0BBE38093A407909333
:104E0000A507A093A607B093A70710929D0780EC73
:104E100080939E078AE097EDA3EABCE38093A00706
:104E20009093A107A093A207B093A30782E0809379
:104E3000A807ECE6F7E015AE80E090E0A8ECB1E45E
:104E40008093AA079093AB07A093AC07B093AD07EC
:104E50002093AE073093AF074093B0075093B1074C
:104E60008AEF90E09093B3078093B20780E090E0E0
:104E7000A0E8BFE38093B4079093B507A093B6076B
:104E8000B093B70789E180939F0780E090E0A8E4A2
:104E9000B3EC8093900790939107A0939207B093FF
:104EA00093078093940790939507A0939607B093E8
:104EB00097078093980790939907A0939A07B093C8
:104EC0009B070E94DD2408959DE0899FC001112465
:104ED00080509E4F4CE050E00E94C20408950F9312
:104EE0001F93CF93DF93162F072F9DE0899FE0013B
:104EF0001124C050DE4F862F972FBE014CE050E0AA
:104F00000E940C05892B11F081E00FC0E12FF02FDA
:104F10008CE0DF011D928A95E9F7CE01612F702F99
:104F20004CE050E00E94C20480E0DF91CF911F91DD
:104F30000F910895EF92FF921F93DF93CF93CDB718
:104F4000DEB72C970FB6F894DEBF0FBECDBF0E9420
:104F5000C724882339F487E00E946A200E94A22691
:104F60000E94162210E07E010894E11CF11C812FA2
:104F7000B7010E946F27882319F487E00E946A20F6
:104F80001F5F1830A1F72C960FB6F894DEBF0FBE46
:104F9000CDBFCF91DF911F91FF90EF900895BC019D
:104FA00080EE93E046E450E00E94C2040895CF935F
:104FB000DF93EC0160EE73E046E450E00E940C05E4
:104FC000892B11F081E009C0188280EE93E0BE01C8
:104FD00046E450E00E94C20480E0DF91CF91089542
:104FE00097E4899FC001112480509D4F46E450E012
:104FF0000E94C20408950F931F93CF93DF938B01F8
:1050000097E4899FE0011124C050DD4FCB01BE0120
:1050100046E450E00E940C05892B11F081E009C0A4
:10502000F8011082CE01B80146E450E00E94C204AB
:1050300080E0DF91CF911F910F910895E1E0F1E0C1
:105040008081886080836B9AE2E0F1E08081877FD5
:1050500080830895E2E0F1E08081877F8083089576
:105060001F93182F80918F068230A1F00E94C41DDB
:105070000E946B1E112321F480910201877F08C0DA
:10508000113011F4739801C0739A80910201886005
:10509000809302011F9108958091A80782FF02C0AA
:1050A0002F9A01C02F9880918F068471A1F0809172
:1050B0009E078093D40580919D078093D3058091AE
:1050C0009C07880F845081958093D20580916F0052
:1050D000826080936F0008951F920F920FB60F9217
:1050E00011248F939F9392B180919D078C71937E31
:1050F000892B82B915BC9F918F910F900FBE0F9095
:105100001F90189581B18C6181B982B1837E909195
:105110009D07892B82B9279A81B1806E81B982B1AE
:105120008F7190919E07892B82B9E1E8F0E0808130
:105130008F7E8083808188608083E0E8F0E08081DA
:105140008C7F808380818F708083EEE6F0E08081A9
:10515000887F808314BC15BC808181608083089522
:10516000CF93DF93C091EC05D091ED052097B9F076
:1051700081E08093F1052091070630910806409167
:10518000090650910A06CA01B9010E94C136698B0D
:105190007A8B8B8B9C8B1092ED051092EC05DF9136
:1051A000CF9108952F923F924F925F926F927F928C
:1051B0008F929F92AF92BF92CF92DF92EF92FF9227
:1051C0000F931F93DF93CF93CDB7DEB7E9970FB659
:1051D000F894DEBF0FBECDBF17C68091EC0590914D
:1051E000ED05892B09F07EC20E948C179093ED0586
:1051F0008093EC05892B09F40EC68091F105882374
:1052000019F01092F105CAC08091F0058F5F80936C
:10521000F005853011F41092F005E091F00521E1E0
:10522000E29FF0011124E45BFA4FF093EF05E09365
:10523000EE050091EC051091ED05D8018C9180836D
:1052400011962D913D914D915C91149773E0220F31
:10525000331F441F551F7A95D1F72183328343832F
:10526000548315962D913D914D915C91189763E073
:10527000220F331F441F551F6A95D1F725833683AC
:105280004783508719962D913D914D915C911C97C4
:1052900093E0220F331F441F551F9A95D1F72187A2
:1052A0003287438754871D962D913D914D915C9196
:1052B000509783E0220F331F441F551F8A95D1F763
:1052C000258736874787508B1D966D917D918D91EF
:1052D0009C9150970E940E356093F2057093F305F0
:1052E0008093F4059093F505F80125A136A147A117
:1052F00050A50E9474349B01AC016093F605709335
:10530000F7058093F8059093F90560E070E080EA76
:105310009FE30E9474346093FA057093FB058093B9
:10532000FC059093FD0580E090E0A0E0B0E0809364
:10533000FE059093FF05A0930006B09301068091AF
:105340008F068032E1F420910F06309110064091D3
:1053500011065091120620930706309308064093D9
:10536000090650930A06CA01B9010E94C136D80144
:1053700051966D937D938D939C9354970FC0F80134
:1053800061897289838994890E94563760930706E0
:10539000709308068093090690930A0680E090E0D7
:1053A000A0E0B0E08093030690930406A093050666
:1053B000B09306060091EC051091ED05D801919689
:1053C0008D919D910D90BC91A02D88AB99ABAAAB0E
:1053D000BBAB60E070E080E09FE328A939A94AA94F
:1053E0005BA90E9474341B012C0180918F068032CE
:1053F00009F056C0B2E0B0930206F801A5A0B6A02D
:10540000C7A0D0A46188728883889488C201B10142
:10541000A40193010E94C1369B01AC01C601B501F4
:105420000E9488337B018C0120E030E040E050E0B6
:105430000E946D348823FCF468A979A98AA99BA9E4
:1054400020E030E040E050EC0E94C136A60195011A
:105450000E94C1369B01AC01C401B3010E94893393
:105460000E94563760930F067093100680931106C2
:105470009093120637C1E0920306F092040600935F
:1054800005061093060680E090E0A0E0B0E080936F
:105490000F0690931006A0931106B093120622C136
:1054A00010920206F80185A196A1A7A1B0A580934C
:1054B000130690931406A0931506B09316060E9447
:1054C00000195B016C0160930F06709310068093C6
:1054D000110690931206A60195010E94C1363B0168
:1054E0004C012091EC053091ED0539AF28AFD90181
:1054F00095968D919D910D90BC91A02D8B8F9C8F39
:10550000AD8FBE8FF9016189728983899489A40165
:1055100093010E9488339B01AC01C201B1010E943A
:10552000C1369B01AC016B8D7C8D8D8D9E8D0E9453
:10553000893320E030E040E05FE30E94C1367B0128
:105540008C0120E030E040E050E00E9484361816E4
:105550000CF0B4C0C801B7012B8D3C8D4D8D5E8D14
:105560000E946D3488230CF095C0A8ADB9AD5D964E
:105570006D917D918D919C919097A40193010E94D2
:1055800088339B01AC01C201B1010E94C136609316
:105590001706709318068093190690931A06A801AF
:1055A00097010E946D3488230CF047C0E8ADF9AD37
:1055B000E58CF68C078D10A1C801B7010E94563703
:1055C00060930B0670930C0680930D0690930E0665
:1055D000A8ADB9AD5196AD90BD90CD90DC905497EB
:1055E000C601B501A80197010E946D34882321F4FA
:1055F000B1E0B093020676C0C801B701A6019501DB
:105600000E9488339B01AC01C201B1010E94C136E6
:105610009B01AC01609113067091140680911506F0
:10562000909116060E9488336093130670931406B7
:10563000809315069093160655C0E0921306F092DB
:1056400014060093150610931606E0921706F092C2
:1056500018060093190610931A06E8ADF9AD21A1BA
:1056600032A143A154A1CA01B9010E948933A80102
:1056700097010E94C136A40193010E9489330E94C0
:10568000563760930B0670930C0680930D0690932B
:105690000E0628C0F2E0F093020680910706909172
:1056A0000806A0910906B0910A0680930B06909314
:1056B0000C06A0930D06B0930E0614C080E090E097
:1056C000A0E0B0E08093130690931406A093150613
:1056D000B0931606A0920B06B0920C06C0920D066F
:1056E000D0920E068091E905B6E08B9FD00111247F
:1056F000AF55BA4FB9AFA8AF8091F00512968C9311
:10570000E091EC05F091ED05FA8FE98F85A196A166
:10571000A7A1B0A58D8B9E8BAF8BB88FBC01CD019F
:105720002091FA053091FB054091FC055091FD0553
:105730000E9488336CA37DA38EA39FA320E030E05A
:1057400040E050E00E946D34882344F480E090E013
:10575000A0E0B0E08CA39DA3AEA3BFA380911306ED
:1057600090911406A0911506B0911606898B9A8B1C
:10577000AB8BBC8B80910B0690910C06A0910D0613
:10578000B0910E068D879E87AF87B88B80911706E4
:1057900090911806A0911906B0911A0689879A87E8
:1057A000AB87BC878091030690910406A091050603
:1057B000B09106068D839E83AF83B88780910F06D4
:1057C00090911006A0911106B091120689839A83D8
:1057D000AB83BC838091070690910806A0910906CF
:1057E000B0910A0688A399A3AAA3BBA3909102062D
:1057F0009F8FAD88BE88CF88D88C8EE393ECAEE2C5
:10580000B9E38CA79DA7AEA7BFA780E090E0A0E07A
:10581000B0E088A799A7AAA7BBA70F2EFEE36F2E1B
:10582000F3EC7F2EFEE28F2EF9E39F2EF02D9F8D5D
:10583000992321F0913009F0B3C080C0C401B301B5
:10584000A98DBA8D91962D913D914D915C91949732
:105850000E94C1367B018C0120E030E040E05FE334
:105860000E94C1369B01AC0168A179A18AA19BA1CC
:105870000E9489339B01AC01C401B3010E94C1366F
:105880009B01AC01C601B5010E9488335B016C012C
:1058900029893A894B895C890E946D3488230CF0F0
:1058A00040C069897A898B899C8929853A854B858D
:1058B0005C850E946D34882319F4B2E0BF8F02C06A
:1058C000E1E0EF8F6D897E898F89988D29893A89EA
:1058D0004B895C890E9488339B01AC010E9489330B
:1058E0007B018C0168A179A18AA19BA12D853E85B0
:1058F0004F8558890E9489339B01AC01C801B701CB
:105900000E9474343B014C01A988BA88CB88DC889A
:105910008D859E85AF85B88988A399A3AAA3BBA3CB
:10592000B0C068A179A18AA19BA1A80197010E949A
:10593000893368A379A38AA39BA3A3C06D857E85C1
:105940008F859889A40193010E94C1369B01AC0107
:10595000C601B5010E9488337B018C0129853A85F7
:105960004B855C850E946D3487FD03C0570168013B
:1059700088C0C601B50129853A854B855C850E94A2
:1059800088332D853E854F8558890E9474343B01AC
:105990004C01A984BA84CB84DC8492E09F8F71C0CF
:1059A000C401B301A98DBA8D91962D913D914D9170
:1059B0005C9194970E94C1367B018C0168A179A10A
:1059C0008AA19BA1A80197010E9484361816ACF504
:1059D000C801B70120E030E040E05FEB0E94C13633
:1059E0009B01AC0168A179A18AA19BA10E94893386
:1059F0009B01AC01C401B3010E94C1369B01AC0103
:105A0000C601B5010E9488331B012C012D813E8106
:105A10004F8158850E94843618167CF468A179A1BC
:105A20008AA19BA1A80197010E94883368A379A34A
:105A30008AA39BA36201510124C0C601B5012D8137
:105A40003E814F8158850E9488339B01AC010E94A2
:105A500089337B018C0168A179A18AA19BA129814D
:105A60003A814B815C810E9489339B01AC01C80162
:105A7000B7010E9474343B014C01AD80BE80CF80E1
:105A8000D88468A579A58AA59BA5A40193010E9445
:105A9000893368A779A78AA79BA72CA53DA54EA502
:105AA0005FA50E946D3488232CF46CA57DA58EA57E
:105AB0009FA518C0C601B5012CA13DA14EA15FA1B3
:105AC0000E94843618160CF56CA57DA58EA59FA5A1
:105AD0002EE333EC4EE259E30E9489336CA77DA795
