:100000000C942A040C9447040C9447040C94C20EDC
:100010000C94E5310C9447040C9447040C94470469
:100020000C9447040C9447040C9447040C94A52F9B
:100030000C9447040C9447040C9447040C94470414
:100040000C949F280C9447040C9498240C945324EB
:100050000C9447040C9447040C9447040C944704F4
:100060000C9447040C9447043125312531253C2557
:1000700045254E2557256E2585259C25A825B42583
:10008000C025D525DE25E725F025F92505260E26F0
:10009000172629263D264F26612677268D269F2660
:1000A000A826B126BA26C526084AD73B3BCE016E04
:1000B00084BCBFFDC12F3D6C74319ABD56833DDABF
:1000C0003D00C77F11BED9E4BB4C3E916BAAAABECE
:1000D000000000803F05A84CCDB2D44EB93836A9F7
:1000E000020C50B9918688083CA6AAAA2ABE000034
:1000F00000803F3E0D0A002C0057506F733A002CD1
:10010000002C4D506F733A003C436865636B003CB4
:10011000416C61726D003C486F6D65003C486F6CCE
:1001200064003C52756E003C5175657565003C4934
:10013000646C65005D0D0A005B302E39642E323030
:100140003134303232383A000D0A003D00244E007E
:100150005D0D0A00204600205400204D3800204D3F
:100160003900204D3500204D3400204D3300204D06
:100170003200204D3100204D30002047393400201E
:1001800047393300204739310020473930002047B4
:1001900032310020473230002047313900204731CA
:1001A000380020473137002047005B473830005B7C
:1001B0004733005B4732005B4731005B4730005DEF
:1001C0000D0A002C005B4739323A005D0D0A002C05
:1001D0000033303A0032383A0035393A0035383A8F
:1001E0000035373A0035363A0035353A0035343A7D
:1001F000005B47005D0D0A002C005B50726F62656A
:100200003A002028686F6D696E672070756C6C2DE0
:100210006F66662C206D6D290D0A002028686F6DB1
:10022000696E67206465626F756E63652C206D73FF
:100230006563290D0A2433313D002028686F6D69FC
:100240006E67207365656B2C206D6D2F6D696E294F
:100250000D0A2433303D002028686F6D696E6720D9
:10026000666565642C206D6D2F6D696E290D0A24FD
:1002700032393D00290D0A2432383D002028686FAC
:100280006D696E672064697220696E76657274208C
:100290006D61736B3A002028686F6D696E6720632B
:1002A00079636C652C20626F6F6C290D0A243237DC
:1002B0003D00202868617264206C696D6974732C3C
:1002C00020626F6F6C290D0A2432363D002028739E
:1002D0006F6674206C696D6974732C20626F6F6C2B
:1002E000290D0A2432353D002028696E7665727426
:1002F000206C696D69742070696E732C20626F6F59
:100300006C290D0A2432343D002028696E7665720E
:1003100074207374657020656E61626C652C206258
:100320006F6F6C290D0A2432333D002028617574EB
:100330006F2073746172742C20626F6F6C290D0AC8
:100340002432323D0020287265706F727420696E0D
:10035000636865732C20626F6F6C290D0A2432313B
:100360003D0020286E2D646563696D616C732C20DF
:10037000696E74290D0A2432303D002028617263B1
:1003800020746F6C6572616E63652C206D6D290D34
:100390000A2431393D0020286A756E6374696F6ED6
:1003A00020646576696174696F6E2C206D6D290D0E
:1003B0000A2431383D002028737465702069646C0C
:1003C000652064656C61792C206D736563290D0A65
:1003D0002431373D00290D0A2431363D00202864A0
:1003E000697220706F727420696E76657274206D08
:1003F00061736B3A00290D0A2431353D00202873C2
:1004000074657020706F727420696E7665727420E6
:100410006D61736B3A00202864656661756C7420A9
:10042000666565642C206D6D2F6D696E290D0A243B
:1004300031343D002028737465702070756C7365CD
:100440002C2075736563290D0A2431333D00202863
:100450007A206D61782074726176656C2C206D6DE8
:10046000290D0A2431323D00202879206D61782041
:1004700074726176656C2C206D6D290D0A24313102
:100480003D00202878206D61782074726176656C5B
:100490002C206D6D290D0A2431303D0020287A2052
:1004A000616363656C2C206D6D2F7365635E32290B
:1004B0000D0A24393D0020287920616363656C2C86
:1004C000206D6D2F7365635E32290D0A24383D005F
:1004D00020287820616363656C2C206D6D2F736517
:1004E000635E32290D0A24373D0020287A206D6191
:1004F0007820726174652C206D6D2F6D696E290DE9
:100500000A24363D00202879206D617820726174BC
:10051000652C206D6D2F6D696E290D0A24353D0007
:10052000202878206D617820726174652C206D6DB3
:100530002F6D696E290D0A24343D0020287A2C2065
:10054000737465702F6D6D290D0A24333D002028CA
:10055000792C20737465702F6D6D290D0A24323D3E
:10056000002028782C20737465702F6D6D290D0A7A
:1005700024313D0024303D0024242028766965770D
:10058000204772626C2073657474696E6773290DFD
:100590000A24232028766965772023207061726100
:1005A0006D6574657273290D0A2447202876696584
:1005B0007720706172736572207374617465290DA0
:1005C0000A244E20287669657720737461727475E9
:1005D0007020626C6F636B73290D0A24783D76611D
:1005E0006C7565202873617665204772626C207394
:1005F000657474696E67290D0A244E783D6C696EC6
:10060000652028736176652073746172747570203B
:10061000626C6F636B290D0A24432028636865634D
:100620006B2067636F6465206D6F6465290D0A2414
:100630005820286B696C6C20616C61726D206C6F46
:10064000636B290D0A2448202872756E20686F6D2F
:10065000696E67206379636C65290D0A7E202863C3
:1006600079636C65207374617274290D0A212028E6
:100670006665656420686F6C64290D0A3F202863F5
:10068000757272656E7420737461747573290D0AC6
:100690006374726C2D7820287265736574204772BC
:1006A000626C290D0A000D0A4772626C20302E39E7
:1006B00064205B27242720666F722068656C705D5C
:1006C0000D0A005D0D0A0044697361626C65640087
:1006D000456E61626C65640043617574696F6E3A62
:1006E00020556E6C6F636B656400272448277C2758
:1006F00024582720746F20756E6C6F636B005265F1
:1007000073657420746F20636F6E74696E75650015
:100710005B000D0A0050726F6265206661696C00B3
:1007200041626F727420647572696E6720637963C9
:100730006C6500486172642F736F6674206C696D1C
:10074000697400414C41524D3A20000D0A004C6939
:100750006E65206F766572666C6F7700486F6D69A5
:100760006E67206E6F7420656E61626C6564004117
:100770006C61726D206C6F636B004E6F74206964E6
:100780006C6500454550524F4D207265616420668E
:1007900061696C2E205573696E67206465666175AA
:1007A0006C74730056616C7565203C203320757342
:1007B00065630056616C7565203C20302E30005317
:1007C000657474696E672064697361626C65640046
:1007D000496E76616C69642073746174656D656ED1
:1007E00074004D6F64616C2067726F75702076695C
:1007F0006F6C6174696F6E00496E76616C6964201C
:1008000072616469757300556E737570706F727480
:1008100065642073746174656D656E7400457870ED
:10082000656374656420636F6D6D616E64206C65D3
:100830007474657200426164206E756D6265722029
:10084000666F726D6174006572726F723A20006F2C
:100850006B0D0A0011241FBECFEFD8E0DEBFCDBF65
:1008600011E0A0E0B1E0EAECF0E702C005900D92E3
:10087000A030B107D9F716E0A0E0B1E001C01D92A9
:10088000A339B107E1F70E94F7100C9463380C9478
:1008900000003B9A43980895439808951F93182F9A
:1008A0000E94AE1D113011F4439A01C043981F916C
:1008B0000895F999FECF92BD81BD81E08FBB80B5CF
:1008C0000895F894F999FECF92BD81BD81E08FBB68
:1008D00040B54627842F992787FD9095262F30E035
:1008E00082239323892B39F06F3F19F060BD84E098
:1008F00006C084E104C0442321F060BD84E28FBBC4
:10090000F99A789408958F929F92AF92BF92CF9266
:10091000DF92EF92FF920F93DF93CF9300D0CDB78A
:10092000DEB75C016B017A014A0100E01EC00023C2
:1009300019F021E030E008C0202F332727FD309543
:100940002227330F221F3327F60161916F01062FF3
:10095000020F9C012F5F3F4F3A8329830E9461045D
:1009600008948108910889819A8181149104F9F68B
:10097000C7018A0D9B1D602F0E9461040F900F908C
:10098000CF91DF910F91FF90EF90DF90CF90BF90CC
:10099000AF909F908F900895CF93DF93EC01FB0170
:1009A0009A0190E0B1E019C0F999FECFF2BDE1BD26
:1009B000BFBBA0B5992319F081E090E008C0892F52
:1009C000992787FD90958827990F881F9927319639
:1009D0009A2F980FA993215030402115310521F706
:1009E000460F571FF999FECF52BD41BD81E08FBB25
:1009F00080B520E030E0981711F421E030E0C90123
:100A0000DF91CF910895609168057091690580919B
:100A10006A0590916B050E94213520914206309124
:100A2000430640914406509145060E9486346093E7
:100A30002B0570932C0580932D0590932E056091C6
:100A40006C0570916D0580916E0590916F050E9407
:100A50002135209146063091470640914806509135
:100A600049060E94863460932F0570933005809369
:100A700031059093320560917005709171058091F8
:100A80007205909173050E94213520914A0630919C
:100A90004B0640914C0650914D060E94863460935F
:100AA000330570933405809335059093360508958A
:100AB0000F931F93CF93DF93EC018B01D9018C919E
:100AC000FA01E80FF11DE081EE23A9F0E883E1547B
:100AD000EA3110F082E00DC08C918F5F8C93CA01D7
:100AE000B901A8010E94F415892B11F081E004C01E
:100AF00081E080931B0580E0DF91CF911F910F91E2
:100B000008952F923F924F925F926F927F928F92B1
:100B10009F92AF92BF92CF92DF92EF92FF920F938C
:100B20001F93CF93DF938C01E0913805F0E0EE0F37
:100B3000FF1FEE0FFF1FDC01AE0FBF1FE55DFA4F79
:100B40006D917D918D919C91208131814281538164
:100B50000E94A5331B012C01E0913905F0E0EE0F56
:100B6000FF1FEE0FFF1F0E0F1F1FE55DFA4FD8018D
:100B70006D917D918D919C91208131814281538134
:100B80000E94A5333B014C018CE0E8E5F5E0DF0174
:100B90001D928A95E9F7A0905405B0905505C09034
:100BA0005605D0905705C601B50120E030E040E879
:100BB00050E40E945437A60195010E9454377B01EE
:100BC0008C01C201B101A20191010E9454379B0125
:100BD000AC01C801B7010E94A5337B018C01C4019F
:100BE000B301A40193010E9454379B01AC01C801D9
:100BF000B7010E94A5337B018C0120E030E040E08A
:100C000050E00E947F34882324F484E080931B0505
:100C100079C0C801B7010E94E1377B018C01C20194
:100C2000B101A40193010E948F369B01AC0117FB17
:100C3000109517F91095C801B7010E9486347B0101
:100C40008C0180911C05833021F417FB109517F956
:100C50001095C601B50120E030E040E050E00E9470
:100C60007F3488237CF417FB109517F91095D60173
:100C7000C501B0588093540590935505A09356052F
:100C8000B093570580913805C82FD0E0CC0FDD1FF9
:100C9000CC0FDD1FC85ADA4FC401B301A801970178
:100CA0000E9454379B01AC01C201B1010E94A533DF
:100CB00020E030E040E05FE30E94543768837983AE
:100CC0008A839B8380913905C82FD0E0CC0FDD1F2C
:100CD000CC0FDD1FC85ADA4FC201B101A80197013C
:100CE0000E9454379B01AC01C401B3010E94A6339A
:100CF00020E030E040E05FE30E945437688379836E
:100D00008A839B83DF91CF911F910F91FF90EF908A
:100D1000DF90CF90BF90AF909F908F907F906F901B
:100D20005F904F903F902F9008952F923F924F9257
:100D30005F926F927F928F929F92AF92BF92CF926B
:100D4000DF92EF92FF920F931F93DF93CF93CDB774
:100D5000DEB7E8970FB6F894DEBF0FBECDBF4C01EB
:100D600019822CE0FE013796DF01822F1D928A95B1
:100D7000E9F780E090E0A0E0B0E080935405909324
:100D80005505A0935605B0935705E8E5F5E0DF015A
:100D90001D922A95E9F710921B0518AE1FAA1EAAEC
:100DA0001DAAB3E06B2E712C6C0E7D1E2E010894D3
:100DB000411C511CA1E02A2E312CF3E0AF2ECC2493
:100DC000C394E2E0BE2EF0C1EB80FC800D811E8159
:100DD000C801B7010E9422380E94EE349B014A816B
:100DE000473421F04D3409F0DFC16CC16E3171051B
:100DF00009F440C06F317105D4F46431710584F495
:100E000061317105ECF564307105A1F16530710552
:100E10001CF4772394F52CC06A30710549F52AC07B
:100E200066317105B4F16C31710511F523C060357F
:100E3000710519F16135710574F465337105D1F0EF
:100E40006633710524F46632710591F416C06C3373
:100E5000710574F421C06C35710561F06D35710553
:100E600024F46A35710524F00EC06F35710574F0F5
:100E7000DD2414C0DD24D39411C072E0D72E0EC03F
:100E800063E0D62E0BC054E0D52E08C046E0D42E29
:100E900005C097E0D92E02C08AE0D82E2C3131054A
:100EA00009F49CC02D313105CCF52A30310509F407
:100EB0006AC02B303105CCF42230310509F46DC005
:100EC000233031054CF42115310509F460C021307F
:100ED000310509F04FC15EC02330310509F460C00F
:100EE0002430310509F046C150C02331310509F4E1
:100EF00068C0243131054CF42131310509F453C067
:100F00002231310509F036C155C02431310509F4CB
:100F10005FC02531310509F02DC15DC02035310597
:100F200009F4A6C021353105ACF42533310509F4A7
:100F300097C0263331054CF42E31310509F44EC0EB
:100F40002632310509F016C177C02C3331050CF07B
:100F500011C189C02C35310509F494C02D353105F6
:100F60004CF42A35310509F487C02B35310509F0D9
:100F700001C185C02D35310509F49EC02E353105DE
:100F800009F0F8C09CC0B2E04CC0E1E04DC0109246
:100F90001C05F2C0C0921C05EFC0B0921C05ECC04D
:100FA000A0921C05E9C010923805C0923905B09294
:100FB0003A05E2C0B092380510923905C0923A0560
:100FC000DBC0C0923805B092390510923A05D4C002
:100FD000C0921E05D1C010921E05CEC0C801B70137
:100FE00020E030E040E251E40E9454370E94223871
:100FF0000E94EE34F1E069317F0791F021E06A311F
:1010000072072CF46851714009F0B4C00CC091E033
:101010006C32790759F06D52714009F0ABC009C0CC
:10102000B4E0BDABA9C0E3E0EDABA6C0F5E0FDAB1D
:10103000A3C026E02DABA0C0C801B70120E030E07E
:1010400040E251E40E9454370E9422380E94EE345C
:101050006E57714009F08EC0B4E0B0931C058CC08F
:10106000E1E0EEAB89C0822F865380933B0584C0BC
:10107000F5E0F0931C0580C0C0921F057DC0109262
:101080001F057AC0C801B70120E030E040E251E41A
:101090000E9454370E9422380E94EE3423E06839BF
:1010A000720739F06959734009F064C098E09DAB4C
:1010B00063C0A7E0ADAB60C0C0921D055DC01092DB
:1010C0001D055AC06630710534F4633071058CF427
:1010D000772364F409C06730710534F06A30710514
:1010E0005CF06E31710511F0DD2408C005E0D02EF2
:1010F00005C018E0D12E02C0B9E0DB2E2430310546
:1011000069F12530310584F421303105A9F122300F
:1011100031051CF4232BC9F02DC022303105C1F05C
:101120002330310539F517C028303105E9F0293071
:10113000310524F425303105E9F413C02930310597
:10114000B1F02E313105B1F403C0C092200514C0B6
:10115000B092200511C0C09222050EC0B0922205A7
:101160000BC01092220508C0C092210505C0109244
:10117000210502C0A0921B05DD20B1F0910102C043
:10118000220F331FDA94E2F78FA998AD82239323BD
:10119000892B21F0B5E0B0931B0506C0EFA9F8AD8F
:1011A000E22BF32BF8AFEFABCE010296B301A40113
:1011B00092010E945805882309F006CE80911B05F4
:1011C000882309F019C51982772455244424A0E8FE
:1011D0003A2EFFEB2F2E80E090E0A0E0B0E089AB4C
:1011E0009AABABABBCAB18AAE2E0EE2EF12CEC0E46
:1011F000FD1E73E0672E16E040C10A810F347CF4B7
:101200000D340CF03AC10C340CF07EC009340CF0F3
:101210005AC00634E9F0073409F021C12EC1043563
:1012200009F4B9C0053554F4023509F480C003351A
:101230000CF098C0003509F012C170C0093509F4EE
:10124000DCC00A3509F4F2C0083509F008C1BCC099
:10125000AB80BC80CD80DE80C601B50120E030E0EF
:1012600040E050E00E947F34181614F010931B05E4
:1012700080911D05882381F080911E05882309F443
:10128000F8C0C601B50123E333E34BEC51E40E94FF
:1012900054375B016C01EDC080911E05882351F02D
:1012A000C601B50123E333E34BEC51E40E9454370C
:1012B0005B016C01A0922705B0922805C092290518
:1012C000D0922A05CEC02B813C814D815E818091D8
:1012D0001E05882351F0CA01B90123E333E34BEC27
:1012E00051E40E9454379B01AC01E02FFF27E7FD3A
:1012F000F095EE0FFF1FEE0FFF1FEC5CFB4F2083FE
:10130000318342835383ADC06B817C818D819E810B
:101310000E9422380E94F33468ABA3C08B819C8169
:10132000AD81BE8189AB9AABABABBCAB9AC02B8114
:101330003C814D815E8180911E05882351F0CA0158
:10134000B90123E333E34BEC51E40E9454379B0192
:10135000AC012093540530935505409356055093A6
:1013600057057FC0AB80BC80CD80DE80C601B50153
:1013700020E030E040E050E00E947F34882314F405
:1013800010931B05A0922305B0922405C092250559
:10139000D092260566C0AB80BC80CD80DE80C601C1
:1013A000B50120E030E040E050E00E947F34882327
:1013B00014F410931B05C601B5010E9422380E9447
:1013C000F334609337054DC02B813C814D815E81A4
:1013D00080911E05882351F0CA01B90123E333E34C
:1013E0004BEC51E40E9454379B01AC012F833887AA
:1013F00049875A8791E0792A34C02B813C814D81FD
:101400005E8180911E05882351F0CA01B90123E352
:1014100033E34BEC51E40E9454379B01AC012B8722
:101420003C874D875E87A2E07A2A1BC02B813C81D6
:101430004D815E8180911E05882351F0CA01B9015A
:1014400023E333E34BEC51E40E9454379B01AC019E
:101450002F87388B498B5A8BB4E07B2A02C060926D
:101460001B05252D342D432D522DC901DA015C01B8
:101470006D015A2C4B2C3C2C2D2CC701BE016D5FED
:101480007F4FA4019E012F5F3F4F0E945805882384
:1014900009F0B3CEB72C252D342D432D522DC90183
:1014A000DA018BA79CA7ADA7BEA780911B05882357
:1014B00009F0A2C3809165058230C1F0EFA9F8ADB3
:1014C000F0FF0CC040912305509124056091250543
:1014D00070912605809122050E946F288FA998ADF2
:1014E00091FF04C0809121050E944E04AFA9B8ADC0
:1014F000B2FF13C08E010D5E1F4F80913B05B801F6
:101500000E94BA27882309F476C3ACE3B5E0F8015A
:101510008CE001900D928150E1F7BDA9B43009F43F
:1015200050C1B53048F4B23089F1B33008F0BAC0D8
:10153000B13009F097C10EC0EDA9E63009F441C100
:10154000E63008F4AFC0E73009F446C1E83009F0EE
:1015500089C181C169A97AA98BA99CA920E030E041
:1015600040E050E00E947F34882324F486E080939A
:101570001B0578C180916505823009F473C169A9A2
:101580007AA98BA99CA90E946A116CC1F8A9F230B2
:1015900011F0F43159F469A97AA98BA99CA90E9488
:1015A00022380E94EE346730710520F083E080938A
:1015B0001B055AC1772021F428A9223009F40EC155
:1015C000161617062CF44B0108948108910804C0E4
:1015D00080913B05882E99248FA68E010D5E1F4FAA
:1015E000882DB8010E94BA27882309F404C32BE28E
:1015F000E22E25E0F22E97E0A92EB12CAC0EBD1EF6
:10160000680100E010E0672C7724C301002E02C0BF
:10161000959587950A94E2F780FF20C088A98431C8
:1016200099F4D7016D917D918D919C91F501208167
:101630003181428153810E94A533D6016D937D9300
:101640008D939C9313970AC0F50180819181A281AB
:10165000B381F60180839183A283B3830F5F1F4F11
:1016600084E090E0E80EF91EA80EB91EC80ED91E3F
:101670000330110551F68E010D5E1F4F8FA5B80185
:101680000E94AF2780913B0590E08815990509F0ED
:10169000EBC0ACE3B5E0F8018CE001900D92815015
:1016A000E1F7E2C0772009F46AC087E0C82ED12CA8
:1016B000CC0EDD1E0BE215E0EE24FF24A72CBB248C
:1016C000C5010E2C02C0959587950A94E2F780FF1C
:1016D00035C080911F058823F9F0D80151966D918E
:1016E0007D918D919C9154975D962D913D914D9159
:1016F0005C9190970E94A6339B01AC01F60160813A
:101700007181828193810E94A633D6016D937D936E
:101710008D939C9313971CC0F60160817181828127
:101720009381D8012D913D914D915C910E94A633FA
:10173000F60160837183828393830AC0F8018081FC
:101740009181A281B381F60180839183A283B383C7
:101750000894E11CF11C84E090E0C80ED91E0C5FD7
:101760001F4F93E0E916F10409F0AACFCE010796C6
:1017700040E050E060E87FEB20E00E94BE11BE0137
:10178000615E7F4FADA9A33011F486E001C087E010
:101790000E94BA27882309F42EC28E01015E1F4FD2
:1017A000C80140E050E060E87FEB20E00E94BE11FD
:1017B000ABE2B5E0F8018CE001900D928150E1F7C9
:1017C00053C0BDA9B43011F486E001C087E06BE2DC
:1017D00075E00E94AF2746C0772021F486E0809311
:1017E0001B0543C00BE2C02E05E0D02E17E0A12E52
:1017F000B12CAC0EBD1E00E010E0E72CFF24C701A9
:10180000002E02C0959587950A94E2F780FF17C0D5
:10181000F6016081718182819381218932894389B6
:1018200054890E94A533D5012D913D914D915C9134
:101830000E94A533F601658F768F878F90A30F5F87
:101840001F4F84E090E0C80ED91EA80EB91E0330C9
:101850001105A9F609C08CE0E8E4F5E0DF011D926E
:101860008A95E9F7B72C01C0BB24BFA9B2FD03C01C
:10187000BB2009F4ACC180911D05882399F06BA5AC
:101880007CA58DA59EA520E030E040E050E00E94C0
:101890007F3488233CF480911C05853019F086E064
:1018A00080931B05EEA9EE2339F080911C05823050
:1018B00018F086E080931B0580911B05882309F0B2
:1018C0009BC1B7E0CB2ED12CCC0EDD1E0BE215E078
:1018D000EE24FF248B2C9924C4010E2C02C0959574
:1018E00087950A94E2F780FF39C0FEA9FF2309F02B
:1018F0003FC080911F058823F9F0D80151966D9162
:101900007D918D919C9154975D962D913D914D9136
:101910005C9190970E94A6339B01AC01F601608117
:101920007181828193810E94A633D6016D937D934C
:101930008D939C9313971CC0F60160817181828105
:101940009381D8012D913D914D915C910E94A633D8
:10195000F60160837183828393830AC0F8018081DA
:101960009181A281B381F60180839183A283B383A5
:101970000894E11CF11C84E090E0C80ED91E0C5FB5
:101980001F4F93E0E916F10409F0A6CF80911C05E2
:10199000843040F48230B0F5882371F0813009F052
:1019A00009C115C0843009F4E8C0853009F002C1CE
:1019B000BB2009F4FFC0E3C0BB2009F4E0C0CE01A6
:1019C000079640E050E060E87FEB20E018C0BB20C5
:1019D00009F4D5C0A0911D05AA2341F45090270514
:1019E000409028053090290520902A05CE010796C1
:1019F000252D342DE32DF22DA901BF012A2F0E94A0
:101A0000BE11D8C081E090E000903A0502C0880F76
:101A1000991F0A94E2F780958B2109F4B0C0A09039
:101A20005405B0905505C0905605D0905705C60195
:101A3000B50120E030E040E050E00E947F34882390
:101A4000B9F5E0913805F0E0EE0FFF1FEE0FFF1F34
:101A5000E85AFA4FE080F18002811381C801B70192
:101A600020E030E040E050E00E947F348823B1F471
:101A7000E0913905F0E0EE0FFF1FEE0FFF1FE85A6F
:101A8000FA4F608171818281938120E030E040E0F3
:101A900050E00E947F34882309F471C0C601B5016B
:101AA00020E030E040E050E00E947F34882349F09D
:101AB000CE0107960E94810580911B058823D1F0F5
:101AC0009BC0E0913905F0E0EE0FFF1FEE0FFF1F06
:101AD000E85AFA4F2081318142815381C801B70110
:101AE0000E948F3660935405709355058093560578
:101AF0009093570530911C052091380500913905C8
:101B0000E0903A0580901D05882041F4509027050B
:101B1000409028053090290520902A0500D000D05B
:101B20000F924DB75EB74F5F5F4F80915405909114
:101B30005505A0915605B0915705EDB7FEB78183C5
:101B40009283A383B48380E0323009F481E0DA0128
:101B500014968C938BE295E0BE01695F7F4F48E558
:101B600055E0A52CB42CC32CD22C0E948D120F90C2
:101B70000F900F900F900F901DC0BB2021F486E0B6
:101B800080931B0517C0A0911D05AA2341F4509016
:101B90002705409028053090290520902A05CE0180
:101BA0000796252D342DE32DF22DA901BF012A2FF3
:101BB0000E94F61180911B058823F1F4ABE2B5E099
:101BC000FE0137968CE001900D928150E1F78091F3
:101BD0002005882369F00E94AE1D10927405809143
:101BE0002005823019F40E94371102C0109220059E
:101BF00080911B0501C08AE0E8960FB6F894DEBF1D
:101C00000FBECDBFCF91DF911F910F91FF90EF904D
:101C1000DF90CF90BF90AF909F908F907F906F900C
:101C20005F904F903F902F900895EBE1F5E089E4AD
:101C3000DF011D928A95E9F78091730690917406F1
:101C4000A0917506B091760680932705909328059C
:101C5000A0932905B0932A051092380591E090933E
:101C6000390582E080933A0590931F0580913B05EA
:101C7000BF016F5D7F4F0E94BA27882319F48AE065
:101C80000E94711E089584B1817F84B9809183067A
:101C9000982F86FF03C085B1817F02C085B18E6019
:101CA00085B993FF09C080916B008E6080936B00B3
:101CB00080916800816008C080916B00817F809373
:101CC0006B00809168008E7F809368000895EBE63A
:101CD000F0E08081817F8083E8E6F0E080818E7F84
:101CE00080830895CF92DF92EF92FF920F931F931C
:101CF000CF93DF936C01C0E0D0E0F601EC0FFD1F45
:101D0000E080F18002811381C801B70120E030E05A
:101D100040E050E00E94823618166CF0FE01EE5B47
:101D2000F94FC801B70124A135A146A157A10E94CE
:101D30007F348823D4F480916505803161F48091EB
:101D400066058860809366050E94261D8091640563
:101D50008823D1F30EC00E943711809166058066FA
:101D6000809366050E94261D04C02496CC30D105C0
:101D700021F6DF91CF911F910F91FF90EF90DF90AF
:101D8000CF9008951F920F920FB60F9211242F93A8
:101D90003F934F935F936F937F938F939F93AF93F3
:101DA000BF93EF93FF9380916505813059F0809147
:101DB000660585FD07C00E94371180916605806623
:101DC00080936605FF91EF91BF91AF919F918F91A5
:101DD0007F916F915F914F913F912F910F900FBE27
:101DE0000F901F9018952F923F924F925F926F9293
:101DF0007F928F929F92AF92BF92CF92DF92EF929B
:101E0000FF920F931F93DF93CF93CDB7DEB7689701
:101E10000FB6F894DEBF0FBECDBF982E809164053B
:101E2000882309F0CBC18091890690918A06A09100
:101E30008B06B0918C068F87988BA98BBA8BE0901C
:101E40006606F09067060091680610916906D090CA
:101E50006A06C0906B06B0906C06A0906D06C80133
:101E6000B7012D2D3C2D4B2D5A2D0E948236181670
:101E700034F48D2D9C2DAB2DBA2D7C018D01D0908D
:101E80006E06C0906F06B0907006A0907106C801F3
:101E9000B7012D2D3C2D4B2D5A2D0E948236181640
:101EA00034F48D2D9C2DAB2DBA2D7C018D01C801F4
:101EB000B70120E030E040EC5FEB0E9454376B014B
:101EC0007C010E94781B01E095E09D871E0108942B
:101ED000211C311C492C552446015701B7FAB094F6
:101EE000B7F8B094D201A170B070BC8BAB8BF2018B
:101EF000E270F070FE8BED8BC20184709070988F51
:101F00008F8B8091830686FD02C00E8703C091E00F
:101F100090279E873101F10160E020E030E0C201AE
:101F2000022E02C0959587950A94E2F780FF0DC0B6
:101F30006F5F002329F480829182A282B3820DC058
:101F4000C082D182E282F38208C080E090E0A0E00B
:101F5000B0E080839183A283B3832F5F3F4F349699
:101F600023303105E1F630918406232F35FF09C077
:101F700089819A81AB81BC81B05889839A83AB8374
:101F8000BC8326FF09C08D819E81AF81B885B05882
:101F90008D839E83AF83B88737FF09C089859A8573
:101FA000AB85BC85B05889879A87AB87BC87AB89DE
:101FB000BC89AB2B11F410E001C014E0ED89FE895F
:101FC000EF2B09F018608F89988D892B09F010612B
:101FD0001093670570E080E090E00E941F350E943A
:101FE000E1379B01AC016F85788989899A890E94C4
:101FF0005437AB01BC01C10120E00E9472180E945D
:1020000005290E947F2883B19E85992311F0AEE0B7
:102010008A2712FF02C081FD1B7F13FF02C082FDD1
:10202000177F14FF02C083FD1F7E109367050E9477
:1020300005298091660584FF03C00E94261DBEC04D
:10204000812F8C7101F70E94832F0E94781B809151
:102050008D0690918E060E94AF1680918506909114
:102060008606A0918706B09188068F87988BA98BEA
:10207000BA8B9D85992329F0A1E00A2791509D876D
:1020800040CF98E6C92E95E0D92E82E4882E86E0CE
:10209000982EAA24BB24C2010A2C02C095958795CC
:1020A0000A94E2F780FF49C0109184068A2D0E94AD
:1020B000B916182369F1F401E4A0F5A006A117A14F
:1020C00060918F0670919006809191069091920692
:1020D000A80197010E94A633D3016D937D938D9340
:1020E0009C931397C801B701F4012081318142818B
:1020F00053810E9454370E942437D6016C93119665
:102100007C93119712968C93129713969C9328C0E8
:1021100080918F0690919006A0919106B0919206C1
:10212000B058F30180839183A283B383D6011D92BB
:102130001D921D921C92139713C0F601608171814C
:10214000828193810E942135D4012D913D914D9141
:102150005C910E948634F301608371838283938350
:102160000894A11CB11C84E090E0680E791EC80E92
:10217000D91E880E991E93E0A916B10409F08BCFE1
:102180000E94F7164091890650918A0660918B064D
:1021900070918C06CE01019620E00E94721888E0B2
:1021A00080936505809166058260809366050E9434
:1021B000261D0E94AE1D84E08093650568960FB6CB
:1021C000F894DEBF0FBECDBFCF91DF911F910F916D
:1021D000FF90EF90DF90CF90BF90AF909F908F9047
:1021E0007F906F905F904F903F902F9008951F9336
:1021F0000E9420240E94E5270E94B5280E94D43125
:102200008EE1E4E6F5E0DF011D928A95E9F781E0D1
:102210008093640578948091830684FF03C081E0F5
:102220008093650511E00E9493240E94150E0E9480
:1022300069280E9449040E94430E0E94021D0E94C8
:10224000781B0E94832F0E94F7160E9403051092AC
:102250006405109266058091830681FF03C0109388
:10226000740502C0109274050E94C51DDCCF8091D8
:10227000660584FD14C080916605806180936605C3
:102280000E946D280E944C0480916505847339F08A
:10229000809166058062809366050E94572F08959D
:1022A00084E0809365050E94670E84E00E94F30E2F
:1022B00083E00E94F30E0E94261D8091640588230E
:1022C00041F40E940305109265050E94572F0E9459
:1022D000430E0895EF92FF920F931F93CF93DF93D6
:1022E0007B018C0120E030E040EA51E40E94543749
:1022F0000E945C350E94F334EB010E94AE1DC801C0
:10230000B70120E030E04AE754E40E9454377B01F3
:102310008C0182E390E0C89FB001C99F700DD89FE7
:10232000700D112480E090E00E941F359B01AC01EC
:10233000C801B7010E94A5330E945C350E94F334A6
:10234000DC01CB010E94AF1600E911E00EC00E9433
:10235000261D80916405882351F484EF91E0F801F3
:102360003197F1F70197D9F72197209781F7DF91FE
:10237000CF911F910F91FF90EF900895DF92EF9210
:10238000FF920F931F93CF93DF93EC017A018B01A0
:10239000D22E8091830685FF03C0CE010E94720E6B
:1023A000809165058230D1F00E94261D80916405E0
:1023B0008823A1F40E94ED16882319F00E941C1DA9
:1023C000F3CFCE01B801A7012D2D0E947218809184
:1023D0006505882319F488E080936505DF91CF9126
:1023E0001F910F91FF90EF90DF9008957F928F9251
:1023F0009F92AF92BF92CF92DF92EF92FF920F9394
:102400001F93CF93DF936C014A015B01722E809181
:102410006505803111F00E941C1D0E94AE1D809147
:102420006405882309F06BC0C601B501A401272DFE
:102430000E94BE1181E080937505809166058260DF
:10244000809366050E94261D80916405882309F00B
:1024500056C080916505882311F0883099F78091E6
:102460007505813029F48091660580648093660546
:102470000E94261D80916405882309F040C086E7EC
:10248000E82E85E0F82EC0E0D0E086010C0F1D1F7D
:10249000F70161917191819191917F010E942135A4
:1024A000FE01EE5BF94F20813181428153810E9410
:1024B0008634F80160837183828393832496CC30C1
:1024C000D10519F70E94261D0E94832F0E94781BB8
:1024D0000E94F716C601B501A401272D0E94BE1166
:1024E000809166058260809366050E94AE1D809192
:1024F0006405882321F40E9403050E94CD1FDF910B
:10250000CF911F910F91FF90EF90DF90CF90BF90F0
:10251000AF909F908F907F9008952F923F924F920F
:102520005F926F927F928F929F92AF92BF92CF9263
:10253000DF92EF92FF920F931F93DF93CF93CDB76C
:10254000DEB7C255D0400FB6F894DEBF0FBECDBF88
:102550003C0123967FAF6EAF239725965FAF4EAFBA
:10256000259726962FAF269727960FAF2797289661
:10257000EFAE28972C96ACAEBDAECEAEDFAE2C97AC
:102580002D968FAE2D97E22EFF24EE0CFF1CEE0C45
:10259000FF1C4E0D5F1D21965FAF4EAF2197DA01F4
:1025A0002D903D904D905C90FC01EE0DFF1DC20101
:1025B000B10120813181428153810E94A6336DABEC
:1025C0007EAB8FAB98AF10E0000F111F000F111FF3
:1025D0002596EEADFFAD2597E00FF11FFEAFEDAFF5
:1025E000A080B180C280D380F301E00FF11FC6014B
:1025F000B50120813181428153810E94A63369ABAC
:102600007AAB8BAB9CAB28962FAD2897E22FF0E0EE
:10261000EE0FFF1FEE0FFF1F6E0E7F1ED3018D9179
:102620009D910D90BC91A02D89AF9AAFABAFBCAF7F
:1026300023962EAD3FAD2397E20FF31F608171818A
:102640008281938129AD3AAD4BAD5CAD0E94A5333B
:102650006DA77EA78FA798ABD201C101B05889A7FB
:102660009AA7ABA7BCA7A601950150582DA33EA3DE
:102670004FA358A723964EAD5FAD2397E40EF51EEA
:10268000D7016D917D918D919C912DA93EA94FA966
:1026900058AD0E94A5333B014C012396EEADFFAD32
:1026A00023970E0F1F1FD8016D917D918D919C91E5
:1026B00029A93AA94BA95CA90E94A5335B016C0129
:1026C00069A57AA58BA59CA5A60195010E94543702
:1026D0007B018C016DA17EA18FA198A5A40193011E
:1026E0000E9454379B01AC01C801B7010E94A53379
:1026F0001B012C0169A57AA58BA59CA5A4019301BA
:102700000E9454377B018C016DA17EA18FA198A5F9
:10271000A60195010E9454379B01AC01C801B70185
:102720000E94A6339B01AC01C201B1010E94193481
:102730003B014C01AC968FADAC97882399F0C40156
:10274000B30120E030E040E050E00E948236882370
:10275000ECF0C401B3012BED3FE049EC50E40E94E2
:10276000A53312C0C401B30120E030E040E050E0E6
:102770000E947F34181654F0C401B3012BED3FE0E2
:1027800049EC50E40E94A6333B014C01C401B30163
:10279000AB962CAD3DAD4EAD5FADAB970E945437BF
:1027A0002DA53EA54FA558A90E948F365B016C014F
:1027B000E0907E06F0907F060091800610918106E1
:1027C000AB966CAD7DAD8EAD9FADAB979B01AC0173
:1027D0000E94A633A80197010E94A5339B01AC017A
:1027E000C801B7010E9454370E94E1377B018C0178
:1027F000C601B50120E030E040E05FE30E945437BD
:10280000A80197010E9486340E945C350E94F3342F
:102810007CA36BA36115710509F4BDC12D96BFADF5
:102820002D97BB23A1F080E090E00E941F359B0113
:10283000AC012C966CAD7DAD8EAD9FAD2C970E94FA
:1028400054372C966CAF7DAF8EAF9FAF2C972BA1DA
:102850003CA1B90180E090E00E941F357B018C0112
:10286000C401B301A80197010E9486346F8F78A339
:1028700089A39AA36DA57EA58FA598A9A801970104
:102880000E9486346B8F7C8F8D8F9E8F6F8D78A189
:1028900089A19AA19B01AC010E9454379B01AC0114
:1028A00060E070E080E090E40E94A5335B016C0181
:1028B0006F8D78A189A19AA12BEA3AEA4AE25EE3F8
:1028C0000E9454377B018C01C601B50120E030E045
:1028D00040E850E40E94A6339B01AC01C801B70157
:1028E0000E9454376F8B788F898F9A8FC601B501FC
:1028F00020E030E040E05FE30E9454376D877E8740
:102900008F87988B28963FAD2897E32FF0E0EE0F46
:10291000FF1FEE0FFF1FCE010196E80FF91F29AD33
:102920003AAD4BAD5CAD208331834283538341E0AC
:1029300050E05A8B498B99242696BFAD2697AB2F32
:10294000B0E0AA0FBB1FAA0FBB1F9C012A0F3B1FA1
:102950002F963FAF2EAF2F9727965FAD2797452F26
:1029600050E0440F551F440F551F81E090E08C0F3D
:102970009D1F840F951F61969FAF8EAF61976396E1
:10298000FFAFEEAF6397FFC093E1991508F446C01F
:1029900069A57AA58BA59CA52F89388D498D5A8D5F
:1029A0000E9454377B018C016DA17EA18FA198A557
:1029B0002D853E854F8558890E9454379B01AC0177
:1029C000C801B7010E94A6337B018C0169A57AA5D5
:1029D0008BA59CA52D853E854F8558890E9454372F
:1029E0005B016C016DA17EA18FA198A52F89388D07
:1029F000498D5A8D0E9454379B01AC01C601B50127
:102A00000E94A53369A77AA78BA79CA79394C701B7
:102A1000D8018DA39EA3AFA3B8A763C0A989BA8923
:102A2000BD0180E090E00E941F352F8D38A149A1A3
:102A30005AA10E9454377B018C01C8010E94833443
:102A40006B8B7C8B8D8B9E8BB701C8010E94D73717
:102A50003B014C012196EEADFFAD2197E080F18066
:102A60000281138117FB109517F91095ADADBEAD1E
:102A70002D903D904D905C90C801B7012B893C8909
:102A80004D895E890E9454375B016C01C201B1011E
:102A9000A40193010E9454379B01AC01C601B5010A
:102AA0000E94A63369A77AA78BA79CA7C801B70184
:102AB000A40193010E9454377B018C01C201B10132
:102AC0002B893C894D895E890E9454379B01AC015A
:102AD000C801B7010E94A5336DA37EA38FA398A759
:102AE00099246DA97EA98FA998AD29A53AA54BA5D2
:102AF0005CA50E94A6332F96EEADFFAD2F976083A5
:102B000071838283938369A97AA98BA99CA92DA13A
:102B10003EA14FA158A50E94A6336196AEADBFADB0
:102B200061976D937D938D939C9313976396EEAD10
:102B3000FFAD639760817181828193812B8D3C8D84
:102B40004D8D5E8D0E94A6336396AEADBFAD63978B
:102B50006D937D938D939C931397CE0101962C9644
:102B60004CAD5DAD6EAD7FAD2C972D962FAD2D97F5
:102B70000E94BE11809164058823E1F4E989FA89F5
:102B80003196FA8BE98B29893A894BA15CA12417EC
:102B9000350708F4F9CE23968EAD9FAD23972C967A
:102BA0004CAD5DAD6EAD7FAD2C972D962FAD2D97B5
:102BB0000E94BE11CE5ADF4F0FB6F894DEBF0FBE93
:102BC000CDBFCF91DF911F910F91FF90EF90DF90DC
:102BD000CF90BF90AF909F908F907F906F905F90BD
:102BE0004F903F902F9008956F927F928F929F9277
:102BF000AF92BF92CF92DF92EF92FF920F931F930B
:102C0000CF93DF934C013B015A01FB018081F4011A
:102C1000E80FF11DEF0189918D3229F48181219610
:102C2000CC24C39405C08B3211F481812196CC242D
:102C300020E030E040E050E0DD24E0E070E0682F8C
:102C400060536A30F8F4EF5FE930C0F47111DA9440
:102C5000DA01C901F2E0880F991FAA1FBB1FFA957C
:102C6000D1F7280F391F4A1F5B1F220F331F441F44
:102C7000551F260F311D411D511D09C0772339F401
:102C8000D39405C06E3F29F4772319F471E089913C
:102C9000D6CFEE2319F420E030E051C0CA01B901CB
:102CA0000E941F357B018C0120E030E040E050E0C5
:102CB0000E947F34882369F42BC0C801B7012AE041
:102CC00037ED43E25CE30E9454377B018C01F2E074
:102CD000DF0E8FEFD8168CF3D81659F4C801B70160
:102CE0002DEC3CEC4CEC5DE30E9454377B018C01F5
:102CF0000FC0DD2069F0C801B70120E030E040E2FC
:102D000051E40E9454377B018C01DA941D149CF32A
:102D1000CC2049F0D801C701B058F50180839183D8
:102D2000A283B38305C0F501E082F182028313839D
:102D3000882D80958C0FF301808321E030E0C9015C
:102D4000DF91CF911F910F91FF90EF90DF90CF9087
:102D5000BF90AF909F908F907F906F90089520EAE2
:102D60003FE004C0F9013197F1F701970097D1F7DF
:102D70000895813049F0813018F0823019F406C08E
:102D800080E2089580E0089580E4089580E8089541
:102D90002091E2038091E303821769F0922F9F5FF5
:102DA000923109F490E08091E503281711F4909393
:102DB000E5039093E20308959091E2038091E30389
:102DC000891719F420E030E006C089E2989F90014D
:102DD000112420503F4FC901089520E09091E20353
:102DE0008091E403981709F421E0822F08958091DF
:102DF000680590916905A0916A05B0916B05809373
:102E0000E6039093E703A093E803B093E90380916E
:102E10006C0590916D05A0916E05B0916F05809342
:102E2000EA039093EB03A093EC03B093ED0380913E
:102E3000700590917105A0917205B0917305809312
:102E4000EE039093EF03A093F003B093F103089582
:102E50004F925F926F927F928F929F92AF92BF92AA
:102E6000CF92DF92EF92FF920F931F93CF93DF9356
:102E70008091E303882309F482E1782E7A946090AC
:102E8000E503761409F4F2C089E2789E400111242A
:102E900080E091E0880E991EF401A588B688C78865
:102EA000D08C21A132A143A154A1CA01B9010E9431
:102EB000A633F40125A136A147A150A50E9454379D
:102EC0007B018C01B501C601A80197010E947F34E6
:102ED00087FD04C0D801C70157016D01C501D601A6
:102EE000F401818B928BA38BB48B772011F432E1A8
:102EF000732E7A94761409F04EC08091E20368161E
:102F000009F050C00E94E3284DC0769CE0011124D6
:102F1000C050DF4F772011F422E1722E7A94809115
:102F2000E203781611F40E94E328AD88BE88CF88AA
:102F3000D88C69897A898B899C89A60195010E9420
:102F40007F34882331F129A13AA14BA15CA1CA01A8
:102F5000B9010E94A6332DA13EA14FA158A50E9400
:102F60005437F40121893289438954890E94A63358
:102F70007B018C01A60195010E947F3488232CF4EB
:102F8000E98AFA8A0B8B1C8B04C0A98ABA8ACB8A7D
:102F9000DC8A4E0102C099E2692E8091E503781621
:102FA00009F0B3CFA090E503BA2CB394F2E1BF16B9
:102FB00009F4BB2489E2A89E8001112400501F4F10
:102FC0005090E30389E2482E4CC0B49CE0011124E8
:102FD000C050DF4FF801C188D288E388F48869883F
:102FE0007A888B889C88C701B601A40193010E944E
:102FF0007F3488231CF5F80121A132A143A154A1FB
:10300000CA01B9010E94A633F80125A136A147A142
:1030100050A50E9454379B01AC01C701B6010E9424
:10302000A6337B018C01A40193010E947F34882385
:103030002CF4E98AFA8A0B8B1C8BAB2C69897A8970
:103040008B899C892D893E894F89588D0E947F34B8
:10305000882309F4AB2CB394F2E1BF1609F4BB2426
:103060008E01B51409F0B1CFA092E503DF91CF91A5
:103070001F910F91FF90EF90DF90CF90BF90AF9096
:103080009F908F907F906F905F904F9008950E94D7
:10309000E3288091E2038093E5030E9428170895B6
:1030A0002091E2032F5F223109F420E08091E303B5
:1030B000281729F460E070E080E090E012C030E072
:1030C00089E290E0289FF001299FF00D389FF00DD4
:1030D0001124E050FF4F61897289838994890E948D
:1030E000E13708952F923F924F925F926F927F92B5
:1030F0008F929F92AF92BF92CF92DF92EF92FF9208
:103100000F931F93DF93CF93CDB7DEB7E6970FB63C
:10311000F894DEBF0FBECDBF9DA78CA74EA75FA7BB
:1031200068AB79AB2AAB9091E30389E2989F4001A9
:10313000112420E031E0820E931ED4011D961D92D1
:103140001D921D921C92509780E090E0A0E0B0E0AC
:10315000F40185A396A3A7A3B0A7108289E996E7F7
:10316000A6E9BEE781A392A3A3A3B4A322E436E019
:103170003C8F2B8F1E010894211C311C46EE442EDF
:1031800043E0542E9A8E898E1BA666247724ECA5E4
:10319000FDA5E60DF71D6081718182819381AB8D64
:1031A000BC8D2D913D914D915C910E9454370E94B0
:1031B00024379B01AC01F101208331834283538387
:1031C000F20180819181A281B381281B390B4A0BC6
:1031D0005B0B57FF07C050954095309521953F4FA9
:1031E0004F4F5F4FA98DBA8D11962D933D934D93FF
:1031F0005C931497F40185859685A785B089281777
:1032000039074A075B0710F49C01AD01D4011D96F4
:103210002D933D934D935C935097F10160817181A3
:1032200082819381D2012D913D914D915C91621BE0
:10323000730B840B950B0E942135EB8DFC8D208147
:103240003181428153810E9486345B016C01EDE043
:10325000F0E0EC0FFD1FE60DF71D608371838283A4
:10326000938320E030E040E050E00E947F348823E8
:1032700044F4D4011C918BA50E94B916182BF401BB
:103280001083D4019596ED90FD900D911C91989727
:10329000C601B501A60195010E9454379B01AC01FE
:1032A000C801B7010E94A6337B018C01CB01D80174
:1032B000F40185A396A3A7A3B0A7FBA5FF5FFBA777
:1032C00024E030E0620E731E8B8D9C8D04969C8FE3
:1032D0008B8F220E331E420E531EA98DBA8D14966B
:1032E000BA8FA98FF33009F052CFB701C8010E94FD
:1032F000E1377B018C01F40165A376A387A390A736
:1033000085859685A785B0890097A105B10509F443
:10331000D6C16EA57FA588A999A920E030E040E03C
:1033200050E00E947F3488234CF489E996E7A6E9AF
:10333000BEE78EA79FA7A8ABB9AB0FC09AA99923E8
:1033400061F0C801B7012EA53FA548A959A90E945F
:1033500086346EA77FA788AB99AB60E070E080E809
:103360009FE3A80197010E9486346FA378A789A7DD
:103370009AA7DE011D96BAA3A9A3E2EFF3E0F8A392
:10338000EF8F2EE436E03E8F2D8F80E090E0A0E0BE
:10339000B0E08BA39CA3ADA3BEA3DE015996BEAB48
:1033A000ADABE9A1FAA1E080F18002811381C801EF
:1033B000B70120E030E040E050E00E947F348823F5
:1033C00009F47CC0C801B7012FA138A549A55AA5A9
:1033D0000E9454372B013C01A9A1BAA16D937D93A2
:1033E0008D939C93139760E070E080E89FE3A301C6
:1033F00092010E9486345B016C01E894D7F8C60103
:10340000B501ED8DFE8D20813181428153810E9475
:1034100054377B018C016EA57FA588A999A9A801C5
:1034200097010E947F3487FD04C0EEA6FFA608AB7B
:1034300019ABD4019196BC91BBABF401F2A1FCABEA
:10344000D40193962C90939794963C90C601B50125
:10345000ED8DFE8D24853585468557850E94543730
:103460007B018C016BA97CA9C101A80197010E9475
:103470007F3487FD05C0D801C701EBAA9CAB1D01B5
:103480008BA99CA9D101F40181A392A3A3A3B4A306
:10349000C301B201AF8DB8A12D913D914D915C91C9
:1034A0000E9454379B01AC016BA17CA18DA19EA110
:1034B0000E94A5336BA37CA38DA39EA3E9A1FAA1CF
:1034C0003496FAA3E9A32F8D38A12C5F3F4F38A380
:1034D0002F8F8D8D9E8D04969E8F8D8FADA9BEA949
:1034E000EA17FB0709F05DCF9091E3038091E203B7
:1034F000981771F480E090E0A0E0B0E0F401818BD7
:10350000928BA38BB48B818F928FA38FB48F52C079
:1035100060E070E080E89FE32BA13CA14DA15EA19B
:103520000E94A53320E030E040E05FE30E94543782
:103530000E94E1375B016C01D40191966D917D9100
:103540008D919C91949720917A0630917B064091C1
:103550007C0650917D060E945437A60195010E9479
:1035600054377B018C0160E070E080E89FE3A601A6
:1035700095010E94A5339B01AC01C801B7010E94CF
:1035800086347B018C0120E030E040E050E00E9476
:103590007F34882354F40F2EF0E0EF2EF0E0FF2E5E
:1035A000F0E00F2FF0E01F2FF02DF401E18EF28EEE
:1035B000038F148F6EA57FA588A999A99B01AC01E3
:1035C0000E9454377B018C01D4015D966D937D93ED
:1035D0008D939C93909759965C9059975A964C90DE
:1035E0005A975B963C905B975C962C90D090FE032C
:1035F000C090FF03B0900004A09001042D2D3C2D3D
:103600004B2D5A2D0E947F3487FD04C06D2C7C2CDD
:10361000F50105C0D801C7013701FA2FEB2F652D41
:10362000742D832D922D93014F2F5E2F0E947F3496
:1036300088232CF4852D942DA32DB22D0EC0C80106
:10364000B7012D2D3C2D4B2D5A2D0E947F3487FD27
:1036500006C08D2D9C2DAB2DBA2D7C018D01F40162
:10366000E58AF68A078B108FA2EFB3E0FE013D9644
:103670008CE001900D928150E1F7F401858D968DDB
:10368000A78DB0A18093FE039093FF03A093000445
:10369000B0930104A6EEB3E0FE0131968CE00190F8
:1036A0000D928150E1F78091E4038093E3038F5FF3
:1036B000823109F480E08093E4030E942817E696A3
:1036C0000FB6F894DEBF0FBECDBFCF91DF911F9133
:1036D0000F91FF90EF90DF90CF90BF90AF909F90B1
:1036E0008F907F906F905F904F903F902F900895B4
:1036F0008CE1E6EEF3E0DF011D928A95E9F7109286
:10370000E2031092E30381E08093E4031092E50367
:1037100008958F929F92AF92BF92CF92DF92EF92D5
:10372000FF920F931F93DF93CF93CDB7DEB72A9706
:103730000FB6F894DEBF0FBECDBF7B018C0120E039
:1037400030E040E050E00E947F3488233CF48DE27A
:103750000E94362417FB109517F91095A090820649
:10376000DA2C0CC0C801B70120E030E048EC52E48C
:103770000E9454377B018C018EEFD80EE1E0ED15ED
:1037800088F3A0FE0AC0C801B70120E030E040E2A3
:1037900051E40E9454377B018C01C801B70120E03D
:1037A00030E040E05FE30E94A6330E94EE346B01FC
:1037B0007C019E012F5F3F4FF901EA0DF11D8EE262
:1037C0008083BB2449011EC0BA1409F4B394840158
:1037D0000B0D111DC701B6012AE030E040E050E0BA
:1037E0000E944138605DF8016083B394C701B6015F
:1037F0002AE030E040E050E00E944138C901DA019F
:103800006C017D01C114D104E104F104E9F606C0A4
:10381000FC01EB0DF11D2083B39403C0CE01019692
:1038200020E3BA14A8F3BA1489F48B2D8F5FFE013C
:10383000E80FF11D90E39183B82EB39407C0FE0109
:10384000EB0DF11D80810E943624BA94BB20B9F79C
:103850002A960FB6F894DEBF0FBECDBFCF91DF9191
:103860001F910F91FF90EF90DF90CF90BF90AF909E
:103870009F908F9008958F929F92AF92BF92CF9218
:10388000DF92EF92FF920F93DF93CF93CDB7DEB726
:103890002A970FB6F894DEBF0FBECDBF6B017C0137
:1038A000611571058105910521F480E30E9436249C
:1038B0002FC000E04E010894811C911C5401A00E01
:1038C000B11CC701B6012AE030E040E050E00E94A0
:1038D0004138605DF50160830F5FC701B6012AE0E2
:1038E00030E040E050E00E944138C901DA016C014B
:1038F0007D01C114D104E104F10401F707C0FE0108
:10390000E00FF11D80810E94362401500023B9F799
:103910002A960FB6F894DEBF0FBECDBFCF91DF91D0
:103920000F91FF90EF90DF90CF90BF90AF909F905E
:103930008F900895EF92FF920F931F937B018C015C
:1039400097FF0BC08DE20E94362410950095F094ED
:10395000E094E11CF11C011D111DC801B7010E947A
:103960003B1C1F910F91FF90EF9008950F931F93B1
:10397000DF93CF93CDB7DEB728970FB6F894DEBFAD
:103980000FBECDBF982FFE0131969E01275F3F4F9E
:10399000892F817081939695E217F307C9F78E01FD
:1039A000085F1F4FF8018081805D0E94362401501E
:1039B00010400C171D07B1F728960FB6F894DEBF1C
:1039C0000FBECDBFCF91DF911F910F910895CF937F
:1039D000DF93EC0102C00E943624FE0121968491FF
:1039E0008823C9F7DF91CF910895CF93DF93EC013E
:1039F00003C021960E94362488818823D1F7DF9165
:103A0000CF9108953D98459A08958091750581302C
:103A100091F4359910C010927505E6E7F5E0DF01E5
:103A20001E978CE00D9001928150E1F78091660520
:103A3000886080936605089580917405882329F035
:103A4000809166058260809366050895CF93DF9329
:103A500080916605882309F478C0C82FD0E0CE0194
:103A600080769070892B09F181E080936505C6FF0F
:103A700014C0C5FF02C08FEF01C08DEF0E94FF236D
:103A800081E00E94471E809166058F7E80936605C7
:103A90008091660584FFFCCF03C08EEF0E94FF2358
:103AA000809166058F7980936605C4FF04C081E02C
:103AB0008093640550C0C0FF07C00E94D01E809153
:103AC00066058E7F80936605C3FF12C080916505F1
:103AD000803149F480E2809365050E94E3280E94CA
:103AE00005291092740580916605877F809366058D
:103AF000C1FF1AC080916505883089F480E1809308
:103B000065050E9405290E947F288091830681FF18
:103B100004C081E08093740502C010927405809106
:103B200066058D7F80936605C2FF0FC00E94DC167C
:103B3000892B21F088E08093650502C0109265050D
:103B4000809166058B7F80936605809165058473FF
:103B500011F00E940529DF91CF91089580916505AC
:103B6000803151F481E08093740506C00E94261DC7
:103B700080916405882341F40E94DC16892BB1F7FB
:103B800080916505803191F308950F931F930E94F2
:103B9000421E80916505813021F482E00E94471E1B
:103BA0002DC01092650582E094E00E94213226C06B
:103BB0009A3011F09D3021F5E12FF0E0EE5FFB4FE0
:103BC00010820E94261D809164058823B9F480919B
:103BD0000204882389F0843229F482E094E00E9470
:103BE0004D320AC080916505813011F48CE004C02B
:103BF00082E094E00E9495060E94711E00E013C0CE
:103C0000002321F0993209F500E01FC09132E8F05D
:103C10009F32D9F0983211F401E017C0153428F022
:103C20008EE00E94711E10E010C0892F8156A12FD6
:103C3000B0E0E12FEF5F8A3120F4AE5FBB4F9052CE
:103C400002C0AE5FBB4F9C931E2F0E947E24982F14
:103C50008F3F09F0ADCF80917405882329F08091C2
:103C600066058260809366050E94261D809164052A
:103C7000882359F31F910F91089588E795E00E94DA
:103C8000E71C089586EA96E00E94E71C08951F93BA
:103C9000182F80E197E00E94E71C133091F0143058
:103CA00028F4113041F01230B1F408C0143061F042
:103CB000153089F40CC08EEF96E00BC08AEE96E0CA
:103CC00008C088ED96E005C080ED96E002C087EC64
:103CD00096E00E94E71C83EC96E00E94E71C1F918F
:103CE00008951F93182F882319F48FE498E054C087
:103CF00087E498E00E94E71C173099F1183078F4B7
:103D0000133019F1143030F41130C9F0123009F0C9
:103D100041C018C01530F9F0163000F519C01B303D
:103D200061F11C3028F4193011F11A3018F51CC05B
:103D30001D3049F11D3020F11E3061F527C085E3AB
:103D400098E026C08DE198E023C087E098E020C08D
:103D500088EF97E01DC082EE97E01AC080ED97E0F3
:103D600017C08FEB97E014C083EB97E011C084EA93
:103D700097E00EC083E897E00BC08AE797E008C0A1
:103D80008FE697E005C08CE597E002C08EE497E0EF
:103D90000E94E71C8BE497E00E94E71C1F910895A6
:103DA000AF92BF92CF92DF92EF92FF920F931F9349
:103DB000DF93CF93CDB7DEB768970FB6F894DEBF29
:103DC0000FBECDBFDE011196E8E6F5E08CE0019074
:103DD0000D928150E1F7809165058430E1F08530E6
:103DE00038F48130D9F0813050F08230F1F419C0CC
:103DF000803159F0803261F08830B9F403C08EE22E
:103E000091E011C087E291E00EC082E291E00BC028
:103E10008CE191E008C086E191E005C08FE091E07F
:103E200002C088E091E00E94E71C81E091E00E94DE
:103E3000E71C8DE0E82EF12CEC0EFD1E670100E082
:103E400010E05E010894A11CB11CF501E00FF11F08
:103E500060817181828193810E942135F801EE5B3E
:103E6000F94F20813181428153810E9486349B0128
:103E7000AC01F60160837183828393838091830612
:103E800080FF0DC0CA01B9012BE832E441E25DE3D5
:103E90000E945437F6016083718382839383F60115
:103EA00061917191819191916F010E94891B8FEFB6
:103EB00090E00E94E71C0C5F1F4F0C30110529F6A3
:103EC00089EF90E00E94E71C0CE315E0DD2480916F
:103ED000830680FF1BC0F80160817181828193811C
:103EE00024853585468557850E94A6332BE832E424
:103EF00041E25DEB0E9454379B01AC01F701608108
:103F00007181828193810E94A63314C0F80160817F
:103F100071818281938124853585468557850E94EC
:103F2000A6339B01AC01F70160817181828193818D
:103F30000E94A533F7016083718382839383F70125
:103F400060817181828193810E94891BF2E0DF167A
:103F500021F087EF90E00E94E71CD39484E090E08A
:103F6000E80EF91E0C5F1F4F93E0D91609F0AFCF92
:103F700083EF90E00E94E71C68960FB6F894DEBFCE
:103F80000FBECDBFCF91DF911F910F91FF90EF90AA
:103F9000DF90CF90BF90AF900895BF92CF92DF9205
:103FA000EF92FF920F931F93DF93CF93CDB7DEB7BE
:103FB0002C970FB6F894DEBF0FBECDBF8AEF91E00D
:103FC0000E94E71C26E7C22E25E0D22E92E4E92EBD
:103FD00096E0F92E8E010F5F1F4FBB24F601608122
:103FE0007181828193810E942135F7012081318185
:103FF000428153810E9486349B01AC01F8016083A9
:104000007183828393838091830680FF0DC0CA01F0
:10401000B9012BE832E441E25DE30E945437F80134
:104020006083718382839383F801608171818281CF
:1040300093810E94891BF2E0BF1621F088EF91E086
:104040000E94E71CB39484E090E0C80ED91EE80EED
:10405000F91E0C5F1F4F93E0B91609F0BFCF84EF34
:1040600091E00E94E71C2C960FB6F894DEBF0FBEBD
:10407000CDBFCF91DF911F910F91FF90EF90DF9017
:10408000CF90BF9008950F931F938C0188E391E028
:104090000E94E71CC8010E94F51C84E391E00E9485
:1040A000E71C1F910F910895CF92DF92EF92FF923C
:1040B0000F931F93E82E6B018DE491E00E94E71CA3
:1040C000FF2400E010E0C801B7010E949A1C8BE4B5
:1040D00091E00E94E71CC6010E94F51C88E491E073
:1040E0000E94E71C1F910F91FF90EF90DF90CF90FF
:1040F000089580911C05823091F0833028F4882344
:1041000041F08130B1F408C0833061F0853089F42A
:104110000CC08BEB91E00BC087EB91E008C083EB08
:1041200091E005C08FEA91E002C08AEA91E00E9426
:10413000E71C87EA91E00E94E71C60913B0570E074
:104140006A5C7F4F882777FD8095982F0E949A1C84
:1041500080913805882351F480913905813019F414
:1041600082EA91E005C08DE991E002C088E991E022
:104170000E94E71C80911E05882319F083E991E0D5
:1041800002C08EE891E00E94E71C80911F05882301
:1041900019F089E891E002C084E891E00E94E71CF0
:1041A00080911D05882319F08FE791E002C08AE70E
:1041B00091E00E94E71C80912005813041F0813020
:1041C00018F0823059F406C086E791E005C082E716
:1041D00091E002C08EE691E00E94E71C80912205EA
:1041E000813029F0813048F0823059F403C08AE6EA
:1041F00091E005C086E691E002C082E691E00E946F
:10420000E71C80912105882319F0813041F403C017
:104210008EE591E002C08AE591E00E94E71C87E507
:1042200091E00E94E71C6091370570E080E090E02B
:104230000E949A1C84E591E00E94E71C80911E0573
:10424000882379F0609127057091280580912905D0
:1042500090912A052BE832E441E25DE30E94543755
:1042600008C06091270570912805809129059091DB
:104270002A050E94891B80E591E00E94E71C0895B1
:10428000CF92DF92EF92FF920F931F93DF93CF9322
:10429000CDB7DEB72C970FB6F894DEBF0FBECDBFFB
:1042A000FF246E010894C11CD11C8F2DB6010E9401
:1042B000BA27882321F48AE00E94711E92C081EF00
:1042C00091E00E94E71C83E0F816E9F08F1530F0CA
:1042D000E1E0FE1691F0EF1598F00CC0F5E0FF1646
:1042E000C1F0FF1698F086E0F816B1F0E7E0FE1690
:1042F000D1F415C08DEE91E014C089EE91E011C0AB
:1043000085EE91E00EC081EE91E00BC08DED91E065
:1043100008C089ED91E005C085ED91E002C081ED16
:1043200091E00E94E71C8601EE248091830680FFC5
:104330000CC0F80160817181828193812BE832E4A5
:1043400041E25DE30E94543705C0F801608171814C
:10435000828193810E94891BF2E0EF1619F08FECA5
:1043600091E002C08BEC91E00E94E71CE3940C5FAB
:104370001F4F83E0E816C9F6F394E8E0FE1609F053
:1043800094CF85EC91E00E94E71C08E415E0FF243F
:104390008091830680FF0CC0F80160817181828169
:1043A00093812BE832E441E25DE30E94543705C07B
:1043B000F80160817181828193810E94891BF2E002
:1043C000FF1619F083EC91E002C08FEB91E00E94A0
:1043D000E71CF3940C5F1F4F83E0F816C9F60E94A8
:1043E000CD1F2C960FB6F894DEBF0FBECDBFCF9178
:1043F000DF911F910F91FF90EF90DF90CF90089584
:1044000084E795E00E94E71C6091420670914306A4
:1044100080914406909145060E94891B81E695E0B3
:104420000E94E71C609146067091470680914806FD
:10443000909149060E94891B8EE495E00E94E71C3A
:1044400060914A0670914B0680914C0690914D0602
:104450000E94891B8BE395E00E94E71C60914E0649
:1044600070914F0680915006909151060E94891BD1
:1044700080E295E00E94E71C60915206709153061D
:1044800080915406909155060E94891B85E095E025
:104490000E94E71C6091560670915706809158065D
:1044A000909159060E94891B8AEE94E00E94E71CB5
:1044B00060915A0670915B0680915C0690915D0652
:1044C00020E030E041E655E40E9486340E94891BDA
:1044D00080ED94E00E94E71C60915E0670915F069B
:1044E000809160069091610620E030E041E655E45D
:1044F0000E9486340E94891B86EB94E00E94E71C90
:1045000060916206709163068091640690916506E1
:1045100020E030E041E655E40E9486340E94891B89
:104520008CE994E00E94E71C609166067091670632
:10453000809168069091690690580E94891B82E8D4
:1045400094E00E94E71C60916A0670916B0680916E
:104550006C0690916D0690580E94891B88E694E045
:104560000E94E71C60916E0670916F068091700644
:104570009091710690580E94891B8EE494E00E94ED
:10458000E71C6091720670E080E090E00E949A1C47
:1045900084E394E00E94E71C6091730670917406B6
:1045A00080917506909176060E94891B86E194E0C1
:1045B0000E94E71C6091770670E080E090E00E9426
:1045C0009A1C8DEF93E00E94E71C809177060E9471
:1045D000B61C85EF93E00E94E71C6091780670E0BE
:1045E00080E090E00E949A1C8DED93E00E94E71C11
:1045F000809178060E94B61C85ED93E00E94E71C2E
:104600006091790670E080E090E00E949A1C86EB51
:1046100093E00E94E71C60917A0670917B0680917E
:104620007C0690917D060E94891B86E993E00E949A
:10463000E71C60917E0670917F06809180069091C4
:1046400081060E94891B8BE793E00E94E71C609122
:10465000820670E080E090E00E949A1C82E693E07F
:104660000E94E71C6091830670E080E090E061703A
:104670007070807090700E949A1C85E493E00E9494
:10468000E71C6091830670E07695679580E090E086
:1046900061707070807090700E949A1C8BE293E041
:1046A0000E94E71C6091830670E076956795769589
:1046B000679580E090E061707070807090700E94EB
:1046C0009A1C89E093E00E94E71C6091830670E0E9
:1046D000E6E076956795EA95E1F780E090E0617015
:1046E0007070807090700E949A1C88EE92E00E9418
:1046F000E71C6091830670E055E0769567955A95C2
:10470000E1F780E090E061707070807090700E94BE
:104710009A1C8DEC92E00E94E71C6091830670E089
:1047200043E0769567954A95E1F780E090E0617007
:104730007070807090700E949A1C82EB92E00E94D0
:10474000E71C6091830670E034E0769567953A95B2
:10475000E1F780E090E061707070807090700E946E
:104760009A1C86E992E00E94E71C6091840670E042
:1047700080E090E00E949A1C8CE792E00E94E71C87
:10478000809184060E94B61C84E792E00E94E71C98
:1047900060918506709186068091870690918806C3
:1047A0000E94891B87E592E00E94E71C60918906C0
:1047B00070918A0680918B0690918C060E94891BCD
:1047C0008AE392E00E94E71C60918D0670918E064C
:1047D00080E090E00E949A1C8BE192E00E94E71C2E
:1047E00060918F067091900680919106909192064B
:1047F0000E94891B82E092E00E94E71C08951F93AB
:10480000182F83E497E00E94E71C1E3F41F01F3FF2
:1048100019F01D3F59F406C083E397E005C080E21C
:1048200097E002C085E197E00E94E71C82E197E0F3
:104830000E94E71C84EF91E00E94AF161F9108953B
:10484000E0ECF0E08081826080831092C50080E11E
:104850008093C400E1ECF0E08081806180838081FE
:10486000886080838081806880830895282FE0910C
:104870004A049E2F9F5F903431F490E004C08091F1
:10488000660584FD0FC080914B049817C1F3F0E0DA
:10489000EE5FF94F208390934A048091C1008062BB
:1048A0008093C10008951F920F920FB60F921124AA
:1048B0008F939F93EF93FF9380914B04E82FF0E049
:1048C000EE5FF94F90819093C600982F9F5F9034D0
:1048D00009F490E090934B0480914A04981729F4CE
:1048E0008091C1008F7D8093C100FF91EF919F91D6
:1048F0008F910F900FBE0F901F90189590914904C3
:1049000080914804891711F48FEF0895E92FF0E0A2
:10491000EE57FA4F8081E92FEF5FE03809F4E0E0CD
:10492000E0934904089580914804809349040895D0
:104930001F920F920FB60F9211242F933F934F9314
:104940005F936F937F938F939F93AF93BF93EF93F7
:10495000FF932091C6002132A1F0223218F42831B1
:10496000B9F413C02F3319F02E3791F404C080919D
:104970006605816003C0809166058260809366054C
:1049800018C0809166058860F9CF0E94371111C068
:10499000E09148049E2F9F5F903809F490E0809149
:1049A0004904981731F0F0E0EE57FA4F20839093C6
:1049B0004804FF91EF91BF91AF919F918F917F91AB
:1049C0006F915F914F913F912F910F900FBE0F907C
:1049D0001F90189580E090E00E945904863011F0F5
:1049E00020E00CC082E496E061E070E041E550E038
:1049F0000E94CC0420E0892B09F021E0822F089549
:104A000080E090E066E00E94610481E090E062E472
:104A100076E041E550E00E9483040895EF92FF9212
:104A20000F931F93CF93DF93EC017A018B01CB019E
:104A3000BA0120E030E040E050E00E947F3488235B
:104A400014F488E0ADC1FE01C032D10540F4EC5C45
:104A5000FF4FEE0FFF1F0590F491E02D099486E0C3
:104A60009FC1CC0FDD1FCC0FDD1FCE5BD94FE8827D
:104A7000F9820A831B8391C1E0924E06F0924F06A1
:104A8000009350061093510688C1E0925206F092AE
:104A9000530600935406109355067FC1E0925606C4
:104AA000F0925706009358061093590676C1C80134
:104AB000B70120E030E040E752E40E94543720E0A4
:104AC00030E040E752E40E94543760935A067093F6
:104AD0005B0680935C0690935D065FC1C801B701D9
:104AE00020E030E040E752E40E94543720E030E01C
:104AF00040E752E40E94543760935E0670935F066D
:104B0000809360069093610648C1C801B70120E018
:104B100030E040E752E40E94543720E030E040E7C4
:104B200052E40E9454376093620670936306809348
:104B300064069093650631C1D801C701B0588093CF
:104B4000660690936706A0936806B093690625C130
:104B5000D801C701B05880936A0690936B06A09362
:104B60006C06B0936D0619C1D801C701B058809387
:104B70006E0690936F06A0937006B09371060DC1F8
:104B8000C801B70120E030E040E450E40E947F34E7
:104B9000882314F489E004C1C801B7010E94B73723
:104BA0000E94F33460937206F8C0E0927306F092AC
:104BB00074060093750610937606EFC0C801B7011E
:104BC0000E9422380E94F33460937706E6C0C80141
:104BD000B7010E9422380E94F33460937806DDC04A
:104BE000C801B7010E94B7370E94F3346093790679
:104BF000D4C0D801C701BF7780937A0690937B0613
:104C0000A0937C06B0937D06C8C0E0927E06F09229
:104C10007F060093800610938106BFC0C801B701CC
:104C20000E94B7370E94F33460938206B6C0C80171
:104C3000B70120E030E040E050E00E947F3488235C
:104C400021F080918306816011C0809183068E7F60
:104C50000DC0C801B70120E030E040E050E00E9404
:104C60007F34882331F080918306826080938306AD
:104C700094C0809183068D7FF9CFC801B70120E0F1
:104C800030E040E050E00E947F34882321F08091A2
:104C900083068460EBCF809183068B7FE7CFC801CA
:104CA000B70120E030E040E050E00E947F348823EC
:104CB00021F0809183068064D9CF809183068F7B19
:104CC000D5CFC801B70120E030E040E050E00E94BD
:104CD0007F34882341F08091830684FD02C08DE0FB
:104CE0005FC08062C3CF809183068F7DBFCFC80134
:104CF000B70120E030E040E050E00E947F3488239C
:104D000021F080918306886003C080918306877FAD
:104D1000809383060E94430E40C0C801B70120E083
:104D200030E040E050E00E947F34882321F0809101
:104D3000830680619BCF809183068F7C97CFC801CB
:104D4000B7010E9422380E94F3346093840625C084
:104D5000E0928506F09286060093870610938806F7
:104D60001CC0E0928906F0928A0600938B0610938D
:104D70008C0613C0C801B7010E94B7370E94F334F4
:104D800070938E0660938D0608C0E0928F06F092B5
:104D9000900600939106109392060E94002580E0F1
:104DA000DF91CF911F910F91FF90EF90089586EFC3
:104DB0009AE7ADE9B3E48093420690934306A0934B
:104DC0004406B09345068093460690934706A09309
:104DD0004806B093490680934A0690934B06A093E9
:104DE0004C06B0934D068AE08093720680E090E016
:104DF000AEE7B3E48093730690937406A0937506B0
:104E0000B093760620E030EC4EE154E420934E0659
:104E100030934F064093500650935106209352060C
:104E200030935306409354065093550620935606EC
:104E300030935706409358065093590680E098ECFB
:104E4000AFE2B8E480935A0690935B06A0935C06A9
:104E5000B0935D0680935E0690935F06A093600614
:104E6000B09361068093620690936306A0936406F4
:104E7000B09365068FE692E1A3E0BBE380937E06E4
:104E800090937F06A0938006B093810610927706D8
:104E900080EC809378068AE097EDA3EABCE38093E8
:104EA0007A0690937B06A0937C06B0937D0682E001
:104EB000809383061092840680E090E0A8E4B2E438
:104EC0008093850690938606A0938706B093880604
:104ED0002093890630938A0640938B0650938C0664
:104EE0008AEF90E090938E0680938D0680E090E0AC
:104EF000A0E8BFE380938F0690939006A09391065D
:104F0000B093920689E18093790683E080938206CC
:104F100080E090E0A1E6B3EC80936606909367068C
:104F2000A0936806B093690680E090E0AAEFB2EC27
:104F300080936A0690936B06A0936C06B0936D06FF
:104F400080E090E0AAE2B3EC80936E0690936F0647
:104F5000A0937006B09371060E94002508959DE00D
:104F6000899FC001112480509E4F4CE050E00E9468
:104F7000830408950F931F93CF93DF93162F072F6A
:104F80009DE0899FE0011124C050DE4F862F972FAE
:104F9000BE014CE050E00E94CC04892B11F081E06E
:104FA0000FC0E12FF02F8CE0DF011D928A95E9F709
:104FB000CE01612F702F4CE050E00E94830480E00E
:104FC000DF91CF911F910F910895EF92FF921F9360
:104FD000DF93CF93CDB7DEB72C970FB6F894DEBF33
:104FE0000FBECDBF0E94EA24882339F48AE00E94D4
:104FF000711E0E94D7260E94002210E07E010894B4
:10500000E11CF11C812FB7010E94BA27882319F4F3
:105010008AE00E94711E1F5F1830A1F72C960FB610
:10502000F894DEBF0FBECDBFCF91DF911F91FF90EF
:10503000EF900895BC0180EE93E046E450E00E94BA
:1050400083040895CF93DF93EC0160EE73E046E4B0
:1050500050E00E94CC04892B11F081E009C0188235
:1050600080EE93E0BE0146E450E00E94830480E0BD
:10507000DF91CF91089597E4899FC001112480505A
:105080009D4F46E450E00E94830408950F931F93C0
:10509000CF93DF938B0197E4899FE0011124C050E7
:1050A000DD4FCB01BE0146E450E00E94CC04892BC9
:1050B00011F081E009C0F8011082CE01B80146E488
:1050C00050E00E94830480E0DF91CF911F910F9107
:1050D0000895249A259A2C9808952C9808951F9342
:1050E000182F0E94AE1D112311F42C9806C0113008
:1050F00011F42D9801C02D9A2C9A1F91089580913A
:10510000830682FF02C0289A01C028988091650515
:105110008471A1F0809178068093D4048091770601
:105120008093D30480917206880F84508195809378
:10513000D20480916F00826080936F0008951F9267
:105140000F920FB60F9211248F939F939BB1809172
:1051500077068C71937E892B8BB915BC9F918F91AB
:105160000F900FBE0F901F9018958AB18C618AB96D
:105170008BB1837E90917706892B8BB9209A8AB167
:10518000806E8AB98BB18F7190917806892B8BB91B
:10519000E1E8F0E080818F7E808380818860808379
:1051A000E0E8F0E080818C7F808380818F70808355
:1051B000EEE6F0E08081887F808314BC15BC80819E
:1051C000816080830895CF93DF93C091EC04D091E8
:1051D000ED042097B9F081E08093F1042091070558
:1051E000309108054091090550910A05CA01B9019D
:1051F0000E945437698B7A8B8B8B9C8B1092ED04B9
:105200001092EC04DF91CF9108952F923F924F922C
:105210005F926F927F928F929F92AF92BF92CF9246
:10522000DF92EF92FF920F931F93DF93CF93CDB74F
:10523000DEB7E9970FB6F894DEBF0FBECDBF17C635
:105240008091EC049091ED04892B09F07EC20E94BC
:10525000DC169093ED048093EC04892B09F40EC6C0
:105260008091F104882319F01092F104CAC0809152
:10527000F0048F5F8093F004853011F41092F004F5
:10528000E091F00421E1E29FF0011124E45BFB4F87
:10529000F093EF04E093EE040091EC041091ED0420
:1052A000D8018C91808311962D913D914D915C9107
:1052B000149773E0220F331F441F551F7A95D1F7BF
:1052C000218332834383548315962D913D914D91D3
:1052D0005C91189763E0220F331F441F551F6A9596
:1052E000D1F7258336834783508719962D913D91B9
:1052F0004D915C911C9793E0220F331F441F551F63
:105300009A95D1F721873287438754871D962D912F
:105310003D914D915C91509783E0220F331F441FC4
:10532000551F8A95D1F7258736874787508B1D965D
:105330006D917D918D919C9150970E941F35609346
:10534000F2047093F3048093F4049093F504F8014D
:1053500025A136A147A150A50E9486349B01AC012E
:105360006093F6047093F7048093F8049093F90423
:1053700060E070E080EA9FE30E9486346093FA0464
:105380007093FB048093FC049093FD0480E090E014
:10539000A0E0B0E08093FE049093FF04A09300058A
:1053A000B0930105809165058032E1F420910F05ED
:1053B0003091100540911105509112052093070579
:1053C000309308054093090550930A05CA01B901B5
:1053D0000E945437D80151966D937D938D939C9381
:1053E00054970FC0F80161897289838994890E945A
:1053F000E137609307057093080580930905909342
:105400000A0580E090E0A0E0B0E08093030590936F
:105410000405A0930505B09306050091EC041091D6
:10542000ED04D80191968D919D910D90BC91A02D88
:1054300088AB99ABAAABBBAB60E070E080E09FE3C8
:1054400028A939A94AA95BA90E9486341B012C010D
:1054500080916505803209F056C0B2E0B093020534
:10546000F801A5A0B6A0C7A0D0A4618872888388DF
:105470009488C201B101A40193010E9454379B0199
:10548000AC01C601B5010E94A5337B018C0120E06F
:1054900030E040E050E00E947F348823FCF468A9AB
:1054A00079A98AA99BA920E030E040E050EC0E9455
:1054B0005437A60195010E9454379B01AC01C401E9
:1054C000B3010E94A6330E94E13760930F057093E9
:1054D0001005809311059093120537C1E0920305E2
:1054E000F0920405009305051093060580E090E016
:1054F000A0E0B0E080930F0590931005A0931105F4
:10550000B093120522C110920205F80185A196A15F
:10551000A7A1B0A58093130590931405A09315053A
:10552000B09316050E9450185B016C0160930F0543
:10553000709310058093110590931205A6019501B3
:105540000E9454373B014C012091EC043091ED0452
:1055500039AF28AFD90195968D919D910D90BC9151
:10556000A02D8B8F9C8FAD8FBE8FF90161897289C1
:1055700083899489A40193010E94A5339B01AC0106
:10558000C201B1010E9454379B01AC016B8D7C8D2F
:105590008D8D9E8D0E94A63320E030E040E05FE3D9
:1055A0000E9454377B018C0120E030E040E050E065
:1055B0000E94823618160CF0B4C0C801B7012B8DBA
:1055C0003C8D4D8D5E8D0E947F3488230CF095C0FC
:1055D000A8ADB9AD5D966D917D918D919C9190979F
:1055E000A40193010E94A5339B01AC01C201B1014A
:1055F0000E9454376093170570931805809319051E
:1056000090931A05A80197010E947F3488230CF01B
:1056100047C0E8ADF9ADE58CF68C078D10A1C80147
:10562000B7010E94E13760930B0570930C058093DE
:105630000D0590930E05A8ADB9AD5196AD90BD90F6
:10564000CD90DC905497C601B501A80197010E9446
:105650007F34882321F4B1E0B093020576C0C801FD
:10566000B701A60195010E94A5339B01AC01C201BF
:10567000B1010E9454379B01AC01609113057091F8
:10568000140580911505909116050E94A53360932D
:10569000130570931405809315059093160555C056
:1056A000E0921305F092140500931505109316056A
:1056B000E0921705F09218050093190510931A054A
:1056C000E8ADF9AD21A132A143A154A1CA01B901AC
:1056D0000E94A633A80197010E945437A4019301A8
:1056E0000E94A6330E94E13760930B0570930C056E
:1056F00080930D0590930E0528C0F2E0F09302050B
:105700008091070590910805A0910905B0910A05BF
:1057100080930B0590930C05A0930D05B0930E0597
:1057200014C080E090E0A0E0B0E080931305909377
:105730001405A0931505B0931605A0920B05B09221
:105740000C05C0920D05D0920E058091E904B6E0DB
:105750008B9FD0011124AF55BB4FB9AFA8AF80913B
:10576000F00412968C93E091EC04F091ED04FA8F22
:10577000E98F85A196A1A7A1B0A58D8B9E8BAF8B3C
:10578000B88FBC01CD012091FA043091FB04409107
:10579000FC045091FD040E94A5336CA37DA38EA34D
:1057A0009FA320E030E040E050E00E947F34882357
:1057B00044F480E090E0A0E0B0E08CA39DA3AEA311
:1057C000BFA38091130590911405A0911505B09188
:1057D0001605898B9A8BAB8BBC8B80910B059091B6
:1057E0000C05A0910D05B0910E058D879E87AF87A2
:1057F000B88B8091170590911805A0911905B0916B
:105800001A0589879A87AB87BC8780910305909199
:105810000405A0910505B09106058D839E83AF8395
:10582000B88780910F0590911005A0911105B09156
:10583000120589839A83AB83BC838091070590917D
:105840000805A0910905B0910A0588A399A3AAA308
:10585000BBA3909102059F8FAD88BE88CF88D88C5E
:105860008EE393ECAEE2B9E38CA79DA7AEA7BFA7EA
:1058700080E090E0A0E0B0E088A799A7AAA7BBA726
:105880000F2EFEE36F2EF3EC7F2EFEE28F2EF9E358
:105890009F2EF02D9F8D992321F0913009F0B3C0F8
:1058A00080C0C401B301A98DBA8D91962D913D910F
:1058B0004D915C9194970E9454377B018C0120E0BC
:1058C00030E040E05FE30E9454379B01AC0168A1E7
:1058D00079A18AA19BA10E94A6339B01AC01C401BE
:1058E000B3010E9454379B01AC01C601B5010E946F
:1058F000A5335B016C0129893A894B895C890E9437
:105900007F3488230CF040C069897A898B899C890F
:1059100029853A854B855C850E947F34882319F45C
:10592000B2E0BF8F02C0E1E0EF8F6D897E898F8981
:10593000988D29893A894B895C890E94A5339B01FE
:10594000AC010E94A6337B018C0168A179A18AA1D8
:105950009BA12D853E854F8558890E94A6339B01CA
:10596000AC01C801B7010E9486343B014C01A988F3
:10597000BA88CB88DC888D859E85AF85B88988A359
:1059800099A3AAA3BBA3B0C068A179A18AA19BA136
:10599000A80197010E94A63368A379A38AA39BA3B9
:1059A000A3C06D857E858F859889A40193010E948F
:1059B00054379B01AC01C601B5010E94A5337B01A0
:1059C0008C0129853A854B855C850E947F3487FD53
:1059D00003C05701680188C0C601B50129853A8511
:1059E0004B855C850E94A5332D853E854F85588962
:1059F0000E9486343B014C01A984BA84CB84DC84A8
:105A000092E09F8F71C0C401B301A98DBA8D9196A8
:105A10002D913D914D915C9194970E9454377B015B
:105A20008C0168A179A18AA19BA1A80197010E947C
:105A300082361816ACF5C801B70120E030E040E02E
:105A40005FEB0E9454379B01AC0168A179A18AA148
:105A50009BA10E94A6339B01AC01C401B3010E942B
:105A600054379B01AC01C601B5010E94A5331B014F
:105A70002C012D813E814F8158850E948236181657
:105A80007CF468A179A18AA19BA1A80197010E9439
:105A9000A53368A379A38AA39BA36201510124C003
:105AA000C601B5012D813E814F8158850E94A533E5
:105AB0009B01AC010E94A6337B018C0168A179A1F6
:105AC0008AA19BA129813A814B815C810E94A633E6
:105AD0009B01AC01C801B7010E9486343B014C0117
