:100000000C9418040C9435040C9435040C94970E3D
:100010000C94A4300C9435040C9435040C943504E1
:100020000C9435040C9435040C9435040C94642E13
:100030000C9435040C9435040C9435040C9435045C
:100040000C945E270C9435040C9470230C942B2391
:100050000C9435040C9435040C9435040C9435043C
:100060000C9435040C94350409240924092414241F
:100070001D2426242F2446245D24742480248C24CB
:100080009824AD24B624BF24C824D424DD24E62437
:10009000F8240C251E25302546255C256E25772560
:1000A000802589259425084AD73B3BCE016E84BC28
:1000B000BFFDC12F3D6C74319ABD56833DDA3D00C2
:1000C000C77F11BED9E4BB4C3E916BAAAABE00000B
:1000D00000803F05A84CCDB2D44EB93836A9020CE9
:1000E00050B9918688083CA6AAAA2ABE00000080C2
:1000F0003F3E0D0A002C0057506F733A002C002C25
:100100004D506F733A003C436865636B003C416C33
:1001100061726D003C486F6D65003C486F6C640017
:100120003C52756E003C5175657565003C49646CC8
:1001300065005D0D0A005B302E39652E323031349A
:10014000303532353A000D0A003D00244E005D0D79
:100150000A00204600205400204D3800204D390070
:10016000204D3500204D3400204D3300204D32000D
:10017000204D3100204D30002047393400204739D0
:1001800033002047393100204739300020473230D2
:1001900000204732310020473139002047313800F4
:1001A00020473137002047005B473830005B47333A
:1001B000005B4732005B4731005B4730005D0D0A52
:1001C000002C005B4739323A005D0D0A002C003AE2
:1001D000003330003238005B47005D0D0A002C0010
:1001E0005B50726F62653A002028686F6D696E67B8
:1001F0002070756C6C2D6F66662C206D6D290D0A54
:10020000002028686F6D696E67206465626F756E87
:1002100063652C206D736563290D0A2433303D001E
:100220002028686F6D696E67207365656B2C206D83
:100230006D2F6D696E290D0A2432393D0020286822
:100240006F6D696E6720666565642C206D6D2F6D1E
:10025000696E290D0A2432383D00290D0A243237EF
:100260003D002028686F6D696E672064697220699F
:100270006E76657274206D61736B3A002028686F2A
:100280006D696E67206379636C652C20626F6F6C9B
:10029000290D0A2432363D00202868617264206CE2
:1002A000696D6974732C20626F6F6C290D0A24329A
:1002B000353D002028736F6674206C696D69747316
:1002C0002C20626F6F6C290D0A2432343D002028E7
:1002D000696E76657274206C696D69742070696EE0
:1002E000732C20626F6F6C290D0A2432333D00207D
:1002F00028696E76657274207374657020656E610E
:10030000626C652C20626F6F6C290D0A2432323DBD
:100310000020286175746F2073746172742C2062E0
:100320006F6F6C290D0A2432313D002028726570F0
:100330006F727420696E636865732C20626F6F6CD6
:10034000290D0A2432303D0020286E2D6465636932
:100350006D616C732C20696E74290D0A2431393D4E
:1003600000202861726320746F6C6572616E636532
:100370002C206D6D290D0A2431383D0020286A7526
:100380006E6374696F6E20646576696174696F6EFF
:100390002C206D6D290D0A2431373D0020287374FF
:1003A00065702069646C652064656C61792C206DD2
:1003B000736563290D0A2431363D00290D0A243165
:1003C000353D00202864697220706F727420696E58
:1003D00076657274206D61736B3A00290D0A2431C1
:1003E000343D0020287374657020706F727420692A
:1003F0006E76657274206D61736B3A002028737499
:1004000065702070756C73652C2075736563290D9C
:100410000A2431333D0020287A206D6178207472DF
:100420006176656C2C206D6D290D0A2431323D00FA
:10043000202879206D61782074726176656C2C209B
:100440006D6D290D0A2431313D00202878206D6121
:10045000782074726176656C2C206D6D290D0A24EC
:1004600031303D0020287A20616363656C2C206D5B
:100470006D2F7365635E32290D0A24393D002028F3
:100480007920616363656C2C206D6D2F7365635EED
:1004900032290D0A24383D002028782061636365E5
:1004A0006C2C206D6D2F7365635E32290D0A243725
:1004B0003D0020287A206D617820726174652C20BF
:1004C0006D6D2F6D696E290D0A24363D0020287947
:1004D000206D617820726174652C206D6D2F6D69BF
:1004E0006E290D0A24353D00202878206D61782082
:1004F000726174652C206D6D2F6D696E290D0A2453
:10050000343D0020287A2C20737465702F6D6D297E
:100510000D0A24333D002028792C20737465702F38
:100520006D6D290D0A24323D002028782C2073742B
:1005300065702F6D6D290D0A24313D0024303D007A
:100540002424202876696577204772626C207365C1
:100550007474696E6773290D0A24232028766965EF
:1005600077202320706172616D6574657273290D47
:100570000A24472028766965772070617273657256
:10058000207374617465290D0A244E2028766965EC
:1005900077207374617274757020626C6F636B7313
:1005A000290D0A24783D76616C7565202873617683
:1005B00065204772626C2073657474696E67290DDB
:1005C0000A244E783D6C696E65202873617665203B
:1005D0007374617274757020626C6F636B290D0A9D
:1005E00024432028636865636B2067636F6465201C
:1005F0006D6F6465290D0A245820286B696C6C2086
:10060000616C61726D206C6F636B290D0A24482048
:100610002872756E20686F6D696E67206379636CF0
:1006200065290D0A7E20286379636C6520737461E7
:100630007274290D0A2120286665656420686F6C34
:1006400064290D0A3F202863757272656E742073E9
:100650007461747573290D0A6374726C2D78202887
:100660007265736574204772626C290D0A000D0A69
:100670004772626C20302E3965205B272427206664
:100680006F722068656C705D0D0A005D0D0A004494
:10069000697361626C656400456E61626C656400DB
:1006A00043617574696F6E3A20556E6C6F636B654C
:1006B0006400272448277C2724582720746F20753E
:1006C0006E6C6F636B00526573657420746F20638A
:1006D0006F6E74696E7565005B000D0A0050726F75
:1006E0006265206661696C0041626F727420647596
:1006F00072696E67206379636C6500486172642F6C
:10070000736F6674206C696D697400414C41524D81
:100710003A20000D0A00496E76616C6964206763B7
:100720006F64652049443A00556E646566696E657C
:10073000642066656564207261746500556E73752A
:1007400070706F7274656420636F6D6D616E6400AC
:100750004D6F64616C2067726F75702076696F6C85
:100760006174696F6E004C696E65206F76657266A4
:100770006C6F7700486F6D696E67206E6F742065CF
:100780006E61626C656400416C61726D206C6F63B8
:100790006B004E6F742069646C6500454550524F84
:1007A0004D2072656164206661696C2E2055736905
:1007B0006E672064656661756C74730056616C7554
:1007C00065203C203320757365630053657474693C
:1007D0006E672064697361626C65640056616C7554
:1007E00065203C203000496E76616C69642073742A
:1007F0006174656D656E7400426164206E756D6232
:10080000657220666F726D617400457870656374FF
:10081000656420636F6D6D616E64206C65747465D2
:1008200072006572726F723A20006F6B0D0A0000E1
:1008300011241FBECFEFD8E0DEBFCDBF11E0A0E096
:10084000B1E0E0E9FDE602C005900D92A030B107ED
:10085000D9F716E0A0E0B1E001C01D92A33BB107BB
:10086000E1F70E94CC100C94C6360C9400003B9A21
:1008700043980895439808951F93182F80918905F0
:10088000823039F40E94F01C123011F4439A01C0F6
:1008900043981F910895F999FECF92BD81BD81E0E3
:1008A0008FBB80B50895F894F999FECF92BD81BDB4
:1008B00081E08FBB40B54627842F992787FD90950F
:1008C000262F30E082239323892B39F06F3F19F0D4
:1008D00060BD84E006C084E104C0442321F060BD13
:1008E00084E28FBBF99A789408958F929F92AF9289
:1008F000BF92CF92DF92EF92FF920F93DF93CF934D
:1009000000D0CDB7DEB75C016B017A014A0100E08F
:100910001EC0002319F021E030E008C0202F33274B
:1009200027FD30952227330F221F3327F6016191CF
:100930006F01062F020F9C012F5F3F4F3A832983DF
:100940000E94530408948108910889819A81811436
:100950009104F9F6C7018A0D9B1D602F0E94530474
:100960000F900F90CF91DF910F91FF90EF90DF905C
:10097000CF90BF90AF909F908F900895CF93DF93CB
:10098000EC01FB019A0190E0B1E019C0F999FECFAA
:10099000F2BDE1BDBFBBA0B5992319F081E090E0A5
:1009A00008C0892F992787FD90958827990F881F60
:1009B000992731969A2F980FA993215030402115ED
:1009C000310521F7460F571FF999FECF52BD41BDA2
:1009D00081E08FBB80B520E030E0981711F421E072
:1009E00030E0C901DF91CF91089560918C0570913D
:1009F0008D0580918E0590918F050E94EC3320919A
:100A000066063091670640916806509169060E941B
:100A1000503360932D0570932E0580932F0590938E
:100A200030056091900570919105809192059091AB
:100A300093050E94EC3320916A0630916B06409139
:100A40006C0650916D060E9450336093310570938F
:100A5000320580933305909334056091940570912D
:100A6000950580919605909197050E94EC33209111
:100A70006E0630916F0640917006509171060E948B
:100A80005033609335057093360580933705909306
:100A9000380508952F923F924F925F926F927F9206
:100AA0008F929F92AF92BF92CF92DF92EF92FF927E
:100AB0000F931F93DF93CF93CDB7DEB7A8970FB6F1
:100AC000F894DEBF0FBECDBF1C01E1E5F5E087E382
:100AD000DF011D928A95E9F73196ABE1B5E089E037
:100AE0000D9001928150E1F7198219A2AA24BB242A
:100AF00018A21F8E88247724F1E04F2E512C9924C0
:100B00009394E2E06E2E46C2802F81548A3118F011
:100B100081E00C94EB0D9F5F9983C101BE016F5F73
:100B20007F4FAE014E5F5F4F0E945115882319F42D
:100B300082E00C94EB0DCA80DB80EC80FD80C70165
:100B4000B6010E9477360E94BE33162F70E08827C8
:100B500077FD8095982F0E94EC339B01AC01C70173
:100B6000B6010E94643220E030E04AE754E40E947B
:100B70009D350E9477360E94BE33262F073421F020
:100B80000D3409F028C1E0C01E31B9F11F31B8F4AD
:100B9000143168F4113108F0A5C01430A9F11430F3
:100BA00008F478C01A3011F00C94DC0D26C0163110
:100BB00008F4BAC01C3111F00C94DC0D1EC01035C5
:100BC00009F46DC0113568F41533F1F0163328F4CB
:100BD000163211F00C94DC0D5DC01C3308F0ECC72C
:100BE000ACC01C3551F01D3520F41A3508F4E4C7AB
:100BF00089C01F3508F0E0C78EC0222329F4882061
:100C000009F0D8C7882483941C31A9F01D3128F439
:100C1000143051F01A3069F40AC0153349F11C350B
:100C200059F11E3131F415C09092510502C0609205
:100C3000510580E086C0222321F0243609F0BCC78C
:100C400004C0B3E0B093510511C0E4E0E093510556
:100C50000DC0222321F0243609F0AEC704C0F5E010
:100C6000F093510503C026E02093510580E0A4C015
:100C700087E080935105DDCF222321F0243609F04F
:100C80009BC704C098E090935105F0CFA9E0A093D2
:100C90005105ECCF882009F08DC772E0872E123005
:100CA00089F0133028F4112351F0113069F40AC08F
:100CB000163261F0103591F0133031F403C0109208
:100CC000520502C01093520581E03BC0283C09F058
:100CD00073C7B4E0B093520581E06EC0E5E0E093E5
:100CE0005205F2CF123139F0133149F0113129F4A4
:100CF0001092560502C09092560582E022C0609282
:100D00005605FBCF1A3519F41092550502C0909282
:100D1000550583E016C01D3519F49092530502C0A5
:100D20001092530584E00DC0143119F490925405CB
:100D300002C01092540585E004C016531093570565
:100D400086E02223C9F13AC7662309F037C7163077
:100D500018F41330B0F408C0183008F42DC71A3056
:100D600000F11E3109F028C7123041F01E3131F078
:100D7000112311F49092580587E01EC06092580527
:100D8000FBCF143039F0153041F0133041F490921C
:100D90005A0505C060925A0502C010925A0588E0B3
:100DA0000BC0183019F0193031F403C060925905A6
:100DB00002C01092590589E0920102C0220F331F30
:100DC0008A95E2F7C9018A219B21892B09F0F8C68F
:100DD000A22AB32ADFC0003509F471C00135ACF492
:100DE0000A3409F440C00B3434F4063429F10934D0
:100DF00009F0E2C62BC00C3409F44FC00C340CF4DB
:100E00003FC00E3409F0D8C64CC0043599F0053502
:100E10003CF4023509F45DC0033509F0CDC663C06A
:100E2000093509F476C00A3509F47FC0083509F0A0
:100E3000C3C663C029E084C0C0925B05D0925C0544
:100E4000E0925D05F0925E0520E07AC0C0925F05F9
:100E5000D0926005E0926105F0926205F9A1F1601F
:100E6000F9A321E06DC0C0926305D0926405E092C1
:100E70006505F092660529A1226029A322E060C0E1
:100E8000C0926705D0926805E0926905F0926A0504
:100E900089A1846089A323E053C010936B0524E0EB
:100EA0004FC0812F90E0A0E0B0E080936C0590935C
:100EB0006D05A0936E05B0936F0525E041C0C0920B
:100EC0007005D0927105E0927205F092730526E0EC
:100ED00037C0C0927405D0927505E0927605F09205
:100EE000770527E02DC0C0927805D0927905E09271
:100EF0007A05F0927B0528E023C0C0927C05D09251
:100F00007D05E0927E05F0927F0591E0792A2AE046
:100F100017C0C0928005D0928105E0928205F092C0
:100F20008305A2E07A2A2BE00BC0C0928405D09200
:100F30008505E0928605F0928705B4E07B2A2CE0D7
:100F40008201022E02C0000F111F0A94E2F78F8D5A
:100F500098A180239123892B11F089E13CC681E679
:100F600093E002C0959587952A95E2F780FF0CC023
:100F7000C701B60120E030E040E050E00E94493374
:100F8000882314F484E027C6EF8DF8A1E02BF12B21
:100F9000F8A3EF8F9981F101E90FF11D0081002382
:100FA00009F0B2CD8E8E882051F0772071F48091B7
:100FB0005105833049F0853039F08AE10CC677203D
:100FC00021F0F2E0FE8F01C01E8E2F8D25FF0FC095
:100FD00080916C0590916D05A0916E05B0916F05A3
:100FE000805A9648A140B04014F08BE1F4C580913E
:100FF0005305813039F4FE8DF230B1F52F8D20FD8F
:1010000033C0E0C580911C05882371F58F8D80FF6A
:101010001BC080915405813039F560915B0570915A
:101020005C0580915D0590915E0523E333E34BEC15
:1010300051E40E949D3560935B0570935C0580933D
:101040005D0590935E0510C080912805909129055B
:10105000A0912A05B0912B0580935B0590935C05C8
:10106000A0935D05B0935E05AF8DB8A1B0FD10C033
:101070008091240590912505A0912605B091270522
:101080008093780590937905A0937A05B0937B05BA
:1010900080915105813041F4BF8DB6FF95C5EF8D2C
:1010A000F8A1EF7BF8A3EF8F80915605882341F0DC
:1010B000813061F4F2E0FCA31BA221E02AA30BC063
:1010C0001CA281E08BA392E09AA305C0A1E0ACA38F
:1010D000B2E0BBA31AA280915405813059F56CE7A8
:1010E000E62E65E0F62E00E010E0C72CDD24C601F8
:1010F000002E02C0959587950A94E2F780FF11C0F3
:10110000F701608171818281938123E333E34BECAA
:1011100051E40E949D35D7016D937D938D939C93EF
:1011200013970F5F1F4FE4E0F0E0EE0EFF1E033059
:101130001105E9F6DE011696E9E3F5E08CE0019091
:101140000D928150E1F7A6FE12C09091570597309D
:1011500008F03CC580912005891749F0892FBE0110
:101160006A5F7F4F0E947526882309F431C58091FC
:101170005105823021F0883009F0C7C07AC08F8DC8
:1011800098A180759070892B09F41EC56091700537
:101190007091710580917205909173050E94773668
:1011A0000E94BE33673008F011C520916B052431D1
:1011B00031F0223009F000C5FF8DF7FDFDC4662334
:1011C00019F0862F815002C0809120058E010E5E9D
:1011D0001F4FB8010E947526882309F4F9C45DE207
:1011E000A52E55E0B52E4CE7C42E45E0D42E78014F
:1011F00000E010E0872C9924C401002E02C09595D0
:1012000087950A94E2F780FF21C080916B058431B5
:1012100099F4D5016D917D918D919C91F60120817C
:101220003181428153810E946432D7016D937D9355
:101230008D939C9313970AC0F60180819181A281BE
:10124000B381F70180839183A283B3830F5F1F4F24
:1012500084E090E0A80EB91EC80ED91EE80EF91E53
:101260000330110549F6AF8DB8A1AF7AB8A3AF8F9F
:10127000D0C03DE2C32E35E0D32E26E0A22EB12C05
:10128000AC0EBD1E0CE715E0EE24FF24872C99243C
:10129000C4010E2C02C0959587950A94E2F780FF51
:1012A0001AC0F6016081718182819381D5012D91EF
:1012B0003D914D915C910E946432F8012081318111
:1012C000428153810E946432D8016D937D938D9346
:1012D0009C9313970AC0F601808D918DA28DB38DDA
:1012E000F80180839183A283B3830894E11CF11CED
:1012F00084E090E0C80ED91EA80EB91E0C5F1F4FE7
:1013000093E0E916F10421F684C0772009F468C05F
:101310009DE2E92E95E0F92E0CE715E086E0A82E77
:10132000B12CAC0EBD1ECC24DD24872C9924C40125
:101330000C2C02C0959587950A94E2F780FD0BC0AE
:10134000F70180819181A281B381F801808391832B
:10135000A283B38335C080915105873089F1809194
:101360001E058823D9F4D5016D917D918D919C91B5
:10137000F701208D318D428D538D0E9465329B0186
:10138000AC01D8016D917D918D919C910E94653247
:10139000F801608371838283938312C0D8016D91B9
:1013A0007D918D919C91F701208131814281538102
:1013B0000E946532D8016D937D938D939C93139712
:1013C0000894C11CD11CE4E0F0E0EE0EFF1E0C5F9F
:1013D0001F4FAE0EBF1EF3E0CF16D10409F0A7CF0A
:1013E00080915105853031F0873069F0833089F480
:1013F00086E001C087E0BE016E5E7F4F0E947526C9
:10140000882339F4E5C380915205823010F08EE1D3
:10141000E2C310915205153049F4772009F43AC21D
:101420002E8D213009F436C28FE1D5C38E8D8230E6
:1014300009F030C2112309F42DC260915B0570914F
:101440005C0580915D0590915E0520E030E040E014
:1014500050E00E944933882309F4B4C3123008F4E1
:1014600019C2143020F0143009F014C2EEC1BCA12E
:10147000AB2FB0E0B8A7AFA3FBA1EF2FF0E0FEA326
:10148000EDA381E090E08C010DA002C0000F111FC0
:101490000A94E2F70FA002C0880F991F0A94E2F79E
:1014A000082B192B872D90E080239123892B11F491
:1014B00080E291C3EFA1F8A5EE0FFF1FEE0FFF1F13
:1014C000DF01A55EBA4FEF5AFA4F63A574A585A553
:1014D00096A552962D913D914D915C9155970E9404
:1014E00064323B014C01EDA1FEA1EE0FFF1FEE0F98
:1014F000FF1FDF01A55EBA4FEF5AFA4F63A574A52F
:1015000085A596A552962D913D914D915C9155974B
:101510000E9464321B012C012F8D27FF04C10DE2B4
:1015200015E07CE7E72E75E0F72ED8016D917D91EF
:101530008D919C91F70120813181428153810E94DC
:101540004933882359F40C5F1F4F84E090E0E80E84
:10155000F91E95E00933190741F73CC38091540502
:101560008130B1F4609174057091750580917605B4
:101570009091770523E333E34BEC51E40E949D35D2
:101580006093740570937505809376059093770545
:10159000E0907405F090750500917605109177053F
:1015A000C801B70120E030E040E850E40E949D35DA
:1015B000A80197010E949D357B018C01C401B301F4
:1015C000A40193010E949D359B01AC01C801B701A4
:1015D0000E9464327B018C01C201B101A201910120
:1015E0000E949D359B01AC01C801B7010E94643285
:1015F0007B018C0120E030E040E050E00E94493364
:10160000882314F482E2E7C2C801B7010E9432368F
:101610007B018C01C401B301A20191010E94221639
:101620009B01AC0117FB109517F91095C801B70184
:101630000E9450337B018C0180915205833021F44C
:1016400017FB109517F91095A0907405B0907505CB
:10165000C0907605D0907705C601B50120E030E056
:1016600040E050E00E94493388237CF417FB10953A
:1016700017F91095D601C501B05880937405909361
:101680007505A0937605B0937705AF8DB8A1AF77B8
:10169000B8A3AF8FEFA1F8A5EE0FFF1FEE0FFF1F4E
:1016A000EB5AFA4FF8A7EFA3C201B101A8019701C5
:1016B0000E949D359B01AC01C401B3010E946432BC
:1016C00020E030E040E05FE30E949D35AFA1B8A587
:1016D0001A966D937D938D939C931D97EDA1FEA11A
:1016E000EE0FFF1FEE0FFF1FEB5AFA4FFEA3EDA305
:1016F000C401B301A80197010E949D359B01AC0173
:10170000C201B1010E94653220E030E040E05FE3B9
:101710000E949D35ADA1BEA11A966D937D938D93C8
:101720009C931D97B7C0B9A1CB2EDD240C211D21A0
:10173000012B11F483E24FC280915405813049F5A9
:101740004FE5E42E45E0F42E00E010E0C601002E47
:1017500002C0959587950A94E2F780FF11C0F701C2
:10176000608171818281938123E333E34BEC51E407
:101770000E949D35D7016D937D938D939C93139714
:101780000F5F1F4FE4E0F0E0EE0EFF1E0330110587
:10179000E9F6EFA0F8A4EE0CFF1CEE0CFF1C85E5AB
:1017A00095E0E80EF91EC401B301D7011A962D91F8
:1017B0003D914D915C911D970E9464325B016C01DB
:1017C0000DA11EA1000F111F000F111F0B5A1A4F60
:1017D000C201B101F80122853385448555850E94F7
:1017E00064329B01AC01C601B5010E9422165B0167
:1017F0006C01D7011A966D917D918D919C911D97E9
:10180000F80122853385448555850E9422169B0167
:10181000AC01609374057093750580937605909381
:101820007705C601B5010E9464329F772FE632E149
:1018300043E05BE30E94603518160CF4CBC18F8D3A
:1018400098A1817F98A38F8F25C00DE215E09CE7BA
:10185000E92E95E0F92ED8016D917D918D919C91A5
:10186000F70120813181428153810E9449338823CD
:1018700059F40C5F1F4F84E090E0E80EF91E95E0EC
:101880000933190741F7A6C10E94401C882311F0B3
:1018900084E2A1C18F8D98A18E7D9C7FAE8DAA23FD
:1018A00021F08F8D98A18E7D907E892B11F085E29D
:1018B00092C18091530580931C0580915B059091A6
:1018C0005C05A0915D05B0915E058093280590931D
:1018D0002905A0932A05B0932B05E0907805F09098
:1018E000790500917A0510917B056091240570912E
:1018F00025058091260590912705A80197010E9452
:101900004933882381F0E0922405F0922505009365
:1019100026051093270580912305882321F0B8011F
:10192000A7010E942A2790915A05809123058917C3
:1019300069F090932305409124055091250560910D
:10194000260570912705892F0E942A279091590515
:1019500080912205891729F090932205892F0E94F2
:101960003C0480915105813051F460917005709173
:10197000710580917205909173050E943F118091CD
:10198000560580931F058091540580931D05909105
:10199000570580912005891759F090932005A9E3F8
:1019A000B5E0FE0136968CE001900D928150E1F792
:1019B0008091550580931E0580915105853009F46D
:1019C0003FC0863048F48330D9F1843008F058C0E5
:1019D000823009F06EC00AC0883009F459C08930DD
:1019E00009F460C0863009F064C04CC06091700595
:1019F0007091710580917205909173050E94773600
:101A00000E94BE33662319F0162F115002C01091A8
:101A1000200582E1E82EF12CEC0EFD1E812FB7018E
:101A20000E946A2680912005811709F042C0A9E32F
:101A3000B5E0F7018CE001900D928150E1F739C0DB
:101A4000BE8DBB2349F08CE795E040E050E060E8B4
:101A50007FEB20E00E949A118E010E5E1F4FC8019D
:101A600040E050E060E87FEB20E00E949A11ADE298
:101A7000B5E0F8018CE001900D928150E1F719C0BA
:101A800086E001C087E06DE275E00E946A2611C021
:101A9000A5E4B5E0ECE7F5E08CE001900D92815013
:101AA000E1F707C08CE0E5E4F5E0DF011D928A95DF
:101AB000E9F78091520580931B05853009F465C0D4
:101AC000BE8DB23009F061C0843040F4823008F538
:101AD000882341F0813009F04FC00CC0843009F0F8
:101AE0004BC03CC08CE795E040E050E060E87FEB05
:101AF00020E00CC0409128055091290560912A05ED
:101B000070912B058CE795E020911C050E949A119D
:101B100033C000D0009174051091750520917605B1
:101B200030917705C0902805D0902905E0902A05CE
:101B3000F0902B058BA1EDB7FEB781839AA192831C
:101B40008DE295E06CE775E04FE555E0A0901C054F
:101B50008CA00E9469120F900F900EC04091280532
:101B60005091290560912A0570912B058CE795E02D
:101B700020911C050E94D211ADE2B5E0ECE7F5E042
:101B80008CE001900D928150E1F78091580580938F
:101B90002105882301F10E94F01C10929805809184
:101BA0002105823019F40E940C1102C01092210507
:101BB00080E011C088E10FC084E10DC087E10BC057
:101BC00085E109C086E107C08CE105C08DE103C055
:101BD00087E001C081E2A8960FB6F894DEBF0FBE81
:101BE000CDBFCF91DF911F910F91FF90EF90DF90CC
:101BF000CF90BF90AF909F908F907F906F905F90AD
:101C00004F903F902F900895EBE1F5E086E3DF01E0
:101C10001D928A95E9F780912005BF01625E7F4F92
:101C20000E947526882319F487E00E94FF1F0895FB
:101C300084B1817F84B98091A306982F86FF03C069
:101C400085B1817F02C085B18E6085B993FF09C0DF
:101C500080916B008E6080936B0080916800816042
:101C600008C080916B00817F80936B008091680039
:101C70008E7F809368000895EBE6F0E08081817F9D
:101C80008083E8E6F0E080818E7F80830895CF92A4
:101C9000DF92EF92FF920F931F93CF93DF936C012C
:101CA000C0E0D0E0F601EC0FFD1FE080F180028182
:101CB0001381C801B70120E030E040E050E00E940D
:101CC000603518166CF0FE01EA59F94FC801B701EA
:101CD00024A135A146A157A10E9449338823D4F4F9
:101CE00080918905803161F480918A0588608093B4
:101CF0008A050E94681C809188058823D1F30EC054
:101D00000E940C1180918A05806680938A050E944A
:101D1000681C04C02496CC30D10521F6DF91CF9108
:101D20001F910F91FF90EF90DF90CF9008951F9239
:101D30000F920FB60F9211242F933F934F935F93FF
:101D40006F937F938F939F93AF93BF93EF93FF9383
:101D500080918905813059F080918A0585FD07C001
:101D60000E940C1180918A05806680938A05FF91FC
:101D7000EF91BF91AF919F918F917F916F915F9103
:101D80004F913F912F910F900FBE0F901F9018957C
:101D90002F923F924F925F926F927F928F929F927B
:101DA000AF92BF92CF92DF92EF92FF920F931F9369
:101DB000DF93CF93CDB7DEB768970FB6F894DEBF49
:101DC0000FBECDBF982E80918805882309F0CBC126
:101DD0008091A9069091AA06A091AB06B091AC069D
:101DE0008F87988BA98BBA8BE0908A06F0908B0630
:101DF00000918C0610918D06D0908E06C0908F06B3
:101E0000B0909006A0909106C801B7012D2D3C2DF1
:101E10004B2D5A2D0E946035181634F48D2D9C2DB3
:101E2000AB2DBA2D7C018D01D0909206C090930607
:101E3000B0909406A0909506C801B7012D2D3C2DB9
:101E40004B2D5A2D0E946035181634F48D2D9C2D83
:101E5000AB2DBA2D7C018D01C801B70120E030E027
:101E600040EC5FEB0E949D356B017C010E94FB1AE8
:101E700001E095E09D871E010894211C311C492C2E
:101E8000552446015701B7FAB094B7F8B094D2017F
:101E9000A170B070BC8BAB8BF201E270F070FE8B66
:101EA000ED8BC20184709070988F8F8B8091A30608
:101EB00086FD02C00E8703C091E090279E87310106
:101EC000F10160E020E030E0C201022E02C09595F1
:101ED00087950A94E2F780FF0DC06F5F002329F415
:101EE00080829182A282B3820DC0C082D182E282BE
:101EF000F38208C080E090E0A0E0B0E080839183AE
:101F0000A283B3832F5F3F4F349623303105E1F630
:101F10003091A406232F35FF09C089819A81AB81B6
:101F2000BC81B05889839A83AB83BC8326FF09C0E8
:101F30008D819E81AF81B885B0588D839E83AF839C
:101F4000B88737FF09C089859A85AB85BC85B058AD
:101F500089879A87AB87BC87AB89BC89AB2B11F487
:101F600010E001C014E0ED89FE89EF2B09F0186044
:101F70008F89988D892B09F0106110938B0570E083
:101F800080E090E00E94EA330E9432369B01AC016F
:101F90006F85788989899A890E949D35AB01BC013A
:101FA000C10120E00E94F5170E94C4270E943E272D
:101FB00083B19E85992311F0AEE08A2712FF02C0FB
:101FC00081FD1B7F13FF02C082FD177F14FF02C03B
:101FD00083FD1F7E10938B050E94C42780918A0584
:101FE00084FF03C00E94681CBEC0812F8C7101F762
:101FF0000E94422E0E94FB1A8091AD069091AE067F
:102000000E9409168091A5069091A606A091A706A8
:10201000B091A8068F87988BA98BBA8B9D85992341
:1020200029F0A1E00A2791509D8740CF9CE8C92E56
:1020300095E0D92E86E6882E86E0982EAA24BB2429
:10204000C2010A2C02C0959587950A94E2F780FF99
:1020500049C01091A4068A2D0E941316182369F115
:10206000F401E4A0F5A006A117A16091AF0670915C
:10207000B0068091B1069091B206A80197010E9426
:102080006532D3016D937D938D939C931397C80113
:10209000B701F40120813181428153810E949D3535
:1020A0000E946D35D6016C9311967C931197129610
:1020B0008C93129713969C9328C08091AF069091B1
:1020C000B006A091B106B091B206B058F30180837A
:1020D0009183A283B383D6011D921D921D921C92FF
:1020E000139713C0F60160817181828193810E94F0
:1020F000EC33D4012D913D914D915C910E94503370
:10210000F30160837183828393830894A11CB11CC3
:1021100084E090E0680E791EC80ED91E880E991EC4
:1021200093E0A916B10409F08BCF0E947A16409172
:10213000A9065091AA066091AB067091AC06CE013B
:10214000019620E00E94F51788E080938905809130
:102150008A05826080938A050E94681C0E94F01C98
:1021600084E08093890568960FB6F894DEBF0FBEB1
:10217000CDBFCF91DF911F910F91FF90EF90DF9036
:10218000CF90BF90AF909F908F907F906F905F9017
:102190004F903F902F9008951F930E94F8220E9425
:1021A000A0260E9474270E9493308EE1E8E8F5E0B3
:1021B000DF011D928A95E9F781E080938805789484
:1021C0008091A30684FF03C081E08093890511E01C
:1021D0000E946B230E94040E0E9424270E94370451
:1021E0000E94180E0E943D1C0E94FB1A0E94422E63
:1021F0000E947A160E94F5041092880510928A05B2
:102200008091A30681FF03C01093980502C010922D
:1022100098050E94071DDCCF80918A0584FD14C0BB
:1022200080918A05806180938A050E9428270E94F8
:102230003A0480918905847339F080918A0580621F
:1022400080938A050E94162E089584E08093890564
:102250000E943C0E84E00E94C80E83E00E94C80EDB
:102260000E94681C80918805882341F40E94F5042F
:10227000109289050E94162E0E94180E0895EF9262
:10228000FF920F931F93CF93DF937B018C0180917B
:102290008905823009F047C0C801B70120E030E06D
:1022A00040EA51E40E949D350E9427340E94BE33CB
:1022B000EB010E94F01CC801B70120E030E04AE7C2
:1022C00054E40E949D357B018C0182E390E0C89F1D
:1022D000B001C99F700DD89F700D112480E090E06F
:1022E0000E94EA339B01AC01C801B7010E9464322D
:1022F0000E9427340E94BE33DC01CB010E940916E4
:1023000000E911E00EC00E94681C809188058823B6
:1023100051F484EF91E0F8013197F1F70197D9F783
:102320002197209781F7DF91CF911F910F91FF9017
:10233000EF900895DF92EF92FF920F931F93CF9348
:10234000DF93EC017A018B01D22E8091A30685FFE9
:1023500003C0CE010E94470E809189058230D1F0E2
:102360000E94681C809188058823A1F40E94701641
:10237000882319F00E945E1CF3CFCE01B801A7019B
:102380002D2D0E94F51780918905882319F488E086
:1023900080938905DF91CF911F910F91FF90EF906E
:1023A000DF9008957F928F929F92AF92BF92CF92CB
:1023B000DF92EF92FF920F931F93CF93DF936C0105
:1023C0004A015B01722E80918905803111F00E94D3
:1023D0005E1C0E94F01C80918805882309F06BC068
:1023E000C601B501A401272D0E949A1181E08093B6
:1023F000990580918A05826080938A050E94681CF5
:1024000080918805882309F056C08091890588232A
:1024100011F0883099F780919905813029F48091E5
:102420008A05806480938A050E94681C80918805D3
:10243000882309F040C08AE9E82E85E0F82EC0E044
:10244000D0E086010C0F1D1FF70161917191819100
:1024500091917F010E94EC33FE01EA59F94F2081EE
:102460003181428153810E945033F801608371832E
:10247000828393832496CC30D10519F70E94681C7F
:102480000E94422E0E94FB1A0E947A16C601B501D4
:10249000A401272D0E949A1180918A058260809361
:1024A0008A050E94F01C80918805882321F40E94EF
:1024B000F5040E94B11EDF91CF911F910F91FF9003
:1024C000EF90DF90CF90BF90AF909F908F907F90D4
:1024D00008952F923F924F925F926F927F928F92C8
:1024E0009F92AF92BF92CF92DF92EF92FF920F93A3
:1024F0001F93DF93CF93CDB7DEB7EF970FB6F89466
:10250000DEBF0FBECDBF9CAB8BAB7EAB6DAB3A01DC
:102510000FAB18AF29AF3AAFCBAEDCAEEDAEFEAE2F
:10252000AFAE9924880C991C880C991C880D991DB4
:102530009AAB89AB9A01280D391D38AB2FA7D90169
:10254000AD90BD90CD90DC90C601B501E9A9FAA986
:1025500020813181428153810E9465326DA37EA327
:102560008FA398A765966FAD6597462E5524440CAA
:10257000551C440C551C2BA93CA9240D351D3EA708
:102580002DA7C301840D951D9CA78BA7DC01ED90A1
:10259000FD900D911C91C801B701F9012081318195
:1025A000428153810E94653269A37AA38BA39CA3C5
:1025B000D601C501B0588D8F9E8FAF8FB8A3D801BB
:1025C000C701B058898F9A8FAB8FBC8FADA9BEA9B8
:1025D0008A0E9B1EF40160817181828193812DA1FD
:1025E0003EA14FA158A50E9464323B014C012DA988
:1025F0003EA9420E531ED2016D917D918D919C9109
:1026000029A13AA14BA15CA10E9464325B016C013B
:102610006D8D7E8D8F8D98A1A60195010E949D35AF
:102620007B018C01698D7A8D8B8D9C8DA40193012A
:102630000E949D359B01AC01C801B7010E94643224
:102640001B012C016D8D7E8D8F8D98A1A4019301AE
:102650000E949D357B018C01698D7A8D8B8D9C8DBF
:10266000A60195010E949D359B01AC01C801B701EF
:102670000E9465329B01AC01C201B1010E94DD32B2
:102680005B016C0180911B05823099F4C601B50194
:1026900020E030E040E050E00E9460358823ECF01C
:1026A000C601B5012BED3FE049EC50E40E946432D5
:1026B00012C0C601B50120E030E040E050E00E94C9
:1026C0004933181654F0C601B5012BED3FE049EC33
:1026D00050E40E9465325B016C01E0909E06F09030
:1026E0009F060091A0061091A1066FA978AD89AD53
:1026F0009AAD9B01AC010E946532A80197010E942E
:1027000064329B01AC01C801B7010E949D350E9453
:1027100032367B018C01C601B50120E030E040E09B
:102720005FE30E949D352FA938AD49AD5AAD0E9497
:102730009D359F77A80197010E9450330E9427344E
:102740000E94BE33788F6F8B6115710509F487C1C4
:10275000BFADBB2381F080E090E00E94EA339B0193
:10276000AC016BAD7CAD8DAD9EAD0E949D356BAF68
:102770007CAF8DAF9EAF2F89388DB90180E090E09E
:102780000E94EA337B018C01C601B501A8019701C3
:102790000E9450336B8B7C8B8D8B9E8B6696EFAD3E
:1027A0006697F0E0EE0FFF1FEE0FFF1F8BA99CA9AD
:1027B0008E0F9F1F9AA789A7ADA9BEA9EA0FFB1F7D
:1027C0006081718182819381E9A5FAA5208131819F
:1027D000428153810E946432A80197010E945033C4
:1027E0006F87788B898B9A8B6B897C898D899E8981
:1027F0009B01AC010E949D359B01AC0160E070E043
:1028000080E090E40E9464325B016C016B897C89FA
:102810008D899E892BEA3AEA4AE25EE30E949D3561
:102820007B018C01C601B50120E030E040E850E4B6
:102830000E9465329B01AC01C801B7010E949D3521
:102840006B877C878D879E87C601B50120E030E0CD
:1028500040E05FE30E949D3569837A838B839C838C
:1028600021E030E03E832D839924F1C033E1391516
:1028700008F446C06D8D7E8D8F8D98A12B853C858B
:102880004D855E850E949D357B018C01698D7A8D19
:102890008B8D9C8D29813A814B815C810E949D3575
:1028A0009B01AC01C801B7010E9465327B018C011C
:1028B0006D8D7E8D8F8D98A129813A814B815C81B0
:1028C0000E949D355B016C01698D7A8D8B8D9C8D8D
:1028D0002B853C854D855E850E949D359B01AC0115
:1028E000C601B5010E9464326D8F7E8F8F8F98A3D1
:1028F0009394C701D801898F9A8FAB8FBC8F61C029
:10290000AD81BE81BD0180E090E00E94EA332B8959
:102910003C894D895E890E949D357B018C01C801EF
:102920000E944D336F83788789879A87B701C801E2
:102930000E9428363B014C01EFA5F8A9E080F18008
:102940000281138117FB109517F91095ABA5BCA553
:102950002D903D904D905C90C801B7012F81388536
:1029600049855A850E949D355B016C01C201B10108
:10297000A40193010E949D359B01AC01C601B501E4
:102980000E9465326D8F7E8F8F8F98A3C801B7012B
:10299000A40193010E949D357B018C01C201B1010C
:1029A0002F81388549855A850E949D359B01AC0150
:1029B000C801B7010E946432698F7A8F8B8F9C8F18
:1029C00099246DA17EA18FA198A52D8D3E8D4F8D4F
:1029D00058A10E946532E9A9FAA9608371838283B4
:1029E000938369A17AA18BA19CA1298D3A8D4B8DEE
:1029F0005C8D0E946532ADA5BEA56D937D938D93D0
:102A00009C931397E9A5FAA56081718182819381D6
:102A10002F85388949895A890E946532A9A5BAA5A6
:102A20006D937D938D939C9313978BA99CA94BAD2C
:102A30005CAD6DAD7EAD2FAD0E949A118091880581
:102A40008823B1F4ED81FE813196FE83ED832D81E3
:102A50003E818F89988D2817390708F407CF8DA9F3
:102A60009EA94BAD5CAD6DAD7EAD2FAD0E949A11B0
:102A7000EF960FB6F894DEBF0FBECDBFCF91DF91BA
:102A80001F910F91FF90EF90DF90CF90BF90AF908C
:102A90009F908F907F906F905F904F903F902F907E
:102AA00008956F927F928F929F92AF92BF92CF9232
:102AB000DF92EF92FF920F931F93CF93DF934C011E
:102AC0003B015A01FB018081F401E80FF11DEF0188
:102AD00089918D3229F481812196CC24C39405C03B
:102AE0008B3211F481812196CC2420E030E040E04B
:102AF00050E0DD24E0E070E0682F60536A30F8F4C5
:102B0000EF5FE930C0F47111DA94DA01C901F2E043
:102B1000880F991FAA1FBB1FFA95D1F7280F391FDD
:102B20004A1F5B1F220F331F441F551F260F311DE5
:102B3000411D511D09C0772339F4D39405C06E3F60
:102B400029F4772319F471E08991D6CFEE2311F49B
:102B500080E050C0CA01B9010E94EA337B018C01B8
:102B600020E030E040E050E00E944933882369F4DF
:102B70002BC0C801B7012AE037ED43E25CE30E94B5
:102B80009D357B018C01F2E0DF0E8FEFD8168CF3C0
:102B9000D81659F4C801B7012DEC3CEC4CEC5DE3C0
:102BA0000E949D357B018C010FC0DD2069F0C801BA
:102BB000B70120E030E040E251E40E949D357B0106
:102BC0008C01DA941D149CF3CC2049F0D801C70184
:102BD000B058F50180839183A283B38305C0F501CA
:102BE000E082F18202831383882D80958C0FF3019C
:102BF000808381E0DF91CF911F910F91FF90EF9043
:102C0000DF90CF90BF90AF909F908F907F906F900C
:102C1000089520EA3FE004C0F9013197F1F70197E8
:102C20000097D1F70895813049F0813018F0823053
:102C300019F406C080E2089580E0089580E40895C4
:102C400080E80895AF92BF92CF92DF92EF92FF9209
:102C50000F931F937B018C0159016A01A801970111
:102C60000E949D357B018C01C601B501A60195012D
:102C70000E949D359B01AC01C801B7010E946532DD
:102C80000E9432361F910F91FF90EF90DF90CF900E
:102C9000BF90AF9008952091E2038091E3038217E3
:102CA00069F0922F9F5F923109F490E08091E503E3
:102CB000281711F49093E5039093E20308959091FF
:102CC000E2038091E303891719F420E030E006C0A5
:102CD00089E2989F9001112420503F4FC901089527
:102CE00020E09091E2038091E403981709F421E039
:102CF000822F089580918C0590918D05A0918E056D
:102D0000B0918F058093E6039093E703A093E803C7
:102D1000B093E9038091900590919105A09192055F
:102D2000B09193058093EA039093EB03A093EC0397
:102D3000B093ED038091940590919505A09196052F
:102D4000B09197058093EE039093EF03A093F00367
:102D5000B093F10308954F925F926F927F928F929A
:102D60009F92AF92BF92CF92DF92EF92FF920F931A
:102D70001F93CF93DF938091E303882309F482E1CB
:102D8000782E7A946090E503761409F4F2C089E213
:102D9000789E4001112480E091E0880E991EF40194
:102DA000A588B688C788D08C21A132A143A154A19F
:102DB000CA01B9010E946532F40125A136A147A1DB
:102DC00050A50E949D357B018C01B501C601A8016B
:102DD00097010E94493387FD04C0D801C7015701FC
:102DE0006D01C501D601F401818B928BA38BB48B4D
:102DF000772011F432E1732E7A94761409F04EC0E4
:102E00008091E203681609F050C00E94A2274DC0CD
:102E1000769CE0011124C050DF4F772011F422E1AD
:102E2000722E7A948091E203781611F40E94A22700
:102E3000AD88BE88CF88D88C69897A898B899C892E
:102E4000A60195010E944933882331F129A13AA1B5
:102E50004BA15CA1CA01B9010E9465322DA13EA11E
:102E60004FA158A50E949D35F401218932894389DB
:102E700054890E9465327B018C01A60195010E9454
:102E8000493388232CF4E98AFA8A0B8B1C8B04C003
:102E9000A98ABA8ACB8ADC8A4E0102C099E2692EDD
:102EA0008091E503781609F0B3CFA090E503BA2C22
:102EB000B394F2E1BF1609F4BB2489E2A89E800115
:102EC000112400501F4F5090E30389E2482E4CC05C
:102ED000B49CE0011124C050DF4FF801C188D288B2
:102EE000E388F48869887A888B889C88C701B60152
:102EF000A40193010E94493388231CF5F80121A104
:102F000032A143A154A1CA01B9010E946532F8015E
:102F100025A136A147A150A50E949D359B01AC017A
:102F2000C701B6010E9465327B018C01A4019301A7
:102F30000E94493388232CF4E98AFA8A0B8B1C8B74
:102F4000AB2C69897A898B899C892D893E894F8927
:102F5000588D0E944933882309F4AB2CB394F2E1D5
:102F6000BF1609F4BB248E01B51409F0B1CFA092AD
:102F7000E503DF91CF911F910F91FF90EF90DF90CC
:102F8000CF90BF90AF909F908F907F906F905F9009
:102F90004F9008950E94A2278091E2038093E50359
:102FA0000E94AB1608952091E2032F5F223109F4AD
:102FB00020E08091E303281729F460E070E080E0CE
:102FC00090E012C030E089E290E0289FF001299F54
:102FD000F00D389FF00D1124E050FF4F6189728988
:102FE000838994890E94323608952F923F924F929E
:102FF0005F926F927F928F929F92AF92BF92CF9289
:10300000DF92EF92FF920F931F93DF93CF93CDB791
:10301000DEB7E6970FB6F894DEBF0FBECDBF9DA713
:103020008CA74EA75FA768AB79AB2AAB9091E3035F
:1030300089E2989F4001112420E031E0820E931E26
:10304000D4011D961D921D921D921C92509780E0F6
:1030500090E0A0E0B0E0F40185A396A3A7A3B0A7F9
:10306000108289E996E7A6E9BEE781A392A3A3A30C
:10307000B4A326E636E03C8F2B8F1E010894211C5A
:10308000311C46EE442E43E0542E9A8E898E1BA6A8
:1030900066247724ECA5FDA5E60DF71D60817181FE
:1030A00082819381AB8DBC8D2D913D914D915C9131
:1030B0000E949D350E946D359B01AC01F10120837A
:1030C000318342835383F20180819181A281B38154
:1030D000281B390B4A0B5B0B57FF07C050954095D7
:1030E000309521953F4F4F4F5F4FA98DBA8D119667
:1030F0002D933D934D935C931497F40185859685AC
:10310000A785B089281739074A075B0710F49C0187
:10311000AD01D4011D962D933D934D935C93509733
:10312000F1016081718182819381D2012D913D9164
:103130004D915C91621B730B840B950B0E94EC33D9
:10314000EB8DFC8D20813181428153810E9450336F
:103150005B016C01EDE0F0E0EC0FFD1FE60DF71DEB
:10316000608371838283938320E030E040E050E00D
:103170000E944933882344F4D4011C918BA50E94FA
:103180001316182BF4011083D4019596ED90FD9041
:103190000D911C919897C601B501A60195010E9459
:1031A0009D359B01AC01C801B7010E9465327B01CE
:1031B0008C01CB01D801F40185A396A3A7A3B0A7E6
:1031C000FBA5FF5FFBA724E030E0620E731E8B8D32
:1031D0009C8D04969C8F8B8F220E331E420E531EA5
:1031E000A98DBA8D1496BA8FA98FF33009F052CFFA
:1031F000B701C8010E9432367B018C01F40165A33E
:1032000076A387A390A785859685A785B089009723
:10321000A105B10509F4D6C16EA57FA588A999A914
:1032200020E030E040E050E00E94493388234CF435
:1032300089E996E7A6E9BEE78EA79FA7A8ABB9AB39
:103240000FC09AA9992361F0C801B7012EA53FA527
:1032500048A959A90E9450336EA77FA788AB99ABA4
:1032600060E070E080E89FE3A80197010E9450337E
:103270006FA378A789A79AA7DE011D96BAA3A9A371
:10328000E2EFF3E0F8A3EF8F22E736E03E8F2D8FD9
:1032900080E090E0A0E0B0E08BA39CA3ADA3BEA330
:1032A000DE015996BEABADABE9A1FAA1E080F18099
:1032B00002811381C801B70120E030E040E050E016
:1032C0000E944933882309F47CC0C801B7012FA1AB
:1032D00038A549A55AA50E949D352B013C01A9A1FD
:1032E000BAA16D937D938D939C93139760E070E0EA
:1032F00080E89FE3A30192010E9450335B016C01BF
:10330000E894D7F8C601B501ED8DFE8D208131819D
:10331000428153810E949D357B018C016EA57FA562
:1033200088A999A9A80197010E94493387FD04C083
:10333000EEA6FFA608AB19ABD4019196BC91BBAB2E
:10334000F401F2A1FCABD40193962C909397949640
:103350003C90C601B501ED8DFE8D248535854685F1
:1033600057850E949D357B018C016BA97CA9C10109
:10337000A80197010E94493387FD05C0D801C70104
:10338000EBAA9CAB1D018BA99CA9D101F40181A3DF
:1033900092A3A3A3B4A3C301B201AF8DB8A12D9191
:1033A0003D914D915C910E949D359B01AC016BA1BB
:1033B0007CA18DA19EA10E9464326BA37CA38DA3EE
:1033C0009EA3E9A1FAA13496FAA3E9A32F8D38A10F
:1033D0002C5F3F4F38A32F8F8D8D9E8D04969E8F2F
:1033E0008D8FADA9BEA9EA17FB0709F05DCF9091BB
:1033F000E3038091E203981771F480E090E0A0E08D
:10340000B0E0F401818B928BA38BB48B818F928F70
:10341000A38FB48F52C060E070E080E89FE32BA1DF
:103420003CA14DA15EA10E94643220E030E040E06A
:103430005FE30E949D350E9432365B016C01D4012E
:1034400091966D917D918D919C91949720919A0682
:1034500030919B0640919C0650919D060E949D359F
:10346000A60195010E949D357B018C0160E070E012
:1034700080E89FE3A60195010E9464329B01AC01A4
:10348000C801B7010E9450337B018C0120E030E07D
:1034900040E050E00E944933882354F40F2EF0E0BE
:1034A000EF2EF0E0FF2EF0E00F2FF0E01F2FF02DB9
:1034B000F401E18EF28E038F148F6EA57FA588A98B
:1034C00099A99B01AC010E949D357B018C01D4011F
:1034D0005D966D937D938D939C93909759965C9098
:1034E00059975A964C905A975B963C905B975C968E
:1034F0002C90D090FE03C090FF03B0900004A090E9
:1035000001042D2D3C2D4B2D5A2D0E94493387FD52
:1035100004C06D2C7C2CF50105C0D801C701370112
:10352000FA2FEB2F652D742D832D922D93014F2FA4
:103530005E2F0E94493388232CF4852D942DA32DD2
:10354000B22D0EC0C801B7012D2D3C2D4B2D5A2D8B
:103550000E94493387FD06C08D2D9C2DAB2DBA2DC1
:103560007C018D01F401E58AF68A078B108FA2EFAA
:10357000B3E0FE013D968CE001900D928150E1F7A1
:10358000F401858D968DA78DB0A18093FE03909355
:10359000FF03A0930004B0930104A6EEB3E0FE0184
:1035A00031968CE001900D928150E1F78091E40317
:1035B0008093E3038F5F823109F480E08093E4031A
:1035C0000E94AB16E6960FB6F894DEBF0FBECDBFD5
:1035D000CF91DF911F910F91FF90EF90DF90CF90EF
:1035E000BF90AF909F908F907F906F905F904F9023
:1035F0003F902F9008958CE1E6EEF3E0DF011D92FD
:103600008A95E9F71092E2031092E30381E0809338
:10361000E4031092E50308958F929F92AF92BF92B8
:10362000CF92DF92EF92FF920F931F93DF93CF938E
:10363000CDB7DEB72A970FB6F894DEBF0FBECDBF69
:103640007B018C0120E030E040E050E00E944933F3
:1036500088233CF48DE20E940E2317FB109517F986
:103660001095A090A206DA2C0CC0C801B70120E08A
:1036700030E048EC52E40E949D357B018C018EEFD6
:10368000D80EE1E0ED1588F3A0FE0AC0C801B7012D
:1036900020E030E040E251E40E949D357B018C0146
:1036A000C801B70120E030E040E05FE30E946532EE
:1036B0000E94B9336B017C019E012F5F3F4FF901DE
:1036C000EA0DF11D8EE28083BB2449011EC0BA14AD
:1036D00009F4B39484010B0D111DC701B6012AE052
:1036E00030E040E050E00E94A436605DF801608365
:1036F000B394C701B6012AE030E040E050E00E94F8
:10370000A436C901DA016C017D01C114D104E104C0
:10371000F104E9F606C0FC01EB0DF11D2083B39422
:1037200003C0CE01019620E3BA14A8F3BA1489F4B9
:103730008B2D8F5FFE01E80FF11D90E39183B82E72
:10374000B39407C0FE01EB0DF11D80810E940E2392
:10375000BA94BB20B9F72A960FB6F894DEBF0FBE15
:10376000CDBFCF91DF911F910F91FF90EF90DF9030
:10377000CF90BF90AF909F908F9008951F93DF934D
:10378000CF9300D00F92CDB7DEB7282F882321F436
:1037900080E30E940E231EC010E0AE014F5F5F4F1A
:1037A000FA01E10FF11D822F6AE00E949836905DC8
:1037B00090831F5F822F0E949836282F882381F7DD
:1037C00007C0FE01E10FF11D80810E940E23115000
:1037D0001123B9F70F900F900F90CF91DF911F91A8
:1037E00008950F931F93DF93CF93CDB7DEB728973C
:1037F0000FB6F894DEBF0FBECDBF982FFE013196F5
:103800009E01275F3F4F892F817081939695E21724
:10381000F307C9F78E01085F1F4FF8018081805DB3
:103820000E940E23015010400C171D07B1F7289677
:103830000FB6F894DEBF0FBECDBFCF91DF911F91C1
:103840000F910895CF93DF93EC0102C00E940E23E5
:10385000FE01219684918823C9F7DF91CF910895C5
:10386000CF93DF93EC0103C021960E940E23888141
:103870008823D1F7DF91CF9108953D98459A089517
:1038800086B1829586958770809581700895809124
:103890009905813091F4359910C010929905EAE9A3
:1038A000F5E0DF011E978CE00D9001928150E1F769
:1038B00080918A05886080938A0508958091980593
:1038C000882329F080918A05826080938A05089573
:1038D000CF93DF9380918A05882309F478C0C82F9D
:1038E000D0E0CE0180769070892B09F181E0809341
:1038F0008905C6FF14C0C5FF02C08FEF01C08DEF60
:103900000E94D72281E00E948A1D80918A058F7EC5
:1039100080938A0580918A0584FFFCCF03C08EEFD7
:103920000E94D72280918A058F7980938A05C4FFEF
:1039300004C081E08093880550C0C0FF07C00E948A
:10394000B41D80918A058E7F80938A05C3FF12C0C3
:1039500080918905803149F480E2809389050E9435
:10396000A2270E94C4271092980580918A05877F1C
:1039700080938A05C1FF1AC080918905883089F437
:1039800080E1809389050E94C4270E943E27809190
:10399000A30681FF04C081E08093980502C01092C5
:1039A000980580918A058D7F80938A05C2FF0FC09C
:1039B0000E945F16892B21F088E08093890502C060
:1039C0001092890580918A058B7F80938A0580916A
:1039D0008905847311F00E94C427DF91CF91089567
:1039E00080918905803151F481E08093980506C06B
:1039F0000E94681C80918805882341F40E945F160C
:103A0000892BB1F780918905803191F308950F9347
:103A10001F930E94851D80918905813021F482E0E9
:103A20000E948A1D1CC01092890582E094E00E94C9
:103A3000E03015C09A3011F09D3029F5E12FF0E00B
:103A4000EE5FFB4F10820E94681C809188058823DE
:103A500031F480910204882321F40E94FF1F00E0CA
:103A600025C0843229F482E094E00E940C31F5CF25
:103A700080918905813011F489E0EFCF82E094E0F4
:103A80000E944A05EACF002321F0993209F500E0AF
:103A90001FC09132E8F09F32D9F0983211F401E062
:103AA00017C0153428F08BE00E94FF1F10E010C0F3
:103AB000892F8156A12FB0E0E12FEF5F8A3120F4EA
:103AC000AE5FBB4F905202C0AE5FBB4F9C931E2FA8
:103AD0000E945623982F8F3F09F0ACCF8091980514
:103AE000882329F080918A05826080938A050E944C
:103AF000681C80918805882359F31F910F910895C0
:103B000080E495E00E94221C08958EE696E00E94D3
:103B1000221C08951F93182F88ED96E00E94221C06
:103B2000133091F0143028F4113041F01230B1F418
:103B300008C0143061F0153089F40CC086EC96E0B2
:103B40000BC082EB96E008C080EA96E005C088E9E9
:103B500096E002C08FE896E00E94221C8BE896E077
:103B60000E94221C1F910895AF92BF92CF92DF92C4
:103B7000EF92FF920F931F93DF93CF93CDB7DEB7F2
:103B800068970FB6F894DEBF0FBECDBFDE01119669
:103B9000ECE8F5E08CE001900D928150E1F7809126
:103BA00089058430E1F0853038F48130D9F08130F6
:103BB00050F08230F1F419C0803159F0803261F058
:103BC0008830B9F403C08CE291E011C085E291E045
:103BD0000EC080E291E00BC08AE191E008C084E170
:103BE00091E005C08DE091E002C086E091E00E9486
:103BF000221C8FEF90E00E94221C8DE0E82EF12C19
:103C0000EC0EFD1E670100E010E05E010894A11CAF
:103C1000B11CF501E00FF11F6081718182819381F8
:103C20000E94EC33F801EA59F94F20813181428139
:103C300053810E9450339B01AC01F6016083718374
:103C4000828393838091A30680FF0DC0CA01B901CE
:103C50002BE832E441E25DE30E949D35F60160838A
:103C6000718382839383F601619171918191919126
:103C70006F010E940C1B8DEF90E00E94221C0C5FD4
:103C80001F4F0C30110529F687EF90E00E94221C8F
:103C900009E315E0DD248091A30680FF1BC0F80135
:103CA0006081718182819381248535854685578520
:103CB0000E9465322BE832E441E25DEB0E949D35C3
:103CC0009B01AC01F70160817181828193810E9427
:103CD000653214C0F80160817181828193812485ED
:103CE0003585468557850E9465329B01AC01F701F9
:103CF00060817181828193810E946432F7016083C7
:103D0000718382839383F7016081718182819381C2
:103D10000E940C1BF2E0DF1621F085EF90E00E947C
:103D2000221CD39484E090E0E80EF91E0C5F1F4F34
:103D300093E0D91609F0AFCF81EF90E00E94221CEA
:103D400068960FB6F894DEBF0FBECDBFCF91DF915E
:103D50001F910F91FF90EF90DF90CF90BF90AF90A9
:103D60000895BF92CF92DF92EF92FF920F931F932D
:103D7000DF93CF93CDB7DEB72C970FB6F894DEBFA5
:103D80000FBECDBF80EE91E00E94221C2AE9C22E18
:103D900025E0D22E96E6E92E96E0F92E8E010F5FF1
:103DA0001F4FBB24F60160817181828193810E9443
:103DB000EC33F70120813181428153810E945033DD
:103DC0009B01AC01F80160837183828393838091AE
:103DD000A30680FF0DC0CA01B9012BE832E441E21D
:103DE0005DE30E949D35F801608371838283938334
:103DF000F80160817181828193810E940C1BF2E045
:103E0000BF1621F08EED91E00E94221CB39484E055
:103E100090E0C80ED91EE80EF91E0C5F1F4F93E00C
:103E2000B91609F0BFCF8AED91E00E94221C2C96B2
:103E30000FB6F894DEBF0FBECDBFCF91DF911F91BB
:103E40000F91FF90EF90DF90CF90BF9008950F9368
:103E50001F938C0186E391E00E94221CC8010E94FE
:103E6000301C82E391E00E94221C1F910F91089563
:103E7000FF920F931F93F82E8B018BE491E00E9429
:103E8000221C8F2D0E94BE1B89E491E00E94221CFF
:103E9000C8010E94301C86E491E00E94221C1F9100
:103EA0000F91FF90089580911B05823091F083302F
:103EB00028F4882341F08130B1F408C0833061F0E8
:103EC000853089F40CC089EB91E00BC085EB91E063
:103ED00008C081EB91E005C08DEA91E002C088EA5C
:103EE00091E00E94221C85EA91E00E94221C8091B0
:103EF00020058A5C0E94BE1B80911F05813041F025
:103F0000813018F0823059F406C080EA91E005C093
:103F10008BE991E002C086E991E00E94221C809129
:103F20001D05882319F481E991E002C08CE891E035
:103F30000E94221C80911E05882319F487E891E0D5
:103F400002C082E891E00E94221C80911C05813011
:103F500019F48DE791E002C088E791E00E94221CED
:103F600080912105813041F0813018F0823059F480
:103F700006C084E791E005C080E791E002C08CE6CE
:103F800091E00E94221C80912305813029F081302C
:103F900048F0823059F403C088E691E005C084E619
:103FA00091E002C080E691E00E94221C80912205EF
:103FB000882319F0823041F403C08CE591E002C0FF
:103FC00088E591E00E94221C85E591E00E94221C78
:103FD00080912C050E94BE1B82E591E00E94221C6C
:103FE000609128057091290580912A0590912B05F3
:103FF0000E940C1B8EE491E00E94221C08951F93E6
:10400000182F882319F48AE298E05CC082E298E0D5
:104010000E94221C1730A9F1183078F4133029F1CE
:10402000143030F41130C9F0123009F042C018C019
:10403000153009F1163010F51BC01B3071F11C3022
:1040400028F4193021F11A3028F51EC0153141F13C
:10405000163161F1143169F526C08AE098E002C09A
:1040600088EF97E00E94221C2BC086EE97E0FACFE3
:104070008CED97E0F7CF8BEC97E0F4CF8CEB97E0EB
:10408000F1CF8BE997E0EECF82E997E0EBCF87E8BD
:1040900097E0E8CF84E797E0E5CF86E697E0E2CFC8
:1040A00080E597E0DFCF8CE397E0DCCF88E297E014
:1040B000D9CF86E197E00E94221C812F0E94BE1B6F
:1040C00083E197E00E94221C1F910895CF92DF9216
:1040D000EF92FF920F931F93DF93CF93CDB7DEB78D
:1040E0002C970FB6F894DEBF0FBECDBFFF246E0134
:1040F0000894C11CD11C8F2DB6010E9475268823FF
:1041000021F487E00E94FF1F79C087ED91E00E94B3
:10411000221C86E0F81621F0E7E0FE1649F403C001
:1041200084ED91E002C081ED91E00E94221C04C068
:104130008F2D8A5C0E94BE1B8FEC91E00E94221C96
:104140008601EE248091A30680FF0CC0F8016081F7
:104150007181828193812BE832E441E25DE30E9428
:104160009D3505C0F80160817181828193810E9433
:104170000C1BF2E0EF1619F08DEC91E002C089EC17
:1041800091E00E94221CE3940C5F1F4F83E0E8162D
:10419000C9F6F394E8E0FE1609F0ADCF83EC91E0A8
:1041A0000E94221C05E415E0FF248091A30680FFF5
:1041B0000CC0F80160817181828193812BE832E427
:1041C00041E25DE30E949D3505C0F8016081718187
:1041D000828193810E940C1BF2E0FF1619F081ECA2
:1041E00091E002C08DEB91E00E94221CF3940C5FE1
:1041F0001F4F83E0F816C9F60E94B11E2C960FB629
:10420000F894DEBF0FBECDBFCF91DF911F910F910C
:10421000FF90EF90DF90CF900895EF92FF920F9371
:104220001F938CE395E00E94221CF6E6EF2EF6E049
:10423000FF2E6091660670916706809168069091E6
:1042400069060E940C1B89E295E00E94221C609185
:104250006A0670916B0680916C0690916D060E94C3
:104260000C1B86E195E00E94221C60916E06709105
:104270006F0680917006909171060E940C1B83E07E
:1042800095E00E94221C60917206709173068091E5
:104290007406909175060E940C1B88EE94E00E94B3
:1042A000221C609176067091770680917806909135
:1042B00079060E940C1B8DEC94E00E94221C6091F8
:1042C0007A0670917B0680917C0690917D060E9413
:1042D0000C1B82EB94E00E94221C60917E06709180
:1042E0007F06809180069091810620E030E041E6D3
:1042F00055E40E9450330E940C1B88E994E00E9410
:10430000221C6091820670918306809184069091B0
:10431000850620E030E041E655E40E9450330E94DB
:104320000C1B8EE794E00E94221C6091860670911F
:104330008706809188069091890620E030E041E66A
:1043400055E40E9450330E940C1B84E694E00E94C6
:10435000221C60918A0670918B0680918C06909148
:104360008D0690580E940C1B8AE494E00E94221C47
:1043700060918E0670918F068091900690919106C3
:1043800090580E940C1B80E394E00E94221C6091D4
:10439000920670919306809194069091950690589C
:1043A0000E940C1B86E194E00E94221C80919606DC
:1043B0000E94BE1B8CEF93E00E94221C8091970606
:1043C0000E94BE1B83EE93E00E94221C8091970600
:1043D0000E94F11B8BED93E00E94221C80919806B5
:1043E0000E94BE1B83EC93E00E94221C80919806E1
:1043F0000E94F11B8BEB93E00E94221C8091990696
:104400000E94BE1B8CE993E00E94221C60919A06D8
:1044100070919B0680919C0690919D060E940C1BBA
:104420008CE793E00E94221C60919E0670919F068B
:104430008091A0069091A1060E940C1B81E693E05A
:104440000E94221C8091A2060E94BE1B88E493E079
:104450000E94221C8701035C1F4FF801808181703C
:104460000E94BE1B8BE293E00E94221CF801808117
:1044700090E09695879581700E94BE1B81E193E044
:104480000E94221CF801808190E096958795969570
:10449000879581700E94BE1B8FEE92E00E94221CC5
:1044A000F801808190E066E0969587956A95E1F73E
:1044B00081700E94BE1B8EEC92E00E94221CF801CB
:1044C000808190E055E0969587955A95E1F7817047
:1044D0000E94BE1B83EB92E00E94221CF8018081A7
:1044E00090E043E0969587954A95E1F781700E94A8
:1044F000BE1B88E992E00E94221CF801808190E0B6
:1045000034E0969587953A95E1F781700E94BE1B3D
:104510008CE792E00E94221C8EE390E0E80EF91EE8
:10452000F70180810E94BE1B82E692E00E94221C5D
:10453000F70180810E94F11B8AE592E00E94221C13
:104540006091A5067091A6068091A7069091A80695
:104550000E940C1B8DE392E00E94221C6091A90630
:104560007091AA068091AB069091AC060E940C1B3C
:1045700080E292E00E94221C8091AD060E94BE1B48
:1045800081E092E00E94221C6091AF067091B0061B
:104590008091B1069091B2060E940C1B88EE91E0CA
:1045A0000E94221C1F910F91FF90EF9008951F937E
:1045B000182F8BE097E00E94221C1E3F41F01F3F06
:1045C00019F01D3F59F406C08BEF96E005C088EE48
:1045D00096E002C08DED96E00E94221C8AED96E0E6
:1045E0000E94221C84EF91E00E9409161F910895F9
:1045F000E0ECF0E08081826080831092C50080E171
:104600008093C400E1ECF0E0808180618083808150
:10461000886080838081806880830895282FE0915E
:104620004A049E2F9F5F903431F490E004C0809143
:104630008A0584FD0FC080914B049817C1F3F0E008
:10464000EA5DF94F208390934A048091C100806213
:104650008093C10008951F920F920FB60F921124FC
:104660008F939F93EF93FF9380914B04E82FF0E09B
:10467000EA5DF94F90819093C600982F9F5F903428
:1046800009F490E090934B0480914A04981729F420
:104690008091C1008F7D8093C100FF91EF919F9128
:1046A0008F910F900FBE0F901F9018959091490415
:1046B00080914804891711F48FEF0895E92FF0E0F5
:1046C000EA55FA4F8081E92FEF5FE03809F4E0E026
:1046D000E093490408958091480480934904089523
:1046E0001F920F920FB60F9211242F933F934F9367
:1046F0005F936F937F938F939F93AF93BF93EF934A
:10470000FF932091C6002132A1F0223218F4283103
:10471000B9F413C02F3319F02E3791F404C08091EF
:104720008A05816003C080918A05826080938A0532
:1047300018C080918A058860F9CF0E940C1111C0C1
:10474000E09148049E2F9F5F903809F490E080919B
:104750004904981731F0F0E0EA55FA4F208390931E
:104760004804FF91EF91BF91AF919F918F917F91FD
:104770006F915F914F913F912F910F900FBE0F90CE
:104780001F90189580E090E00E944B04873011F054
:1047900020E00CC086E696E061E070E04DE450E079
:1047A0000E94BE0420E0892B09F021E0822F0895A9
:1047B00080E090E067E00E94530481E090E066E6CC
:1047C00076E04DE450E00E9475040895EF92FF9268
:1047D0000F931F93CF93DF93EC017A018B01CB01F1
:1047E000BA0120E030E040E050E00E9449338823E5
:1047F00014F484E0A4C1FE01CF31D10540F4EC5C97
:10480000FF4FEE0FFF1F0590F491E02D099483E018
:1048100096C1CC0FDD1FCC0FDD1FCA59D94FE882DE
:10482000F9820A831B8388C1E0927206F0927306B4
:1048300000937406109375067FC1E0927606F0929D
:104840007706009378061093790676C1E0927A068F
:10485000F0927B0600937C0610937D066DC1C80123
:10486000B70120E030E040E752E40E949D3520E0AF
:1048700030E040E752E40E949D3560937E067093DD
:104880007F06809380069093810656C1C801B701C8
:1048900020E030E040E752E40E949D3520E030E027
:1048A00040E752E40E949D35609382067093830630
:1048B00080938406909385063FC1C801B70120E02C
:1048C00030E040E752E40E949D3520E030E040E7D0
:1048D00052E40E949D35609386067093870680930C
:1048E00088069093890628C1D801C701B0588093E3
:1048F0008A0690938B06A0938C06B0938D061CC1FC
:10490000D801C701B05880938E0690938F06A0936C
:104910009006B093910610C1D801C701B05880939A
:10492000920690939306A0939406B093950604C1C3
:10493000C801B70120E030E040E450E40E94493370
:10494000882314F486E0FBC0C801B7010E94083632
:104950000E94BE3360939606EFC0C801B7010E9463
:1049600077360E94BE3360939706E6C0C801B70150
:104970000E9477360E94BE3360939806DDC0C8015E
:10498000B7010E9408360E94BE3360939906D4C0D6
:10499000D801C701BF7780939A0690939B06A09396
:1049A0009C06B0939D06C8C0E0929E06F0929F06BA
:1049B0000093A0061093A106BFC0C801B7010E94D2
:1049C00008360E94BE336093A206B6C0C801B70184
:1049D00020E030E040E050E00E944933882321F09D
:1049E0008091A306816011C08091A3068E7F0DC0C7
:1049F000C801B70120E030E040E050E00E944933B8
:104A0000882331F08091A30682608093A30694C02E
:104A10008091A3068D7FF9CFC801B70120E030E077
:104A200040E050E00E944933882321F08091A306A2
:104A30008460EBCF8091A3068B7FE7CFC801B701DD
:104A400020E030E040E050E00E944933882321F02C
:104A50008091A3068064D9CF8091A3068F7BD5CFA8
:104A6000C801B70120E030E040E050E00E94493347
:104A7000882341F08091A30684FD02C08AE05FC0D4
:104A80008062C3CF8091A3068F7DBFCFC801B701DD
:104A900020E030E040E050E00E944933882321F0DC
:104AA0008091A306886003C08091A306877F8093CE
:104AB000A3060E94180E40C0C801B70120E030E0F4
:104AC00040E050E00E944933882321F08091A30602
:104AD00080619BCF8091A3068F7C97CFC801B701DF
:104AE0000E9477360E94BE336093A40625C0E092F0
:104AF000A506F092A6060093A7061093A8061CC070
:104B0000E092A906F092AA060093AB061093AC06B9
:104B100013C0C801B7010E9408360E94BE337093CB
:104B2000AE066093AD0608C0E092AF06F092B00604
:104B30000093B1061093B2060E94D82380E0DF9163
:104B4000CF911F910F91FF90EF900895E6E6F6E068
:104B500080E090E0AAE7B3E480936606909367064E
:104B6000A0936806B093690680936A0690936B06DB
:104B7000A0936C06B0936D0680936E0690936F06BB
:104B8000A0937006B09371068AE08093960620E0A9
:104B900030E04AEF53E4209372063093730640935B
:104BA00074065093750620937606309377064093EB
:104BB00078065093790620937A0630937B064093CB
:104BC0007C0650937D0680E090EAACE0B7E48093E9
:104BD0007E0690937F06A0938006B0938106809313
:104BE000820690938306A0938406B09385068093F3
:104BF000860690938706A0938806B09389068FE671
:104C000092E1A3E0BBE380939E0690939F06A0935E
:104C1000A006B093A1061092970680EC80939806A8
:104C20008AE097EDA3EABCE380939A0690939B06F3
:104C3000A0939C06B0939D0682E085AF16AE80E0FF
:104C400090E0A8ECB1E48093A5069093A606A0930B
:104C5000A706B093A8062093A9063093AA0640930E
:104C6000AB065093AC068AEF90E09093AE0680932B
:104C7000AD0680E090E0A0E8BFE38093AF0690939C
:104C8000B006A093B106B093B20689E1809399066D
:104C900083E08093A20680E090E0A8E4B3EC8093E8
:104CA0008A0690938B06A0938C06B0938D06809312
:104CB0008E0690938F06A0939006B09391068093F2
:104CC000920690939306A0939406B09395060E9443
:104CD000D82308959DE0899FC001112480509E4FE4
:104CE0004CE050E00E94750408950F931F93CF93FA
:104CF000DF93162F072F9DE0899FE0011124C050FC
:104D0000DE4F862F972FBE014CE050E00E94BE047C
:104D1000892B11F081E00FC0E12FF02F8CE0DF0133
:104D20001D928A95E9F7CE01612F702F4CE050E07B
:104D30000E94750480E0DF91CF911F910F9108953B
:104D4000EF92FF921F93DF93CF93CDB7DEB72C97EF
:104D50000FB6F894DEBF0FBECDBF0E94C2238823DA
:104D600039F487E00E94FF1F0E94A6250E940D21B2
:104D700010E07E010894E11CF11C812FB7010E9414
:104D80007526882319F487E00E94FF1F1F5F1830E3
:104D9000A1F72C960FB6F894DEBF0FBECDBFCF9112
:104DA000DF911F91FF90EF900895BC0180EE93E09A
:104DB00046E450E00E9475040895CF93DF93EC0120
:104DC00060EE73E046E450E00E94BE04892B11F0CF
:104DD00081E009C0188280EE93E0BE0146E450E015
:104DE0000E94750480E0DF91CF91089597E4899F38
:104DF000C001112480509D4F46E450E00E9475048C
:104E000008950F931F93CF93DF938B0197E4899FAE
:104E1000E0011124C050DD4FCB01BE0146E450E05B
:104E20000E94BE04892B11F081E009C0F8011082B4
:104E3000CE01B80146E450E00E94750480E0DF91A5
:104E4000CF911F910F910895249A259A2C98089537
:104E50002C9808951F93182F80918905823061F452
:104E60000E94F01C112311F42C9806C0113011F48B
:104E70002D9801C02D9A2C9A1F9108958091A30618
:104E800082FF02C0289A01C0289880918905847108
:104E9000A1F0809198068093D40480919706809326
:104EA000D30480919606880F845081958093D20414
:104EB00080916F00826080936F0008951F920F921F
:104EC0000FB60F9211248F939F939BB180919706F9
:104ED0008C71937E892B8BB915BC9F918F910F900C
:104EE0000FBE0F901F9018958AB18C618AB98BB153
:104EF000837E90919706892B8BB9209A8AB1806E18
:104F00008AB98BB18F7190919806892B8BB9E1E8A2
:104F1000F0E080818F7E8083808188608083E0E8FC
:104F2000F0E080818C7F808380818F708083EEE6CB
:104F3000F0E08081887F808314BC15BC8081816013
:104F400080830895CF93DF93C091EC04D091ED045A
:104F50002097B9F081E08093F1042091070530910A
:104F600008054091090550910A05CA01B9010E943E
:104F70009D35698B7A8B8B8B9C8B1092ED041092F4
:104F8000EC04DF91CF9108952F923F924F925F9260
:104F90006F927F928F929F92AF92BF92CF92DF9249
:104FA000EF92FF920F931F93DF93CF93CDB7DEB7AE
:104FB000E9970FB6F894DEBF0FBECDBF17C680913C
:104FC000EC049091ED04892B09F07EC20E945F16DB
:104FD0009093ED048093EC04892B09F40EC6809124
:104FE000F104882319F01092F104CAC08091F004F2
:104FF0008F5F8093F004853011F41092F004E091FB
:10500000F00421E1E29FF0011124E45BFB4FF093F7
:10501000EF04E093EE040091EC041091ED04D8014C
:105020008C91808311962D913D914D915C911497B7
:1050300073E0220F331F441F551F7A95D1F7218348
:1050400032834383548315962D913D914D915C910C
:10505000189763E0220F331F441F551F6A95D1F73D
:10506000258336834783508719962D913D914D9125
:105070005C911C9793E0220F331F441F551F9A9594
:10508000D1F721873287438754871D962D913D9113
:105090004D915C91509783E0220F331F441F551FA1
:1050A0008A95D1F7258736874787508B1D966D9156
:1050B0007D918D919C9150970E94EA336093F20408
:1050C0007093F3048093F4049093F504F80125A100
:1050D00036A147A150A50E9450339B01AC016093BB
:1050E000F6047093F7048093F8049093F90460E059
:1050F00070E080EA9FE30E9450336093FA0470935B
:10510000FB048093FC049093FD0480E090E0A0E019
:10511000B0E08093FE049093FF04A0930005B09349
:105120000105809189058032E1F420910F053091CD
:1051300010054091110550911205209307053093F9
:1051400008054093090550930A05CA01B9010E9458
:105150009D35D80151966D937D938D939C93549773
:105160000FC0F80161897289838994890E9432365F
:1051700060930705709308058093090590930A05CD
:1051800080E090E0A0E0B0E08093030590930405F8
:10519000A0930505B09306050091EC041091ED0471
:1051A000D80191968D919D910D90BC91A02D88ABC9
:1051B00099ABAAABBBAB60E070E080E09FE328A9AD
:1051C00039A94AA95BA90E9450331B012C01809187
:1051D0008905803209F056C0B2E0B0930205F801AB
:1051E000A5A0B6A0C7A0D0A461887288838894883F
:1051F000C201B101A40193010E949D359B01AC0144
:10520000C601B5010E9464327B018C0120E030E0D0
:1052100040E050E00E9449338823FCF468A979A952
:105220008AA99BA920E030E040E050EC0E949D3527
:10523000A60195010E949D359B01AC01C401B301FB
:105240000E9465320E94323660930F0570931005FC
:10525000809311059093120537C1E0920305F092F7
:105260000405009305051093060580E090E0A0E09A
:10527000B0E080930F0590931005A0931105B093B3
:10528000120522C110920205F80185A196A1A7A1DD
:10529000B0A58093130590931405A0931505B093C2
:1052A00016050E94D3175B016C0160930F05709384
:1052B00010058093110590931205A60195010E9497
:1052C0009D353B014C012091EC043091ED0439AF48
:1052D00028AFD90195968D919D910D90BC91A02DEF
:1052E0008B8F9C8FAD8FBE8FF90161897289838905
:1052F0009489A40193010E9464329B01AC01C20114
:10530000B1010E949D359B01AC016B8D7C8D8D8D13
:105310009E8D0E94653220E030E040E05FE30E9415
:105320009D357B018C0120E030E040E050E00E94A0
:10533000603518160CF0B4C0C801B7012B8D3C8D38
:105340004D8D5E8D0E94493388230CF095C0A8AD29
:10535000B9AD5D966D917D918D919C919097A401D1
:1053600093010E9464329B01AC01C201B1010E9411
:105370009D356093170570931805809319059093D8
:105380001A05A80197010E94493388230CF047C0F1
:10539000E8ADF9ADE58CF68C078D10A1C801B70119
:1053A0000E94323660930B0570930C0580930D05B7
:1053B00090930E05A8ADB9AD5196AD90BD90CD902E
:1053C000DC905497C601B501A80197010E944933AA
:1053D000882321F4B1E0B093020576C0C801B7017B
:1053E000A60195010E9464329B01AC01C201B1018A
:1053F0000E949D359B01AC016091130570911405CD
:1054000080911505909116050E94643260931305F2
:1054100070931405809315059093160555C0E0927E
:105420001305F09214050093150510931605E092EC
:105430001705F09218050093190510931A05E8ADA9
:10544000F9AD21A132A143A154A1CA01B9010E9421
:105450006532A80197010E949D35A40193010E9425
:1054600065320E94323660930B0570930C05809371
:105470000D0590930E0528C0F2E0F093020580918F
:10548000070590910805A0910905B0910A05809340
:105490000B0590930C05A0930D05B0930E0514C059
:1054A00080E090E0A0E0B0E08093130590931405B5
:1054B000A0931505B0931605A0920B05B0920C05AC
:1054C000C0920D05D0920E058091E904B6E08B9F45
:1054D000D0011124AF55BB4FB9AFA8AF8091F004F4
:1054E00012968C93E091EC04F091ED04FA8FE98F21
:1054F00085A196A1A7A1B0A58D8B9E8BAF8BB88FF0
:10550000BC01CD012091FA043091FB044091FC04D0
:105510005091FD040E9464326CA37DA38EA39FA3CF
:1055200020E030E040E050E00E944933882344F41A
:1055300080E090E0A0E0B0E08CA39DA3AEA3BFA369
:105540008091130590911405A0911505B091160551
:10555000898B9A8BAB8BBC8B80910B0590910C0542
:10556000A0910D05B0910E058D879E87AF87B88BF2
:105570008091170590911805A0911905B0911A0511
:1055800089879A87AB87BC87809103059091040532
:10559000A0910505B09106058D839E83AF83B887E2
:1055A00080910F0590911005A0911105B091120501
:1055B00089839A83AB83BC8380910705909108050A
:1055C000A0910905B0910A0588A399A3AAA3BBA33A
:1055D000909102059F8FAD88BE88CF88D88C8EE3CE
:1055E00093ECAEE2B9E38CA79DA7AEA7BFA780E07E
:1055F00090E0A0E0B0E088A799A7AAA7BBA70F2ECC
:10560000FEE36F2EF3EC7F2EFEE28F2EF9E39F2E4A
:10561000F02D9F8D992321F0913009F0B3C080C007
:10562000C401B301A98DBA8D91962D913D914D91F3
:105630005C9194970E949D357B018C0120E030E0C5
:1056400040E05FE30E949D359B01AC0168A179A118
:105650008AA19BA10E9465329B01AC01C401B301E8
:105660000E949D359B01AC01C601B5010E946432C8
:105670005B016C0129893A894B895C890E94493315
:1056800088230CF040C069897A898B899C89298597
:105690003A854B855C850E944933882319F4B2E032
:1056A000BF8F02C0E1E0EF8F6D897E898F89988D71
:1056B00029893A894B895C890E9464329B01AC013B
:1056C0000E9465327B018C0168A179A18AA19BA10E
:1056D0002D853E854F8558890E9465329B01AC011E
:1056E000C801B7010E9450333B014C01A988BA8818
:1056F000CB88DC888D859E85AF85B88988A399A3E2
:10570000AAA3BBA3B0C068A179A18AA19BA1A8014B
:1057100097010E94653268A379A38AA39BA3A3C0C3
:105720006D857E858F859889A40193010E949D35A2
:105730009B01AC01C601B5010E9464327B018C0162
:1057400029853A854B855C850E94493387FD03C0D6
:105750005701680188C0C601B50129853A854B8586
:105760005C850E9464322D853E854F8558890E9454
:1057700050333B014C01A984BA84CB84DC8492E091
:105780009F8F71C0C401B301A98DBA8D91962D91DF
:105790003D914D915C9194970E949D357B018C01C8
:1057A00068A179A18AA19BA1A80197010E946035F7
:1057B0001816ACF5C801B70120E030E040E05FEB1F
:1057C0000E949D359B01AC0168A179A18AA19BA192
:1057D0000E9465329B01AC01C401B3010E949D355A
:1057E0009B01AC01C601B5010E9464321B012C0172
:1057F0002D813E814F8158850E94603518167CF4BA
:1058000068A179A18AA19BA1A80197010E94643295
:1058100068A379A38AA39BA36201510124C0C60196
:10582000B5012D813E814F8158850E9464329B01D4
:10583000AC010E9465327B018C0168A179A18AA12B
:105840009BA129813A814B815C810E9465329B0139
:10585000AC01C801B7010E9450333B014C01AD803F
:10586000BE80CF80D88468A579A58AA59BA5A40110
:1058700093010E94653268A779A78AA79BA72CA5E8
:105880003DA54EA55FA50E94493388232CF46CA545
:105890007DA58EA59FA518C0C601B5012CA13DA16F
:1058A0004EA15FA10E94603518160CF56CA57DA570
:1058B0008EA59FA52EE333EC4EE259E30E9465329C
:1058C0006CA77DA78EA79FA728A539A54AA55BA58C
:1058D0000E9464323B014C01C601B5012D813E811D
:1058E0004F8158850E94603518160CF492CE88A11D
:1058F00099A1AAA1BBA18093070590930805A09345
:105900000905B0930A059F8D90930205C601B50164
:105910002091F6043091F7044091F8045091F90475
:105920000E949D356CAB7DAB8EAB9FAB0E94363336
:105930001B012C016091F2047091F3048091F40436
:105940009091F5040E9436333B014C01A201910174
:105950000E9464320E94BE33A8ADB9AD6D937C93B2
:10596000672BB1F580918905803291F580E090E058
:10597000A0E0B0E08093070590930805A093090587
:10598000B0930A058093FE049093FF04A093000552
:10599000B09301052092F2043092F3044092F40493
:1059A0005092F5040091EC041091ED04C201B10194
:1059B0002091F6043091F7044091F8045091F904D5
:1059C0000E945033F80165A376A387A390A702C174
:1059D00068A579A58AA59BA52091FE043091FF04B6
:1059E00040910005509101050E9465327B018C01B8
:1059F000C401B3012CA93DA94EA95FA90E9464323C
:105A00009B01AC01C801B7010E9450337B018C019E
:105A1000C201B1012CA93DA94EA95FA90E9464321F
:105A2000A80197010E949D356093FE047093FF04C6
:105A30008093000590930105C801B70120EC31EE79
:105A400044E65EE40E949D350E9436330E94BE33D8
:105A5000AB01BC01403DF7E05F07F0E06F07F0E00D
:105A60007F0728F4A8ADB9AD15961C9233C0403A13
:105A7000BFE05B07B0E06B07B0E07B0728F421E0F4
:105A8000E8ADF9AD25830FC040343FE1530730E066
:105A9000630730E0730710F4E2E001C0E3E0A8AD73
:105AA000B9AD1596EC93A8ADB9AD15962C91159797
:105AB000022E04C076956795579547950A94D2F7BC
:105AC0008D919C91119702C0880F991F2A95E2F73A
:105AD0008D939C934030B0E05B07B1E06B07B0E082
