:100000000C9468040C9489040C9489040C9489045D
:100010000C9489040C9489040C9489040C9489042C
:100020000C9489040C94170F0C9489040C946A3274
:100030000C9489040C9489040C9489040C9489040C
:100040000C9489040C9422300C9489040C94890437
:100050000C9489040C9489040C9489040C941C2934
:100060000C9489040C94FF240C94B6240C948904F9
:100070000C9489040C9489040C9489040C948904CC
:100080000C9489040C9489040C9489040C948904BC
:100090000C9489040C9489040C9489040C948904AC
:1000A0000C9489040C9489040C9489040C9489049C
:1000B0000C9489040C9489040C9489040C9489048C
:1000C0000C9489040C9489040C9489040C9489047C
:1000D0000C9489040C9489040C9489040C9489046C
:1000E0000C9489049C259C259C25A725B025B92521
:1000F000C225D925F025072613261F262B264026A4
:10010000492652265B266426702679268226942666
:10011000A826BA26CC26E226F8260A2713271C276B
:1001200025273027084AD73B3BCE016E84BCBFFD54
:10013000C12F3D6C74319ABD56833DDA3D00C77FB7
:1001400011BED9E4BB4C3E916BAAAABE0000008050
:100150003F05A84CCDB2D44EB93836A9020C50B9DF
:10016000918688083CA6AAAA2ABE000000803F3ECD
:100170000D0A002C0057506F733A002C002C4D5084
:100180006F733A003C436865636B003C416C61727D
:100190006D003C486F6D65003C486F6C64003C52DC
:1001A000756E003C5175657565003C49646C650071
:1001B0005D0D0A005B302E39642E3230313430321E
:1001C00032383A000D0A003D00244E005D0D0A0051
:1001D000204600205400204D3800204D3900204D8D
:1001E0003500204D3400204D3300204D3200204D8D
:1001F0003100204D3000204739340020473933008A
:100200002047393100204739300020473231002063
:10021000473230002047313900204731380020472D
:100220003137002047005B473830005B4733005BC5
:100230004732005B4731005B4730005D0D0A002C00
:10024000005B4739323A005D0D0A002C0033303A2A
:100250000032383A0035393A0035383A0035373A05
:100260000035363A0035353A0035343A005B470000
:100270005D0D0A002C005B50726F62653A00202809
:10028000686F6D696E672070756C6C2D6F66662C7B
:10029000206D6D290D0A002028686F6D696E67203A
:1002A0006465626F756E63652C206D736563290DDF
:1002B0000A2433313D002028686F6D696E67207312
:1002C00065656B2C206D6D2F6D696E290D0A2433C9
:1002D000303D002028686F6D696E67206665656433
:1002E0002C206D6D2F6D696E290D0A2432393D0069
:1002F000290D0A2432383D002028686F6D696E6729
:100300002064697220696E76657274206D61736B0A
:100310003A002028686F6D696E67206379636C65A9
:100320002C20626F6F6C290D0A2432373D00202883
:1003300068617264206C696D6974732C20626F6FE0
:100340006C290D0A2432363D002028736F66742014
:100350006C696D6974732C20626F6F6C290D0A24AF
:1003600032353D002028696E76657274206C696DA7
:1003700069742070696E732C20626F6F6C290D0A8E
:100380002432343D002028696E76657274207374BF
:10039000657020656E61626C652C20626F6F6C29E0
:1003A0000D0A2432333D0020286175746F20737468
:1003B0006172742C20626F6F6C290D0A2432323DF9
:1003C0000020287265706F727420696E63686573AF
:1003D0002C20626F6F6C290D0A2432313D002028D9
:1003E0006E2D646563696D616C732C20696E742970
:1003F0000D0A2432303D00202861726320746F6C36
:100400006572616E63652C206D6D290D0A2431398A
:100410003D0020286A756E6374696F6E206465768E
:10042000696174696F6E2C206D6D290D0A24313855
:100430003D002028737465702069646C65206465D4
:100440006C61792C206D736563290D0A2431373D69
:1004500000290D0A2431363D00202864697220707D
:100460006F727420696E76657274206D61736B3A79
:1004700000290D0A2431353D002028737465702051
:10048000706F727420696E76657274206D61736B23
:100490003A00202864656661756C74206665656441
:1004A0002C206D6D2F6D696E290D0A2431343D00AD
:1004B0002028737465702070756C73652C207573BB
:1004C0006563290D0A2431333D0020287A206D61AF
:1004D000782074726176656C2C206D6D290D0A246C
:1004E00031323D00202879206D6178207472617668
:1004F000656C2C206D6D290D0A2431313D002028BA
:1005000078206D61782074726176656C2C206D6D39
:10051000290D0A2431303D0020287A20616363656B
:100520006C2C206D6D2F7365635E32290D0A2439A2
:100530003D0020287920616363656C2C206D6D2F50
:100540007365635E32290D0A24383D002028782027
:10055000616363656C2C206D6D2F7365635E32295A
:100560000D0A24373D0020287A206D6178207261C1
:1005700074652C206D6D2F6D696E290D0A24363D32
:1005800000202879206D617820726174652C206DBF
:100590006D2F6D696E290D0A24353D0020287820C5
:1005A0006D617820726174652C206D6D2F6D696EA0
:1005B000290D0A24343D0020287A2C20737465709C
:1005C0002F6D6D290D0A24333D002028792C2073CE
:1005D0007465702F6D6D290D0A24323D0020287836
:1005E0002C20737465702F6D6D290D0A24313D0028
:1005F00024303D00242420287669657720477262E4
:100600006C2073657474696E6773290D0A24232046
:100610002876696577202320706172616D65746545
:100620007273290D0A244720287669657720706146
:1006300072736572207374617465290D0A244E20EB
:100640002876696577207374617274757020626CA6
:100650006F636B73290D0A24783D76616C75652094
:100660002873617665204772626C207365747469C3
:100670006E67290D0A244E783D6C696E65202873DB
:10068000617665207374617274757020626C6F633B
:100690006B290D0A24432028636865636B20676318
:1006A0006F6465206D6F6465290D0A245820286BDE
:1006B000696C6C20616C61726D206C6F636B290DCD
:1006C0000A2448202872756E20686F6D696E672055
:1006D0006379636C65290D0A7E20286379636C65F4
:1006E000207374617274290D0A212028666565647F
:1006F00020686F6C64290D0A3F202863757272654B
:100700006E7420737461747573290D0A6374726C4E
:100710002D7820287265736574204772626C290DEC
:100720000A000D0A4772626C20302E3964205B2764
:10073000242720666F722068656C705D0D0A005D6D
:100740000D0A0044697361626C656400456E616204
:100750006C65640043617574696F6E3A20556E6C08
:100760006F636B656400272448277C272458272063
:10077000746F20756E6C6F636B00526573657420C7
:10078000746F20636F6E74696E7565005B000D0A8F
:100790000050726F6265206661696C0041626F7221
:1007A0007420647572696E67206379636C650048B4
:1007B0006172642F736F6674206C696D6974004197
:1007C0004C41524D3A20000D0A004C696E65206F75
:1007D000766572666C6F7700486F6D696E67206E24
:1007E0006F7420656E61626C656400416C61726D4E
:1007F000206C6F636B004E6F742069646C650045FC
:100800004550524F4D2072656164206661696C2EBF
:10081000205573696E672064656661756C7473003A
:1008200056616C7565203C203320757365630056F6
:10083000616C7565203C20302E30005365747469FE
:100840006E672064697361626C656400496E7661ED
:100850006C69642073746174656D656E74004D6FAE
:1008600064616C2067726F75702076696F6C61745B
:10087000696F6E00496E76616C69642072616469AB
:10088000757300556E737570706F72746564207344
:10089000746174656D656E74004578706563746528
:1008A0006420636F6D6D616E64206C657474657235
:1008B00000426164206E756D62657220666F726DB4
:1008C0006174006572726F723A20006F6B0D0A00DE
:1008D00011241FBECFEFD1E2DEBFCDBF00E00CBFC1
:1008E00012E0A0E0B2E0EAEEF1E700E00BBF02C0E8
:1008F00007900D92A030B107D9F717E0A0E0B2E061
:1009000001C01D92A339B107E1F70E9450110C9468
:10091000F3380C940000E1E0F1E080818062808394
:10092000E2E0F1E080818F7D80830895E2E0F1E0F4
:1009300080818F7D808308951F93182F0E94111E40
:10094000113021F480910201806203C08091020184
:100950008F7D809302011F910895F999FECF92BD7A
:1009600081BD81E08FBB80B50895F894F999FECFE1
:1009700092BD81BD81E08FBB40B54627842F99276A
:1009800087FD9095262F30E082239323892B39F021
:100990006F3F19F060BD84E006C084E104C04423C9
:1009A00021F060BD84E28FBBF99A789408958F920C
:1009B0009F92AF92BF92CF92DF92EF92FF920F93EE
:1009C000DF93CF930F920F92CDB7DEB75C016B012F
:1009D0007A014A0100E01EC0002319F021E030E056
:1009E00008C0202F332727FD30952227330F221FE1
:1009F0003327F60161916F01062F020F9C012F5FD3
:100A00003F4F3A8329830E94B504089481089108D6
:100A100089819A8181149104F9F6C7018A0D9B1D81
:100A2000602F0E94B5040F900F90CF91DF910F912E
:100A3000FF90EF90DF90CF90BF90AF909F908F90FE
:100A40000895CF93DF93EC01FB019A0190E0B1E0B0
:100A500019C0F999FECFF2BDE1BDBFBBA0B5992386
:100A600019F081E090E008C0892F992787FD9095C3
:100A70008827990F881F992731969A2F980FA99345
:100A8000215030402115310521F7460F571FF999A4
:100A9000FECF52BD41BD81E08FBB80B520E030E08C
:100AA000981711F421E030E0C901DF91CF9108954A
:100AB000609168067091690680916A0690916B0654
:100AC0000E94B1352091420730914307409144077D
:100AD000509145070E94163560932B0670932C06A3
:100AE00080932D0690932E0660916C0670916D0692
:100AF00080916E0690916F060E94B1352091460755
:100B00003091470740914807509149070E94163598
:100B100060932F06709330068093310690933206CF
:100B200060917006709171068091720690917306C3
:100B30000E94B13520914A0730914B0740914C07F4
:100B400050914D070E94163560933306709334061A
:100B5000809335069093360608950F931F93CF9395
:100B6000DF93EC018B01D9018C91FA01E80FF11DA3
:100B7000E081EE23A9F0E883E154EA3110F082E04D
:100B80000DC08C918F5F8C93CA01B901A8010E949E
:100B90004D16892B11F081E004C081E080931B0683
:100BA00080E0DF91CF911F910F9108952F923F9296
:100BB0004F925F926F927F928F929F92AF92BF926D
:100BC000CF92DF92EF92FF920F931F93CF93DF9319
:100BD0008C01E0913806F0E0EE0FFF1FEE0FFF1FD3
:100BE000DC01AE0FBF1FE55DF94F6D917D918D91D9
:100BF0009C9120813181428153810E9435341B01B7
:100C00002C01E0913906F0E0EE0FFF1FEE0FFF1F01
:100C10000E0F1F1FE55DF94FD8016D917D918D91EC
:100C20009C9120813181428153810E9435343B0166
:100C30004C018CE0E8E5F6E0DF011D928A95E9F7CA
:100C4000A0905406B0905506C0905606D090570616
:100C5000C601B50120E030E040E850E40E94E437EE
:100C6000A60195010E94E4377B018C01C201B1010C
:100C7000A20191010E94E4379B01AC01C801B701B8
:100C80000E9435347B018C01C401B301A40193019E
:100C90000E94E4379B01AC01C801B7010E943534C2
:100CA0007B018C0120E030E040E050E00E940F35F5
:100CB000882324F484E080931B0679C0C801B7011F
:100CC0000E9471387B018C01C201B101A401930122
:100CD0000E941F379B01AC0117FB109517F9109567
:100CE000C801B7010E9416357B018C0180911C065A
:100CF000833021F417FB109517F91095C601B50143
:100D000020E030E040E050E00E940F3588237CF482
:100D100017FB109517F91095D601C501B0588093AF
:100D2000540690935506A0935606B09357068091AB
:100D30003806C82FD0E0CC0FDD1FCC0FDD1FC85AFE
:100D4000D94FC401B301A80197010E94E4379B0168
:100D5000AC01C201B1010E94353420E030E040E036
:100D60005FE30E94E437688379838A839B83809161
:100D70003906C82FD0E0CC0FDD1FCC0FDD1FC85ABD
:100D8000D94FC201B101A80197010E94E4379B012C
:100D9000AC01C401B3010E94363420E030E040E0F1
:100DA0005FE30E94E437688379838A839B83DF91C2
:100DB000CF911F910F91FF90EF90DF90CF90BF9058
:100DC000AF909F908F907F906F905F904F903F90EB
:100DD0002F9008952F923F924F925F926F927F9241
:100DE0008F929F92AF92BF92CF92DF92EF92FF923B
:100DF0000F931F93DF93CF93CDB7DEB7E8970FB66E
:100E0000F894DEBF0FBECDBF4C0119822CE0FE016D
:100E10003796DF01822F1D928A95E9F780E090E0F6
:100E2000A0E0B0E08093540690935506A093560638
:100E3000B0935706E8E5F6E0DF011D922A95E9F741
:100E400010921B0618AE1FAA1EAA1DAAB3E06B2E95
:100E5000712C6C0E7D1E2E010894411C511CA1E0CA
:100E60002A2E312CF3E0AF2ECC24C394E2E0BE2E28
:100E7000F0C1EB80FC800D811E81C801B7010E948A
:100E8000B2380E947E359B014A81473421F04D34AF
:100E900009F0DFC16CC16E31710509F440C06F31DA
:100EA0007105D4F46431710584F461317105ECF598
:100EB00064307105A1F1653071051CF4772394F558
:100EC0002CC06A30710549F52AC066317105B4F14C
:100ED0006C31710511F523C06035710519F161356B
:100EE000710574F465337105D1F06633710524F42E
:100EF0006632710591F416C06C33710574F421C02B
:100F00006C35710561F06D35710524F46A35710534
:100F100024F00EC06F35710574F0DD2414C0DD249B
:100F2000D39411C072E0D72E0EC063E0D62E0BC052
:100F300054E0D52E08C046E0D42E05C097E0D92E47
:100F400002C08AE0D82E2C31310509F49CC02D3125
:100F50003105CCF52A30310509F46AC02B30310552
:100F6000CCF42230310509F46DC0233031054CF446
:100F70002115310509F460C02130310509F04FC158
:100F80005EC02330310509F460C02430310509F01A
:100F900046C150C02331310509F468C02431310500
:100FA0004CF42131310509F453C02231310509F0E7
:100FB00036C155C02431310509F45FC025313105F2
:100FC00009F02DC15DC02035310509F4A6C02135D9
:100FD0003105ACF42533310509F497C026333105CA
:100FE0004CF42E31310509F44EC02632310509F09A
:100FF00016C177C02C3331050CF011C189C02C35D6
:10100000310509F494C02D3531054CF42A353105EC
:1010100009F487C02B35310509F001C185C02D3594
:10102000310509F49EC02E35310509F0F8C09CC089
:10103000B2E04CC0E1E04DC010921C06F2C0C0927C
:101040001C06EFC0B0921C06ECC0A0921C06E9C0C2
:1010500010923806C0923906B0923A06E2C0B092B9
:10106000380610923906C0923A06DBC0C0923806A4
:10107000B092390610923A06D4C0C0921E06D1C072
:1010800010921E06CEC0C801B70120E030E040E259
:1010900051E40E94E4370E94B2380E947E35F1E0AC
:1010A00069317F0791F021E06A3172072CF46851B1
:1010B000714009F0B4C00CC091E06C32790759F06E
:1010C0006D52714009F0ABC009C0B4E0BDABA9C01E
:1010D000E3E0EDABA6C0F5E0FDABA3C026E02DAB91
:1010E000A0C0C801B70120E030E040E251E40E9416
:1010F000E4370E94B2380E947E356E57714009F085
:101100008EC0B4E0B0931C068CC0E1E0EEAB89C0A9
:10111000822F865380933B0684C0F5E0F0931C0633
:1011200080C0C0921F067DC010921F067AC0C80101
:10113000B70120E030E040E251E40E94E4370E9431
:10114000B2380E947E3523E06839720739F0695958
:10115000734009F064C098E09DAB63C0A7E0ADABFD
:1011600060C0C0921D065DC010921D065AC0663058
:10117000710534F4633071058CF4772364F409C08D
:101180006730710534F06A3071055CF06E317105BD
:1011900011F0DD2408C005E0D02E05C018E0D12EE6
:1011A00002C0B9E0DB2E2430310569F1253031056C
:1011B00084F421303105A9F1223031051CF4232BB0
:1011C000C9F02DC022303105C1F02330310539F589
:1011D00017C028303105E9F02930310524F42530D5
:1011E0003105E9F413C029303105B1F02E31310554
:1011F000B1F403C0C092200614C0B092200611C002
:10120000C09222060EC0B09222060BC01092220697
:1012100008C0C092210605C01092210602C0A0920B
:101220001B06DD20B1F0910102C0220F331FDA94BA
:10123000E2F78FA998AD82239323892B21F0B5E0A3
:10124000B0931B0606C0EFA9F8ADE22BF32BF8AF65
:10125000EFABCE010296B301A40192010E94AD054D
:10126000882309F006CE80911B06882309F019C552
:101270001982772455244424A0E83A2EFFEB2F2E20
:1012800080E090E0A0E0B0E089AB9AABABABBCAB48
:1012900018AAE2E0EE2EF12CEC0EFD1E73E0672E94
:1012A00016E040C10A810F347CF40D340CF03AC1D1
:1012B0000C340CF07EC009340CF05AC00634E9F04E
:1012C000073409F021C12EC1043509F4B9C0053530
:1012D00054F4023509F480C003350CF098C0003591
:1012E00009F012C170C0093509F4DCC00A3509F4EF
:1012F000F2C0083509F008C1BCC0AB80BC80CD800D
:10130000DE80C601B50120E030E040E050E00E9400
:101310000F35181614F010931B0680911D068823B4
:1013200081F080911E06882309F4F8C0C601B5013A
:1013300023E333E34BEC51E40E94E4375B016C019F
:10134000EDC080911E06882351F0C601B50123E34C
:1013500033E34BEC51E40E94E4375B016C01A09253
:101360002706B0922806C0922906D0922A06CEC03F
:101370002B813C814D815E8180911E06882351F036
:10138000CA01B90123E333E34BEC51E40E94E43793
:101390009B01AC01E02FFF27E7FDF095EE0FFF1F4B
:1013A000EE0FFF1FEC5CFA4F20833183428353839F
:1013B000ADC06B817C818D819E810E94B2380E947C
:1013C000833568ABA3C08B819C81AD81BE8189AB25
:1013D0009AABABABBCAB9AC02B813C814D815E819B
:1013E00080911E06882351F0CA01B90123E333E33B
:1013F0004BEC51E40E94E4379B01AC01209354066E
:101400003093550640935606509357067FC0AB80E5
:10141000BC80CD80DE80C601B50120E030E040E038
:1014200050E00E940F35882314F410931B06A092FD
:101430002306B0922406C0922506D092260666C0E6
:10144000AB80BC80CD80DE80C601B50120E030E0FD
:1014500040E050E00E940F35882314F410931B06DF
:10146000C601B5010E94B2380E94833560933706E9
:101470004DC02B813C814D815E8180911E06882369
:1014800051F0CA01B90123E333E34BEC51E40E946C
:10149000E4379B01AC012F83388749875A8791E055
:1014A000792A34C02B813C814D815E8180911E065A
:1014B000882351F0CA01B90123E333E34BEC51E433
:1014C0000E94E4379B01AC012B873C874D875E87E8
:1014D000A2E07A2A1BC02B813C814D815E818091E4
:1014E0001E06882351F0CA01B90123E333E34BEC14
:1014F00051E40E94E4379B01AC012F87388B498B64
:101500005A8BB4E07B2A02C060921B06252D342D35
:10151000432D522DC901DA015C016D015A2C4B2C6F
:101520003C2C2D2CC701BE016D5F7F4FA4019E0195
:101530002F5F3F4F0E94AD05882309F0B3CEB72C33
:10154000252D342D432D522DC901DA018BA79CA7DF
:10155000ADA7BEA780911B06882309F0A2C3809186
:1015600065068230C1F0EFA9F8ADF0FF0CC04091E4
:1015700023065091240660912506709126068091DD
:1015800022060E94E6288FA998AD91FF04C08091A1
:1015900021060E949C04AFA9B8ADB2FF13C08E0112
:1015A0000D5E1F4F80913B06B8010E9425288823BD
:1015B00009F476C3ACE3B6E0F8018CE001900D923B
:1015C0008150E1F7BDA9B43009F450C1B53048F4F9
:1015D000B23089F1B33008F0BAC0B13009F097C128
:1015E0000EC0EDA9E63009F441C1E63008F4AFC001
:1015F000E73009F446C1E83009F089C181C169A921
:101600007AA98BA99CA920E030E040E050E00E943C
:101610000F35882324F486E080931B0678C18091DF
:101620006506823009F473C169A97AA98BA99CA9BE
:101630000E94C3116CC1F8A9F23011F0F43159F4D1
:1016400069A97AA98BA99CA90E94B2380E947E350B
:101650006730710520F083E080931B065AC1772024
:1016600021F428A9223009F40EC1161617062CF40D
:101670004B0108948108910804C080913B06882E94
:1016800099248FA68E010D5E1F4F882DB8010E94F0
:101690002528882309F404C32BE2E22E26E0F22E4B
:1016A00097E0A92EB12CAC0EBD1E680100E010E041
:1016B000672C7724C301002E02C0959587950A9464
:1016C000E2F780FF20C088A9843199F4D7016D9199
:1016D0007D918D919C91F5012081318142815381D1
:1016E0000E943534D6016D937D938D939C9313970F
:1016F0000AC0F50180819181A281B381F6018083C6
:101700009183A283B3830F5F1F4F84E090E0E80EC4
:10171000F91EA80EB91EC80ED91E0330110551F6C8
:101720008E010D5E1F4F8FA5B8010E941A2880916F
:101730003B0690E08815990509F0EBC0ACE3B6E0F4
:10174000F8018CE001900D928150E1F7E2C0772022
:1017500009F46AC087E0C82ED12CCC0EDD1E0BE246
:1017600016E0EE24FF24A72CBB24C5010E2C02C0DA
:10177000959587950A94E2F780FF35C080911F0602
:101780008823F9F0D80151966D917D918D919C91AE
:1017900054975D962D913D914D915C9190970E944B
:1017A00036349B01AC01F6016081718182819381A5
:1017B0000E943634D6016D937D938D939C9313973D
:1017C0001CC0F6016081718182819381D8012D91C5
:1017D0003D914D915C910E943634F6016083718396
:1017E000828393830AC0F80180819181A281B381B1
:1017F000F60180839183A283B3830894E11CF11CDA
:1018000084E090E0C80ED91E0C5F1F4F93E0E916EC
:10181000F10409F0AACFCE01079640E050E060E85D
:101820007FEB20E00E941712BE01615E7F4FADA9E1
:10183000A33011F486E001C087E00E9425288823A8
:1018400009F42EC28E01015E1F4FC80140E050E036
:1018500060E87FEB20E00E941712ABE2B6E0F801EF
:101860008CE001900D928150E1F753C0BDA9B430D6
:1018700011F486E001C087E06BE276E00E941A284E
:1018800046C0772021F486E080931B0643C00BE21C
:10189000C02E06E0D02E17E0A12EB12CAC0EBD1E3E
:1018A00000E010E0E72CFF24C701002E02C0959550
:1018B00087950A94E2F780FF17C0F6016081718175
:1018C0008281938121893289438954890E943534E8
:1018D000D5012D913D914D915C910E943534F601D9
:1018E000658F768F878F90A30F5F1F4F84E090E006
:1018F000C80ED91EA80EB91E03301105A9F609C0DD
:101900008CE0E8E4F6E0DF011D928A95E9F7B72C58
:1019100001C0BB24BFA9B2FD03C0BB2009F4ACC108
:1019200080911D06882399F06BA57CA58DA59EA5A9
:1019300020E030E040E050E00E940F3588233CF486
:1019400080911C06853019F086E080931B06EEA975
:10195000EE2339F080911C06823018F086E08093E7
:101960001B0680911B06882309F09BC1B7E0CB2E94
:10197000D12CCC0EDD1E0BE216E0EE24FF248B2CC6
:101980009924C4010E2C02C0959587950A94E2F71C
:1019900080FF39C0FEA9FF2309F03FC080911F06D8
:1019A0008823F9F0D80151966D917D918D919C918C
:1019B00054975D962D913D914D915C9190970E9429
:1019C00036349B01AC01F601608171818281938183
:1019D0000E943634D6016D937D938D939C9313971B
:1019E0001CC0F6016081718182819381D8012D91A3
:1019F0003D914D915C910E943634F6016083718374
:101A0000828393830AC0F80180819181A281B3818E
:101A1000F60180839183A283B3830894E11CF11CB7
:101A200084E090E0C80ED91E0C5F1F4F93E0E916CA
:101A3000F10409F0A6CF80911C06843040F4823076
:101A4000B0F5882371F0813009F009C115C08430E8
:101A500009F4E8C0853009F002C1BB2009F4FFC0D9
:101A6000E3C0BB2009F4E0C0CE01079640E050E09F
:101A700060E87FEB20E018C0BB2009F4D5C0A0913E
:101A80001D06AA2341F45090270640902806309066
:101A9000290620902A06CE010796252D342DE32D08
:101AA000F22DA901BF012A2F0E941712D8C081E090
:101AB00090E000903A0602C0880F991F0A94E2F75E
:101AC00080958B2109F4B0C0A0905406B0905506C3
:101AD000C0905606D0905706C601B50120E030E010
:101AE00040E050E00E940F358823B9F5E0913806B8
:101AF000F0E0EE0FFF1FEE0FFF1FE85AF94FE080F6
:101B0000F18002811381C801B70120E030E040E09C
:101B100050E00E940F358823B1F4E0913906F0E0DF
:101B2000EE0FFF1FEE0FFF1FE85AF94F6081718122
:101B30008281938120E030E040E050E00E940F3548
:101B4000882309F471C0C601B50120E030E040E00F
:101B500050E00E940F35882349F0CE0107960E947D
:101B6000D60580911B068823D1F09BC0E0913906F1
:101B7000F0E0EE0FFF1FEE0FFF1FE85AF94F208134
:101B8000318142815381C801B7010E941F376093A0
:101B900054067093550680935606909357063091DD
:101BA0001C062091380600913906E0903A06809094
:101BB0001D06882041F4509027064090280630905A
:101BC000290620902A0600D00F920F924DB75EB7DB
:101BD0004F5F5F4F8091540690915506A091560635
:101BE000B0915706EDB7FEB781839283A383B48388
:101BF00080E0323009F481E0DA0114968C938BE2B4
:101C000096E0BE01695F7F4F48E556E0A52CB42CF5
:101C1000C32CD22C0E94E6120F900F900F900F90C1
:101C20000F901DC0BB2021F486E080931B0617C0D7
:101C3000A0911D06AA2341F4509027064090280643
:101C40003090290620902A06CE010796252D342DA6
:101C5000E32DF22DA901BF012A2F0E944F1280917E
:101C60001B068823F1F4ABE2B6E0FE0137968CE068
:101C700001900D928150E1F780912006882369F050
:101C80000E94111E1092740680912006823019F471
:101C90000E94901102C01092200680911B0601C084
:101CA0008AE0E8960FB6F894DEBF0FBECDBFCF91A5
:101CB000DF911F910F91FF90EF90DF90CF90BF9039
:101CC000AF909F908F907F906F905F904F903F90DC
:101CD0002F900895EBE1F6E089E4DF011D928A95EB
:101CE000E9F78091730790917407A0917507B091FF
:101CF00076078093270690932806A0932906B09331
:101D00002A061092380691E09093390682E080937B
:101D10003A0690931F0680913B06BF016F5D7F4F8F
:101D20000E942528882319F48AE00E94D41E089571
:101D300084B18F7884B980918307982F86FF03C080
:101D400085B18F7802C085B1806785B993FF09C0DE
:101D500080916B00806780936B0080916800816048
:101D600008C080916B008F7880936B008091680031
:101D70008E7F809368000895EBE6F0E080818F7895
:101D80008083E8E6F0E080818E7F80830895CF92A3
:101D9000DF92EF92FF920F931F93CF93DF936C012B
:101DA000C0E0D0E0F601EC0FFD1FE080F180028181
:101DB0001381C801B70120E030E040E050E00E940C
:101DC000123718166CF0FE01EE5BF84FC801B70130
:101DD00024A135A146A157A10E940F358823D4F430
:101DE00080916506803161F48091660688608093F9
:101DF00066060E94891D809164068823D1F30EC077
:101E00000E949011809166068066809366060E940B
:101E1000891D04C02496CC30D10521F6DF91CF91E5
:101E20001F910F91FF90EF90DF90CF9008951F9238
:101E30000F920FB60F920BB60F9211242F933F9370
:101E40004F935F936F937F938F939F93AF93BF93C2
:101E5000EF93FF9380916506813059F0809166067B
:101E600085FD07C00E949011809166068066809370
:101E70006606FF91EF91BF91AF919F918F917F91F6
:101E80006F915F914F913F912F910F900BBE0F90EB
:101E90000FBE0F901F9018952F923F924F925F9216
:101EA0006F927F928F929F92AF92BF92CF92DF926A
:101EB000EF92FF920F931F93DF93CF93CDB7DEB7CF
:101EC00068970FB6F894DEBF0FBECDBF982E8091F5
:101ED0006406882309F0CBC18091890790918A0715
:101EE000A0918B07B0918C078F87988BA98BBA8BA9
:101EF000E0906607F0906707009168071091690706
:101F0000D0906A07C0906B07B0906C07A0906D07E7
:101F1000C801B7012D2D3C2D4B2D5A2D0E94123793
:101F2000181634F48D2D9C2DAB2DBA2D7C018D010E
:101F3000D0906E07C0906F07B0907007A0907107A7
:101F4000C801B7012D2D3C2D4B2D5A2D0E94123763
:101F5000181634F48D2D9C2DAB2DBA2D7C018D01DE
:101F6000C801B70120E030E040EC5FEB0E94E437AD
:101F70006B017C010E94D11B01E095E09D871E0151
:101F80000894211C311C492C552446015701B7FAED
:101F9000B094B7F8B094D201A170B070BC8BAB8B89
:101FA000F201E270F070FE8BED8BC20184709070D4
:101FB000988F8F8B8091830786FD02C00E8703C0A8
:101FC00091E090279E873101F10160E020E030E050
:101FD000C201022E02C0959587950A94E2F780FF10
:101FE0000DC06F5F002329F480829182A282B382A8
:101FF0000DC0C082D182E282F38208C080E090E00E
:10200000A0E0B0E080839183A283B3832F5F3F4F32
:10201000349623303105E1F630918407232F35FFC4
:1020200009C089819A81AB81BC81B05889839A8328
:10203000AB83BC8326FF09C08D819E81AF81B885AB
:10204000B0588D839E83AF83B88737FF09C08985D9
:102050009A85AB85BC85B05889879A87AB87BC8742
:10206000AB89BC89AB2B11F410E001C014E0ED8901
:10207000FE89EF2B09F018608F89988D892B09F064
:1020800010611093670670E080E090E00E94AF3529
:102090000E9471389B01AC016F85788989899A8982
:1020A0000E94E437AB01BC01C10120E00E94CB18C3
:1020B0000E9482290E94FC2883B19E85992311F0F9
:1020C000A0E78A2712FF02C084FD1B7F13FF02C016
:1020D00085FD177F14FF02C086FD1F7E10936706E3
:1020E0000E9482298091660684FF03C00E94891D98
:1020F000BEC0812F8C7101F70E9400300E94D11B5D
:1021000080918D0790918E070E9408178091850716
:1021100090918607A0918707B09188078F87988B49
:10212000A98BBA8B9D85992329F0A1E00A279150AC
:102130009D8740CF98E6C92E96E0D92E82E4882E5E
:1021400087E0982EAA24BB24C2010A2C02C09595D0
:1021500087950A94E2F780FF49C0109184078A2D81
:102160000E941217182369F1F401E4A0F5A006A15A
:1021700017A160918F0770919007809191079091BE
:102180009207A80197010E943634D3016D937D9385
:102190008D939C931397C801B701F401208131817D
:1021A000428153810E94E4370E94B437D6016C9378
:1021B00011967C93119712968C93129713969C9379
:1021C00028C080918F0790919007A0919107B091BE
:1021D0009207B058F30180839183A283B383D60121
:1021E0001D921D921D921C92139713C0F6016081DF
:1021F0007181828193810E94B135D4012D913D91ED
:102200004D915C910E941635F30160837183828346
:1022100093830894A11CB11C84E090E0680E791EA1
:10222000C80ED91E880E991E93E0A916B10409F0B4
:102230008BCF0E9450174091890750918A07609177
:102240008B0770918C07CE01019620E00E94CB187D
:1022500088E08093650680916606826080936606BA
:102260000E94891D0E94111E84E080936506689675
:102270000FB6F894DEBF0FBECDBFCF91DF911F9197
:102280000F91FF90EF90DF90CF90BF90AF909F9015
:102290008F907F906F905F904F903F902F90089518
:1022A0001F930E9483240E9450280E9432290E947A
:1022B00055328EE1E4E6F6E0DF011D928A95E9F7FA
:1022C00081E08093640678948091830784FF03C043
:1022D00081E08093650611E00E94FA240E946A0E54
:1022E0000E94D4280E948B040E94980E0E945B1DBD
:1022F0000E94D11B0E9400300E9450170E94580576
:1023000010926406109266068091830781FF03C0D5
:102310001093740602C0109274060E94281EDCCF2F
:102320008091660684FD14C080916606806180936A
:1023300066060E94E0280E949604809165068473D8
:1023400039F0809166068062809366060E94D42FE1
:10235000089584E0809365060E94BC0E84E00E948C
:102360004C0F83E00E944C0F0E94891D80916406EF
:10237000882341F40E945805109265060E94D42FCC
:102380000E94980E0895EF92FF920F931F93CF93A0
:10239000DF937B018C0120E030E040EA51E40E94B1
:1023A000E4370E94EC350E948335EB010E94111E38
:1023B000C801B70120E030E04AE754E40E94E43766
:1023C0007B018C0182E390E0C89FB001C99F700D32
:1023D000D89F700D112480E090E00E94AF359B01E2
:1023E000AC01C801B7010E9435340E94EC350E944F
:1023F0008335DC01CB010E94081700E911E00EC013
:102400000E94891D80916406882351F484EF91E035
:10241000F8013197F1F70197D9F72197209781F7C4
:10242000DF91CF911F910F91FF90EF900895DF9270
:10243000EF92FF920F931F93CF93DF93EC017A01FA
:102440008B01D22E8091830785FF03C0CE010E94AD
:10245000C70E809165068230D1F00E94891D80915F
:1024600064068823A1F40E944617882319F00E946D
:102470007F1DF3CFCE01B801A7012D2D0E94CB18EF
:1024800080916506882319F488E080936506DF91C2
:10249000CF911F910F91FF90EF90DF9008957F9261
:1024A0008F929F92AF92BF92CF92DF92EF92FF9264
:1024B0000F931F93CF93DF936C014A015B01722E40
:1024C00080916506803111F00E947F1D0E94111ECF
:1024D00080916406882309F06BC0C601B501A40190
:1024E000272D0E94171281E0809375068091660661
:1024F0008260809366060E94891D8091640688230D
:1025000009F056C080916506882311F0883099F74C
:1025100080917506813029F48091660680648093ED
:1025200066060E94891D80916406882309F040C0D8
:1025300086E7E82E86E0F82EC0E0D0E086010C0F9A
:102540001D1FF70161917191819191917F010E940D
:10255000B135FE01EE5BF84F20813181428153811C
:102560000E941635F80160837183828393832496D9
:10257000CC30D10519F70E94891D0E9400300E94BD
:10258000D11B0E945017C601B501A401272D0E943E
:102590001712809166068260809366060E94111E63
:1025A00080916406882321F40E9458050E943020FF
:1025B000DF91CF911F910F91FF90EF90DF90CF901F
:1025C000BF90AF909F908F907F9008952F923F92F1
:1025D0004F925F926F927F928F929F92AF92BF9233
:1025E000CF92DF92EF92FF920F931F93DF93CF93DF
:1025F000CDB7DEB7C255D0400FB6F894DEBF0FBEE0
:10260000CDBF3C0123967FAF6EAF239725965FAF7A
:102610004EAF259726962FAF269727960FAF279771
:102620002896EFAE28972C96ACAEBDAECEAEDFAE00
:102630002C972D968FAE2D97E22EFF24EE0CFF1CCB
:10264000EE0CFF1C4E0D5F1D21965FAF4EAF219724
:10265000DA012D903D904D905C90FC01EE0DFF1D38
:10266000C201B10120813181428153810E943634FF
:102670006DAB7EAB8FAB98AF10E0000F111F000F5A
:10268000111F2596EEADFFAD2597E00FF11FFEAFB0
:10269000EDAFA080B180C280D380F301E00FF11FC5
:1026A000C601B50120813181428153810E943634B7
:1026B00069AB7AAB8BAB9CAB28962FAD2897E22FFA
:1026C000F0E0EE0FFF1FEE0FFF1F6E0E7F1ED30117
:1026D0008D919D910D90BC91A02D89AF9AAFABAF1C
:1026E000BCAF23962EAD3FAD2397E20FF31F608161
:1026F00071818281938129AD3AAD4BAD5CAD0E9471
:1027000035346DA77EA78FA798ABD201C101B05811
:1027100089A79AA7ABA7BCA7A601950150582DA3DE
:102720003EA34FA358A723964EAD5FAD2397E40E6B
:10273000F51ED7016D917D918D919C912DA93EA99A
:102740004FA958AD0E9435343B014C012396EEADA4
:10275000FFAD23970E0F1F1FD8016D917D918D91B5
:102760009C9129A93AA94BA95CA90E9435345B0127
:102770006C0169A57AA58BA59CA5A60195010E946F
:10278000E4377B018C016DA17EA18FA198A5A401E6
:1027900093010E94E4379B01AC01C801B7010E947C
:1027A00035341B012C0169A57AA58BA59CA5A40134
:1027B00093010E94E4377B018C016DA17EA18FA162
:1027C00098A5A60195010E94E4379B01AC01C801C0
:1027D000B7010E9436349B01AC01C201B1010E94D5
:1027E000A9343B014C01AD968FADAD97882399F08C
:1027F000C401B30120E030E040E050E00E94123715
:102800008823ECF0C401B3012BED3FE049EC50E428
:102810000E94353412C0C401B30120E030E040E032
:1028200050E00E940F35181654F0C401B3012BED8F
:102830003FE049EC50E40E9436343B014C01C401B6
:10284000B301AC962CAD3DAD4EAD5FADAC970E94E3
:10285000E4372DA53EA54FA558A90E941F375B015F
:102860006C01E0907E07F0907F0700918007109147
:102870008107AC966CAD7DAD8EAD9FADAC979B01E5
:10288000AC010E943634A80197010E9435349B01A7
:10289000AC01C801B7010E94E4370E9471387B0186
:1028A0008C01C601B50120E030E040E05FE30E940A
:1028B000E437A80197010E9416350E94EC350E946A
:1028C00083357CA36BA36115710509F4BDC12D96F9
:1028D000BFAD2D97BB23A1F080E090E00E94AF3503
:1028E0009B01AC012C966CAD7DAD8EAD9FAD2C9750
:1028F0000E94E4372C966CAF7DAF8EAF9FAF2C97C4
:102900002BA13CA1B90180E090E00E94AF357B0192
:102910008C01C401B301A80197010E9416356F8F85
:1029200078A389A39AA36DA57EA58FA598A9A801D0
:1029300097010E9416356B8F7C8F8D8F9E8F6F8DC8
:1029400078A189A19AA19B01AC010E94E4379B0167
:10295000AC0160E070E080E090E40E9435345B01FF
:102960006C016F8D78A189A19AA12BEA3AEA4AE21B
:102970005EE30E94E4377B018C01C601B50120E0D3
:1029800030E040E850E40E9436349B01AC01C801BD
:10299000B7010E94E4376F8B788F898F9A8FC601B9
:1029A000B50120E030E040E05FE30E94E4376D874E
:1029B0007E878F87988B28963FAD2897E32FF0E08E
:1029C000EE0FFF1FEE0FFF1FCE010196E80FF91F5C
:1029D00029AD3AAD4BAD5CAD208331834283538347
:1029E00041E050E05A8B498B99242696BFAD26973B
:1029F000AB2FB0E0AA0FBB1FAA0FBB1F9C012A0F71
:102A00003B1F2F963FAF2EAF2F9727965FAD27978F
:102A1000452F50E0440F551F440F551F81E090E0B3
:102A20008C0F9D1F840F951F61969FAF8EAF61978E
:102A30006396FFAFEEAF6397FFC093E1991508F47B
:102A400046C069A57AA58BA59CA52F89388D498D8F
:102A50005A8D0E94E4377B018C016DA17EA18FA16C
:102A600098A52D853E854F8558890E94E4379B01A6
:102A7000AC01C801B7010E9436347B018C0169A505
:102A80007AA58BA59CA52D853E854F8558890E94EA
:102A9000E4375B016C016DA17EA18FA198A52F8900
:102AA000388D498D5A8D0E94E4379B01AC01C601D7
:102AB000B5010E94353469A77AA78BA79CA7939488
:102AC000C701D8018DA39EA3AFA3B8A763C0A989EE
:102AD000BA89BD0180E090E00E94AF352F8D38A10A
:102AE00049A15AA10E94E4377B018C01C8010E94D0
:102AF00013356B8B7C8B8D8B9E8BB701C8010E942D
:102B000067383B014C012196EEADFFAD2197E08087
:102B1000F1800281138117FB109517F91095ADAD67
:102B2000BEAD2D903D904D905C90C801B7012B89B2
:102B30003C894D895E890E94E4375B016C01C201CA
:102B4000B101A40193010E94E4379B01AC01C601CD
:102B5000B5010E94363469A77AA78BA79CA7C80144
:102B6000B701A40193010E94E4377B018C01C201EB
:102B7000B1012B893C894D895E890E94E4379B0114
:102B8000AC01C801B7010E9435346DA37EA38FA3A9
:102B900098A799246DA97EA98FA998AD29A53AA5D2
:102BA0004BA55CA50E9436342F96EEADFFAD2F9756
:102BB000608371838283938369A97AA98BA99CA975
:102BC0002DA13EA14FA158A50E9436346196AEAD0D
:102BD000BFAD61976D937D938D939C93139763968F
:102BE000EEADFFAD639760817181828193812B8D02
:102BF0003C8D4D8D5E8D0E9436346396AEADBFAD7B
:102C000063976D937D938D939C931397CE0101965B
:102C10002C964CAD5DAD6EAD7FAD2C972D962FAD46
:102C20002D970E941712809164068823E1F4E989A8
:102C3000FA893196FA8BE98B29893A894BA15CA1F3
:102C40002417350708F4F9CE23968EAD9FAD239750
:102C50002C964CAD5DAD6EAD7FAD2C972D962FAD06
:102C60002D970E941712CE5ADF4F0FB6F894DEBF91
:102C70000FBECDBFCF91DF911F910F91FF90EF90CD
:102C8000DF90CF90BF90AF909F908F907F906F908C
:102C90005F904F903F902F9008956F927F928F9208
:102CA0009F92AF92BF92CF92DF92EF92FF920F93DB
:102CB0001F93CF93DF934C013B015A01FB018081AD
:102CC000F401E80FF11DEF0189918D3229F4818122
:102CD0002196CC24C39405C08B3211F481812196B6
:102CE000CC2420E030E040E050E0DD24E0E070E083
:102CF000682F60536A30F8F4EF5FE930C0F4711167
:102D0000DA94DA01C901F2E0880F991FAA1FBB1FEC
:102D1000FA95D1F7280F391F4A1F5B1F220F331F67
:102D2000441F551F260F311D411D511D09C077231A
:102D300039F4D39405C06E3F29F4772319F471E078
:102D40008991D6CFEE2319F420E030E051C0CA01BA
:102D5000B9010E94AF357B018C0120E030E040E0FA
:102D600050E00E940F35882369F42BC0C801B701D9
:102D70002AE037ED43E25CE30E94E4377B018C01FB
:102D8000F2E0DF0E8FEFD8168CF3D81659F4C80195
:102D9000B7012DEC3CEC4CEC5DE30E94E4377B0189
:102DA0008C010FC0DD2069F0C801B70120E030E0E0
:102DB00040E251E40E94E4377B018C01DA941D1457
:102DC0009CF3CC2049F0D801C701B058F5018083AD
:102DD0009183A283B38305C0F501E082F18202836F
:102DE0001383882D80958C0FF301808321E030E0E0
:102DF000C901DF91CF911F910F91FF90EF90DF906C
:102E0000CF90BF90AF909F908F907F906F900895DC
:102E100020EA3FE004C0F9013197F1F701970097EC
:102E2000D1F70895813049F0813018F0823019F4DB
:102E300006C080E2089580E0089580E4089580E867
:102E400008952091E2048091E304821769F0922FA3
:102E50009F5F923109F490E08091E504281711F406
:102E60009093E5049093E20408959091E204809198
:102E7000E304891719F420E030E006C089E2989F46
:102E80009001112420503E4FC901089520E09091F7
:102E9000E2048091E404981709F421E0822F089558
:102EA0008091680690916906A0916A06B0916B06C0
:102EB0008093E6049093E704A093E804B093E904B8
:102EC00080916C0690916D06A0916E06B0916F0690
:102ED0008093EA049093EB04A093EC04B093ED0488
:102EE0008091700690917106A0917206B091730660
:102EF0008093EE049093EF04A093F004B093F10458
:102F000008954F925F926F927F928F929F92AF92AD
:102F1000BF92CF92DF92EF92FF920F931F93CF93C6
:102F2000DF938091E304882309F482E1782E7A9478
:102F30006090E504761409F4F2C089E2789E4001BD
:102F4000112480E092E0880E991EF401A588B688CD
:102F5000C788D08C21A132A143A154A1CA01B901D3
:102F60000E943634F40125A136A147A150A50E9444
:102F7000E4377B018C01B501C601A80197010E94CD
:102F80000F3587FD04C0D801C70157016D01C50188
:102F9000D601F401818B928BA38BB48B772011F433
:102FA00032E1732E7A94761409F04EC08091E204D7
:102FB000681609F050C00E9460294DC0769CE0015F
:102FC0001124C050DE4F772011F422E1722E7A9442
:102FD0008091E204781611F40E946029AD88BE88C1
:102FE000CF88D88C69897A898B899C89A6019501BB
:102FF0000E940F35882331F129A13AA14BA15CA190
:10300000CA01B9010E9436342DA13EA14FA158A595
:103010000E94E437F40121893289438954890E944E
:1030200036347B018C01A60195010E940F3588235F
:103030002CF4E98AFA8A0B8B1C8B04C0A98ABA8A01
:10304000CB8ADC8A4E0102C099E2692E8091E504A8
:10305000781609F0B3CFA090E504BA2CB394F2E14E
:10306000BF1609F4BB2489E2A89E800111240050F8
:103070001E4F5090E30489E2482E4CC0B49CE001FE
:103080001124C050DE4FF801C188D288E388F4884B
:1030900069887A888B889C88C701B601A40193014E
:1030A0000E940F3588231CF5F80121A132A143A10C
:1030B00054A1CA01B9010E943634F80125A136A1F4
:1030C00047A150A50E94E4379B01AC01C701B6019E
:1030D0000E9436347B018C01A40193010E940F35BC
:1030E00088232CF4E98AFA8A0B8B1C8BAB2C698918
:1030F0007A898B899C892D893E894F89588D0E94B8
:103100000F35882309F4AB2CB394F2E1BF1609F410
:10311000BB248E01B51409F0B1CFA092E504DF9174
:10312000CF911F910F91FF90EF90DF90CF90BF90C4
:10313000AF909F908F907F906F905F904F90089589
:103140000E9460298091E2048093E5040E94811727
:1031500008952091E2042F5F223109F420E080914C
:10316000E304281729F460E070E080E090E012C0EA
:1031700030E089E290E0289FF001299FF00D389F10
:10318000F00D1124E050FE4F618972898389948982
:103190000E94713808952F923F924F925F926F92E2
:1031A0007F928F929F92AF92BF92CF92DF92EF92D7
:1031B000FF920F931F93DF93CF93CDB7DEB7E697C0
:1031C0000FB6F894DEBF0FBECDBF9DA78CA74EA74C
:1031D0005FA768AB79AB2AAB9091E30489E2989F33
:1031E0004001112420E032E0820E931ED4011D968E
:1031F0001D921D921D921C92509780E090E0A0E0DD
:10320000B0E0F40185A396A3A7A3B0A7108289E933
:1032100096E7A6E9BEE781A392A3A3A3B4A322E401
:1032200037E03C8F2B8F1E010894211C311C46EE89
:10323000442E44E0542E9A8E898E1BA66624772451
:10324000ECA5FDA5E60DF71D60817181828193815A
:10325000AB8DBC8D2D913D914D915C910E94E437D9
:103260000E94B4379B01AC01F1012083318342837A
:103270005383F20180819181A281B381281B390B94
:103280004A0B5B0B57FF07C0509540953095219531
:103290003F4F4F4F5F4FA98DBA8D11962D933D93A0
:1032A0004D935C931497F40185859685A785B08925
:1032B000281739074A075B0710F49C01AD01D401B8
:1032C0001D962D933D934D935C935097F101608132
:1032D000718182819381D2012D913D914D915C91BB
:1032E000621B730B840B950B0E94B135EB8DFC8D2B
:1032F00020813181428153810E9416355B016C012E
:10330000EDE0F0E0EC0FFD1FE60DF71D608371832B
:103310008283938320E030E040E050E00E940F354C
:10332000882344F4D4011C918BA50E941217182BFA
:10333000F4011083D4019596ED90FD900D911C91B0
:103340009897C601B501A60195010E94E4379B013B
:10335000AC01C801B7010E9436347B018C01CB015E
:10336000D801F40185A396A3A7A3B0A7FBA5FF5F8F
:10337000FBA724E030E0620E731E8B8D9C8D0496BB
:103380009C8F8B8F220E331E420E531EA98DBA8D39
:103390001496BA8FA98FF33009F052CFB701C80144
:1033A0000E9471387B018C01F40165A376A387A389
:1033B00090A785859685A785B0890097A105B10559
:1033C00009F4D6C16EA57FA588A999A920E030E0AF
:1033D00040E050E00E940F3588234CF489E996E7DD
:1033E000A6E9BEE78EA79FA7A8ABB9AB0FC09AA965
:1033F000992361F0C801B7012EA53FA548A959A995
:103400000E9416356EA77FA788AB99AB60E070E08D
:1034100080E89FE3A80197010E9416356FA378A763
:1034200089A79AA7DE011D96BAA3A9A3E2EFF4E04B
:10343000F8A3EF8F2EE437E03E8F2D8F80E090E0F1
:10344000A0E0B0E08BA39CA3ADA3BEA3DE01599680
:10345000BEABADABE9A1FAA1E080F180028113819E
:10346000C801B70120E030E040E050E00E940F3595
:10347000882309F47CC0C801B7012FA138A549A54C
:103480005AA50E94E4372B013C01A9A1BAA16D9372
:103490007D938D939C93139760E070E080E89FE3A9
:1034A000A30192010E9416355B016C01E894D7F8E4
:1034B000C601B501ED8DFE8D2081318142815381A0
:1034C0000E94E4377B018C016EA57FA588A999A98C
:1034D000A80197010E940F3587FD04C0EEA6FFA644
:1034E00008AB19ABD4019196BC91BBABF401F2A12E
:1034F000FCABD40193962C90939794963C90C60184
:10350000B501ED8DFE8D24853585468557850E9454
:10351000E4377B018C016BA97CA9C101A80197014B
:103520000E940F3587FD05C0D801C701EBAA9CABEF
:103530001D018BA99CA9D101F40181A392A3A3A38E
:10354000B4A3C301B201AF8DB8A12D913D914D91AE
:103550005C910E94E4379B01AC016BA17CA18DA121
:103560009EA10E9435346BA37CA38DA39EA3E9A1E9
:10357000FAA13496FAA3E9A32F8D38A12C5F3F4F0F
:1035800038A32F8F8D8D9E8D04969E8F8D8FADA924
:10359000BEA9EA17FB0709F05DCF9091E304809183
:1035A000E204981771F480E090E0A0E0B0E0F4014C
:1035B000818B928BA38BB48B818F928FA38FB48FCF
:1035C00052C060E070E080E89FE32BA13CA14DA1D8
:1035D0005EA10E94353420E030E040E05FE30E94CD
:1035E000E4370E9471385B016C01D40191966D91B2
:1035F0007D918D919C91949720917A0730917B07D2
:1036000040917C0750917D070E94E437A601950107
:103610000E94E4377B018C0160E070E080E89FE36A
:10362000A60195010E9435349B01AC01C801B70188
:103630000E9416357B018C0120E030E040E050E034
:103640000E940F35882354F40F2EF0E0EF2EF0E0A7
:10365000FF2EF0E00F2FF0E01F2FF02DF401E18E90
:10366000F28E038F148F6EA57FA588A999A99B015F
:10367000AC010E94E4377B018C01D4015D966D930F
:103680007D938D939C93909759965C9059975A96F9
:103690004C905A975B963C905B975C962C90D090A0
:1036A000FE04C090FF04B0900005A09001052D2DF0
:1036B0003C2D4B2D5A2D0E940F3587FD04C06D2CDB
:1036C0007C2CF50105C0D801C7013701FA2FEB2F7B
:1036D000652D742D832D922D93014F2F5E2F0E9407
:1036E0000F3588232CF4852D942DA32DB22D0EC0DB
:1036F000C801B7012D2D3C2D4B2D5A2D0E940F35A1
:1037000087FD06C08D2D9C2DAB2DBA2D7C018D0122
:10371000F401E58AF68A078B108FA2EFB4E0FE0170
:103720003D968CE001900D928150E1F7F401858D7A
:10373000968DA78DB0A18093FE049093FF04A09373
:103740000005B0930105A6EEB4E0FE0131968CE0D1
:1037500001900D928150E1F78091E4048093E3049D
:103760008F5F823109F480E08093E4040E94811726
:10377000E6960FB6F894DEBF0FBECDBFCF91DF91B6
:103780001F910F91FF90EF90DF90CF90BF90AF907F
:103790009F908F907F906F905F904F903F902F9071
:1037A00008958CE1E6EEF4E0DF011D928A95E9F7D9
:1037B0001092E2041092E30481E08093E4041092FA
:1037C000E50408958F929F92AF92BF92CF92DF92BD
:1037D000EF92FF920F931F93DF93CF93CDB7DEB796
:1037E0002A970FB6F894DEBF0FBECDBF7B018C01C8
:1037F00020E030E040E050E00E940F3588233CF4A8
:103800008DE20E94992417FB109517F91095A0904E
:103810008207DA2C0CC0C801B70120E030E048EC88
:1038200052E40E94E4377B018C018EEFD80EE1E078
:10383000ED1588F3A0FE0AC0C801B70120E030E012
:1038400040E251E40E94E4377B018C01C801B701DA
:1038500020E030E040E05FE30E9436340E947E3595
:103860006B017C019E012F5F3F4FF901EA0DF11DB5
:103870008EE28083BB2449011EC0BA1409F4B394BC
:1038800084010B0D111DC701B6012AE030E040E0B4
:1038900050E00E94D138605DF8016083B394C701A5
:1038A000B6012AE030E040E050E00E94D138C90182
:1038B000DA016C017D01C114D104E104F104E9F6DF
:1038C00006C0FC01EB0DF11D2083B39403C0CE01B3
:1038D000019620E3BA14A8F3BA1489F48B2D8F5FF4
:1038E000FE01E80FF11D90E39183B82EB39407C059
:1038F000FE01EB0DF11D80810E949924BA94BB203A
:10390000B9F72A960FB6F894DEBF0FBECDBFCF91A0
:10391000DF911F910F91FF90EF90DF90CF90BF90BC
:10392000AF909F908F9008958F929F92AF92BF9289
:10393000CF92DF92EF92FF920F93DF93CF93CDB7A9
:10394000DEB72A970FB6F894DEBF0FBECDBF6B016E
:103950007C01611571058105910521F480E30E94C8
:1039600099242FC000E04E010894811C911C540141
:10397000A00EB11CC701B6012AE030E040E050E0E3
:103980000E94D138605DF50160830F5FC701B60109
:103990002AE030E040E050E00E94D138C901DA016D
:1039A0006C017D01C114D104E104F10401F707C0E9
:1039B000FE01E00FF11D80810E9499240150002337
:1039C000B9F72A960FB6F894DEBF0FBECDBFCF91E0
:1039D000DF910F91FF90EF90DF90CF90BF90AF906D
:1039E0009F908F900895EF92FF920F931F937B010A
:1039F0008C0197FF0BC08DE20E94992410950095D1
:103A0000F094E094E11CF11C011D111DC801B701E7
:103A10000E94941C1F910F91FF90EF9008950F93B7
:103A20001F93DF93CF93CDB7DEB728970FB6F894E7
:103A3000DEBF0FBECDBF982FFE0131969E01275FDE
:103A40003F4F892F817081939695E217F307C9F74D
:103A50008E01085F1F4FF8018081805D0E949924CC
:103A6000015010400C171D07B1F728960FB6F894B7
:103A7000DEBF0FBECDBFCF91DF911F910F91089593
:103A8000CF93DF93EC0102C00E949924FE0121969E
:103A900084918823C9F7DF91CF910895CF93DF9365
:103AA000EC0103C021960E94992488818823D1F7D4
:103AB000DF91CF910895E7E0F1E08081877F8083F7
:103AC000E8E0F1E080818860808308958091750648
:103AD0008130A1F48091060183FD10C0109275061B
:103AE000E6E7F6E0DF011E978CE00D900192815031
:103AF000E1F780916606886080936606089580915C
:103B00007406882329F08091660682608093660699
:103B10000895CF93DF9380916606882309F478C0D7
:103B2000C82FD0E0CE0180769070892B09F181E01A
:103B300080936506C6FF14C0C5FF02C08FEF01C0A9
:103B40008DEF0E94622481E00E94AA1E8091660689
:103B50008F7E809366068091660684FFFCCF03C04B
:103B60008EEF0E946224809166068F7980936606AC
:103B7000C4FF04C081E08093640650C0C0FF07C04A
:103B80000E94331F809166068E7F80936606C3FF76
:103B900012C080916506803149F480E28093650609
:103BA0000E9460290E948229109274068091660604
:103BB000877F80936606C1FF1AC0809165068830B2
:103BC00089F480E1809365060E9482290E94FC2886
:103BD0008091830781FF04C081E08093740602C056
:103BE00010927406809166068D7F80936606C2FFF0
:103BF0000FC00E943517892B21F088E0809365065D
:103C000002C010926506809166068B7F80936606DF
:103C100080916506847311F00E948229DF91CF9113
:103C2000089580916506803151F481E08093740697
:103C300006C00E94891D80916406882341F40E9479
:103C40003517892BB1F780916506803191F308957E
:103C50000F931F930E94A51E80916506813021F469
:103C600082E00E94AA1E2DC01092650682E095E0B7
:103C70000E94B13226C09A3011F09D3021F5E12F1B
:103C8000F0E0EE5FFA4F10820E94891D8091640679
:103C90008823B9F480910205882389F0843229F4BD
:103CA00082E095E00E94DD320AC080916506813095
:103CB00011F48CE004C082E095E00E94EA060E94C4
:103CC000D41E00E013C0002321F0993209F500E072
:103CD0001FC09132E8F09F32D9F0983211F401E020
:103CE00017C0153428F08EE00E94D41E10E010C0DA
:103CF000892F8156A12FB0E0E12FEF5F8A3120F4A8
:103D0000AE5FBA4F905202C0AE5FBA4F9C931E2F67
:103D10000E94E524982F8F3F09F0ADCF8091740663
:103D2000882329F0809166068260809366060E944F
:103D3000891D80916406882359F31F910F9108957E
:103D400084EF95E00E94401D089582E297E00E9472
:103D5000401D08951F93182F8CE897E00E94401D86
:103D6000133091F0143028F4113041F01230B1F4D6
:103D700008C0143061F0153089F40CC08AE797E070
:103D80000BC086E697E008C084E597E005C08CE4A8
:103D900097E002C083E497E00E94401D8FE397E024
:103DA0000E94401D1F9108951F93182F882319F416
:103DB0008BEC98E054C083EC98E00E94401D1730D3
:103DC00099F1183078F4133019F1143030F41130BF
:103DD000C9F0123009F041C018C01530F9F01630A2
:103DE00000F519C01B3061F11C3028F4193011F1B5
:103DF0001A3018F51CC01D3049F11D3020F11E305D
:103E000061F527C081EB98E026C089E998E023C0DE
:103E100083E898E020C084E798E01DC08EE598E034
:103E20001AC08CE498E017C08BE398E014C08FE2CE
:103E300098E011C080E298E00EC08FEF97E00BC0D1
:103E400086EF97E008C08BEE97E005C088ED97E01D
:103E500002C08AEC97E00E94401D87EC97E00E9428
:103E6000401D1F910895AF92BF92CF92DF92EF92C3
:103E7000FF920F931F93DF93CF93CDB7DEB7689771
:103E80000FB6F894DEBF0FBECDBFDE011196E8E697
:103E9000F6E08CE001900D928150E1F7809165068B
:103EA0008430E1F0853038F48130D9F0813050F041
:103EB0008230F1F419C0803159F0803261F08830DD
:103EC000B9F403C08AEA91E011C083EA91E00EC020
:103ED0008EE991E00BC088E991E008C082E991E0A9
:103EE00005C08BE891E002C084E891E00E94401D8B
:103EF0008DE791E00E94401D8DE0E82EF12CEC0E44
:103F0000FD1E670100E010E05E010894A11CB11CD9
:103F1000F501E00FF11F60817181828193810E9420
:103F2000B135F801EE5BF84F208131814281538138
:103F30000E9416359B01AC01F60160837183828378
:103F400093838091830780FF0DC0CA01B9012BE8DC
:103F500032E441E25DE30E94E437F601608371835D
:103F600082839383F60161917191819191916F01A7
:103F70000E94E21B8BE791E00E94401D0C5F1F4FE7
:103F80000C30110529F685E791E00E94401D0CE3F5
:103F900016E0DD248091830780FF1BC0F80160815B
:103FA00071818281938124853585468557850E945C
:103FB00036342BE832E441E25DEB0E94E4379B01AA
:103FC000AC01F70160817181828193810E94363456
:103FD00014C0F801608171818281938124853585C7
:103FE000468557850E9436349B01AC01F7016081FC
:103FF0007181828193810E943534F70160837183DE
:1040000082839383F70160817181828193810E9411
:10401000E21BF2E0DF1621F083E791E00E94401DF1
:10402000D39484E090E0E80EF91E0C5F1F4F93E0FC
:10403000D91609F0AFCF8FE691E00E94401D689637
:104040000FB6F894DEBF0FBECDBFCF91DF911F91A9
:104050000F91FF90EF90DF90CF90BF90AF900895B9
:10406000BF92CF92DF92EF92FF920F931F93DF9355
:10407000CF93CDB7DEB72C970FB6F894DEBF0FBE47
:10408000CDBF86E792E00E94401D26E7C22E26E0C3
:10409000D22E92E4E92E97E0F92E8E010F5F1F4F8A
:1040A000BB24F60160817181828193810E94B135C8
:1040B000F70120813181428153810E9416359B0195
:1040C000AC01F801608371838283938380918307BD
:1040D00080FF0DC0CA01B9012BE832E441E25DE383
:1040E0000E94E437F8016083718382839383F8012F
:1040F00060817181828193810E94E21BF2E0BF1690
:1041000021F084E792E00E94401DB39484E090E0A7
:10411000C80ED91EE80EF91E0C5F1F4F93E0B916AA
:1041200009F0BFCF80E792E00E94401D2C960FB6A9
:10413000F894DEBF0FBECDBFCF91DF911F910F91DD
:10414000FF90EF90DF90CF90BF9008950F931F9353
:104150008C0184EB91E00E94401DC8010E944E1D1D
:1041600080EB91E00E94401D1F910F910895CF9226
:10417000DF92EF92FF920F931F93E82E6B0189EC71
:1041800091E00E94401DFF2400E010E0C801B7014B
:104190000E94F31C87EC91E00E94401DC6010E9422
:1041A0004E1D84EC91E00E94401D1F910F91FF90E5
:1041B000EF90DF90CF90089580911C06823091F0AF
:1041C000833028F4882341F08130B1F408C0833073
:1041D00061F0853089F40CC087E392E00BC083E383
:1041E00092E008C08FE292E005C08BE292E002C04C
:1041F00086E292E00E94401D83E292E00E94401D10
:1042000060913B0670E06A5C7F4F882777FD809560
:10421000982F0E94F31C80913806882351F48091D6
:104220003906813019F48EE192E005C089E192E00F
:1042300002C084E192E00E94401D80911E06882306
:1042400019F08FE092E002C08AE092E00E94401DE7
:1042500080911F06882319F085E092E002C080E07B
:1042600092E00E94401D80911D06882319F08BEF7B
:1042700091E002C086EF91E00E94401D80912006EF
:10428000813041F0813018F0823059F406C082EF5D
:1042900091E005C08EEE91E002C08AEE91E00E94AE
:1042A000401D80912206813029F0813048F0823013
:1042B00059F403C086EE91E005C082EE91E002C0A1
:1042C0008EED91E00E94401D80912106882319F017
:1042D000813041F403C08AED91E002C086ED91E0A7
:1042E0000E94401D83ED91E00E94401D60913706C1
:1042F00070E080E090E00E94F31C80ED91E00E946D
:10430000401D80911E06882379F0609127067091E8
:1043100028068091290690912A062BE832E441E292
:104320005DE30E94E43708C060912706709128067B
:104330008091290690912A060E94E21B8CEC91E064
:104340000E94401D0895CF92DF92EF92FF920F934B
:104350001F93DF93CF93CDB7DEB72C970FB6F894AA
:10436000DEBF0FBECDBFFF246E010894C11CD11C5F
:104370008F2DB6010E942528882321F48AE00E940F
:10438000D41E92C08DE692E00E94401D83E0F81694
:10439000E9F08F1530F0E1E0FE1691F0EF1598F09E
:1043A0000CC0F5E0FF16C1F0FF1698F086E0F81695
:1043B000B1F0E7E0FE16D1F415C089E692E014C032
:1043C00085E692E011C081E692E00EC08DE592E0B4
:1043D0000BC089E592E008C085E592E005C081E563
:1043E00092E002C08DE492E00E94401D8601EE241E
:1043F0008091830780FF0CC0F80160817181828108
:1044000093812BE832E441E25DE30E94E43705C08A
:10441000F80160817181828193810E94E21BF2E048
:10442000EF1619F08BE492E002C087E492E00E945C
:10443000401DE3940C5F1F4F83E0E816C9F6F39428
:10444000E8E0FE1609F094CF81E492E00E94401D5E
:1044500008E416E0FF248091830780FF0CC0F80178
:1044600060817181828193812BE832E441E25DE3D6
:104470000E94E43705C0F8016081718182819381D7
:104480000E94E21BF2E0FF1619F08FE392E002C0F7
:104490008BE392E00E94401DF3940C5F1F4F83E07A
:1044A000F816C9F60E9430202C960FB6F894DEBF9D
:1044B0000FBECDBFCF91DF911F910F91FF90EF9075
:1044C000DF90CF90089580EF95E00E94401D6091AD
:1044D00042077091430780914407909145070E94DD
:1044E000E21B8DED95E00E94401D609146077091A2
:1044F000470780914807909149070E94E21B8AEC88
:1045000095E00E94401D60914A0770914B07809191
:104510004C0790914D070E94E21B87EB95E00E94AB
:10452000401D60914E0770914F0780915007909108
:1045300051070E94E21B8CE995E00E94401D6091AA
:1045400052077091530780915407909155070E942C
:10455000E21B81E895E00E94401D60915607709132
:10456000570780915807909159070E94E21B86E6F1
:1045700095E00E94401D60915A0770915B07809101
:104580005C0790915D0720E030E041E655E40E9431
:1045900016350E94E21B8CE495E00E94401D60915C
:1045A0005E0770915F07809160079091610720E03E
:1045B00030E041E655E40E9416350E94E21B82E39A
:1045C00095E00E94401D60916207709163078091A1
:1045D00064079091650720E030E041E655E40E94D1
:1045E00016350E94E21B88E195E00E94401D609113
:1045F00066077091670780916807909169079058E6
:104600000E94E21B8EEF94E00E94401D60916A07B9
:1046100070916B0780916C0790916D0790580E9484
:10462000E21B84EE94E00E94401D60916E07709141
:104630006F07809170079091710790580E94E21B5C
:104640008AEC94E00E94401D6091720770E080E067
:1046500090E00E94F31C80EB94E00E94401D60916A
:1046600073077091740780917507909176070E9487
:10467000E21B82E994E00E94401D6091770770E0A0
:1046800080E090E00E94F31C89E794E00E94401DC6
:10469000809177070E940F1D81E794E00E94401DE2
:1046A0006091780770E080E090E00E94F31C89E55B
:1046B00094E00E94401D809178070E940F1D81E5C3
:1046C00094E00E94401D6091790770E080E090E0E6
:1046D0000E94F31C82E394E00E94401D60917A07DF
:1046E00070917B0780917C0790917D070E94E21B6F
:1046F00082E194E00E94401D60917E0770917F07E7
:1047000080918007909181070E94E21B87EF93E0E0
:104710000E94401D6091820770E080E090E00E945E
:10472000F31C8EED93E00E94401D6091830770E0C2
:1047300080E090E061707070807090700E94F31C57
:1047400081EC93E00E94401D6091830770E07695B4
:10475000679580E090E061707070807090700E944A
:10476000F31C87EA93E00E94401D6091830770E08C
:10477000769567957695679580E090E061707070AA
:10478000807090700E94F31C85E893E00E94401DA9
:104790006091830770E0E6E076956795EA95E1F72A
:1047A00080E090E061707070807090700E94F31CE7
:1047B00084E693E00E94401D6091830770E055E01D
:1047C000769567955A95E1F780E090E0617070709A
:1047D000807090700E94F31C89E493E00E94401D59
:1047E0006091830770E043E0769567954A95E1F71D
:1047F00080E090E061707070807090700E94F31C97
:104800008EE293E00E94401D6091830770E034E0E7
:10481000769567953A95E1F780E090E06170707069
:10482000807090700E94F31C82E193E00E94401D12
:104830006091840770E080E090E00E94F31C88EFB4
:1048400092E00E94401D809184070E940F1D80EF1E
:1048500092E00E94401D60918507709186078091CB
:104860008707909188070E94E21B83ED92E00E94E7
:10487000401D6091890770918A0780918B07909104
:104880008C070E94E21B86EB92E00E94401D609123
:104890008D0770918E0780E090E00E94F31C87E9FD
:1048A00092E00E94401D60918F0770919007809167
:1048B0009107909192070E94E21B8EE792E00E947E
:1048C000401D08951F93182F8FEB97E00E94401D05
:1048D0001E3F41F01F3F19F01D3F59F406C08FEAFB
:1048E00097E005C08CE997E002C081E997E00E945B
:1048F000401D8EE897E00E94401D84EF91E00E94E9
:1049000008171F910895E0ECF0E0808182608083B9
:104910001092C50080E18093C400E1ECF0E080815A
:1049200080618083808188608083808180688083CB
:104930000895282FE0914A059E2F9F5F903431F40F
:1049400090E004C08091660684FD0FC080914B0505
:104950009817C1F3F0E0EE5FF84F208390934A057B
:104960008091C10080628093C10008951F920F92D0
:104970000FB60F920BB60F9211248F939F93EF9364
:10498000FF9380914B05E82FF0E0EE5FF84F9081A8
:104990009093C600982F9F5F903409F490E0909315
:1049A0004B0580914A05981729F48091C1008F7DAD
:1049B0008093C100FF91EF919F918F910F900BBE5B
:1049C0000F900FBE0F901F90189590914905809100
:1049D0004805891711F48FEF0895E92FF0E0EE579D
:1049E000F94F8081E92FEF5FE03809F4E0E0E093D0
:1049F00049050895809148058093490508951F92BF
:104A00000F920FB60F920BB60F9211242F933F9374
:104A10004F935F936F937F938F939F93AF93BF93C6
:104A2000EF93FF932091C6002132A1F0223218F4B7
:104A30002831B9F413C02F3319F02E3791F404C084
:104A400080916606816003C08091660682608093D3
:104A5000660618C0809166068860F9CF0E949011A2
:104A600011C0E09148059E2F9F5F903809F490E0B7
:104A700080914905981731F0F0E0EE57F94F208307
:104A800090934805FF91EF91BF91AF919F918F91C6
:104A90007F916F915F914F913F912F910F900BBE3E
:104AA0000F900FBE0F901F90189580E090E00E942D
:104AB000AD04863011F020E00CC082E497E061E0A4
:104AC00070E041E550E00E94210520E0892B09F0CB
:104AD00021E0822F089580E090E066E00E94B50416
:104AE00081E090E062E477E041E550E00E94D70485
:104AF0000895EF92FF920F931F93CF93DF93EC01F2
:104B00007A018B01CB01BA0120E030E040E050E0B7
:104B10000E940F35882314F488E0ADC1FE01C03235
:104B2000D10540F4EE58FF4FEE0FFF1F0590F491B2
:104B3000E02D199486E09FC1CC0FDD1FCC0FDD1F47
:104B4000CE5BD84FE882F9820A831B8391C1E09241
:104B50004E07F0924F07009350071093510788C1FA
:104B6000E0925207F09253070093540710935507B1
:104B70007FC1E0925607F0925707009358071093B1
:104B8000590776C1C801B70120E030E040E752E4A0
:104B90000E94E43720E030E040E752E40E94E4372E
:104BA00060935A0770935B0780935C0790935D074F
:104BB0005FC1C801B70120E030E040E752E40E9445
:104BC000E43720E030E040E752E40E94E4376093AD
:104BD0005E0770935F07809360079093610748C1F9
:104BE000C801B70120E030E040E752E40E94E4371A
:104BF00020E030E040E752E40E94E437609362072F
:104C000070936307809364079093650731C1D8015F
:104C1000C701B0588093660790936707A093680711
:104C2000B093690725C1D801C701B05880936A07BE
:104C300090936B07A0936C07B0936D0719C1D801CF
:104C4000C701B05880936E0790936F07A0937007C9
:104C5000B09371070DC1C801B70120E030E040E416
:104C600050E40E940F35882314F489E004C1C80180
:104C7000B7010E9447380E94833560937207F8C0DD
:104C8000E0927307F092740700937507109376070C
:104C9000EFC0C801B7010E94B2380E94833560930B
:104CA0007707E6C0C801B7010E94B2380E94833579
:104CB00060937807DDC0C801B7010E9447380E94A1
:104CC000833560937907D4C0D801C701BF7780933B
:104CD0007A0790937B07A0937C07B0937D07C8C0A9
:104CE000E0927E07F0927F07009380071093810780
:104CF000BFC0C801B7010E9447380E948335609346
:104D00008207B6C0C801B70120E030E040E050E0C3
:104D10000E940F35882321F080918307816011C0A4
:104D2000809183078E7F0DC0C801B70120E030E07D
:104D300040E050E00E940F35882331F080918307D6
:104D400082608093830794C0809183078D7FF9CF21
:104D5000C801B70120E030E040E050E00E940F358C
:104D6000882321F0809183078460EBCF80918307B3
:104D70008B7FE7CFC801B70120E030E040E050E092
:104D80000E940F35882321F0809183078064D9CF5A
:104D9000809183078F7BD5CFC801B70120E030E039
:104DA00040E050E00E940F35882341F08091830756
:104DB00084FD02C08DE05FC08062C3CF8091830715
:104DC0008F7DBFCFC801B70120E030E040E050E068
:104DD0000E940F35882321F080918307886003C0EB
:104DE00080918307877F809383070E94980E40C03D
:104DF000C801B70120E030E040E050E00E940F35EC
:104E0000882321F08091830780619BCF8091830765
:104E10008F7C97CFC801B7010E94B2380E948335BA
:104E20006093840725C0E0928507F092860700937F
:104E30008707109388071CC0E0928907F0928A07C1
:104E400000938B0710938C0713C0C801B7010E9411
:104E500047380E94833570938E0760938D0708C092
:104E6000E0928F07F09290070093910710939207BA
:104E70000E946B2580E0DF91CF911F910F91FF90F1
:104E8000EF90089586EF9AE7ADE9B3E48093420787
:104E900090934307A0934407B09345078093460738
:104EA00090934707A0934807B093490780934A0718
:104EB00090934B07A0934C07B0934D078AE08093E3
:104EC000720780E090E0AEE7B3E4809373079093BD
:104ED0007407A0937507B093760720E030EC4EE19D
:104EE00054E420934E0730934F074093500750935C
:104EF0005107209352073093530740935407509320
:104F000055072093560730935707409358075093FF
:104F1000590780E098ECAFE2B8E480935A07909389
:104F20005B07A0935C07B0935D0780935E07909347
:104F30005F07A0936007B093610780936207909327
:104F40006307A0936407B09365078FE692E1A3E03F
:104F5000BBE380937E0790937F07A0938007B09375
:104F600081071092770780EC809378078AE097EDAD
:104F7000A3EABCE380937A0790937B07A0937C0716
:104F8000B0937D0782E0809383071092840780E0CE
:104F900090E0A8E4B2E48093850790938607A093FD
:104FA0008707B09388072093890730938A07409337
:104FB0008B0750938C078AEF90E090938E07809335
:104FC0008D0780E090E0A0E8BFE380938F07909387
:104FD0009007A0939107B093920789E18093790796
:104FE00083E08093820780E090E0A1E6B3EC8093B9
:104FF000660790936707A0936807B093690780E0FE
:1050000090E0AAEFB2EC80936A0790936B07A093AD
:105010006C07B0936D0780E090E0AAE2B3EC809358
:105020006E0790936F07A0937007B09371070E946B
:105030006B2508959DE0899FC001112480509E4FEB
:105040004CE050E00E94D70408950F931F93CF9334
:10505000DF93162F072F9DE0899FE0011124C05098
:10506000DE4F862F972FBE014CE050E00E942105B5
:10507000892B11F081E00FC0E12FF02F8CE0DF01D0
:105080001D928A95E9F7CE01612F702F4CE050E018
:105090000E94D70480E0DF91CF911F910F91089576
:1050A000EF92FF921F93DF93CF93CDB7DEB72C978C
:1050B0000FB6F894DEBF0FBECDBF0E9455258823E2
:1050C00039F48AE00E94D41E0E9442270E94632283
:1050D00010E07E010894E11CF11C812FB7010E94B1
:1050E0002528882319F48AE00E94D41E1F5F1830F7
:1050F000A1F72C960FB6F894DEBF0FBECDBFCF91AF
:10510000DF911F91FF90EF900895BC0180EE93E036
:1051100046E450E00E94D7040895CF93DF93EC015A
:1051200060EE73E046E450E00E942105892B11F007
:1051300081E009C0188280EE93E0BE0146E450E0B1
:105140000E94D70480E0DF91CF91089597E4899F72
:10515000C001112480509D4F46E450E00E94D704C6
:1051600008950F931F93CF93DF938B0197E4899F4B
:10517000E0011124C050DD4FCB01BE0146E450E0F8
:105180000E942105892B11F081E009C0F8011082ED
:10519000CE01B80146E450E00E94D70480E0DF91E0
:1051A000CF911F910F910895E1E0F1E08081886037
:1051B00080836B9AE2E0F1E08081877F80830895AD
:1051C000E2E0F1E08081877F808308951F93182FAC
:1051D0000E94111E112321F480910201877F08C0D3
:1051E000113011F4739801C0739A809102018860A4
:1051F000809302011F9108958091830782FF02C06E
:105200002F9A01C02F98809165068471A1F080913A
:1052100078078093D405809177078093D305809198
:105220007207880F845081958093D20580916F001A
:10523000826080936F0008951F920F920FB60F92B5
:1052400011248F939F9392B1809177078C71937EF5
:10525000892B82B915BC9F918F910F900FBE0F9033
:105260001F90189581B18C6181B982B1837E909134
:105270007707892B82B9279A81B1806E81B982B173
:105280008F7190917807892B82B9E1E8F0E08081F5
:105290008F7E8083808188608083E0E8F0E0808179
:1052A0008C7F808380818F708083EEE6F0E0808148
:1052B000887F808314BC15BC8081816080830895C1
:1052C000CF93DF93C091EC05D091ED052097B9F015
:1052D00081E08093F1052091070630910806409106
:1052E000090650910A06CA01B9010E94E437698B88
:1052F0007A8B8B8B9C8B1092ED051092EC05DF91D5
:10530000CF9108952F923F924F925F926F927F922A
:105310008F929F92AF92BF92CF92DF92EF92FF92C5
:105320000F931F93DF93CF93CDB7DEB7E9970FB6F7
:10533000F894DEBF0FBECDBF17C68091EC059091EB
:10534000ED05892B09F07EC20E9435179093ED057B
:105350008093EC05892B09F40EC68091F105882312
:1053600019F01092F105CAC08091F0058F5F80930B
:10537000F005853011F41092F005E091F00521E17F
:10538000E29FF0011124E45BFA4FF093EF05E09304
:10539000EE050091EC051091ED05D8018C9180830C
:1053A00011962D913D914D915C91149773E0220FD0
:1053B000331F441F551F7A95D1F7218332834383CE
:1053C000548315962D913D914D915C91189763E012
:1053D000220F331F441F551F6A95D1F7258336834B
:1053E0004783508719962D913D914D915C911C9763
:1053F00093E0220F331F441F551F9A95D1F7218741
:105400003287438754871D962D913D914D915C9134
:10541000509783E0220F331F441F551F8A95D1F701
:10542000258736874787508B1D966D917D918D918D
:105430009C9150970E94AF356093F2057093F305ED
:105440008093F4059093F505F80125A136A147A1B5
:1054500050A50E9416359B01AC016093F605709330
:10546000F7058093F8059093F90560E070E080EA15
:105470009FE30E9416356093FA057093FB058093B5
:10548000FC059093FD0580E090E0A0E0B0E0809303
:10549000FE059093FF05A0930006B093010680914E
:1054A00065068032E1F420910F063091100640919C
:1054B0001106509112062093070630930806409378
:1054C000090650930A06CA01B9010E94E437D801BF
:1054D00051966D937D938D939C9354970FC0F801D3
:1054E00061897289838994890E9471386093070663
:1054F000709308068093090690930A0680E090E076
:10550000A0E0B0E08093030690930406A093050604
:10551000B09306060091EC051091ED05D801919627
:105520008D919D910D90BC91A02D88AB99ABAAABAC
:10553000BBAB60E070E080E09FE328A939A94AA9ED
:105540005BA90E9416351B012C01809165068032F3
:1055500009F056C0B2E0B0930206F801A5A0B6A0CB
:10556000C7A0D0A46188728883889488C201B101E1
:10557000A40193010E94E4379B01AC01C601B5016F
:105580000E9435347B018C0120E030E040E050E0A7
:105590000E940F358823FCF468A979A98AA99BA9E0
:1055A00020E030E040E050EC0E94E437A601950195
:1055B0000E94E4379B01AC01C401B3010E94363460
:1055C0000E94713860930F06709310068093110645
:1055D0009093120637C1E0920306F09204060093FE
:1055E00005061093060680E090E0A0E0B0E080930E
:1055F0000F0690931006A0931106B093120622C1D5
:1056000010920206F80185A196A1A7A1B0A58093EA
:10561000130690931406A0931506B09316060E94E5
:10562000A9185B016C0160930F06709310068093BC
:10563000110690931206A60195010E94E4373B01E2
:105640004C012091EC053091ED0539AF28AFD9011F
:1056500095968D919D910D90BC91A02D8B8F9C8FD7
:10566000AD8FBE8FF9016189728983899489A40104
:1056700093010E9435349B01AC01C201B1010E942B
:10568000E4379B01AC016B8D7C8D8D8D9E8D0E94CE
:10569000363420E030E040E05FE30E94E4377B01F5
:1056A0008C0120E030E040E050E00E9412371816F4
:1056B0000CF0B4C0C801B7012B8D3C8D4D8D5E8DB3
:1056C0000E940F3588230CF095C0A8ADB9AD5D964A
:1056D0006D917D918D919C919097A40193010E9471
:1056E00035349B01AC01C201B1010E94E4376093E3
:1056F0001706709318068093190690931A06A8014E
:1057000097010E940F3588230CF047C0E8ADF9AD32
:10571000E58CF68C078D10A1C801B7010E94713885
:1057200060930B0670930C0680930D0690930E0603
:10573000A8ADB9AD5196AD90BD90CD90DC90549789
:10574000C601B501A80197010E940F35882321F4F5
:10575000B1E0B093020676C0C801B701A601950179
:105760000E9435349B01AC01C201B1010E94E437B3
:105770009B01AC016091130670911406809115068F
:10578000909116060E9435346093130670931406A8
:10579000809315069093160655C0E0921306F0927A
:1057A00014060093150610931606E0921706F09261
:1057B00018060093190610931A06E8ADF9AD21A159
:1057C00032A143A154A1CA01B9010E943634A801F3
:1057D00097010E94E437A40193010E9436340E948D
:1057E000713860930B0670930C0680930D069093AE
:1057F0000E0628C0F2E0F093020680910706909111
:105800000806A0910906B0910A0680930B069093B2
:105810000C06A0930D06B0930E0614C080E090E035
:10582000A0E0B0E08093130690931406A0931506B1
:10583000B0931606A0920B06B0920C06C0920D060D
:10584000D0920E068091E905B6E08B9FD00111241D
:10585000AF55BA4FB9AFA8AF8091F00512968C93AF
:10586000E091EC05F091ED05FA8FE98F85A196A105
:10587000A7A1B0A58D8B9E8BAF8BB88FBC01CD013E
:105880002091FA053091FB054091FC055091FD05F2
:105890000E9435346CA37DA38EA39FA320E030E04B
:1058A00040E050E00E940F35882344F480E090E00F
:1058B000A0E0B0E08CA39DA3AEA3BFA3809113068C
:1058C00090911406A0911506B0911606898B9A8BBB
:1058D000AB8BBC8B80910B0690910C06A0910D06B2
:1058E000B0910E068D879E87AF87B88B8091170683
:1058F00090911806A0911906B0911A0689879A8787
:10590000AB87BC878091030690910406A0910506A1
:10591000B09106068D839E83AF83B88780910F0672
:1059200090911006A0911106B091120689839A8376
:10593000AB83BC838091070690910806A09109066D
:10594000B0910A0688A399A3AAA3BBA390910206CB
:105950009F8FAD88BE88CF88D88C8EE393ECAEE263
:10596000B9E38CA79DA7AEA7BFA780E090E0A0E019
:10597000B0E088A799A7AAA7BBA70F2EFEE36F2EBA
:10598000F3EC7F2EFEE28F2EF9E39F2EF02D9F8DFC
:10599000992321F0913009F0B3C080C0C401B30154
:1059A000A98DBA8D91962D913D914D915C919497D1
:1059B0000E94E4377B018C0120E030E040E05FE3AF
:1059C0000E94E4379B01AC0168A179A18AA19BA147
:1059D0000E9436349B01AC01C401B3010E94E4373C
:1059E0009B01AC01C601B5010E9435345B016C011D
:1059F00029893A894B895C890E940F3588230CF0EC
:105A000040C069897A898B899C8929853A854B852B
:105A10005C850E940F35882319F4B2E0BF8F02C065
:105A2000E1E0EF8F6D897E898F89988D29893A8988
:105A30004B895C890E9435349B01AC010E9436344D
:105A40007B018C0168A179A18AA19BA12D853E854E
:105A50004F8558890E9436349B01AC01C801B701BB
:105A60000E9416353B014C01A988BA88CB88DC8896
:105A70008D859E85AF85B88988A399A3AAA3BBA36A
:105A8000B0C068A179A18AA19BA1A80197010E9439
:105A9000363468A379A38AA39BA3A3C06D857E85B2
:105AA0008F859889A40193010E94E4379B01AC0182
:105AB000C601B5010E9435347B018C0129853A85E8
:105AC0004B855C850E940F3587FD03C05701680137
:105AD00088C0C601B50129853A854B855C850E9441
